{
  "_format": "hh-sol-artifact-1",
  "contractName": "Warehouse",
  "sourceName": "contracts/Roles/Warehouse.sol",
  "abi": [
    {
      "inputs": [],
      "stateMutability": "nonpayable",
      "type": "constructor"
    },
    {
      "anonymous": false,
      "inputs": [
        {
          "indexed": false,
          "internalType": "address",
          "name": "_address",
          "type": "address"
        }
      ],
      "name": "AddWarehouse",
      "type": "event"
    },
    {
      "anonymous": false,
      "inputs": [
        {
          "indexed": true,
          "internalType": "address",
          "name": "previousOwner",
          "type": "address"
        },
        {
          "indexed": true,
          "internalType": "address",
          "name": "newOwner",
          "type": "address"
        }
      ],
      "name": "OwnershipTransferred",
      "type": "event"
    },
    {
      "anonymous": false,
      "inputs": [
        {
          "indexed": false,
          "internalType": "address",
          "name": "_address",
          "type": "address"
        }
      ],
      "name": "RemoveWarehouse",
      "type": "event"
    },
    {
      "inputs": [
        {
          "internalType": "address",
          "name": "_address",
          "type": "address"
        }
      ],
      "name": "addWarehouse",
      "outputs": [],
      "stateMutability": "nonpayable",
      "type": "function"
    },
    {
      "inputs": [],
      "name": "getWarehouse",
      "outputs": [
        {
          "internalType": "address[]",
          "name": "",
          "type": "address[]"
        }
      ],
      "stateMutability": "view",
      "type": "function"
    },
    {
      "inputs": [
        {
          "internalType": "address",
          "name": "_address",
          "type": "address"
        }
      ],
      "name": "isWarehouse",
      "outputs": [
        {
          "internalType": "bool",
          "name": "",
          "type": "bool"
        }
      ],
      "stateMutability": "view",
      "type": "function"
    },
    {
      "inputs": [],
      "name": "owner",
      "outputs": [
        {
          "internalType": "address",
          "name": "",
          "type": "address"
        }
      ],
      "stateMutability": "view",
      "type": "function"
    },
    {
      "inputs": [
        {
          "internalType": "address",
          "name": "_address",
          "type": "address"
        }
      ],
      "name": "removeSelfWarehouse",
      "outputs": [],
      "stateMutability": "nonpayable",
      "type": "function"
    },
    {
      "inputs": [
        {
          "internalType": "address",
          "name": "_address",
          "type": "address"
        }
      ],
      "name": "removeWarehouse",
      "outputs": [],
      "stateMutability": "nonpayable",
      "type": "function"
    },
    {
      "inputs": [],
      "name": "renounceOwnership",
      "outputs": [],
      "stateMutability": "nonpayable",
      "type": "function"
    },
    {
      "inputs": [
        {
          "internalType": "address",
          "name": "newOwner",
          "type": "address"
        }
      ],
      "name": "transferOwnership",
      "outputs": [],
      "stateMutability": "nonpayable",
      "type": "function"
    }
  ],
  "bytecode": "0x60806040523480156200001157600080fd5b5062000032620000266200004960201b60201c565b6200005160201b60201c565b62000043336200011560201b60201c565b620005c1565b600033905090565b60008060009054906101000a900473ffffffffffffffffffffffffffffffffffffffff169050816000806101000a81548173ffffffffffffffffffffffffffffffffffffffff021916908373ffffffffffffffffffffffffffffffffffffffff1602179055508173ffffffffffffffffffffffffffffffffffffffff168173ffffffffffffffffffffffffffffffffffffffff167f8be0079c531659141344cd1fd0a4f28419497f9722a3daafe3b4186f6b6457e060405160405180910390a35050565b620001256200017c60201b60201c565b620001408160016200020d60201b620003ca1790919060201c565b7f364ee90eb63717b99192fdb951c7b1aa91a45bca11ac73ab40cfad762631fbce81604051620001719190620003f9565b60405180910390a150565b6200018c6200004960201b60201c565b73ffffffffffffffffffffffffffffffffffffffff16620001b2620002cb60201b60201c565b73ffffffffffffffffffffffffffffffffffffffff16146200020b576040517f08c379a0000000000000000000000000000000000000000000000000000000008152600401620002029062000477565b60405180910390fd5b565b6200021f8282620002f460201b60201c565b1562000262576040517f08c379a00000000000000000000000000000000000000000000000000000000081526004016200025990620004e9565b60405180910390fd5b81600001819080600181540180825580915050600190039060005260206000200160009091909190916101000a81548173ffffffffffffffffffffffffffffffffffffffff021916908373ffffffffffffffffffffffffffffffffffffffff1602179055505050565b60008060009054906101000a900473ffffffffffffffffffffffffffffffffffffffff16905090565b6000808360000180549050905060005b81811015620003a7578373ffffffffffffffffffffffffffffffffffffffff168560000182815481106200033d576200033c6200050b565b5b9060005260206000200160009054906101000a900473ffffffffffffffffffffffffffffffffffffffff1673ffffffffffffffffffffffffffffffffffffffff1614156200039157600192505050620003ae565b80806200039e9062000573565b91505062000304565b5060009150505b92915050565b600073ffffffffffffffffffffffffffffffffffffffff82169050919050565b6000620003e182620003b4565b9050919050565b620003f381620003d4565b82525050565b6000602082019050620004106000830184620003e8565b92915050565b600082825260208201905092915050565b7f4f776e61626c653a2063616c6c6572206973206e6f7420746865206f776e6572600082015250565b60006200045f60208362000416565b91506200046c8262000427565b602082019050919050565b60006020820190508181036000830152620004928162000450565b9050919050565b7f524f4c455f414c52454144595f45584953545300000000000000000000000000600082015250565b6000620004d160138362000416565b9150620004de8262000499565b602082019050919050565b600060208201905081810360008301526200050481620004c2565b9050919050565b7f4e487b7100000000000000000000000000000000000000000000000000000000600052603260045260246000fd5b7f4e487b7100000000000000000000000000000000000000000000000000000000600052601160045260246000fd5b6000819050919050565b6000620005808262000569565b91507fffffffffffffffffffffffffffffffffffffffffffffffffffffffffffffffff821415620005b657620005b56200053a565b5b600182019050919050565b610dbb80620005d16000396000f3fe608060405234801561001057600080fd5b50600436106100885760003560e01c80638da5cb5b1161005b5780638da5cb5b146100ed578063bca4bd501461010b578063e3c1a5311461013b578063f2fde38b1461015757610088565b80632885b9431461008d578063715018a6146100ab578063814f696e146100b55780638853ad75146100d1575b600080fd5b610095610173565b6040516100a291906109aa565b60405180910390f35b6100b3610184565b005b6100cf60048036038101906100ca91906109fd565b610198565b005b6100eb60048036038101906100e691906109fd565b6101ee565b005b6100f56102aa565b6040516101029190610a39565b60405180910390f35b610125600480360381019061012091906109fd565b6102d3565b6040516101329190610a6f565b60405180910390f35b610155600480360381019061015091906109fd565b6102f0565b005b610171600480360381019061016c91906109fd565b610346565b005b606061017f600161047d565b905090565b61018c61050f565b610196600061058d565b565b6101a061050f565b6101b48160016103ca90919063ffffffff16565b7f364ee90eb63717b99192fdb951c7b1aa91a45bca11ac73ab40cfad762631fbce816040516101e39190610a39565b60405180910390a150565b8073ffffffffffffffffffffffffffffffffffffffff163373ffffffffffffffffffffffffffffffffffffffff161461025c576040517f08c379a000000000000000000000000000000000000000000000000000000000815260040161025390610ae7565b60405180910390fd5b61027081600161065190919063ffffffff16565b7f9cfe362d8a536c3b63d391e311186b7f259fdd498eecf5d32626fe9b95058a7d8160405161029f9190610a39565b60405180910390a150565b60008060009054906101000a900473ffffffffffffffffffffffffffffffffffffffff16905090565b60006102e98260016107fb90919063ffffffff16565b9050919050565b6102f861050f565b61030c81600161065190919063ffffffff16565b7f9cfe362d8a536c3b63d391e311186b7f259fdd498eecf5d32626fe9b95058a7d8160405161033b9190610a39565b60405180910390a150565b61034e61050f565b600073ffffffffffffffffffffffffffffffffffffffff168173ffffffffffffffffffffffffffffffffffffffff1614156103be576040517f08c379a00000000000000000000000000000000000000000000000000000000081526004016103b590610b79565b60405180910390fd5b6103c78161058d565b50565b6103d482826107fb565b15610414576040517f08c379a000000000000000000000000000000000000000000000000000000000815260040161040b90610be5565b60405180910390fd5b81600001819080600181540180825580915050600190039060005260206000200160009091909190916101000a81548173ffffffffffffffffffffffffffffffffffffffff021916908373ffffffffffffffffffffffffffffffffffffffff1602179055505050565b60608160000180548060200260200160405190810160405280929190818152602001828054801561050357602002820191906000526020600020905b8160009054906101000a900473ffffffffffffffffffffffffffffffffffffffff1673ffffffffffffffffffffffffffffffffffffffff16815260200190600101908083116104b9575b50505050509050919050565b6105176108b2565b73ffffffffffffffffffffffffffffffffffffffff166105356102aa565b73ffffffffffffffffffffffffffffffffffffffff161461058b576040517f08c379a000000000000000000000000000000000000000000000000000000000815260040161058290610c51565b60405180910390fd5b565b60008060009054906101000a900473ffffffffffffffffffffffffffffffffffffffff169050816000806101000a81548173ffffffffffffffffffffffffffffffffffffffff021916908373ffffffffffffffffffffffffffffffffffffffff1602179055508173ffffffffffffffffffffffffffffffffffffffff168173ffffffffffffffffffffffffffffffffffffffff167f8be0079c531659141344cd1fd0a4f28419497f9722a3daafe3b4186f6b6457e060405160405180910390a35050565b600082600001805490509050600080600090505b828110156107ab57811561071f5784600001818154811061068957610688610c71565b5b9060005260206000200160009054906101000a900473ffffffffffffffffffffffffffffffffffffffff16856000016001836106c59190610cd9565b815481106106d6576106d5610c71565b5b9060005260206000200160006101000a81548173ffffffffffffffffffffffffffffffffffffffff021916908373ffffffffffffffffffffffffffffffffffffffff1602179055505b8373ffffffffffffffffffffffffffffffffffffffff1685600001828154811061074c5761074b610c71565b5b9060005260206000200160009054906101000a900473ffffffffffffffffffffffffffffffffffffffff1673ffffffffffffffffffffffffffffffffffffffff16141561079857600191505b80806107a390610d0d565b915050610665565b50836000018054806107c0576107bf610d56565b5b6001900381819060005260206000200160006101000a81549073ffffffffffffffffffffffffffffffffffffffff0219169055905550505050565b6000808360000180549050905060005b818110156108a5578373ffffffffffffffffffffffffffffffffffffffff168560000182815481106108405761083f610c71565b5b9060005260206000200160009054906101000a900473ffffffffffffffffffffffffffffffffffffffff1673ffffffffffffffffffffffffffffffffffffffff161415610892576001925050506108ac565b808061089d90610d0d565b91505061080b565b5060009150505b92915050565b600033905090565b600081519050919050565b600082825260208201905092915050565b6000819050602082019050919050565b600073ffffffffffffffffffffffffffffffffffffffff82169050919050565b6000610911826108e6565b9050919050565b61092181610906565b82525050565b60006109338383610918565b60208301905092915050565b6000602082019050919050565b6000610957826108ba565b61096181856108c5565b935061096c836108d6565b8060005b8381101561099d5781516109848882610927565b975061098f8361093f565b925050600181019050610970565b5085935050505092915050565b600060208201905081810360008301526109c4818461094c565b905092915050565b600080fd5b6109da81610906565b81146109e557600080fd5b50565b6000813590506109f7816109d1565b92915050565b600060208284031215610a1357610a126109cc565b5b6000610a21848285016109e8565b91505092915050565b610a3381610906565b82525050565b6000602082019050610a4e6000830184610a2a565b92915050565b60008115159050919050565b610a6981610a54565b82525050565b6000602082019050610a846000830184610a60565b92915050565b600082825260208201905092915050565b7f594f555f43414e5f4e4f545f524f4d4f56455f544849535f4144445245535300600082015250565b6000610ad1601f83610a8a565b9150610adc82610a9b565b602082019050919050565b60006020820190508181036000830152610b0081610ac4565b9050919050565b7f4f776e61626c653a206e6577206f776e657220697320746865207a65726f206160008201527f6464726573730000000000000000000000000000000000000000000000000000602082015250565b6000610b63602683610a8a565b9150610b6e82610b07565b604082019050919050565b60006020820190508181036000830152610b9281610b56565b9050919050565b7f524f4c455f414c52454144595f45584953545300000000000000000000000000600082015250565b6000610bcf601383610a8a565b9150610bda82610b99565b602082019050919050565b60006020820190508181036000830152610bfe81610bc2565b9050919050565b7f4f776e61626c653a2063616c6c6572206973206e6f7420746865206f776e6572600082015250565b6000610c3b602083610a8a565b9150610c4682610c05565b602082019050919050565b60006020820190508181036000830152610c6a81610c2e565b9050919050565b7f4e487b7100000000000000000000000000000000000000000000000000000000600052603260045260246000fd5b6000819050919050565b7f4e487b7100000000000000000000000000000000000000000000000000000000600052601160045260246000fd5b6000610ce482610ca0565b9150610cef83610ca0565b925082821015610d0257610d01610caa565b5b828203905092915050565b6000610d1882610ca0565b91507fffffffffffffffffffffffffffffffffffffffffffffffffffffffffffffffff821415610d4b57610d4a610caa565b5b600182019050919050565b7f4e487b7100000000000000000000000000000000000000000000000000000000600052603160045260246000fdfea264697066735822122030fbae3cd2a1d2e6f23a8fa07128beee3f30753c9495490e2c76c0754116123364736f6c63430008080033",
  "linkReferences": {},
  "deployedLinkReferences": {}
}