{
  "_format": "hh-sol-artifact-1",
  "contractName": "RawMaterialSupplier",
  "sourceName": "contracts/Roles/RawMaterialSupplier.sol",
  "abi": [
    {
      "inputs": [],
      "stateMutability": "nonpayable",
      "type": "constructor"
    },
    {
      "anonymous": false,
      "inputs": [
        {
          "indexed": false,
          "internalType": "address",
          "name": "_address",
          "type": "address"
        }
      ],
      "name": "AddRawMaterialSupplier",
      "type": "event"
    },
    {
      "anonymous": false,
      "inputs": [
        {
          "indexed": true,
          "internalType": "address",
          "name": "previousOwner",
          "type": "address"
        },
        {
          "indexed": true,
          "internalType": "address",
          "name": "newOwner",
          "type": "address"
        }
      ],
      "name": "OwnershipTransferred",
      "type": "event"
    },
    {
      "anonymous": false,
      "inputs": [
        {
          "indexed": false,
          "internalType": "address",
          "name": "_address",
          "type": "address"
        }
      ],
      "name": "RemoveRawMaterialSupplier",
      "type": "event"
    },
    {
      "inputs": [
        {
          "internalType": "address",
          "name": "_address",
          "type": "address"
        }
      ],
      "name": "addRawMaterialSupplier",
      "outputs": [],
      "stateMutability": "nonpayable",
      "type": "function"
    },
    {
      "inputs": [],
      "name": "getRawMaterialSupplier",
      "outputs": [
        {
          "internalType": "address[]",
          "name": "",
          "type": "address[]"
        }
      ],
      "stateMutability": "view",
      "type": "function"
    },
    {
      "inputs": [
        {
          "internalType": "address",
          "name": "_address",
          "type": "address"
        }
      ],
      "name": "isRawMaterialSupplier",
      "outputs": [
        {
          "internalType": "bool",
          "name": "",
          "type": "bool"
        }
      ],
      "stateMutability": "view",
      "type": "function"
    },
    {
      "inputs": [],
      "name": "owner",
      "outputs": [
        {
          "internalType": "address",
          "name": "",
          "type": "address"
        }
      ],
      "stateMutability": "view",
      "type": "function"
    },
    {
      "inputs": [
        {
          "internalType": "address",
          "name": "_address",
          "type": "address"
        }
      ],
      "name": "removeRawMaterialSupplier",
      "outputs": [],
      "stateMutability": "nonpayable",
      "type": "function"
    },
    {
      "inputs": [
        {
          "internalType": "address",
          "name": "_address",
          "type": "address"
        }
      ],
      "name": "removeRawMaterialSupplierSelf",
      "outputs": [],
      "stateMutability": "nonpayable",
      "type": "function"
    },
    {
      "inputs": [],
      "name": "renounceOwnership",
      "outputs": [],
      "stateMutability": "nonpayable",
      "type": "function"
    },
    {
      "inputs": [
        {
          "internalType": "address",
          "name": "newOwner",
          "type": "address"
        }
      ],
      "name": "transferOwnership",
      "outputs": [],
      "stateMutability": "nonpayable",
      "type": "function"
    }
  ],
  "bytecode": "0x60806040523480156200001157600080fd5b5062000032620000266200004960201b60201c565b6200005160201b60201c565b62000043336200011560201b60201c565b620005c1565b600033905090565b60008060009054906101000a900473ffffffffffffffffffffffffffffffffffffffff169050816000806101000a81548173ffffffffffffffffffffffffffffffffffffffff021916908373ffffffffffffffffffffffffffffffffffffffff1602179055508173ffffffffffffffffffffffffffffffffffffffff168173ffffffffffffffffffffffffffffffffffffffff167f8be0079c531659141344cd1fd0a4f28419497f9722a3daafe3b4186f6b6457e060405160405180910390a35050565b620001256200017c60201b60201c565b620001408160016200020d60201b620003ca1790919060201c565b7fa3da795b47eb190084f878e63c07509e5f6df63ebc51443c0ccab2fc11c0d88381604051620001719190620003f9565b60405180910390a150565b6200018c6200004960201b60201c565b73ffffffffffffffffffffffffffffffffffffffff16620001b2620002cb60201b60201c565b73ffffffffffffffffffffffffffffffffffffffff16146200020b576040517f08c379a0000000000000000000000000000000000000000000000000000000008152600401620002029062000477565b60405180910390fd5b565b6200021f8282620002f460201b60201c565b1562000262576040517f08c379a00000000000000000000000000000000000000000000000000000000081526004016200025990620004e9565b60405180910390fd5b81600001819080600181540180825580915050600190039060005260206000200160009091909190916101000a81548173ffffffffffffffffffffffffffffffffffffffff021916908373ffffffffffffffffffffffffffffffffffffffff1602179055505050565b60008060009054906101000a900473ffffffffffffffffffffffffffffffffffffffff16905090565b6000808360000180549050905060005b81811015620003a7578373ffffffffffffffffffffffffffffffffffffffff168560000182815481106200033d576200033c6200050b565b5b9060005260206000200160009054906101000a900473ffffffffffffffffffffffffffffffffffffffff1673ffffffffffffffffffffffffffffffffffffffff1614156200039157600192505050620003ae565b80806200039e9062000573565b91505062000304565b5060009150505b92915050565b600073ffffffffffffffffffffffffffffffffffffffff82169050919050565b6000620003e182620003b4565b9050919050565b620003f381620003d4565b82525050565b6000602082019050620004106000830184620003e8565b92915050565b600082825260208201905092915050565b7f4f776e61626c653a2063616c6c6572206973206e6f7420746865206f776e6572600082015250565b60006200045f60208362000416565b91506200046c8262000427565b602082019050919050565b60006020820190508181036000830152620004928162000450565b9050919050565b7f524f4c455f414c52454144595f45584953545300000000000000000000000000600082015250565b6000620004d160138362000416565b9150620004de8262000499565b602082019050919050565b600060208201905081810360008301526200050481620004c2565b9050919050565b7f4e487b7100000000000000000000000000000000000000000000000000000000600052603260045260246000fd5b7f4e487b7100000000000000000000000000000000000000000000000000000000600052601160045260246000fd5b6000819050919050565b6000620005808262000569565b91507fffffffffffffffffffffffffffffffffffffffffffffffffffffffffffffffff821415620005b657620005b56200053a565b5b600182019050919050565b610dbb80620005d16000396000f3fe608060405234801561001057600080fd5b50600436106100885760003560e01c80638da5cb5b1161005b5780638da5cb5b146100eb578063bdacda3114610109578063f2fde38b14610127578063faf31e081461014357610088565b80633c0e25a41461008d5780635166b5c8146100a9578063715018a6146100c557806380bedacf146100cf575b600080fd5b6100a760048036038101906100a2919061091d565b610173565b005b6100c360048036038101906100be919061091d565b6101c9565b005b6100cd61021f565b005b6100e960048036038101906100e4919061091d565b610233565b005b6100f36102ef565b6040516101009190610959565b60405180910390f35b610111610318565b60405161011e9190610a32565b60405180910390f35b610141600480360381019061013c919061091d565b610329565b005b61015d6004803603810190610158919061091d565b6103ad565b60405161016a9190610a6f565b60405180910390f35b61017b61047d565b61018f8160016103ca90919063ffffffff16565b7fa3da795b47eb190084f878e63c07509e5f6df63ebc51443c0ccab2fc11c0d883816040516101be9190610959565b60405180910390a150565b6101d161047d565b6101e58160016104fb90919063ffffffff16565b7fccc03dfae55d568292686488ccd27bcdc249a89347bf1c13a2115a29062618b7816040516102149190610959565b60405180910390a150565b61022761047d565b61023160006106a5565b565b8073ffffffffffffffffffffffffffffffffffffffff163373ffffffffffffffffffffffffffffffffffffffff16146102a1576040517f08c379a000000000000000000000000000000000000000000000000000000000815260040161029890610ae7565b60405180910390fd5b6102b58160016104fb90919063ffffffff16565b7fccc03dfae55d568292686488ccd27bcdc249a89347bf1c13a2115a29062618b7816040516102e49190610959565b60405180910390a150565b60008060009054906101000a900473ffffffffffffffffffffffffffffffffffffffff16905090565b60606103246001610769565b905090565b61033161047d565b600073ffffffffffffffffffffffffffffffffffffffff168173ffffffffffffffffffffffffffffffffffffffff1614156103a1576040517f08c379a000000000000000000000000000000000000000000000000000000000815260040161039890610b79565b60405180910390fd5b6103aa816106a5565b50565b60006103c38260016107fb90919063ffffffff16565b9050919050565b6103d482826107fb565b15610414576040517f08c379a000000000000000000000000000000000000000000000000000000000815260040161040b90610be5565b60405180910390fd5b81600001819080600181540180825580915050600190039060005260206000200160009091909190916101000a81548173ffffffffffffffffffffffffffffffffffffffff021916908373ffffffffffffffffffffffffffffffffffffffff1602179055505050565b6104856108b2565b73ffffffffffffffffffffffffffffffffffffffff166104a36102ef565b73ffffffffffffffffffffffffffffffffffffffff16146104f9576040517f08c379a00000000000000000000000000000000000000000000000000000000081526004016104f090610c51565b60405180910390fd5b565b600082600001805490509050600080600090505b828110156106555781156105c95784600001818154811061053357610532610c71565b5b9060005260206000200160009054906101000a900473ffffffffffffffffffffffffffffffffffffffff168560000160018361056f9190610cd9565b815481106105805761057f610c71565b5b9060005260206000200160006101000a81548173ffffffffffffffffffffffffffffffffffffffff021916908373ffffffffffffffffffffffffffffffffffffffff1602179055505b8373ffffffffffffffffffffffffffffffffffffffff168560000182815481106105f6576105f5610c71565b5b9060005260206000200160009054906101000a900473ffffffffffffffffffffffffffffffffffffffff1673ffffffffffffffffffffffffffffffffffffffff16141561064257600191505b808061064d90610d0d565b91505061050f565b508360000180548061066a57610669610d56565b5b6001900381819060005260206000200160006101000a81549073ffffffffffffffffffffffffffffffffffffffff0219169055905550505050565b60008060009054906101000a900473ffffffffffffffffffffffffffffffffffffffff169050816000806101000a81548173ffffffffffffffffffffffffffffffffffffffff021916908373ffffffffffffffffffffffffffffffffffffffff1602179055508173ffffffffffffffffffffffffffffffffffffffff168173ffffffffffffffffffffffffffffffffffffffff167f8be0079c531659141344cd1fd0a4f28419497f9722a3daafe3b4186f6b6457e060405160405180910390a35050565b6060816000018054806020026020016040519081016040528092919081815260200182805480156107ef57602002820191906000526020600020905b8160009054906101000a900473ffffffffffffffffffffffffffffffffffffffff1673ffffffffffffffffffffffffffffffffffffffff16815260200190600101908083116107a5575b50505050509050919050565b6000808360000180549050905060005b818110156108a5578373ffffffffffffffffffffffffffffffffffffffff168560000182815481106108405761083f610c71565b5b9060005260206000200160009054906101000a900473ffffffffffffffffffffffffffffffffffffffff1673ffffffffffffffffffffffffffffffffffffffff161415610892576001925050506108ac565b808061089d90610d0d565b91505061080b565b5060009150505b92915050565b600033905090565b600080fd5b600073ffffffffffffffffffffffffffffffffffffffff82169050919050565b60006108ea826108bf565b9050919050565b6108fa816108df565b811461090557600080fd5b50565b600081359050610917816108f1565b92915050565b600060208284031215610933576109326108ba565b5b600061094184828501610908565b91505092915050565b610953816108df565b82525050565b600060208201905061096e600083018461094a565b92915050565b600081519050919050565b600082825260208201905092915050565b6000819050602082019050919050565b6109a9816108df565b82525050565b60006109bb83836109a0565b60208301905092915050565b6000602082019050919050565b60006109df82610974565b6109e9818561097f565b93506109f483610990565b8060005b83811015610a25578151610a0c88826109af565b9750610a17836109c7565b9250506001810190506109f8565b5085935050505092915050565b60006020820190508181036000830152610a4c81846109d4565b905092915050565b60008115159050919050565b610a6981610a54565b82525050565b6000602082019050610a846000830184610a60565b92915050565b600082825260208201905092915050565b7f594f555f43414e5f4e4f545f524f4d4f56455f544849535f4144445245535300600082015250565b6000610ad1601f83610a8a565b9150610adc82610a9b565b602082019050919050565b60006020820190508181036000830152610b0081610ac4565b9050919050565b7f4f776e61626c653a206e6577206f776e657220697320746865207a65726f206160008201527f6464726573730000000000000000000000000000000000000000000000000000602082015250565b6000610b63602683610a8a565b9150610b6e82610b07565b604082019050919050565b60006020820190508181036000830152610b9281610b56565b9050919050565b7f524f4c455f414c52454144595f45584953545300000000000000000000000000600082015250565b6000610bcf601383610a8a565b9150610bda82610b99565b602082019050919050565b60006020820190508181036000830152610bfe81610bc2565b9050919050565b7f4f776e61626c653a2063616c6c6572206973206e6f7420746865206f776e6572600082015250565b6000610c3b602083610a8a565b9150610c4682610c05565b602082019050919050565b60006020820190508181036000830152610c6a81610c2e565b9050919050565b7f4e487b7100000000000000000000000000000000000000000000000000000000600052603260045260246000fd5b6000819050919050565b7f4e487b7100000000000000000000000000000000000000000000000000000000600052601160045260246000fd5b6000610ce482610ca0565b9150610cef83610ca0565b925082821015610d0257610d01610caa565b5b828203905092915050565b6000610d1882610ca0565b91507fffffffffffffffffffffffffffffffffffffffffffffffffffffffffffffffff821415610d4b57610d4a610caa565b5b600182019050919050565b7f4e487b7100000000000000000000000000000000000000000000000000000000600052603160045260246000fdfea26469706673582212202c1bc7a4e863252abf522f7511451a6b8acf6f8e827f575389e1bf681285150a64736f6c63430008080033",
  "linkReferences": {},
  "deployedLinkReferences": {}
}