{
  "_format": "hh-sol-artifact-1",
  "contractName": "Supplychain",
  "sourceName": "contracts/Supplychain.sol",
  "abi": [
    {
      "inputs": [
        {
          "internalType": "address",
          "name": "_supplychainToken",
          "type": "address"
        }
      ],
      "stateMutability": "nonpayable",
      "type": "constructor"
    },
    {
      "anonymous": false,
      "inputs": [
        {
          "indexed": false,
          "internalType": "uint256",
          "name": "_supplyChainId",
          "type": "uint256"
        }
      ],
      "name": "DistributorSellToRetailer",
      "type": "event"
    },
    {
      "anonymous": false,
      "inputs": [
        {
          "indexed": false,
          "internalType": "uint256",
          "name": "_supplyChainId",
          "type": "uint256"
        }
      ],
      "name": "FactoryBuyRawMaterial",
      "type": "event"
    },
    {
      "anonymous": false,
      "inputs": [
        {
          "indexed": false,
          "internalType": "uint256",
          "name": "_supplyChainId",
          "type": "uint256"
        }
      ],
      "name": "FactorySellItemToDistributors",
      "type": "event"
    },
    {
      "anonymous": false,
      "inputs": [
        {
          "indexed": false,
          "internalType": "uint256",
          "name": "_supplyChainId",
          "type": "uint256"
        }
      ],
      "name": "RawMaterialSupplierSuppliesRM",
      "type": "event"
    },
    {
      "anonymous": false,
      "inputs": [
        {
          "indexed": false,
          "internalType": "uint256",
          "name": "_supplyChainId",
          "type": "uint256"
        }
      ],
      "name": "RetailerSellToCustomer",
      "type": "event"
    },
    {
      "inputs": [
        {
          "internalType": "uint256",
          "name": "",
          "type": "uint256"
        }
      ],
      "name": "OGRawMaterilasDetails",
      "outputs": [
        {
          "internalType": "uint256",
          "name": "OGPolyesterAmount",
          "type": "uint256"
        },
        {
          "internalType": "uint256",
          "name": "OGCottonAmount",
          "type": "uint256"
        },
        {
          "internalType": "uint256",
          "name": "OGWoolAmount",
          "type": "uint256"
        },
        {
          "internalType": "uint256",
          "name": "OGUnits",
          "type": "uint256"
        }
      ],
      "stateMutability": "view",
      "type": "function"
    },
    {
      "inputs": [
        {
          "internalType": "uint256",
          "name": "",
          "type": "uint256"
        }
      ],
      "name": "YarnDetails",
      "outputs": [
        {
          "internalType": "uint256",
          "name": "YarnAmount",
          "type": "uint256"
        },
        {
          "internalType": "string",
          "name": "YarnColor",
          "type": "string"
        },
        {
          "internalType": "string",
          "name": "YarnType",
          "type": "string"
        }
      ],
      "stateMutability": "view",
      "type": "function"
    },
    {
      "inputs": [
        {
          "internalType": "uint256",
          "name": "_supplyChainId",
          "type": "uint256"
        },
        {
          "internalType": "address",
          "name": "retailer",
          "type": "address"
        },
        {
          "internalType": "uint256",
          "name": "quantity",
          "type": "uint256"
        }
      ],
      "name": "customerBuyItem",
      "outputs": [],
      "stateMutability": "nonpayable",
      "type": "function"
    },
    {
      "inputs": [
        {
          "internalType": "uint256",
          "name": "_supplyChainId",
          "type": "uint256"
        },
        {
          "internalType": "address[]",
          "name": "retailers",
          "type": "address[]"
        },
        {
          "internalType": "uint256[]",
          "name": "quantity",
          "type": "uint256[]"
        }
      ],
      "name": "distributorSellToRetailer",
      "outputs": [],
      "stateMutability": "nonpayable",
      "type": "function"
    },
    {
      "inputs": [
        {
          "internalType": "uint256",
          "name": "_supplyChainId",
          "type": "uint256"
        },
        {
          "internalType": "address",
          "name": "_warehouse",
          "type": "address"
        }
      ],
      "name": "factoryBuyRawMaterial",
      "outputs": [],
      "stateMutability": "nonpayable",
      "type": "function"
    },
    {
      "inputs": [
        {
          "internalType": "uint256",
          "name": "_supplyChainId",
          "type": "uint256"
        },
        {
          "internalType": "uint256",
          "name": "_totalUnits",
          "type": "uint256"
        },
        {
          "internalType": "string",
          "name": "_description",
          "type": "string"
        }
      ],
      "name": "factoryCompleteGarmentManufacturing",
      "outputs": [],
      "stateMutability": "nonpayable",
      "type": "function"
    },
    {
      "inputs": [
        {
          "internalType": "uint256",
          "name": "_supplyChainId",
          "type": "uint256"
        },
        {
          "internalType": "uint256",
          "name": "_yarnAmount",
          "type": "uint256"
        },
        {
          "internalType": "string",
          "name": "_yarnColor",
          "type": "string"
        },
        {
          "internalType": "string",
          "name": "_yarnType",
          "type": "string"
        }
      ],
      "name": "factoryCompleteSpinningWaeving",
      "outputs": [],
      "stateMutability": "nonpayable",
      "type": "function"
    },
    {
      "inputs": [
        {
          "internalType": "uint256",
          "name": "_supplyChainId",
          "type": "uint256"
        },
        {
          "internalType": "uint256",
          "name": "_totalUnits",
          "type": "uint256"
        }
      ],
      "name": "factoryQCFinalItems",
      "outputs": [],
      "stateMutability": "nonpayable",
      "type": "function"
    },
    {
      "inputs": [
        {
          "internalType": "uint256",
          "name": "_supplyChainId",
          "type": "uint256"
        },
        {
          "internalType": "uint256",
          "name": "_polyesterAmount",
          "type": "uint256"
        },
        {
          "internalType": "uint256",
          "name": "_cottonAmount",
          "type": "uint256"
        },
        {
          "internalType": "uint256",
          "name": "_woolAmount",
          "type": "uint256"
        }
      ],
      "name": "factoryQCRawMaterials",
      "outputs": [],
      "stateMutability": "nonpayable",
      "type": "function"
    },
    {
      "inputs": [
        {
          "internalType": "uint256",
          "name": "_supplyChainId",
          "type": "uint256"
        },
        {
          "internalType": "address",
          "name": "distributor",
          "type": "address"
        }
      ],
      "name": "factorySellItemToDistributors",
      "outputs": [],
      "stateMutability": "nonpayable",
      "type": "function"
    },
    {
      "inputs": [
        {
          "internalType": "uint256",
          "name": "_supplychianId",
          "type": "uint256"
        }
      ],
      "name": "getRetailers",
      "outputs": [
        {
          "internalType": "address[]",
          "name": "",
          "type": "address[]"
        }
      ],
      "stateMutability": "view",
      "type": "function"
    },
    {
      "inputs": [
        {
          "internalType": "uint256",
          "name": "_supplychianId",
          "type": "uint256"
        }
      ],
      "name": "getRetailersCounters",
      "outputs": [
        {
          "internalType": "uint256[]",
          "name": "",
          "type": "uint256[]"
        }
      ],
      "stateMutability": "view",
      "type": "function"
    },
    {
      "inputs": [
        {
          "internalType": "uint256",
          "name": "_supplychianId",
          "type": "uint256"
        }
      ],
      "name": "getRetailersUnits",
      "outputs": [
        {
          "internalType": "uint256[]",
          "name": "",
          "type": "uint256[]"
        }
      ],
      "stateMutability": "view",
      "type": "function"
    },
    {
      "inputs": [
        {
          "internalType": "address",
          "name": "warehouse",
          "type": "address"
        }
      ],
      "name": "getWarehouseItems",
      "outputs": [
        {
          "components": [
            {
              "internalType": "uint256",
              "name": "supplyChainId",
              "type": "uint256"
            },
            {
              "internalType": "enum Supplychain.State",
              "name": "itemState",
              "type": "uint8"
            },
            {
              "internalType": "uint256",
              "name": "PolyesterAmount",
              "type": "uint256"
            },
            {
              "internalType": "uint256",
              "name": "CottonAmount",
              "type": "uint256"
            },
            {
              "internalType": "uint256",
              "name": "WoolAmount",
              "type": "uint256"
            },
            {
              "internalType": "uint256",
              "name": "totalUnits",
              "type": "uint256"
            },
            {
              "internalType": "string",
              "name": "Description",
              "type": "string"
            },
            {
              "internalType": "address",
              "name": "RawMaterialSupplierID",
              "type": "address"
            },
            {
              "internalType": "address",
              "name": "warehouseID",
              "type": "address"
            },
            {
              "internalType": "address",
              "name": "factoryID",
              "type": "address"
            },
            {
              "internalType": "address",
              "name": "distributorId",
              "type": "address"
            }
          ],
          "internalType": "struct Supplychain.Item[]",
          "name": "",
          "type": "tuple[]"
        }
      ],
      "stateMutability": "view",
      "type": "function"
    },
    {
      "inputs": [
        {
          "internalType": "uint256",
          "name": "",
          "type": "uint256"
        }
      ],
      "name": "items",
      "outputs": [
        {
          "internalType": "uint256",
          "name": "supplyChainId",
          "type": "uint256"
        },
        {
          "internalType": "enum Supplychain.State",
          "name": "itemState",
          "type": "uint8"
        },
        {
          "internalType": "uint256",
          "name": "PolyesterAmount",
          "type": "uint256"
        },
        {
          "internalType": "uint256",
          "name": "CottonAmount",
          "type": "uint256"
        },
        {
          "internalType": "uint256",
          "name": "WoolAmount",
          "type": "uint256"
        },
        {
          "internalType": "uint256",
          "name": "totalUnits",
          "type": "uint256"
        },
        {
          "internalType": "string",
          "name": "Description",
          "type": "string"
        },
        {
          "internalType": "address",
          "name": "RawMaterialSupplierID",
          "type": "address"
        },
        {
          "internalType": "address",
          "name": "warehouseID",
          "type": "address"
        },
        {
          "internalType": "address",
          "name": "factoryID",
          "type": "address"
        },
        {
          "internalType": "address",
          "name": "distributorId",
          "type": "address"
        }
      ],
      "stateMutability": "view",
      "type": "function"
    },
    {
      "inputs": [
        {
          "internalType": "uint256",
          "name": "_polyesterAmount",
          "type": "uint256"
        },
        {
          "internalType": "uint256",
          "name": "_cottonAmount",
          "type": "uint256"
        },
        {
          "internalType": "uint256",
          "name": "_woolAmount",
          "type": "uint256"
        }
      ],
      "name": "rawMaterialSupplierSuppliesRM",
      "outputs": [],
      "stateMutability": "nonpayable",
      "type": "function"
    },
    {
      "inputs": [
        {
          "internalType": "uint256",
          "name": "",
          "type": "uint256"
        },
        {
          "internalType": "uint256",
          "name": "",
          "type": "uint256"
        }
      ],
      "name": "timeStamps",
      "outputs": [
        {
          "internalType": "uint256",
          "name": "",
          "type": "uint256"
        }
      ],
      "stateMutability": "view",
      "type": "function"
    },
    {
      "inputs": [],
      "name": "totalBatchs",
      "outputs": [
        {
          "internalType": "uint256",
          "name": "",
          "type": "uint256"
        }
      ],
      "stateMutability": "view",
      "type": "function"
    }
  ],
  "bytecode": "0x60806040523480156200001157600080fd5b5060405162005629380380620056298339818101604052810190620000379190620000e8565b806000806101000a81548173ffffffffffffffffffffffffffffffffffffffff021916908373ffffffffffffffffffffffffffffffffffffffff160217905550506200011a565b600080fd5b600073ffffffffffffffffffffffffffffffffffffffff82169050919050565b6000620000b08262000083565b9050919050565b620000c281620000a3565b8114620000ce57600080fd5b50565b600081519050620000e281620000b7565b92915050565b6000602082840312156200010157620001006200007e565b5b60006200011184828501620000d1565b91505092915050565b6154ff806200012a6000396000f3fe608060405234801561001057600080fd5b50600436106101165760003560e01c806354342143116100a2578063aaed934e11610071578063aaed934e146102f0578063bfb231d21461030c578063bfed485614610346578063e6647c5c14610376578063eeb34133146103a657610116565b8063543421431461026957806361d272b8146102855780639aa598af146102b8578063a198d496146102d457610116565b80632100c7c8116100e95780632100c7c8146101b3578063319af857146101cf57806340f72149146101ff5780634c5eee0a1461021b5780634d2ec64c1461023757610116565b80631af5dcf21461011b578063201ef8f21461013757806320519bb014610153578063209d353e14610183575b600080fd5b610135600480360381019061013091906145b3565b6103c4565b005b610151600480360381019061014c91906146f3565b610b6d565b005b61016d60048036038101906101689190614792565b6111f5565b60405161017a919061487d565b60405180910390f35b61019d60048036038101906101989190614792565b611260565b6040516101aa919061495d565b60405180910390f35b6101cd60048036038101906101c8919061497f565b611301565b005b6101e960048036038101906101e49190614792565b611af1565b6040516101f6919061487d565b60405180910390f35b6102196004803603810190610214919061497f565b611b5c565b005b610235600480360381019061023091906149bf565b612275565b005b610251600480360381019061024c9190614792565b6128f3565b60405161026093929190614ac5565b60405180910390f35b610283600480360381019061027e9190614b0a565b612a2d565b005b61029f600480360381019061029a9190614792565b612ed6565b6040516102af9493929190614b4a565b60405180910390f35b6102d260048036038101906102cd9190614b8f565b612f06565b005b6102ee60048036038101906102e99190614be2565b6134cb565b005b61030a60048036038101906103059190614c35565b6138c2565b005b61032660048036038101906103219190614792565b613d81565b60405161033d9b9a99989796959493929190614d22565b60405180910390f35b610360600480360381019061035b9190614dd4565b613ef0565b60405161036d919061500b565b60405180910390f35b610390600480360381019061038b9190614b0a565b6141e6565b60405161039d919061502d565b60405180910390f35b6103ae614217565b6040516103bb919061502d565b60405180910390f35b60006005600085815260200190815260200160002060405180610160016040529081600082015481526020016001820160009054906101000a900460ff16600881111561041457610413614c9c565b5b600881111561042657610425614c9c565b5b81526020016002820154815260200160038201548152602001600482015481526020016005820154815260200160068201805461046290615077565b80601f016020809104026020016040519081016040528092919081815260200182805461048e90615077565b80156104db5780601f106104b0576101008083540402835291602001916104db565b820191906000526020600020905b8154815290600101906020018083116104be57829003601f168201915b505050505081526020016007820160009054906101000a900473ffffffffffffffffffffffffffffffffffffffff1673ffffffffffffffffffffffffffffffffffffffff1673ffffffffffffffffffffffffffffffffffffffff1681526020016008820160009054906101000a900473ffffffffffffffffffffffffffffffffffffffff1673ffffffffffffffffffffffffffffffffffffffff1673ffffffffffffffffffffffffffffffffffffffff1681526020016009820160009054906101000a900473ffffffffffffffffffffffffffffffffffffffff1673ffffffffffffffffffffffffffffffffffffffff1673ffffffffffffffffffffffffffffffffffffffff168152602001600a820160009054906101000a900473ffffffffffffffffffffffffffffffffffffffff1673ffffffffffffffffffffffffffffffffffffffff1673ffffffffffffffffffffffffffffffffffffffff1681525050905060078160200190600881111561065757610656614c9c565b5b9081600881111561066b5761066a614c9c565b5b8152505060008160a00151905060008054906101000a900473ffffffffffffffffffffffffffffffffffffffff1673ffffffffffffffffffffffffffffffffffffffff1663156e29f633876001856106c391906150d8565b6040518463ffffffff1660e01b81526004016106e19392919061510c565b600060405180830381600087803b1580156106fb57600080fd5b505af115801561070f573d6000803e3d6000fd5b5050505081600560008781526020019081526020016000206000820151816000015560208201518160010160006101000a81548160ff0219169083600881111561075c5761075b614c9c565b5b021790555060408201518160020155606082015181600301556080820151816004015560a0820151816005015560c08201518160060190805190602001906107a592919061424c565b5060e08201518160070160006101000a81548173ffffffffffffffffffffffffffffffffffffffff021916908373ffffffffffffffffffffffffffffffffffffffff1602179055506101008201518160080160006101000a81548173ffffffffffffffffffffffffffffffffffffffff021916908373ffffffffffffffffffffffffffffffffffffffff1602179055506101208201518160090160006101000a81548173ffffffffffffffffffffffffffffffffffffffff021916908373ffffffffffffffffffffffffffffffffffffffff16021790555061014082015181600a0160006101000a81548173ffffffffffffffffffffffffffffffffffffffff021916908373ffffffffffffffffffffffffffffffffffffffff1602179055509050506000805b8551811015610af357600760008881526020019081526020016000208682815181106108fb576108fa615143565b5b60200260200101519080600181540180825580915050600190039060005260206000200160009091909190916101000a81548173ffffffffffffffffffffffffffffffffffffffff021916908373ffffffffffffffffffffffffffffffffffffffff1602179055506008600088815260200190815260200160002085828151811061098957610988615143565b5b602002602001015190806001815401808255809150506001900390600052602060002001600090919091909150556009600088815260200190815260200160002082908060018154018082558091505060019003906000526020600020016000909190919091505560008054906101000a900473ffffffffffffffffffffffffffffffffffffffff1673ffffffffffffffffffffffffffffffffffffffff1663e51a27ce33888481518110610a4157610a40615143565b5b60200260200101518a898681518110610a5d57610a5c615143565b5b6020026020010151876040518663ffffffff1660e01b8152600401610a869594939291906151cf565b600060405180830381600087803b158015610aa057600080fd5b505af1158015610ab4573d6000803e3d6000fd5b50505050848181518110610acb57610aca615143565b5b602002602001015182610ade9190615235565b91508080610aeb9061528b565b9150506108cc565b50600460008781526020019081526020016000204290806001815401808255809150506001900390600052602060002001600090919091909150557fb9f01075be5d71ca908e0aae338e241c77af5da8fbd7d476d37de1c8634dc0e286604051610b5d919061502d565b60405180910390a1505050505050565b60006005600086815260200190815260200160002060405180610160016040529081600082015481526020016001820160009054906101000a900460ff166008811115610bbd57610bbc614c9c565b5b6008811115610bcf57610bce614c9c565b5b815260200160028201548152602001600382015481526020016004820154815260200160058201548152602001600682018054610c0b90615077565b80601f0160208091040260200160405190810160405280929190818152602001828054610c3790615077565b8015610c845780601f10610c5957610100808354040283529160200191610c84565b820191906000526020600020905b815481529060010190602001808311610c6757829003601f168201915b505050505081526020016007820160009054906101000a900473ffffffffffffffffffffffffffffffffffffffff1673ffffffffffffffffffffffffffffffffffffffff1673ffffffffffffffffffffffffffffffffffffffff1681526020016008820160009054906101000a900473ffffffffffffffffffffffffffffffffffffffff1673ffffffffffffffffffffffffffffffffffffffff1673ffffffffffffffffffffffffffffffffffffffff1681526020016009820160009054906101000a900473ffffffffffffffffffffffffffffffffffffffff1673ffffffffffffffffffffffffffffffffffffffff1673ffffffffffffffffffffffffffffffffffffffff168152602001600a820160009054906101000a900473ffffffffffffffffffffffffffffffffffffffff1673ffffffffffffffffffffffffffffffffffffffff1673ffffffffffffffffffffffffffffffffffffffff1681525050905083600260008781526020019081526020016000206000018190555082600260008781526020019081526020016000206001019080519060200190610e2c92919061424c565b5081600260008781526020019081526020016000206002019080519060200190610e5792919061424c565b50600381602001906008811115610e7157610e70614c9c565b5b90816008811115610e8557610e84614c9c565b5b8152505080600560008781526020019081526020016000206000820151816000015560208201518160010160006101000a81548160ff02191690836008811115610ed257610ed1614c9c565b5b021790555060408201518160020155606082015181600301556080820151816004015560a0820151816005015560c0820151816006019080519060200190610f1b92919061424c565b5060e08201518160070160006101000a81548173ffffffffffffffffffffffffffffffffffffffff021916908373ffffffffffffffffffffffffffffffffffffffff1602179055506101008201518160080160006101000a81548173ffffffffffffffffffffffffffffffffffffffff021916908373ffffffffffffffffffffffffffffffffffffffff1602179055506101208201518160090160006101000a81548173ffffffffffffffffffffffffffffffffffffffff021916908373ffffffffffffffffffffffffffffffffffffffff16021790555061014082015181600a0160006101000a81548173ffffffffffffffffffffffffffffffffffffffff021916908373ffffffffffffffffffffffffffffffffffffffff16021790555090505060006006600083610100015173ffffffffffffffffffffffffffffffffffffffff1673ffffffffffffffffffffffffffffffffffffffff16815260200190815260200160002080549050905060008111156111b35760005b818110156111b157866006600085610100015173ffffffffffffffffffffffffffffffffffffffff1673ffffffffffffffffffffffffffffffffffffffff16815260200190815260200160002082815481106110f5576110f4615143565b5b90600052602060002090600b020160000154141561119e5760036006600085610100015173ffffffffffffffffffffffffffffffffffffffff1673ffffffffffffffffffffffffffffffffffffffff168152602001908152602001600020828154811061116557611164615143565b5b90600052602060002090600b020160010160006101000a81548160ff0219169083600881111561119857611197614c9c565b5b02179055505b80806111a99061528b565b915050611096565b505b60046000878152602001908152602001600020429080600181540180825580915050600190039060005260206000200160009091909190915055505050505050565b60606009600083815260200190815260200160002080548060200260200160405190810160405280929190818152602001828054801561125457602002820191906000526020600020905b815481526020019060010190808311611240575b50505050509050919050565b6060600760008381526020019081526020016000208054806020026020016040519081016040528092919081815260200182805480156112f557602002820191906000526020600020905b8160009054906101000a900473ffffffffffffffffffffffffffffffffffffffff1673ffffffffffffffffffffffffffffffffffffffff16815260200190600101908083116112ab575b50505050509050919050565b60006005600084815260200190815260200160002060405180610160016040529081600082015481526020016001820160009054906101000a900460ff16600881111561135157611350614c9c565b5b600881111561136357611362614c9c565b5b81526020016002820154815260200160038201548152602001600482015481526020016005820154815260200160068201805461139f90615077565b80601f01602080910402602001604051908101604052809291908181526020018280546113cb90615077565b80156114185780601f106113ed57610100808354040283529160200191611418565b820191906000526020600020905b8154815290600101906020018083116113fb57829003601f168201915b505050505081526020016007820160009054906101000a900473ffffffffffffffffffffffffffffffffffffffff1673ffffffffffffffffffffffffffffffffffffffff1673ffffffffffffffffffffffffffffffffffffffff1681526020016008820160009054906101000a900473ffffffffffffffffffffffffffffffffffffffff1673ffffffffffffffffffffffffffffffffffffffff1673ffffffffffffffffffffffffffffffffffffffff1681526020016009820160009054906101000a900473ffffffffffffffffffffffffffffffffffffffff1673ffffffffffffffffffffffffffffffffffffffff1673ffffffffffffffffffffffffffffffffffffffff168152602001600a820160009054906101000a900473ffffffffffffffffffffffffffffffffffffffff1673ffffffffffffffffffffffffffffffffffffffff1673ffffffffffffffffffffffffffffffffffffffff1681525050905060008160e0015190503382610120019073ffffffffffffffffffffffffffffffffffffffff16908173ffffffffffffffffffffffffffffffffffffffff16815250508282610100019073ffffffffffffffffffffffffffffffffffffffff16908173ffffffffffffffffffffffffffffffffffffffff168152505060018260200190600881111561160f5761160e614c9c565b5b9081600881111561162357611622614c9c565b5b8152505081600560008681526020019081526020016000206000820151816000015560208201518160010160006101000a81548160ff021916908360088111156116705761166f614c9c565b5b021790555060408201518160020155606082015181600301556080820151816004015560a0820151816005015560c08201518160060190805190602001906116b992919061424c565b5060e08201518160070160006101000a81548173ffffffffffffffffffffffffffffffffffffffff021916908373ffffffffffffffffffffffffffffffffffffffff1602179055506101008201518160080160006101000a81548173ffffffffffffffffffffffffffffffffffffffff021916908373ffffffffffffffffffffffffffffffffffffffff1602179055506101208201518160090160006101000a81548173ffffffffffffffffffffffffffffffffffffffff021916908373ffffffffffffffffffffffffffffffffffffffff16021790555061014082015181600a0160006101000a81548173ffffffffffffffffffffffffffffffffffffffff021916908373ffffffffffffffffffffffffffffffffffffffff160217905550905050600660008473ffffffffffffffffffffffffffffffffffffffff1673ffffffffffffffffffffffffffffffffffffffff1681526020019081526020016000208290806001815401808255809150506001900390600052602060002090600b02016000909190919091506000820151816000015560208201518160010160006101000a81548160ff0219169083600881111561187a57611879614c9c565b5b021790555060408201518160020155606082015181600301556080820151816004015560a0820151816005015560c08201518160060190805190602001906118c392919061424c565b5060e08201518160070160006101000a81548173ffffffffffffffffffffffffffffffffffffffff021916908373ffffffffffffffffffffffffffffffffffffffff1602179055506101008201518160080160006101000a81548173ffffffffffffffffffffffffffffffffffffffff021916908373ffffffffffffffffffffffffffffffffffffffff1602179055506101208201518160090160006101000a81548173ffffffffffffffffffffffffffffffffffffffff021916908373ffffffffffffffffffffffffffffffffffffffff16021790555061014082015181600a0160006101000a81548173ffffffffffffffffffffffffffffffffffffffff021916908373ffffffffffffffffffffffffffffffffffffffff160217905550505060008054906101000a900473ffffffffffffffffffffffffffffffffffffffff1673ffffffffffffffffffffffffffffffffffffffff1663e51a27ce823387600160006040518663ffffffff1660e01b8152600401611a48959493929190615354565b600060405180830381600087803b158015611a6257600080fd5b505af1158015611a76573d6000803e3d6000fd5b50505050600460008581526020019081526020016000204290806001815401808255809150506001900390600052602060002001600090919091909150557f84fad793fc72a4890032a0a48ea25fb57401690403f128ee2aaf047af876291c84604051611ae3919061502d565b60405180910390a150505050565b606060086000838152602001908152602001600020805480602002602001604051908101604052809291908181526020018280548015611b5057602002820191906000526020600020905b815481526020019060010190808311611b3c575b50505050509050919050565b60006005600084815260200190815260200160002060405180610160016040529081600082015481526020016001820160009054906101000a900460ff166008811115611bac57611bab614c9c565b5b6008811115611bbe57611bbd614c9c565b5b815260200160028201548152602001600382015481526020016004820154815260200160058201548152602001600682018054611bfa90615077565b80601f0160208091040260200160405190810160405280929190818152602001828054611c2690615077565b8015611c735780601f10611c4857610100808354040283529160200191611c73565b820191906000526020600020905b815481529060010190602001808311611c5657829003601f168201915b505050505081526020016007820160009054906101000a900473ffffffffffffffffffffffffffffffffffffffff1673ffffffffffffffffffffffffffffffffffffffff1673ffffffffffffffffffffffffffffffffffffffff1681526020016008820160009054906101000a900473ffffffffffffffffffffffffffffffffffffffff1673ffffffffffffffffffffffffffffffffffffffff1673ffffffffffffffffffffffffffffffffffffffff1681526020016009820160009054906101000a900473ffffffffffffffffffffffffffffffffffffffff1673ffffffffffffffffffffffffffffffffffffffff1673ffffffffffffffffffffffffffffffffffffffff168152602001600a820160009054906101000a900473ffffffffffffffffffffffffffffffffffffffff1673ffffffffffffffffffffffffffffffffffffffff1673ffffffffffffffffffffffffffffffffffffffff16815250509050600681602001906008811115611def57611dee614c9c565b5b90816008811115611e0357611e02614c9c565b5b815250508181610140019073ffffffffffffffffffffffffffffffffffffffff16908173ffffffffffffffffffffffffffffffffffffffff168152505060008054906101000a900473ffffffffffffffffffffffffffffffffffffffff1673ffffffffffffffffffffffffffffffffffffffff1663e51a27ce338486600160006040518663ffffffff1660e01b8152600401611ea3959493929190615354565b600060405180830381600087803b158015611ebd57600080fd5b505af1158015611ed1573d6000803e3d6000fd5b5050505080600560008581526020019081526020016000206000820151816000015560208201518160010160006101000a81548160ff02191690836008811115611f1e57611f1d614c9c565b5b021790555060408201518160020155606082015181600301556080820151816004015560a0820151816005015560c0820151816006019080519060200190611f6792919061424c565b5060e08201518160070160006101000a81548173ffffffffffffffffffffffffffffffffffffffff021916908373ffffffffffffffffffffffffffffffffffffffff1602179055506101008201518160080160006101000a81548173ffffffffffffffffffffffffffffffffffffffff021916908373ffffffffffffffffffffffffffffffffffffffff1602179055506101208201518160090160006101000a81548173ffffffffffffffffffffffffffffffffffffffff021916908373ffffffffffffffffffffffffffffffffffffffff16021790555061014082015181600a0160006101000a81548173ffffffffffffffffffffffffffffffffffffffff021916908373ffffffffffffffffffffffffffffffffffffffff16021790555090505060006006600083610100015173ffffffffffffffffffffffffffffffffffffffff1673ffffffffffffffffffffffffffffffffffffffff16815260200190815260200160002080549050905060008111156121fe5760005b818110156121fc57846006600085610100015173ffffffffffffffffffffffffffffffffffffffff1673ffffffffffffffffffffffffffffffffffffffff168152602001908152602001600020828154811061214157612140615143565b5b90600052602060002090600b02016000015414156121e957600680600085610100015173ffffffffffffffffffffffffffffffffffffffff1673ffffffffffffffffffffffffffffffffffffffff16815260200190815260200160002082815481106121b0576121af615143565b5b90600052602060002090600b020160010160006101000a81548160ff021916908360088111156121e3576121e2614c9c565b5b02179055505b80806121f49061528b565b9150506120e2565b505b600460008581526020019081526020016000204290806001815401808255809150506001900390600052602060002001600090919091909150557f01e7f4af78fe812a5df0e0b3c5b400eff1cd1366eca03a2261de317ae5f6727b84604051612267919061502d565b60405180910390a150505050565b60018210156122b9576040517f08c379a00000000000000000000000000000000000000000000000000000000081526004016122b090615406565b60405180910390fd5b60006005600085815260200190815260200160002060405180610160016040529081600082015481526020016001820160009054906101000a900460ff16600881111561230957612308614c9c565b5b600881111561231b5761231a614c9c565b5b81526020016002820154815260200160038201548152602001600482015481526020016005820154815260200160068201805461235790615077565b80601f016020809104026020016040519081016040528092919081815260200182805461238390615077565b80156123d05780601f106123a5576101008083540402835291602001916123d0565b820191906000526020600020905b8154815290600101906020018083116123b357829003601f168201915b505050505081526020016007820160009054906101000a900473ffffffffffffffffffffffffffffffffffffffff1673ffffffffffffffffffffffffffffffffffffffff1673ffffffffffffffffffffffffffffffffffffffff1681526020016008820160009054906101000a900473ffffffffffffffffffffffffffffffffffffffff1673ffffffffffffffffffffffffffffffffffffffff1673ffffffffffffffffffffffffffffffffffffffff1681526020016009820160009054906101000a900473ffffffffffffffffffffffffffffffffffffffff1673ffffffffffffffffffffffffffffffffffffffff1673ffffffffffffffffffffffffffffffffffffffff168152602001600a820160009054906101000a900473ffffffffffffffffffffffffffffffffffffffff1673ffffffffffffffffffffffffffffffffffffffff1673ffffffffffffffffffffffffffffffffffffffff16815250509050826003600086815260200190815260200160002060030181905550818160c001819052506004816020019060088111156125705761256f614c9c565b5b9081600881111561258457612583614c9c565b5b8152505080600560008681526020019081526020016000206000820151816000015560208201518160010160006101000a81548160ff021916908360088111156125d1576125d0614c9c565b5b021790555060408201518160020155606082015181600301556080820151816004015560a0820151816005015560c082015181600601908051906020019061261a92919061424c565b5060e08201518160070160006101000a81548173ffffffffffffffffffffffffffffffffffffffff021916908373ffffffffffffffffffffffffffffffffffffffff1602179055506101008201518160080160006101000a81548173ffffffffffffffffffffffffffffffffffffffff021916908373ffffffffffffffffffffffffffffffffffffffff1602179055506101208201518160090160006101000a81548173ffffffffffffffffffffffffffffffffffffffff021916908373ffffffffffffffffffffffffffffffffffffffff16021790555061014082015181600a0160006101000a81548173ffffffffffffffffffffffffffffffffffffffff021916908373ffffffffffffffffffffffffffffffffffffffff16021790555090505060006006600083610100015173ffffffffffffffffffffffffffffffffffffffff1673ffffffffffffffffffffffffffffffffffffffff16815260200190815260200160002080549050905060008111156128b25760005b818110156128b057856006600085610100015173ffffffffffffffffffffffffffffffffffffffff1673ffffffffffffffffffffffffffffffffffffffff16815260200190815260200160002082815481106127f4576127f3615143565b5b90600052602060002090600b020160000154141561289d5760046006600085610100015173ffffffffffffffffffffffffffffffffffffffff1673ffffffffffffffffffffffffffffffffffffffff168152602001908152602001600020828154811061286457612863615143565b5b90600052602060002090600b020160010160006101000a81548160ff0219169083600881111561289757612896614c9c565b5b02179055505b80806128a89061528b565b915050612795565b505b600460008681526020019081526020016000204290806001815401808255809150506001900390600052602060002001600090919091909150555050505050565b600260205280600052604060002060009150905080600001549080600101805461291c90615077565b80601f016020809104026020016040519081016040528092919081815260200182805461294890615077565b80156129955780601f1061296a57610100808354040283529160200191612995565b820191906000526020600020905b81548152906001019060200180831161297857829003601f168201915b5050505050908060020180546129aa90615077565b80601f01602080910402602001604051908101604052809291908181526020018280546129d690615077565b8015612a235780601f106129f857610100808354040283529160200191612a23565b820191906000526020600020905b815481529060010190602001808311612a0657829003601f168201915b5050505050905083565b60006005600084815260200190815260200160002060405180610160016040529081600082015481526020016001820160009054906101000a900460ff166008811115612a7d57612a7c614c9c565b5b6008811115612a8f57612a8e614c9c565b5b815260200160028201548152602001600382015481526020016004820154815260200160058201548152602001600682018054612acb90615077565b80601f0160208091040260200160405190810160405280929190818152602001828054612af790615077565b8015612b445780601f10612b1957610100808354040283529160200191612b44565b820191906000526020600020905b815481529060010190602001808311612b2757829003601f168201915b505050505081526020016007820160009054906101000a900473ffffffffffffffffffffffffffffffffffffffff1673ffffffffffffffffffffffffffffffffffffffff1673ffffffffffffffffffffffffffffffffffffffff1681526020016008820160009054906101000a900473ffffffffffffffffffffffffffffffffffffffff1673ffffffffffffffffffffffffffffffffffffffff1673ffffffffffffffffffffffffffffffffffffffff1681526020016009820160009054906101000a900473ffffffffffffffffffffffffffffffffffffffff1673ffffffffffffffffffffffffffffffffffffffff1673ffffffffffffffffffffffffffffffffffffffff168152602001600a820160009054906101000a900473ffffffffffffffffffffffffffffffffffffffff1673ffffffffffffffffffffffffffffffffffffffff1673ffffffffffffffffffffffffffffffffffffffff16815250509050818160a0018181525050600581602001906008811115612cca57612cc9614c9c565b5b90816008811115612cde57612cdd614c9c565b5b8152505080600560008581526020019081526020016000206000820151816000015560208201518160010160006101000a81548160ff02191690836008811115612d2b57612d2a614c9c565b5b021790555060408201518160020155606082015181600301556080820151816004015560a0820151816005015560c0820151816006019080519060200190612d7492919061424c565b5060e08201518160070160006101000a81548173ffffffffffffffffffffffffffffffffffffffff021916908373ffffffffffffffffffffffffffffffffffffffff1602179055506101008201518160080160006101000a81548173ffffffffffffffffffffffffffffffffffffffff021916908373ffffffffffffffffffffffffffffffffffffffff1602179055506101208201518160090160006101000a81548173ffffffffffffffffffffffffffffffffffffffff021916908373ffffffffffffffffffffffffffffffffffffffff16021790555061014082015181600a0160006101000a81548173ffffffffffffffffffffffffffffffffffffffff021916908373ffffffffffffffffffffffffffffffffffffffff16021790555090505060046000848152602001908152602001600020429080600181540180825580915050600190039060005260206000200160009091909190915055505050565b60036020528060005260406000206000915090508060000154908060010154908060020154908060030154905084565b60006007600085815260200190815260200160002080549050905060008060005b83811015612fcd578573ffffffffffffffffffffffffffffffffffffffff16600760008981526020019081526020016000208281548110612f6b57612f6a615143565b5b9060005260206000200160009054906101000a900473ffffffffffffffffffffffffffffffffffffffff1673ffffffffffffffffffffffffffffffffffffffff161415612fba57809250612fcd565b8080612fc59061528b565b915050612f27565b5083612fd887611af1565b8381518110612fea57612fe9615143565b5b60200260200101511015613033576040517f08c379a000000000000000000000000000000000000000000000000000000000815260040161302a90615472565b60405180910390fd5b600a600087815260200190815260200160002080549050925060005b838110156130f5573373ffffffffffffffffffffffffffffffffffffffff16600a6000898152602001908152602001600020828154811061309357613092615143565b5b9060005260206000200160009054906101000a900473ffffffffffffffffffffffffffffffffffffffff1673ffffffffffffffffffffffffffffffffffffffff1614156130e2578091506130f5565b80806130ed9061528b565b91505061304f565b5060008114156132dd57600a6000878152602001908152602001600020339080600181540180825580915050600190039060005260206000200160009091909190916101000a81548173ffffffffffffffffffffffffffffffffffffffff021916908373ffffffffffffffffffffffffffffffffffffffff160217905550600b6000878152602001908152602001600020849080600181540180825580915050600190039060005260206000200160009091909190915055600c60008781526020019081526020016000206009600088815260200190815260200160002083815481106131e5576131e4615143565b5b9060005260206000200154908060018154018082558091505060019003906000526020600020016000909190919091505560008054906101000a900473ffffffffffffffffffffffffffffffffffffffff1673ffffffffffffffffffffffffffffffffffffffff1663e51a27ce86338988600960008d8152602001908152602001600020888154811061327b5761327a615143565b5b90600052602060002001546040518663ffffffff1660e01b81526004016132a69594939291906151cf565b600060405180830381600087803b1580156132c057600080fd5b505af11580156132d4573d6000803e3d6000fd5b50505050613437565b83600b6000888152602001908152602001600020828154811061330357613302615143565b5b906000526020600020018190555060096000878152602001908152602001600020828154811061333657613335615143565b5b9060005260206000200154600c6000888152602001908152602001600020828154811061336657613365615143565b5b906000526020600020018190555060008054906101000a900473ffffffffffffffffffffffffffffffffffffffff1673ffffffffffffffffffffffffffffffffffffffff1663e51a27ce86338988600960008d815260200190815260200160002088815481106133d9576133d8615143565b5b90600052602060002001546040518663ffffffff1660e01b81526004016134049594939291906151cf565b600060405180830381600087803b15801561341e57600080fd5b505af1158015613432573d6000803e3d6000fd5b505050505b8360086000888152602001908152602001600020838154811061345d5761345c615143565b5b90600052602060002001600082825461347691906150d8565b92505081905550836009600088815260200190815260200160002083815481106134a3576134a2615143565b5b9060005260206000200160008282546134bc9190615235565b92505081905550505050505050565b60006134d76001614228565b905060006040518061016001604052808381526020016000600881111561350157613500614c9c565b5b8152602001600081526020016000815260200160008152602001600081526020016040518060200160405280600081525081526020013373ffffffffffffffffffffffffffffffffffffffff168152602001600073ffffffffffffffffffffffffffffffffffffffff168152602001600073ffffffffffffffffffffffffffffffffffffffff168152602001600073ffffffffffffffffffffffffffffffffffffffff16815250905084600360008481526020019081526020016000206000018190555083600360008481526020019081526020016000206001018190555082600360008481526020019081526020016000206002018190555080600560008481526020019081526020016000206000820151816000015560208201518160010160006101000a81548160ff0219169083600881111561364457613643614c9c565b5b021790555060408201518160020155606082015181600301556080820151816004015560a0820151816005015560c082015181600601908051906020019061368d92919061424c565b5060e08201518160070160006101000a81548173ffffffffffffffffffffffffffffffffffffffff021916908373ffffffffffffffffffffffffffffffffffffffff1602179055506101008201518160080160006101000a81548173ffffffffffffffffffffffffffffffffffffffff021916908373ffffffffffffffffffffffffffffffffffffffff1602179055506101208201518160090160006101000a81548173ffffffffffffffffffffffffffffffffffffffff021916908373ffffffffffffffffffffffffffffffffffffffff16021790555061014082015181600a0160006101000a81548173ffffffffffffffffffffffffffffffffffffffff021916908373ffffffffffffffffffffffffffffffffffffffff16021790555090505060008054906101000a900473ffffffffffffffffffffffffffffffffffffffff1673ffffffffffffffffffffffffffffffffffffffff1663156e29f6338460016040518463ffffffff1660e01b815260040161380e93929190615492565b600060405180830381600087803b15801561382857600080fd5b505af115801561383c573d6000803e3d6000fd5b5050505061384a6001614236565b600460008381526020019081526020016000204290806001815401808255809150506001900390600052602060002001600090919091909150557f8dba83ab26c4e67ac150487b6c119e69498289b9cc6c7dfd77fd0df2e671b48b826040516138b3919061502d565b60405180910390a15050505050565b60006005600086815260200190815260200160002060405180610160016040529081600082015481526020016001820160009054906101000a900460ff16600881111561391257613911614c9c565b5b600881111561392457613923614c9c565b5b81526020016002820154815260200160038201548152602001600482015481526020016005820154815260200160068201805461396090615077565b80601f016020809104026020016040519081016040528092919081815260200182805461398c90615077565b80156139d95780601f106139ae576101008083540402835291602001916139d9565b820191906000526020600020905b8154815290600101906020018083116139bc57829003601f168201915b505050505081526020016007820160009054906101000a900473ffffffffffffffffffffffffffffffffffffffff1673ffffffffffffffffffffffffffffffffffffffff1673ffffffffffffffffffffffffffffffffffffffff1681526020016008820160009054906101000a900473ffffffffffffffffffffffffffffffffffffffff1673ffffffffffffffffffffffffffffffffffffffff1673ffffffffffffffffffffffffffffffffffffffff1681526020016009820160009054906101000a900473ffffffffffffffffffffffffffffffffffffffff1673ffffffffffffffffffffffffffffffffffffffff1673ffffffffffffffffffffffffffffffffffffffff168152602001600a820160009054906101000a900473ffffffffffffffffffffffffffffffffffffffff1673ffffffffffffffffffffffffffffffffffffffff1673ffffffffffffffffffffffffffffffffffffffff16815250509050600281602001906008811115613b5557613b54614c9c565b5b90816008811115613b6957613b68614c9c565b5b8152505083816040018181525050828160600181815250508181608001818152505080600560008781526020019081526020016000206000820151816000015560208201518160010160006101000a81548160ff02191690836008811115613bd457613bd3614c9c565b5b021790555060408201518160020155606082015181600301556080820151816004015560a0820151816005015560c0820151816006019080519060200190613c1d92919061424c565b5060e08201518160070160006101000a81548173ffffffffffffffffffffffffffffffffffffffff021916908373ffffffffffffffffffffffffffffffffffffffff1602179055506101008201518160080160006101000a81548173ffffffffffffffffffffffffffffffffffffffff021916908373ffffffffffffffffffffffffffffffffffffffff1602179055506101208201518160090160006101000a81548173ffffffffffffffffffffffffffffffffffffffff021916908373ffffffffffffffffffffffffffffffffffffffff16021790555061014082015181600a0160006101000a81548173ffffffffffffffffffffffffffffffffffffffff021916908373ffffffffffffffffffffffffffffffffffffffff160217905550905050600460008681526020019081526020016000204290806001815401808255809150506001900390600052602060002001600090919091909150555050505050565b60056020528060005260406000206000915090508060000154908060010160009054906101000a900460ff1690806002015490806003015490806004015490806005015490806006018054613dd590615077565b80601f0160208091040260200160405190810160405280929190818152602001828054613e0190615077565b8015613e4e5780601f10613e2357610100808354040283529160200191613e4e565b820191906000526020600020905b815481529060010190602001808311613e3157829003601f168201915b5050505050908060070160009054906101000a900473ffffffffffffffffffffffffffffffffffffffff16908060080160009054906101000a900473ffffffffffffffffffffffffffffffffffffffff16908060090160009054906101000a900473ffffffffffffffffffffffffffffffffffffffff169080600a0160009054906101000a900473ffffffffffffffffffffffffffffffffffffffff1690508b565b6060600660008373ffffffffffffffffffffffffffffffffffffffff1673ffffffffffffffffffffffffffffffffffffffff168152602001908152602001600020805480602002602001604051908101604052809291908181526020016000905b828210156141db57838290600052602060002090600b020160405180610160016040529081600082015481526020016001820160009054906101000a900460ff166008811115613fa457613fa3614c9c565b5b6008811115613fb657613fb5614c9c565b5b815260200160028201548152602001600382015481526020016004820154815260200160058201548152602001600682018054613ff290615077565b80601f016020809104026020016040519081016040528092919081815260200182805461401e90615077565b801561406b5780601f106140405761010080835404028352916020019161406b565b820191906000526020600020905b81548152906001019060200180831161404e57829003601f168201915b505050505081526020016007820160009054906101000a900473ffffffffffffffffffffffffffffffffffffffff1673ffffffffffffffffffffffffffffffffffffffff1673ffffffffffffffffffffffffffffffffffffffff1681526020016008820160009054906101000a900473ffffffffffffffffffffffffffffffffffffffff1673ffffffffffffffffffffffffffffffffffffffff1673ffffffffffffffffffffffffffffffffffffffff1681526020016009820160009054906101000a900473ffffffffffffffffffffffffffffffffffffffff1673ffffffffffffffffffffffffffffffffffffffff1673ffffffffffffffffffffffffffffffffffffffff168152602001600a820160009054906101000a900473ffffffffffffffffffffffffffffffffffffffff1673ffffffffffffffffffffffffffffffffffffffff1673ffffffffffffffffffffffffffffffffffffffff168152505081526020019060010190613f51565b505050509050919050565b6004602052816000526040600020818154811061420257600080fd5b90600052602060002001600091509150505481565b60006142236001614228565b905090565b600081600001549050919050565b6001816000016000828254019250508190555050565b82805461425890615077565b90600052602060002090601f01602090048101928261427a57600085556142c1565b82601f1061429357805160ff19168380011785556142c1565b828001600101855582156142c1579182015b828111156142c05782518255916020019190600101906142a5565b5b5090506142ce91906142d2565b5090565b5b808211156142eb5760008160009055506001016142d3565b5090565b6000604051905090565b600080fd5b600080fd5b6000819050919050565b61431681614303565b811461432157600080fd5b50565b6000813590506143338161430d565b92915050565b600080fd5b6000601f19601f8301169050919050565b7f4e487b7100000000000000000000000000000000000000000000000000000000600052604160045260246000fd5b6143878261433e565b810181811067ffffffffffffffff821117156143a6576143a561434f565b5b80604052505050565b60006143b96142ef565b90506143c5828261437e565b919050565b600067ffffffffffffffff8211156143e5576143e461434f565b5b602082029050602081019050919050565b600080fd5b600073ffffffffffffffffffffffffffffffffffffffff82169050919050565b6000614426826143fb565b9050919050565b6144368161441b565b811461444157600080fd5b50565b6000813590506144538161442d565b92915050565b600061446c614467846143ca565b6143af565b9050808382526020820190506020840283018581111561448f5761448e6143f6565b5b835b818110156144b857806144a48882614444565b845260208401935050602081019050614491565b5050509392505050565b600082601f8301126144d7576144d6614339565b5b81356144e7848260208601614459565b91505092915050565b600067ffffffffffffffff82111561450b5761450a61434f565b5b602082029050602081019050919050565b600061452f61452a846144f0565b6143af565b90508083825260208201905060208402830185811115614552576145516143f6565b5b835b8181101561457b57806145678882614324565b845260208401935050602081019050614554565b5050509392505050565b600082601f83011261459a57614599614339565b5b81356145aa84826020860161451c565b91505092915050565b6000806000606084860312156145cc576145cb6142f9565b5b60006145da86828701614324565b935050602084013567ffffffffffffffff8111156145fb576145fa6142fe565b5b614607868287016144c2565b925050604084013567ffffffffffffffff811115614628576146276142fe565b5b61463486828701614585565b9150509250925092565b600080fd5b600067ffffffffffffffff82111561465e5761465d61434f565b5b6146678261433e565b9050602081019050919050565b82818337600083830152505050565b600061469661469184614643565b6143af565b9050828152602081018484840111156146b2576146b161463e565b5b6146bd848285614674565b509392505050565b600082601f8301126146da576146d9614339565b5b81356146ea848260208601614683565b91505092915050565b6000806000806080858703121561470d5761470c6142f9565b5b600061471b87828801614324565b945050602061472c87828801614324565b935050604085013567ffffffffffffffff81111561474d5761474c6142fe565b5b614759878288016146c5565b925050606085013567ffffffffffffffff81111561477a576147796142fe565b5b614786878288016146c5565b91505092959194509250565b6000602082840312156147a8576147a76142f9565b5b60006147b684828501614324565b91505092915050565b600081519050919050565b600082825260208201905092915050565b6000819050602082019050919050565b6147f481614303565b82525050565b600061480683836147eb565b60208301905092915050565b6000602082019050919050565b600061482a826147bf565b61483481856147ca565b935061483f836147db565b8060005b8381101561487057815161485788826147fa565b975061486283614812565b925050600181019050614843565b5085935050505092915050565b60006020820190508181036000830152614897818461481f565b905092915050565b600081519050919050565b600082825260208201905092915050565b6000819050602082019050919050565b6148d48161441b565b82525050565b60006148e683836148cb565b60208301905092915050565b6000602082019050919050565b600061490a8261489f565b61491481856148aa565b935061491f836148bb565b8060005b8381101561495057815161493788826148da565b9750614942836148f2565b925050600181019050614923565b5085935050505092915050565b6000602082019050818103600083015261497781846148ff565b905092915050565b60008060408385031215614996576149956142f9565b5b60006149a485828601614324565b92505060206149b585828601614444565b9150509250929050565b6000806000606084860312156149d8576149d76142f9565b5b60006149e686828701614324565b93505060206149f786828701614324565b925050604084013567ffffffffffffffff811115614a1857614a176142fe565b5b614a24868287016146c5565b9150509250925092565b614a3781614303565b82525050565b600081519050919050565b600082825260208201905092915050565b60005b83811015614a77578082015181840152602081019050614a5c565b83811115614a86576000848401525b50505050565b6000614a9782614a3d565b614aa18185614a48565b9350614ab1818560208601614a59565b614aba8161433e565b840191505092915050565b6000606082019050614ada6000830186614a2e565b8181036020830152614aec8185614a8c565b90508181036040830152614b008184614a8c565b9050949350505050565b60008060408385031215614b2157614b206142f9565b5b6000614b2f85828601614324565b9250506020614b4085828601614324565b9150509250929050565b6000608082019050614b5f6000830187614a2e565b614b6c6020830186614a2e565b614b796040830185614a2e565b614b866060830184614a2e565b95945050505050565b600080600060608486031215614ba857614ba76142f9565b5b6000614bb686828701614324565b9350506020614bc786828701614444565b9250506040614bd886828701614324565b9150509250925092565b600080600060608486031215614bfb57614bfa6142f9565b5b6000614c0986828701614324565b9350506020614c1a86828701614324565b9250506040614c2b86828701614324565b9150509250925092565b60008060008060808587031215614c4f57614c4e6142f9565b5b6000614c5d87828801614324565b9450506020614c6e87828801614324565b9350506040614c7f87828801614324565b9250506060614c9087828801614324565b91505092959194509250565b7f4e487b7100000000000000000000000000000000000000000000000000000000600052602160045260246000fd5b60098110614cdc57614cdb614c9c565b5b50565b6000819050614ced82614ccb565b919050565b6000614cfd82614cdf565b9050919050565b614d0d81614cf2565b82525050565b614d1c8161441b565b82525050565b600061016082019050614d38600083018e614a2e565b614d45602083018d614d04565b614d52604083018c614a2e565b614d5f606083018b614a2e565b614d6c608083018a614a2e565b614d7960a0830189614a2e565b81810360c0830152614d8b8188614a8c565b9050614d9a60e0830187614d13565b614da8610100830186614d13565b614db6610120830185614d13565b614dc4610140830184614d13565b9c9b505050505050505050505050565b600060208284031215614dea57614de96142f9565b5b6000614df884828501614444565b91505092915050565b600081519050919050565b600082825260208201905092915050565b6000819050602082019050919050565b614e3681614cf2565b82525050565b600082825260208201905092915050565b6000614e5882614a3d565b614e628185614e3c565b9350614e72818560208601614a59565b614e7b8161433e565b840191505092915050565b600061016083016000830151614e9f60008601826147eb565b506020830151614eb26020860182614e2d565b506040830151614ec560408601826147eb565b506060830151614ed860608601826147eb565b506080830151614eeb60808601826147eb565b5060a0830151614efe60a08601826147eb565b5060c083015184820360c0860152614f168282614e4d565b91505060e0830151614f2b60e08601826148cb565b50610100830151614f406101008601826148cb565b50610120830151614f556101208601826148cb565b50610140830151614f6a6101408601826148cb565b508091505092915050565b6000614f818383614e86565b905092915050565b6000602082019050919050565b6000614fa182614e01565b614fab8185614e0c565b935083602082028501614fbd85614e1d565b8060005b85811015614ff95784840389528151614fda8582614f75565b9450614fe583614f89565b925060208a01995050600181019050614fc1565b50829750879550505050505092915050565b600060208201905081810360008301526150258184614f96565b905092915050565b60006020820190506150426000830184614a2e565b92915050565b7f4e487b7100000000000000000000000000000000000000000000000000000000600052602260045260246000fd5b6000600282049050600182168061508f57607f821691505b602082108114156150a3576150a2615048565b5b50919050565b7f4e487b7100000000000000000000000000000000000000000000000000000000600052601160045260246000fd5b60006150e382614303565b91506150ee83614303565b925082821015615101576151006150a9565b5b828203905092915050565b60006060820190506151216000830186614d13565b61512e6020830185614a2e565b61513b6040830184614a2e565b949350505050565b7f4e487b7100000000000000000000000000000000000000000000000000000000600052603260045260246000fd5b600082825260208201905092915050565b7f3078303000000000000000000000000000000000000000000000000000000000600082015250565b60006151b9600483615172565b91506151c482615183565b602082019050919050565b600060c0820190506151e46000830188614d13565b6151f16020830187614d13565b6151fe6040830186614a2e565b61520b6060830185614a2e565b818103608083015261521c816151ac565b905061522b60a0830184614a2e565b9695505050505050565b600061524082614303565b915061524b83614303565b9250827fffffffffffffffffffffffffffffffffffffffffffffffffffffffffffffffff038211156152805761527f6150a9565b5b828201905092915050565b600061529682614303565b91507fffffffffffffffffffffffffffffffffffffffffffffffffffffffffffffffff8214156152c9576152c86150a9565b5b600182019050919050565b6000819050919050565b6000819050919050565b60006153036152fe6152f9846152d4565b6152de565b614303565b9050919050565b615313816152e8565b82525050565b6000819050919050565b600061533e61533961533484615319565b6152de565b614303565b9050919050565b61534e81615323565b82525050565b600060c0820190506153696000830188614d13565b6153766020830187614d13565b6153836040830186614a2e565b615390606083018561530a565b81810360808301526153a1816151ac565b90506153b060a0830184615345565b9695505050505050565b7f556e6974732073686f756c642062652067726561746572207468617420310000600082015250565b60006153f0601e83614a48565b91506153fb826153ba565b602082019050919050565b6000602082019050818103600083015261541f816153e3565b9050919050565b7f4e6f204d6f7265204974656d73206c6566740000000000000000000000000000600082015250565b600061545c601283614a48565b915061546782615426565b602082019050919050565b6000602082019050818103600083015261548b8161544f565b9050919050565b60006060820190506154a76000830186614d13565b6154b46020830185614a2e565b6154c1604083018461530a565b94935050505056fea2646970667358221220d7c60114d7592fc47adf43a007f25f324c5d89d54aaea552a287c3d33990a16864736f6c63430008080033",
  "linkReferences": {},
  "deployedLinkReferences": {}
}