{
  "_format": "hh-sol-artifact-1",
  "contractName": "Supplychain",
  "sourceName": "contracts/Supplychain.sol",
  "abi": [
    {
      "inputs": [
        {
          "internalType": "address",
          "name": "_supplychainToken",
          "type": "address"
        }
      ],
      "stateMutability": "nonpayable",
      "type": "constructor"
    },
    {
      "anonymous": false,
      "inputs": [
        {
          "indexed": false,
          "internalType": "address",
          "name": "_address",
          "type": "address"
        }
      ],
      "name": "AddCustomer",
      "type": "event"
    },
    {
      "anonymous": false,
      "inputs": [
        {
          "indexed": false,
          "internalType": "address",
          "name": "_address",
          "type": "address"
        }
      ],
      "name": "AddDistributor",
      "type": "event"
    },
    {
      "anonymous": false,
      "inputs": [
        {
          "indexed": false,
          "internalType": "address",
          "name": "_address",
          "type": "address"
        }
      ],
      "name": "AddFactory",
      "type": "event"
    },
    {
      "anonymous": false,
      "inputs": [
        {
          "indexed": false,
          "internalType": "address",
          "name": "_address",
          "type": "address"
        }
      ],
      "name": "AddRawMaterialSupplier",
      "type": "event"
    },
    {
      "anonymous": false,
      "inputs": [
        {
          "indexed": false,
          "internalType": "address",
          "name": "_address",
          "type": "address"
        }
      ],
      "name": "AddRetailer",
      "type": "event"
    },
    {
      "anonymous": false,
      "inputs": [
        {
          "indexed": false,
          "internalType": "address",
          "name": "_address",
          "type": "address"
        }
      ],
      "name": "AddWarehouse",
      "type": "event"
    },
    {
      "anonymous": false,
      "inputs": [
        {
          "indexed": false,
          "internalType": "uint256",
          "name": "_supplyChainId",
          "type": "uint256"
        }
      ],
      "name": "DistributorSellToRetailer",
      "type": "event"
    },
    {
      "anonymous": false,
      "inputs": [
        {
          "indexed": false,
          "internalType": "uint256",
          "name": "_supplyChainId",
          "type": "uint256"
        }
      ],
      "name": "FactoryBuyRawMaterial",
      "type": "event"
    },
    {
      "anonymous": false,
      "inputs": [
        {
          "indexed": false,
          "internalType": "uint256",
          "name": "_supplyChainId",
          "type": "uint256"
        }
      ],
      "name": "FactorySellItemToDistributors",
      "type": "event"
    },
    {
      "anonymous": false,
      "inputs": [
        {
          "indexed": true,
          "internalType": "address",
          "name": "previousOwner",
          "type": "address"
        },
        {
          "indexed": true,
          "internalType": "address",
          "name": "newOwner",
          "type": "address"
        }
      ],
      "name": "OwnershipTransferred",
      "type": "event"
    },
    {
      "anonymous": false,
      "inputs": [
        {
          "indexed": false,
          "internalType": "uint256",
          "name": "_supplyChainId",
          "type": "uint256"
        }
      ],
      "name": "RawMaterialSupplierSuppliesRM",
      "type": "event"
    },
    {
      "anonymous": false,
      "inputs": [
        {
          "indexed": false,
          "internalType": "address",
          "name": "_address",
          "type": "address"
        }
      ],
      "name": "RemoveCustomer",
      "type": "event"
    },
    {
      "anonymous": false,
      "inputs": [
        {
          "indexed": false,
          "internalType": "address",
          "name": "_address",
          "type": "address"
        }
      ],
      "name": "RemoveDistributor",
      "type": "event"
    },
    {
      "anonymous": false,
      "inputs": [
        {
          "indexed": false,
          "internalType": "address",
          "name": "_address",
          "type": "address"
        }
      ],
      "name": "RemoveFactory",
      "type": "event"
    },
    {
      "anonymous": false,
      "inputs": [
        {
          "indexed": false,
          "internalType": "address",
          "name": "_address",
          "type": "address"
        }
      ],
      "name": "RemoveRawMaterialSupplier",
      "type": "event"
    },
    {
      "anonymous": false,
      "inputs": [
        {
          "indexed": false,
          "internalType": "address",
          "name": "_address",
          "type": "address"
        }
      ],
      "name": "RemoveRetailer",
      "type": "event"
    },
    {
      "anonymous": false,
      "inputs": [
        {
          "indexed": false,
          "internalType": "address",
          "name": "_address",
          "type": "address"
        }
      ],
      "name": "RemoveWarehouse",
      "type": "event"
    },
    {
      "anonymous": false,
      "inputs": [
        {
          "indexed": false,
          "internalType": "uint256",
          "name": "_supplyChainId",
          "type": "uint256"
        }
      ],
      "name": "RetailerSellToCustomer",
      "type": "event"
    },
    {
      "anonymous": false,
      "inputs": [
        {
          "indexed": false,
          "internalType": "uint256",
          "name": "a",
          "type": "uint256"
        },
        {
          "indexed": false,
          "internalType": "uint256",
          "name": "b",
          "type": "uint256"
        }
      ],
      "name": "valueeeeeeee",
      "type": "event"
    },
    {
      "inputs": [
        {
          "internalType": "uint256",
          "name": "",
          "type": "uint256"
        }
      ],
      "name": "YarnDetails",
      "outputs": [
        {
          "internalType": "uint256",
          "name": "YarnAmount",
          "type": "uint256"
        },
        {
          "internalType": "string",
          "name": "YarnColor",
          "type": "string"
        },
        {
          "internalType": "string",
          "name": "YarnType",
          "type": "string"
        }
      ],
      "stateMutability": "view",
      "type": "function"
    },
    {
      "inputs": [
        {
          "internalType": "address",
          "name": "_address",
          "type": "address"
        }
      ],
      "name": "addCustomer",
      "outputs": [],
      "stateMutability": "nonpayable",
      "type": "function"
    },
    {
      "inputs": [
        {
          "internalType": "address",
          "name": "_address",
          "type": "address"
        }
      ],
      "name": "addDistributor",
      "outputs": [],
      "stateMutability": "nonpayable",
      "type": "function"
    },
    {
      "inputs": [
        {
          "internalType": "address",
          "name": "_address",
          "type": "address"
        }
      ],
      "name": "addFactory",
      "outputs": [],
      "stateMutability": "nonpayable",
      "type": "function"
    },
    {
      "inputs": [
        {
          "internalType": "address",
          "name": "_address",
          "type": "address"
        }
      ],
      "name": "addRawMaterialSupplier",
      "outputs": [],
      "stateMutability": "nonpayable",
      "type": "function"
    },
    {
      "inputs": [
        {
          "internalType": "address",
          "name": "_address",
          "type": "address"
        }
      ],
      "name": "addRetailer",
      "outputs": [],
      "stateMutability": "nonpayable",
      "type": "function"
    },
    {
      "inputs": [
        {
          "internalType": "address",
          "name": "_address",
          "type": "address"
        }
      ],
      "name": "addWarehouse",
      "outputs": [],
      "stateMutability": "nonpayable",
      "type": "function"
    },
    {
      "inputs": [
        {
          "internalType": "uint256",
          "name": "_supplyChainId",
          "type": "uint256"
        }
      ],
      "name": "distributorSellToRetailer",
      "outputs": [],
      "stateMutability": "nonpayable",
      "type": "function"
    },
    {
      "inputs": [
        {
          "internalType": "uint256",
          "name": "_supplyChainId",
          "type": "uint256"
        },
        {
          "internalType": "address",
          "name": "_warehouse",
          "type": "address"
        },
        {
          "internalType": "uint256",
          "name": "_polysteramount",
          "type": "uint256"
        },
        {
          "internalType": "uint256",
          "name": "_cottonamount",
          "type": "uint256"
        },
        {
          "internalType": "uint256",
          "name": "_woolamount",
          "type": "uint256"
        }
      ],
      "name": "factoryBuyRawMaterial",
      "outputs": [],
      "stateMutability": "nonpayable",
      "type": "function"
    },
    {
      "inputs": [
        {
          "internalType": "uint256",
          "name": "_supplyChainId",
          "type": "uint256"
        },
        {
          "internalType": "uint256",
          "name": "_totalUnits",
          "type": "uint256"
        },
        {
          "internalType": "string",
          "name": "_description",
          "type": "string"
        }
      ],
      "name": "factoryCompleteGarmentManufacturing",
      "outputs": [],
      "stateMutability": "nonpayable",
      "type": "function"
    },
    {
      "inputs": [
        {
          "internalType": "uint256",
          "name": "_supplyChainId",
          "type": "uint256"
        },
        {
          "internalType": "uint256",
          "name": "_yarnAmount",
          "type": "uint256"
        },
        {
          "internalType": "string",
          "name": "_yarnColor",
          "type": "string"
        },
        {
          "internalType": "string",
          "name": "_yarnType",
          "type": "string"
        }
      ],
      "name": "factoryCompleteSpinningWaeving",
      "outputs": [],
      "stateMutability": "nonpayable",
      "type": "function"
    },
    {
      "inputs": [
        {
          "internalType": "uint256",
          "name": "_supplyChainId",
          "type": "uint256"
        },
        {
          "internalType": "address[]",
          "name": "distributors",
          "type": "address[]"
        },
        {
          "internalType": "uint256[]",
          "name": "quantity",
          "type": "uint256[]"
        }
      ],
      "name": "factorySellItemToDistributors",
      "outputs": [],
      "stateMutability": "nonpayable",
      "type": "function"
    },
    {
      "inputs": [],
      "name": "getCustomer",
      "outputs": [
        {
          "internalType": "address[]",
          "name": "",
          "type": "address[]"
        }
      ],
      "stateMutability": "view",
      "type": "function"
    },
    {
      "inputs": [],
      "name": "getDistributor",
      "outputs": [
        {
          "internalType": "address[]",
          "name": "",
          "type": "address[]"
        }
      ],
      "stateMutability": "view",
      "type": "function"
    },
    {
      "inputs": [
        {
          "internalType": "uint256",
          "name": "_supplychianId",
          "type": "uint256"
        }
      ],
      "name": "getDistributorCounters",
      "outputs": [
        {
          "internalType": "uint256[]",
          "name": "",
          "type": "uint256[]"
        }
      ],
      "stateMutability": "view",
      "type": "function"
    },
    {
      "inputs": [
        {
          "internalType": "uint256",
          "name": "_supplychianId",
          "type": "uint256"
        }
      ],
      "name": "getDistributorUnits",
      "outputs": [
        {
          "internalType": "uint256[]",
          "name": "",
          "type": "uint256[]"
        }
      ],
      "stateMutability": "view",
      "type": "function"
    },
    {
      "inputs": [
        {
          "internalType": "uint256",
          "name": "_supplychianId",
          "type": "uint256"
        }
      ],
      "name": "getDistributors",
      "outputs": [
        {
          "internalType": "address[]",
          "name": "",
          "type": "address[]"
        }
      ],
      "stateMutability": "view",
      "type": "function"
    },
    {
      "inputs": [],
      "name": "getFactory",
      "outputs": [
        {
          "internalType": "address[]",
          "name": "",
          "type": "address[]"
        }
      ],
      "stateMutability": "view",
      "type": "function"
    },
    {
      "inputs": [],
      "name": "getRawMaterialSupplier",
      "outputs": [
        {
          "internalType": "address[]",
          "name": "",
          "type": "address[]"
        }
      ],
      "stateMutability": "view",
      "type": "function"
    },
    {
      "inputs": [],
      "name": "getRetailer",
      "outputs": [
        {
          "internalType": "address[]",
          "name": "",
          "type": "address[]"
        }
      ],
      "stateMutability": "view",
      "type": "function"
    },
    {
      "inputs": [
        {
          "internalType": "uint256",
          "name": "_supplychianId",
          "type": "uint256"
        }
      ],
      "name": "getRetailers",
      "outputs": [
        {
          "internalType": "address[]",
          "name": "",
          "type": "address[]"
        }
      ],
      "stateMutability": "view",
      "type": "function"
    },
    {
      "inputs": [
        {
          "internalType": "uint256",
          "name": "_supplychianId",
          "type": "uint256"
        }
      ],
      "name": "getRetailersCounters",
      "outputs": [
        {
          "internalType": "uint256[]",
          "name": "",
          "type": "uint256[]"
        }
      ],
      "stateMutability": "view",
      "type": "function"
    },
    {
      "inputs": [
        {
          "internalType": "uint256",
          "name": "_supplychianId",
          "type": "uint256"
        }
      ],
      "name": "getRetailersUnits",
      "outputs": [
        {
          "internalType": "uint256[]",
          "name": "",
          "type": "uint256[]"
        }
      ],
      "stateMutability": "view",
      "type": "function"
    },
    {
      "inputs": [],
      "name": "getWarehouse",
      "outputs": [
        {
          "internalType": "address[]",
          "name": "",
          "type": "address[]"
        }
      ],
      "stateMutability": "view",
      "type": "function"
    },
    {
      "inputs": [
        {
          "internalType": "address",
          "name": "warehouse",
          "type": "address"
        }
      ],
      "name": "getWarehouseItems",
      "outputs": [
        {
          "components": [
            {
              "internalType": "uint256",
              "name": "supplyChainId",
              "type": "uint256"
            },
            {
              "internalType": "enum Supplychain.State",
              "name": "itemState",
              "type": "uint8"
            },
            {
              "internalType": "uint256",
              "name": "PolyesterAmount",
              "type": "uint256"
            },
            {
              "internalType": "uint256",
              "name": "CottonAmount",
              "type": "uint256"
            },
            {
              "internalType": "uint256",
              "name": "WoolAmount",
              "type": "uint256"
            },
            {
              "internalType": "uint256",
              "name": "totalUnits",
              "type": "uint256"
            },
            {
              "internalType": "string",
              "name": "Description",
              "type": "string"
            },
            {
              "internalType": "address",
              "name": "RawMaterialSupplierID",
              "type": "address"
            },
            {
              "internalType": "address",
              "name": "warehouseID",
              "type": "address"
            },
            {
              "internalType": "address",
              "name": "factoryID",
              "type": "address"
            }
          ],
          "internalType": "struct Supplychain.Item[]",
          "name": "",
          "type": "tuple[]"
        }
      ],
      "stateMutability": "view",
      "type": "function"
    },
    {
      "inputs": [
        {
          "internalType": "address",
          "name": "_address",
          "type": "address"
        }
      ],
      "name": "isCustomer",
      "outputs": [
        {
          "internalType": "bool",
          "name": "",
          "type": "bool"
        }
      ],
      "stateMutability": "view",
      "type": "function"
    },
    {
      "inputs": [
        {
          "internalType": "address",
          "name": "_address",
          "type": "address"
        }
      ],
      "name": "isDistributor",
      "outputs": [
        {
          "internalType": "bool",
          "name": "",
          "type": "bool"
        }
      ],
      "stateMutability": "view",
      "type": "function"
    },
    {
      "inputs": [
        {
          "internalType": "address",
          "name": "_address",
          "type": "address"
        }
      ],
      "name": "isFactory",
      "outputs": [
        {
          "internalType": "bool",
          "name": "",
          "type": "bool"
        }
      ],
      "stateMutability": "view",
      "type": "function"
    },
    {
      "inputs": [
        {
          "internalType": "address",
          "name": "_address",
          "type": "address"
        }
      ],
      "name": "isRawMaterialSupplier",
      "outputs": [
        {
          "internalType": "bool",
          "name": "",
          "type": "bool"
        }
      ],
      "stateMutability": "view",
      "type": "function"
    },
    {
      "inputs": [
        {
          "internalType": "address",
          "name": "_address",
          "type": "address"
        }
      ],
      "name": "isRetailer",
      "outputs": [
        {
          "internalType": "bool",
          "name": "",
          "type": "bool"
        }
      ],
      "stateMutability": "view",
      "type": "function"
    },
    {
      "inputs": [
        {
          "internalType": "address",
          "name": "_address",
          "type": "address"
        }
      ],
      "name": "isWarehouse",
      "outputs": [
        {
          "internalType": "bool",
          "name": "",
          "type": "bool"
        }
      ],
      "stateMutability": "view",
      "type": "function"
    },
    {
      "inputs": [
        {
          "internalType": "uint256",
          "name": "",
          "type": "uint256"
        }
      ],
      "name": "items",
      "outputs": [
        {
          "internalType": "uint256",
          "name": "supplyChainId",
          "type": "uint256"
        },
        {
          "internalType": "enum Supplychain.State",
          "name": "itemState",
          "type": "uint8"
        },
        {
          "internalType": "uint256",
          "name": "PolyesterAmount",
          "type": "uint256"
        },
        {
          "internalType": "uint256",
          "name": "CottonAmount",
          "type": "uint256"
        },
        {
          "internalType": "uint256",
          "name": "WoolAmount",
          "type": "uint256"
        },
        {
          "internalType": "uint256",
          "name": "totalUnits",
          "type": "uint256"
        },
        {
          "internalType": "string",
          "name": "Description",
          "type": "string"
        },
        {
          "internalType": "address",
          "name": "RawMaterialSupplierID",
          "type": "address"
        },
        {
          "internalType": "address",
          "name": "warehouseID",
          "type": "address"
        },
        {
          "internalType": "address",
          "name": "factoryID",
          "type": "address"
        }
      ],
      "stateMutability": "view",
      "type": "function"
    },
    {
      "inputs": [],
      "name": "owner",
      "outputs": [
        {
          "internalType": "address",
          "name": "",
          "type": "address"
        }
      ],
      "stateMutability": "view",
      "type": "function"
    },
    {
      "inputs": [
        {
          "internalType": "uint256",
          "name": "_polyesterAmount",
          "type": "uint256"
        },
        {
          "internalType": "uint256",
          "name": "_cottonAmount",
          "type": "uint256"
        },
        {
          "internalType": "uint256",
          "name": "_woolAmount",
          "type": "uint256"
        }
      ],
      "name": "rawMaterialSupplierSuppliesRM",
      "outputs": [],
      "stateMutability": "nonpayable",
      "type": "function"
    },
    {
      "inputs": [
        {
          "internalType": "address",
          "name": "_address",
          "type": "address"
        }
      ],
      "name": "removeCustomer",
      "outputs": [],
      "stateMutability": "nonpayable",
      "type": "function"
    },
    {
      "inputs": [
        {
          "internalType": "address",
          "name": "_address",
          "type": "address"
        }
      ],
      "name": "removeCustomerSelf",
      "outputs": [],
      "stateMutability": "nonpayable",
      "type": "function"
    },
    {
      "inputs": [
        {
          "internalType": "address",
          "name": "_address",
          "type": "address"
        }
      ],
      "name": "removeDistributor",
      "outputs": [],
      "stateMutability": "nonpayable",
      "type": "function"
    },
    {
      "inputs": [
        {
          "internalType": "address",
          "name": "_address",
          "type": "address"
        }
      ],
      "name": "removeDistributorSelf",
      "outputs": [],
      "stateMutability": "nonpayable",
      "type": "function"
    },
    {
      "inputs": [
        {
          "internalType": "address",
          "name": "_address",
          "type": "address"
        }
      ],
      "name": "removeFactory",
      "outputs": [],
      "stateMutability": "nonpayable",
      "type": "function"
    },
    {
      "inputs": [
        {
          "internalType": "address",
          "name": "_address",
          "type": "address"
        }
      ],
      "name": "removeFactorySelf",
      "outputs": [],
      "stateMutability": "nonpayable",
      "type": "function"
    },
    {
      "inputs": [
        {
          "internalType": "address",
          "name": "_address",
          "type": "address"
        }
      ],
      "name": "removeRawMaterialSupplier",
      "outputs": [],
      "stateMutability": "nonpayable",
      "type": "function"
    },
    {
      "inputs": [
        {
          "internalType": "address",
          "name": "_address",
          "type": "address"
        }
      ],
      "name": "removeRawMaterialSupplierSelf",
      "outputs": [],
      "stateMutability": "nonpayable",
      "type": "function"
    },
    {
      "inputs": [
        {
          "internalType": "address",
          "name": "_address",
          "type": "address"
        }
      ],
      "name": "removeRetailer",
      "outputs": [],
      "stateMutability": "nonpayable",
      "type": "function"
    },
    {
      "inputs": [
        {
          "internalType": "address",
          "name": "_address",
          "type": "address"
        }
      ],
      "name": "removeRetailerSelf",
      "outputs": [],
      "stateMutability": "nonpayable",
      "type": "function"
    },
    {
      "inputs": [
        {
          "internalType": "address",
          "name": "_address",
          "type": "address"
        }
      ],
      "name": "removeSelfWarehouse",
      "outputs": [],
      "stateMutability": "nonpayable",
      "type": "function"
    },
    {
      "inputs": [
        {
          "internalType": "address",
          "name": "_address",
          "type": "address"
        }
      ],
      "name": "removeWarehouse",
      "outputs": [],
      "stateMutability": "nonpayable",
      "type": "function"
    },
    {
      "inputs": [],
      "name": "renounceOwnership",
      "outputs": [],
      "stateMutability": "nonpayable",
      "type": "function"
    },
    {
      "inputs": [
        {
          "internalType": "uint256",
          "name": "",
          "type": "uint256"
        },
        {
          "internalType": "uint256",
          "name": "",
          "type": "uint256"
        }
      ],
      "name": "timeStamps",
      "outputs": [
        {
          "internalType": "uint256",
          "name": "",
          "type": "uint256"
        }
      ],
      "stateMutability": "view",
      "type": "function"
    },
    {
      "inputs": [],
      "name": "totalBatchs",
      "outputs": [
        {
          "internalType": "uint256",
          "name": "",
          "type": "uint256"
        }
      ],
      "stateMutability": "view",
      "type": "function"
    },
    {
      "inputs": [
        {
          "internalType": "address",
          "name": "newOwner",
          "type": "address"
        }
      ],
      "name": "transferOwnership",
      "outputs": [],
      "stateMutability": "nonpayable",
      "type": "function"
    }
  ],
  "bytecode": "0x60806040523480156200001157600080fd5b50604051620069d4380380620069d4833981810160405281019062000037919062000946565b620000576200004b6200010560201b60201c565b6200010d60201b60201c565b6200006833620001d160201b60201c565b6200007933620002b760201b60201c565b6200008a336200039d60201b60201c565b6200009b336200048360201b60201c565b620000ac336200056960201b60201c565b620000bd336200064f60201b60201c565b80600760006101000a81548173ffffffffffffffffffffffffffffffffffffffff021916908373ffffffffffffffffffffffffffffffffffffffff1602179055505062000b51565b600033905090565b60008060009054906101000a900473ffffffffffffffffffffffffffffffffffffffff169050816000806101000a81548173ffffffffffffffffffffffffffffffffffffffff021916908373ffffffffffffffffffffffffffffffffffffffff1602179055508173ffffffffffffffffffffffffffffffffffffffff168173ffffffffffffffffffffffffffffffffffffffff167f8be0079c531659141344cd1fd0a4f28419497f9722a3daafe3b4186f6b6457e060405160405180910390a35050565b620001e16200010560201b60201c565b73ffffffffffffffffffffffffffffffffffffffff16620002076200073560201b60201c565b73ffffffffffffffffffffffffffffffffffffffff161462000260576040517f08c379a00000000000000000000000000000000000000000000000000000000081526004016200025790620009d9565b60405180910390fd5b6200027b8160016200075e60201b620044981790919060201c565b7fa3da795b47eb190084f878e63c07509e5f6df63ebc51443c0ccab2fc11c0d88381604051620002ac919062000a0c565b60405180910390a150565b620002c76200010560201b60201c565b73ffffffffffffffffffffffffffffffffffffffff16620002ed6200073560201b60201c565b73ffffffffffffffffffffffffffffffffffffffff161462000346576040517f08c379a00000000000000000000000000000000000000000000000000000000081526004016200033d90620009d9565b60405180910390fd5b620003618160026200075e60201b620044981790919060201c565b7f364ee90eb63717b99192fdb951c7b1aa91a45bca11ac73ab40cfad762631fbce8160405162000392919062000a0c565b60405180910390a150565b620003ad6200010560201b60201c565b73ffffffffffffffffffffffffffffffffffffffff16620003d36200073560201b60201c565b73ffffffffffffffffffffffffffffffffffffffff16146200042c576040517f08c379a00000000000000000000000000000000000000000000000000000000081526004016200042390620009d9565b60405180910390fd5b620004478160036200075e60201b620044981790919060201c565b7f5a8fb443d09cf1426e80f80dd509757d71d4687674ab4adad906c5e2b6e1e62c8160405162000478919062000a0c565b60405180910390a150565b620004936200010560201b60201c565b73ffffffffffffffffffffffffffffffffffffffff16620004b96200073560201b60201c565b73ffffffffffffffffffffffffffffffffffffffff161462000512576040517f08c379a00000000000000000000000000000000000000000000000000000000081526004016200050990620009d9565b60405180910390fd5b6200052d8160046200075e60201b620044981790919060201c565b7f3afd547f7eb357741de51229846ae795cb06449e4b4032eb34a7cc0a751e25c1816040516200055e919062000a0c565b60405180910390a150565b620005796200010560201b60201c565b73ffffffffffffffffffffffffffffffffffffffff166200059f6200073560201b60201c565b73ffffffffffffffffffffffffffffffffffffffff1614620005f8576040517f08c379a0000000000000000000000000000000000000000000000000000000008152600401620005ef90620009d9565b60405180910390fd5b620006138160056200075e60201b620044981790919060201c565b7f0eea60f9e1851b51feed56c339be177ea715591923622a0effe46dbb8885efa68160405162000644919062000a0c565b60405180910390a150565b6200065f6200010560201b60201c565b73ffffffffffffffffffffffffffffffffffffffff16620006856200073560201b60201c565b73ffffffffffffffffffffffffffffffffffffffff1614620006de576040517f08c379a0000000000000000000000000000000000000000000000000000000008152600401620006d590620009d9565b60405180910390fd5b620006f98160066200075e60201b620044981790919060201c565b7f23b2415a50efd127e694ba174e400d457ad65c58752e171b6d17f3f5daa26fdb816040516200072a919062000a0c565b60405180910390a150565b60008060009054906101000a900473ffffffffffffffffffffffffffffffffffffffff16905090565b6200077082826200081c60201b60201c565b15620007b3576040517f08c379a0000000000000000000000000000000000000000000000000000000008152600401620007aa9062000a79565b60405180910390fd5b81600001819080600181540180825580915050600190039060005260206000200160009091909190916101000a81548173ffffffffffffffffffffffffffffffffffffffff021916908373ffffffffffffffffffffffffffffffffffffffff1602179055505050565b6000808360000180549050905060005b81811015620008cf578373ffffffffffffffffffffffffffffffffffffffff1685600001828154811062000865576200086462000a9b565b5b9060005260206000200160009054906101000a900473ffffffffffffffffffffffffffffffffffffffff1673ffffffffffffffffffffffffffffffffffffffff161415620008b957600192505050620008d6565b8080620008c69062000b03565b9150506200082c565b5060009150505b92915050565b600080fd5b600073ffffffffffffffffffffffffffffffffffffffff82169050919050565b60006200090e82620008e1565b9050919050565b620009208162000901565b81146200092c57600080fd5b50565b600081519050620009408162000915565b92915050565b6000602082840312156200095f576200095e620008dc565b5b60006200096f848285016200092f565b91505092915050565b600082825260208201905092915050565b7f4f776e61626c653a2063616c6c6572206973206e6f7420746865206f776e6572600082015250565b6000620009c160208362000978565b9150620009ce8262000989565b602082019050919050565b60006020820190508181036000830152620009f481620009b2565b9050919050565b62000a068162000901565b82525050565b600060208201905062000a236000830184620009fb565b92915050565b7f524f4c455f414c52454144595f45584953545300000000000000000000000000600082015250565b600062000a6160138362000978565b915062000a6e8262000a29565b602082019050919050565b6000602082019050818103600083015262000a948162000a52565b9050919050565b7f4e487b7100000000000000000000000000000000000000000000000000000000600052603260045260246000fd5b7f4e487b7100000000000000000000000000000000000000000000000000000000600052601160045260246000fd5b6000819050919050565b600062000b108262000af9565b91507fffffffffffffffffffffffffffffffffffffffffffffffffffffffffffffffff82141562000b465762000b4562000aca565b5b600182019050919050565b615e738062000b616000396000f3fe608060405234801561001057600080fd5b50600436106102d65760003560e01c8063814f696e11610182578063bdacda31116100e9578063e6647c5c116100a2578063eeb341331161007c578063eeb3413314610914578063f2fde38b14610932578063f80d1ff01461094e578063faf31e081461096c576102d6565b8063e6647c5c14610898578063e70a962b146108c8578063e7d0831d146108f8576102d6565b8063bdacda31146107a9578063bfb231d2146107c7578063bfed485614610800578063dafe1ef714610830578063e102add814610860578063e3c1a5311461087c576102d6565b80638eb06ccf1161013b5780638eb06ccf146106d95780638ec4f505146106f55780638f0c86fa14610711578063a198d49614610741578063ad973d741461075d578063bca4bd5014610779576102d6565b8063814f696e1461062d5780638448051014610649578063862a68e3146106655780638853ad751461068157806388cc58e41461069d5780638da5cb5b146106bb576102d6565b80634d2ec64c116102415780635da09b88116101fa57806370099ec8116101d457806370099ec8146105cf578063715018a6146105eb5780637250e224146105f557806380bedacf14610611576102d6565b80635da09b8814610565578063650d993b14610595578063678c12a2146105b3576102d6565b80634d2ec64c146104915780635166b5c8146104c357806357c1f9e2146104df5780635884965f146104fb5780635a968383146105195780635bf2791214610549576102d6565b806329ce1ec51161029357806329ce1ec5146103d55780632a7ec29f146103f1578063319af8571461040d5780633c0e25a41461043d5780634b37c73f146104595780634c5eee0a14610475576102d6565b80630f04ba67146102db578063201ef8f21461030b57806320519bb014610327578063209d353e146103575780632885b9431461038757806328fd5e83146103a5575b600080fd5b6102f560048036038101906102f09190614a43565b61099c565b6040516103029190614a8b565b60405180910390f35b61032560048036038101906103209190614c22565b6109b9565b005b610341600480360381019061033c9190614cc1565b610fb5565b60405161034e9190614dac565b60405180910390f35b610371600480360381019061036c9190614cc1565b611020565b60405161037e9190614e8c565b60405180910390f35b61038f6110c1565b60405161039c9190614e8c565b60405180910390f35b6103bf60048036038101906103ba9190614a43565b6110d2565b6040516103cc9190614a8b565b60405180910390f35b6103ef60048036038101906103ea9190614a43565b6110ef565b005b61040b60048036038101906104069190614a43565b6111b9565b005b61042760048036038101906104229190614cc1565b611275565b6040516104349190614dac565b60405180910390f35b61045760048036038101906104529190614a43565b6112e0565b005b610473600480360381019061046e9190614a43565b6113aa565b005b61048f600480360381019061048a9190614eae565b611474565b005b6104ab60048036038101906104a69190614cc1565b611a55565b6040516104ba93929190614fb4565b60405180910390f35b6104dd60048036038101906104d89190614a43565b611b8f565b005b6104f960048036038101906104f49190614a43565b611c59565b005b610503611d23565b6040516105109190614e8c565b60405180910390f35b610533600480360381019061052e9190614cc1565b611d34565b6040516105409190614dac565b60405180910390f35b610563600480360381019061055e9190614a43565b611d9f565b005b61057f600480360381019061057a9190614a43565b611e5b565b60405161058c9190614a8b565b60405180910390f35b61059d611e78565b6040516105aa9190614e8c565b60405180910390f35b6105cd60048036038101906105c89190615184565b611e89565b005b6105e960048036038101906105e49190614a43565b612782565b005b6105f361284c565b005b61060f600480360381019061060a9190614a43565b6128d4565b005b61062b60048036038101906106269190614a43565b61299e565b005b61064760048036038101906106429190614a43565b612a5a565b005b610663600480360381019061065e9190614a43565b612b24565b005b61067f600480360381019061067a919061520f565b612be0565b005b61069b60048036038101906106969190614a43565b613367565b005b6106a5613423565b6040516106b29190614e8c565b60405180910390f35b6106c3613434565b6040516106d09190615299565b60405180910390f35b6106f360048036038101906106ee9190614a43565b61345d565b005b61070f600480360381019061070a9190614a43565b613527565b005b61072b60048036038101906107269190614a43565b6135f1565b6040516107389190614a8b565b60405180910390f35b61075b600480360381019061075691906152b4565b61360e565b005b61077760048036038101906107729190614a43565b613996565b005b610793600480360381019061078e9190614a43565b613a60565b6040516107a09190614a8b565b60405180910390f35b6107b1613a7d565b6040516107be9190614e8c565b60405180910390f35b6107e160048036038101906107dc9190614cc1565b613a8e565b6040516107f79a9998979695949392919061537e565b60405180910390f35b61081a60048036038101906108159190614a43565b613bd7565b6040516108279190615616565b60405180910390f35b61084a60048036038101906108459190614cc1565b613e77565b6040516108579190614e8c565b60405180910390f35b61087a60048036038101906108759190614cc1565b613f18565b005b61089660048036038101906108919190614a43565b61413f565b005b6108b260048036038101906108ad9190615638565b614209565b6040516108bf9190615678565b60405180910390f35b6108e260048036038101906108dd9190614cc1565b61423a565b6040516108ef9190614dac565b60405180910390f35b610912600480360381019061090d9190614a43565b6142a5565b005b61091c614361565b6040516109299190615678565b60405180910390f35b61094c60048036038101906109479190614a43565b614372565b005b61095661446a565b6040516109639190614e8c565b60405180910390f35b61098660048036038101906109819190614a43565b61447b565b6040516109939190614a8b565b60405180910390f35b60006109b282600361454b90919063ffffffff16565b9050919050565b6109c23361099c565b6109cb57600080fd5b6000600b600086815260200190815260200160002060405180610140016040529081600082015481526020016001820160009054906101000a900460ff166006811115610a1b57610a1a615307565b5b6006811115610a2d57610a2c615307565b5b815260200160028201548152602001600382015481526020016004820154815260200160058201548152602001600682018054610a69906156c2565b80601f0160208091040260200160405190810160405280929190818152602001828054610a95906156c2565b8015610ae25780601f10610ab757610100808354040283529160200191610ae2565b820191906000526020600020905b815481529060010190602001808311610ac557829003601f168201915b505050505081526020016007820160009054906101000a900473ffffffffffffffffffffffffffffffffffffffff1673ffffffffffffffffffffffffffffffffffffffff1673ffffffffffffffffffffffffffffffffffffffff1681526020016008820160009054906101000a900473ffffffffffffffffffffffffffffffffffffffff1673ffffffffffffffffffffffffffffffffffffffff1673ffffffffffffffffffffffffffffffffffffffff1681526020016009820160009054906101000a900473ffffffffffffffffffffffffffffffffffffffff1673ffffffffffffffffffffffffffffffffffffffff1673ffffffffffffffffffffffffffffffffffffffff1681525050905083600960008781526020019081526020016000206000018190555082600960008781526020019081526020016000206001019080519060200190610c3492919061492e565b5081600960008781526020019081526020016000206002019080519060200190610c5f92919061492e565b50600281602001906006811115610c7957610c78615307565b5b90816006811115610c8d57610c8c615307565b5b8152505080600b60008781526020019081526020016000206000820151816000015560208201518160010160006101000a81548160ff02191690836006811115610cda57610cd9615307565b5b021790555060408201518160020155606082015181600301556080820151816004015560a0820151816005015560c0820151816006019080519060200190610d2392919061492e565b5060e08201518160070160006101000a81548173ffffffffffffffffffffffffffffffffffffffff021916908373ffffffffffffffffffffffffffffffffffffffff1602179055506101008201518160080160006101000a81548173ffffffffffffffffffffffffffffffffffffffff021916908373ffffffffffffffffffffffffffffffffffffffff1602179055506101208201518160090160006101000a81548173ffffffffffffffffffffffffffffffffffffffff021916908373ffffffffffffffffffffffffffffffffffffffff1602179055509050506000600c600083610100015173ffffffffffffffffffffffffffffffffffffffff1673ffffffffffffffffffffffffffffffffffffffff1681526020019081526020016000208054905090506000811115610f735760005b81811015610f715786600c600085610100015173ffffffffffffffffffffffffffffffffffffffff1673ffffffffffffffffffffffffffffffffffffffff1681526020019081526020016000208281548110610eb557610eb46156f4565b5b90600052602060002090600a0201600001541415610f5e576002600c600085610100015173ffffffffffffffffffffffffffffffffffffffff1673ffffffffffffffffffffffffffffffffffffffff1681526020019081526020016000208281548110610f2557610f246156f4565b5b90600052602060002090600a020160010160006101000a81548160ff02191690836006811115610f5857610f57615307565b5b02179055505b8080610f6990615752565b915050610e56565b505b600a6000878152602001908152602001600020429080600181540180825580915050600190039060005260206000200160009091909190915055505050505050565b60606012600083815260200190815260200160002080548060200260200160405190810160405280929190818152602001828054801561101457602002820191906000526020600020905b815481526020019060010190808311611000575b50505050509050919050565b6060601060008381526020019081526020016000208054806020026020016040519081016040528092919081815260200182805480156110b557602002820191906000526020600020905b8160009054906101000a900473ffffffffffffffffffffffffffffffffffffffff1673ffffffffffffffffffffffffffffffffffffffff168152602001906001019080831161106b575b50505050509050919050565b60606110cd6002614602565b905090565b60006110e882600661454b90919063ffffffff16565b9050919050565b6110f7614694565b73ffffffffffffffffffffffffffffffffffffffff16611115613434565b73ffffffffffffffffffffffffffffffffffffffff161461116b576040517f08c379a0000000000000000000000000000000000000000000000000000000008152600401611162906157e7565b60405180910390fd5b61117f81600361449890919063ffffffff16565b7f5a8fb443d09cf1426e80f80dd509757d71d4687674ab4adad906c5e2b6e1e62c816040516111ae9190615299565b60405180910390a150565b8073ffffffffffffffffffffffffffffffffffffffff163373ffffffffffffffffffffffffffffffffffffffff1614611227576040517f08c379a000000000000000000000000000000000000000000000000000000000815260040161121e90615853565b60405180910390fd5b61123b81600661469c90919063ffffffff16565b7f4709990004724f283154297c090b8420d74dcbf9ffcd6bc50294e7350c7cb4fc8160405161126a9190615299565b60405180910390a150565b6060601160008381526020019081526020016000208054806020026020016040519081016040528092919081815260200182805480156112d457602002820191906000526020600020905b8154815260200190600101908083116112c0575b50505050509050919050565b6112e8614694565b73ffffffffffffffffffffffffffffffffffffffff16611306613434565b73ffffffffffffffffffffffffffffffffffffffff161461135c576040517f08c379a0000000000000000000000000000000000000000000000000000000008152600401611353906157e7565b60405180910390fd5b61137081600161449890919063ffffffff16565b7fa3da795b47eb190084f878e63c07509e5f6df63ebc51443c0ccab2fc11c0d8838160405161139f9190615299565b60405180910390a150565b6113b2614694565b73ffffffffffffffffffffffffffffffffffffffff166113d0613434565b73ffffffffffffffffffffffffffffffffffffffff1614611426576040517f08c379a000000000000000000000000000000000000000000000000000000000815260040161141d906157e7565b60405180910390fd5b61143a81600361469c90919063ffffffff16565b7f3d4e7057f9f992c8d86344002642adf5d5cd33816b302134e7ef5e0f045a6e78816040516114699190615299565b60405180910390a150565b61147d3361099c565b61148657600080fd5b60018210156114ca576040517f08c379a00000000000000000000000000000000000000000000000000000000081526004016114c1906158bf565b60405180910390fd5b6000600b600085815260200190815260200160002060405180610140016040529081600082015481526020016001820160009054906101000a900460ff16600681111561151a57611519615307565b5b600681111561152c5761152b615307565b5b815260200160028201548152602001600382015481526020016004820154815260200160058201548152602001600682018054611568906156c2565b80601f0160208091040260200160405190810160405280929190818152602001828054611594906156c2565b80156115e15780601f106115b6576101008083540402835291602001916115e1565b820191906000526020600020905b8154815290600101906020018083116115c457829003601f168201915b505050505081526020016007820160009054906101000a900473ffffffffffffffffffffffffffffffffffffffff1673ffffffffffffffffffffffffffffffffffffffff1673ffffffffffffffffffffffffffffffffffffffff1681526020016008820160009054906101000a900473ffffffffffffffffffffffffffffffffffffffff1673ffffffffffffffffffffffffffffffffffffffff1673ffffffffffffffffffffffffffffffffffffffff1681526020016009820160009054906101000a900473ffffffffffffffffffffffffffffffffffffffff1673ffffffffffffffffffffffffffffffffffffffff1673ffffffffffffffffffffffffffffffffffffffff16815250509050828160a0018181525050818160c0018190525060038160200190600681111561171a57611719615307565b5b9081600681111561172e5761172d615307565b5b8152505080600b60008681526020019081526020016000206000820151816000015560208201518160010160006101000a81548160ff0219169083600681111561177b5761177a615307565b5b021790555060408201518160020155606082015181600301556080820151816004015560a0820151816005015560c08201518160060190805190602001906117c492919061492e565b5060e08201518160070160006101000a81548173ffffffffffffffffffffffffffffffffffffffff021916908373ffffffffffffffffffffffffffffffffffffffff1602179055506101008201518160080160006101000a81548173ffffffffffffffffffffffffffffffffffffffff021916908373ffffffffffffffffffffffffffffffffffffffff1602179055506101208201518160090160006101000a81548173ffffffffffffffffffffffffffffffffffffffff021916908373ffffffffffffffffffffffffffffffffffffffff1602179055509050506000600c600083610100015173ffffffffffffffffffffffffffffffffffffffff1673ffffffffffffffffffffffffffffffffffffffff1681526020019081526020016000208054905090506000811115611a145760005b81811015611a125785600c600085610100015173ffffffffffffffffffffffffffffffffffffffff1673ffffffffffffffffffffffffffffffffffffffff1681526020019081526020016000208281548110611956576119556156f4565b5b90600052602060002090600a02016000015414156119ff576003600c600085610100015173ffffffffffffffffffffffffffffffffffffffff1673ffffffffffffffffffffffffffffffffffffffff16815260200190815260200160002082815481106119c6576119c56156f4565b5b90600052602060002090600a020160010160006101000a81548160ff021916908360068111156119f9576119f8615307565b5b02179055505b8080611a0a90615752565b9150506118f7565b505b600a60008681526020019081526020016000204290806001815401808255809150506001900390600052602060002001600090919091909150555050505050565b6009602052806000526040600020600091509050806000015490806001018054611a7e906156c2565b80601f0160208091040260200160405190810160405280929190818152602001828054611aaa906156c2565b8015611af75780601f10611acc57610100808354040283529160200191611af7565b820191906000526020600020905b815481529060010190602001808311611ada57829003601f168201915b505050505090806002018054611b0c906156c2565b80601f0160208091040260200160405190810160405280929190818152602001828054611b38906156c2565b8015611b855780601f10611b5a57610100808354040283529160200191611b85565b820191906000526020600020905b815481529060010190602001808311611b6857829003601f168201915b5050505050905083565b611b97614694565b73ffffffffffffffffffffffffffffffffffffffff16611bb5613434565b73ffffffffffffffffffffffffffffffffffffffff1614611c0b576040517f08c379a0000000000000000000000000000000000000000000000000000000008152600401611c02906157e7565b60405180910390fd5b611c1f81600161469c90919063ffffffff16565b7fccc03dfae55d568292686488ccd27bcdc249a89347bf1c13a2115a29062618b781604051611c4e9190615299565b60405180910390a150565b611c61614694565b73ffffffffffffffffffffffffffffffffffffffff16611c7f613434565b73ffffffffffffffffffffffffffffffffffffffff1614611cd5576040517f08c379a0000000000000000000000000000000000000000000000000000000008152600401611ccc906157e7565b60405180910390fd5b611ce981600461469c90919063ffffffff16565b7f43dd2f8ce4e5873e618ffabcae9856729ea5811dbc5e1c9be4365fcf7b7cf70381604051611d189190615299565b60405180910390a150565b6060611d2f6004614602565b905090565b6060600f6000838152602001908152602001600020805480602002602001604051908101604052809291908181526020018280548015611d9357602002820191906000526020600020905b815481526020019060010190808311611d7f575b50505050509050919050565b8073ffffffffffffffffffffffffffffffffffffffff163373ffffffffffffffffffffffffffffffffffffffff1614611e0d576040517f08c379a0000000000000000000000000000000000000000000000000000000008152600401611e0490615853565b60405180910390fd5b611e2181600461469c90919063ffffffff16565b7f43dd2f8ce4e5873e618ffabcae9856729ea5811dbc5e1c9be4365fcf7b7cf70381604051611e509190615299565b60405180910390a150565b6000611e7182600561454b90919063ffffffff16565b9050919050565b6060611e846006614602565b905090565b611e923361099c565b611e9b57600080fd5b6000600b600085815260200190815260200160002060405180610140016040529081600082015481526020016001820160009054906101000a900460ff166006811115611eeb57611eea615307565b5b6006811115611efd57611efc615307565b5b815260200160028201548152602001600382015481526020016004820154815260200160058201548152602001600682018054611f39906156c2565b80601f0160208091040260200160405190810160405280929190818152602001828054611f65906156c2565b8015611fb25780601f10611f8757610100808354040283529160200191611fb2565b820191906000526020600020905b815481529060010190602001808311611f9557829003601f168201915b505050505081526020016007820160009054906101000a900473ffffffffffffffffffffffffffffffffffffffff1673ffffffffffffffffffffffffffffffffffffffff1673ffffffffffffffffffffffffffffffffffffffff1681526020016008820160009054906101000a900473ffffffffffffffffffffffffffffffffffffffff1673ffffffffffffffffffffffffffffffffffffffff1673ffffffffffffffffffffffffffffffffffffffff1681526020016009820160009054906101000a900473ffffffffffffffffffffffffffffffffffffffff1673ffffffffffffffffffffffffffffffffffffffff1673ffffffffffffffffffffffffffffffffffffffff168152505090506004816020019060068111156120d8576120d7615307565b5b908160068111156120ec576120eb615307565b5b8152505060008160a001519050600760009054906101000a900473ffffffffffffffffffffffffffffffffffffffff1673ffffffffffffffffffffffffffffffffffffffff1663156e29f6338760018561214691906158df565b6040518463ffffffff1660e01b815260040161216493929190615913565b600060405180830381600087803b15801561217e57600080fd5b505af1158015612192573d6000803e3d6000fd5b505050506000805b8551811015612425576121c68682815181106121b9576121b86156f4565b5b60200260200101516135f1565b612205576040517f08c379a00000000000000000000000000000000000000000000000000000000081526004016121fc906159bc565b60405180910390fd5b600d600088815260200190815260200160002086828151811061222b5761222a6156f4565b5b60200260200101519080600181540180825580915050600190039060005260206000200160009091909190916101000a81548173ffffffffffffffffffffffffffffffffffffffff021916908373ffffffffffffffffffffffffffffffffffffffff160217905550600e60008881526020019081526020016000208582815181106122b9576122b86156f4565b5b60200260200101519080600181540180825580915050600190039060005260206000200160009091909190915055600f6000888152602001908152602001600020829080600181540180825580915050600190039060005260206000200160009091909190915055600760009054906101000a900473ffffffffffffffffffffffffffffffffffffffff1673ffffffffffffffffffffffffffffffffffffffff1663e51a27ce33888481518110612373576123726156f4565b5b60200260200101518a89868151811061238f5761238e6156f4565b5b6020026020010151876040518663ffffffff1660e01b81526004016123b8959493929190615a39565b600060405180830381600087803b1580156123d257600080fd5b505af11580156123e6573d6000803e3d6000fd5b505050508481815181106123fd576123fc6156f4565b5b6020026020010151826124109190615a9f565b9150808061241d90615752565b91505061219a565b5082600b60008881526020019081526020016000206000820151816000015560208201518160010160006101000a81548160ff0219169083600681111561246f5761246e615307565b5b021790555060408201518160020155606082015181600301556080820151816004015560a0820151816005015560c08201518160060190805190602001906124b892919061492e565b5060e08201518160070160006101000a81548173ffffffffffffffffffffffffffffffffffffffff021916908373ffffffffffffffffffffffffffffffffffffffff1602179055506101008201518160080160006101000a81548173ffffffffffffffffffffffffffffffffffffffff021916908373ffffffffffffffffffffffffffffffffffffffff1602179055506101208201518160090160006101000a81548173ffffffffffffffffffffffffffffffffffffffff021916908373ffffffffffffffffffffffffffffffffffffffff1602179055509050506000600c600085610100015173ffffffffffffffffffffffffffffffffffffffff1673ffffffffffffffffffffffffffffffffffffffff16815260200190815260200160002080549050905060008111156127085760005b818110156127065787600c600087610100015173ffffffffffffffffffffffffffffffffffffffff1673ffffffffffffffffffffffffffffffffffffffff168152602001908152602001600020828154811061264a576126496156f4565b5b90600052602060002090600a02016000015414156126f3576004600c600087610100015173ffffffffffffffffffffffffffffffffffffffff1673ffffffffffffffffffffffffffffffffffffffff16815260200190815260200160002082815481106126ba576126b96156f4565b5b90600052602060002090600a020160010160006101000a81548160ff021916908360068111156126ed576126ec615307565b5b02179055505b80806126fe90615752565b9150506125eb565b505b600a60008881526020019081526020016000204290806001815401808255809150506001900390600052602060002001600090919091909150557f01e7f4af78fe812a5df0e0b3c5b400eff1cd1366eca03a2261de317ae5f6727b876040516127719190615678565b60405180910390a150505050505050565b61278a614694565b73ffffffffffffffffffffffffffffffffffffffff166127a8613434565b73ffffffffffffffffffffffffffffffffffffffff16146127fe576040517f08c379a00000000000000000000000000000000000000000000000000000000081526004016127f5906157e7565b60405180910390fd5b61281281600561469c90919063ffffffff16565b7f200c3f073f217cf07dee57ee6e42c29e5fa6937f536b65c9d1e06be1f9c83dc1816040516128419190615299565b60405180910390a150565b612854614694565b73ffffffffffffffffffffffffffffffffffffffff16612872613434565b73ffffffffffffffffffffffffffffffffffffffff16146128c8576040517f08c379a00000000000000000000000000000000000000000000000000000000081526004016128bf906157e7565b60405180910390fd5b6128d26000614846565b565b6128dc614694565b73ffffffffffffffffffffffffffffffffffffffff166128fa613434565b73ffffffffffffffffffffffffffffffffffffffff1614612950576040517f08c379a0000000000000000000000000000000000000000000000000000000008152600401612947906157e7565b60405180910390fd5b61296481600461449890919063ffffffff16565b7f3afd547f7eb357741de51229846ae795cb06449e4b4032eb34a7cc0a751e25c1816040516129939190615299565b60405180910390a150565b8073ffffffffffffffffffffffffffffffffffffffff163373ffffffffffffffffffffffffffffffffffffffff1614612a0c576040517f08c379a0000000000000000000000000000000000000000000000000000000008152600401612a0390615853565b60405180910390fd5b612a2081600161469c90919063ffffffff16565b7fccc03dfae55d568292686488ccd27bcdc249a89347bf1c13a2115a29062618b781604051612a4f9190615299565b60405180910390a150565b612a62614694565b73ffffffffffffffffffffffffffffffffffffffff16612a80613434565b73ffffffffffffffffffffffffffffffffffffffff1614612ad6576040517f08c379a0000000000000000000000000000000000000000000000000000000008152600401612acd906157e7565b60405180910390fd5b612aea81600261449890919063ffffffff16565b7f364ee90eb63717b99192fdb951c7b1aa91a45bca11ac73ab40cfad762631fbce81604051612b199190615299565b60405180910390a150565b8073ffffffffffffffffffffffffffffffffffffffff163373ffffffffffffffffffffffffffffffffffffffff1614612b92576040517f08c379a0000000000000000000000000000000000000000000000000000000008152600401612b8990615853565b60405180910390fd5b612ba681600361469c90919063ffffffff16565b7f3d4e7057f9f992c8d86344002642adf5d5cd33816b302134e7ef5e0f045a6e7881604051612bd59190615299565b60405180910390a150565b612be93361099c565b612bf257600080fd5b612bfb84613a60565b612c3a576040517f08c379a0000000000000000000000000000000000000000000000000000000008152600401612c3190615b67565b60405180910390fd5b6000600b600087815260200190815260200160002060405180610140016040529081600082015481526020016001820160009054906101000a900460ff166006811115612c8a57612c89615307565b5b6006811115612c9c57612c9b615307565b5b815260200160028201548152602001600382015481526020016004820154815260200160058201548152602001600682018054612cd8906156c2565b80601f0160208091040260200160405190810160405280929190818152602001828054612d04906156c2565b8015612d515780601f10612d2657610100808354040283529160200191612d51565b820191906000526020600020905b815481529060010190602001808311612d3457829003601f168201915b505050505081526020016007820160009054906101000a900473ffffffffffffffffffffffffffffffffffffffff1673ffffffffffffffffffffffffffffffffffffffff1673ffffffffffffffffffffffffffffffffffffffff1681526020016008820160009054906101000a900473ffffffffffffffffffffffffffffffffffffffff1673ffffffffffffffffffffffffffffffffffffffff1673ffffffffffffffffffffffffffffffffffffffff1681526020016009820160009054906101000a900473ffffffffffffffffffffffffffffffffffffffff1673ffffffffffffffffffffffffffffffffffffffff1673ffffffffffffffffffffffffffffffffffffffff1681525050905060008160e0015190503382610120019073ffffffffffffffffffffffffffffffffffffffff16908173ffffffffffffffffffffffffffffffffffffffff16815250508582610100019073ffffffffffffffffffffffffffffffffffffffff16908173ffffffffffffffffffffffffffffffffffffffff1681525050848260400181815250508382606001818152505082826080018181525050600182602001906006811115612f1057612f0f615307565b5b90816006811115612f2457612f23615307565b5b8152505081600b60008981526020019081526020016000206000820151816000015560208201518160010160006101000a81548160ff02191690836006811115612f7157612f70615307565b5b021790555060408201518160020155606082015181600301556080820151816004015560a0820151816005015560c0820151816006019080519060200190612fba92919061492e565b5060e08201518160070160006101000a81548173ffffffffffffffffffffffffffffffffffffffff021916908373ffffffffffffffffffffffffffffffffffffffff1602179055506101008201518160080160006101000a81548173ffffffffffffffffffffffffffffffffffffffff021916908373ffffffffffffffffffffffffffffffffffffffff1602179055506101208201518160090160006101000a81548173ffffffffffffffffffffffffffffffffffffffff021916908373ffffffffffffffffffffffffffffffffffffffff160217905550905050600c60008773ffffffffffffffffffffffffffffffffffffffff1673ffffffffffffffffffffffffffffffffffffffff1681526020019081526020016000208290806001815401808255809150506001900390600052602060002090600a02016000909190919091506000820151816000015560208201518160010160006101000a81548160ff0219169083600681111561313357613132615307565b5b021790555060408201518160020155606082015181600301556080820151816004015560a0820151816005015560c082015181600601908051906020019061317c92919061492e565b5060e08201518160070160006101000a81548173ffffffffffffffffffffffffffffffffffffffff021916908373ffffffffffffffffffffffffffffffffffffffff1602179055506101008201518160080160006101000a81548173ffffffffffffffffffffffffffffffffffffffff021916908373ffffffffffffffffffffffffffffffffffffffff1602179055506101208201518160090160006101000a81548173ffffffffffffffffffffffffffffffffffffffff021916908373ffffffffffffffffffffffffffffffffffffffff1602179055505050600760009054906101000a900473ffffffffffffffffffffffffffffffffffffffff1673ffffffffffffffffffffffffffffffffffffffff1663e51a27ce82338a600160006040518663ffffffff1660e01b81526004016132bb959493929190615c07565b600060405180830381600087803b1580156132d557600080fd5b505af11580156132e9573d6000803e3d6000fd5b50505050600a60008881526020019081526020016000204290806001815401808255809150506001900390600052602060002001600090919091909150557f84fad793fc72a4890032a0a48ea25fb57401690403f128ee2aaf047af876291c876040516133569190615678565b60405180910390a150505050505050565b8073ffffffffffffffffffffffffffffffffffffffff163373ffffffffffffffffffffffffffffffffffffffff16146133d5576040517f08c379a00000000000000000000000000000000000000000000000000000000081526004016133cc90615853565b60405180910390fd5b6133e981600261469c90919063ffffffff16565b7f9cfe362d8a536c3b63d391e311186b7f259fdd498eecf5d32626fe9b95058a7d816040516134189190615299565b60405180910390a150565b606061342f6003614602565b905090565b60008060009054906101000a900473ffffffffffffffffffffffffffffffffffffffff16905090565b613465614694565b73ffffffffffffffffffffffffffffffffffffffff16613483613434565b73ffffffffffffffffffffffffffffffffffffffff16146134d9576040517f08c379a00000000000000000000000000000000000000000000000000000000081526004016134d0906157e7565b60405180910390fd5b6134ed81600661469c90919063ffffffff16565b7f4709990004724f283154297c090b8420d74dcbf9ffcd6bc50294e7350c7cb4fc8160405161351c9190615299565b60405180910390a150565b61352f614694565b73ffffffffffffffffffffffffffffffffffffffff1661354d613434565b73ffffffffffffffffffffffffffffffffffffffff16146135a3576040517f08c379a000000000000000000000000000000000000000000000000000000000815260040161359a906157e7565b60405180910390fd5b6135b781600561449890919063ffffffff16565b7f0eea60f9e1851b51feed56c339be177ea715591923622a0effe46dbb8885efa6816040516135e69190615299565b60405180910390a150565b600061360782600461454b90919063ffffffff16565b9050919050565b6136173361447b565b613656576040517f08c379a000000000000000000000000000000000000000000000000000000000815260040161364d90615cb9565b60405180910390fd5b6000613662600861490a565b905060006040518061014001604052808381526020016000600681111561368c5761368b615307565b5b8152602001868152602001858152602001848152602001600081526020016040518060200160405280600081525081526020013373ffffffffffffffffffffffffffffffffffffffff168152602001600073ffffffffffffffffffffffffffffffffffffffff168152602001600073ffffffffffffffffffffffffffffffffffffffff16815250905080600b60008481526020019081526020016000206000820151816000015560208201518160010160006101000a81548160ff0219169083600681111561375e5761375d615307565b5b021790555060408201518160020155606082015181600301556080820151816004015560a0820151816005015560c08201518160060190805190602001906137a792919061492e565b5060e08201518160070160006101000a81548173ffffffffffffffffffffffffffffffffffffffff021916908373ffffffffffffffffffffffffffffffffffffffff1602179055506101008201518160080160006101000a81548173ffffffffffffffffffffffffffffffffffffffff021916908373ffffffffffffffffffffffffffffffffffffffff1602179055506101208201518160090160006101000a81548173ffffffffffffffffffffffffffffffffffffffff021916908373ffffffffffffffffffffffffffffffffffffffff160217905550905050600760009054906101000a900473ffffffffffffffffffffffffffffffffffffffff1673ffffffffffffffffffffffffffffffffffffffff1663156e29f6338460016040518463ffffffff1660e01b81526004016138e293929190615cd9565b600060405180830381600087803b1580156138fc57600080fd5b505af1158015613910573d6000803e3d6000fd5b5050505061391e6008614918565b600a60008381526020019081526020016000204290806001815401808255809150506001900390600052602060002001600090919091909150557f8dba83ab26c4e67ac150487b6c119e69498289b9cc6c7dfd77fd0df2e671b48b826040516139879190615678565b60405180910390a15050505050565b61399e614694565b73ffffffffffffffffffffffffffffffffffffffff166139bc613434565b73ffffffffffffffffffffffffffffffffffffffff1614613a12576040517f08c379a0000000000000000000000000000000000000000000000000000000008152600401613a09906157e7565b60405180910390fd5b613a2681600661449890919063ffffffff16565b7f23b2415a50efd127e694ba174e400d457ad65c58752e171b6d17f3f5daa26fdb81604051613a559190615299565b60405180910390a150565b6000613a7682600261454b90919063ffffffff16565b9050919050565b6060613a896001614602565b905090565b600b6020528060005260406000206000915090508060000154908060010160009054906101000a900460ff1690806002015490806003015490806004015490806005015490806006018054613ae2906156c2565b80601f0160208091040260200160405190810160405280929190818152602001828054613b0e906156c2565b8015613b5b5780601f10613b3057610100808354040283529160200191613b5b565b820191906000526020600020905b815481529060010190602001808311613b3e57829003601f168201915b5050505050908060070160009054906101000a900473ffffffffffffffffffffffffffffffffffffffff16908060080160009054906101000a900473ffffffffffffffffffffffffffffffffffffffff16908060090160009054906101000a900473ffffffffffffffffffffffffffffffffffffffff1690508a565b6060600c60008373ffffffffffffffffffffffffffffffffffffffff1673ffffffffffffffffffffffffffffffffffffffff168152602001908152602001600020805480602002602001604051908101604052809291908181526020016000905b82821015613e6c57838290600052602060002090600a020160405180610140016040529081600082015481526020016001820160009054906101000a900460ff166006811115613c8b57613c8a615307565b5b6006811115613c9d57613c9c615307565b5b815260200160028201548152602001600382015481526020016004820154815260200160058201548152602001600682018054613cd9906156c2565b80601f0160208091040260200160405190810160405280929190818152602001828054613d05906156c2565b8015613d525780601f10613d2757610100808354040283529160200191613d52565b820191906000526020600020905b815481529060010190602001808311613d3557829003601f168201915b505050505081526020016007820160009054906101000a900473ffffffffffffffffffffffffffffffffffffffff1673ffffffffffffffffffffffffffffffffffffffff1673ffffffffffffffffffffffffffffffffffffffff1681526020016008820160009054906101000a900473ffffffffffffffffffffffffffffffffffffffff1673ffffffffffffffffffffffffffffffffffffffff1673ffffffffffffffffffffffffffffffffffffffff1681526020016009820160009054906101000a900473ffffffffffffffffffffffffffffffffffffffff1673ffffffffffffffffffffffffffffffffffffffff1673ffffffffffffffffffffffffffffffffffffffff168152505081526020019060010190613c38565b505050509050919050565b6060600d6000838152602001908152602001600020805480602002602001604051908101604052809291908181526020018280548015613f0c57602002820191906000526020600020905b8160009054906101000a900473ffffffffffffffffffffffffffffffffffffffff1673ffffffffffffffffffffffffffffffffffffffff1681526020019060010190808311613ec2575b50505050509050919050565b613f21336135f1565b613f2a57600080fd5b6000806000613f3884613e77565b905060005b815181101561410157600073ffffffffffffffffffffffffffffffffffffffff16828281518110613f7157613f706156f4565b5b602002602001015173ffffffffffffffffffffffffffffffffffffffff1614158015613fe257503373ffffffffffffffffffffffffffffffffffffffff16828281518110613fc257613fc16156f4565b5b602002602001015173ffffffffffffffffffffffffffffffffffffffff16145b156140ee57613ff08561423a565b8181518110614002576140016156f4565b5b6020026020010151935061401585611d34565b8181518110614027576140266156f4565b5b60200260200101519250600d60008681526020019081526020016000208181548110614056576140556156f4565b5b9060005260206000200160006101000a81549073ffffffffffffffffffffffffffffffffffffffff0219169055600e600086815260200190815260200160002081815481106140a8576140a76156f4565b5b9060005260206000200160009055600f600086815260200190815260200160002081815481106140db576140da6156f4565b5b9060005260206000200160009055614101565b80806140f990615752565b915050613f3d565b507fb9f01075be5d71ca908e0aae338e241c77af5da8fbd7d476d37de1c8634dc0e2846040516141319190615678565b60405180910390a150505050565b614147614694565b73ffffffffffffffffffffffffffffffffffffffff16614165613434565b73ffffffffffffffffffffffffffffffffffffffff16146141bb576040517f08c379a00000000000000000000000000000000000000000000000000000000081526004016141b2906157e7565b60405180910390fd5b6141cf81600261469c90919063ffffffff16565b7f9cfe362d8a536c3b63d391e311186b7f259fdd498eecf5d32626fe9b95058a7d816040516141fe9190615299565b60405180910390a150565b600a602052816000526040600020818154811061422557600080fd5b90600052602060002001600091509150505481565b6060600e600083815260200190815260200160002080548060200260200160405190810160405280929190818152602001828054801561429957602002820191906000526020600020905b815481526020019060010190808311614285575b50505050509050919050565b8073ffffffffffffffffffffffffffffffffffffffff163373ffffffffffffffffffffffffffffffffffffffff1614614313576040517f08c379a000000000000000000000000000000000000000000000000000000000815260040161430a90615853565b60405180910390fd5b61432781600561469c90919063ffffffff16565b7f200c3f073f217cf07dee57ee6e42c29e5fa6937f536b65c9d1e06be1f9c83dc1816040516143569190615299565b60405180910390a150565b600061436d600861490a565b905090565b61437a614694565b73ffffffffffffffffffffffffffffffffffffffff16614398613434565b73ffffffffffffffffffffffffffffffffffffffff16146143ee576040517f08c379a00000000000000000000000000000000000000000000000000000000081526004016143e5906157e7565b60405180910390fd5b600073ffffffffffffffffffffffffffffffffffffffff168173ffffffffffffffffffffffffffffffffffffffff16141561445e576040517f08c379a000000000000000000000000000000000000000000000000000000000815260040161445590615d82565b60405180910390fd5b61446781614846565b50565b60606144766005614602565b905090565b600061449182600161454b90919063ffffffff16565b9050919050565b6144a2828261454b565b156144e2576040517f08c379a00000000000000000000000000000000000000000000000000000000081526004016144d990615dee565b60405180910390fd5b81600001819080600181540180825580915050600190039060005260206000200160009091909190916101000a81548173ffffffffffffffffffffffffffffffffffffffff021916908373ffffffffffffffffffffffffffffffffffffffff1602179055505050565b6000808360000180549050905060005b818110156145f5578373ffffffffffffffffffffffffffffffffffffffff168560000182815481106145905761458f6156f4565b5b9060005260206000200160009054906101000a900473ffffffffffffffffffffffffffffffffffffffff1673ffffffffffffffffffffffffffffffffffffffff1614156145e2576001925050506145fc565b80806145ed90615752565b91505061455b565b5060009150505b92915050565b60608160000180548060200260200160405190810160405280929190818152602001828054801561468857602002820191906000526020600020905b8160009054906101000a900473ffffffffffffffffffffffffffffffffffffffff1673ffffffffffffffffffffffffffffffffffffffff168152602001906001019080831161463e575b50505050509050919050565b600033905090565b600082600001805490509050600080600090505b828110156147f657811561476a578460000181815481106146d4576146d36156f4565b5b9060005260206000200160009054906101000a900473ffffffffffffffffffffffffffffffffffffffff168560000160018361471091906158df565b81548110614721576147206156f4565b5b9060005260206000200160006101000a81548173ffffffffffffffffffffffffffffffffffffffff021916908373ffffffffffffffffffffffffffffffffffffffff1602179055505b8373ffffffffffffffffffffffffffffffffffffffff16856000018281548110614797576147966156f4565b5b9060005260206000200160009054906101000a900473ffffffffffffffffffffffffffffffffffffffff1673ffffffffffffffffffffffffffffffffffffffff1614156147e357600191505b80806147ee90615752565b9150506146b0565b508360000180548061480b5761480a615e0e565b5b6001900381819060005260206000200160006101000a81549073ffffffffffffffffffffffffffffffffffffffff0219169055905550505050565b60008060009054906101000a900473ffffffffffffffffffffffffffffffffffffffff169050816000806101000a81548173ffffffffffffffffffffffffffffffffffffffff021916908373ffffffffffffffffffffffffffffffffffffffff1602179055508173ffffffffffffffffffffffffffffffffffffffff168173ffffffffffffffffffffffffffffffffffffffff167f8be0079c531659141344cd1fd0a4f28419497f9722a3daafe3b4186f6b6457e060405160405180910390a35050565b600081600001549050919050565b6001816000016000828254019250508190555050565b82805461493a906156c2565b90600052602060002090601f01602090048101928261495c57600085556149a3565b82601f1061497557805160ff19168380011785556149a3565b828001600101855582156149a3579182015b828111156149a2578251825591602001919060010190614987565b5b5090506149b091906149b4565b5090565b5b808211156149cd5760008160009055506001016149b5565b5090565b6000604051905090565b600080fd5b600080fd5b600073ffffffffffffffffffffffffffffffffffffffff82169050919050565b6000614a10826149e5565b9050919050565b614a2081614a05565b8114614a2b57600080fd5b50565b600081359050614a3d81614a17565b92915050565b600060208284031215614a5957614a586149db565b5b6000614a6784828501614a2e565b91505092915050565b60008115159050919050565b614a8581614a70565b82525050565b6000602082019050614aa06000830184614a7c565b92915050565b6000819050919050565b614ab981614aa6565b8114614ac457600080fd5b50565b600081359050614ad681614ab0565b92915050565b600080fd5b600080fd5b6000601f19601f8301169050919050565b7f4e487b7100000000000000000000000000000000000000000000000000000000600052604160045260246000fd5b614b2f82614ae6565b810181811067ffffffffffffffff82111715614b4e57614b4d614af7565b5b80604052505050565b6000614b616149d1565b9050614b6d8282614b26565b919050565b600067ffffffffffffffff821115614b8d57614b8c614af7565b5b614b9682614ae6565b9050602081019050919050565b82818337600083830152505050565b6000614bc5614bc084614b72565b614b57565b905082815260208101848484011115614be157614be0614ae1565b5b614bec848285614ba3565b509392505050565b600082601f830112614c0957614c08614adc565b5b8135614c19848260208601614bb2565b91505092915050565b60008060008060808587031215614c3c57614c3b6149db565b5b6000614c4a87828801614ac7565b9450506020614c5b87828801614ac7565b935050604085013567ffffffffffffffff811115614c7c57614c7b6149e0565b5b614c8887828801614bf4565b925050606085013567ffffffffffffffff811115614ca957614ca86149e0565b5b614cb587828801614bf4565b91505092959194509250565b600060208284031215614cd757614cd66149db565b5b6000614ce584828501614ac7565b91505092915050565b600081519050919050565b600082825260208201905092915050565b6000819050602082019050919050565b614d2381614aa6565b82525050565b6000614d358383614d1a565b60208301905092915050565b6000602082019050919050565b6000614d5982614cee565b614d638185614cf9565b9350614d6e83614d0a565b8060005b83811015614d9f578151614d868882614d29565b9750614d9183614d41565b925050600181019050614d72565b5085935050505092915050565b60006020820190508181036000830152614dc68184614d4e565b905092915050565b600081519050919050565b600082825260208201905092915050565b6000819050602082019050919050565b614e0381614a05565b82525050565b6000614e158383614dfa565b60208301905092915050565b6000602082019050919050565b6000614e3982614dce565b614e438185614dd9565b9350614e4e83614dea565b8060005b83811015614e7f578151614e668882614e09565b9750614e7183614e21565b925050600181019050614e52565b5085935050505092915050565b60006020820190508181036000830152614ea68184614e2e565b905092915050565b600080600060608486031215614ec757614ec66149db565b5b6000614ed586828701614ac7565b9350506020614ee686828701614ac7565b925050604084013567ffffffffffffffff811115614f0757614f066149e0565b5b614f1386828701614bf4565b9150509250925092565b614f2681614aa6565b82525050565b600081519050919050565b600082825260208201905092915050565b60005b83811015614f66578082015181840152602081019050614f4b565b83811115614f75576000848401525b50505050565b6000614f8682614f2c565b614f908185614f37565b9350614fa0818560208601614f48565b614fa981614ae6565b840191505092915050565b6000606082019050614fc96000830186614f1d565b8181036020830152614fdb8185614f7b565b90508181036040830152614fef8184614f7b565b9050949350505050565b600067ffffffffffffffff82111561501457615013614af7565b5b602082029050602081019050919050565b600080fd5b600061503d61503884614ff9565b614b57565b905080838252602082019050602084028301858111156150605761505f615025565b5b835b8181101561508957806150758882614a2e565b845260208401935050602081019050615062565b5050509392505050565b600082601f8301126150a8576150a7614adc565b5b81356150b884826020860161502a565b91505092915050565b600067ffffffffffffffff8211156150dc576150db614af7565b5b602082029050602081019050919050565b60006151006150fb846150c1565b614b57565b9050808382526020820190506020840283018581111561512357615122615025565b5b835b8181101561514c57806151388882614ac7565b845260208401935050602081019050615125565b5050509392505050565b600082601f83011261516b5761516a614adc565b5b813561517b8482602086016150ed565b91505092915050565b60008060006060848603121561519d5761519c6149db565b5b60006151ab86828701614ac7565b935050602084013567ffffffffffffffff8111156151cc576151cb6149e0565b5b6151d886828701615093565b925050604084013567ffffffffffffffff8111156151f9576151f86149e0565b5b61520586828701615156565b9150509250925092565b600080600080600060a0868803121561522b5761522a6149db565b5b600061523988828901614ac7565b955050602061524a88828901614a2e565b945050604061525b88828901614ac7565b935050606061526c88828901614ac7565b925050608061527d88828901614ac7565b9150509295509295909350565b61529381614a05565b82525050565b60006020820190506152ae600083018461528a565b92915050565b6000806000606084860312156152cd576152cc6149db565b5b60006152db86828701614ac7565b93505060206152ec86828701614ac7565b92505060406152fd86828701614ac7565b9150509250925092565b7f4e487b7100000000000000000000000000000000000000000000000000000000600052602160045260246000fd5b6007811061534757615346615307565b5b50565b600081905061535882615336565b919050565b60006153688261534a565b9050919050565b6153788161535d565b82525050565b600061014082019050615394600083018d614f1d565b6153a1602083018c61536f565b6153ae604083018b614f1d565b6153bb606083018a614f1d565b6153c86080830189614f1d565b6153d560a0830188614f1d565b81810360c08301526153e78187614f7b565b90506153f660e083018661528a565b61540461010083018561528a565b61541261012083018461528a565b9b9a5050505050505050505050565b600081519050919050565b600082825260208201905092915050565b6000819050602082019050919050565b6154568161535d565b82525050565b600082825260208201905092915050565b600061547882614f2c565b615482818561545c565b9350615492818560208601614f48565b61549b81614ae6565b840191505092915050565b6000610140830160008301516154bf6000860182614d1a565b5060208301516154d2602086018261544d565b5060408301516154e56040860182614d1a565b5060608301516154f86060860182614d1a565b50608083015161550b6080860182614d1a565b5060a083015161551e60a0860182614d1a565b5060c083015184820360c0860152615536828261546d565b91505060e083015161554b60e0860182614dfa565b50610100830151615560610100860182614dfa565b50610120830151615575610120860182614dfa565b508091505092915050565b600061558c83836154a6565b905092915050565b6000602082019050919050565b60006155ac82615421565b6155b6818561542c565b9350836020820285016155c88561543d565b8060005b8581101561560457848403895281516155e58582615580565b94506155f083615594565b925060208a019950506001810190506155cc565b50829750879550505050505092915050565b6000602082019050818103600083015261563081846155a1565b905092915050565b6000806040838503121561564f5761564e6149db565b5b600061565d85828601614ac7565b925050602061566e85828601614ac7565b9150509250929050565b600060208201905061568d6000830184614f1d565b92915050565b7f4e487b7100000000000000000000000000000000000000000000000000000000600052602260045260246000fd5b600060028204905060018216806156da57607f821691505b602082108114156156ee576156ed615693565b5b50919050565b7f4e487b7100000000000000000000000000000000000000000000000000000000600052603260045260246000fd5b7f4e487b7100000000000000000000000000000000000000000000000000000000600052601160045260246000fd5b600061575d82614aa6565b91507fffffffffffffffffffffffffffffffffffffffffffffffffffffffffffffffff8214156157905761578f615723565b5b600182019050919050565b7f4f776e61626c653a2063616c6c6572206973206e6f7420746865206f776e6572600082015250565b60006157d1602083614f37565b91506157dc8261579b565b602082019050919050565b60006020820190508181036000830152615800816157c4565b9050919050565b7f594f555f43414e5f4e4f545f524f4d4f56455f544849535f4144445245535300600082015250565b600061583d601f83614f37565b915061584882615807565b602082019050919050565b6000602082019050818103600083015261586c81615830565b9050919050565b7f556e6974732073686f756c642062652067726561746572207468617420310000600082015250565b60006158a9601e83614f37565b91506158b482615873565b602082019050919050565b600060208201905081810360008301526158d88161589c565b9050919050565b60006158ea82614aa6565b91506158f583614aa6565b92508282101561590857615907615723565b5b828203905092915050565b6000606082019050615928600083018661528a565b6159356020830185614f1d565b6159426040830184614f1d565b949350505050565b7f4e4f5420412056414c4944204449535452494255544f5220414444524553532060008201527f2120504c4541534520434f4e544143542041444d494e00000000000000000000602082015250565b60006159a6603683614f37565b91506159b18261594a565b604082019050919050565b600060208201905081810360008301526159d581615999565b9050919050565b600082825260208201905092915050565b7f3078303000000000000000000000000000000000000000000000000000000000600082015250565b6000615a236004836159dc565b9150615a2e826159ed565b602082019050919050565b600060c082019050615a4e600083018861528a565b615a5b602083018761528a565b615a686040830186614f1d565b615a756060830185614f1d565b8181036080830152615a8681615a16565b9050615a9560a0830184614f1d565b9695505050505050565b6000615aaa82614aa6565b9150615ab583614aa6565b9250827fffffffffffffffffffffffffffffffffffffffffffffffffffffffffffffffff03821115615aea57615ae9615723565b5b828201905092915050565b7f4e4f5420412056414c49442057415245484f555345204144445245535320212060008201527f504c4541534520434f4e544143542041444d494e000000000000000000000000602082015250565b6000615b51603483614f37565b9150615b5c82615af5565b604082019050919050565b60006020820190508181036000830152615b8081615b44565b9050919050565b6000819050919050565b6000819050919050565b6000615bb6615bb1615bac84615b87565b615b91565b614aa6565b9050919050565b615bc681615b9b565b82525050565b6000819050919050565b6000615bf1615bec615be784615bcc565b615b91565b614aa6565b9050919050565b615c0181615bd6565b82525050565b600060c082019050615c1c600083018861528a565b615c29602083018761528a565b615c366040830186614f1d565b615c436060830185615bbd565b8181036080830152615c5481615a16565b9050615c6360a0830184615bf8565b9695505050505050565b7f4e6f74206120526177204d6174657269616c20537570706c6965720000000000600082015250565b6000615ca3601b83614f37565b9150615cae82615c6d565b602082019050919050565b60006020820190508181036000830152615cd281615c96565b9050919050565b6000606082019050615cee600083018661528a565b615cfb6020830185614f1d565b615d086040830184615bbd565b949350505050565b7f4f776e61626c653a206e6577206f776e657220697320746865207a65726f206160008201527f6464726573730000000000000000000000000000000000000000000000000000602082015250565b6000615d6c602683614f37565b9150615d7782615d10565b604082019050919050565b60006020820190508181036000830152615d9b81615d5f565b9050919050565b7f524f4c455f414c52454144595f45584953545300000000000000000000000000600082015250565b6000615dd8601383614f37565b9150615de382615da2565b602082019050919050565b60006020820190508181036000830152615e0781615dcb565b9050919050565b7f4e487b7100000000000000000000000000000000000000000000000000000000600052603160045260246000fdfea2646970667358221220854e5073a03b89c1024d5ac076c88d8d0c7d06de15ad27549fe361aa4cb11c8764736f6c63430008080033",
  "linkReferences": {},
  "deployedLinkReferences": {}
}