{
  "_format": "hh-sol-artifact-1",
  "contractName": "Supplychain",
  "sourceName": "contracts/Supplychain.sol",
  "abi": [
    {
      "inputs": [
        {
          "internalType": "address",
          "name": "_supplychainToken",
          "type": "address"
        }
      ],
      "stateMutability": "nonpayable",
      "type": "constructor"
    },
    {
      "anonymous": false,
      "inputs": [
        {
          "indexed": false,
          "internalType": "address",
          "name": "_address",
          "type": "address"
        }
      ],
      "name": "AddCustomer",
      "type": "event"
    },
    {
      "anonymous": false,
      "inputs": [
        {
          "indexed": false,
          "internalType": "address",
          "name": "_address",
          "type": "address"
        }
      ],
      "name": "AddDistributor",
      "type": "event"
    },
    {
      "anonymous": false,
      "inputs": [
        {
          "indexed": false,
          "internalType": "address",
          "name": "_address",
          "type": "address"
        }
      ],
      "name": "AddFactory",
      "type": "event"
    },
    {
      "anonymous": false,
      "inputs": [
        {
          "indexed": false,
          "internalType": "address",
          "name": "_address",
          "type": "address"
        }
      ],
      "name": "AddRawMaterialSupplier",
      "type": "event"
    },
    {
      "anonymous": false,
      "inputs": [
        {
          "indexed": false,
          "internalType": "address",
          "name": "_address",
          "type": "address"
        }
      ],
      "name": "AddRetailer",
      "type": "event"
    },
    {
      "anonymous": false,
      "inputs": [
        {
          "indexed": false,
          "internalType": "address",
          "name": "_address",
          "type": "address"
        }
      ],
      "name": "AddWarehouse",
      "type": "event"
    },
    {
      "anonymous": false,
      "inputs": [
        {
          "indexed": false,
          "internalType": "uint256",
          "name": "_supplyChainId",
          "type": "uint256"
        }
      ],
      "name": "DistributorSellToRetailer",
      "type": "event"
    },
    {
      "anonymous": false,
      "inputs": [
        {
          "indexed": false,
          "internalType": "uint256",
          "name": "_supplyChainId",
          "type": "uint256"
        }
      ],
      "name": "FactoryBuyRawMaterial",
      "type": "event"
    },
    {
      "anonymous": false,
      "inputs": [
        {
          "indexed": false,
          "internalType": "uint256",
          "name": "_supplyChainId",
          "type": "uint256"
        }
      ],
      "name": "FactorySellItemToDistributors",
      "type": "event"
    },
    {
      "anonymous": false,
      "inputs": [
        {
          "indexed": true,
          "internalType": "address",
          "name": "previousOwner",
          "type": "address"
        },
        {
          "indexed": true,
          "internalType": "address",
          "name": "newOwner",
          "type": "address"
        }
      ],
      "name": "OwnershipTransferred",
      "type": "event"
    },
    {
      "anonymous": false,
      "inputs": [
        {
          "indexed": false,
          "internalType": "uint256",
          "name": "_supplyChainId",
          "type": "uint256"
        }
      ],
      "name": "RawMaterialSupplierSuppliesRM",
      "type": "event"
    },
    {
      "anonymous": false,
      "inputs": [
        {
          "indexed": false,
          "internalType": "address",
          "name": "_address",
          "type": "address"
        }
      ],
      "name": "RemoveCustomer",
      "type": "event"
    },
    {
      "anonymous": false,
      "inputs": [
        {
          "indexed": false,
          "internalType": "address",
          "name": "_address",
          "type": "address"
        }
      ],
      "name": "RemoveDistributor",
      "type": "event"
    },
    {
      "anonymous": false,
      "inputs": [
        {
          "indexed": false,
          "internalType": "address",
          "name": "_address",
          "type": "address"
        }
      ],
      "name": "RemoveFactory",
      "type": "event"
    },
    {
      "anonymous": false,
      "inputs": [
        {
          "indexed": false,
          "internalType": "address",
          "name": "_address",
          "type": "address"
        }
      ],
      "name": "RemoveRawMaterialSupplier",
      "type": "event"
    },
    {
      "anonymous": false,
      "inputs": [
        {
          "indexed": false,
          "internalType": "address",
          "name": "_address",
          "type": "address"
        }
      ],
      "name": "RemoveRetailer",
      "type": "event"
    },
    {
      "anonymous": false,
      "inputs": [
        {
          "indexed": false,
          "internalType": "address",
          "name": "_address",
          "type": "address"
        }
      ],
      "name": "RemoveWarehouse",
      "type": "event"
    },
    {
      "anonymous": false,
      "inputs": [
        {
          "indexed": false,
          "internalType": "uint256",
          "name": "_supplyChainId",
          "type": "uint256"
        }
      ],
      "name": "RetailerSellToCustomer",
      "type": "event"
    },
    {
      "anonymous": false,
      "inputs": [
        {
          "indexed": false,
          "internalType": "uint256",
          "name": "a",
          "type": "uint256"
        },
        {
          "indexed": false,
          "internalType": "uint256",
          "name": "b",
          "type": "uint256"
        }
      ],
      "name": "valueeeeeeee",
      "type": "event"
    },
    {
      "inputs": [
        {
          "internalType": "address",
          "name": "_address",
          "type": "address"
        }
      ],
      "name": "addCustomer",
      "outputs": [],
      "stateMutability": "nonpayable",
      "type": "function"
    },
    {
      "inputs": [
        {
          "internalType": "address",
          "name": "_address",
          "type": "address"
        }
      ],
      "name": "addDistributor",
      "outputs": [],
      "stateMutability": "nonpayable",
      "type": "function"
    },
    {
      "inputs": [
        {
          "internalType": "address",
          "name": "_address",
          "type": "address"
        }
      ],
      "name": "addFactory",
      "outputs": [],
      "stateMutability": "nonpayable",
      "type": "function"
    },
    {
      "inputs": [
        {
          "internalType": "address",
          "name": "_address",
          "type": "address"
        }
      ],
      "name": "addRawMaterialSupplier",
      "outputs": [],
      "stateMutability": "nonpayable",
      "type": "function"
    },
    {
      "inputs": [
        {
          "internalType": "address",
          "name": "_address",
          "type": "address"
        }
      ],
      "name": "addRetailer",
      "outputs": [],
      "stateMutability": "nonpayable",
      "type": "function"
    },
    {
      "inputs": [
        {
          "internalType": "address",
          "name": "_address",
          "type": "address"
        }
      ],
      "name": "addWarehouse",
      "outputs": [],
      "stateMutability": "nonpayable",
      "type": "function"
    },
    {
      "inputs": [
        {
          "internalType": "uint256",
          "name": "_supplyChainId",
          "type": "uint256"
        }
      ],
      "name": "distributorSellToRetailer",
      "outputs": [],
      "stateMutability": "nonpayable",
      "type": "function"
    },
    {
      "inputs": [
        {
          "internalType": "uint256",
          "name": "_supplyChainId",
          "type": "uint256"
        },
        {
          "internalType": "address",
          "name": "_warehouse",
          "type": "address"
        }
      ],
      "name": "factoryBuyRawMaterial",
      "outputs": [],
      "stateMutability": "nonpayable",
      "type": "function"
    },
    {
      "inputs": [
        {
          "internalType": "uint256",
          "name": "_supplyChainId",
          "type": "uint256"
        },
        {
          "internalType": "address[]",
          "name": "distributors",
          "type": "address[]"
        },
        {
          "internalType": "uint256[]",
          "name": "quantity",
          "type": "uint256[]"
        }
      ],
      "name": "factorySellItemToDistributors",
      "outputs": [],
      "stateMutability": "nonpayable",
      "type": "function"
    },
    {
      "inputs": [],
      "name": "getCustomer",
      "outputs": [
        {
          "internalType": "address[]",
          "name": "",
          "type": "address[]"
        }
      ],
      "stateMutability": "view",
      "type": "function"
    },
    {
      "inputs": [],
      "name": "getDistributor",
      "outputs": [
        {
          "internalType": "address[]",
          "name": "",
          "type": "address[]"
        }
      ],
      "stateMutability": "view",
      "type": "function"
    },
    {
      "inputs": [
        {
          "internalType": "uint256",
          "name": "_supplychianId",
          "type": "uint256"
        }
      ],
      "name": "getDistributorCounters",
      "outputs": [
        {
          "internalType": "uint256[]",
          "name": "",
          "type": "uint256[]"
        }
      ],
      "stateMutability": "view",
      "type": "function"
    },
    {
      "inputs": [
        {
          "internalType": "uint256",
          "name": "_supplychianId",
          "type": "uint256"
        }
      ],
      "name": "getDistributorUnits",
      "outputs": [
        {
          "internalType": "uint256[]",
          "name": "",
          "type": "uint256[]"
        }
      ],
      "stateMutability": "view",
      "type": "function"
    },
    {
      "inputs": [
        {
          "internalType": "uint256",
          "name": "_supplychianId",
          "type": "uint256"
        }
      ],
      "name": "getDistributors",
      "outputs": [
        {
          "internalType": "address[]",
          "name": "",
          "type": "address[]"
        }
      ],
      "stateMutability": "view",
      "type": "function"
    },
    {
      "inputs": [],
      "name": "getFactory",
      "outputs": [
        {
          "internalType": "address[]",
          "name": "",
          "type": "address[]"
        }
      ],
      "stateMutability": "view",
      "type": "function"
    },
    {
      "inputs": [],
      "name": "getRawMaterialSupplier",
      "outputs": [
        {
          "internalType": "address[]",
          "name": "",
          "type": "address[]"
        }
      ],
      "stateMutability": "view",
      "type": "function"
    },
    {
      "inputs": [],
      "name": "getRetailer",
      "outputs": [
        {
          "internalType": "address[]",
          "name": "",
          "type": "address[]"
        }
      ],
      "stateMutability": "view",
      "type": "function"
    },
    {
      "inputs": [
        {
          "internalType": "uint256",
          "name": "_supplychianId",
          "type": "uint256"
        }
      ],
      "name": "getRetailers",
      "outputs": [
        {
          "internalType": "address[]",
          "name": "",
          "type": "address[]"
        }
      ],
      "stateMutability": "view",
      "type": "function"
    },
    {
      "inputs": [
        {
          "internalType": "uint256",
          "name": "_supplychianId",
          "type": "uint256"
        }
      ],
      "name": "getRetailersCounters",
      "outputs": [
        {
          "internalType": "uint256[]",
          "name": "",
          "type": "uint256[]"
        }
      ],
      "stateMutability": "view",
      "type": "function"
    },
    {
      "inputs": [
        {
          "internalType": "uint256",
          "name": "_supplychianId",
          "type": "uint256"
        }
      ],
      "name": "getRetailersUnits",
      "outputs": [
        {
          "internalType": "uint256[]",
          "name": "",
          "type": "uint256[]"
        }
      ],
      "stateMutability": "view",
      "type": "function"
    },
    {
      "inputs": [],
      "name": "getWarehouse",
      "outputs": [
        {
          "internalType": "address[]",
          "name": "",
          "type": "address[]"
        }
      ],
      "stateMutability": "view",
      "type": "function"
    },
    {
      "inputs": [
        {
          "internalType": "address",
          "name": "warehouse",
          "type": "address"
        }
      ],
      "name": "getWarehouseItems",
      "outputs": [
        {
          "components": [
            {
              "internalType": "uint256",
              "name": "supplyChainId",
              "type": "uint256"
            },
            {
              "internalType": "enum Supplychain.State",
              "name": "itemState",
              "type": "uint8"
            },
            {
              "internalType": "uint256",
              "name": "PolyesterAmount",
              "type": "uint256"
            },
            {
              "internalType": "uint256",
              "name": "CottonAmount",
              "type": "uint256"
            },
            {
              "internalType": "uint256",
              "name": "WoolAmount",
              "type": "uint256"
            },
            {
              "internalType": "uint256",
              "name": "totalUnits",
              "type": "uint256"
            },
            {
              "internalType": "string",
              "name": "Description",
              "type": "string"
            },
            {
              "internalType": "address",
              "name": "RawMaterialSupplierID",
              "type": "address"
            },
            {
              "internalType": "address",
              "name": "warehouseID",
              "type": "address"
            },
            {
              "internalType": "address",
              "name": "factoryID",
              "type": "address"
            }
          ],
          "internalType": "struct Supplychain.Item[]",
          "name": "",
          "type": "tuple[]"
        }
      ],
      "stateMutability": "view",
      "type": "function"
    },
    {
      "inputs": [
        {
          "internalType": "address",
          "name": "_address",
          "type": "address"
        }
      ],
      "name": "isCustomer",
      "outputs": [
        {
          "internalType": "bool",
          "name": "",
          "type": "bool"
        }
      ],
      "stateMutability": "view",
      "type": "function"
    },
    {
      "inputs": [
        {
          "internalType": "address",
          "name": "_address",
          "type": "address"
        }
      ],
      "name": "isDistributor",
      "outputs": [
        {
          "internalType": "bool",
          "name": "",
          "type": "bool"
        }
      ],
      "stateMutability": "view",
      "type": "function"
    },
    {
      "inputs": [
        {
          "internalType": "address",
          "name": "_address",
          "type": "address"
        }
      ],
      "name": "isFactory",
      "outputs": [
        {
          "internalType": "bool",
          "name": "",
          "type": "bool"
        }
      ],
      "stateMutability": "view",
      "type": "function"
    },
    {
      "inputs": [
        {
          "internalType": "address",
          "name": "_address",
          "type": "address"
        }
      ],
      "name": "isRawMaterialSupplier",
      "outputs": [
        {
          "internalType": "bool",
          "name": "",
          "type": "bool"
        }
      ],
      "stateMutability": "view",
      "type": "function"
    },
    {
      "inputs": [
        {
          "internalType": "address",
          "name": "_address",
          "type": "address"
        }
      ],
      "name": "isRetailer",
      "outputs": [
        {
          "internalType": "bool",
          "name": "",
          "type": "bool"
        }
      ],
      "stateMutability": "view",
      "type": "function"
    },
    {
      "inputs": [
        {
          "internalType": "address",
          "name": "_address",
          "type": "address"
        }
      ],
      "name": "isWarehouse",
      "outputs": [
        {
          "internalType": "bool",
          "name": "",
          "type": "bool"
        }
      ],
      "stateMutability": "view",
      "type": "function"
    },
    {
      "inputs": [
        {
          "internalType": "uint256",
          "name": "",
          "type": "uint256"
        }
      ],
      "name": "items",
      "outputs": [
        {
          "internalType": "uint256",
          "name": "supplyChainId",
          "type": "uint256"
        },
        {
          "internalType": "enum Supplychain.State",
          "name": "itemState",
          "type": "uint8"
        },
        {
          "internalType": "uint256",
          "name": "PolyesterAmount",
          "type": "uint256"
        },
        {
          "internalType": "uint256",
          "name": "CottonAmount",
          "type": "uint256"
        },
        {
          "internalType": "uint256",
          "name": "WoolAmount",
          "type": "uint256"
        },
        {
          "internalType": "uint256",
          "name": "totalUnits",
          "type": "uint256"
        },
        {
          "internalType": "string",
          "name": "Description",
          "type": "string"
        },
        {
          "internalType": "address",
          "name": "RawMaterialSupplierID",
          "type": "address"
        },
        {
          "internalType": "address",
          "name": "warehouseID",
          "type": "address"
        },
        {
          "internalType": "address",
          "name": "factoryID",
          "type": "address"
        }
      ],
      "stateMutability": "view",
      "type": "function"
    },
    {
      "inputs": [],
      "name": "owner",
      "outputs": [
        {
          "internalType": "address",
          "name": "",
          "type": "address"
        }
      ],
      "stateMutability": "view",
      "type": "function"
    },
    {
      "inputs": [
        {
          "internalType": "uint256",
          "name": "_polyesterAmount",
          "type": "uint256"
        },
        {
          "internalType": "uint256",
          "name": "_cottonAmount",
          "type": "uint256"
        },
        {
          "internalType": "uint256",
          "name": "_woolAmount",
          "type": "uint256"
        }
      ],
      "name": "rawMaterialSupplierSuppliesRM",
      "outputs": [],
      "stateMutability": "nonpayable",
      "type": "function"
    },
    {
      "inputs": [
        {
          "internalType": "address",
          "name": "_address",
          "type": "address"
        }
      ],
      "name": "removeCustomer",
      "outputs": [],
      "stateMutability": "nonpayable",
      "type": "function"
    },
    {
      "inputs": [
        {
          "internalType": "address",
          "name": "_address",
          "type": "address"
        }
      ],
      "name": "removeCustomerSelf",
      "outputs": [],
      "stateMutability": "nonpayable",
      "type": "function"
    },
    {
      "inputs": [
        {
          "internalType": "address",
          "name": "_address",
          "type": "address"
        }
      ],
      "name": "removeDistributor",
      "outputs": [],
      "stateMutability": "nonpayable",
      "type": "function"
    },
    {
      "inputs": [
        {
          "internalType": "address",
          "name": "_address",
          "type": "address"
        }
      ],
      "name": "removeDistributorSelf",
      "outputs": [],
      "stateMutability": "nonpayable",
      "type": "function"
    },
    {
      "inputs": [
        {
          "internalType": "address",
          "name": "_address",
          "type": "address"
        }
      ],
      "name": "removeFactory",
      "outputs": [],
      "stateMutability": "nonpayable",
      "type": "function"
    },
    {
      "inputs": [
        {
          "internalType": "address",
          "name": "_address",
          "type": "address"
        }
      ],
      "name": "removeFactorySelf",
      "outputs": [],
      "stateMutability": "nonpayable",
      "type": "function"
    },
    {
      "inputs": [
        {
          "internalType": "address",
          "name": "_address",
          "type": "address"
        }
      ],
      "name": "removeRawMaterialSupplier",
      "outputs": [],
      "stateMutability": "nonpayable",
      "type": "function"
    },
    {
      "inputs": [
        {
          "internalType": "address",
          "name": "_address",
          "type": "address"
        }
      ],
      "name": "removeRawMaterialSupplierSelf",
      "outputs": [],
      "stateMutability": "nonpayable",
      "type": "function"
    },
    {
      "inputs": [
        {
          "internalType": "address",
          "name": "_address",
          "type": "address"
        }
      ],
      "name": "removeRetailer",
      "outputs": [],
      "stateMutability": "nonpayable",
      "type": "function"
    },
    {
      "inputs": [
        {
          "internalType": "address",
          "name": "_address",
          "type": "address"
        }
      ],
      "name": "removeRetailerSelf",
      "outputs": [],
      "stateMutability": "nonpayable",
      "type": "function"
    },
    {
      "inputs": [
        {
          "internalType": "address",
          "name": "_address",
          "type": "address"
        }
      ],
      "name": "removeSelfWarehouse",
      "outputs": [],
      "stateMutability": "nonpayable",
      "type": "function"
    },
    {
      "inputs": [
        {
          "internalType": "address",
          "name": "_address",
          "type": "address"
        }
      ],
      "name": "removeWarehouse",
      "outputs": [],
      "stateMutability": "nonpayable",
      "type": "function"
    },
    {
      "inputs": [],
      "name": "renounceOwnership",
      "outputs": [],
      "stateMutability": "nonpayable",
      "type": "function"
    },
    {
      "inputs": [],
      "name": "totalBatchs",
      "outputs": [
        {
          "internalType": "uint256",
          "name": "",
          "type": "uint256"
        }
      ],
      "stateMutability": "view",
      "type": "function"
    },
    {
      "inputs": [
        {
          "internalType": "address",
          "name": "newOwner",
          "type": "address"
        }
      ],
      "name": "transferOwnership",
      "outputs": [],
      "stateMutability": "nonpayable",
      "type": "function"
    }
  ],
  "bytecode": "0x60806040523480156200001157600080fd5b50604051620057e8380380620057e8833981810160405281019062000037919062000946565b620000576200004b6200010560201b60201c565b6200010d60201b60201c565b6200006833620001d160201b60201c565b6200007933620002b760201b60201c565b6200008a336200039d60201b60201c565b6200009b336200048360201b60201c565b620000ac336200056960201b60201c565b620000bd336200064f60201b60201c565b80600760006101000a81548173ffffffffffffffffffffffffffffffffffffffff021916908373ffffffffffffffffffffffffffffffffffffffff1602179055505062000b51565b600033905090565b60008060009054906101000a900473ffffffffffffffffffffffffffffffffffffffff169050816000806101000a81548173ffffffffffffffffffffffffffffffffffffffff021916908373ffffffffffffffffffffffffffffffffffffffff1602179055508173ffffffffffffffffffffffffffffffffffffffff168173ffffffffffffffffffffffffffffffffffffffff167f8be0079c531659141344cd1fd0a4f28419497f9722a3daafe3b4186f6b6457e060405160405180910390a35050565b620001e16200010560201b60201c565b73ffffffffffffffffffffffffffffffffffffffff16620002076200073560201b60201c565b73ffffffffffffffffffffffffffffffffffffffff161462000260576040517f08c379a00000000000000000000000000000000000000000000000000000000081526004016200025790620009d9565b60405180910390fd5b6200027b8160016200075e60201b6200359b1790919060201c565b7fa3da795b47eb190084f878e63c07509e5f6df63ebc51443c0ccab2fc11c0d88381604051620002ac919062000a0c565b60405180910390a150565b620002c76200010560201b60201c565b73ffffffffffffffffffffffffffffffffffffffff16620002ed6200073560201b60201c565b73ffffffffffffffffffffffffffffffffffffffff161462000346576040517f08c379a00000000000000000000000000000000000000000000000000000000081526004016200033d90620009d9565b60405180910390fd5b620003618160026200075e60201b6200359b1790919060201c565b7f364ee90eb63717b99192fdb951c7b1aa91a45bca11ac73ab40cfad762631fbce8160405162000392919062000a0c565b60405180910390a150565b620003ad6200010560201b60201c565b73ffffffffffffffffffffffffffffffffffffffff16620003d36200073560201b60201c565b73ffffffffffffffffffffffffffffffffffffffff16146200042c576040517f08c379a00000000000000000000000000000000000000000000000000000000081526004016200042390620009d9565b60405180910390fd5b620004478160036200075e60201b6200359b1790919060201c565b7f5a8fb443d09cf1426e80f80dd509757d71d4687674ab4adad906c5e2b6e1e62c8160405162000478919062000a0c565b60405180910390a150565b620004936200010560201b60201c565b73ffffffffffffffffffffffffffffffffffffffff16620004b96200073560201b60201c565b73ffffffffffffffffffffffffffffffffffffffff161462000512576040517f08c379a00000000000000000000000000000000000000000000000000000000081526004016200050990620009d9565b60405180910390fd5b6200052d8160046200075e60201b6200359b1790919060201c565b7f3afd547f7eb357741de51229846ae795cb06449e4b4032eb34a7cc0a751e25c1816040516200055e919062000a0c565b60405180910390a150565b620005796200010560201b60201c565b73ffffffffffffffffffffffffffffffffffffffff166200059f6200073560201b60201c565b73ffffffffffffffffffffffffffffffffffffffff1614620005f8576040517f08c379a0000000000000000000000000000000000000000000000000000000008152600401620005ef90620009d9565b60405180910390fd5b620006138160056200075e60201b6200359b1790919060201c565b7f0eea60f9e1851b51feed56c339be177ea715591923622a0effe46dbb8885efa68160405162000644919062000a0c565b60405180910390a150565b6200065f6200010560201b60201c565b73ffffffffffffffffffffffffffffffffffffffff16620006856200073560201b60201c565b73ffffffffffffffffffffffffffffffffffffffff1614620006de576040517f08c379a0000000000000000000000000000000000000000000000000000000008152600401620006d590620009d9565b60405180910390fd5b620006f98160066200075e60201b6200359b1790919060201c565b7f23b2415a50efd127e694ba174e400d457ad65c58752e171b6d17f3f5daa26fdb816040516200072a919062000a0c565b60405180910390a150565b60008060009054906101000a900473ffffffffffffffffffffffffffffffffffffffff16905090565b6200077082826200081c60201b60201c565b15620007b3576040517f08c379a0000000000000000000000000000000000000000000000000000000008152600401620007aa9062000a79565b60405180910390fd5b81600001819080600181540180825580915050600190039060005260206000200160009091909190916101000a81548173ffffffffffffffffffffffffffffffffffffffff021916908373ffffffffffffffffffffffffffffffffffffffff1602179055505050565b6000808360000180549050905060005b81811015620008cf578373ffffffffffffffffffffffffffffffffffffffff1685600001828154811062000865576200086462000a9b565b5b9060005260206000200160009054906101000a900473ffffffffffffffffffffffffffffffffffffffff1673ffffffffffffffffffffffffffffffffffffffff161415620008b957600192505050620008d6565b8080620008c69062000b03565b9150506200082c565b5060009150505b92915050565b600080fd5b600073ffffffffffffffffffffffffffffffffffffffff82169050919050565b60006200090e82620008e1565b9050919050565b620009208162000901565b81146200092c57600080fd5b50565b600081519050620009408162000915565b92915050565b6000602082840312156200095f576200095e620008dc565b5b60006200096f848285016200092f565b91505092915050565b600082825260208201905092915050565b7f4f776e61626c653a2063616c6c6572206973206e6f7420746865206f776e6572600082015250565b6000620009c160208362000978565b9150620009ce8262000989565b602082019050919050565b60006020820190508181036000830152620009f481620009b2565b9050919050565b62000a068162000901565b82525050565b600060208201905062000a236000830184620009fb565b92915050565b7f524f4c455f414c52454144595f45584953545300000000000000000000000000600082015250565b600062000a6160138362000978565b915062000a6e8262000a29565b602082019050919050565b6000602082019050818103600083015262000a948162000a52565b9050919050565b7f4e487b7100000000000000000000000000000000000000000000000000000000600052603260045260246000fd5b7f4e487b7100000000000000000000000000000000000000000000000000000000600052601160045260246000fd5b6000819050919050565b600062000b108262000af9565b91507fffffffffffffffffffffffffffffffffffffffffffffffffffffffffffffffff82141562000b465762000b4562000aca565b5b600182019050919050565b614c878062000b616000396000f3fe608060405234801561001057600080fd5b506004361061028a5760003560e01c8063814f696e1161015c578063bdacda31116100ce578063e70a962b11610087578063e70a962b146107e2578063e7d0831d14610812578063eeb341331461082e578063f2fde38b1461084c578063f80d1ff014610868578063faf31e08146108865761028a565b8063bdacda31146106f3578063bfb231d214610711578063bfed48561461074a578063dafe1ef71461077a578063e102add8146107aa578063e3c1a531146107c65761028a565b80638eb06ccf116101205780638eb06ccf146106235780638ec4f5051461063f5780638f0c86fa1461065b578063a198d4961461068b578063ad973d74146106a7578063bca4bd50146106c35761028a565b8063814f696e1461059357806384480510146105af5780638853ad75146105cb57806388cc58e4146105e75780638da5cb5b146106055761028a565b80635166b5c811610200578063650d993b116101b9578063650d993b146104fb578063678c12a21461051957806370099ec814610535578063715018a6146105515780637250e2241461055b57806380bedacf146105775761028a565b80635166b5c81461042957806357c1f9e2146104455780635884965f146104615780635a9683831461047f5780635bf27912146104af5780635da09b88146104cb5761028a565b806328fd5e831161025257806328fd5e831461035957806329ce1ec5146103895780632a7ec29f146103a5578063319af857146103c15780633c0e25a4146103f15780634b37c73f1461040d5761028a565b80630f04ba671461028f57806320519bb0146102bf578063209d353e146102ef5780632100c7c81461031f5780632885b9431461033b575b600080fd5b6102a960048036038101906102a49190613b46565b6108b6565b6040516102b69190613b8e565b60405180910390f35b6102d960048036038101906102d49190613bdf565b6108d3565b6040516102e69190613cca565b60405180910390f35b61030960048036038101906103049190613bdf565b61093e565b6040516103169190613daa565b60405180910390f35b61033960048036038101906103349190613dcc565b6109df565b005b61034361110b565b6040516103509190613daa565b60405180910390f35b610373600480360381019061036e9190613b46565b61111c565b6040516103809190613b8e565b60405180910390f35b6103a3600480360381019061039e9190613b46565b611139565b005b6103bf60048036038101906103ba9190613b46565b611203565b005b6103db60048036038101906103d69190613bdf565b6112bf565b6040516103e89190613cca565b60405180910390f35b61040b60048036038101906104069190613b46565b61132a565b005b61042760048036038101906104229190613b46565b6113f4565b005b610443600480360381019061043e9190613b46565b6114be565b005b61045f600480360381019061045a9190613b46565b611588565b005b610469611652565b6040516104769190613daa565b60405180910390f35b61049960048036038101906104949190613bdf565b611663565b6040516104a69190613cca565b60405180910390f35b6104c960048036038101906104c49190613b46565b6116ce565b005b6104e560048036038101906104e09190613b46565b61178a565b6040516104f29190613b8e565b60405180910390f35b6105036117a7565b6040516105109190613daa565b60405180910390f35b610533600480360381019061052e9190614028565b6117b8565b005b61054f600480360381019061054a9190613b46565b612077565b005b610559612141565b005b61057560048036038101906105709190613b46565b6121c9565b005b610591600480360381019061058c9190613b46565b612293565b005b6105ad60048036038101906105a89190613b46565b61234f565b005b6105c960048036038101906105c49190613b46565b612419565b005b6105e560048036038101906105e09190613b46565b6124d5565b005b6105ef612591565b6040516105fc9190613daa565b60405180910390f35b61060d6125a2565b60405161061a91906140c2565b60405180910390f35b61063d60048036038101906106389190613b46565b6125cb565b005b61065960048036038101906106549190613b46565b612695565b005b61067560048036038101906106709190613b46565b61275f565b6040516106829190613b8e565b60405180910390f35b6106a560048036038101906106a091906140dd565b61277c565b005b6106c160048036038101906106bc9190613b46565b612aca565b005b6106dd60048036038101906106d89190613b46565b612b94565b6040516106ea9190613b8e565b60405180910390f35b6106fb612bb1565b6040516107089190613daa565b60405180910390f35b61072b60048036038101906107269190613bdf565b612bc2565b6040516107419a9998979695949392919061423e565b60405180910390f35b610764600480360381019061075f9190613b46565b612d0b565b60405161077191906144d6565b60405180910390f35b610794600480360381019061078f9190613bdf565b612fab565b6040516107a19190613daa565b60405180910390f35b6107c460048036038101906107bf9190613bdf565b61304c565b005b6107e060048036038101906107db9190613b46565b613273565b005b6107fc60048036038101906107f79190613bdf565b61333d565b6040516108099190613cca565b60405180910390f35b61082c60048036038101906108279190613b46565b6133a8565b005b610836613464565b60405161084391906144f8565b60405180910390f35b61086660048036038101906108619190613b46565b613475565b005b61087061356d565b60405161087d9190613daa565b60405180910390f35b6108a0600480360381019061089b9190613b46565b61357e565b6040516108ad9190613b8e565b60405180910390f35b60006108cc82600361364e90919063ffffffff16565b9050919050565b60606010600083815260200190815260200160002080548060200260200160405190810160405280929190818152602001828054801561093257602002820191906000526020600020905b81548152602001906001019080831161091e575b50505050509050919050565b6060600e60008381526020019081526020016000208054806020026020016040519081016040528092919081815260200182805480156109d357602002820191906000526020600020905b8160009054906101000a900473ffffffffffffffffffffffffffffffffffffffff1673ffffffffffffffffffffffffffffffffffffffff1681526020019060010190808311610989575b50505050509050919050565b6109e8336108b6565b6109f157600080fd5b6109fa81612b94565b610a39576040517f08c379a0000000000000000000000000000000000000000000000000000000008152600401610a3090614585565b60405180910390fd5b60006009600084815260200190815260200160002060405180610140016040529081600082015481526020016001820160009054906101000a900460ff166004811115610a8957610a8861413f565b5b6004811115610a9b57610a9a61413f565b5b815260200160028201548152602001600382015481526020016004820154815260200160058201548152602001600682018054610ad7906145d4565b80601f0160208091040260200160405190810160405280929190818152602001828054610b03906145d4565b8015610b505780601f10610b2557610100808354040283529160200191610b50565b820191906000526020600020905b815481529060010190602001808311610b3357829003601f168201915b505050505081526020016007820160009054906101000a900473ffffffffffffffffffffffffffffffffffffffff1673ffffffffffffffffffffffffffffffffffffffff1673ffffffffffffffffffffffffffffffffffffffff1681526020016008820160009054906101000a900473ffffffffffffffffffffffffffffffffffffffff1673ffffffffffffffffffffffffffffffffffffffff1673ffffffffffffffffffffffffffffffffffffffff1681526020016009820160009054906101000a900473ffffffffffffffffffffffffffffffffffffffff1673ffffffffffffffffffffffffffffffffffffffff1673ffffffffffffffffffffffffffffffffffffffff1681525050905060008160e0015190503382610120019073ffffffffffffffffffffffffffffffffffffffff16908173ffffffffffffffffffffffffffffffffffffffff16815250508282610100019073ffffffffffffffffffffffffffffffffffffffff16908173ffffffffffffffffffffffffffffffffffffffff1681525050600182602001906004811115610cf157610cf061413f565b5b90816004811115610d0557610d0461413f565b5b8152505081600960008681526020019081526020016000206000820151816000015560208201518160010160006101000a81548160ff02191690836004811115610d5257610d5161413f565b5b021790555060408201518160020155606082015181600301556080820151816004015560a0820151816005015560c0820151816006019080519060200190610d9b929190613a31565b5060e08201518160070160006101000a81548173ffffffffffffffffffffffffffffffffffffffff021916908373ffffffffffffffffffffffffffffffffffffffff1602179055506101008201518160080160006101000a81548173ffffffffffffffffffffffffffffffffffffffff021916908373ffffffffffffffffffffffffffffffffffffffff1602179055506101208201518160090160006101000a81548173ffffffffffffffffffffffffffffffffffffffff021916908373ffffffffffffffffffffffffffffffffffffffff160217905550905050600a60008473ffffffffffffffffffffffffffffffffffffffff1673ffffffffffffffffffffffffffffffffffffffff1681526020019081526020016000208290806001815401808255809150506001900390600052602060002090600a02016000909190919091506000820151816000015560208201518160010160006101000a81548160ff02191690836004811115610f1457610f1361413f565b5b021790555060408201518160020155606082015181600301556080820151816004015560a0820151816005015560c0820151816006019080519060200190610f5d929190613a31565b5060e08201518160070160006101000a81548173ffffffffffffffffffffffffffffffffffffffff021916908373ffffffffffffffffffffffffffffffffffffffff1602179055506101008201518160080160006101000a81548173ffffffffffffffffffffffffffffffffffffffff021916908373ffffffffffffffffffffffffffffffffffffffff1602179055506101208201518160090160006101000a81548173ffffffffffffffffffffffffffffffffffffffff021916908373ffffffffffffffffffffffffffffffffffffffff1602179055505050600760009054906101000a900473ffffffffffffffffffffffffffffffffffffffff1673ffffffffffffffffffffffffffffffffffffffff1663e51a27ce823387600160006040518663ffffffff1660e01b815260040161109c9594939291906146e3565b600060405180830381600087803b1580156110b657600080fd5b505af11580156110ca573d6000803e3d6000fd5b505050507f84fad793fc72a4890032a0a48ea25fb57401690403f128ee2aaf047af876291c846040516110fd91906144f8565b60405180910390a150505050565b60606111176002613705565b905090565b600061113282600661364e90919063ffffffff16565b9050919050565b611141613797565b73ffffffffffffffffffffffffffffffffffffffff1661115f6125a2565b73ffffffffffffffffffffffffffffffffffffffff16146111b5576040517f08c379a00000000000000000000000000000000000000000000000000000000081526004016111ac90614795565b60405180910390fd5b6111c981600361359b90919063ffffffff16565b7f5a8fb443d09cf1426e80f80dd509757d71d4687674ab4adad906c5e2b6e1e62c816040516111f891906140c2565b60405180910390a150565b8073ffffffffffffffffffffffffffffffffffffffff163373ffffffffffffffffffffffffffffffffffffffff1614611271576040517f08c379a000000000000000000000000000000000000000000000000000000000815260040161126890614801565b60405180910390fd5b61128581600661379f90919063ffffffff16565b7f4709990004724f283154297c090b8420d74dcbf9ffcd6bc50294e7350c7cb4fc816040516112b491906140c2565b60405180910390a150565b6060600f600083815260200190815260200160002080548060200260200160405190810160405280929190818152602001828054801561131e57602002820191906000526020600020905b81548152602001906001019080831161130a575b50505050509050919050565b611332613797565b73ffffffffffffffffffffffffffffffffffffffff166113506125a2565b73ffffffffffffffffffffffffffffffffffffffff16146113a6576040517f08c379a000000000000000000000000000000000000000000000000000000000815260040161139d90614795565b60405180910390fd5b6113ba81600161359b90919063ffffffff16565b7fa3da795b47eb190084f878e63c07509e5f6df63ebc51443c0ccab2fc11c0d883816040516113e991906140c2565b60405180910390a150565b6113fc613797565b73ffffffffffffffffffffffffffffffffffffffff1661141a6125a2565b73ffffffffffffffffffffffffffffffffffffffff1614611470576040517f08c379a000000000000000000000000000000000000000000000000000000000815260040161146790614795565b60405180910390fd5b61148481600361379f90919063ffffffff16565b7f3d4e7057f9f992c8d86344002642adf5d5cd33816b302134e7ef5e0f045a6e78816040516114b391906140c2565b60405180910390a150565b6114c6613797565b73ffffffffffffffffffffffffffffffffffffffff166114e46125a2565b73ffffffffffffffffffffffffffffffffffffffff161461153a576040517f08c379a000000000000000000000000000000000000000000000000000000000815260040161153190614795565b60405180910390fd5b61154e81600161379f90919063ffffffff16565b7fccc03dfae55d568292686488ccd27bcdc249a89347bf1c13a2115a29062618b78160405161157d91906140c2565b60405180910390a150565b611590613797565b73ffffffffffffffffffffffffffffffffffffffff166115ae6125a2565b73ffffffffffffffffffffffffffffffffffffffff1614611604576040517f08c379a00000000000000000000000000000000000000000000000000000000081526004016115fb90614795565b60405180910390fd5b61161881600461379f90919063ffffffff16565b7f43dd2f8ce4e5873e618ffabcae9856729ea5811dbc5e1c9be4365fcf7b7cf7038160405161164791906140c2565b60405180910390a150565b606061165e6004613705565b905090565b6060600d60008381526020019081526020016000208054806020026020016040519081016040528092919081815260200182805480156116c257602002820191906000526020600020905b8154815260200190600101908083116116ae575b50505050509050919050565b8073ffffffffffffffffffffffffffffffffffffffff163373ffffffffffffffffffffffffffffffffffffffff161461173c576040517f08c379a000000000000000000000000000000000000000000000000000000000815260040161173390614801565b60405180910390fd5b61175081600461379f90919063ffffffff16565b7f43dd2f8ce4e5873e618ffabcae9856729ea5811dbc5e1c9be4365fcf7b7cf7038160405161177f91906140c2565b60405180910390a150565b60006117a082600561364e90919063ffffffff16565b9050919050565b60606117b36006613705565b905090565b6117c1336108b6565b6117ca57600080fd5b60006009600085815260200190815260200160002060405180610140016040529081600082015481526020016001820160009054906101000a900460ff16600481111561181a5761181961413f565b5b600481111561182c5761182b61413f565b5b815260200160028201548152602001600382015481526020016004820154815260200160058201548152602001600682018054611868906145d4565b80601f0160208091040260200160405190810160405280929190818152602001828054611894906145d4565b80156118e15780601f106118b6576101008083540402835291602001916118e1565b820191906000526020600020905b8154815290600101906020018083116118c457829003601f168201915b505050505081526020016007820160009054906101000a900473ffffffffffffffffffffffffffffffffffffffff1673ffffffffffffffffffffffffffffffffffffffff1673ffffffffffffffffffffffffffffffffffffffff1681526020016008820160009054906101000a900473ffffffffffffffffffffffffffffffffffffffff1673ffffffffffffffffffffffffffffffffffffffff1673ffffffffffffffffffffffffffffffffffffffff1681526020016009820160009054906101000a900473ffffffffffffffffffffffffffffffffffffffff1673ffffffffffffffffffffffffffffffffffffffff1673ffffffffffffffffffffffffffffffffffffffff16815250509050600281602001906004811115611a0757611a0661413f565b5b90816004811115611a1b57611a1a61413f565b5b8152505060008160a001519050600760009054906101000a900473ffffffffffffffffffffffffffffffffffffffff1673ffffffffffffffffffffffffffffffffffffffff1663156e29f63387600185611a759190614850565b6040518463ffffffff1660e01b8152600401611a9393929190614884565b600060405180830381600087803b158015611aad57600080fd5b505af1158015611ac1573d6000803e3d6000fd5b505050506000805b8551811015611d5457611af5868281518110611ae857611ae76148bb565b5b602002602001015161275f565b611b34576040517f08c379a0000000000000000000000000000000000000000000000000000000008152600401611b2b9061495c565b60405180910390fd5b600b6000888152602001908152602001600020868281518110611b5a57611b596148bb565b5b60200260200101519080600181540180825580915050600190039060005260206000200160009091909190916101000a81548173ffffffffffffffffffffffffffffffffffffffff021916908373ffffffffffffffffffffffffffffffffffffffff160217905550600c6000888152602001908152602001600020858281518110611be857611be76148bb565b5b60200260200101519080600181540180825580915050600190039060005260206000200160009091909190915055600d6000888152602001908152602001600020829080600181540180825580915050600190039060005260206000200160009091909190915055600760009054906101000a900473ffffffffffffffffffffffffffffffffffffffff1673ffffffffffffffffffffffffffffffffffffffff1663e51a27ce33888481518110611ca257611ca16148bb565b5b60200260200101518a898681518110611cbe57611cbd6148bb565b5b6020026020010151876040518663ffffffff1660e01b8152600401611ce795949392919061497c565b600060405180830381600087803b158015611d0157600080fd5b505af1158015611d15573d6000803e3d6000fd5b50505050848181518110611d2c57611d2b6148bb565b5b602002602001015182611d3f91906149e2565b91508080611d4c90614a38565b915050611ac9565b5082600960008881526020019081526020016000206000820151816000015560208201518160010160006101000a81548160ff02191690836004811115611d9e57611d9d61413f565b5b021790555060408201518160020155606082015181600301556080820151816004015560a0820151816005015560c0820151816006019080519060200190611de7929190613a31565b5060e08201518160070160006101000a81548173ffffffffffffffffffffffffffffffffffffffff021916908373ffffffffffffffffffffffffffffffffffffffff1602179055506101008201518160080160006101000a81548173ffffffffffffffffffffffffffffffffffffffff021916908373ffffffffffffffffffffffffffffffffffffffff1602179055506101208201518160090160006101000a81548173ffffffffffffffffffffffffffffffffffffffff021916908373ffffffffffffffffffffffffffffffffffffffff1602179055509050506000600a600085610100015173ffffffffffffffffffffffffffffffffffffffff1673ffffffffffffffffffffffffffffffffffffffff16815260200190815260200160002080549050905060008111156120375760005b818110156120355787600a600087610100015173ffffffffffffffffffffffffffffffffffffffff1673ffffffffffffffffffffffffffffffffffffffff1681526020019081526020016000208281548110611f7957611f786148bb565b5b90600052602060002090600a0201600001541415612022576002600a600087610100015173ffffffffffffffffffffffffffffffffffffffff1673ffffffffffffffffffffffffffffffffffffffff1681526020019081526020016000208281548110611fe957611fe86148bb565b5b90600052602060002090600a020160010160006101000a81548160ff0219169083600481111561201c5761201b61413f565b5b02179055505b808061202d90614a38565b915050611f1a565b505b7f01e7f4af78fe812a5df0e0b3c5b400eff1cd1366eca03a2261de317ae5f6727b8760405161206691906144f8565b60405180910390a150505050505050565b61207f613797565b73ffffffffffffffffffffffffffffffffffffffff1661209d6125a2565b73ffffffffffffffffffffffffffffffffffffffff16146120f3576040517f08c379a00000000000000000000000000000000000000000000000000000000081526004016120ea90614795565b60405180910390fd5b61210781600561379f90919063ffffffff16565b7f200c3f073f217cf07dee57ee6e42c29e5fa6937f536b65c9d1e06be1f9c83dc18160405161213691906140c2565b60405180910390a150565b612149613797565b73ffffffffffffffffffffffffffffffffffffffff166121676125a2565b73ffffffffffffffffffffffffffffffffffffffff16146121bd576040517f08c379a00000000000000000000000000000000000000000000000000000000081526004016121b490614795565b60405180910390fd5b6121c76000613949565b565b6121d1613797565b73ffffffffffffffffffffffffffffffffffffffff166121ef6125a2565b73ffffffffffffffffffffffffffffffffffffffff1614612245576040517f08c379a000000000000000000000000000000000000000000000000000000000815260040161223c90614795565b60405180910390fd5b61225981600461359b90919063ffffffff16565b7f3afd547f7eb357741de51229846ae795cb06449e4b4032eb34a7cc0a751e25c18160405161228891906140c2565b60405180910390a150565b8073ffffffffffffffffffffffffffffffffffffffff163373ffffffffffffffffffffffffffffffffffffffff1614612301576040517f08c379a00000000000000000000000000000000000000000000000000000000081526004016122f890614801565b60405180910390fd5b61231581600161379f90919063ffffffff16565b7fccc03dfae55d568292686488ccd27bcdc249a89347bf1c13a2115a29062618b78160405161234491906140c2565b60405180910390a150565b612357613797565b73ffffffffffffffffffffffffffffffffffffffff166123756125a2565b73ffffffffffffffffffffffffffffffffffffffff16146123cb576040517f08c379a00000000000000000000000000000000000000000000000000000000081526004016123c290614795565b60405180910390fd5b6123df81600261359b90919063ffffffff16565b7f364ee90eb63717b99192fdb951c7b1aa91a45bca11ac73ab40cfad762631fbce8160405161240e91906140c2565b60405180910390a150565b8073ffffffffffffffffffffffffffffffffffffffff163373ffffffffffffffffffffffffffffffffffffffff1614612487576040517f08c379a000000000000000000000000000000000000000000000000000000000815260040161247e90614801565b60405180910390fd5b61249b81600361379f90919063ffffffff16565b7f3d4e7057f9f992c8d86344002642adf5d5cd33816b302134e7ef5e0f045a6e78816040516124ca91906140c2565b60405180910390a150565b8073ffffffffffffffffffffffffffffffffffffffff163373ffffffffffffffffffffffffffffffffffffffff1614612543576040517f08c379a000000000000000000000000000000000000000000000000000000000815260040161253a90614801565b60405180910390fd5b61255781600261379f90919063ffffffff16565b7f9cfe362d8a536c3b63d391e311186b7f259fdd498eecf5d32626fe9b95058a7d8160405161258691906140c2565b60405180910390a150565b606061259d6003613705565b905090565b60008060009054906101000a900473ffffffffffffffffffffffffffffffffffffffff16905090565b6125d3613797565b73ffffffffffffffffffffffffffffffffffffffff166125f16125a2565b73ffffffffffffffffffffffffffffffffffffffff1614612647576040517f08c379a000000000000000000000000000000000000000000000000000000000815260040161263e90614795565b60405180910390fd5b61265b81600661379f90919063ffffffff16565b7f4709990004724f283154297c090b8420d74dcbf9ffcd6bc50294e7350c7cb4fc8160405161268a91906140c2565b60405180910390a150565b61269d613797565b73ffffffffffffffffffffffffffffffffffffffff166126bb6125a2565b73ffffffffffffffffffffffffffffffffffffffff1614612711576040517f08c379a000000000000000000000000000000000000000000000000000000000815260040161270890614795565b60405180910390fd5b61272581600561359b90919063ffffffff16565b7f0eea60f9e1851b51feed56c339be177ea715591923622a0effe46dbb8885efa68160405161275491906140c2565b60405180910390a150565b600061277582600461364e90919063ffffffff16565b9050919050565b6127853361357e565b6127c4576040517f08c379a00000000000000000000000000000000000000000000000000000000081526004016127bb90614acd565b60405180910390fd5b60006127d06008613a0d565b90506000604051806101400160405280838152602001600060048111156127fa576127f961413f565b5b8152602001868152602001858152602001848152602001600081526020016040518060200160405280600081525081526020013373ffffffffffffffffffffffffffffffffffffffff168152602001600073ffffffffffffffffffffffffffffffffffffffff168152602001600073ffffffffffffffffffffffffffffffffffffffff16815250905080600960008481526020019081526020016000206000820151816000015560208201518160010160006101000a81548160ff021916908360048111156128cc576128cb61413f565b5b021790555060408201518160020155606082015181600301556080820151816004015560a0820151816005015560c0820151816006019080519060200190612915929190613a31565b5060e08201518160070160006101000a81548173ffffffffffffffffffffffffffffffffffffffff021916908373ffffffffffffffffffffffffffffffffffffffff1602179055506101008201518160080160006101000a81548173ffffffffffffffffffffffffffffffffffffffff021916908373ffffffffffffffffffffffffffffffffffffffff1602179055506101208201518160090160006101000a81548173ffffffffffffffffffffffffffffffffffffffff021916908373ffffffffffffffffffffffffffffffffffffffff160217905550905050600760009054906101000a900473ffffffffffffffffffffffffffffffffffffffff1673ffffffffffffffffffffffffffffffffffffffff1663156e29f6338460016040518463ffffffff1660e01b8152600401612a5093929190614aed565b600060405180830381600087803b158015612a6a57600080fd5b505af1158015612a7e573d6000803e3d6000fd5b50505050612a8c6008613a1b565b7f8dba83ab26c4e67ac150487b6c119e69498289b9cc6c7dfd77fd0df2e671b48b82604051612abb91906144f8565b60405180910390a15050505050565b612ad2613797565b73ffffffffffffffffffffffffffffffffffffffff16612af06125a2565b73ffffffffffffffffffffffffffffffffffffffff1614612b46576040517f08c379a0000000000000000000000000000000000000000000000000000000008152600401612b3d90614795565b60405180910390fd5b612b5a81600661359b90919063ffffffff16565b7f23b2415a50efd127e694ba174e400d457ad65c58752e171b6d17f3f5daa26fdb81604051612b8991906140c2565b60405180910390a150565b6000612baa82600261364e90919063ffffffff16565b9050919050565b6060612bbd6001613705565b905090565b60096020528060005260406000206000915090508060000154908060010160009054906101000a900460ff1690806002015490806003015490806004015490806005015490806006018054612c16906145d4565b80601f0160208091040260200160405190810160405280929190818152602001828054612c42906145d4565b8015612c8f5780601f10612c6457610100808354040283529160200191612c8f565b820191906000526020600020905b815481529060010190602001808311612c7257829003601f168201915b5050505050908060070160009054906101000a900473ffffffffffffffffffffffffffffffffffffffff16908060080160009054906101000a900473ffffffffffffffffffffffffffffffffffffffff16908060090160009054906101000a900473ffffffffffffffffffffffffffffffffffffffff1690508a565b6060600a60008373ffffffffffffffffffffffffffffffffffffffff1673ffffffffffffffffffffffffffffffffffffffff168152602001908152602001600020805480602002602001604051908101604052809291908181526020016000905b82821015612fa057838290600052602060002090600a020160405180610140016040529081600082015481526020016001820160009054906101000a900460ff166004811115612dbf57612dbe61413f565b5b6004811115612dd157612dd061413f565b5b815260200160028201548152602001600382015481526020016004820154815260200160058201548152602001600682018054612e0d906145d4565b80601f0160208091040260200160405190810160405280929190818152602001828054612e39906145d4565b8015612e865780601f10612e5b57610100808354040283529160200191612e86565b820191906000526020600020905b815481529060010190602001808311612e6957829003601f168201915b505050505081526020016007820160009054906101000a900473ffffffffffffffffffffffffffffffffffffffff1673ffffffffffffffffffffffffffffffffffffffff1673ffffffffffffffffffffffffffffffffffffffff1681526020016008820160009054906101000a900473ffffffffffffffffffffffffffffffffffffffff1673ffffffffffffffffffffffffffffffffffffffff1673ffffffffffffffffffffffffffffffffffffffff1681526020016009820160009054906101000a900473ffffffffffffffffffffffffffffffffffffffff1673ffffffffffffffffffffffffffffffffffffffff1673ffffffffffffffffffffffffffffffffffffffff168152505081526020019060010190612d6c565b505050509050919050565b6060600b600083815260200190815260200160002080548060200260200160405190810160405280929190818152602001828054801561304057602002820191906000526020600020905b8160009054906101000a900473ffffffffffffffffffffffffffffffffffffffff1673ffffffffffffffffffffffffffffffffffffffff1681526020019060010190808311612ff6575b50505050509050919050565b6130553361275f565b61305e57600080fd5b600080600061306c84612fab565b905060005b815181101561323557600073ffffffffffffffffffffffffffffffffffffffff168282815181106130a5576130a46148bb565b5b602002602001015173ffffffffffffffffffffffffffffffffffffffff161415801561311657503373ffffffffffffffffffffffffffffffffffffffff168282815181106130f6576130f56148bb565b5b602002602001015173ffffffffffffffffffffffffffffffffffffffff16145b15613222576131248561333d565b8181518110613136576131356148bb565b5b6020026020010151935061314985611663565b818151811061315b5761315a6148bb565b5b60200260200101519250600b6000868152602001908152602001600020818154811061318a576131896148bb565b5b9060005260206000200160006101000a81549073ffffffffffffffffffffffffffffffffffffffff0219169055600c600086815260200190815260200160002081815481106131dc576131db6148bb565b5b9060005260206000200160009055600d6000868152602001908152602001600020818154811061320f5761320e6148bb565b5b9060005260206000200160009055613235565b808061322d90614a38565b915050613071565b507fb9f01075be5d71ca908e0aae338e241c77af5da8fbd7d476d37de1c8634dc0e28460405161326591906144f8565b60405180910390a150505050565b61327b613797565b73ffffffffffffffffffffffffffffffffffffffff166132996125a2565b73ffffffffffffffffffffffffffffffffffffffff16146132ef576040517f08c379a00000000000000000000000000000000000000000000000000000000081526004016132e690614795565b60405180910390fd5b61330381600261379f90919063ffffffff16565b7f9cfe362d8a536c3b63d391e311186b7f259fdd498eecf5d32626fe9b95058a7d8160405161333291906140c2565b60405180910390a150565b6060600c600083815260200190815260200160002080548060200260200160405190810160405280929190818152602001828054801561339c57602002820191906000526020600020905b815481526020019060010190808311613388575b50505050509050919050565b8073ffffffffffffffffffffffffffffffffffffffff163373ffffffffffffffffffffffffffffffffffffffff1614613416576040517f08c379a000000000000000000000000000000000000000000000000000000000815260040161340d90614801565b60405180910390fd5b61342a81600561379f90919063ffffffff16565b7f200c3f073f217cf07dee57ee6e42c29e5fa6937f536b65c9d1e06be1f9c83dc18160405161345991906140c2565b60405180910390a150565b60006134706008613a0d565b905090565b61347d613797565b73ffffffffffffffffffffffffffffffffffffffff1661349b6125a2565b73ffffffffffffffffffffffffffffffffffffffff16146134f1576040517f08c379a00000000000000000000000000000000000000000000000000000000081526004016134e890614795565b60405180910390fd5b600073ffffffffffffffffffffffffffffffffffffffff168173ffffffffffffffffffffffffffffffffffffffff161415613561576040517f08c379a000000000000000000000000000000000000000000000000000000000815260040161355890614b96565b60405180910390fd5b61356a81613949565b50565b60606135796005613705565b905090565b600061359482600161364e90919063ffffffff16565b9050919050565b6135a5828261364e565b156135e5576040517f08c379a00000000000000000000000000000000000000000000000000000000081526004016135dc90614c02565b60405180910390fd5b81600001819080600181540180825580915050600190039060005260206000200160009091909190916101000a81548173ffffffffffffffffffffffffffffffffffffffff021916908373ffffffffffffffffffffffffffffffffffffffff1602179055505050565b6000808360000180549050905060005b818110156136f8578373ffffffffffffffffffffffffffffffffffffffff16856000018281548110613693576136926148bb565b5b9060005260206000200160009054906101000a900473ffffffffffffffffffffffffffffffffffffffff1673ffffffffffffffffffffffffffffffffffffffff1614156136e5576001925050506136ff565b80806136f090614a38565b91505061365e565b5060009150505b92915050565b60608160000180548060200260200160405190810160405280929190818152602001828054801561378b57602002820191906000526020600020905b8160009054906101000a900473ffffffffffffffffffffffffffffffffffffffff1673ffffffffffffffffffffffffffffffffffffffff1681526020019060010190808311613741575b50505050509050919050565b600033905090565b600082600001805490509050600080600090505b828110156138f957811561386d578460000181815481106137d7576137d66148bb565b5b9060005260206000200160009054906101000a900473ffffffffffffffffffffffffffffffffffffffff16856000016001836138139190614850565b81548110613824576138236148bb565b5b9060005260206000200160006101000a81548173ffffffffffffffffffffffffffffffffffffffff021916908373ffffffffffffffffffffffffffffffffffffffff1602179055505b8373ffffffffffffffffffffffffffffffffffffffff1685600001828154811061389a576138996148bb565b5b9060005260206000200160009054906101000a900473ffffffffffffffffffffffffffffffffffffffff1673ffffffffffffffffffffffffffffffffffffffff1614156138e657600191505b80806138f190614a38565b9150506137b3565b508360000180548061390e5761390d614c22565b5b6001900381819060005260206000200160006101000a81549073ffffffffffffffffffffffffffffffffffffffff0219169055905550505050565b60008060009054906101000a900473ffffffffffffffffffffffffffffffffffffffff169050816000806101000a81548173ffffffffffffffffffffffffffffffffffffffff021916908373ffffffffffffffffffffffffffffffffffffffff1602179055508173ffffffffffffffffffffffffffffffffffffffff168173ffffffffffffffffffffffffffffffffffffffff167f8be0079c531659141344cd1fd0a4f28419497f9722a3daafe3b4186f6b6457e060405160405180910390a35050565b600081600001549050919050565b6001816000016000828254019250508190555050565b828054613a3d906145d4565b90600052602060002090601f016020900481019282613a5f5760008555613aa6565b82601f10613a7857805160ff1916838001178555613aa6565b82800160010185558215613aa6579182015b82811115613aa5578251825591602001919060010190613a8a565b5b509050613ab39190613ab7565b5090565b5b80821115613ad0576000816000905550600101613ab8565b5090565b6000604051905090565b600080fd5b600080fd5b600073ffffffffffffffffffffffffffffffffffffffff82169050919050565b6000613b1382613ae8565b9050919050565b613b2381613b08565b8114613b2e57600080fd5b50565b600081359050613b4081613b1a565b92915050565b600060208284031215613b5c57613b5b613ade565b5b6000613b6a84828501613b31565b91505092915050565b60008115159050919050565b613b8881613b73565b82525050565b6000602082019050613ba36000830184613b7f565b92915050565b6000819050919050565b613bbc81613ba9565b8114613bc757600080fd5b50565b600081359050613bd981613bb3565b92915050565b600060208284031215613bf557613bf4613ade565b5b6000613c0384828501613bca565b91505092915050565b600081519050919050565b600082825260208201905092915050565b6000819050602082019050919050565b613c4181613ba9565b82525050565b6000613c538383613c38565b60208301905092915050565b6000602082019050919050565b6000613c7782613c0c565b613c818185613c17565b9350613c8c83613c28565b8060005b83811015613cbd578151613ca48882613c47565b9750613caf83613c5f565b925050600181019050613c90565b5085935050505092915050565b60006020820190508181036000830152613ce48184613c6c565b905092915050565b600081519050919050565b600082825260208201905092915050565b6000819050602082019050919050565b613d2181613b08565b82525050565b6000613d338383613d18565b60208301905092915050565b6000602082019050919050565b6000613d5782613cec565b613d618185613cf7565b9350613d6c83613d08565b8060005b83811015613d9d578151613d848882613d27565b9750613d8f83613d3f565b925050600181019050613d70565b5085935050505092915050565b60006020820190508181036000830152613dc48184613d4c565b905092915050565b60008060408385031215613de357613de2613ade565b5b6000613df185828601613bca565b9250506020613e0285828601613b31565b9150509250929050565b600080fd5b6000601f19601f8301169050919050565b7f4e487b7100000000000000000000000000000000000000000000000000000000600052604160045260246000fd5b613e5a82613e11565b810181811067ffffffffffffffff82111715613e7957613e78613e22565b5b80604052505050565b6000613e8c613ad4565b9050613e988282613e51565b919050565b600067ffffffffffffffff821115613eb857613eb7613e22565b5b602082029050602081019050919050565b600080fd5b6000613ee1613edc84613e9d565b613e82565b90508083825260208201905060208402830185811115613f0457613f03613ec9565b5b835b81811015613f2d5780613f198882613b31565b845260208401935050602081019050613f06565b5050509392505050565b600082601f830112613f4c57613f4b613e0c565b5b8135613f5c848260208601613ece565b91505092915050565b600067ffffffffffffffff821115613f8057613f7f613e22565b5b602082029050602081019050919050565b6000613fa4613f9f84613f65565b613e82565b90508083825260208201905060208402830185811115613fc757613fc6613ec9565b5b835b81811015613ff05780613fdc8882613bca565b845260208401935050602081019050613fc9565b5050509392505050565b600082601f83011261400f5761400e613e0c565b5b813561401f848260208601613f91565b91505092915050565b60008060006060848603121561404157614040613ade565b5b600061404f86828701613bca565b935050602084013567ffffffffffffffff8111156140705761406f613ae3565b5b61407c86828701613f37565b925050604084013567ffffffffffffffff81111561409d5761409c613ae3565b5b6140a986828701613ffa565b9150509250925092565b6140bc81613b08565b82525050565b60006020820190506140d760008301846140b3565b92915050565b6000806000606084860312156140f6576140f5613ade565b5b600061410486828701613bca565b935050602061411586828701613bca565b925050604061412686828701613bca565b9150509250925092565b61413981613ba9565b82525050565b7f4e487b7100000000000000000000000000000000000000000000000000000000600052602160045260246000fd5b6005811061417f5761417e61413f565b5b50565b60008190506141908261416e565b919050565b60006141a082614182565b9050919050565b6141b081614195565b82525050565b600081519050919050565b600082825260208201905092915050565b60005b838110156141f05780820151818401526020810190506141d5565b838111156141ff576000848401525b50505050565b6000614210826141b6565b61421a81856141c1565b935061422a8185602086016141d2565b61423381613e11565b840191505092915050565b600061014082019050614254600083018d614130565b614261602083018c6141a7565b61426e604083018b614130565b61427b606083018a614130565b6142886080830189614130565b61429560a0830188614130565b81810360c08301526142a78187614205565b90506142b660e08301866140b3565b6142c46101008301856140b3565b6142d26101208301846140b3565b9b9a5050505050505050505050565b600081519050919050565b600082825260208201905092915050565b6000819050602082019050919050565b61431681614195565b82525050565b600082825260208201905092915050565b6000614338826141b6565b614342818561431c565b93506143528185602086016141d2565b61435b81613e11565b840191505092915050565b60006101408301600083015161437f6000860182613c38565b506020830151614392602086018261430d565b5060408301516143a56040860182613c38565b5060608301516143b86060860182613c38565b5060808301516143cb6080860182613c38565b5060a08301516143de60a0860182613c38565b5060c083015184820360c08601526143f6828261432d565b91505060e083015161440b60e0860182613d18565b50610100830151614420610100860182613d18565b50610120830151614435610120860182613d18565b508091505092915050565b600061444c8383614366565b905092915050565b6000602082019050919050565b600061446c826142e1565b61447681856142ec565b935083602082028501614488856142fd565b8060005b858110156144c457848403895281516144a58582614440565b94506144b083614454565b925060208a0199505060018101905061448c565b50829750879550505050505092915050565b600060208201905081810360008301526144f08184614461565b905092915050565b600060208201905061450d6000830184614130565b92915050565b7f4e4f5420412056414c49442057415245484f555345204144445245535320212060008201527f504c4541534520434f4e544143542041444d494e000000000000000000000000602082015250565b600061456f6034836141c1565b915061457a82614513565b604082019050919050565b6000602082019050818103600083015261459e81614562565b9050919050565b7f4e487b7100000000000000000000000000000000000000000000000000000000600052602260045260246000fd5b600060028204905060018216806145ec57607f821691505b60208210811415614600576145ff6145a5565b5b50919050565b6000819050919050565b6000819050919050565b600061463561463061462b84614606565b614610565b613ba9565b9050919050565b6146458161461a565b82525050565b600082825260208201905092915050565b7f3078303000000000000000000000000000000000000000000000000000000000600082015250565b600061469260048361464b565b915061469d8261465c565b602082019050919050565b6000819050919050565b60006146cd6146c86146c3846146a8565b614610565b613ba9565b9050919050565b6146dd816146b2565b82525050565b600060c0820190506146f860008301886140b3565b61470560208301876140b3565b6147126040830186614130565b61471f606083018561463c565b818103608083015261473081614685565b905061473f60a08301846146d4565b9695505050505050565b7f4f776e61626c653a2063616c6c6572206973206e6f7420746865206f776e6572600082015250565b600061477f6020836141c1565b915061478a82614749565b602082019050919050565b600060208201905081810360008301526147ae81614772565b9050919050565b7f594f555f43414e5f4e4f545f524f4d4f56455f544849535f4144445245535300600082015250565b60006147eb601f836141c1565b91506147f6826147b5565b602082019050919050565b6000602082019050818103600083015261481a816147de565b9050919050565b7f4e487b7100000000000000000000000000000000000000000000000000000000600052601160045260246000fd5b600061485b82613ba9565b915061486683613ba9565b92508282101561487957614878614821565b5b828203905092915050565b600060608201905061489960008301866140b3565b6148a66020830185614130565b6148b36040830184614130565b949350505050565b7f4e487b7100000000000000000000000000000000000000000000000000000000600052603260045260246000fd5b7f4e4f5420412056414c4944204449535452494255544f5220414444524553532060008201527f2120504c4541534520434f4e544143542041444d494e00000000000000000000602082015250565b60006149466036836141c1565b9150614951826148ea565b604082019050919050565b6000602082019050818103600083015261497581614939565b9050919050565b600060c08201905061499160008301886140b3565b61499e60208301876140b3565b6149ab6040830186614130565b6149b86060830185614130565b81810360808301526149c981614685565b90506149d860a0830184614130565b9695505050505050565b60006149ed82613ba9565b91506149f883613ba9565b9250827fffffffffffffffffffffffffffffffffffffffffffffffffffffffffffffffff03821115614a2d57614a2c614821565b5b828201905092915050565b6000614a4382613ba9565b91507fffffffffffffffffffffffffffffffffffffffffffffffffffffffffffffffff821415614a7657614a75614821565b5b600182019050919050565b7f4e6f74206120526177204d6174657269616c20537570706c6965720000000000600082015250565b6000614ab7601b836141c1565b9150614ac282614a81565b602082019050919050565b60006020820190508181036000830152614ae681614aaa565b9050919050565b6000606082019050614b0260008301866140b3565b614b0f6020830185614130565b614b1c604083018461463c565b949350505050565b7f4f776e61626c653a206e6577206f776e657220697320746865207a65726f206160008201527f6464726573730000000000000000000000000000000000000000000000000000602082015250565b6000614b806026836141c1565b9150614b8b82614b24565b604082019050919050565b60006020820190508181036000830152614baf81614b73565b9050919050565b7f524f4c455f414c52454144595f45584953545300000000000000000000000000600082015250565b6000614bec6013836141c1565b9150614bf782614bb6565b602082019050919050565b60006020820190508181036000830152614c1b81614bdf565b9050919050565b7f4e487b7100000000000000000000000000000000000000000000000000000000600052603160045260246000fdfea2646970667358221220791fabcc89e30bf2b6e7d9971b1c6894585ffbfde8b60a65be2625bc3ce7e30864736f6c63430008080033",
  "linkReferences": {},
  "deployedLinkReferences": {}
}