{
  "_format": "hh-sol-artifact-1",
  "contractName": "Supplychain",
  "sourceName": "contracts/Supplychain.sol",
  "abi": [
    {
      "inputs": [
        {
          "internalType": "address",
          "name": "_supplychainToken",
          "type": "address"
        }
      ],
      "stateMutability": "nonpayable",
      "type": "constructor"
    },
    {
      "anonymous": false,
      "inputs": [
        {
          "indexed": false,
          "internalType": "address",
          "name": "_address",
          "type": "address"
        }
      ],
      "name": "AddCustomer",
      "type": "event"
    },
    {
      "anonymous": false,
      "inputs": [
        {
          "indexed": false,
          "internalType": "address",
          "name": "_address",
          "type": "address"
        }
      ],
      "name": "AddDistributor",
      "type": "event"
    },
    {
      "anonymous": false,
      "inputs": [
        {
          "indexed": false,
          "internalType": "address",
          "name": "_address",
          "type": "address"
        }
      ],
      "name": "AddFactory",
      "type": "event"
    },
    {
      "anonymous": false,
      "inputs": [
        {
          "indexed": false,
          "internalType": "address",
          "name": "_address",
          "type": "address"
        }
      ],
      "name": "AddRawMaterialSupplier",
      "type": "event"
    },
    {
      "anonymous": false,
      "inputs": [
        {
          "indexed": false,
          "internalType": "address",
          "name": "_address",
          "type": "address"
        }
      ],
      "name": "AddRetailer",
      "type": "event"
    },
    {
      "anonymous": false,
      "inputs": [
        {
          "indexed": false,
          "internalType": "address",
          "name": "_address",
          "type": "address"
        }
      ],
      "name": "AddWarehouse",
      "type": "event"
    },
    {
      "anonymous": false,
      "inputs": [
        {
          "indexed": false,
          "internalType": "uint256",
          "name": "_supplyChainId",
          "type": "uint256"
        }
      ],
      "name": "DistributorSellToRetailer",
      "type": "event"
    },
    {
      "anonymous": false,
      "inputs": [
        {
          "indexed": false,
          "internalType": "uint256",
          "name": "_supplyChainId",
          "type": "uint256"
        }
      ],
      "name": "FactoryBuyRawMaterial",
      "type": "event"
    },
    {
      "anonymous": false,
      "inputs": [
        {
          "indexed": false,
          "internalType": "uint256",
          "name": "_supplyChainId",
          "type": "uint256"
        }
      ],
      "name": "FactorySellItemToDistributors",
      "type": "event"
    },
    {
      "anonymous": false,
      "inputs": [
        {
          "indexed": true,
          "internalType": "address",
          "name": "previousOwner",
          "type": "address"
        },
        {
          "indexed": true,
          "internalType": "address",
          "name": "newOwner",
          "type": "address"
        }
      ],
      "name": "OwnershipTransferred",
      "type": "event"
    },
    {
      "anonymous": false,
      "inputs": [
        {
          "indexed": false,
          "internalType": "uint256",
          "name": "_supplyChainId",
          "type": "uint256"
        }
      ],
      "name": "RawMaterialSupplierSuppliesRM",
      "type": "event"
    },
    {
      "anonymous": false,
      "inputs": [
        {
          "indexed": false,
          "internalType": "address",
          "name": "_address",
          "type": "address"
        }
      ],
      "name": "RemoveCustomer",
      "type": "event"
    },
    {
      "anonymous": false,
      "inputs": [
        {
          "indexed": false,
          "internalType": "address",
          "name": "_address",
          "type": "address"
        }
      ],
      "name": "RemoveDistributor",
      "type": "event"
    },
    {
      "anonymous": false,
      "inputs": [
        {
          "indexed": false,
          "internalType": "address",
          "name": "_address",
          "type": "address"
        }
      ],
      "name": "RemoveFactory",
      "type": "event"
    },
    {
      "anonymous": false,
      "inputs": [
        {
          "indexed": false,
          "internalType": "address",
          "name": "_address",
          "type": "address"
        }
      ],
      "name": "RemoveRawMaterialSupplier",
      "type": "event"
    },
    {
      "anonymous": false,
      "inputs": [
        {
          "indexed": false,
          "internalType": "address",
          "name": "_address",
          "type": "address"
        }
      ],
      "name": "RemoveRetailer",
      "type": "event"
    },
    {
      "anonymous": false,
      "inputs": [
        {
          "indexed": false,
          "internalType": "address",
          "name": "_address",
          "type": "address"
        }
      ],
      "name": "RemoveWarehouse",
      "type": "event"
    },
    {
      "anonymous": false,
      "inputs": [
        {
          "indexed": false,
          "internalType": "uint256",
          "name": "_supplyChainId",
          "type": "uint256"
        }
      ],
      "name": "RetailerSellToCustomer",
      "type": "event"
    },
    {
      "inputs": [
        {
          "internalType": "address",
          "name": "_address",
          "type": "address"
        }
      ],
      "name": "addCustomer",
      "outputs": [],
      "stateMutability": "nonpayable",
      "type": "function"
    },
    {
      "inputs": [
        {
          "internalType": "address",
          "name": "_address",
          "type": "address"
        }
      ],
      "name": "addDistributor",
      "outputs": [],
      "stateMutability": "nonpayable",
      "type": "function"
    },
    {
      "inputs": [
        {
          "internalType": "address",
          "name": "_address",
          "type": "address"
        }
      ],
      "name": "addFactory",
      "outputs": [],
      "stateMutability": "nonpayable",
      "type": "function"
    },
    {
      "inputs": [
        {
          "internalType": "address",
          "name": "_address",
          "type": "address"
        }
      ],
      "name": "addRawMaterialSupplier",
      "outputs": [],
      "stateMutability": "nonpayable",
      "type": "function"
    },
    {
      "inputs": [
        {
          "internalType": "address",
          "name": "_address",
          "type": "address"
        }
      ],
      "name": "addRetailer",
      "outputs": [],
      "stateMutability": "nonpayable",
      "type": "function"
    },
    {
      "inputs": [
        {
          "internalType": "address",
          "name": "_address",
          "type": "address"
        }
      ],
      "name": "addWarehouse",
      "outputs": [],
      "stateMutability": "nonpayable",
      "type": "function"
    },
    {
      "inputs": [
        {
          "internalType": "uint256",
          "name": "_supplyChainId",
          "type": "uint256"
        },
        {
          "internalType": "address",
          "name": "_warehouse",
          "type": "address"
        }
      ],
      "name": "factoryBuyRawMaterial",
      "outputs": [],
      "stateMutability": "nonpayable",
      "type": "function"
    },
    {
      "inputs": [
        {
          "internalType": "uint256",
          "name": "_supplyChainId",
          "type": "uint256"
        },
        {
          "internalType": "uint256",
          "name": "_units",
          "type": "uint256"
        },
        {
          "internalType": "address[]",
          "name": "distributors",
          "type": "address[]"
        },
        {
          "internalType": "uint256[]",
          "name": "quantity",
          "type": "uint256[]"
        }
      ],
      "name": "factorySellItemToDistributors",
      "outputs": [],
      "stateMutability": "nonpayable",
      "type": "function"
    },
    {
      "inputs": [],
      "name": "getCustomer",
      "outputs": [
        {
          "internalType": "address[]",
          "name": "",
          "type": "address[]"
        }
      ],
      "stateMutability": "view",
      "type": "function"
    },
    {
      "inputs": [],
      "name": "getDistributor",
      "outputs": [
        {
          "internalType": "address[]",
          "name": "",
          "type": "address[]"
        }
      ],
      "stateMutability": "view",
      "type": "function"
    },
    {
      "inputs": [],
      "name": "getFactory",
      "outputs": [
        {
          "internalType": "address[]",
          "name": "",
          "type": "address[]"
        }
      ],
      "stateMutability": "view",
      "type": "function"
    },
    {
      "inputs": [],
      "name": "getRawMaterialSupplier",
      "outputs": [
        {
          "internalType": "address[]",
          "name": "",
          "type": "address[]"
        }
      ],
      "stateMutability": "view",
      "type": "function"
    },
    {
      "inputs": [],
      "name": "getRetailer",
      "outputs": [
        {
          "internalType": "address[]",
          "name": "",
          "type": "address[]"
        }
      ],
      "stateMutability": "view",
      "type": "function"
    },
    {
      "inputs": [],
      "name": "getWarehouse",
      "outputs": [
        {
          "internalType": "address[]",
          "name": "",
          "type": "address[]"
        }
      ],
      "stateMutability": "view",
      "type": "function"
    },
    {
      "inputs": [
        {
          "internalType": "address",
          "name": "_address",
          "type": "address"
        }
      ],
      "name": "isCustomer",
      "outputs": [
        {
          "internalType": "bool",
          "name": "",
          "type": "bool"
        }
      ],
      "stateMutability": "view",
      "type": "function"
    },
    {
      "inputs": [
        {
          "internalType": "address",
          "name": "_address",
          "type": "address"
        }
      ],
      "name": "isDistributor",
      "outputs": [
        {
          "internalType": "bool",
          "name": "",
          "type": "bool"
        }
      ],
      "stateMutability": "view",
      "type": "function"
    },
    {
      "inputs": [
        {
          "internalType": "address",
          "name": "_address",
          "type": "address"
        }
      ],
      "name": "isFactory",
      "outputs": [
        {
          "internalType": "bool",
          "name": "",
          "type": "bool"
        }
      ],
      "stateMutability": "view",
      "type": "function"
    },
    {
      "inputs": [
        {
          "internalType": "address",
          "name": "_address",
          "type": "address"
        }
      ],
      "name": "isRawMaterialSupplier",
      "outputs": [
        {
          "internalType": "bool",
          "name": "",
          "type": "bool"
        }
      ],
      "stateMutability": "view",
      "type": "function"
    },
    {
      "inputs": [
        {
          "internalType": "address",
          "name": "_address",
          "type": "address"
        }
      ],
      "name": "isRetailer",
      "outputs": [
        {
          "internalType": "bool",
          "name": "",
          "type": "bool"
        }
      ],
      "stateMutability": "view",
      "type": "function"
    },
    {
      "inputs": [
        {
          "internalType": "address",
          "name": "_address",
          "type": "address"
        }
      ],
      "name": "isWarehouse",
      "outputs": [
        {
          "internalType": "bool",
          "name": "",
          "type": "bool"
        }
      ],
      "stateMutability": "view",
      "type": "function"
    },
    {
      "inputs": [
        {
          "internalType": "uint256",
          "name": "",
          "type": "uint256"
        }
      ],
      "name": "items",
      "outputs": [
        {
          "internalType": "uint256",
          "name": "supplyChainId",
          "type": "uint256"
        },
        {
          "internalType": "enum Supplychain.State",
          "name": "itemState",
          "type": "uint8"
        },
        {
          "internalType": "uint256",
          "name": "PolyesterAmount",
          "type": "uint256"
        },
        {
          "internalType": "uint256",
          "name": "CottonAmount",
          "type": "uint256"
        },
        {
          "internalType": "uint256",
          "name": "WoolAmount",
          "type": "uint256"
        },
        {
          "internalType": "uint256",
          "name": "totalUnits",
          "type": "uint256"
        },
        {
          "internalType": "address",
          "name": "RawMaterialSupplierID",
          "type": "address"
        },
        {
          "internalType": "address",
          "name": "warehouseID",
          "type": "address"
        },
        {
          "internalType": "address",
          "name": "factoryID",
          "type": "address"
        }
      ],
      "stateMutability": "view",
      "type": "function"
    },
    {
      "inputs": [],
      "name": "owner",
      "outputs": [
        {
          "internalType": "address",
          "name": "",
          "type": "address"
        }
      ],
      "stateMutability": "view",
      "type": "function"
    },
    {
      "inputs": [
        {
          "internalType": "uint256",
          "name": "_polyesterAmount",
          "type": "uint256"
        },
        {
          "internalType": "uint256",
          "name": "_cottonAmount",
          "type": "uint256"
        },
        {
          "internalType": "uint256",
          "name": "_woolAmount",
          "type": "uint256"
        }
      ],
      "name": "rawMaterialSupplierSuppliesRM",
      "outputs": [],
      "stateMutability": "nonpayable",
      "type": "function"
    },
    {
      "inputs": [
        {
          "internalType": "address",
          "name": "_address",
          "type": "address"
        }
      ],
      "name": "removeCustomer",
      "outputs": [],
      "stateMutability": "nonpayable",
      "type": "function"
    },
    {
      "inputs": [
        {
          "internalType": "address",
          "name": "_address",
          "type": "address"
        }
      ],
      "name": "removeCustomerSelf",
      "outputs": [],
      "stateMutability": "nonpayable",
      "type": "function"
    },
    {
      "inputs": [
        {
          "internalType": "address",
          "name": "_address",
          "type": "address"
        }
      ],
      "name": "removeDistributor",
      "outputs": [],
      "stateMutability": "nonpayable",
      "type": "function"
    },
    {
      "inputs": [
        {
          "internalType": "address",
          "name": "_address",
          "type": "address"
        }
      ],
      "name": "removeDistributorSelf",
      "outputs": [],
      "stateMutability": "nonpayable",
      "type": "function"
    },
    {
      "inputs": [
        {
          "internalType": "address",
          "name": "_address",
          "type": "address"
        }
      ],
      "name": "removeFactory",
      "outputs": [],
      "stateMutability": "nonpayable",
      "type": "function"
    },
    {
      "inputs": [
        {
          "internalType": "address",
          "name": "_address",
          "type": "address"
        }
      ],
      "name": "removeFactorySelf",
      "outputs": [],
      "stateMutability": "nonpayable",
      "type": "function"
    },
    {
      "inputs": [
        {
          "internalType": "address",
          "name": "_address",
          "type": "address"
        }
      ],
      "name": "removeRawMaterialSupplier",
      "outputs": [],
      "stateMutability": "nonpayable",
      "type": "function"
    },
    {
      "inputs": [
        {
          "internalType": "address",
          "name": "_address",
          "type": "address"
        }
      ],
      "name": "removeRawMaterialSupplierSelf",
      "outputs": [],
      "stateMutability": "nonpayable",
      "type": "function"
    },
    {
      "inputs": [
        {
          "internalType": "address",
          "name": "_address",
          "type": "address"
        }
      ],
      "name": "removeRetailer",
      "outputs": [],
      "stateMutability": "nonpayable",
      "type": "function"
    },
    {
      "inputs": [
        {
          "internalType": "address",
          "name": "_address",
          "type": "address"
        }
      ],
      "name": "removeRetailerSelf",
      "outputs": [],
      "stateMutability": "nonpayable",
      "type": "function"
    },
    {
      "inputs": [
        {
          "internalType": "address",
          "name": "_address",
          "type": "address"
        }
      ],
      "name": "removeSelfWarehouse",
      "outputs": [],
      "stateMutability": "nonpayable",
      "type": "function"
    },
    {
      "inputs": [
        {
          "internalType": "address",
          "name": "_address",
          "type": "address"
        }
      ],
      "name": "removeWarehouse",
      "outputs": [],
      "stateMutability": "nonpayable",
      "type": "function"
    },
    {
      "inputs": [],
      "name": "renounceOwnership",
      "outputs": [],
      "stateMutability": "nonpayable",
      "type": "function"
    },
    {
      "inputs": [
        {
          "internalType": "address",
          "name": "newOwner",
          "type": "address"
        }
      ],
      "name": "transferOwnership",
      "outputs": [],
      "stateMutability": "nonpayable",
      "type": "function"
    },
    {
      "inputs": [
        {
          "internalType": "address",
          "name": "",
          "type": "address"
        },
        {
          "internalType": "uint256",
          "name": "",
          "type": "uint256"
        }
      ],
      "name": "wareHouseItems",
      "outputs": [
        {
          "internalType": "uint256",
          "name": "supplyChainId",
          "type": "uint256"
        },
        {
          "internalType": "enum Supplychain.State",
          "name": "itemState",
          "type": "uint8"
        },
        {
          "internalType": "uint256",
          "name": "PolyesterAmount",
          "type": "uint256"
        },
        {
          "internalType": "uint256",
          "name": "CottonAmount",
          "type": "uint256"
        },
        {
          "internalType": "uint256",
          "name": "WoolAmount",
          "type": "uint256"
        },
        {
          "internalType": "uint256",
          "name": "totalUnits",
          "type": "uint256"
        },
        {
          "internalType": "address",
          "name": "RawMaterialSupplierID",
          "type": "address"
        },
        {
          "internalType": "address",
          "name": "warehouseID",
          "type": "address"
        },
        {
          "internalType": "address",
          "name": "factoryID",
          "type": "address"
        }
      ],
      "stateMutability": "view",
      "type": "function"
    }
  ],
  "bytecode": "0x60806040523480156200001157600080fd5b5060405162004a7238038062004a72833981810160405281019062000037919062000946565b620000576200004b6200010560201b60201c565b6200010d60201b60201c565b6200006833620001d160201b60201c565b6200007933620002b760201b60201c565b6200008a336200039d60201b60201c565b6200009b336200048360201b60201c565b620000ac336200056960201b60201c565b620000bd336200064f60201b60201c565b80600760006101000a81548173ffffffffffffffffffffffffffffffffffffffff021916908373ffffffffffffffffffffffffffffffffffffffff1602179055505062000b51565b600033905090565b60008060009054906101000a900473ffffffffffffffffffffffffffffffffffffffff169050816000806101000a81548173ffffffffffffffffffffffffffffffffffffffff021916908373ffffffffffffffffffffffffffffffffffffffff1602179055508173ffffffffffffffffffffffffffffffffffffffff168173ffffffffffffffffffffffffffffffffffffffff167f8be0079c531659141344cd1fd0a4f28419497f9722a3daafe3b4186f6b6457e060405160405180910390a35050565b620001e16200010560201b60201c565b73ffffffffffffffffffffffffffffffffffffffff16620002076200073560201b60201c565b73ffffffffffffffffffffffffffffffffffffffff161462000260576040517f08c379a00000000000000000000000000000000000000000000000000000000081526004016200025790620009d9565b60405180910390fd5b6200027b8160016200075e60201b62002c121790919060201c565b7fa3da795b47eb190084f878e63c07509e5f6df63ebc51443c0ccab2fc11c0d88381604051620002ac919062000a0c565b60405180910390a150565b620002c76200010560201b60201c565b73ffffffffffffffffffffffffffffffffffffffff16620002ed6200073560201b60201c565b73ffffffffffffffffffffffffffffffffffffffff161462000346576040517f08c379a00000000000000000000000000000000000000000000000000000000081526004016200033d90620009d9565b60405180910390fd5b620003618160026200075e60201b62002c121790919060201c565b7f364ee90eb63717b99192fdb951c7b1aa91a45bca11ac73ab40cfad762631fbce8160405162000392919062000a0c565b60405180910390a150565b620003ad6200010560201b60201c565b73ffffffffffffffffffffffffffffffffffffffff16620003d36200073560201b60201c565b73ffffffffffffffffffffffffffffffffffffffff16146200042c576040517f08c379a00000000000000000000000000000000000000000000000000000000081526004016200042390620009d9565b60405180910390fd5b620004478160036200075e60201b62002c121790919060201c565b7f5a8fb443d09cf1426e80f80dd509757d71d4687674ab4adad906c5e2b6e1e62c8160405162000478919062000a0c565b60405180910390a150565b620004936200010560201b60201c565b73ffffffffffffffffffffffffffffffffffffffff16620004b96200073560201b60201c565b73ffffffffffffffffffffffffffffffffffffffff161462000512576040517f08c379a00000000000000000000000000000000000000000000000000000000081526004016200050990620009d9565b60405180910390fd5b6200052d8160046200075e60201b62002c121790919060201c565b7f3afd547f7eb357741de51229846ae795cb06449e4b4032eb34a7cc0a751e25c1816040516200055e919062000a0c565b60405180910390a150565b620005796200010560201b60201c565b73ffffffffffffffffffffffffffffffffffffffff166200059f6200073560201b60201c565b73ffffffffffffffffffffffffffffffffffffffff1614620005f8576040517f08c379a0000000000000000000000000000000000000000000000000000000008152600401620005ef90620009d9565b60405180910390fd5b620006138160056200075e60201b62002c121790919060201c565b7f0eea60f9e1851b51feed56c339be177ea715591923622a0effe46dbb8885efa68160405162000644919062000a0c565b60405180910390a150565b6200065f6200010560201b60201c565b73ffffffffffffffffffffffffffffffffffffffff16620006856200073560201b60201c565b73ffffffffffffffffffffffffffffffffffffffff1614620006de576040517f08c379a0000000000000000000000000000000000000000000000000000000008152600401620006d590620009d9565b60405180910390fd5b620006f98160066200075e60201b62002c121790919060201c565b7f23b2415a50efd127e694ba174e400d457ad65c58752e171b6d17f3f5daa26fdb816040516200072a919062000a0c565b60405180910390a150565b60008060009054906101000a900473ffffffffffffffffffffffffffffffffffffffff16905090565b6200077082826200081c60201b60201c565b15620007b3576040517f08c379a0000000000000000000000000000000000000000000000000000000008152600401620007aa9062000a79565b60405180910390fd5b81600001819080600181540180825580915050600190039060005260206000200160009091909190916101000a81548173ffffffffffffffffffffffffffffffffffffffff021916908373ffffffffffffffffffffffffffffffffffffffff1602179055505050565b6000808360000180549050905060005b81811015620008cf578373ffffffffffffffffffffffffffffffffffffffff1685600001828154811062000865576200086462000a9b565b5b9060005260206000200160009054906101000a900473ffffffffffffffffffffffffffffffffffffffff1673ffffffffffffffffffffffffffffffffffffffff161415620008b957600192505050620008d6565b8080620008c69062000b03565b9150506200082c565b5060009150505b92915050565b600080fd5b600073ffffffffffffffffffffffffffffffffffffffff82169050919050565b60006200090e82620008e1565b9050919050565b620009208162000901565b81146200092c57600080fd5b50565b600081519050620009408162000915565b92915050565b6000602082840312156200095f576200095e620008dc565b5b60006200096f848285016200092f565b91505092915050565b600082825260208201905092915050565b7f4f776e61626c653a2063616c6c6572206973206e6f7420746865206f776e6572600082015250565b6000620009c160208362000978565b9150620009ce8262000989565b602082019050919050565b60006020820190508181036000830152620009f481620009b2565b9050919050565b62000a068162000901565b82525050565b600060208201905062000a236000830184620009fb565b92915050565b7f524f4c455f414c52454144595f45584953545300000000000000000000000000600082015250565b600062000a6160138362000978565b915062000a6e8262000a29565b602082019050919050565b6000602082019050818103600083015262000a948162000a52565b9050919050565b7f4e487b7100000000000000000000000000000000000000000000000000000000600052603260045260246000fd5b7f4e487b7100000000000000000000000000000000000000000000000000000000600052601160045260246000fd5b6000819050919050565b600062000b108262000af9565b91507fffffffffffffffffffffffffffffffffffffffffffffffffffffffffffffffff82141562000b465762000b4562000aca565b5b600182019050919050565b613f118062000b616000396000f3fe608060405234801561001057600080fd5b50600436106102325760003560e01c8063814f696e11610130578063ad973d74116100b8578063e3c1a5311161007c578063e3c1a53114610669578063e7d0831d14610685578063f2fde38b146106a1578063f80d1ff0146106bd578063faf31e08146106db57610232565b8063ad973d74146105ab578063bca4bd50146105c7578063bdacda31146105f7578063be33c51614610615578063bfb231d21461063157610232565b80638da5cb5b116100ff5780638da5cb5b146105095780638eb06ccf146105275780638ec4f505146105435780638f0c86fa1461055f578063a198d4961461058f57610232565b8063814f696e1461049757806384480510146104b35780638853ad75146104cf57806388cc58e4146104eb57610232565b80635166b5c8116101be578063650d993b11610182578063650d993b1461041b57806370099ec814610439578063715018a6146104555780637250e2241461045f57806380bedacf1461047b57610232565b80635166b5c81461037957806357c1f9e2146103955780635884965f146103b15780635bf27912146103cf5780635da09b88146103eb57610232565b806329ce1ec51161020557806329ce1ec5146102d15780632a7ec29f146102ed5780633c0e25a41461030957806346bb01fc146103255780634b37c73f1461035d57610232565b80630f04ba67146102375780632100c7c8146102675780632885b9431461028357806328fd5e83146102a1575b600080fd5b610251600480360381019061024c919061320e565b61070b565b60405161025e9190613256565b60405180910390f35b610281600480360381019061027c91906132a7565b610728565b005b61028b610ee0565b60405161029891906133a5565b60405180910390f35b6102bb60048036038101906102b6919061320e565b610ef1565b6040516102c89190613256565b60405180910390f35b6102eb60048036038101906102e6919061320e565b610f0e565b005b6103076004803603810190610302919061320e565b610fd8565b005b610323600480360381019061031e919061320e565b611094565b005b61033f600480360381019061033a91906133c7565b61115e565b6040516103549998979695949392919061349c565b60405180910390f35b6103776004803603810190610372919061320e565b611236565b005b610393600480360381019061038e919061320e565b611300565b005b6103af60048036038101906103aa919061320e565b6113ca565b005b6103b9611494565b6040516103c691906133a5565b60405180910390f35b6103e960048036038101906103e4919061320e565b6114a5565b005b6104056004803603810190610400919061320e565b611561565b6040516104129190613256565b60405180910390f35b61042361157e565b60405161043091906133a5565b60405180910390f35b610453600480360381019061044e919061320e565b61158f565b005b61045d611659565b005b6104796004803603810190610474919061320e565b6116e1565b005b6104956004803603810190610490919061320e565b6117ab565b005b6104b160048036038101906104ac919061320e565b611867565b005b6104cd60048036038101906104c8919061320e565b611931565b005b6104e960048036038101906104e4919061320e565b6119ed565b005b6104f3611aa9565b60405161050091906133a5565b60405180910390f35b610511611aba565b60405161051e9190613529565b60405180910390f35b610541600480360381019061053c919061320e565b611ae3565b005b61055d6004803603810190610558919061320e565b611bad565b005b6105796004803603810190610574919061320e565b611c77565b6040516105869190613256565b60405180910390f35b6105a960048036038101906105a49190613544565b611c94565b005b6105c560048036038101906105c0919061320e565b612095565b005b6105e160048036038101906105dc919061320e565b61215f565b6040516105ee9190613256565b60405180910390f35b6105ff61217c565b60405161060c91906133a5565b60405180910390f35b61062f600480360381019061062a91906137b3565b61218d565b005b61064b60048036038101906106469190613852565b6128ab565b6040516106609998979695949392919061349c565b60405180910390f35b610683600480360381019061067e919061320e565b612966565b005b61069f600480360381019061069a919061320e565b612a30565b005b6106bb60048036038101906106b6919061320e565b612aec565b005b6106c5612be4565b6040516106d291906133a5565b60405180910390f35b6106f560048036038101906106f0919061320e565b612bf5565b6040516107029190613256565b60405180910390f35b6000610721826003612cc590919063ffffffff16565b9050919050565b6107313361070b565b61073a57600080fd5b6107438161215f565b610782576040517f08c379a000000000000000000000000000000000000000000000000000000000815260040161077990613902565b60405180910390fd5b60006009600084815260200190815260200160002060405180610160016040529081600082015481526020016001820160009054906101000a900460ff1660048111156107d2576107d1613416565b5b60048111156107e4576107e3613416565b5b8152602001600282015481526020016003820154815260200160048201548152602001600582015481526020016006820160009054906101000a900473ffffffffffffffffffffffffffffffffffffffff1673ffffffffffffffffffffffffffffffffffffffff1673ffffffffffffffffffffffffffffffffffffffff1681526020016007820160009054906101000a900473ffffffffffffffffffffffffffffffffffffffff1673ffffffffffffffffffffffffffffffffffffffff1673ffffffffffffffffffffffffffffffffffffffff1681526020016008820160009054906101000a900473ffffffffffffffffffffffffffffffffffffffff1673ffffffffffffffffffffffffffffffffffffffff1673ffffffffffffffffffffffffffffffffffffffff1681526020016009820180548060200260200160405190810160405280929190818152602001828054801561099757602002820191906000526020600020905b8160009054906101000a900473ffffffffffffffffffffffffffffffffffffffff1673ffffffffffffffffffffffffffffffffffffffff168152602001906001019080831161094d575b50505050508152602001600a82018054806020026020016040519081016040528092919081815260200182805480156109ef57602002820191906000526020600020905b8154815260200190600101908083116109db575b505050505081525050905060008160c0015190503382610100019073ffffffffffffffffffffffffffffffffffffffff16908173ffffffffffffffffffffffffffffffffffffffff1681525050828260e0019073ffffffffffffffffffffffffffffffffffffffff16908173ffffffffffffffffffffffffffffffffffffffff1681525050600182602001906004811115610a8d57610a8c613416565b5b90816004811115610aa157610aa0613416565b5b8152505081600960008681526020019081526020016000206000820151816000015560208201518160010160006101000a81548160ff02191690836004811115610aee57610aed613416565b5b021790555060408201518160020155606082015181600301556080820151816004015560a0820151816005015560c08201518160060160006101000a81548173ffffffffffffffffffffffffffffffffffffffff021916908373ffffffffffffffffffffffffffffffffffffffff16021790555060e08201518160070160006101000a81548173ffffffffffffffffffffffffffffffffffffffff021916908373ffffffffffffffffffffffffffffffffffffffff1602179055506101008201518160080160006101000a81548173ffffffffffffffffffffffffffffffffffffffff021916908373ffffffffffffffffffffffffffffffffffffffff160217905550610120820151816009019080519060200190610c0e9291906130a8565b5061014082015181600a019080519060200190610c2c929190613132565b50905050600a60008473ffffffffffffffffffffffffffffffffffffffff1673ffffffffffffffffffffffffffffffffffffffff1681526020019081526020016000208290806001815401808255809150506001900390600052602060002090600b02016000909190919091506000820151816000015560208201518160010160006101000a81548160ff02191690836004811115610cce57610ccd613416565b5b021790555060408201518160020155606082015181600301556080820151816004015560a0820151816005015560c08201518160060160006101000a81548173ffffffffffffffffffffffffffffffffffffffff021916908373ffffffffffffffffffffffffffffffffffffffff16021790555060e08201518160070160006101000a81548173ffffffffffffffffffffffffffffffffffffffff021916908373ffffffffffffffffffffffffffffffffffffffff1602179055506101008201518160080160006101000a81548173ffffffffffffffffffffffffffffffffffffffff021916908373ffffffffffffffffffffffffffffffffffffffff160217905550610120820151816009019080519060200190610dee9291906130a8565b5061014082015181600a019080519060200190610e0c929190613132565b505050600760009054906101000a900473ffffffffffffffffffffffffffffffffffffffff1673ffffffffffffffffffffffffffffffffffffffff1663f242432a82338760016040518563ffffffff1660e01b8152600401610e7194939291906139c4565b600060405180830381600087803b158015610e8b57600080fd5b505af1158015610e9f573d6000803e3d6000fd5b505050507f84fad793fc72a4890032a0a48ea25fb57401690403f128ee2aaf047af876291c84604051610ed29190613a1c565b60405180910390a150505050565b6060610eec6002612d7c565b905090565b6000610f07826006612cc590919063ffffffff16565b9050919050565b610f16612e0e565b73ffffffffffffffffffffffffffffffffffffffff16610f34611aba565b73ffffffffffffffffffffffffffffffffffffffff1614610f8a576040517f08c379a0000000000000000000000000000000000000000000000000000000008152600401610f8190613a83565b60405180910390fd5b610f9e816003612c1290919063ffffffff16565b7f5a8fb443d09cf1426e80f80dd509757d71d4687674ab4adad906c5e2b6e1e62c81604051610fcd9190613529565b60405180910390a150565b8073ffffffffffffffffffffffffffffffffffffffff163373ffffffffffffffffffffffffffffffffffffffff1614611046576040517f08c379a000000000000000000000000000000000000000000000000000000000815260040161103d90613aef565b60405180910390fd5b61105a816006612e1690919063ffffffff16565b7f4709990004724f283154297c090b8420d74dcbf9ffcd6bc50294e7350c7cb4fc816040516110899190613529565b60405180910390a150565b61109c612e0e565b73ffffffffffffffffffffffffffffffffffffffff166110ba611aba565b73ffffffffffffffffffffffffffffffffffffffff1614611110576040517f08c379a000000000000000000000000000000000000000000000000000000000815260040161110790613a83565b60405180910390fd5b611124816001612c1290919063ffffffff16565b7fa3da795b47eb190084f878e63c07509e5f6df63ebc51443c0ccab2fc11c0d883816040516111539190613529565b60405180910390a150565b600a602052816000526040600020818154811061117a57600080fd5b90600052602060002090600b0201600091509150508060000154908060010160009054906101000a900460ff16908060020154908060030154908060040154908060050154908060060160009054906101000a900473ffffffffffffffffffffffffffffffffffffffff16908060070160009054906101000a900473ffffffffffffffffffffffffffffffffffffffff16908060080160009054906101000a900473ffffffffffffffffffffffffffffffffffffffff16905089565b61123e612e0e565b73ffffffffffffffffffffffffffffffffffffffff1661125c611aba565b73ffffffffffffffffffffffffffffffffffffffff16146112b2576040517f08c379a00000000000000000000000000000000000000000000000000000000081526004016112a990613a83565b60405180910390fd5b6112c6816003612e1690919063ffffffff16565b7f3d4e7057f9f992c8d86344002642adf5d5cd33816b302134e7ef5e0f045a6e78816040516112f59190613529565b60405180910390a150565b611308612e0e565b73ffffffffffffffffffffffffffffffffffffffff16611326611aba565b73ffffffffffffffffffffffffffffffffffffffff161461137c576040517f08c379a000000000000000000000000000000000000000000000000000000000815260040161137390613a83565b60405180910390fd5b611390816001612e1690919063ffffffff16565b7fccc03dfae55d568292686488ccd27bcdc249a89347bf1c13a2115a29062618b7816040516113bf9190613529565b60405180910390a150565b6113d2612e0e565b73ffffffffffffffffffffffffffffffffffffffff166113f0611aba565b73ffffffffffffffffffffffffffffffffffffffff1614611446576040517f08c379a000000000000000000000000000000000000000000000000000000000815260040161143d90613a83565b60405180910390fd5b61145a816004612e1690919063ffffffff16565b7f43dd2f8ce4e5873e618ffabcae9856729ea5811dbc5e1c9be4365fcf7b7cf703816040516114899190613529565b60405180910390a150565b60606114a06004612d7c565b905090565b8073ffffffffffffffffffffffffffffffffffffffff163373ffffffffffffffffffffffffffffffffffffffff1614611513576040517f08c379a000000000000000000000000000000000000000000000000000000000815260040161150a90613aef565b60405180910390fd5b611527816004612e1690919063ffffffff16565b7f43dd2f8ce4e5873e618ffabcae9856729ea5811dbc5e1c9be4365fcf7b7cf703816040516115569190613529565b60405180910390a150565b6000611577826005612cc590919063ffffffff16565b9050919050565b606061158a6006612d7c565b905090565b611597612e0e565b73ffffffffffffffffffffffffffffffffffffffff166115b5611aba565b73ffffffffffffffffffffffffffffffffffffffff161461160b576040517f08c379a000000000000000000000000000000000000000000000000000000000815260040161160290613a83565b60405180910390fd5b61161f816005612e1690919063ffffffff16565b7f200c3f073f217cf07dee57ee6e42c29e5fa6937f536b65c9d1e06be1f9c83dc18160405161164e9190613529565b60405180910390a150565b611661612e0e565b73ffffffffffffffffffffffffffffffffffffffff1661167f611aba565b73ffffffffffffffffffffffffffffffffffffffff16146116d5576040517f08c379a00000000000000000000000000000000000000000000000000000000081526004016116cc90613a83565b60405180910390fd5b6116df6000612fc0565b565b6116e9612e0e565b73ffffffffffffffffffffffffffffffffffffffff16611707611aba565b73ffffffffffffffffffffffffffffffffffffffff161461175d576040517f08c379a000000000000000000000000000000000000000000000000000000000815260040161175490613a83565b60405180910390fd5b611771816004612c1290919063ffffffff16565b7f3afd547f7eb357741de51229846ae795cb06449e4b4032eb34a7cc0a751e25c1816040516117a09190613529565b60405180910390a150565b8073ffffffffffffffffffffffffffffffffffffffff163373ffffffffffffffffffffffffffffffffffffffff1614611819576040517f08c379a000000000000000000000000000000000000000000000000000000000815260040161181090613aef565b60405180910390fd5b61182d816001612e1690919063ffffffff16565b7fccc03dfae55d568292686488ccd27bcdc249a89347bf1c13a2115a29062618b78160405161185c9190613529565b60405180910390a150565b61186f612e0e565b73ffffffffffffffffffffffffffffffffffffffff1661188d611aba565b73ffffffffffffffffffffffffffffffffffffffff16146118e3576040517f08c379a00000000000000000000000000000000000000000000000000000000081526004016118da90613a83565b60405180910390fd5b6118f7816002612c1290919063ffffffff16565b7f364ee90eb63717b99192fdb951c7b1aa91a45bca11ac73ab40cfad762631fbce816040516119269190613529565b60405180910390a150565b8073ffffffffffffffffffffffffffffffffffffffff163373ffffffffffffffffffffffffffffffffffffffff161461199f576040517f08c379a000000000000000000000000000000000000000000000000000000000815260040161199690613aef565b60405180910390fd5b6119b3816003612e1690919063ffffffff16565b7f3d4e7057f9f992c8d86344002642adf5d5cd33816b302134e7ef5e0f045a6e78816040516119e29190613529565b60405180910390a150565b8073ffffffffffffffffffffffffffffffffffffffff163373ffffffffffffffffffffffffffffffffffffffff1614611a5b576040517f08c379a0000000000000000000000000000000000000000000000000000000008152600401611a5290613aef565b60405180910390fd5b611a6f816002612e1690919063ffffffff16565b7f9cfe362d8a536c3b63d391e311186b7f259fdd498eecf5d32626fe9b95058a7d81604051611a9e9190613529565b60405180910390a150565b6060611ab56003612d7c565b905090565b60008060009054906101000a900473ffffffffffffffffffffffffffffffffffffffff16905090565b611aeb612e0e565b73ffffffffffffffffffffffffffffffffffffffff16611b09611aba565b73ffffffffffffffffffffffffffffffffffffffff1614611b5f576040517f08c379a0000000000000000000000000000000000000000000000000000000008152600401611b5690613a83565b60405180910390fd5b611b73816006612e1690919063ffffffff16565b7f4709990004724f283154297c090b8420d74dcbf9ffcd6bc50294e7350c7cb4fc81604051611ba29190613529565b60405180910390a150565b611bb5612e0e565b73ffffffffffffffffffffffffffffffffffffffff16611bd3611aba565b73ffffffffffffffffffffffffffffffffffffffff1614611c29576040517f08c379a0000000000000000000000000000000000000000000000000000000008152600401611c2090613a83565b60405180910390fd5b611c3d816005612c1290919063ffffffff16565b7f0eea60f9e1851b51feed56c339be177ea715591923622a0effe46dbb8885efa681604051611c6c9190613529565b60405180910390a150565b6000611c8d826004612cc590919063ffffffff16565b9050919050565b611c9d33612bf5565b611cdc576040517f08c379a0000000000000000000000000000000000000000000000000000000008152600401611cd390613b5b565b60405180910390fd5b6000611ce86008613084565b90506000600a67ffffffffffffffff811115611d0757611d066135ad565b5b604051908082528060200260200182016040528015611d355781602001602082028036833780820191505090505b5090506000600a67ffffffffffffffff811115611d5557611d546135ad565b5b604051908082528060200260200182016040528015611d835781602001602082028036833780820191505090505b509050600060405180610160016040528085815260200160006004811115611dae57611dad613416565b5b8152602001888152602001878152602001868152602001600081526020013373ffffffffffffffffffffffffffffffffffffffff168152602001600073ffffffffffffffffffffffffffffffffffffffff168152602001600073ffffffffffffffffffffffffffffffffffffffff16815260200184815260200183815250905080600960008681526020019081526020016000206000820151816000015560208201518160010160006101000a81548160ff02191690836004811115611e7757611e76613416565b5b021790555060408201518160020155606082015181600301556080820151816004015560a0820151816005015560c08201518160060160006101000a81548173ffffffffffffffffffffffffffffffffffffffff021916908373ffffffffffffffffffffffffffffffffffffffff16021790555060e08201518160070160006101000a81548173ffffffffffffffffffffffffffffffffffffffff021916908373ffffffffffffffffffffffffffffffffffffffff1602179055506101008201518160080160006101000a81548173ffffffffffffffffffffffffffffffffffffffff021916908373ffffffffffffffffffffffffffffffffffffffff160217905550610120820151816009019080519060200190611f979291906130a8565b5061014082015181600a019080519060200190611fb5929190613132565b50905050600760009054906101000a900473ffffffffffffffffffffffffffffffffffffffff1673ffffffffffffffffffffffffffffffffffffffff1663156e29f6338660016040518463ffffffff1660e01b815260040161201993929190613b7b565b600060405180830381600087803b15801561203357600080fd5b505af1158015612047573d6000803e3d6000fd5b505050506120556008613092565b7f8dba83ab26c4e67ac150487b6c119e69498289b9cc6c7dfd77fd0df2e671b48b846040516120849190613a1c565b60405180910390a150505050505050565b61209d612e0e565b73ffffffffffffffffffffffffffffffffffffffff166120bb611aba565b73ffffffffffffffffffffffffffffffffffffffff1614612111576040517f08c379a000000000000000000000000000000000000000000000000000000000815260040161210890613a83565b60405180910390fd5b612125816006612c1290919063ffffffff16565b7f23b2415a50efd127e694ba174e400d457ad65c58752e171b6d17f3f5daa26fdb816040516121549190613529565b60405180910390a150565b6000612175826002612cc590919063ffffffff16565b9050919050565b60606121886001612d7c565b905090565b6121963361070b565b61219f57600080fd5b600183116121ac57600080fd5b60006009600086815260200190815260200160002060405180610160016040529081600082015481526020016001820160009054906101000a900460ff1660048111156121fc576121fb613416565b5b600481111561220e5761220d613416565b5b8152602001600282015481526020016003820154815260200160048201548152602001600582015481526020016006820160009054906101000a900473ffffffffffffffffffffffffffffffffffffffff1673ffffffffffffffffffffffffffffffffffffffff1673ffffffffffffffffffffffffffffffffffffffff1681526020016007820160009054906101000a900473ffffffffffffffffffffffffffffffffffffffff1673ffffffffffffffffffffffffffffffffffffffff1673ffffffffffffffffffffffffffffffffffffffff1681526020016008820160009054906101000a900473ffffffffffffffffffffffffffffffffffffffff1673ffffffffffffffffffffffffffffffffffffffff1673ffffffffffffffffffffffffffffffffffffffff168152602001600982018054806020026020016040519081016040528092919081815260200182805480156123c157602002820191906000526020600020905b8160009054906101000a900473ffffffffffffffffffffffffffffffffffffffff1673ffffffffffffffffffffffffffffffffffffffff1681526020019060010190808311612377575b50505050508152602001600a820180548060200260200160405190810160405280929190818152602001828054801561241957602002820191906000526020600020905b815481526020019060010190808311612405575b505050505081525050905060028160200190600481111561243d5761243c613416565b5b9081600481111561245157612450613416565b5b81525050838160a001818152505060005b83518110156127185761248e84828151811061248157612480613bb2565b5b6020026020010151611c77565b6124cd576040517f08c379a00000000000000000000000000000000000000000000000000000000081526004016124c490613c53565b60405180910390fd5b8381815181106124e0576124df613bb2565b5b60200260200101518261012001518281518110612500576124ff613bb2565b5b602002602001019073ffffffffffffffffffffffffffffffffffffffff16908173ffffffffffffffffffffffffffffffffffffffff168152505082818151811061254d5761254c613bb2565b5b6020026020010151826101400151828151811061256d5761256c613bb2565b5b602002602001018181525050600760009054906101000a900473ffffffffffffffffffffffffffffffffffffffff1673ffffffffffffffffffffffffffffffffffffffff1663156e29f68583815181106125ca576125c9613bb2565b5b6020026020010151888685815181106125e6576125e5613bb2565b5b60200260200101516040518463ffffffff1660e01b815260040161260c93929190613c73565b600060405180830381600087803b15801561262657600080fd5b505af115801561263a573d6000803e3d6000fd5b50505050600760009054906101000a900473ffffffffffffffffffffffffffffffffffffffff1673ffffffffffffffffffffffffffffffffffffffff1663f242432a85838151811061268f5761268e613bb2565b5b602002602001015133898786815181106126ac576126ab613bb2565b5b60200260200101516040518563ffffffff1660e01b81526004016126d39493929190613caa565b600060405180830381600087803b1580156126ed57600080fd5b505af1158015612701573d6000803e3d6000fd5b50505050808061271090613d31565b915050612462565b5080600960008781526020019081526020016000206000820151816000015560208201518160010160006101000a81548160ff0219169083600481111561276257612761613416565b5b021790555060408201518160020155606082015181600301556080820151816004015560a0820151816005015560c08201518160060160006101000a81548173ffffffffffffffffffffffffffffffffffffffff021916908373ffffffffffffffffffffffffffffffffffffffff16021790555060e08201518160070160006101000a81548173ffffffffffffffffffffffffffffffffffffffff021916908373ffffffffffffffffffffffffffffffffffffffff1602179055506101008201518160080160006101000a81548173ffffffffffffffffffffffffffffffffffffffff021916908373ffffffffffffffffffffffffffffffffffffffff1602179055506101208201518160090190805190602001906128829291906130a8565b5061014082015181600a0190805190602001906128a0929190613132565b509050505050505050565b60096020528060005260406000206000915090508060000154908060010160009054906101000a900460ff16908060020154908060030154908060040154908060050154908060060160009054906101000a900473ffffffffffffffffffffffffffffffffffffffff16908060070160009054906101000a900473ffffffffffffffffffffffffffffffffffffffff16908060080160009054906101000a900473ffffffffffffffffffffffffffffffffffffffff16905089565b61296e612e0e565b73ffffffffffffffffffffffffffffffffffffffff1661298c611aba565b73ffffffffffffffffffffffffffffffffffffffff16146129e2576040517f08c379a00000000000000000000000000000000000000000000000000000000081526004016129d990613a83565b60405180910390fd5b6129f6816002612e1690919063ffffffff16565b7f9cfe362d8a536c3b63d391e311186b7f259fdd498eecf5d32626fe9b95058a7d81604051612a259190613529565b60405180910390a150565b8073ffffffffffffffffffffffffffffffffffffffff163373ffffffffffffffffffffffffffffffffffffffff1614612a9e576040517f08c379a0000000000000000000000000000000000000000000000000000000008152600401612a9590613aef565b60405180910390fd5b612ab2816005612e1690919063ffffffff16565b7f200c3f073f217cf07dee57ee6e42c29e5fa6937f536b65c9d1e06be1f9c83dc181604051612ae19190613529565b60405180910390a150565b612af4612e0e565b73ffffffffffffffffffffffffffffffffffffffff16612b12611aba565b73ffffffffffffffffffffffffffffffffffffffff1614612b68576040517f08c379a0000000000000000000000000000000000000000000000000000000008152600401612b5f90613a83565b60405180910390fd5b600073ffffffffffffffffffffffffffffffffffffffff168173ffffffffffffffffffffffffffffffffffffffff161415612bd8576040517f08c379a0000000000000000000000000000000000000000000000000000000008152600401612bcf90613dec565b60405180910390fd5b612be181612fc0565b50565b6060612bf06005612d7c565b905090565b6000612c0b826001612cc590919063ffffffff16565b9050919050565b612c1c8282612cc5565b15612c5c576040517f08c379a0000000000000000000000000000000000000000000000000000000008152600401612c5390613e58565b60405180910390fd5b81600001819080600181540180825580915050600190039060005260206000200160009091909190916101000a81548173ffffffffffffffffffffffffffffffffffffffff021916908373ffffffffffffffffffffffffffffffffffffffff1602179055505050565b6000808360000180549050905060005b81811015612d6f578373ffffffffffffffffffffffffffffffffffffffff16856000018281548110612d0a57612d09613bb2565b5b9060005260206000200160009054906101000a900473ffffffffffffffffffffffffffffffffffffffff1673ffffffffffffffffffffffffffffffffffffffff161415612d5c57600192505050612d76565b8080612d6790613d31565b915050612cd5565b5060009150505b92915050565b606081600001805480602002602001604051908101604052809291908181526020018280548015612e0257602002820191906000526020600020905b8160009054906101000a900473ffffffffffffffffffffffffffffffffffffffff1673ffffffffffffffffffffffffffffffffffffffff1681526020019060010190808311612db8575b50505050509050919050565b600033905090565b600082600001805490509050600080600090505b82811015612f70578115612ee457846000018181548110612e4e57612e4d613bb2565b5b9060005260206000200160009054906101000a900473ffffffffffffffffffffffffffffffffffffffff1685600001600183612e8a9190613e78565b81548110612e9b57612e9a613bb2565b5b9060005260206000200160006101000a81548173ffffffffffffffffffffffffffffffffffffffff021916908373ffffffffffffffffffffffffffffffffffffffff1602179055505b8373ffffffffffffffffffffffffffffffffffffffff16856000018281548110612f1157612f10613bb2565b5b9060005260206000200160009054906101000a900473ffffffffffffffffffffffffffffffffffffffff1673ffffffffffffffffffffffffffffffffffffffff161415612f5d57600191505b8080612f6890613d31565b915050612e2a565b5083600001805480612f8557612f84613eac565b5b6001900381819060005260206000200160006101000a81549073ffffffffffffffffffffffffffffffffffffffff0219169055905550505050565b60008060009054906101000a900473ffffffffffffffffffffffffffffffffffffffff169050816000806101000a81548173ffffffffffffffffffffffffffffffffffffffff021916908373ffffffffffffffffffffffffffffffffffffffff1602179055508173ffffffffffffffffffffffffffffffffffffffff168173ffffffffffffffffffffffffffffffffffffffff167f8be0079c531659141344cd1fd0a4f28419497f9722a3daafe3b4186f6b6457e060405160405180910390a35050565b600081600001549050919050565b6001816000016000828254019250508190555050565b828054828255906000526020600020908101928215613121579160200282015b828111156131205782518260006101000a81548173ffffffffffffffffffffffffffffffffffffffff021916908373ffffffffffffffffffffffffffffffffffffffff160217905550916020019190600101906130c8565b5b50905061312e919061317f565b5090565b82805482825590600052602060002090810192821561316e579160200282015b8281111561316d578251825591602001919060010190613152565b5b50905061317b919061317f565b5090565b5b80821115613198576000816000905550600101613180565b5090565b6000604051905090565b600080fd5b600080fd5b600073ffffffffffffffffffffffffffffffffffffffff82169050919050565b60006131db826131b0565b9050919050565b6131eb816131d0565b81146131f657600080fd5b50565b600081359050613208816131e2565b92915050565b600060208284031215613224576132236131a6565b5b6000613232848285016131f9565b91505092915050565b60008115159050919050565b6132508161323b565b82525050565b600060208201905061326b6000830184613247565b92915050565b6000819050919050565b61328481613271565b811461328f57600080fd5b50565b6000813590506132a18161327b565b92915050565b600080604083850312156132be576132bd6131a6565b5b60006132cc85828601613292565b92505060206132dd858286016131f9565b9150509250929050565b600081519050919050565b600082825260208201905092915050565b6000819050602082019050919050565b61331c816131d0565b82525050565b600061332e8383613313565b60208301905092915050565b6000602082019050919050565b6000613352826132e7565b61335c81856132f2565b935061336783613303565b8060005b8381101561339857815161337f8882613322565b975061338a8361333a565b92505060018101905061336b565b5085935050505092915050565b600060208201905081810360008301526133bf8184613347565b905092915050565b600080604083850312156133de576133dd6131a6565b5b60006133ec858286016131f9565b92505060206133fd85828601613292565b9150509250929050565b61341081613271565b82525050565b7f4e487b7100000000000000000000000000000000000000000000000000000000600052602160045260246000fd5b6005811061345657613455613416565b5b50565b600081905061346782613445565b919050565b600061347782613459565b9050919050565b6134878161346c565b82525050565b613496816131d0565b82525050565b6000610120820190506134b2600083018c613407565b6134bf602083018b61347e565b6134cc604083018a613407565b6134d96060830189613407565b6134e66080830188613407565b6134f360a0830187613407565b61350060c083018661348d565b61350d60e083018561348d565b61351b61010083018461348d565b9a9950505050505050505050565b600060208201905061353e600083018461348d565b92915050565b60008060006060848603121561355d5761355c6131a6565b5b600061356b86828701613292565b935050602061357c86828701613292565b925050604061358d86828701613292565b9150509250925092565b600080fd5b6000601f19601f8301169050919050565b7f4e487b7100000000000000000000000000000000000000000000000000000000600052604160045260246000fd5b6135e58261359c565b810181811067ffffffffffffffff82111715613604576136036135ad565b5b80604052505050565b600061361761319c565b905061362382826135dc565b919050565b600067ffffffffffffffff821115613643576136426135ad565b5b602082029050602081019050919050565b600080fd5b600061366c61366784613628565b61360d565b9050808382526020820190506020840283018581111561368f5761368e613654565b5b835b818110156136b857806136a488826131f9565b845260208401935050602081019050613691565b5050509392505050565b600082601f8301126136d7576136d6613597565b5b81356136e7848260208601613659565b91505092915050565b600067ffffffffffffffff82111561370b5761370a6135ad565b5b602082029050602081019050919050565b600061372f61372a846136f0565b61360d565b9050808382526020820190506020840283018581111561375257613751613654565b5b835b8181101561377b57806137678882613292565b845260208401935050602081019050613754565b5050509392505050565b600082601f83011261379a57613799613597565b5b81356137aa84826020860161371c565b91505092915050565b600080600080608085870312156137cd576137cc6131a6565b5b60006137db87828801613292565b94505060206137ec87828801613292565b935050604085013567ffffffffffffffff81111561380d5761380c6131ab565b5b613819878288016136c2565b925050606085013567ffffffffffffffff81111561383a576138396131ab565b5b61384687828801613785565b91505092959194509250565b600060208284031215613868576138676131a6565b5b600061387684828501613292565b91505092915050565b600082825260208201905092915050565b7f4e4f5420412056414c49442057415245484f555345204144445245535320212060008201527f504c4541534520434f4e544143542041444d494e000000000000000000000000602082015250565b60006138ec60348361387f565b91506138f782613890565b604082019050919050565b6000602082019050818103600083015261391b816138df565b9050919050565b6000819050919050565b6000819050919050565b600061395161394c61394784613922565b61392c565b613271565b9050919050565b61396181613936565b82525050565b600082825260208201905092915050565b7f3078303000000000000000000000000000000000000000000000000000000000600082015250565b60006139ae600483613967565b91506139b982613978565b602082019050919050565b600060a0820190506139d9600083018761348d565b6139e6602083018661348d565b6139f36040830185613407565b613a006060830184613958565b8181036080830152613a11816139a1565b905095945050505050565b6000602082019050613a316000830184613407565b92915050565b7f4f776e61626c653a2063616c6c6572206973206e6f7420746865206f776e6572600082015250565b6000613a6d60208361387f565b9150613a7882613a37565b602082019050919050565b60006020820190508181036000830152613a9c81613a60565b9050919050565b7f594f555f43414e5f4e4f545f524f4d4f56455f544849535f4144445245535300600082015250565b6000613ad9601f8361387f565b9150613ae482613aa3565b602082019050919050565b60006020820190508181036000830152613b0881613acc565b9050919050565b7f4e6f74206120526177204d6174657269616c20537570706c6965720000000000600082015250565b6000613b45601b8361387f565b9150613b5082613b0f565b602082019050919050565b60006020820190508181036000830152613b7481613b38565b9050919050565b6000606082019050613b90600083018661348d565b613b9d6020830185613407565b613baa6040830184613958565b949350505050565b7f4e487b7100000000000000000000000000000000000000000000000000000000600052603260045260246000fd5b7f4e4f5420412056414c4944204449535452494255544f5220414444524553532060008201527f2120504c4541534520434f4e544143542041444d494e00000000000000000000602082015250565b6000613c3d60368361387f565b9150613c4882613be1565b604082019050919050565b60006020820190508181036000830152613c6c81613c30565b9050919050565b6000606082019050613c88600083018661348d565b613c956020830185613407565b613ca26040830184613407565b949350505050565b600060a082019050613cbf600083018761348d565b613ccc602083018661348d565b613cd96040830185613407565b613ce66060830184613407565b8181036080830152613cf7816139a1565b905095945050505050565b7f4e487b7100000000000000000000000000000000000000000000000000000000600052601160045260246000fd5b6000613d3c82613271565b91507fffffffffffffffffffffffffffffffffffffffffffffffffffffffffffffffff821415613d6f57613d6e613d02565b5b600182019050919050565b7f4f776e61626c653a206e6577206f776e657220697320746865207a65726f206160008201527f6464726573730000000000000000000000000000000000000000000000000000602082015250565b6000613dd660268361387f565b9150613de182613d7a565b604082019050919050565b60006020820190508181036000830152613e0581613dc9565b9050919050565b7f524f4c455f414c52454144595f45584953545300000000000000000000000000600082015250565b6000613e4260138361387f565b9150613e4d82613e0c565b602082019050919050565b60006020820190508181036000830152613e7181613e35565b9050919050565b6000613e8382613271565b9150613e8e83613271565b925082821015613ea157613ea0613d02565b5b828203905092915050565b7f4e487b7100000000000000000000000000000000000000000000000000000000600052603160045260246000fdfea26469706673582212206b0eb9ba14d4c6cb8c6c6065c36383fc4733fa40b4d76072c59b96f170b7670464736f6c63430008080033",
  "linkReferences": {},
  "deployedLinkReferences": {}
}