{
  "_format": "hh-sol-artifact-1",
  "contractName": "Supplychain",
  "sourceName": "contracts/Supplychain.sol",
  "abi": [
    {
      "inputs": [
        {
          "internalType": "address",
          "name": "_supplychainToken",
          "type": "address"
        }
      ],
      "stateMutability": "nonpayable",
      "type": "constructor"
    },
    {
      "anonymous": false,
      "inputs": [
        {
          "indexed": false,
          "internalType": "address",
          "name": "_address",
          "type": "address"
        }
      ],
      "name": "AddCustomer",
      "type": "event"
    },
    {
      "anonymous": false,
      "inputs": [
        {
          "indexed": false,
          "internalType": "address",
          "name": "_address",
          "type": "address"
        }
      ],
      "name": "AddDistributor",
      "type": "event"
    },
    {
      "anonymous": false,
      "inputs": [
        {
          "indexed": false,
          "internalType": "address",
          "name": "_address",
          "type": "address"
        }
      ],
      "name": "AddFactory",
      "type": "event"
    },
    {
      "anonymous": false,
      "inputs": [
        {
          "indexed": false,
          "internalType": "address",
          "name": "_address",
          "type": "address"
        }
      ],
      "name": "AddRawMaterialSupplier",
      "type": "event"
    },
    {
      "anonymous": false,
      "inputs": [
        {
          "indexed": false,
          "internalType": "address",
          "name": "_address",
          "type": "address"
        }
      ],
      "name": "AddRetailer",
      "type": "event"
    },
    {
      "anonymous": false,
      "inputs": [
        {
          "indexed": false,
          "internalType": "address",
          "name": "_address",
          "type": "address"
        }
      ],
      "name": "AddWarehouse",
      "type": "event"
    },
    {
      "anonymous": false,
      "inputs": [
        {
          "indexed": false,
          "internalType": "uint256",
          "name": "_supplyChainId",
          "type": "uint256"
        }
      ],
      "name": "DistributorSellToRetailer",
      "type": "event"
    },
    {
      "anonymous": false,
      "inputs": [
        {
          "indexed": false,
          "internalType": "uint256",
          "name": "_supplyChainId",
          "type": "uint256"
        }
      ],
      "name": "FactoryBuyRawMaterial",
      "type": "event"
    },
    {
      "anonymous": false,
      "inputs": [
        {
          "indexed": false,
          "internalType": "uint256",
          "name": "_supplyChainId",
          "type": "uint256"
        }
      ],
      "name": "FactorySellItemToDistributors",
      "type": "event"
    },
    {
      "anonymous": false,
      "inputs": [
        {
          "indexed": true,
          "internalType": "address",
          "name": "previousOwner",
          "type": "address"
        },
        {
          "indexed": true,
          "internalType": "address",
          "name": "newOwner",
          "type": "address"
        }
      ],
      "name": "OwnershipTransferred",
      "type": "event"
    },
    {
      "anonymous": false,
      "inputs": [
        {
          "indexed": false,
          "internalType": "uint256",
          "name": "_supplyChainId",
          "type": "uint256"
        }
      ],
      "name": "RawMaterialSupplierSuppliesRM",
      "type": "event"
    },
    {
      "anonymous": false,
      "inputs": [
        {
          "indexed": false,
          "internalType": "address",
          "name": "_address",
          "type": "address"
        }
      ],
      "name": "RemoveCustomer",
      "type": "event"
    },
    {
      "anonymous": false,
      "inputs": [
        {
          "indexed": false,
          "internalType": "address",
          "name": "_address",
          "type": "address"
        }
      ],
      "name": "RemoveDistributor",
      "type": "event"
    },
    {
      "anonymous": false,
      "inputs": [
        {
          "indexed": false,
          "internalType": "address",
          "name": "_address",
          "type": "address"
        }
      ],
      "name": "RemoveFactory",
      "type": "event"
    },
    {
      "anonymous": false,
      "inputs": [
        {
          "indexed": false,
          "internalType": "address",
          "name": "_address",
          "type": "address"
        }
      ],
      "name": "RemoveRawMaterialSupplier",
      "type": "event"
    },
    {
      "anonymous": false,
      "inputs": [
        {
          "indexed": false,
          "internalType": "address",
          "name": "_address",
          "type": "address"
        }
      ],
      "name": "RemoveRetailer",
      "type": "event"
    },
    {
      "anonymous": false,
      "inputs": [
        {
          "indexed": false,
          "internalType": "address",
          "name": "_address",
          "type": "address"
        }
      ],
      "name": "RemoveWarehouse",
      "type": "event"
    },
    {
      "anonymous": false,
      "inputs": [
        {
          "indexed": false,
          "internalType": "uint256",
          "name": "_supplyChainId",
          "type": "uint256"
        }
      ],
      "name": "RetailerSellToCustomer",
      "type": "event"
    },
    {
      "anonymous": false,
      "inputs": [
        {
          "indexed": false,
          "internalType": "uint256",
          "name": "a",
          "type": "uint256"
        },
        {
          "indexed": false,
          "internalType": "uint256",
          "name": "b",
          "type": "uint256"
        }
      ],
      "name": "valueeeeeeee",
      "type": "event"
    },
    {
      "inputs": [
        {
          "internalType": "address",
          "name": "_address",
          "type": "address"
        }
      ],
      "name": "addCustomer",
      "outputs": [],
      "stateMutability": "nonpayable",
      "type": "function"
    },
    {
      "inputs": [
        {
          "internalType": "address",
          "name": "_address",
          "type": "address"
        }
      ],
      "name": "addDistributor",
      "outputs": [],
      "stateMutability": "nonpayable",
      "type": "function"
    },
    {
      "inputs": [
        {
          "internalType": "address",
          "name": "_address",
          "type": "address"
        }
      ],
      "name": "addFactory",
      "outputs": [],
      "stateMutability": "nonpayable",
      "type": "function"
    },
    {
      "inputs": [
        {
          "internalType": "address",
          "name": "_address",
          "type": "address"
        }
      ],
      "name": "addRawMaterialSupplier",
      "outputs": [],
      "stateMutability": "nonpayable",
      "type": "function"
    },
    {
      "inputs": [
        {
          "internalType": "address",
          "name": "_address",
          "type": "address"
        }
      ],
      "name": "addRetailer",
      "outputs": [],
      "stateMutability": "nonpayable",
      "type": "function"
    },
    {
      "inputs": [
        {
          "internalType": "address",
          "name": "_address",
          "type": "address"
        }
      ],
      "name": "addWarehouse",
      "outputs": [],
      "stateMutability": "nonpayable",
      "type": "function"
    },
    {
      "inputs": [
        {
          "internalType": "uint256",
          "name": "_supplyChainId",
          "type": "uint256"
        },
        {
          "internalType": "address[]",
          "name": "retailers",
          "type": "address[]"
        },
        {
          "internalType": "uint256[]",
          "name": "quantity",
          "type": "uint256[]"
        }
      ],
      "name": "distributorSellToRetailer",
      "outputs": [],
      "stateMutability": "nonpayable",
      "type": "function"
    },
    {
      "inputs": [
        {
          "internalType": "uint256",
          "name": "_supplyChainId",
          "type": "uint256"
        },
        {
          "internalType": "address",
          "name": "_warehouse",
          "type": "address"
        }
      ],
      "name": "factoryBuyRawMaterial",
      "outputs": [],
      "stateMutability": "nonpayable",
      "type": "function"
    },
    {
      "inputs": [
        {
          "internalType": "uint256",
          "name": "_supplyChainId",
          "type": "uint256"
        },
        {
          "internalType": "uint256",
          "name": "_units",
          "type": "uint256"
        },
        {
          "internalType": "address[]",
          "name": "distributors",
          "type": "address[]"
        },
        {
          "internalType": "uint256[]",
          "name": "quantity",
          "type": "uint256[]"
        }
      ],
      "name": "factorySellItemToDistributors",
      "outputs": [],
      "stateMutability": "nonpayable",
      "type": "function"
    },
    {
      "inputs": [],
      "name": "getCustomer",
      "outputs": [
        {
          "internalType": "address[]",
          "name": "",
          "type": "address[]"
        }
      ],
      "stateMutability": "view",
      "type": "function"
    },
    {
      "inputs": [],
      "name": "getDistributor",
      "outputs": [
        {
          "internalType": "address[]",
          "name": "",
          "type": "address[]"
        }
      ],
      "stateMutability": "view",
      "type": "function"
    },
    {
      "inputs": [
        {
          "internalType": "uint256",
          "name": "_supplychianId",
          "type": "uint256"
        }
      ],
      "name": "getDistributorCounters",
      "outputs": [
        {
          "internalType": "uint256[]",
          "name": "",
          "type": "uint256[]"
        }
      ],
      "stateMutability": "view",
      "type": "function"
    },
    {
      "inputs": [
        {
          "internalType": "uint256",
          "name": "_supplychianId",
          "type": "uint256"
        }
      ],
      "name": "getDistributorUnits",
      "outputs": [
        {
          "internalType": "uint256[]",
          "name": "",
          "type": "uint256[]"
        }
      ],
      "stateMutability": "view",
      "type": "function"
    },
    {
      "inputs": [
        {
          "internalType": "uint256",
          "name": "_supplychianId",
          "type": "uint256"
        }
      ],
      "name": "getDistributors",
      "outputs": [
        {
          "internalType": "address[]",
          "name": "",
          "type": "address[]"
        }
      ],
      "stateMutability": "view",
      "type": "function"
    },
    {
      "inputs": [],
      "name": "getFactory",
      "outputs": [
        {
          "internalType": "address[]",
          "name": "",
          "type": "address[]"
        }
      ],
      "stateMutability": "view",
      "type": "function"
    },
    {
      "inputs": [],
      "name": "getRawMaterialSupplier",
      "outputs": [
        {
          "internalType": "address[]",
          "name": "",
          "type": "address[]"
        }
      ],
      "stateMutability": "view",
      "type": "function"
    },
    {
      "inputs": [],
      "name": "getRetailer",
      "outputs": [
        {
          "internalType": "address[]",
          "name": "",
          "type": "address[]"
        }
      ],
      "stateMutability": "view",
      "type": "function"
    },
    {
      "inputs": [
        {
          "internalType": "uint256",
          "name": "_supplychianId",
          "type": "uint256"
        }
      ],
      "name": "getRetailers",
      "outputs": [
        {
          "internalType": "address[]",
          "name": "",
          "type": "address[]"
        }
      ],
      "stateMutability": "view",
      "type": "function"
    },
    {
      "inputs": [
        {
          "internalType": "uint256",
          "name": "_supplychianId",
          "type": "uint256"
        }
      ],
      "name": "getRetailersCounters",
      "outputs": [
        {
          "internalType": "uint256[]",
          "name": "",
          "type": "uint256[]"
        }
      ],
      "stateMutability": "view",
      "type": "function"
    },
    {
      "inputs": [
        {
          "internalType": "uint256",
          "name": "_supplychianId",
          "type": "uint256"
        }
      ],
      "name": "getRetailersUnits",
      "outputs": [
        {
          "internalType": "uint256[]",
          "name": "",
          "type": "uint256[]"
        }
      ],
      "stateMutability": "view",
      "type": "function"
    },
    {
      "inputs": [],
      "name": "getWarehouse",
      "outputs": [
        {
          "internalType": "address[]",
          "name": "",
          "type": "address[]"
        }
      ],
      "stateMutability": "view",
      "type": "function"
    },
    {
      "inputs": [
        {
          "internalType": "address",
          "name": "warehouse",
          "type": "address"
        }
      ],
      "name": "getWarehouseItems",
      "outputs": [
        {
          "components": [
            {
              "internalType": "uint256",
              "name": "supplyChainId",
              "type": "uint256"
            },
            {
              "internalType": "enum Supplychain.State",
              "name": "itemState",
              "type": "uint8"
            },
            {
              "internalType": "uint256",
              "name": "PolyesterAmount",
              "type": "uint256"
            },
            {
              "internalType": "uint256",
              "name": "CottonAmount",
              "type": "uint256"
            },
            {
              "internalType": "uint256",
              "name": "WoolAmount",
              "type": "uint256"
            },
            {
              "internalType": "uint256",
              "name": "totalUnits",
              "type": "uint256"
            },
            {
              "internalType": "address",
              "name": "RawMaterialSupplierID",
              "type": "address"
            },
            {
              "internalType": "address",
              "name": "warehouseID",
              "type": "address"
            },
            {
              "internalType": "address",
              "name": "factoryID",
              "type": "address"
            }
          ],
          "internalType": "struct Supplychain.Item[]",
          "name": "",
          "type": "tuple[]"
        }
      ],
      "stateMutability": "view",
      "type": "function"
    },
    {
      "inputs": [
        {
          "internalType": "address",
          "name": "_address",
          "type": "address"
        }
      ],
      "name": "isCustomer",
      "outputs": [
        {
          "internalType": "bool",
          "name": "",
          "type": "bool"
        }
      ],
      "stateMutability": "view",
      "type": "function"
    },
    {
      "inputs": [
        {
          "internalType": "address",
          "name": "_address",
          "type": "address"
        }
      ],
      "name": "isDistributor",
      "outputs": [
        {
          "internalType": "bool",
          "name": "",
          "type": "bool"
        }
      ],
      "stateMutability": "view",
      "type": "function"
    },
    {
      "inputs": [
        {
          "internalType": "address",
          "name": "_address",
          "type": "address"
        }
      ],
      "name": "isFactory",
      "outputs": [
        {
          "internalType": "bool",
          "name": "",
          "type": "bool"
        }
      ],
      "stateMutability": "view",
      "type": "function"
    },
    {
      "inputs": [
        {
          "internalType": "address",
          "name": "_address",
          "type": "address"
        }
      ],
      "name": "isRawMaterialSupplier",
      "outputs": [
        {
          "internalType": "bool",
          "name": "",
          "type": "bool"
        }
      ],
      "stateMutability": "view",
      "type": "function"
    },
    {
      "inputs": [
        {
          "internalType": "address",
          "name": "_address",
          "type": "address"
        }
      ],
      "name": "isRetailer",
      "outputs": [
        {
          "internalType": "bool",
          "name": "",
          "type": "bool"
        }
      ],
      "stateMutability": "view",
      "type": "function"
    },
    {
      "inputs": [
        {
          "internalType": "address",
          "name": "_address",
          "type": "address"
        }
      ],
      "name": "isWarehouse",
      "outputs": [
        {
          "internalType": "bool",
          "name": "",
          "type": "bool"
        }
      ],
      "stateMutability": "view",
      "type": "function"
    },
    {
      "inputs": [
        {
          "internalType": "uint256",
          "name": "",
          "type": "uint256"
        }
      ],
      "name": "items",
      "outputs": [
        {
          "internalType": "uint256",
          "name": "supplyChainId",
          "type": "uint256"
        },
        {
          "internalType": "enum Supplychain.State",
          "name": "itemState",
          "type": "uint8"
        },
        {
          "internalType": "uint256",
          "name": "PolyesterAmount",
          "type": "uint256"
        },
        {
          "internalType": "uint256",
          "name": "CottonAmount",
          "type": "uint256"
        },
        {
          "internalType": "uint256",
          "name": "WoolAmount",
          "type": "uint256"
        },
        {
          "internalType": "uint256",
          "name": "totalUnits",
          "type": "uint256"
        },
        {
          "internalType": "address",
          "name": "RawMaterialSupplierID",
          "type": "address"
        },
        {
          "internalType": "address",
          "name": "warehouseID",
          "type": "address"
        },
        {
          "internalType": "address",
          "name": "factoryID",
          "type": "address"
        }
      ],
      "stateMutability": "view",
      "type": "function"
    },
    {
      "inputs": [],
      "name": "owner",
      "outputs": [
        {
          "internalType": "address",
          "name": "",
          "type": "address"
        }
      ],
      "stateMutability": "view",
      "type": "function"
    },
    {
      "inputs": [
        {
          "internalType": "uint256",
          "name": "_polyesterAmount",
          "type": "uint256"
        },
        {
          "internalType": "uint256",
          "name": "_cottonAmount",
          "type": "uint256"
        },
        {
          "internalType": "uint256",
          "name": "_woolAmount",
          "type": "uint256"
        }
      ],
      "name": "rawMaterialSupplierSuppliesRM",
      "outputs": [],
      "stateMutability": "nonpayable",
      "type": "function"
    },
    {
      "inputs": [
        {
          "internalType": "address",
          "name": "_address",
          "type": "address"
        }
      ],
      "name": "removeCustomer",
      "outputs": [],
      "stateMutability": "nonpayable",
      "type": "function"
    },
    {
      "inputs": [
        {
          "internalType": "address",
          "name": "_address",
          "type": "address"
        }
      ],
      "name": "removeCustomerSelf",
      "outputs": [],
      "stateMutability": "nonpayable",
      "type": "function"
    },
    {
      "inputs": [
        {
          "internalType": "address",
          "name": "_address",
          "type": "address"
        }
      ],
      "name": "removeDistributor",
      "outputs": [],
      "stateMutability": "nonpayable",
      "type": "function"
    },
    {
      "inputs": [
        {
          "internalType": "address",
          "name": "_address",
          "type": "address"
        }
      ],
      "name": "removeDistributorSelf",
      "outputs": [],
      "stateMutability": "nonpayable",
      "type": "function"
    },
    {
      "inputs": [
        {
          "internalType": "address",
          "name": "_address",
          "type": "address"
        }
      ],
      "name": "removeFactory",
      "outputs": [],
      "stateMutability": "nonpayable",
      "type": "function"
    },
    {
      "inputs": [
        {
          "internalType": "address",
          "name": "_address",
          "type": "address"
        }
      ],
      "name": "removeFactorySelf",
      "outputs": [],
      "stateMutability": "nonpayable",
      "type": "function"
    },
    {
      "inputs": [
        {
          "internalType": "address",
          "name": "_address",
          "type": "address"
        }
      ],
      "name": "removeRawMaterialSupplier",
      "outputs": [],
      "stateMutability": "nonpayable",
      "type": "function"
    },
    {
      "inputs": [
        {
          "internalType": "address",
          "name": "_address",
          "type": "address"
        }
      ],
      "name": "removeRawMaterialSupplierSelf",
      "outputs": [],
      "stateMutability": "nonpayable",
      "type": "function"
    },
    {
      "inputs": [
        {
          "internalType": "address",
          "name": "_address",
          "type": "address"
        }
      ],
      "name": "removeRetailer",
      "outputs": [],
      "stateMutability": "nonpayable",
      "type": "function"
    },
    {
      "inputs": [
        {
          "internalType": "address",
          "name": "_address",
          "type": "address"
        }
      ],
      "name": "removeRetailerSelf",
      "outputs": [],
      "stateMutability": "nonpayable",
      "type": "function"
    },
    {
      "inputs": [
        {
          "internalType": "address",
          "name": "_address",
          "type": "address"
        }
      ],
      "name": "removeSelfWarehouse",
      "outputs": [],
      "stateMutability": "nonpayable",
      "type": "function"
    },
    {
      "inputs": [
        {
          "internalType": "address",
          "name": "_address",
          "type": "address"
        }
      ],
      "name": "removeWarehouse",
      "outputs": [],
      "stateMutability": "nonpayable",
      "type": "function"
    },
    {
      "inputs": [],
      "name": "renounceOwnership",
      "outputs": [],
      "stateMutability": "nonpayable",
      "type": "function"
    },
    {
      "inputs": [],
      "name": "totalBatchs",
      "outputs": [
        {
          "internalType": "uint256",
          "name": "",
          "type": "uint256"
        }
      ],
      "stateMutability": "view",
      "type": "function"
    },
    {
      "inputs": [
        {
          "internalType": "address",
          "name": "newOwner",
          "type": "address"
        }
      ],
      "name": "transferOwnership",
      "outputs": [],
      "stateMutability": "nonpayable",
      "type": "function"
    }
  ],
  "bytecode": "0x60806040523480156200001157600080fd5b50604051620057e9380380620057e9833981810160405281019062000037919062000946565b620000576200004b6200010560201b60201c565b6200010d60201b60201c565b6200006833620001d160201b60201c565b6200007933620002b760201b60201c565b6200008a336200039d60201b60201c565b6200009b336200048360201b60201c565b620000ac336200056960201b60201c565b620000bd336200064f60201b60201c565b80600760006101000a81548173ffffffffffffffffffffffffffffffffffffffff021916908373ffffffffffffffffffffffffffffffffffffffff1602179055505062000b51565b600033905090565b60008060009054906101000a900473ffffffffffffffffffffffffffffffffffffffff169050816000806101000a81548173ffffffffffffffffffffffffffffffffffffffff021916908373ffffffffffffffffffffffffffffffffffffffff1602179055508173ffffffffffffffffffffffffffffffffffffffff168173ffffffffffffffffffffffffffffffffffffffff167f8be0079c531659141344cd1fd0a4f28419497f9722a3daafe3b4186f6b6457e060405160405180910390a35050565b620001e16200010560201b60201c565b73ffffffffffffffffffffffffffffffffffffffff16620002076200073560201b60201c565b73ffffffffffffffffffffffffffffffffffffffff161462000260576040517f08c379a00000000000000000000000000000000000000000000000000000000081526004016200025790620009d9565b60405180910390fd5b6200027b8160016200075e60201b620035e61790919060201c565b7fa3da795b47eb190084f878e63c07509e5f6df63ebc51443c0ccab2fc11c0d88381604051620002ac919062000a0c565b60405180910390a150565b620002c76200010560201b60201c565b73ffffffffffffffffffffffffffffffffffffffff16620002ed6200073560201b60201c565b73ffffffffffffffffffffffffffffffffffffffff161462000346576040517f08c379a00000000000000000000000000000000000000000000000000000000081526004016200033d90620009d9565b60405180910390fd5b620003618160026200075e60201b620035e61790919060201c565b7f364ee90eb63717b99192fdb951c7b1aa91a45bca11ac73ab40cfad762631fbce8160405162000392919062000a0c565b60405180910390a150565b620003ad6200010560201b60201c565b73ffffffffffffffffffffffffffffffffffffffff16620003d36200073560201b60201c565b73ffffffffffffffffffffffffffffffffffffffff16146200042c576040517f08c379a00000000000000000000000000000000000000000000000000000000081526004016200042390620009d9565b60405180910390fd5b620004478160036200075e60201b620035e61790919060201c565b7f5a8fb443d09cf1426e80f80dd509757d71d4687674ab4adad906c5e2b6e1e62c8160405162000478919062000a0c565b60405180910390a150565b620004936200010560201b60201c565b73ffffffffffffffffffffffffffffffffffffffff16620004b96200073560201b60201c565b73ffffffffffffffffffffffffffffffffffffffff161462000512576040517f08c379a00000000000000000000000000000000000000000000000000000000081526004016200050990620009d9565b60405180910390fd5b6200052d8160046200075e60201b620035e61790919060201c565b7f3afd547f7eb357741de51229846ae795cb06449e4b4032eb34a7cc0a751e25c1816040516200055e919062000a0c565b60405180910390a150565b620005796200010560201b60201c565b73ffffffffffffffffffffffffffffffffffffffff166200059f6200073560201b60201c565b73ffffffffffffffffffffffffffffffffffffffff1614620005f8576040517f08c379a0000000000000000000000000000000000000000000000000000000008152600401620005ef90620009d9565b60405180910390fd5b620006138160056200075e60201b620035e61790919060201c565b7f0eea60f9e1851b51feed56c339be177ea715591923622a0effe46dbb8885efa68160405162000644919062000a0c565b60405180910390a150565b6200065f6200010560201b60201c565b73ffffffffffffffffffffffffffffffffffffffff16620006856200073560201b60201c565b73ffffffffffffffffffffffffffffffffffffffff1614620006de576040517f08c379a0000000000000000000000000000000000000000000000000000000008152600401620006d590620009d9565b60405180910390fd5b620006f98160066200075e60201b620035e61790919060201c565b7f23b2415a50efd127e694ba174e400d457ad65c58752e171b6d17f3f5daa26fdb816040516200072a919062000a0c565b60405180910390a150565b60008060009054906101000a900473ffffffffffffffffffffffffffffffffffffffff16905090565b6200077082826200081c60201b60201c565b15620007b3576040517f08c379a0000000000000000000000000000000000000000000000000000000008152600401620007aa9062000a79565b60405180910390fd5b81600001819080600181540180825580915050600190039060005260206000200160009091909190916101000a81548173ffffffffffffffffffffffffffffffffffffffff021916908373ffffffffffffffffffffffffffffffffffffffff1602179055505050565b6000808360000180549050905060005b81811015620008cf578373ffffffffffffffffffffffffffffffffffffffff1685600001828154811062000865576200086462000a9b565b5b9060005260206000200160009054906101000a900473ffffffffffffffffffffffffffffffffffffffff1673ffffffffffffffffffffffffffffffffffffffff161415620008b957600192505050620008d6565b8080620008c69062000b03565b9150506200082c565b5060009150505b92915050565b600080fd5b600073ffffffffffffffffffffffffffffffffffffffff82169050919050565b60006200090e82620008e1565b9050919050565b620009208162000901565b81146200092c57600080fd5b50565b600081519050620009408162000915565b92915050565b6000602082840312156200095f576200095e620008dc565b5b60006200096f848285016200092f565b91505092915050565b600082825260208201905092915050565b7f4f776e61626c653a2063616c6c6572206973206e6f7420746865206f776e6572600082015250565b6000620009c160208362000978565b9150620009ce8262000989565b602082019050919050565b60006020820190508181036000830152620009f481620009b2565b9050919050565b62000a068162000901565b82525050565b600060208201905062000a236000830184620009fb565b92915050565b7f524f4c455f414c52454144595f45584953545300000000000000000000000000600082015250565b600062000a6160138362000978565b915062000a6e8262000a29565b602082019050919050565b6000602082019050818103600083015262000a948162000a52565b9050919050565b7f4e487b7100000000000000000000000000000000000000000000000000000000600052603260045260246000fd5b7f4e487b7100000000000000000000000000000000000000000000000000000000600052601160045260246000fd5b6000819050919050565b600062000b108262000af9565b91507fffffffffffffffffffffffffffffffffffffffffffffffffffffffffffffffff82141562000b465762000b4562000aca565b5b600182019050919050565b614c888062000b616000396000f3fe608060405234801561001057600080fd5b506004361061028a5760003560e01c8063814f696e1161015c578063bdacda31116100ce578063e70a962b11610087578063e70a962b146107e1578063e7d0831d14610811578063eeb341331461082d578063f2fde38b1461084b578063f80d1ff014610867578063faf31e08146108855761028a565b8063bdacda31146106f3578063be33c51614610711578063bfb231d21461072d578063bfed485614610765578063dafe1ef714610795578063e3c1a531146107c55761028a565b80638eb06ccf116101205780638eb06ccf146106235780638ec4f5051461063f5780638f0c86fa1461065b578063a198d4961461068b578063ad973d74146106a7578063bca4bd50146106c35761028a565b8063814f696e1461059357806384480510146105af5780638853ad75146105cb57806388cc58e4146105e75780638da5cb5b146106055761028a565b80634b37c73f116102005780635da09b88116101b95780635da09b88146104e7578063650d993b1461051757806370099ec814610535578063715018a6146105515780637250e2241461055b57806380bedacf146105775761028a565b80634b37c73f146104295780635166b5c81461044557806357c1f9e2146104615780635884965f1461047d5780635a9683831461049b5780635bf27912146104cb5761028a565b80632885b943116102525780632885b9431461035757806328fd5e831461037557806329ce1ec5146103a55780632a7ec29f146103c1578063319af857146103dd5780633c0e25a41461040d5761028a565b80630f04ba671461028f5780631af5dcf2146102bf57806320519bb0146102db578063209d353e1461030b5780632100c7c81461033b575b600080fd5b6102a960048036038101906102a49190613aee565b6108b5565b6040516102b69190613b36565b60405180910390f35b6102d960048036038101906102d49190613da3565b6108d2565b005b6102f560048036038101906102f09190613e2e565b610e0c565b6040516103029190613f19565b60405180910390f35b61032560048036038101906103209190613e2e565b610e77565b6040516103329190613ff9565b60405180910390f35b6103556004803603810190610350919061401b565b610f18565b005b61035f611575565b60405161036c9190613ff9565b60405180910390f35b61038f600480360381019061038a9190613aee565b611586565b60405161039c9190613b36565b60405180910390f35b6103bf60048036038101906103ba9190613aee565b6115a3565b005b6103db60048036038101906103d69190613aee565b61166d565b005b6103f760048036038101906103f29190613e2e565b611729565b6040516104049190613f19565b60405180910390f35b61042760048036038101906104229190613aee565b611794565b005b610443600480360381019061043e9190613aee565b61185e565b005b61045f600480360381019061045a9190613aee565b611928565b005b61047b60048036038101906104769190613aee565b6119f2565b005b610485611abc565b6040516104929190613ff9565b60405180910390f35b6104b560048036038101906104b09190613e2e565b611acd565b6040516104c29190613f19565b60405180910390f35b6104e560048036038101906104e09190613aee565b611b38565b005b61050160048036038101906104fc9190613aee565b611bf4565b60405161050e9190613b36565b60405180910390f35b61051f611c11565b60405161052c9190613ff9565b60405180910390f35b61054f600480360381019061054a9190613aee565b611c22565b005b610559611cec565b005b61057560048036038101906105709190613aee565b611d74565b005b610591600480360381019061058c9190613aee565b611e3e565b005b6105ad60048036038101906105a89190613aee565b611efa565b005b6105c960048036038101906105c49190613aee565b611fc4565b005b6105e560048036038101906105e09190613aee565b612080565b005b6105ef61213c565b6040516105fc9190613ff9565b60405180910390f35b61060d61214d565b60405161061a919061406a565b60405180910390f35b61063d60048036038101906106389190613aee565b612176565b005b61065960048036038101906106549190613aee565b612240565b005b61067560048036038101906106709190613aee565b61230a565b6040516106829190613b36565b60405180910390f35b6106a560048036038101906106a09190614085565b612327565b005b6106c160048036038101906106bc9190613aee565b612642565b005b6106dd60048036038101906106d89190613aee565b61270c565b6040516106ea9190613b36565b60405180910390f35b6106fb612729565b6040516107089190613ff9565b60405180910390f35b61072b600480360381019061072691906140d8565b61273a565b005b61074760048036038101906107429190613e2e565b612f54565b60405161075c999897969594939291906141fd565b60405180910390f35b61077f600480360381019061077a9190613aee565b61300f565b60405161078c9190614400565b60405180910390f35b6107af60048036038101906107aa9190613e2e565b61321d565b6040516107bc9190613ff9565b60405180910390f35b6107df60048036038101906107da9190613aee565b6132be565b005b6107fb60048036038101906107f69190613e2e565b613388565b6040516108089190613f19565b60405180910390f35b61082b60048036038101906108269190613aee565b6133f3565b005b6108356134af565b6040516108429190614422565b60405180910390f35b61086560048036038101906108609190613aee565b6134c0565b005b61086f6135b8565b60405161087c9190613ff9565b60405180910390f35b61089f600480360381019061089a9190613aee565b6135c9565b6040516108ac9190613b36565b60405180910390f35b60006108cb82600361369990919063ffffffff16565b9050919050565b6108db3361230a565b6108e457600080fd5b60008060006108f28661321d565b905060005b8151811015610abb57600073ffffffffffffffffffffffffffffffffffffffff1682828151811061092b5761092a61443d565b5b602002602001015173ffffffffffffffffffffffffffffffffffffffff161415801561099c57503373ffffffffffffffffffffffffffffffffffffffff1682828151811061097c5761097b61443d565b5b602002602001015173ffffffffffffffffffffffffffffffffffffffff16145b15610aa8576109aa87613388565b81815181106109bc576109bb61443d565b5b602002602001015193506109cf87611acd565b81815181106109e1576109e061443d565b5b60200260200101519250600b60008881526020019081526020016000208181548110610a1057610a0f61443d565b5b9060005260206000200160006101000a81549073ffffffffffffffffffffffffffffffffffffffff0219169055600c60008881526020019081526020016000208181548110610a6257610a6161443d565b5b9060005260206000200160009055600d60008881526020019081526020016000208181548110610a9557610a9461443d565b5b9060005260206000200160009055610abb565b8080610ab39061449b565b9150506108f7565b507fe4ea4fdfd16a5c60e650fad1444da4c3d51e92aba91764afb96e7ba71e5ba1328383604051610aed9291906144e4565b60405180910390a160008311610b38576040517f08c379a0000000000000000000000000000000000000000000000000000000008152600401610b2f9061456a565b60405180910390fd5b600082905060005b8651811015610dcb57610b6c878281518110610b5f57610b5e61443d565b5b6020026020010151611bf4565b610bab576040517f08c379a0000000000000000000000000000000000000000000000000000000008152600401610ba2906145fc565b60405180910390fd5b600e6000898152602001908152602001600020878281518110610bd157610bd061443d565b5b60200260200101519080600181540180825580915050600190039060005260206000200160009091909190916101000a81548173ffffffffffffffffffffffffffffffffffffffff021916908373ffffffffffffffffffffffffffffffffffffffff160217905550600f6000898152602001908152602001600020868281518110610c5f57610c5e61443d565b5b6020026020010151908060018154018082558091505060019003906000526020600020016000909190919091505560106000898152602001908152602001600020829080600181540180825580915050600190039060005260206000200160009091909190915055600760009054906101000a900473ffffffffffffffffffffffffffffffffffffffff1673ffffffffffffffffffffffffffffffffffffffff1663e51a27ce33898481518110610d1957610d1861443d565b5b60200260200101518b8a8681518110610d3557610d3461443d565b5b6020026020010151876040518663ffffffff1660e01b8152600401610d5e959493929190614679565b600060405180830381600087803b158015610d7857600080fd5b505af1158015610d8c573d6000803e3d6000fd5b50505050858181518110610da357610da261443d565b5b602002602001015182610db691906146df565b91508080610dc39061449b565b915050610b40565b507fb9f01075be5d71ca908e0aae338e241c77af5da8fbd7d476d37de1c8634dc0e287604051610dfb9190614422565b60405180910390a150505050505050565b606060106000838152602001908152602001600020805480602002602001604051908101604052809291908181526020018280548015610e6b57602002820191906000526020600020905b815481526020019060010190808311610e57575b50505050509050919050565b6060600e6000838152602001908152602001600020805480602002602001604051908101604052809291908181526020018280548015610f0c57602002820191906000526020600020905b8160009054906101000a900473ffffffffffffffffffffffffffffffffffffffff1673ffffffffffffffffffffffffffffffffffffffff1681526020019060010190808311610ec2575b50505050509050919050565b610f21336108b5565b610f2a57600080fd5b610f338161270c565b610f72576040517f08c379a0000000000000000000000000000000000000000000000000000000008152600401610f69906147a7565b60405180910390fd5b60006009600084815260200190815260200160002060405180610120016040529081600082015481526020016001820160009054906101000a900460ff166004811115610fc257610fc1614186565b5b6004811115610fd457610fd3614186565b5b8152602001600282015481526020016003820154815260200160048201548152602001600582015481526020016006820160009054906101000a900473ffffffffffffffffffffffffffffffffffffffff1673ffffffffffffffffffffffffffffffffffffffff1673ffffffffffffffffffffffffffffffffffffffff1681526020016007820160009054906101000a900473ffffffffffffffffffffffffffffffffffffffff1673ffffffffffffffffffffffffffffffffffffffff1673ffffffffffffffffffffffffffffffffffffffff1681526020016008820160009054906101000a900473ffffffffffffffffffffffffffffffffffffffff1673ffffffffffffffffffffffffffffffffffffffff1673ffffffffffffffffffffffffffffffffffffffff1681525050905060008160c0015190503382610100019073ffffffffffffffffffffffffffffffffffffffff16908173ffffffffffffffffffffffffffffffffffffffff1681525050828260e0019073ffffffffffffffffffffffffffffffffffffffff16908173ffffffffffffffffffffffffffffffffffffffff168152505060018260200190600481111561119757611196614186565b5b908160048111156111ab576111aa614186565b5b8152505081600960008681526020019081526020016000206000820151816000015560208201518160010160006101000a81548160ff021916908360048111156111f8576111f7614186565b5b021790555060408201518160020155606082015181600301556080820151816004015560a0820151816005015560c08201518160060160006101000a81548173ffffffffffffffffffffffffffffffffffffffff021916908373ffffffffffffffffffffffffffffffffffffffff16021790555060e08201518160070160006101000a81548173ffffffffffffffffffffffffffffffffffffffff021916908373ffffffffffffffffffffffffffffffffffffffff1602179055506101008201518160080160006101000a81548173ffffffffffffffffffffffffffffffffffffffff021916908373ffffffffffffffffffffffffffffffffffffffff160217905550905050600a60008473ffffffffffffffffffffffffffffffffffffffff1673ffffffffffffffffffffffffffffffffffffffff1681526020019081526020016000208290806001815401808255809150506001900390600052602060002090600902016000909190919091506000820151816000015560208201518160010160006101000a81548160ff0219169083600481111561139c5761139b614186565b5b021790555060408201518160020155606082015181600301556080820151816004015560a0820151816005015560c08201518160060160006101000a81548173ffffffffffffffffffffffffffffffffffffffff021916908373ffffffffffffffffffffffffffffffffffffffff16021790555060e08201518160070160006101000a81548173ffffffffffffffffffffffffffffffffffffffff021916908373ffffffffffffffffffffffffffffffffffffffff1602179055506101008201518160080160006101000a81548173ffffffffffffffffffffffffffffffffffffffff021916908373ffffffffffffffffffffffffffffffffffffffff1602179055505050600760009054906101000a900473ffffffffffffffffffffffffffffffffffffffff1673ffffffffffffffffffffffffffffffffffffffff1663e51a27ce823387600160006040518663ffffffff1660e01b8152600401611506959493929190614847565b600060405180830381600087803b15801561152057600080fd5b505af1158015611534573d6000803e3d6000fd5b505050507f84fad793fc72a4890032a0a48ea25fb57401690403f128ee2aaf047af876291c846040516115679190614422565b60405180910390a150505050565b60606115816002613750565b905090565b600061159c82600661369990919063ffffffff16565b9050919050565b6115ab6137e2565b73ffffffffffffffffffffffffffffffffffffffff166115c961214d565b73ffffffffffffffffffffffffffffffffffffffff161461161f576040517f08c379a0000000000000000000000000000000000000000000000000000000008152600401611616906148f9565b60405180910390fd5b6116338160036135e690919063ffffffff16565b7f5a8fb443d09cf1426e80f80dd509757d71d4687674ab4adad906c5e2b6e1e62c81604051611662919061406a565b60405180910390a150565b8073ffffffffffffffffffffffffffffffffffffffff163373ffffffffffffffffffffffffffffffffffffffff16146116db576040517f08c379a00000000000000000000000000000000000000000000000000000000081526004016116d290614965565b60405180910390fd5b6116ef8160066137ea90919063ffffffff16565b7f4709990004724f283154297c090b8420d74dcbf9ffcd6bc50294e7350c7cb4fc8160405161171e919061406a565b60405180910390a150565b6060600f600083815260200190815260200160002080548060200260200160405190810160405280929190818152602001828054801561178857602002820191906000526020600020905b815481526020019060010190808311611774575b50505050509050919050565b61179c6137e2565b73ffffffffffffffffffffffffffffffffffffffff166117ba61214d565b73ffffffffffffffffffffffffffffffffffffffff1614611810576040517f08c379a0000000000000000000000000000000000000000000000000000000008152600401611807906148f9565b60405180910390fd5b6118248160016135e690919063ffffffff16565b7fa3da795b47eb190084f878e63c07509e5f6df63ebc51443c0ccab2fc11c0d88381604051611853919061406a565b60405180910390a150565b6118666137e2565b73ffffffffffffffffffffffffffffffffffffffff1661188461214d565b73ffffffffffffffffffffffffffffffffffffffff16146118da576040517f08c379a00000000000000000000000000000000000000000000000000000000081526004016118d1906148f9565b60405180910390fd5b6118ee8160036137ea90919063ffffffff16565b7f3d4e7057f9f992c8d86344002642adf5d5cd33816b302134e7ef5e0f045a6e788160405161191d919061406a565b60405180910390a150565b6119306137e2565b73ffffffffffffffffffffffffffffffffffffffff1661194e61214d565b73ffffffffffffffffffffffffffffffffffffffff16146119a4576040517f08c379a000000000000000000000000000000000000000000000000000000000815260040161199b906148f9565b60405180910390fd5b6119b88160016137ea90919063ffffffff16565b7fccc03dfae55d568292686488ccd27bcdc249a89347bf1c13a2115a29062618b7816040516119e7919061406a565b60405180910390a150565b6119fa6137e2565b73ffffffffffffffffffffffffffffffffffffffff16611a1861214d565b73ffffffffffffffffffffffffffffffffffffffff1614611a6e576040517f08c379a0000000000000000000000000000000000000000000000000000000008152600401611a65906148f9565b60405180910390fd5b611a828160046137ea90919063ffffffff16565b7f43dd2f8ce4e5873e618ffabcae9856729ea5811dbc5e1c9be4365fcf7b7cf70381604051611ab1919061406a565b60405180910390a150565b6060611ac86004613750565b905090565b6060600d6000838152602001908152602001600020805480602002602001604051908101604052809291908181526020018280548015611b2c57602002820191906000526020600020905b815481526020019060010190808311611b18575b50505050509050919050565b8073ffffffffffffffffffffffffffffffffffffffff163373ffffffffffffffffffffffffffffffffffffffff1614611ba6576040517f08c379a0000000000000000000000000000000000000000000000000000000008152600401611b9d90614965565b60405180910390fd5b611bba8160046137ea90919063ffffffff16565b7f43dd2f8ce4e5873e618ffabcae9856729ea5811dbc5e1c9be4365fcf7b7cf70381604051611be9919061406a565b60405180910390a150565b6000611c0a82600561369990919063ffffffff16565b9050919050565b6060611c1d6006613750565b905090565b611c2a6137e2565b73ffffffffffffffffffffffffffffffffffffffff16611c4861214d565b73ffffffffffffffffffffffffffffffffffffffff1614611c9e576040517f08c379a0000000000000000000000000000000000000000000000000000000008152600401611c95906148f9565b60405180910390fd5b611cb28160056137ea90919063ffffffff16565b7f200c3f073f217cf07dee57ee6e42c29e5fa6937f536b65c9d1e06be1f9c83dc181604051611ce1919061406a565b60405180910390a150565b611cf46137e2565b73ffffffffffffffffffffffffffffffffffffffff16611d1261214d565b73ffffffffffffffffffffffffffffffffffffffff1614611d68576040517f08c379a0000000000000000000000000000000000000000000000000000000008152600401611d5f906148f9565b60405180910390fd5b611d726000613994565b565b611d7c6137e2565b73ffffffffffffffffffffffffffffffffffffffff16611d9a61214d565b73ffffffffffffffffffffffffffffffffffffffff1614611df0576040517f08c379a0000000000000000000000000000000000000000000000000000000008152600401611de7906148f9565b60405180910390fd5b611e048160046135e690919063ffffffff16565b7f3afd547f7eb357741de51229846ae795cb06449e4b4032eb34a7cc0a751e25c181604051611e33919061406a565b60405180910390a150565b8073ffffffffffffffffffffffffffffffffffffffff163373ffffffffffffffffffffffffffffffffffffffff1614611eac576040517f08c379a0000000000000000000000000000000000000000000000000000000008152600401611ea390614965565b60405180910390fd5b611ec08160016137ea90919063ffffffff16565b7fccc03dfae55d568292686488ccd27bcdc249a89347bf1c13a2115a29062618b781604051611eef919061406a565b60405180910390a150565b611f026137e2565b73ffffffffffffffffffffffffffffffffffffffff16611f2061214d565b73ffffffffffffffffffffffffffffffffffffffff1614611f76576040517f08c379a0000000000000000000000000000000000000000000000000000000008152600401611f6d906148f9565b60405180910390fd5b611f8a8160026135e690919063ffffffff16565b7f364ee90eb63717b99192fdb951c7b1aa91a45bca11ac73ab40cfad762631fbce81604051611fb9919061406a565b60405180910390a150565b8073ffffffffffffffffffffffffffffffffffffffff163373ffffffffffffffffffffffffffffffffffffffff1614612032576040517f08c379a000000000000000000000000000000000000000000000000000000000815260040161202990614965565b60405180910390fd5b6120468160036137ea90919063ffffffff16565b7f3d4e7057f9f992c8d86344002642adf5d5cd33816b302134e7ef5e0f045a6e7881604051612075919061406a565b60405180910390a150565b8073ffffffffffffffffffffffffffffffffffffffff163373ffffffffffffffffffffffffffffffffffffffff16146120ee576040517f08c379a00000000000000000000000000000000000000000000000000000000081526004016120e590614965565b60405180910390fd5b6121028160026137ea90919063ffffffff16565b7f9cfe362d8a536c3b63d391e311186b7f259fdd498eecf5d32626fe9b95058a7d81604051612131919061406a565b60405180910390a150565b60606121486003613750565b905090565b60008060009054906101000a900473ffffffffffffffffffffffffffffffffffffffff16905090565b61217e6137e2565b73ffffffffffffffffffffffffffffffffffffffff1661219c61214d565b73ffffffffffffffffffffffffffffffffffffffff16146121f2576040517f08c379a00000000000000000000000000000000000000000000000000000000081526004016121e9906148f9565b60405180910390fd5b6122068160066137ea90919063ffffffff16565b7f4709990004724f283154297c090b8420d74dcbf9ffcd6bc50294e7350c7cb4fc81604051612235919061406a565b60405180910390a150565b6122486137e2565b73ffffffffffffffffffffffffffffffffffffffff1661226661214d565b73ffffffffffffffffffffffffffffffffffffffff16146122bc576040517f08c379a00000000000000000000000000000000000000000000000000000000081526004016122b3906148f9565b60405180910390fd5b6122d08160056135e690919063ffffffff16565b7f0eea60f9e1851b51feed56c339be177ea715591923622a0effe46dbb8885efa6816040516122ff919061406a565b60405180910390a150565b600061232082600461369990919063ffffffff16565b9050919050565b612330336135c9565b61236f576040517f08c379a0000000000000000000000000000000000000000000000000000000008152600401612366906149d1565b60405180910390fd5b600061237b6008613a58565b90506000604051806101200160405280838152602001600060048111156123a5576123a4614186565b5b8152602001868152602001858152602001848152602001600081526020013373ffffffffffffffffffffffffffffffffffffffff168152602001600073ffffffffffffffffffffffffffffffffffffffff168152602001600073ffffffffffffffffffffffffffffffffffffffff16815250905080600960008481526020019081526020016000206000820151816000015560208201518160010160006101000a81548160ff0219169083600481111561246257612461614186565b5b021790555060408201518160020155606082015181600301556080820151816004015560a0820151816005015560c08201518160060160006101000a81548173ffffffffffffffffffffffffffffffffffffffff021916908373ffffffffffffffffffffffffffffffffffffffff16021790555060e08201518160070160006101000a81548173ffffffffffffffffffffffffffffffffffffffff021916908373ffffffffffffffffffffffffffffffffffffffff1602179055506101008201518160080160006101000a81548173ffffffffffffffffffffffffffffffffffffffff021916908373ffffffffffffffffffffffffffffffffffffffff160217905550905050600760009054906101000a900473ffffffffffffffffffffffffffffffffffffffff1673ffffffffffffffffffffffffffffffffffffffff1663156e29f6338460016040518463ffffffff1660e01b81526004016125c8939291906149f1565b600060405180830381600087803b1580156125e257600080fd5b505af11580156125f6573d6000803e3d6000fd5b505050506126046008613a66565b7f8dba83ab26c4e67ac150487b6c119e69498289b9cc6c7dfd77fd0df2e671b48b826040516126339190614422565b60405180910390a15050505050565b61264a6137e2565b73ffffffffffffffffffffffffffffffffffffffff1661266861214d565b73ffffffffffffffffffffffffffffffffffffffff16146126be576040517f08c379a00000000000000000000000000000000000000000000000000000000081526004016126b5906148f9565b60405180910390fd5b6126d28160066135e690919063ffffffff16565b7f23b2415a50efd127e694ba174e400d457ad65c58752e171b6d17f3f5daa26fdb81604051612701919061406a565b60405180910390a150565b600061272282600261369990919063ffffffff16565b9050919050565b60606127356001613750565b905090565b612743336108b5565b61274c57600080fd5b6001831161275957600080fd5b60006009600086815260200190815260200160002060405180610120016040529081600082015481526020016001820160009054906101000a900460ff1660048111156127a9576127a8614186565b5b60048111156127bb576127ba614186565b5b8152602001600282015481526020016003820154815260200160048201548152602001600582015481526020016006820160009054906101000a900473ffffffffffffffffffffffffffffffffffffffff1673ffffffffffffffffffffffffffffffffffffffff1673ffffffffffffffffffffffffffffffffffffffff1681526020016007820160009054906101000a900473ffffffffffffffffffffffffffffffffffffffff1673ffffffffffffffffffffffffffffffffffffffff1673ffffffffffffffffffffffffffffffffffffffff1681526020016008820160009054906101000a900473ffffffffffffffffffffffffffffffffffffffff1673ffffffffffffffffffffffffffffffffffffffff1673ffffffffffffffffffffffffffffffffffffffff1681525050905060028160200190600481111561290457612903614186565b5b9081600481111561291857612917614186565b5b81525050838160a0018181525050600760009054906101000a900473ffffffffffffffffffffffffffffffffffffffff1673ffffffffffffffffffffffffffffffffffffffff1663156e29f633876001886129739190614a28565b6040518463ffffffff1660e01b815260040161299193929190614a5c565b600060405180830381600087803b1580156129ab57600080fd5b505af11580156129bf573d6000803e3d6000fd5b505050506000805b8451811015612c52576129f38582815181106129e6576129e561443d565b5b602002602001015161230a565b612a32576040517f08c379a0000000000000000000000000000000000000000000000000000000008152600401612a2990614b05565b60405180910390fd5b600b6000888152602001908152602001600020858281518110612a5857612a5761443d565b5b60200260200101519080600181540180825580915050600190039060005260206000200160009091909190916101000a81548173ffffffffffffffffffffffffffffffffffffffff021916908373ffffffffffffffffffffffffffffffffffffffff160217905550600c6000888152602001908152602001600020848281518110612ae657612ae561443d565b5b60200260200101519080600181540180825580915050600190039060005260206000200160009091909190915055600d6000888152602001908152602001600020829080600181540180825580915050600190039060005260206000200160009091909190915055600760009054906101000a900473ffffffffffffffffffffffffffffffffffffffff1673ffffffffffffffffffffffffffffffffffffffff1663e51a27ce33878481518110612ba057612b9f61443d565b5b60200260200101518a888681518110612bbc57612bbb61443d565b5b6020026020010151876040518663ffffffff1660e01b8152600401612be5959493929190614679565b600060405180830381600087803b158015612bff57600080fd5b505af1158015612c13573d6000803e3d6000fd5b50505050838181518110612c2a57612c2961443d565b5b602002602001015182612c3d91906146df565b91508080612c4a9061449b565b9150506129c7565b5081600960008881526020019081526020016000206000820151816000015560208201518160010160006101000a81548160ff02191690836004811115612c9c57612c9b614186565b5b021790555060408201518160020155606082015181600301556080820151816004015560a0820151816005015560c08201518160060160006101000a81548173ffffffffffffffffffffffffffffffffffffffff021916908373ffffffffffffffffffffffffffffffffffffffff16021790555060e08201518160070160006101000a81548173ffffffffffffffffffffffffffffffffffffffff021916908373ffffffffffffffffffffffffffffffffffffffff1602179055506101008201518160080160006101000a81548173ffffffffffffffffffffffffffffffffffffffff021916908373ffffffffffffffffffffffffffffffffffffffff1602179055509050506000600a60008460e0015173ffffffffffffffffffffffffffffffffffffffff1673ffffffffffffffffffffffffffffffffffffffff1681526020019081526020016000208054905090506000811115612f145760005b81811015612f125787600a60008660e0015173ffffffffffffffffffffffffffffffffffffffff1673ffffffffffffffffffffffffffffffffffffffff1681526020019081526020016000208281548110612e5757612e5661443d565b5b9060005260206000209060090201600001541415612eff576002600a60008660e0015173ffffffffffffffffffffffffffffffffffffffff1673ffffffffffffffffffffffffffffffffffffffff1681526020019081526020016000208281548110612ec657612ec561443d565b5b906000526020600020906009020160010160006101000a81548160ff02191690836004811115612ef957612ef8614186565b5b02179055505b8080612f0a9061449b565b915050612df9565b505b7f01e7f4af78fe812a5df0e0b3c5b400eff1cd1366eca03a2261de317ae5f6727b87604051612f439190614422565b60405180910390a150505050505050565b60096020528060005260406000206000915090508060000154908060010160009054906101000a900460ff16908060020154908060030154908060040154908060050154908060060160009054906101000a900473ffffffffffffffffffffffffffffffffffffffff16908060070160009054906101000a900473ffffffffffffffffffffffffffffffffffffffff16908060080160009054906101000a900473ffffffffffffffffffffffffffffffffffffffff16905089565b6060600a60008373ffffffffffffffffffffffffffffffffffffffff1673ffffffffffffffffffffffffffffffffffffffff168152602001908152602001600020805480602002602001604051908101604052809291908181526020016000905b82821015613212578382906000526020600020906009020160405180610120016040529081600082015481526020016001820160009054906101000a900460ff1660048111156130c3576130c2614186565b5b60048111156130d5576130d4614186565b5b8152602001600282015481526020016003820154815260200160048201548152602001600582015481526020016006820160009054906101000a900473ffffffffffffffffffffffffffffffffffffffff1673ffffffffffffffffffffffffffffffffffffffff1673ffffffffffffffffffffffffffffffffffffffff1681526020016007820160009054906101000a900473ffffffffffffffffffffffffffffffffffffffff1673ffffffffffffffffffffffffffffffffffffffff1673ffffffffffffffffffffffffffffffffffffffff1681526020016008820160009054906101000a900473ffffffffffffffffffffffffffffffffffffffff1673ffffffffffffffffffffffffffffffffffffffff1673ffffffffffffffffffffffffffffffffffffffff168152505081526020019060010190613070565b505050509050919050565b6060600b60008381526020019081526020016000208054806020026020016040519081016040528092919081815260200182805480156132b257602002820191906000526020600020905b8160009054906101000a900473ffffffffffffffffffffffffffffffffffffffff1673ffffffffffffffffffffffffffffffffffffffff1681526020019060010190808311613268575b50505050509050919050565b6132c66137e2565b73ffffffffffffffffffffffffffffffffffffffff166132e461214d565b73ffffffffffffffffffffffffffffffffffffffff161461333a576040517f08c379a0000000000000000000000000000000000000000000000000000000008152600401613331906148f9565b60405180910390fd5b61334e8160026137ea90919063ffffffff16565b7f9cfe362d8a536c3b63d391e311186b7f259fdd498eecf5d32626fe9b95058a7d8160405161337d919061406a565b60405180910390a150565b6060600c60008381526020019081526020016000208054806020026020016040519081016040528092919081815260200182805480156133e757602002820191906000526020600020905b8154815260200190600101908083116133d3575b50505050509050919050565b8073ffffffffffffffffffffffffffffffffffffffff163373ffffffffffffffffffffffffffffffffffffffff1614613461576040517f08c379a000000000000000000000000000000000000000000000000000000000815260040161345890614965565b60405180910390fd5b6134758160056137ea90919063ffffffff16565b7f200c3f073f217cf07dee57ee6e42c29e5fa6937f536b65c9d1e06be1f9c83dc1816040516134a4919061406a565b60405180910390a150565b60006134bb6008613a58565b905090565b6134c86137e2565b73ffffffffffffffffffffffffffffffffffffffff166134e661214d565b73ffffffffffffffffffffffffffffffffffffffff161461353c576040517f08c379a0000000000000000000000000000000000000000000000000000000008152600401613533906148f9565b60405180910390fd5b600073ffffffffffffffffffffffffffffffffffffffff168173ffffffffffffffffffffffffffffffffffffffff1614156135ac576040517f08c379a00000000000000000000000000000000000000000000000000000000081526004016135a390614b97565b60405180910390fd5b6135b581613994565b50565b60606135c46005613750565b905090565b60006135df82600161369990919063ffffffff16565b9050919050565b6135f08282613699565b15613630576040517f08c379a000000000000000000000000000000000000000000000000000000000815260040161362790614c03565b60405180910390fd5b81600001819080600181540180825580915050600190039060005260206000200160009091909190916101000a81548173ffffffffffffffffffffffffffffffffffffffff021916908373ffffffffffffffffffffffffffffffffffffffff1602179055505050565b6000808360000180549050905060005b81811015613743578373ffffffffffffffffffffffffffffffffffffffff168560000182815481106136de576136dd61443d565b5b9060005260206000200160009054906101000a900473ffffffffffffffffffffffffffffffffffffffff1673ffffffffffffffffffffffffffffffffffffffff1614156137305760019250505061374a565b808061373b9061449b565b9150506136a9565b5060009150505b92915050565b6060816000018054806020026020016040519081016040528092919081815260200182805480156137d657602002820191906000526020600020905b8160009054906101000a900473ffffffffffffffffffffffffffffffffffffffff1673ffffffffffffffffffffffffffffffffffffffff168152602001906001019080831161378c575b50505050509050919050565b600033905090565b600082600001805490509050600080600090505b828110156139445781156138b8578460000181815481106138225761382161443d565b5b9060005260206000200160009054906101000a900473ffffffffffffffffffffffffffffffffffffffff168560000160018361385e9190614a28565b8154811061386f5761386e61443d565b5b9060005260206000200160006101000a81548173ffffffffffffffffffffffffffffffffffffffff021916908373ffffffffffffffffffffffffffffffffffffffff1602179055505b8373ffffffffffffffffffffffffffffffffffffffff168560000182815481106138e5576138e461443d565b5b9060005260206000200160009054906101000a900473ffffffffffffffffffffffffffffffffffffffff1673ffffffffffffffffffffffffffffffffffffffff16141561393157600191505b808061393c9061449b565b9150506137fe565b508360000180548061395957613958614c23565b5b6001900381819060005260206000200160006101000a81549073ffffffffffffffffffffffffffffffffffffffff0219169055905550505050565b60008060009054906101000a900473ffffffffffffffffffffffffffffffffffffffff169050816000806101000a81548173ffffffffffffffffffffffffffffffffffffffff021916908373ffffffffffffffffffffffffffffffffffffffff1602179055508173ffffffffffffffffffffffffffffffffffffffff168173ffffffffffffffffffffffffffffffffffffffff167f8be0079c531659141344cd1fd0a4f28419497f9722a3daafe3b4186f6b6457e060405160405180910390a35050565b600081600001549050919050565b6001816000016000828254019250508190555050565b6000604051905090565b600080fd5b600080fd5b600073ffffffffffffffffffffffffffffffffffffffff82169050919050565b6000613abb82613a90565b9050919050565b613acb81613ab0565b8114613ad657600080fd5b50565b600081359050613ae881613ac2565b92915050565b600060208284031215613b0457613b03613a86565b5b6000613b1284828501613ad9565b91505092915050565b60008115159050919050565b613b3081613b1b565b82525050565b6000602082019050613b4b6000830184613b27565b92915050565b6000819050919050565b613b6481613b51565b8114613b6f57600080fd5b50565b600081359050613b8181613b5b565b92915050565b600080fd5b6000601f19601f8301169050919050565b7f4e487b7100000000000000000000000000000000000000000000000000000000600052604160045260246000fd5b613bd582613b8c565b810181811067ffffffffffffffff82111715613bf457613bf3613b9d565b5b80604052505050565b6000613c07613a7c565b9050613c138282613bcc565b919050565b600067ffffffffffffffff821115613c3357613c32613b9d565b5b602082029050602081019050919050565b600080fd5b6000613c5c613c5784613c18565b613bfd565b90508083825260208201905060208402830185811115613c7f57613c7e613c44565b5b835b81811015613ca85780613c948882613ad9565b845260208401935050602081019050613c81565b5050509392505050565b600082601f830112613cc757613cc6613b87565b5b8135613cd7848260208601613c49565b91505092915050565b600067ffffffffffffffff821115613cfb57613cfa613b9d565b5b602082029050602081019050919050565b6000613d1f613d1a84613ce0565b613bfd565b90508083825260208201905060208402830185811115613d4257613d41613c44565b5b835b81811015613d6b5780613d578882613b72565b845260208401935050602081019050613d44565b5050509392505050565b600082601f830112613d8a57613d89613b87565b5b8135613d9a848260208601613d0c565b91505092915050565b600080600060608486031215613dbc57613dbb613a86565b5b6000613dca86828701613b72565b935050602084013567ffffffffffffffff811115613deb57613dea613a8b565b5b613df786828701613cb2565b925050604084013567ffffffffffffffff811115613e1857613e17613a8b565b5b613e2486828701613d75565b9150509250925092565b600060208284031215613e4457613e43613a86565b5b6000613e5284828501613b72565b91505092915050565b600081519050919050565b600082825260208201905092915050565b6000819050602082019050919050565b613e9081613b51565b82525050565b6000613ea28383613e87565b60208301905092915050565b6000602082019050919050565b6000613ec682613e5b565b613ed08185613e66565b9350613edb83613e77565b8060005b83811015613f0c578151613ef38882613e96565b9750613efe83613eae565b925050600181019050613edf565b5085935050505092915050565b60006020820190508181036000830152613f338184613ebb565b905092915050565b600081519050919050565b600082825260208201905092915050565b6000819050602082019050919050565b613f7081613ab0565b82525050565b6000613f828383613f67565b60208301905092915050565b6000602082019050919050565b6000613fa682613f3b565b613fb08185613f46565b9350613fbb83613f57565b8060005b83811015613fec578151613fd38882613f76565b9750613fde83613f8e565b925050600181019050613fbf565b5085935050505092915050565b600060208201905081810360008301526140138184613f9b565b905092915050565b6000806040838503121561403257614031613a86565b5b600061404085828601613b72565b925050602061405185828601613ad9565b9150509250929050565b61406481613ab0565b82525050565b600060208201905061407f600083018461405b565b92915050565b60008060006060848603121561409e5761409d613a86565b5b60006140ac86828701613b72565b93505060206140bd86828701613b72565b92505060406140ce86828701613b72565b9150509250925092565b600080600080608085870312156140f2576140f1613a86565b5b600061410087828801613b72565b945050602061411187828801613b72565b935050604085013567ffffffffffffffff81111561413257614131613a8b565b5b61413e87828801613cb2565b925050606085013567ffffffffffffffff81111561415f5761415e613a8b565b5b61416b87828801613d75565b91505092959194509250565b61418081613b51565b82525050565b7f4e487b7100000000000000000000000000000000000000000000000000000000600052602160045260246000fd5b600581106141c6576141c5614186565b5b50565b60008190506141d7826141b5565b919050565b60006141e7826141c9565b9050919050565b6141f7816141dc565b82525050565b600061012082019050614213600083018c614177565b614220602083018b6141ee565b61422d604083018a614177565b61423a6060830189614177565b6142476080830188614177565b61425460a0830187614177565b61426160c083018661405b565b61426e60e083018561405b565b61427c61010083018461405b565b9a9950505050505050505050565b600081519050919050565b600082825260208201905092915050565b6000819050602082019050919050565b6142bf816141dc565b82525050565b610120820160008201516142dc6000850182613e87565b5060208201516142ef60208501826142b6565b5060408201516143026040850182613e87565b5060608201516143156060850182613e87565b5060808201516143286080850182613e87565b5060a082015161433b60a0850182613e87565b5060c082015161434e60c0850182613f67565b5060e082015161436160e0850182613f67565b50610100820151614376610100850182613f67565b50505050565b600061438883836142c5565b6101208301905092915050565b6000602082019050919050565b60006143ad8261428a565b6143b78185614295565b93506143c2836142a6565b8060005b838110156143f35781516143da888261437c565b97506143e583614395565b9250506001810190506143c6565b5085935050505092915050565b6000602082019050818103600083015261441a81846143a2565b905092915050565b60006020820190506144376000830184614177565b92915050565b7f4e487b7100000000000000000000000000000000000000000000000000000000600052603260045260246000fd5b7f4e487b7100000000000000000000000000000000000000000000000000000000600052601160045260246000fd5b60006144a682613b51565b91507fffffffffffffffffffffffffffffffffffffffffffffffffffffffffffffffff8214156144d9576144d861446c565b5b600182019050919050565b60006040820190506144f96000830185614177565b6145066020830184614177565b9392505050565b600082825260208201905092915050565b7f4449535452494255544f5220494e5445524e414c204552524f52000000000000600082015250565b6000614554601a8361450d565b915061455f8261451e565b602082019050919050565b6000602082019050818103600083015261458381614547565b9050919050565b7f4e4f5420412056414c49442052455441494c455220414444524553532021205060008201527f4c4541534520434f4e544143542041444d494e00000000000000000000000000602082015250565b60006145e660338361450d565b91506145f18261458a565b604082019050919050565b60006020820190508181036000830152614615816145d9565b9050919050565b600082825260208201905092915050565b7f3078303000000000000000000000000000000000000000000000000000000000600082015250565b600061466360048361461c565b915061466e8261462d565b602082019050919050565b600060c08201905061468e600083018861405b565b61469b602083018761405b565b6146a86040830186614177565b6146b56060830185614177565b81810360808301526146c681614656565b90506146d560a0830184614177565b9695505050505050565b60006146ea82613b51565b91506146f583613b51565b9250827fffffffffffffffffffffffffffffffffffffffffffffffffffffffffffffffff0382111561472a5761472961446c565b5b828201905092915050565b7f4e4f5420412056414c49442057415245484f555345204144445245535320212060008201527f504c4541534520434f4e544143542041444d494e000000000000000000000000602082015250565b600061479160348361450d565b915061479c82614735565b604082019050919050565b600060208201905081810360008301526147c081614784565b9050919050565b6000819050919050565b6000819050919050565b60006147f66147f16147ec846147c7565b6147d1565b613b51565b9050919050565b614806816147db565b82525050565b6000819050919050565b600061483161482c6148278461480c565b6147d1565b613b51565b9050919050565b61484181614816565b82525050565b600060c08201905061485c600083018861405b565b614869602083018761405b565b6148766040830186614177565b61488360608301856147fd565b818103608083015261489481614656565b90506148a360a0830184614838565b9695505050505050565b7f4f776e61626c653a2063616c6c6572206973206e6f7420746865206f776e6572600082015250565b60006148e360208361450d565b91506148ee826148ad565b602082019050919050565b60006020820190508181036000830152614912816148d6565b9050919050565b7f594f555f43414e5f4e4f545f524f4d4f56455f544849535f4144445245535300600082015250565b600061494f601f8361450d565b915061495a82614919565b602082019050919050565b6000602082019050818103600083015261497e81614942565b9050919050565b7f4e6f74206120526177204d6174657269616c20537570706c6965720000000000600082015250565b60006149bb601b8361450d565b91506149c682614985565b602082019050919050565b600060208201905081810360008301526149ea816149ae565b9050919050565b6000606082019050614a06600083018661405b565b614a136020830185614177565b614a2060408301846147fd565b949350505050565b6000614a3382613b51565b9150614a3e83613b51565b925082821015614a5157614a5061446c565b5b828203905092915050565b6000606082019050614a71600083018661405b565b614a7e6020830185614177565b614a8b6040830184614177565b949350505050565b7f4e4f5420412056414c4944204449535452494255544f5220414444524553532060008201527f2120504c4541534520434f4e544143542041444d494e00000000000000000000602082015250565b6000614aef60368361450d565b9150614afa82614a93565b604082019050919050565b60006020820190508181036000830152614b1e81614ae2565b9050919050565b7f4f776e61626c653a206e6577206f776e657220697320746865207a65726f206160008201527f6464726573730000000000000000000000000000000000000000000000000000602082015250565b6000614b8160268361450d565b9150614b8c82614b25565b604082019050919050565b60006020820190508181036000830152614bb081614b74565b9050919050565b7f524f4c455f414c52454144595f45584953545300000000000000000000000000600082015250565b6000614bed60138361450d565b9150614bf882614bb7565b602082019050919050565b60006020820190508181036000830152614c1c81614be0565b9050919050565b7f4e487b7100000000000000000000000000000000000000000000000000000000600052603160045260246000fdfea2646970667358221220f33071d893da461a440f18d0cbf6458348ffac862e352939188fe046f3354c8264736f6c63430008080033",
  "linkReferences": {},
  "deployedLinkReferences": {}
}