{
  "_format": "hh-sol-artifact-1",
  "contractName": "Supplychain",
  "sourceName": "contracts/Supplychain.sol",
  "abi": [
    {
      "inputs": [
        {
          "internalType": "address",
          "name": "_supplychainToken",
          "type": "address"
        }
      ],
      "stateMutability": "nonpayable",
      "type": "constructor"
    },
    {
      "anonymous": false,
      "inputs": [
        {
          "indexed": false,
          "internalType": "address",
          "name": "_address",
          "type": "address"
        }
      ],
      "name": "AddCustomer",
      "type": "event"
    },
    {
      "anonymous": false,
      "inputs": [
        {
          "indexed": false,
          "internalType": "address",
          "name": "_address",
          "type": "address"
        }
      ],
      "name": "AddDistributor",
      "type": "event"
    },
    {
      "anonymous": false,
      "inputs": [
        {
          "indexed": false,
          "internalType": "address",
          "name": "_address",
          "type": "address"
        }
      ],
      "name": "AddFactory",
      "type": "event"
    },
    {
      "anonymous": false,
      "inputs": [
        {
          "indexed": false,
          "internalType": "address",
          "name": "_address",
          "type": "address"
        }
      ],
      "name": "AddRawMaterialSupplier",
      "type": "event"
    },
    {
      "anonymous": false,
      "inputs": [
        {
          "indexed": false,
          "internalType": "address",
          "name": "_address",
          "type": "address"
        }
      ],
      "name": "AddRetailer",
      "type": "event"
    },
    {
      "anonymous": false,
      "inputs": [
        {
          "indexed": false,
          "internalType": "address",
          "name": "_address",
          "type": "address"
        }
      ],
      "name": "AddWarehouse",
      "type": "event"
    },
    {
      "anonymous": false,
      "inputs": [
        {
          "indexed": false,
          "internalType": "uint256",
          "name": "_supplyChainId",
          "type": "uint256"
        }
      ],
      "name": "DistributorSellToRetailer",
      "type": "event"
    },
    {
      "anonymous": false,
      "inputs": [
        {
          "indexed": false,
          "internalType": "uint256",
          "name": "_supplyChainId",
          "type": "uint256"
        }
      ],
      "name": "FactoryBuyRawMaterial",
      "type": "event"
    },
    {
      "anonymous": false,
      "inputs": [
        {
          "indexed": false,
          "internalType": "uint256",
          "name": "_supplyChainId",
          "type": "uint256"
        }
      ],
      "name": "FactorySellItemToDistributors",
      "type": "event"
    },
    {
      "anonymous": false,
      "inputs": [
        {
          "indexed": true,
          "internalType": "address",
          "name": "previousOwner",
          "type": "address"
        },
        {
          "indexed": true,
          "internalType": "address",
          "name": "newOwner",
          "type": "address"
        }
      ],
      "name": "OwnershipTransferred",
      "type": "event"
    },
    {
      "anonymous": false,
      "inputs": [
        {
          "indexed": false,
          "internalType": "uint256",
          "name": "_supplyChainId",
          "type": "uint256"
        }
      ],
      "name": "RawMaterialSupplierSuppliesRM",
      "type": "event"
    },
    {
      "anonymous": false,
      "inputs": [
        {
          "indexed": false,
          "internalType": "address",
          "name": "_address",
          "type": "address"
        }
      ],
      "name": "RemoveCustomer",
      "type": "event"
    },
    {
      "anonymous": false,
      "inputs": [
        {
          "indexed": false,
          "internalType": "address",
          "name": "_address",
          "type": "address"
        }
      ],
      "name": "RemoveDistributor",
      "type": "event"
    },
    {
      "anonymous": false,
      "inputs": [
        {
          "indexed": false,
          "internalType": "address",
          "name": "_address",
          "type": "address"
        }
      ],
      "name": "RemoveFactory",
      "type": "event"
    },
    {
      "anonymous": false,
      "inputs": [
        {
          "indexed": false,
          "internalType": "address",
          "name": "_address",
          "type": "address"
        }
      ],
      "name": "RemoveRawMaterialSupplier",
      "type": "event"
    },
    {
      "anonymous": false,
      "inputs": [
        {
          "indexed": false,
          "internalType": "address",
          "name": "_address",
          "type": "address"
        }
      ],
      "name": "RemoveRetailer",
      "type": "event"
    },
    {
      "anonymous": false,
      "inputs": [
        {
          "indexed": false,
          "internalType": "address",
          "name": "_address",
          "type": "address"
        }
      ],
      "name": "RemoveWarehouse",
      "type": "event"
    },
    {
      "anonymous": false,
      "inputs": [
        {
          "indexed": false,
          "internalType": "uint256",
          "name": "_supplyChainId",
          "type": "uint256"
        }
      ],
      "name": "RetailerSellToCustomer",
      "type": "event"
    },
    {
      "anonymous": false,
      "inputs": [
        {
          "indexed": false,
          "internalType": "uint256",
          "name": "a",
          "type": "uint256"
        },
        {
          "indexed": false,
          "internalType": "uint256",
          "name": "b",
          "type": "uint256"
        }
      ],
      "name": "valueeeeeeee",
      "type": "event"
    },
    {
      "inputs": [
        {
          "internalType": "address",
          "name": "_address",
          "type": "address"
        }
      ],
      "name": "addCustomer",
      "outputs": [],
      "stateMutability": "nonpayable",
      "type": "function"
    },
    {
      "inputs": [
        {
          "internalType": "address",
          "name": "_address",
          "type": "address"
        }
      ],
      "name": "addDistributor",
      "outputs": [],
      "stateMutability": "nonpayable",
      "type": "function"
    },
    {
      "inputs": [
        {
          "internalType": "address",
          "name": "_address",
          "type": "address"
        }
      ],
      "name": "addFactory",
      "outputs": [],
      "stateMutability": "nonpayable",
      "type": "function"
    },
    {
      "inputs": [
        {
          "internalType": "address",
          "name": "_address",
          "type": "address"
        }
      ],
      "name": "addRawMaterialSupplier",
      "outputs": [],
      "stateMutability": "nonpayable",
      "type": "function"
    },
    {
      "inputs": [
        {
          "internalType": "address",
          "name": "_address",
          "type": "address"
        }
      ],
      "name": "addRetailer",
      "outputs": [],
      "stateMutability": "nonpayable",
      "type": "function"
    },
    {
      "inputs": [
        {
          "internalType": "address",
          "name": "_address",
          "type": "address"
        }
      ],
      "name": "addWarehouse",
      "outputs": [],
      "stateMutability": "nonpayable",
      "type": "function"
    },
    {
      "inputs": [
        {
          "internalType": "uint256",
          "name": "_supplyChainId",
          "type": "uint256"
        },
        {
          "internalType": "address[]",
          "name": "retailers",
          "type": "address[]"
        },
        {
          "internalType": "uint256[]",
          "name": "quantity",
          "type": "uint256[]"
        }
      ],
      "name": "distributorSellToRetailer",
      "outputs": [],
      "stateMutability": "nonpayable",
      "type": "function"
    },
    {
      "inputs": [
        {
          "internalType": "uint256",
          "name": "_supplyChainId",
          "type": "uint256"
        },
        {
          "internalType": "address",
          "name": "_warehouse",
          "type": "address"
        }
      ],
      "name": "factoryBuyRawMaterial",
      "outputs": [],
      "stateMutability": "nonpayable",
      "type": "function"
    },
    {
      "inputs": [
        {
          "internalType": "uint256",
          "name": "_supplyChainId",
          "type": "uint256"
        },
        {
          "internalType": "uint256",
          "name": "_units",
          "type": "uint256"
        },
        {
          "internalType": "address[]",
          "name": "distributors",
          "type": "address[]"
        },
        {
          "internalType": "uint256[]",
          "name": "quantity",
          "type": "uint256[]"
        }
      ],
      "name": "factorySellItemToDistributors",
      "outputs": [],
      "stateMutability": "nonpayable",
      "type": "function"
    },
    {
      "inputs": [],
      "name": "getCustomer",
      "outputs": [
        {
          "internalType": "address[]",
          "name": "",
          "type": "address[]"
        }
      ],
      "stateMutability": "view",
      "type": "function"
    },
    {
      "inputs": [],
      "name": "getDistributor",
      "outputs": [
        {
          "internalType": "address[]",
          "name": "",
          "type": "address[]"
        }
      ],
      "stateMutability": "view",
      "type": "function"
    },
    {
      "inputs": [
        {
          "internalType": "uint256",
          "name": "_supplychianId",
          "type": "uint256"
        }
      ],
      "name": "getDistributorCounters",
      "outputs": [
        {
          "internalType": "uint256[]",
          "name": "",
          "type": "uint256[]"
        }
      ],
      "stateMutability": "view",
      "type": "function"
    },
    {
      "inputs": [
        {
          "internalType": "uint256",
          "name": "_supplychianId",
          "type": "uint256"
        }
      ],
      "name": "getDistributorUnits",
      "outputs": [
        {
          "internalType": "uint256[]",
          "name": "",
          "type": "uint256[]"
        }
      ],
      "stateMutability": "view",
      "type": "function"
    },
    {
      "inputs": [
        {
          "internalType": "uint256",
          "name": "_supplychianId",
          "type": "uint256"
        }
      ],
      "name": "getDistributors",
      "outputs": [
        {
          "internalType": "address[]",
          "name": "",
          "type": "address[]"
        }
      ],
      "stateMutability": "view",
      "type": "function"
    },
    {
      "inputs": [],
      "name": "getFactory",
      "outputs": [
        {
          "internalType": "address[]",
          "name": "",
          "type": "address[]"
        }
      ],
      "stateMutability": "view",
      "type": "function"
    },
    {
      "inputs": [],
      "name": "getRawMaterialSupplier",
      "outputs": [
        {
          "internalType": "address[]",
          "name": "",
          "type": "address[]"
        }
      ],
      "stateMutability": "view",
      "type": "function"
    },
    {
      "inputs": [],
      "name": "getRetailer",
      "outputs": [
        {
          "internalType": "address[]",
          "name": "",
          "type": "address[]"
        }
      ],
      "stateMutability": "view",
      "type": "function"
    },
    {
      "inputs": [
        {
          "internalType": "uint256",
          "name": "_supplychianId",
          "type": "uint256"
        }
      ],
      "name": "getRetailers",
      "outputs": [
        {
          "internalType": "address[]",
          "name": "",
          "type": "address[]"
        }
      ],
      "stateMutability": "view",
      "type": "function"
    },
    {
      "inputs": [
        {
          "internalType": "uint256",
          "name": "_supplychianId",
          "type": "uint256"
        }
      ],
      "name": "getRetailersCounters",
      "outputs": [
        {
          "internalType": "uint256[]",
          "name": "",
          "type": "uint256[]"
        }
      ],
      "stateMutability": "view",
      "type": "function"
    },
    {
      "inputs": [
        {
          "internalType": "uint256",
          "name": "_supplychianId",
          "type": "uint256"
        }
      ],
      "name": "getRetailersUnits",
      "outputs": [
        {
          "internalType": "uint256[]",
          "name": "",
          "type": "uint256[]"
        }
      ],
      "stateMutability": "view",
      "type": "function"
    },
    {
      "inputs": [],
      "name": "getWarehouse",
      "outputs": [
        {
          "internalType": "address[]",
          "name": "",
          "type": "address[]"
        }
      ],
      "stateMutability": "view",
      "type": "function"
    },
    {
      "inputs": [
        {
          "internalType": "address",
          "name": "warehouse",
          "type": "address"
        }
      ],
      "name": "getWarehouseItems",
      "outputs": [
        {
          "components": [
            {
              "internalType": "uint256",
              "name": "supplyChainId",
              "type": "uint256"
            },
            {
              "internalType": "enum Supplychain.State",
              "name": "itemState",
              "type": "uint8"
            },
            {
              "internalType": "uint256",
              "name": "PolyesterAmount",
              "type": "uint256"
            },
            {
              "internalType": "uint256",
              "name": "CottonAmount",
              "type": "uint256"
            },
            {
              "internalType": "uint256",
              "name": "WoolAmount",
              "type": "uint256"
            },
            {
              "internalType": "uint256",
              "name": "totalUnits",
              "type": "uint256"
            },
            {
              "internalType": "address",
              "name": "RawMaterialSupplierID",
              "type": "address"
            },
            {
              "internalType": "address",
              "name": "warehouseID",
              "type": "address"
            },
            {
              "internalType": "address",
              "name": "factoryID",
              "type": "address"
            }
          ],
          "internalType": "struct Supplychain.Item[]",
          "name": "",
          "type": "tuple[]"
        }
      ],
      "stateMutability": "view",
      "type": "function"
    },
    {
      "inputs": [
        {
          "internalType": "address",
          "name": "_address",
          "type": "address"
        }
      ],
      "name": "isCustomer",
      "outputs": [
        {
          "internalType": "bool",
          "name": "",
          "type": "bool"
        }
      ],
      "stateMutability": "view",
      "type": "function"
    },
    {
      "inputs": [
        {
          "internalType": "address",
          "name": "_address",
          "type": "address"
        }
      ],
      "name": "isDistributor",
      "outputs": [
        {
          "internalType": "bool",
          "name": "",
          "type": "bool"
        }
      ],
      "stateMutability": "view",
      "type": "function"
    },
    {
      "inputs": [
        {
          "internalType": "address",
          "name": "_address",
          "type": "address"
        }
      ],
      "name": "isFactory",
      "outputs": [
        {
          "internalType": "bool",
          "name": "",
          "type": "bool"
        }
      ],
      "stateMutability": "view",
      "type": "function"
    },
    {
      "inputs": [
        {
          "internalType": "address",
          "name": "_address",
          "type": "address"
        }
      ],
      "name": "isRawMaterialSupplier",
      "outputs": [
        {
          "internalType": "bool",
          "name": "",
          "type": "bool"
        }
      ],
      "stateMutability": "view",
      "type": "function"
    },
    {
      "inputs": [
        {
          "internalType": "address",
          "name": "_address",
          "type": "address"
        }
      ],
      "name": "isRetailer",
      "outputs": [
        {
          "internalType": "bool",
          "name": "",
          "type": "bool"
        }
      ],
      "stateMutability": "view",
      "type": "function"
    },
    {
      "inputs": [
        {
          "internalType": "address",
          "name": "_address",
          "type": "address"
        }
      ],
      "name": "isWarehouse",
      "outputs": [
        {
          "internalType": "bool",
          "name": "",
          "type": "bool"
        }
      ],
      "stateMutability": "view",
      "type": "function"
    },
    {
      "inputs": [
        {
          "internalType": "uint256",
          "name": "",
          "type": "uint256"
        }
      ],
      "name": "items",
      "outputs": [
        {
          "internalType": "uint256",
          "name": "supplyChainId",
          "type": "uint256"
        },
        {
          "internalType": "enum Supplychain.State",
          "name": "itemState",
          "type": "uint8"
        },
        {
          "internalType": "uint256",
          "name": "PolyesterAmount",
          "type": "uint256"
        },
        {
          "internalType": "uint256",
          "name": "CottonAmount",
          "type": "uint256"
        },
        {
          "internalType": "uint256",
          "name": "WoolAmount",
          "type": "uint256"
        },
        {
          "internalType": "uint256",
          "name": "totalUnits",
          "type": "uint256"
        },
        {
          "internalType": "address",
          "name": "RawMaterialSupplierID",
          "type": "address"
        },
        {
          "internalType": "address",
          "name": "warehouseID",
          "type": "address"
        },
        {
          "internalType": "address",
          "name": "factoryID",
          "type": "address"
        }
      ],
      "stateMutability": "view",
      "type": "function"
    },
    {
      "inputs": [],
      "name": "owner",
      "outputs": [
        {
          "internalType": "address",
          "name": "",
          "type": "address"
        }
      ],
      "stateMutability": "view",
      "type": "function"
    },
    {
      "inputs": [
        {
          "internalType": "uint256",
          "name": "_polyesterAmount",
          "type": "uint256"
        },
        {
          "internalType": "uint256",
          "name": "_cottonAmount",
          "type": "uint256"
        },
        {
          "internalType": "uint256",
          "name": "_woolAmount",
          "type": "uint256"
        }
      ],
      "name": "rawMaterialSupplierSuppliesRM",
      "outputs": [],
      "stateMutability": "nonpayable",
      "type": "function"
    },
    {
      "inputs": [
        {
          "internalType": "address",
          "name": "_address",
          "type": "address"
        }
      ],
      "name": "removeCustomer",
      "outputs": [],
      "stateMutability": "nonpayable",
      "type": "function"
    },
    {
      "inputs": [
        {
          "internalType": "address",
          "name": "_address",
          "type": "address"
        }
      ],
      "name": "removeCustomerSelf",
      "outputs": [],
      "stateMutability": "nonpayable",
      "type": "function"
    },
    {
      "inputs": [
        {
          "internalType": "address",
          "name": "_address",
          "type": "address"
        }
      ],
      "name": "removeDistributor",
      "outputs": [],
      "stateMutability": "nonpayable",
      "type": "function"
    },
    {
      "inputs": [
        {
          "internalType": "address",
          "name": "_address",
          "type": "address"
        }
      ],
      "name": "removeDistributorSelf",
      "outputs": [],
      "stateMutability": "nonpayable",
      "type": "function"
    },
    {
      "inputs": [
        {
          "internalType": "address",
          "name": "_address",
          "type": "address"
        }
      ],
      "name": "removeFactory",
      "outputs": [],
      "stateMutability": "nonpayable",
      "type": "function"
    },
    {
      "inputs": [
        {
          "internalType": "address",
          "name": "_address",
          "type": "address"
        }
      ],
      "name": "removeFactorySelf",
      "outputs": [],
      "stateMutability": "nonpayable",
      "type": "function"
    },
    {
      "inputs": [
        {
          "internalType": "address",
          "name": "_address",
          "type": "address"
        }
      ],
      "name": "removeRawMaterialSupplier",
      "outputs": [],
      "stateMutability": "nonpayable",
      "type": "function"
    },
    {
      "inputs": [
        {
          "internalType": "address",
          "name": "_address",
          "type": "address"
        }
      ],
      "name": "removeRawMaterialSupplierSelf",
      "outputs": [],
      "stateMutability": "nonpayable",
      "type": "function"
    },
    {
      "inputs": [
        {
          "internalType": "address",
          "name": "_address",
          "type": "address"
        }
      ],
      "name": "removeRetailer",
      "outputs": [],
      "stateMutability": "nonpayable",
      "type": "function"
    },
    {
      "inputs": [
        {
          "internalType": "address",
          "name": "_address",
          "type": "address"
        }
      ],
      "name": "removeRetailerSelf",
      "outputs": [],
      "stateMutability": "nonpayable",
      "type": "function"
    },
    {
      "inputs": [
        {
          "internalType": "address",
          "name": "_address",
          "type": "address"
        }
      ],
      "name": "removeSelfWarehouse",
      "outputs": [],
      "stateMutability": "nonpayable",
      "type": "function"
    },
    {
      "inputs": [
        {
          "internalType": "address",
          "name": "_address",
          "type": "address"
        }
      ],
      "name": "removeWarehouse",
      "outputs": [],
      "stateMutability": "nonpayable",
      "type": "function"
    },
    {
      "inputs": [],
      "name": "renounceOwnership",
      "outputs": [],
      "stateMutability": "nonpayable",
      "type": "function"
    },
    {
      "inputs": [],
      "name": "totalBatchs",
      "outputs": [
        {
          "internalType": "uint256",
          "name": "",
          "type": "uint256"
        }
      ],
      "stateMutability": "view",
      "type": "function"
    },
    {
      "inputs": [
        {
          "internalType": "address",
          "name": "newOwner",
          "type": "address"
        }
      ],
      "name": "transferOwnership",
      "outputs": [],
      "stateMutability": "nonpayable",
      "type": "function"
    }
  ],
  "bytecode": "0x60806040523480156200001157600080fd5b5060405162004fa638038062004fa68339818101604052810190620000379190620006dd565b620000576200004b6200010560201b60201c565b6200010d60201b60201c565b6200006833620001d160201b60201c565b62000079336200023860201b60201c565b6200008a336200029f60201b60201c565b6200009b336200030660201b60201c565b620000ac336200036d60201b60201c565b620000bd33620003d460201b60201c565b80600760006101000a81548173ffffffffffffffffffffffffffffffffffffffff021916908373ffffffffffffffffffffffffffffffffffffffff16021790555050620008e8565b600033905090565b60008060009054906101000a900473ffffffffffffffffffffffffffffffffffffffff169050816000806101000a81548173ffffffffffffffffffffffffffffffffffffffff021916908373ffffffffffffffffffffffffffffffffffffffff1602179055508173ffffffffffffffffffffffffffffffffffffffff168173ffffffffffffffffffffffffffffffffffffffff167f8be0079c531659141344cd1fd0a4f28419497f9722a3daafe3b4186f6b6457e060405160405180910390a35050565b620001e16200043b60201b60201c565b620001fc816001620004cc60201b62002f8e1790919060201c565b7fa3da795b47eb190084f878e63c07509e5f6df63ebc51443c0ccab2fc11c0d883816040516200022d919062000720565b60405180910390a150565b620002486200043b60201b60201c565b62000263816002620004cc60201b62002f8e1790919060201c565b7f364ee90eb63717b99192fdb951c7b1aa91a45bca11ac73ab40cfad762631fbce8160405162000294919062000720565b60405180910390a150565b620002af6200043b60201b60201c565b620002ca816003620004cc60201b62002f8e1790919060201c565b7f5a8fb443d09cf1426e80f80dd509757d71d4687674ab4adad906c5e2b6e1e62c81604051620002fb919062000720565b60405180910390a150565b620003166200043b60201b60201c565b62000331816004620004cc60201b62002f8e1790919060201c565b7f3afd547f7eb357741de51229846ae795cb06449e4b4032eb34a7cc0a751e25c18160405162000362919062000720565b60405180910390a150565b6200037d6200043b60201b60201c565b62000398816005620004cc60201b62002f8e1790919060201c565b7f0eea60f9e1851b51feed56c339be177ea715591923622a0effe46dbb8885efa681604051620003c9919062000720565b60405180910390a150565b620003e46200043b60201b60201c565b620003ff816006620004cc60201b62002f8e1790919060201c565b7f23b2415a50efd127e694ba174e400d457ad65c58752e171b6d17f3f5daa26fdb8160405162000430919062000720565b60405180910390a150565b6200044b6200010560201b60201c565b73ffffffffffffffffffffffffffffffffffffffff16620004716200058a60201b60201c565b73ffffffffffffffffffffffffffffffffffffffff1614620004ca576040517f08c379a0000000000000000000000000000000000000000000000000000000008152600401620004c1906200079e565b60405180910390fd5b565b620004de8282620005b360201b60201c565b1562000521576040517f08c379a0000000000000000000000000000000000000000000000000000000008152600401620005189062000810565b60405180910390fd5b81600001819080600181540180825580915050600190039060005260206000200160009091909190916101000a81548173ffffffffffffffffffffffffffffffffffffffff021916908373ffffffffffffffffffffffffffffffffffffffff1602179055505050565b60008060009054906101000a900473ffffffffffffffffffffffffffffffffffffffff16905090565b6000808360000180549050905060005b8181101562000666578373ffffffffffffffffffffffffffffffffffffffff16856000018281548110620005fc57620005fb62000832565b5b9060005260206000200160009054906101000a900473ffffffffffffffffffffffffffffffffffffffff1673ffffffffffffffffffffffffffffffffffffffff16141562000650576001925050506200066d565b80806200065d906200089a565b915050620005c3565b5060009150505b92915050565b600080fd5b600073ffffffffffffffffffffffffffffffffffffffff82169050919050565b6000620006a58262000678565b9050919050565b620006b78162000698565b8114620006c357600080fd5b50565b600081519050620006d781620006ac565b92915050565b600060208284031215620006f657620006f562000673565b5b60006200070684828501620006c6565b91505092915050565b6200071a8162000698565b82525050565b60006020820190506200073760008301846200070f565b92915050565b600082825260208201905092915050565b7f4f776e61626c653a2063616c6c6572206973206e6f7420746865206f776e6572600082015250565b6000620007866020836200073d565b915062000793826200074e565b602082019050919050565b60006020820190508181036000830152620007b98162000777565b9050919050565b7f524f4c455f414c52454144595f45584953545300000000000000000000000000600082015250565b6000620007f86013836200073d565b91506200080582620007c0565b602082019050919050565b600060208201905081810360008301526200082b81620007e9565b9050919050565b7f4e487b7100000000000000000000000000000000000000000000000000000000600052603260045260246000fd5b7f4e487b7100000000000000000000000000000000000000000000000000000000600052601160045260246000fd5b6000819050919050565b6000620008a78262000890565b91507fffffffffffffffffffffffffffffffffffffffffffffffffffffffffffffffff821415620008dd57620008dc62000861565b5b600182019050919050565b6146ae80620008f86000396000f3fe608060405234801561001057600080fd5b506004361061028a5760003560e01c8063814f696e1161015c578063bdacda31116100ce578063e70a962b11610087578063e70a962b146107e1578063e7d0831d14610811578063eeb341331461082d578063f2fde38b1461084b578063f80d1ff014610867578063faf31e08146108855761028a565b8063bdacda31146106f3578063be33c51614610711578063bfb231d21461072d578063bfed485614610765578063dafe1ef714610795578063e3c1a531146107c55761028a565b80638eb06ccf116101205780638eb06ccf146106235780638ec4f5051461063f5780638f0c86fa1461065b578063a198d4961461068b578063ad973d74146106a7578063bca4bd50146106c35761028a565b8063814f696e1461059357806384480510146105af5780638853ad75146105cb57806388cc58e4146105e75780638da5cb5b146106055761028a565b80634b37c73f116102005780635da09b88116101b95780635da09b88146104e7578063650d993b1461051757806370099ec814610535578063715018a6146105515780637250e2241461055b57806380bedacf146105775761028a565b80634b37c73f146104295780635166b5c81461044557806357c1f9e2146104615780635884965f1461047d5780635a9683831461049b5780635bf27912146104cb5761028a565b80632885b943116102525780632885b9431461035757806328fd5e831461037557806329ce1ec5146103a55780632a7ec29f146103c1578063319af857146103dd5780633c0e25a41461040d5761028a565b80630f04ba671461028f5780631af5dcf2146102bf57806320519bb0146102db578063209d353e1461030b5780632100c7c81461033b575b600080fd5b6102a960048036038101906102a49190613514565b6108b5565b6040516102b6919061355c565b60405180910390f35b6102d960048036038101906102d491906137c9565b6108d2565b005b6102f560048036038101906102f09190613854565b610e0c565b604051610302919061393f565b60405180910390f35b61032560048036038101906103209190613854565b610e77565b6040516103329190613a1f565b60405180910390f35b61035560048036038101906103509190613a41565b610f18565b005b61035f611575565b60405161036c9190613a1f565b60405180910390f35b61038f600480360381019061038a9190613514565b611586565b60405161039c919061355c565b60405180910390f35b6103bf60048036038101906103ba9190613514565b6115a3565b005b6103db60048036038101906103d69190613514565b6115f9565b005b6103f760048036038101906103f29190613854565b6116b5565b604051610404919061393f565b60405180910390f35b61042760048036038101906104229190613514565b611720565b005b610443600480360381019061043e9190613514565b611776565b005b61045f600480360381019061045a9190613514565b6117cc565b005b61047b60048036038101906104769190613514565b611822565b005b610485611878565b6040516104929190613a1f565b60405180910390f35b6104b560048036038101906104b09190613854565b611889565b6040516104c2919061393f565b60405180910390f35b6104e560048036038101906104e09190613514565b6118f4565b005b61050160048036038101906104fc9190613514565b6119b0565b60405161050e919061355c565b60405180910390f35b61051f6119cd565b60405161052c9190613a1f565b60405180910390f35b61054f600480360381019061054a9190613514565b6119de565b005b610559611a34565b005b61057560048036038101906105709190613514565b611a48565b005b610591600480360381019061058c9190613514565b611a9e565b005b6105ad60048036038101906105a89190613514565b611b5a565b005b6105c960048036038101906105c49190613514565b611bb0565b005b6105e560048036038101906105e09190613514565b611c6c565b005b6105ef611d28565b6040516105fc9190613a1f565b60405180910390f35b61060d611d39565b60405161061a9190613a90565b60405180910390f35b61063d60048036038101906106389190613514565b611d62565b005b61065960048036038101906106549190613514565b611db8565b005b61067560048036038101906106709190613514565b611e0e565b604051610682919061355c565b60405180910390f35b6106a560048036038101906106a09190613aab565b611e2b565b005b6106c160048036038101906106bc9190613514565b612146565b005b6106dd60048036038101906106d89190613514565b61219c565b6040516106ea919061355c565b60405180910390f35b6106fb6121b9565b6040516107089190613a1f565b60405180910390f35b61072b60048036038101906107269190613afe565b6121ca565b005b61074760048036038101906107429190613854565b6129e4565b60405161075c99989796959493929190613c23565b60405180910390f35b61077f600480360381019061077a9190613514565b612a9f565b60405161078c9190613e26565b60405180910390f35b6107af60048036038101906107aa9190613854565b612cad565b6040516107bc9190613a1f565b60405180910390f35b6107df60048036038101906107da9190613514565b612d4e565b005b6107fb60048036038101906107f69190613854565b612da4565b604051610808919061393f565b60405180910390f35b61082b60048036038101906108269190613514565b612e0f565b005b610835612ecb565b6040516108429190613e48565b60405180910390f35b61086560048036038101906108609190613514565b612edc565b005b61086f612f60565b60405161087c9190613a1f565b60405180910390f35b61089f600480360381019061089a9190613514565b612f71565b6040516108ac919061355c565b60405180910390f35b60006108cb82600361304190919063ffffffff16565b9050919050565b6108db33611e0e565b6108e457600080fd5b60008060006108f286612cad565b905060005b8151811015610abb57600073ffffffffffffffffffffffffffffffffffffffff1682828151811061092b5761092a613e63565b5b602002602001015173ffffffffffffffffffffffffffffffffffffffff161415801561099c57503373ffffffffffffffffffffffffffffffffffffffff1682828151811061097c5761097b613e63565b5b602002602001015173ffffffffffffffffffffffffffffffffffffffff16145b15610aa8576109aa87612da4565b81815181106109bc576109bb613e63565b5b602002602001015193506109cf87611889565b81815181106109e1576109e0613e63565b5b60200260200101519250600b60008881526020019081526020016000208181548110610a1057610a0f613e63565b5b9060005260206000200160006101000a81549073ffffffffffffffffffffffffffffffffffffffff0219169055600c60008881526020019081526020016000208181548110610a6257610a61613e63565b5b9060005260206000200160009055600d60008881526020019081526020016000208181548110610a9557610a94613e63565b5b9060005260206000200160009055610abb565b8080610ab390613ec1565b9150506108f7565b507fe4ea4fdfd16a5c60e650fad1444da4c3d51e92aba91764afb96e7ba71e5ba1328383604051610aed929190613f0a565b60405180910390a160008311610b38576040517f08c379a0000000000000000000000000000000000000000000000000000000008152600401610b2f90613f90565b60405180910390fd5b600082905060005b8651811015610dcb57610b6c878281518110610b5f57610b5e613e63565b5b60200260200101516119b0565b610bab576040517f08c379a0000000000000000000000000000000000000000000000000000000008152600401610ba290614022565b60405180910390fd5b600e6000898152602001908152602001600020878281518110610bd157610bd0613e63565b5b60200260200101519080600181540180825580915050600190039060005260206000200160009091909190916101000a81548173ffffffffffffffffffffffffffffffffffffffff021916908373ffffffffffffffffffffffffffffffffffffffff160217905550600f6000898152602001908152602001600020868281518110610c5f57610c5e613e63565b5b6020026020010151908060018154018082558091505060019003906000526020600020016000909190919091505560106000898152602001908152602001600020829080600181540180825580915050600190039060005260206000200160009091909190915055600760009054906101000a900473ffffffffffffffffffffffffffffffffffffffff1673ffffffffffffffffffffffffffffffffffffffff1663e51a27ce33898481518110610d1957610d18613e63565b5b60200260200101518b8a8681518110610d3557610d34613e63565b5b6020026020010151876040518663ffffffff1660e01b8152600401610d5e95949392919061409f565b600060405180830381600087803b158015610d7857600080fd5b505af1158015610d8c573d6000803e3d6000fd5b50505050858181518110610da357610da2613e63565b5b602002602001015182610db69190614105565b91508080610dc390613ec1565b915050610b40565b507fb9f01075be5d71ca908e0aae338e241c77af5da8fbd7d476d37de1c8634dc0e287604051610dfb9190613e48565b60405180910390a150505050505050565b606060106000838152602001908152602001600020805480602002602001604051908101604052809291908181526020018280548015610e6b57602002820191906000526020600020905b815481526020019060010190808311610e57575b50505050509050919050565b6060600e6000838152602001908152602001600020805480602002602001604051908101604052809291908181526020018280548015610f0c57602002820191906000526020600020905b8160009054906101000a900473ffffffffffffffffffffffffffffffffffffffff1673ffffffffffffffffffffffffffffffffffffffff1681526020019060010190808311610ec2575b50505050509050919050565b610f21336108b5565b610f2a57600080fd5b610f338161219c565b610f72576040517f08c379a0000000000000000000000000000000000000000000000000000000008152600401610f69906141cd565b60405180910390fd5b60006009600084815260200190815260200160002060405180610120016040529081600082015481526020016001820160009054906101000a900460ff166004811115610fc257610fc1613bac565b5b6004811115610fd457610fd3613bac565b5b8152602001600282015481526020016003820154815260200160048201548152602001600582015481526020016006820160009054906101000a900473ffffffffffffffffffffffffffffffffffffffff1673ffffffffffffffffffffffffffffffffffffffff1673ffffffffffffffffffffffffffffffffffffffff1681526020016007820160009054906101000a900473ffffffffffffffffffffffffffffffffffffffff1673ffffffffffffffffffffffffffffffffffffffff1673ffffffffffffffffffffffffffffffffffffffff1681526020016008820160009054906101000a900473ffffffffffffffffffffffffffffffffffffffff1673ffffffffffffffffffffffffffffffffffffffff1673ffffffffffffffffffffffffffffffffffffffff1681525050905060008160c0015190503382610100019073ffffffffffffffffffffffffffffffffffffffff16908173ffffffffffffffffffffffffffffffffffffffff1681525050828260e0019073ffffffffffffffffffffffffffffffffffffffff16908173ffffffffffffffffffffffffffffffffffffffff168152505060018260200190600481111561119757611196613bac565b5b908160048111156111ab576111aa613bac565b5b8152505081600960008681526020019081526020016000206000820151816000015560208201518160010160006101000a81548160ff021916908360048111156111f8576111f7613bac565b5b021790555060408201518160020155606082015181600301556080820151816004015560a0820151816005015560c08201518160060160006101000a81548173ffffffffffffffffffffffffffffffffffffffff021916908373ffffffffffffffffffffffffffffffffffffffff16021790555060e08201518160070160006101000a81548173ffffffffffffffffffffffffffffffffffffffff021916908373ffffffffffffffffffffffffffffffffffffffff1602179055506101008201518160080160006101000a81548173ffffffffffffffffffffffffffffffffffffffff021916908373ffffffffffffffffffffffffffffffffffffffff160217905550905050600a60008473ffffffffffffffffffffffffffffffffffffffff1673ffffffffffffffffffffffffffffffffffffffff1681526020019081526020016000208290806001815401808255809150506001900390600052602060002090600902016000909190919091506000820151816000015560208201518160010160006101000a81548160ff0219169083600481111561139c5761139b613bac565b5b021790555060408201518160020155606082015181600301556080820151816004015560a0820151816005015560c08201518160060160006101000a81548173ffffffffffffffffffffffffffffffffffffffff021916908373ffffffffffffffffffffffffffffffffffffffff16021790555060e08201518160070160006101000a81548173ffffffffffffffffffffffffffffffffffffffff021916908373ffffffffffffffffffffffffffffffffffffffff1602179055506101008201518160080160006101000a81548173ffffffffffffffffffffffffffffffffffffffff021916908373ffffffffffffffffffffffffffffffffffffffff1602179055505050600760009054906101000a900473ffffffffffffffffffffffffffffffffffffffff1673ffffffffffffffffffffffffffffffffffffffff1663e51a27ce823387600160006040518663ffffffff1660e01b815260040161150695949392919061426d565b600060405180830381600087803b15801561152057600080fd5b505af1158015611534573d6000803e3d6000fd5b505050507f84fad793fc72a4890032a0a48ea25fb57401690403f128ee2aaf047af876291c846040516115679190613e48565b60405180910390a150505050565b606061158160026130f8565b905090565b600061159c82600661304190919063ffffffff16565b9050919050565b6115ab61318a565b6115bf816003612f8e90919063ffffffff16565b7f5a8fb443d09cf1426e80f80dd509757d71d4687674ab4adad906c5e2b6e1e62c816040516115ee9190613a90565b60405180910390a150565b8073ffffffffffffffffffffffffffffffffffffffff163373ffffffffffffffffffffffffffffffffffffffff1614611667576040517f08c379a000000000000000000000000000000000000000000000000000000000815260040161165e9061431f565b60405180910390fd5b61167b81600661320890919063ffffffff16565b7f4709990004724f283154297c090b8420d74dcbf9ffcd6bc50294e7350c7cb4fc816040516116aa9190613a90565b60405180910390a150565b6060600f600083815260200190815260200160002080548060200260200160405190810160405280929190818152602001828054801561171457602002820191906000526020600020905b815481526020019060010190808311611700575b50505050509050919050565b61172861318a565b61173c816001612f8e90919063ffffffff16565b7fa3da795b47eb190084f878e63c07509e5f6df63ebc51443c0ccab2fc11c0d8838160405161176b9190613a90565b60405180910390a150565b61177e61318a565b61179281600361320890919063ffffffff16565b7f3d4e7057f9f992c8d86344002642adf5d5cd33816b302134e7ef5e0f045a6e78816040516117c19190613a90565b60405180910390a150565b6117d461318a565b6117e881600161320890919063ffffffff16565b7fccc03dfae55d568292686488ccd27bcdc249a89347bf1c13a2115a29062618b7816040516118179190613a90565b60405180910390a150565b61182a61318a565b61183e81600461320890919063ffffffff16565b7f43dd2f8ce4e5873e618ffabcae9856729ea5811dbc5e1c9be4365fcf7b7cf7038160405161186d9190613a90565b60405180910390a150565b606061188460046130f8565b905090565b6060600d60008381526020019081526020016000208054806020026020016040519081016040528092919081815260200182805480156118e857602002820191906000526020600020905b8154815260200190600101908083116118d4575b50505050509050919050565b8073ffffffffffffffffffffffffffffffffffffffff163373ffffffffffffffffffffffffffffffffffffffff1614611962576040517f08c379a00000000000000000000000000000000000000000000000000000000081526004016119599061431f565b60405180910390fd5b61197681600461320890919063ffffffff16565b7f43dd2f8ce4e5873e618ffabcae9856729ea5811dbc5e1c9be4365fcf7b7cf703816040516119a59190613a90565b60405180910390a150565b60006119c682600561304190919063ffffffff16565b9050919050565b60606119d960066130f8565b905090565b6119e661318a565b6119fa81600561320890919063ffffffff16565b7f200c3f073f217cf07dee57ee6e42c29e5fa6937f536b65c9d1e06be1f9c83dc181604051611a299190613a90565b60405180910390a150565b611a3c61318a565b611a4660006133b2565b565b611a5061318a565b611a64816004612f8e90919063ffffffff16565b7f3afd547f7eb357741de51229846ae795cb06449e4b4032eb34a7cc0a751e25c181604051611a939190613a90565b60405180910390a150565b8073ffffffffffffffffffffffffffffffffffffffff163373ffffffffffffffffffffffffffffffffffffffff1614611b0c576040517f08c379a0000000000000000000000000000000000000000000000000000000008152600401611b039061431f565b60405180910390fd5b611b2081600161320890919063ffffffff16565b7fccc03dfae55d568292686488ccd27bcdc249a89347bf1c13a2115a29062618b781604051611b4f9190613a90565b60405180910390a150565b611b6261318a565b611b76816002612f8e90919063ffffffff16565b7f364ee90eb63717b99192fdb951c7b1aa91a45bca11ac73ab40cfad762631fbce81604051611ba59190613a90565b60405180910390a150565b8073ffffffffffffffffffffffffffffffffffffffff163373ffffffffffffffffffffffffffffffffffffffff1614611c1e576040517f08c379a0000000000000000000000000000000000000000000000000000000008152600401611c159061431f565b60405180910390fd5b611c3281600361320890919063ffffffff16565b7f3d4e7057f9f992c8d86344002642adf5d5cd33816b302134e7ef5e0f045a6e7881604051611c619190613a90565b60405180910390a150565b8073ffffffffffffffffffffffffffffffffffffffff163373ffffffffffffffffffffffffffffffffffffffff1614611cda576040517f08c379a0000000000000000000000000000000000000000000000000000000008152600401611cd19061431f565b60405180910390fd5b611cee81600261320890919063ffffffff16565b7f9cfe362d8a536c3b63d391e311186b7f259fdd498eecf5d32626fe9b95058a7d81604051611d1d9190613a90565b60405180910390a150565b6060611d3460036130f8565b905090565b60008060009054906101000a900473ffffffffffffffffffffffffffffffffffffffff16905090565b611d6a61318a565b611d7e81600661320890919063ffffffff16565b7f4709990004724f283154297c090b8420d74dcbf9ffcd6bc50294e7350c7cb4fc81604051611dad9190613a90565b60405180910390a150565b611dc061318a565b611dd4816005612f8e90919063ffffffff16565b7f0eea60f9e1851b51feed56c339be177ea715591923622a0effe46dbb8885efa681604051611e039190613a90565b60405180910390a150565b6000611e2482600461304190919063ffffffff16565b9050919050565b611e3433612f71565b611e73576040517f08c379a0000000000000000000000000000000000000000000000000000000008152600401611e6a9061438b565b60405180910390fd5b6000611e7f6008613476565b9050600060405180610120016040528083815260200160006004811115611ea957611ea8613bac565b5b8152602001868152602001858152602001848152602001600081526020013373ffffffffffffffffffffffffffffffffffffffff168152602001600073ffffffffffffffffffffffffffffffffffffffff168152602001600073ffffffffffffffffffffffffffffffffffffffff16815250905080600960008481526020019081526020016000206000820151816000015560208201518160010160006101000a81548160ff02191690836004811115611f6657611f65613bac565b5b021790555060408201518160020155606082015181600301556080820151816004015560a0820151816005015560c08201518160060160006101000a81548173ffffffffffffffffffffffffffffffffffffffff021916908373ffffffffffffffffffffffffffffffffffffffff16021790555060e08201518160070160006101000a81548173ffffffffffffffffffffffffffffffffffffffff021916908373ffffffffffffffffffffffffffffffffffffffff1602179055506101008201518160080160006101000a81548173ffffffffffffffffffffffffffffffffffffffff021916908373ffffffffffffffffffffffffffffffffffffffff160217905550905050600760009054906101000a900473ffffffffffffffffffffffffffffffffffffffff1673ffffffffffffffffffffffffffffffffffffffff1663156e29f6338460016040518463ffffffff1660e01b81526004016120cc939291906143ab565b600060405180830381600087803b1580156120e657600080fd5b505af11580156120fa573d6000803e3d6000fd5b505050506121086008613484565b7f8dba83ab26c4e67ac150487b6c119e69498289b9cc6c7dfd77fd0df2e671b48b826040516121379190613e48565b60405180910390a15050505050565b61214e61318a565b612162816006612f8e90919063ffffffff16565b7f23b2415a50efd127e694ba174e400d457ad65c58752e171b6d17f3f5daa26fdb816040516121919190613a90565b60405180910390a150565b60006121b282600261304190919063ffffffff16565b9050919050565b60606121c560016130f8565b905090565b6121d3336108b5565b6121dc57600080fd5b600183116121e957600080fd5b60006009600086815260200190815260200160002060405180610120016040529081600082015481526020016001820160009054906101000a900460ff16600481111561223957612238613bac565b5b600481111561224b5761224a613bac565b5b8152602001600282015481526020016003820154815260200160048201548152602001600582015481526020016006820160009054906101000a900473ffffffffffffffffffffffffffffffffffffffff1673ffffffffffffffffffffffffffffffffffffffff1673ffffffffffffffffffffffffffffffffffffffff1681526020016007820160009054906101000a900473ffffffffffffffffffffffffffffffffffffffff1673ffffffffffffffffffffffffffffffffffffffff1673ffffffffffffffffffffffffffffffffffffffff1681526020016008820160009054906101000a900473ffffffffffffffffffffffffffffffffffffffff1673ffffffffffffffffffffffffffffffffffffffff1673ffffffffffffffffffffffffffffffffffffffff1681525050905060028160200190600481111561239457612393613bac565b5b908160048111156123a8576123a7613bac565b5b81525050838160a0018181525050600760009054906101000a900473ffffffffffffffffffffffffffffffffffffffff1673ffffffffffffffffffffffffffffffffffffffff1663156e29f6338760018861240391906143e2565b6040518463ffffffff1660e01b815260040161242193929190614416565b600060405180830381600087803b15801561243b57600080fd5b505af115801561244f573d6000803e3d6000fd5b505050506000805b84518110156126e25761248385828151811061247657612475613e63565b5b6020026020010151611e0e565b6124c2576040517f08c379a00000000000000000000000000000000000000000000000000000000081526004016124b9906144bf565b60405180910390fd5b600b60008881526020019081526020016000208582815181106124e8576124e7613e63565b5b60200260200101519080600181540180825580915050600190039060005260206000200160009091909190916101000a81548173ffffffffffffffffffffffffffffffffffffffff021916908373ffffffffffffffffffffffffffffffffffffffff160217905550600c600088815260200190815260200160002084828151811061257657612575613e63565b5b60200260200101519080600181540180825580915050600190039060005260206000200160009091909190915055600d6000888152602001908152602001600020829080600181540180825580915050600190039060005260206000200160009091909190915055600760009054906101000a900473ffffffffffffffffffffffffffffffffffffffff1673ffffffffffffffffffffffffffffffffffffffff1663e51a27ce338784815181106126305761262f613e63565b5b60200260200101518a88868151811061264c5761264b613e63565b5b6020026020010151876040518663ffffffff1660e01b815260040161267595949392919061409f565b600060405180830381600087803b15801561268f57600080fd5b505af11580156126a3573d6000803e3d6000fd5b505050508381815181106126ba576126b9613e63565b5b6020026020010151826126cd9190614105565b915080806126da90613ec1565b915050612457565b5081600960008881526020019081526020016000206000820151816000015560208201518160010160006101000a81548160ff0219169083600481111561272c5761272b613bac565b5b021790555060408201518160020155606082015181600301556080820151816004015560a0820151816005015560c08201518160060160006101000a81548173ffffffffffffffffffffffffffffffffffffffff021916908373ffffffffffffffffffffffffffffffffffffffff16021790555060e08201518160070160006101000a81548173ffffffffffffffffffffffffffffffffffffffff021916908373ffffffffffffffffffffffffffffffffffffffff1602179055506101008201518160080160006101000a81548173ffffffffffffffffffffffffffffffffffffffff021916908373ffffffffffffffffffffffffffffffffffffffff1602179055509050506000600a60008460e0015173ffffffffffffffffffffffffffffffffffffffff1673ffffffffffffffffffffffffffffffffffffffff16815260200190815260200160002080549050905060008111156129a45760005b818110156129a25787600a60008660e0015173ffffffffffffffffffffffffffffffffffffffff1673ffffffffffffffffffffffffffffffffffffffff16815260200190815260200160002082815481106128e7576128e6613e63565b5b906000526020600020906009020160000154141561298f576002600a60008660e0015173ffffffffffffffffffffffffffffffffffffffff1673ffffffffffffffffffffffffffffffffffffffff168152602001908152602001600020828154811061295657612955613e63565b5b906000526020600020906009020160010160006101000a81548160ff0219169083600481111561298957612988613bac565b5b02179055505b808061299a90613ec1565b915050612889565b505b7f01e7f4af78fe812a5df0e0b3c5b400eff1cd1366eca03a2261de317ae5f6727b876040516129d39190613e48565b60405180910390a150505050505050565b60096020528060005260406000206000915090508060000154908060010160009054906101000a900460ff16908060020154908060030154908060040154908060050154908060060160009054906101000a900473ffffffffffffffffffffffffffffffffffffffff16908060070160009054906101000a900473ffffffffffffffffffffffffffffffffffffffff16908060080160009054906101000a900473ffffffffffffffffffffffffffffffffffffffff16905089565b6060600a60008373ffffffffffffffffffffffffffffffffffffffff1673ffffffffffffffffffffffffffffffffffffffff168152602001908152602001600020805480602002602001604051908101604052809291908181526020016000905b82821015612ca2578382906000526020600020906009020160405180610120016040529081600082015481526020016001820160009054906101000a900460ff166004811115612b5357612b52613bac565b5b6004811115612b6557612b64613bac565b5b8152602001600282015481526020016003820154815260200160048201548152602001600582015481526020016006820160009054906101000a900473ffffffffffffffffffffffffffffffffffffffff1673ffffffffffffffffffffffffffffffffffffffff1673ffffffffffffffffffffffffffffffffffffffff1681526020016007820160009054906101000a900473ffffffffffffffffffffffffffffffffffffffff1673ffffffffffffffffffffffffffffffffffffffff1673ffffffffffffffffffffffffffffffffffffffff1681526020016008820160009054906101000a900473ffffffffffffffffffffffffffffffffffffffff1673ffffffffffffffffffffffffffffffffffffffff1673ffffffffffffffffffffffffffffffffffffffff168152505081526020019060010190612b00565b505050509050919050565b6060600b6000838152602001908152602001600020805480602002602001604051908101604052809291908181526020018280548015612d4257602002820191906000526020600020905b8160009054906101000a900473ffffffffffffffffffffffffffffffffffffffff1673ffffffffffffffffffffffffffffffffffffffff1681526020019060010190808311612cf8575b50505050509050919050565b612d5661318a565b612d6a81600261320890919063ffffffff16565b7f9cfe362d8a536c3b63d391e311186b7f259fdd498eecf5d32626fe9b95058a7d81604051612d999190613a90565b60405180910390a150565b6060600c6000838152602001908152602001600020805480602002602001604051908101604052809291908181526020018280548015612e0357602002820191906000526020600020905b815481526020019060010190808311612def575b50505050509050919050565b8073ffffffffffffffffffffffffffffffffffffffff163373ffffffffffffffffffffffffffffffffffffffff1614612e7d576040517f08c379a0000000000000000000000000000000000000000000000000000000008152600401612e749061431f565b60405180910390fd5b612e9181600561320890919063ffffffff16565b7f200c3f073f217cf07dee57ee6e42c29e5fa6937f536b65c9d1e06be1f9c83dc181604051612ec09190613a90565b60405180910390a150565b6000612ed76008613476565b905090565b612ee461318a565b600073ffffffffffffffffffffffffffffffffffffffff168173ffffffffffffffffffffffffffffffffffffffff161415612f54576040517f08c379a0000000000000000000000000000000000000000000000000000000008152600401612f4b90614551565b60405180910390fd5b612f5d816133b2565b50565b6060612f6c60056130f8565b905090565b6000612f8782600161304190919063ffffffff16565b9050919050565b612f988282613041565b15612fd8576040517f08c379a0000000000000000000000000000000000000000000000000000000008152600401612fcf906145bd565b60405180910390fd5b81600001819080600181540180825580915050600190039060005260206000200160009091909190916101000a81548173ffffffffffffffffffffffffffffffffffffffff021916908373ffffffffffffffffffffffffffffffffffffffff1602179055505050565b6000808360000180549050905060005b818110156130eb578373ffffffffffffffffffffffffffffffffffffffff1685600001828154811061308657613085613e63565b5b9060005260206000200160009054906101000a900473ffffffffffffffffffffffffffffffffffffffff1673ffffffffffffffffffffffffffffffffffffffff1614156130d8576001925050506130f2565b80806130e390613ec1565b915050613051565b5060009150505b92915050565b60608160000180548060200260200160405190810160405280929190818152602001828054801561317e57602002820191906000526020600020905b8160009054906101000a900473ffffffffffffffffffffffffffffffffffffffff1673ffffffffffffffffffffffffffffffffffffffff1681526020019060010190808311613134575b50505050509050919050565b61319261349a565b73ffffffffffffffffffffffffffffffffffffffff166131b0611d39565b73ffffffffffffffffffffffffffffffffffffffff1614613206576040517f08c379a00000000000000000000000000000000000000000000000000000000081526004016131fd90614629565b60405180910390fd5b565b600082600001805490509050600080600090505b828110156133625781156132d6578460000181815481106132405761323f613e63565b5b9060005260206000200160009054906101000a900473ffffffffffffffffffffffffffffffffffffffff168560000160018361327c91906143e2565b8154811061328d5761328c613e63565b5b9060005260206000200160006101000a81548173ffffffffffffffffffffffffffffffffffffffff021916908373ffffffffffffffffffffffffffffffffffffffff1602179055505b8373ffffffffffffffffffffffffffffffffffffffff1685600001828154811061330357613302613e63565b5b9060005260206000200160009054906101000a900473ffffffffffffffffffffffffffffffffffffffff1673ffffffffffffffffffffffffffffffffffffffff16141561334f57600191505b808061335a90613ec1565b91505061321c565b508360000180548061337757613376614649565b5b6001900381819060005260206000200160006101000a81549073ffffffffffffffffffffffffffffffffffffffff0219169055905550505050565b60008060009054906101000a900473ffffffffffffffffffffffffffffffffffffffff169050816000806101000a81548173ffffffffffffffffffffffffffffffffffffffff021916908373ffffffffffffffffffffffffffffffffffffffff1602179055508173ffffffffffffffffffffffffffffffffffffffff168173ffffffffffffffffffffffffffffffffffffffff167f8be0079c531659141344cd1fd0a4f28419497f9722a3daafe3b4186f6b6457e060405160405180910390a35050565b600081600001549050919050565b6001816000016000828254019250508190555050565b600033905090565b6000604051905090565b600080fd5b600080fd5b600073ffffffffffffffffffffffffffffffffffffffff82169050919050565b60006134e1826134b6565b9050919050565b6134f1816134d6565b81146134fc57600080fd5b50565b60008135905061350e816134e8565b92915050565b60006020828403121561352a576135296134ac565b5b6000613538848285016134ff565b91505092915050565b60008115159050919050565b61355681613541565b82525050565b6000602082019050613571600083018461354d565b92915050565b6000819050919050565b61358a81613577565b811461359557600080fd5b50565b6000813590506135a781613581565b92915050565b600080fd5b6000601f19601f8301169050919050565b7f4e487b7100000000000000000000000000000000000000000000000000000000600052604160045260246000fd5b6135fb826135b2565b810181811067ffffffffffffffff8211171561361a576136196135c3565b5b80604052505050565b600061362d6134a2565b905061363982826135f2565b919050565b600067ffffffffffffffff821115613659576136586135c3565b5b602082029050602081019050919050565b600080fd5b600061368261367d8461363e565b613623565b905080838252602082019050602084028301858111156136a5576136a461366a565b5b835b818110156136ce57806136ba88826134ff565b8452602084019350506020810190506136a7565b5050509392505050565b600082601f8301126136ed576136ec6135ad565b5b81356136fd84826020860161366f565b91505092915050565b600067ffffffffffffffff821115613721576137206135c3565b5b602082029050602081019050919050565b600061374561374084613706565b613623565b905080838252602082019050602084028301858111156137685761376761366a565b5b835b81811015613791578061377d8882613598565b84526020840193505060208101905061376a565b5050509392505050565b600082601f8301126137b0576137af6135ad565b5b81356137c0848260208601613732565b91505092915050565b6000806000606084860312156137e2576137e16134ac565b5b60006137f086828701613598565b935050602084013567ffffffffffffffff811115613811576138106134b1565b5b61381d868287016136d8565b925050604084013567ffffffffffffffff81111561383e5761383d6134b1565b5b61384a8682870161379b565b9150509250925092565b60006020828403121561386a576138696134ac565b5b600061387884828501613598565b91505092915050565b600081519050919050565b600082825260208201905092915050565b6000819050602082019050919050565b6138b681613577565b82525050565b60006138c883836138ad565b60208301905092915050565b6000602082019050919050565b60006138ec82613881565b6138f6818561388c565b93506139018361389d565b8060005b8381101561393257815161391988826138bc565b9750613924836138d4565b925050600181019050613905565b5085935050505092915050565b6000602082019050818103600083015261395981846138e1565b905092915050565b600081519050919050565b600082825260208201905092915050565b6000819050602082019050919050565b613996816134d6565b82525050565b60006139a8838361398d565b60208301905092915050565b6000602082019050919050565b60006139cc82613961565b6139d6818561396c565b93506139e18361397d565b8060005b83811015613a125781516139f9888261399c565b9750613a04836139b4565b9250506001810190506139e5565b5085935050505092915050565b60006020820190508181036000830152613a3981846139c1565b905092915050565b60008060408385031215613a5857613a576134ac565b5b6000613a6685828601613598565b9250506020613a77858286016134ff565b9150509250929050565b613a8a816134d6565b82525050565b6000602082019050613aa56000830184613a81565b92915050565b600080600060608486031215613ac457613ac36134ac565b5b6000613ad286828701613598565b9350506020613ae386828701613598565b9250506040613af486828701613598565b9150509250925092565b60008060008060808587031215613b1857613b176134ac565b5b6000613b2687828801613598565b9450506020613b3787828801613598565b935050604085013567ffffffffffffffff811115613b5857613b576134b1565b5b613b64878288016136d8565b925050606085013567ffffffffffffffff811115613b8557613b846134b1565b5b613b918782880161379b565b91505092959194509250565b613ba681613577565b82525050565b7f4e487b7100000000000000000000000000000000000000000000000000000000600052602160045260246000fd5b60058110613bec57613beb613bac565b5b50565b6000819050613bfd82613bdb565b919050565b6000613c0d82613bef565b9050919050565b613c1d81613c02565b82525050565b600061012082019050613c39600083018c613b9d565b613c46602083018b613c14565b613c53604083018a613b9d565b613c606060830189613b9d565b613c6d6080830188613b9d565b613c7a60a0830187613b9d565b613c8760c0830186613a81565b613c9460e0830185613a81565b613ca2610100830184613a81565b9a9950505050505050505050565b600081519050919050565b600082825260208201905092915050565b6000819050602082019050919050565b613ce581613c02565b82525050565b61012082016000820151613d0260008501826138ad565b506020820151613d156020850182613cdc565b506040820151613d2860408501826138ad565b506060820151613d3b60608501826138ad565b506080820151613d4e60808501826138ad565b5060a0820151613d6160a08501826138ad565b5060c0820151613d7460c085018261398d565b5060e0820151613d8760e085018261398d565b50610100820151613d9c61010085018261398d565b50505050565b6000613dae8383613ceb565b6101208301905092915050565b6000602082019050919050565b6000613dd382613cb0565b613ddd8185613cbb565b9350613de883613ccc565b8060005b83811015613e19578151613e008882613da2565b9750613e0b83613dbb565b925050600181019050613dec565b5085935050505092915050565b60006020820190508181036000830152613e408184613dc8565b905092915050565b6000602082019050613e5d6000830184613b9d565b92915050565b7f4e487b7100000000000000000000000000000000000000000000000000000000600052603260045260246000fd5b7f4e487b7100000000000000000000000000000000000000000000000000000000600052601160045260246000fd5b6000613ecc82613577565b91507fffffffffffffffffffffffffffffffffffffffffffffffffffffffffffffffff821415613eff57613efe613e92565b5b600182019050919050565b6000604082019050613f1f6000830185613b9d565b613f2c6020830184613b9d565b9392505050565b600082825260208201905092915050565b7f4449535452494255544f5220494e5445524e414c204552524f52000000000000600082015250565b6000613f7a601a83613f33565b9150613f8582613f44565b602082019050919050565b60006020820190508181036000830152613fa981613f6d565b9050919050565b7f4e4f5420412056414c49442052455441494c455220414444524553532021205060008201527f4c4541534520434f4e544143542041444d494e00000000000000000000000000602082015250565b600061400c603383613f33565b915061401782613fb0565b604082019050919050565b6000602082019050818103600083015261403b81613fff565b9050919050565b600082825260208201905092915050565b7f3078303000000000000000000000000000000000000000000000000000000000600082015250565b6000614089600483614042565b915061409482614053565b602082019050919050565b600060c0820190506140b46000830188613a81565b6140c16020830187613a81565b6140ce6040830186613b9d565b6140db6060830185613b9d565b81810360808301526140ec8161407c565b90506140fb60a0830184613b9d565b9695505050505050565b600061411082613577565b915061411b83613577565b9250827fffffffffffffffffffffffffffffffffffffffffffffffffffffffffffffffff038211156141505761414f613e92565b5b828201905092915050565b7f4e4f5420412056414c49442057415245484f555345204144445245535320212060008201527f504c4541534520434f4e544143542041444d494e000000000000000000000000602082015250565b60006141b7603483613f33565b91506141c28261415b565b604082019050919050565b600060208201905081810360008301526141e6816141aa565b9050919050565b6000819050919050565b6000819050919050565b600061421c614217614212846141ed565b6141f7565b613577565b9050919050565b61422c81614201565b82525050565b6000819050919050565b600061425761425261424d84614232565b6141f7565b613577565b9050919050565b6142678161423c565b82525050565b600060c0820190506142826000830188613a81565b61428f6020830187613a81565b61429c6040830186613b9d565b6142a96060830185614223565b81810360808301526142ba8161407c565b90506142c960a083018461425e565b9695505050505050565b7f594f555f43414e5f4e4f545f524f4d4f56455f544849535f4144445245535300600082015250565b6000614309601f83613f33565b9150614314826142d3565b602082019050919050565b60006020820190508181036000830152614338816142fc565b9050919050565b7f4e6f74206120526177204d6174657269616c20537570706c6965720000000000600082015250565b6000614375601b83613f33565b91506143808261433f565b602082019050919050565b600060208201905081810360008301526143a481614368565b9050919050565b60006060820190506143c06000830186613a81565b6143cd6020830185613b9d565b6143da6040830184614223565b949350505050565b60006143ed82613577565b91506143f883613577565b92508282101561440b5761440a613e92565b5b828203905092915050565b600060608201905061442b6000830186613a81565b6144386020830185613b9d565b6144456040830184613b9d565b949350505050565b7f4e4f5420412056414c4944204449535452494255544f5220414444524553532060008201527f2120504c4541534520434f4e544143542041444d494e00000000000000000000602082015250565b60006144a9603683613f33565b91506144b48261444d565b604082019050919050565b600060208201905081810360008301526144d88161449c565b9050919050565b7f4f776e61626c653a206e6577206f776e657220697320746865207a65726f206160008201527f6464726573730000000000000000000000000000000000000000000000000000602082015250565b600061453b602683613f33565b9150614546826144df565b604082019050919050565b6000602082019050818103600083015261456a8161452e565b9050919050565b7f524f4c455f414c52454144595f45584953545300000000000000000000000000600082015250565b60006145a7601383613f33565b91506145b282614571565b602082019050919050565b600060208201905081810360008301526145d68161459a565b9050919050565b7f4f776e61626c653a2063616c6c6572206973206e6f7420746865206f776e6572600082015250565b6000614613602083613f33565b915061461e826145dd565b602082019050919050565b6000602082019050818103600083015261464281614606565b9050919050565b7f4e487b7100000000000000000000000000000000000000000000000000000000600052603160045260246000fdfea2646970667358221220a4bd62aa73d82c8a736266162fa7d97aa2682acf4ffa6e27428f855242b874dd64736f6c63430008080033",
  "linkReferences": {},
  "deployedLinkReferences": {}
}