{
  "_format": "hh-sol-artifact-1",
  "contractName": "Supplychain",
  "sourceName": "contracts/Supplychain.sol",
  "abi": [
    {
      "inputs": [
        {
          "internalType": "address",
          "name": "_supplychainToken",
          "type": "address"
        }
      ],
      "stateMutability": "nonpayable",
      "type": "constructor"
    },
    {
      "anonymous": false,
      "inputs": [
        {
          "indexed": false,
          "internalType": "address",
          "name": "_address",
          "type": "address"
        }
      ],
      "name": "AddCustomer",
      "type": "event"
    },
    {
      "anonymous": false,
      "inputs": [
        {
          "indexed": false,
          "internalType": "address",
          "name": "_address",
          "type": "address"
        }
      ],
      "name": "AddDistributor",
      "type": "event"
    },
    {
      "anonymous": false,
      "inputs": [
        {
          "indexed": false,
          "internalType": "address",
          "name": "_address",
          "type": "address"
        }
      ],
      "name": "AddFactory",
      "type": "event"
    },
    {
      "anonymous": false,
      "inputs": [
        {
          "indexed": false,
          "internalType": "address",
          "name": "_address",
          "type": "address"
        }
      ],
      "name": "AddRawMaterialSupplier",
      "type": "event"
    },
    {
      "anonymous": false,
      "inputs": [
        {
          "indexed": false,
          "internalType": "address",
          "name": "_address",
          "type": "address"
        }
      ],
      "name": "AddRetailer",
      "type": "event"
    },
    {
      "anonymous": false,
      "inputs": [
        {
          "indexed": false,
          "internalType": "address",
          "name": "_address",
          "type": "address"
        }
      ],
      "name": "AddWarehouse",
      "type": "event"
    },
    {
      "anonymous": false,
      "inputs": [
        {
          "indexed": false,
          "internalType": "uint256",
          "name": "_supplyChainId",
          "type": "uint256"
        }
      ],
      "name": "DistributorSellToRetailer",
      "type": "event"
    },
    {
      "anonymous": false,
      "inputs": [
        {
          "indexed": false,
          "internalType": "uint256",
          "name": "_supplyChainId",
          "type": "uint256"
        }
      ],
      "name": "FactoryBuyRawMaterial",
      "type": "event"
    },
    {
      "anonymous": false,
      "inputs": [
        {
          "indexed": false,
          "internalType": "uint256",
          "name": "_supplyChainId",
          "type": "uint256"
        }
      ],
      "name": "FactorySellItemToDistributors",
      "type": "event"
    },
    {
      "anonymous": false,
      "inputs": [
        {
          "indexed": true,
          "internalType": "address",
          "name": "previousOwner",
          "type": "address"
        },
        {
          "indexed": true,
          "internalType": "address",
          "name": "newOwner",
          "type": "address"
        }
      ],
      "name": "OwnershipTransferred",
      "type": "event"
    },
    {
      "anonymous": false,
      "inputs": [
        {
          "indexed": false,
          "internalType": "uint256",
          "name": "_supplyChainId",
          "type": "uint256"
        }
      ],
      "name": "RawMaterialSupplierSuppliesRM",
      "type": "event"
    },
    {
      "anonymous": false,
      "inputs": [
        {
          "indexed": false,
          "internalType": "address",
          "name": "_address",
          "type": "address"
        }
      ],
      "name": "RemoveCustomer",
      "type": "event"
    },
    {
      "anonymous": false,
      "inputs": [
        {
          "indexed": false,
          "internalType": "address",
          "name": "_address",
          "type": "address"
        }
      ],
      "name": "RemoveDistributor",
      "type": "event"
    },
    {
      "anonymous": false,
      "inputs": [
        {
          "indexed": false,
          "internalType": "address",
          "name": "_address",
          "type": "address"
        }
      ],
      "name": "RemoveFactory",
      "type": "event"
    },
    {
      "anonymous": false,
      "inputs": [
        {
          "indexed": false,
          "internalType": "address",
          "name": "_address",
          "type": "address"
        }
      ],
      "name": "RemoveRawMaterialSupplier",
      "type": "event"
    },
    {
      "anonymous": false,
      "inputs": [
        {
          "indexed": false,
          "internalType": "address",
          "name": "_address",
          "type": "address"
        }
      ],
      "name": "RemoveRetailer",
      "type": "event"
    },
    {
      "anonymous": false,
      "inputs": [
        {
          "indexed": false,
          "internalType": "address",
          "name": "_address",
          "type": "address"
        }
      ],
      "name": "RemoveWarehouse",
      "type": "event"
    },
    {
      "anonymous": false,
      "inputs": [
        {
          "indexed": false,
          "internalType": "uint256",
          "name": "_supplyChainId",
          "type": "uint256"
        }
      ],
      "name": "RetailerSellToCustomer",
      "type": "event"
    },
    {
      "anonymous": false,
      "inputs": [
        {
          "indexed": false,
          "internalType": "uint256",
          "name": "a",
          "type": "uint256"
        },
        {
          "indexed": false,
          "internalType": "uint256",
          "name": "b",
          "type": "uint256"
        }
      ],
      "name": "valueeeeeeee",
      "type": "event"
    },
    {
      "inputs": [
        {
          "internalType": "uint256",
          "name": "",
          "type": "uint256"
        }
      ],
      "name": "YarnDetails",
      "outputs": [
        {
          "internalType": "uint256",
          "name": "YarnAmount",
          "type": "uint256"
        },
        {
          "internalType": "string",
          "name": "YarnColor",
          "type": "string"
        },
        {
          "internalType": "string",
          "name": "YarnType",
          "type": "string"
        }
      ],
      "stateMutability": "view",
      "type": "function"
    },
    {
      "inputs": [
        {
          "internalType": "address",
          "name": "_address",
          "type": "address"
        }
      ],
      "name": "addCustomer",
      "outputs": [],
      "stateMutability": "nonpayable",
      "type": "function"
    },
    {
      "inputs": [
        {
          "internalType": "address",
          "name": "_address",
          "type": "address"
        }
      ],
      "name": "addDistributor",
      "outputs": [],
      "stateMutability": "nonpayable",
      "type": "function"
    },
    {
      "inputs": [
        {
          "internalType": "address",
          "name": "_address",
          "type": "address"
        }
      ],
      "name": "addFactory",
      "outputs": [],
      "stateMutability": "nonpayable",
      "type": "function"
    },
    {
      "inputs": [
        {
          "internalType": "address",
          "name": "_address",
          "type": "address"
        }
      ],
      "name": "addRawMaterialSupplier",
      "outputs": [],
      "stateMutability": "nonpayable",
      "type": "function"
    },
    {
      "inputs": [
        {
          "internalType": "address",
          "name": "_address",
          "type": "address"
        }
      ],
      "name": "addRetailer",
      "outputs": [],
      "stateMutability": "nonpayable",
      "type": "function"
    },
    {
      "inputs": [
        {
          "internalType": "address",
          "name": "_address",
          "type": "address"
        }
      ],
      "name": "addWarehouse",
      "outputs": [],
      "stateMutability": "nonpayable",
      "type": "function"
    },
    {
      "inputs": [
        {
          "internalType": "uint256",
          "name": "_supplyChainId",
          "type": "uint256"
        }
      ],
      "name": "distributorSellToRetailer",
      "outputs": [],
      "stateMutability": "nonpayable",
      "type": "function"
    },
    {
      "inputs": [
        {
          "internalType": "uint256",
          "name": "_supplyChainId",
          "type": "uint256"
        },
        {
          "internalType": "address",
          "name": "_warehouse",
          "type": "address"
        }
      ],
      "name": "factoryBuyRawMaterial",
      "outputs": [],
      "stateMutability": "nonpayable",
      "type": "function"
    },
    {
      "inputs": [
        {
          "internalType": "uint256",
          "name": "_supplyChainId",
          "type": "uint256"
        },
        {
          "internalType": "uint256",
          "name": "_totalUnits",
          "type": "uint256"
        },
        {
          "internalType": "string",
          "name": "_description",
          "type": "string"
        }
      ],
      "name": "factoryCompleteGarmentManufacturing",
      "outputs": [],
      "stateMutability": "nonpayable",
      "type": "function"
    },
    {
      "inputs": [
        {
          "internalType": "uint256",
          "name": "_supplyChainId",
          "type": "uint256"
        },
        {
          "internalType": "uint256",
          "name": "_yarnAmount",
          "type": "uint256"
        },
        {
          "internalType": "string",
          "name": "_yarnColor",
          "type": "string"
        },
        {
          "internalType": "string",
          "name": "_yarnType",
          "type": "string"
        }
      ],
      "name": "factoryCompleteSpinningWaeving",
      "outputs": [],
      "stateMutability": "nonpayable",
      "type": "function"
    },
    {
      "inputs": [
        {
          "internalType": "uint256",
          "name": "_supplyChainId",
          "type": "uint256"
        },
        {
          "internalType": "address[]",
          "name": "distributors",
          "type": "address[]"
        },
        {
          "internalType": "uint256[]",
          "name": "quantity",
          "type": "uint256[]"
        }
      ],
      "name": "factorySellItemToDistributors",
      "outputs": [],
      "stateMutability": "nonpayable",
      "type": "function"
    },
    {
      "inputs": [],
      "name": "getCustomer",
      "outputs": [
        {
          "internalType": "address[]",
          "name": "",
          "type": "address[]"
        }
      ],
      "stateMutability": "view",
      "type": "function"
    },
    {
      "inputs": [],
      "name": "getDistributor",
      "outputs": [
        {
          "internalType": "address[]",
          "name": "",
          "type": "address[]"
        }
      ],
      "stateMutability": "view",
      "type": "function"
    },
    {
      "inputs": [
        {
          "internalType": "uint256",
          "name": "_supplychianId",
          "type": "uint256"
        }
      ],
      "name": "getDistributorCounters",
      "outputs": [
        {
          "internalType": "uint256[]",
          "name": "",
          "type": "uint256[]"
        }
      ],
      "stateMutability": "view",
      "type": "function"
    },
    {
      "inputs": [
        {
          "internalType": "uint256",
          "name": "_supplychianId",
          "type": "uint256"
        }
      ],
      "name": "getDistributorUnits",
      "outputs": [
        {
          "internalType": "uint256[]",
          "name": "",
          "type": "uint256[]"
        }
      ],
      "stateMutability": "view",
      "type": "function"
    },
    {
      "inputs": [
        {
          "internalType": "uint256",
          "name": "_supplychianId",
          "type": "uint256"
        }
      ],
      "name": "getDistributors",
      "outputs": [
        {
          "internalType": "address[]",
          "name": "",
          "type": "address[]"
        }
      ],
      "stateMutability": "view",
      "type": "function"
    },
    {
      "inputs": [],
      "name": "getFactory",
      "outputs": [
        {
          "internalType": "address[]",
          "name": "",
          "type": "address[]"
        }
      ],
      "stateMutability": "view",
      "type": "function"
    },
    {
      "inputs": [],
      "name": "getRawMaterialSupplier",
      "outputs": [
        {
          "internalType": "address[]",
          "name": "",
          "type": "address[]"
        }
      ],
      "stateMutability": "view",
      "type": "function"
    },
    {
      "inputs": [],
      "name": "getRetailer",
      "outputs": [
        {
          "internalType": "address[]",
          "name": "",
          "type": "address[]"
        }
      ],
      "stateMutability": "view",
      "type": "function"
    },
    {
      "inputs": [
        {
          "internalType": "uint256",
          "name": "_supplychianId",
          "type": "uint256"
        }
      ],
      "name": "getRetailers",
      "outputs": [
        {
          "internalType": "address[]",
          "name": "",
          "type": "address[]"
        }
      ],
      "stateMutability": "view",
      "type": "function"
    },
    {
      "inputs": [
        {
          "internalType": "uint256",
          "name": "_supplychianId",
          "type": "uint256"
        }
      ],
      "name": "getRetailersCounters",
      "outputs": [
        {
          "internalType": "uint256[]",
          "name": "",
          "type": "uint256[]"
        }
      ],
      "stateMutability": "view",
      "type": "function"
    },
    {
      "inputs": [
        {
          "internalType": "uint256",
          "name": "_supplychianId",
          "type": "uint256"
        }
      ],
      "name": "getRetailersUnits",
      "outputs": [
        {
          "internalType": "uint256[]",
          "name": "",
          "type": "uint256[]"
        }
      ],
      "stateMutability": "view",
      "type": "function"
    },
    {
      "inputs": [],
      "name": "getWarehouse",
      "outputs": [
        {
          "internalType": "address[]",
          "name": "",
          "type": "address[]"
        }
      ],
      "stateMutability": "view",
      "type": "function"
    },
    {
      "inputs": [
        {
          "internalType": "address",
          "name": "warehouse",
          "type": "address"
        }
      ],
      "name": "getWarehouseItems",
      "outputs": [
        {
          "components": [
            {
              "internalType": "uint256",
              "name": "supplyChainId",
              "type": "uint256"
            },
            {
              "internalType": "enum Supplychain.State",
              "name": "itemState",
              "type": "uint8"
            },
            {
              "internalType": "uint256",
              "name": "PolyesterAmount",
              "type": "uint256"
            },
            {
              "internalType": "uint256",
              "name": "CottonAmount",
              "type": "uint256"
            },
            {
              "internalType": "uint256",
              "name": "WoolAmount",
              "type": "uint256"
            },
            {
              "internalType": "uint256",
              "name": "totalUnits",
              "type": "uint256"
            },
            {
              "internalType": "string",
              "name": "Description",
              "type": "string"
            },
            {
              "internalType": "address",
              "name": "RawMaterialSupplierID",
              "type": "address"
            },
            {
              "internalType": "address",
              "name": "warehouseID",
              "type": "address"
            },
            {
              "internalType": "address",
              "name": "factoryID",
              "type": "address"
            }
          ],
          "internalType": "struct Supplychain.Item[]",
          "name": "",
          "type": "tuple[]"
        }
      ],
      "stateMutability": "view",
      "type": "function"
    },
    {
      "inputs": [
        {
          "internalType": "address",
          "name": "_address",
          "type": "address"
        }
      ],
      "name": "isCustomer",
      "outputs": [
        {
          "internalType": "bool",
          "name": "",
          "type": "bool"
        }
      ],
      "stateMutability": "view",
      "type": "function"
    },
    {
      "inputs": [
        {
          "internalType": "address",
          "name": "_address",
          "type": "address"
        }
      ],
      "name": "isDistributor",
      "outputs": [
        {
          "internalType": "bool",
          "name": "",
          "type": "bool"
        }
      ],
      "stateMutability": "view",
      "type": "function"
    },
    {
      "inputs": [
        {
          "internalType": "address",
          "name": "_address",
          "type": "address"
        }
      ],
      "name": "isFactory",
      "outputs": [
        {
          "internalType": "bool",
          "name": "",
          "type": "bool"
        }
      ],
      "stateMutability": "view",
      "type": "function"
    },
    {
      "inputs": [
        {
          "internalType": "address",
          "name": "_address",
          "type": "address"
        }
      ],
      "name": "isRawMaterialSupplier",
      "outputs": [
        {
          "internalType": "bool",
          "name": "",
          "type": "bool"
        }
      ],
      "stateMutability": "view",
      "type": "function"
    },
    {
      "inputs": [
        {
          "internalType": "address",
          "name": "_address",
          "type": "address"
        }
      ],
      "name": "isRetailer",
      "outputs": [
        {
          "internalType": "bool",
          "name": "",
          "type": "bool"
        }
      ],
      "stateMutability": "view",
      "type": "function"
    },
    {
      "inputs": [
        {
          "internalType": "address",
          "name": "_address",
          "type": "address"
        }
      ],
      "name": "isWarehouse",
      "outputs": [
        {
          "internalType": "bool",
          "name": "",
          "type": "bool"
        }
      ],
      "stateMutability": "view",
      "type": "function"
    },
    {
      "inputs": [
        {
          "internalType": "uint256",
          "name": "",
          "type": "uint256"
        }
      ],
      "name": "items",
      "outputs": [
        {
          "internalType": "uint256",
          "name": "supplyChainId",
          "type": "uint256"
        },
        {
          "internalType": "enum Supplychain.State",
          "name": "itemState",
          "type": "uint8"
        },
        {
          "internalType": "uint256",
          "name": "PolyesterAmount",
          "type": "uint256"
        },
        {
          "internalType": "uint256",
          "name": "CottonAmount",
          "type": "uint256"
        },
        {
          "internalType": "uint256",
          "name": "WoolAmount",
          "type": "uint256"
        },
        {
          "internalType": "uint256",
          "name": "totalUnits",
          "type": "uint256"
        },
        {
          "internalType": "string",
          "name": "Description",
          "type": "string"
        },
        {
          "internalType": "address",
          "name": "RawMaterialSupplierID",
          "type": "address"
        },
        {
          "internalType": "address",
          "name": "warehouseID",
          "type": "address"
        },
        {
          "internalType": "address",
          "name": "factoryID",
          "type": "address"
        }
      ],
      "stateMutability": "view",
      "type": "function"
    },
    {
      "inputs": [],
      "name": "owner",
      "outputs": [
        {
          "internalType": "address",
          "name": "",
          "type": "address"
        }
      ],
      "stateMutability": "view",
      "type": "function"
    },
    {
      "inputs": [
        {
          "internalType": "uint256",
          "name": "_polyesterAmount",
          "type": "uint256"
        },
        {
          "internalType": "uint256",
          "name": "_cottonAmount",
          "type": "uint256"
        },
        {
          "internalType": "uint256",
          "name": "_woolAmount",
          "type": "uint256"
        }
      ],
      "name": "rawMaterialSupplierSuppliesRM",
      "outputs": [],
      "stateMutability": "nonpayable",
      "type": "function"
    },
    {
      "inputs": [
        {
          "internalType": "address",
          "name": "_address",
          "type": "address"
        }
      ],
      "name": "removeCustomer",
      "outputs": [],
      "stateMutability": "nonpayable",
      "type": "function"
    },
    {
      "inputs": [
        {
          "internalType": "address",
          "name": "_address",
          "type": "address"
        }
      ],
      "name": "removeCustomerSelf",
      "outputs": [],
      "stateMutability": "nonpayable",
      "type": "function"
    },
    {
      "inputs": [
        {
          "internalType": "address",
          "name": "_address",
          "type": "address"
        }
      ],
      "name": "removeDistributor",
      "outputs": [],
      "stateMutability": "nonpayable",
      "type": "function"
    },
    {
      "inputs": [
        {
          "internalType": "address",
          "name": "_address",
          "type": "address"
        }
      ],
      "name": "removeDistributorSelf",
      "outputs": [],
      "stateMutability": "nonpayable",
      "type": "function"
    },
    {
      "inputs": [
        {
          "internalType": "address",
          "name": "_address",
          "type": "address"
        }
      ],
      "name": "removeFactory",
      "outputs": [],
      "stateMutability": "nonpayable",
      "type": "function"
    },
    {
      "inputs": [
        {
          "internalType": "address",
          "name": "_address",
          "type": "address"
        }
      ],
      "name": "removeFactorySelf",
      "outputs": [],
      "stateMutability": "nonpayable",
      "type": "function"
    },
    {
      "inputs": [
        {
          "internalType": "address",
          "name": "_address",
          "type": "address"
        }
      ],
      "name": "removeRawMaterialSupplier",
      "outputs": [],
      "stateMutability": "nonpayable",
      "type": "function"
    },
    {
      "inputs": [
        {
          "internalType": "address",
          "name": "_address",
          "type": "address"
        }
      ],
      "name": "removeRawMaterialSupplierSelf",
      "outputs": [],
      "stateMutability": "nonpayable",
      "type": "function"
    },
    {
      "inputs": [
        {
          "internalType": "address",
          "name": "_address",
          "type": "address"
        }
      ],
      "name": "removeRetailer",
      "outputs": [],
      "stateMutability": "nonpayable",
      "type": "function"
    },
    {
      "inputs": [
        {
          "internalType": "address",
          "name": "_address",
          "type": "address"
        }
      ],
      "name": "removeRetailerSelf",
      "outputs": [],
      "stateMutability": "nonpayable",
      "type": "function"
    },
    {
      "inputs": [
        {
          "internalType": "address",
          "name": "_address",
          "type": "address"
        }
      ],
      "name": "removeSelfWarehouse",
      "outputs": [],
      "stateMutability": "nonpayable",
      "type": "function"
    },
    {
      "inputs": [
        {
          "internalType": "address",
          "name": "_address",
          "type": "address"
        }
      ],
      "name": "removeWarehouse",
      "outputs": [],
      "stateMutability": "nonpayable",
      "type": "function"
    },
    {
      "inputs": [],
      "name": "renounceOwnership",
      "outputs": [],
      "stateMutability": "nonpayable",
      "type": "function"
    },
    {
      "inputs": [
        {
          "internalType": "uint256",
          "name": "",
          "type": "uint256"
        },
        {
          "internalType": "uint256",
          "name": "",
          "type": "uint256"
        }
      ],
      "name": "timeStamps",
      "outputs": [
        {
          "internalType": "uint256",
          "name": "",
          "type": "uint256"
        }
      ],
      "stateMutability": "view",
      "type": "function"
    },
    {
      "inputs": [],
      "name": "totalBatchs",
      "outputs": [
        {
          "internalType": "uint256",
          "name": "",
          "type": "uint256"
        }
      ],
      "stateMutability": "view",
      "type": "function"
    },
    {
      "inputs": [
        {
          "internalType": "address",
          "name": "newOwner",
          "type": "address"
        }
      ],
      "name": "transferOwnership",
      "outputs": [],
      "stateMutability": "nonpayable",
      "type": "function"
    }
  ],
  "bytecode": "0x60806040523480156200001157600080fd5b5060405162005e4938038062005e498339818101604052810190620000379190620006dd565b620000576200004b6200010560201b60201c565b6200010d60201b60201c565b6200006833620001d160201b60201c565b62000079336200023860201b60201c565b6200008a336200029f60201b60201c565b6200009b336200030660201b60201c565b620000ac336200036d60201b60201c565b620000bd33620003d460201b60201c565b80600760006101000a81548173ffffffffffffffffffffffffffffffffffffffff021916908373ffffffffffffffffffffffffffffffffffffffff16021790555050620008e8565b600033905090565b60008060009054906101000a900473ffffffffffffffffffffffffffffffffffffffff169050816000806101000a81548173ffffffffffffffffffffffffffffffffffffffff021916908373ffffffffffffffffffffffffffffffffffffffff1602179055508173ffffffffffffffffffffffffffffffffffffffff168173ffffffffffffffffffffffffffffffffffffffff167f8be0079c531659141344cd1fd0a4f28419497f9722a3daafe3b4186f6b6457e060405160405180910390a35050565b620001e16200043b60201b60201c565b620001fc816001620004cc60201b62003b331790919060201c565b7fa3da795b47eb190084f878e63c07509e5f6df63ebc51443c0ccab2fc11c0d883816040516200022d919062000720565b60405180910390a150565b620002486200043b60201b60201c565b62000263816002620004cc60201b62003b331790919060201c565b7f364ee90eb63717b99192fdb951c7b1aa91a45bca11ac73ab40cfad762631fbce8160405162000294919062000720565b60405180910390a150565b620002af6200043b60201b60201c565b620002ca816003620004cc60201b62003b331790919060201c565b7f5a8fb443d09cf1426e80f80dd509757d71d4687674ab4adad906c5e2b6e1e62c81604051620002fb919062000720565b60405180910390a150565b620003166200043b60201b60201c565b62000331816004620004cc60201b62003b331790919060201c565b7f3afd547f7eb357741de51229846ae795cb06449e4b4032eb34a7cc0a751e25c18160405162000362919062000720565b60405180910390a150565b6200037d6200043b60201b60201c565b62000398816005620004cc60201b62003b331790919060201c565b7f0eea60f9e1851b51feed56c339be177ea715591923622a0effe46dbb8885efa681604051620003c9919062000720565b60405180910390a150565b620003e46200043b60201b60201c565b620003ff816006620004cc60201b62003b331790919060201c565b7f23b2415a50efd127e694ba174e400d457ad65c58752e171b6d17f3f5daa26fdb8160405162000430919062000720565b60405180910390a150565b6200044b6200010560201b60201c565b73ffffffffffffffffffffffffffffffffffffffff16620004716200058a60201b60201c565b73ffffffffffffffffffffffffffffffffffffffff1614620004ca576040517f08c379a0000000000000000000000000000000000000000000000000000000008152600401620004c1906200079e565b60405180910390fd5b565b620004de8282620005b360201b60201c565b1562000521576040517f08c379a0000000000000000000000000000000000000000000000000000000008152600401620005189062000810565b60405180910390fd5b81600001819080600181540180825580915050600190039060005260206000200160009091909190916101000a81548173ffffffffffffffffffffffffffffffffffffffff021916908373ffffffffffffffffffffffffffffffffffffffff1602179055505050565b60008060009054906101000a900473ffffffffffffffffffffffffffffffffffffffff16905090565b6000808360000180549050905060005b8181101562000666578373ffffffffffffffffffffffffffffffffffffffff16856000018281548110620005fc57620005fb62000832565b5b9060005260206000200160009054906101000a900473ffffffffffffffffffffffffffffffffffffffff1673ffffffffffffffffffffffffffffffffffffffff16141562000650576001925050506200066d565b80806200065d906200089a565b915050620005c3565b5060009150505b92915050565b600080fd5b600073ffffffffffffffffffffffffffffffffffffffff82169050919050565b6000620006a58262000678565b9050919050565b620006b78162000698565b8114620006c357600080fd5b50565b600081519050620006d781620006ac565b92915050565b600060208284031215620006f657620006f562000673565b5b60006200070684828501620006c6565b91505092915050565b6200071a8162000698565b82525050565b60006020820190506200073760008301846200070f565b92915050565b600082825260208201905092915050565b7f4f776e61626c653a2063616c6c6572206973206e6f7420746865206f776e6572600082015250565b6000620007866020836200073d565b915062000793826200074e565b602082019050919050565b60006020820190508181036000830152620007b98162000777565b9050919050565b7f524f4c455f414c52454144595f45584953545300000000000000000000000000600082015250565b6000620007f86013836200073d565b91506200080582620007c0565b602082019050919050565b600060208201905081810360008301526200082b81620007e9565b9050919050565b7f4e487b7100000000000000000000000000000000000000000000000000000000600052603260045260246000fd5b7f4e487b7100000000000000000000000000000000000000000000000000000000600052601160045260246000fd5b6000819050919050565b6000620008a78262000890565b91507fffffffffffffffffffffffffffffffffffffffffffffffffffffffffffffffff821415620008dd57620008dc62000861565b5b600182019050919050565b61555180620008f86000396000f3fe608060405234801561001057600080fd5b50600436106102d65760003560e01c806380bedacf11610182578063bdacda31116100e9578063e6647c5c116100a2578063eeb341331161007c578063eeb3413314610914578063f2fde38b14610932578063f80d1ff01461094e578063faf31e081461096c576102d6565b8063e6647c5c14610898578063e70a962b146108c8578063e7d0831d146108f8576102d6565b8063bdacda31146107a9578063bfb231d2146107c7578063bfed485614610800578063dafe1ef714610830578063e102add814610860578063e3c1a5311461087c576102d6565b80638eb06ccf1161013b5780638eb06ccf146106d95780638ec4f505146106f55780638f0c86fa14610711578063a198d49614610741578063ad973d741461075d578063bca4bd5014610779576102d6565b806380bedacf1461062d578063814f696e1461064957806384480510146106655780638853ad751461068157806388cc58e41461069d5780638da5cb5b146106bb576102d6565b80634c5eee0a116102415780635bf27912116101fa578063678c12a2116101d4578063678c12a2146105cf57806370099ec8146105eb578063715018a6146106075780637250e22414610611576102d6565b80635bf27912146105655780635da09b8814610581578063650d993b146105b1576102d6565b80634c5eee0a146104915780634d2ec64c146104ad5780635166b5c8146104df57806357c1f9e2146104fb5780635884965f146105175780635a96838314610535576102d6565b806328fd5e831161029357806328fd5e83146103c157806329ce1ec5146103f15780632a7ec29f1461040d578063319af857146104295780633c0e25a4146104595780634b37c73f14610475576102d6565b80630f04ba67146102db578063201ef8f21461030b57806320519bb014610327578063209d353e146103575780632100c7c8146103875780632885b943146103a3575b600080fd5b6102f560048036038101906102f0919061415c565b61099c565b60405161030291906141a4565b60405180910390f35b6103256004803603810190610320919061433b565b6109b9565b005b610341600480360381019061033c91906143da565b610e3f565b60405161034e91906144c5565b60405180910390f35b610371600480360381019061036c91906143da565b610eaa565b60405161037e91906145a5565b60405180910390f35b6103a1600480360381019061039c91906145c7565b610f4b565b005b6103ab6116b1565b6040516103b891906145a5565b60405180910390f35b6103db60048036038101906103d6919061415c565b6116c2565b6040516103e891906141a4565b60405180910390f35b61040b6004803603810190610406919061415c565b6116df565b005b6104276004803603810190610422919061415c565b611735565b005b610443600480360381019061043e91906143da565b6117f1565b60405161045091906144c5565b60405180910390f35b610473600480360381019061046e919061415c565b61185c565b005b61048f600480360381019061048a919061415c565b6118b2565b005b6104ab60048036038101906104a69190614607565b611908565b005b6104c760048036038101906104c291906143da565b611d73565b6040516104d69392919061470d565b60405180910390f35b6104f960048036038101906104f4919061415c565b611ead565b005b6105156004803603810190610510919061415c565b611f03565b005b61051f611f59565b60405161052c91906145a5565b60405180910390f35b61054f600480360381019061054a91906143da565b611f6a565b60405161055c91906144c5565b60405180910390f35b61057f600480360381019061057a919061415c565b611fd5565b005b61059b6004803603810190610596919061415c565b612091565b6040516105a891906141a4565b60405180910390f35b6105b96120ae565b6040516105c691906145a5565b60405180910390f35b6105e960048036038101906105e491906148dd565b6120bf565b005b6106056004803603810190610600919061415c565b6129b8565b005b61060f612a0e565b005b61062b6004803603810190610626919061415c565b612a22565b005b6106476004803603810190610642919061415c565b612a78565b005b610663600480360381019061065e919061415c565b612b34565b005b61067f600480360381019061067a919061415c565b612b8a565b005b61069b6004803603810190610696919061415c565b612c46565b005b6106a5612d02565b6040516106b291906145a5565b60405180910390f35b6106c3612d13565b6040516106d09190614977565b60405180910390f35b6106f360048036038101906106ee919061415c565b612d3c565b005b61070f600480360381019061070a919061415c565b612d92565b005b61072b6004803603810190610726919061415c565b612de8565b60405161073891906141a4565b60405180910390f35b61075b60048036038101906107569190614992565b612e05565b005b6107776004803603810190610772919061415c565b61318d565b005b610793600480360381019061078e919061415c565b6131e3565b6040516107a091906141a4565b60405180910390f35b6107b1613200565b6040516107be91906145a5565b60405180910390f35b6107e160048036038101906107dc91906143da565b613211565b6040516107f79a99989796959493929190614a5c565b60405180910390f35b61081a6004803603810190610815919061415c565b61335a565b6040516108279190614cf4565b60405180910390f35b61084a600480360381019061084591906143da565b6135fa565b60405161085791906145a5565b60405180910390f35b61087a600480360381019061087591906143da565b61369b565b005b6108966004803603810190610891919061415c565b6138c2565b005b6108b260048036038101906108ad9190614d16565b613918565b6040516108bf9190614d56565b60405180910390f35b6108e260048036038101906108dd91906143da565b613949565b6040516108ef91906144c5565b60405180910390f35b610912600480360381019061090d919061415c565b6139b4565b005b61091c613a70565b6040516109299190614d56565b60405180910390f35b61094c6004803603810190610947919061415c565b613a81565b005b610956613b05565b60405161096391906145a5565b60405180910390f35b6109866004803603810190610981919061415c565b613b16565b60405161099391906141a4565b60405180910390f35b60006109b2826003613be690919063ffffffff16565b9050919050565b6109c23361099c565b6109cb57600080fd5b6000600b600086815260200190815260200160002060405180610140016040529081600082015481526020016001820160009054906101000a900460ff166006811115610a1b57610a1a6149e5565b5b6006811115610a2d57610a2c6149e5565b5b815260200160028201548152602001600382015481526020016004820154815260200160058201548152602001600682018054610a6990614da0565b80601f0160208091040260200160405190810160405280929190818152602001828054610a9590614da0565b8015610ae25780601f10610ab757610100808354040283529160200191610ae2565b820191906000526020600020905b815481529060010190602001808311610ac557829003601f168201915b505050505081526020016007820160009054906101000a900473ffffffffffffffffffffffffffffffffffffffff1673ffffffffffffffffffffffffffffffffffffffff1673ffffffffffffffffffffffffffffffffffffffff1681526020016008820160009054906101000a900473ffffffffffffffffffffffffffffffffffffffff1673ffffffffffffffffffffffffffffffffffffffff1673ffffffffffffffffffffffffffffffffffffffff1681526020016009820160009054906101000a900473ffffffffffffffffffffffffffffffffffffffff1673ffffffffffffffffffffffffffffffffffffffff1673ffffffffffffffffffffffffffffffffffffffff1681525050905083600960008781526020019081526020016000206000018190555082600960008781526020019081526020016000206001019080519060200190610c34929190614047565b5081600960008781526020019081526020016000206002019080519060200190610c5f929190614047565b50600281602001906006811115610c7957610c786149e5565b5b90816006811115610c8d57610c8c6149e5565b5b8152505080600b60008781526020019081526020016000206000820151816000015560208201518160010160006101000a81548160ff02191690836006811115610cda57610cd96149e5565b5b021790555060408201518160020155606082015181600301556080820151816004015560a0820151816005015560c0820151816006019080519060200190610d23929190614047565b5060e08201518160070160006101000a81548173ffffffffffffffffffffffffffffffffffffffff021916908373ffffffffffffffffffffffffffffffffffffffff1602179055506101008201518160080160006101000a81548173ffffffffffffffffffffffffffffffffffffffff021916908373ffffffffffffffffffffffffffffffffffffffff1602179055506101208201518160090160006101000a81548173ffffffffffffffffffffffffffffffffffffffff021916908373ffffffffffffffffffffffffffffffffffffffff160217905550905050600a60008681526020019081526020016000204290806001815401808255809150506001900390600052602060002001600090919091909150555050505050565b606060126000838152602001908152602001600020805480602002602001604051908101604052809291908181526020018280548015610e9e57602002820191906000526020600020905b815481526020019060010190808311610e8a575b50505050509050919050565b606060106000838152602001908152602001600020805480602002602001604051908101604052809291908181526020018280548015610f3f57602002820191906000526020600020905b8160009054906101000a900473ffffffffffffffffffffffffffffffffffffffff1673ffffffffffffffffffffffffffffffffffffffff1681526020019060010190808311610ef5575b50505050509050919050565b610f543361099c565b610f5d57600080fd5b610f66816131e3565b610fa5576040517f08c379a0000000000000000000000000000000000000000000000000000000008152600401610f9c90614e44565b60405180910390fd5b6000600b600084815260200190815260200160002060405180610140016040529081600082015481526020016001820160009054906101000a900460ff166006811115610ff557610ff46149e5565b5b6006811115611007576110066149e5565b5b81526020016002820154815260200160038201548152602001600482015481526020016005820154815260200160068201805461104390614da0565b80601f016020809104026020016040519081016040528092919081815260200182805461106f90614da0565b80156110bc5780601f10611091576101008083540402835291602001916110bc565b820191906000526020600020905b81548152906001019060200180831161109f57829003601f168201915b505050505081526020016007820160009054906101000a900473ffffffffffffffffffffffffffffffffffffffff1673ffffffffffffffffffffffffffffffffffffffff1673ffffffffffffffffffffffffffffffffffffffff1681526020016008820160009054906101000a900473ffffffffffffffffffffffffffffffffffffffff1673ffffffffffffffffffffffffffffffffffffffff1673ffffffffffffffffffffffffffffffffffffffff1681526020016009820160009054906101000a900473ffffffffffffffffffffffffffffffffffffffff1673ffffffffffffffffffffffffffffffffffffffff1673ffffffffffffffffffffffffffffffffffffffff1681525050905060008160e0015190503382610120019073ffffffffffffffffffffffffffffffffffffffff16908173ffffffffffffffffffffffffffffffffffffffff16815250508282610100019073ffffffffffffffffffffffffffffffffffffffff16908173ffffffffffffffffffffffffffffffffffffffff168152505060018260200190600681111561125d5761125c6149e5565b5b90816006811115611271576112706149e5565b5b8152505081600b60008681526020019081526020016000206000820151816000015560208201518160010160006101000a81548160ff021916908360068111156112be576112bd6149e5565b5b021790555060408201518160020155606082015181600301556080820151816004015560a0820151816005015560c0820151816006019080519060200190611307929190614047565b5060e08201518160070160006101000a81548173ffffffffffffffffffffffffffffffffffffffff021916908373ffffffffffffffffffffffffffffffffffffffff1602179055506101008201518160080160006101000a81548173ffffffffffffffffffffffffffffffffffffffff021916908373ffffffffffffffffffffffffffffffffffffffff1602179055506101208201518160090160006101000a81548173ffffffffffffffffffffffffffffffffffffffff021916908373ffffffffffffffffffffffffffffffffffffffff160217905550905050600c60008473ffffffffffffffffffffffffffffffffffffffff1673ffffffffffffffffffffffffffffffffffffffff1681526020019081526020016000208290806001815401808255809150506001900390600052602060002090600a02016000909190919091506000820151816000015560208201518160010160006101000a81548160ff021916908360068111156114805761147f6149e5565b5b021790555060408201518160020155606082015181600301556080820151816004015560a0820151816005015560c08201518160060190805190602001906114c9929190614047565b5060e08201518160070160006101000a81548173ffffffffffffffffffffffffffffffffffffffff021916908373ffffffffffffffffffffffffffffffffffffffff1602179055506101008201518160080160006101000a81548173ffffffffffffffffffffffffffffffffffffffff021916908373ffffffffffffffffffffffffffffffffffffffff1602179055506101208201518160090160006101000a81548173ffffffffffffffffffffffffffffffffffffffff021916908373ffffffffffffffffffffffffffffffffffffffff1602179055505050600760009054906101000a900473ffffffffffffffffffffffffffffffffffffffff1673ffffffffffffffffffffffffffffffffffffffff1663e51a27ce823387600160006040518663ffffffff1660e01b8152600401611608959493929190614f41565b600060405180830381600087803b15801561162257600080fd5b505af1158015611636573d6000803e3d6000fd5b50505050600a60008581526020019081526020016000204290806001815401808255809150506001900390600052602060002001600090919091909150557f84fad793fc72a4890032a0a48ea25fb57401690403f128ee2aaf047af876291c846040516116a39190614d56565b60405180910390a150505050565b60606116bd6002613c9d565b905090565b60006116d8826006613be690919063ffffffff16565b9050919050565b6116e7613d2f565b6116fb816003613b3390919063ffffffff16565b7f5a8fb443d09cf1426e80f80dd509757d71d4687674ab4adad906c5e2b6e1e62c8160405161172a9190614977565b60405180910390a150565b8073ffffffffffffffffffffffffffffffffffffffff163373ffffffffffffffffffffffffffffffffffffffff16146117a3576040517f08c379a000000000000000000000000000000000000000000000000000000000815260040161179a90614ff3565b60405180910390fd5b6117b7816006613dad90919063ffffffff16565b7f4709990004724f283154297c090b8420d74dcbf9ffcd6bc50294e7350c7cb4fc816040516117e69190614977565b60405180910390a150565b60606011600083815260200190815260200160002080548060200260200160405190810160405280929190818152602001828054801561185057602002820191906000526020600020905b81548152602001906001019080831161183c575b50505050509050919050565b611864613d2f565b611878816001613b3390919063ffffffff16565b7fa3da795b47eb190084f878e63c07509e5f6df63ebc51443c0ccab2fc11c0d883816040516118a79190614977565b60405180910390a150565b6118ba613d2f565b6118ce816003613dad90919063ffffffff16565b7f3d4e7057f9f992c8d86344002642adf5d5cd33816b302134e7ef5e0f045a6e78816040516118fd9190614977565b60405180910390a150565b6119113361099c565b61191a57600080fd5b600182101561195e576040517f08c379a00000000000000000000000000000000000000000000000000000000081526004016119559061505f565b60405180910390fd5b6000600b600085815260200190815260200160002060405180610140016040529081600082015481526020016001820160009054906101000a900460ff1660068111156119ae576119ad6149e5565b5b60068111156119c0576119bf6149e5565b5b8152602001600282015481526020016003820154815260200160048201548152602001600582015481526020016006820180546119fc90614da0565b80601f0160208091040260200160405190810160405280929190818152602001828054611a2890614da0565b8015611a755780601f10611a4a57610100808354040283529160200191611a75565b820191906000526020600020905b815481529060010190602001808311611a5857829003601f168201915b505050505081526020016007820160009054906101000a900473ffffffffffffffffffffffffffffffffffffffff1673ffffffffffffffffffffffffffffffffffffffff1673ffffffffffffffffffffffffffffffffffffffff1681526020016008820160009054906101000a900473ffffffffffffffffffffffffffffffffffffffff1673ffffffffffffffffffffffffffffffffffffffff1673ffffffffffffffffffffffffffffffffffffffff1681526020016009820160009054906101000a900473ffffffffffffffffffffffffffffffffffffffff1673ffffffffffffffffffffffffffffffffffffffff1673ffffffffffffffffffffffffffffffffffffffff16815250509050828160a0018181525050818160c00181905250600381602001906006811115611bae57611bad6149e5565b5b90816006811115611bc257611bc16149e5565b5b8152505080600b60008681526020019081526020016000206000820151816000015560208201518160010160006101000a81548160ff02191690836006811115611c0f57611c0e6149e5565b5b021790555060408201518160020155606082015181600301556080820151816004015560a0820151816005015560c0820151816006019080519060200190611c58929190614047565b5060e08201518160070160006101000a81548173ffffffffffffffffffffffffffffffffffffffff021916908373ffffffffffffffffffffffffffffffffffffffff1602179055506101008201518160080160006101000a81548173ffffffffffffffffffffffffffffffffffffffff021916908373ffffffffffffffffffffffffffffffffffffffff1602179055506101208201518160090160006101000a81548173ffffffffffffffffffffffffffffffffffffffff021916908373ffffffffffffffffffffffffffffffffffffffff160217905550905050600a600085815260200190815260200160002042908060018154018082558091505060019003906000526020600020016000909190919091505550505050565b6009602052806000526040600020600091509050806000015490806001018054611d9c90614da0565b80601f0160208091040260200160405190810160405280929190818152602001828054611dc890614da0565b8015611e155780601f10611dea57610100808354040283529160200191611e15565b820191906000526020600020905b815481529060010190602001808311611df857829003601f168201915b505050505090806002018054611e2a90614da0565b80601f0160208091040260200160405190810160405280929190818152602001828054611e5690614da0565b8015611ea35780601f10611e7857610100808354040283529160200191611ea3565b820191906000526020600020905b815481529060010190602001808311611e8657829003601f168201915b5050505050905083565b611eb5613d2f565b611ec9816001613dad90919063ffffffff16565b7fccc03dfae55d568292686488ccd27bcdc249a89347bf1c13a2115a29062618b781604051611ef89190614977565b60405180910390a150565b611f0b613d2f565b611f1f816004613dad90919063ffffffff16565b7f43dd2f8ce4e5873e618ffabcae9856729ea5811dbc5e1c9be4365fcf7b7cf70381604051611f4e9190614977565b60405180910390a150565b6060611f656004613c9d565b905090565b6060600f6000838152602001908152602001600020805480602002602001604051908101604052809291908181526020018280548015611fc957602002820191906000526020600020905b815481526020019060010190808311611fb5575b50505050509050919050565b8073ffffffffffffffffffffffffffffffffffffffff163373ffffffffffffffffffffffffffffffffffffffff1614612043576040517f08c379a000000000000000000000000000000000000000000000000000000000815260040161203a90614ff3565b60405180910390fd5b612057816004613dad90919063ffffffff16565b7f43dd2f8ce4e5873e618ffabcae9856729ea5811dbc5e1c9be4365fcf7b7cf703816040516120869190614977565b60405180910390a150565b60006120a7826005613be690919063ffffffff16565b9050919050565b60606120ba6006613c9d565b905090565b6120c83361099c565b6120d157600080fd5b6000600b600085815260200190815260200160002060405180610140016040529081600082015481526020016001820160009054906101000a900460ff166006811115612121576121206149e5565b5b6006811115612133576121326149e5565b5b81526020016002820154815260200160038201548152602001600482015481526020016005820154815260200160068201805461216f90614da0565b80601f016020809104026020016040519081016040528092919081815260200182805461219b90614da0565b80156121e85780601f106121bd576101008083540402835291602001916121e8565b820191906000526020600020905b8154815290600101906020018083116121cb57829003601f168201915b505050505081526020016007820160009054906101000a900473ffffffffffffffffffffffffffffffffffffffff1673ffffffffffffffffffffffffffffffffffffffff1673ffffffffffffffffffffffffffffffffffffffff1681526020016008820160009054906101000a900473ffffffffffffffffffffffffffffffffffffffff1673ffffffffffffffffffffffffffffffffffffffff1673ffffffffffffffffffffffffffffffffffffffff1681526020016009820160009054906101000a900473ffffffffffffffffffffffffffffffffffffffff1673ffffffffffffffffffffffffffffffffffffffff1673ffffffffffffffffffffffffffffffffffffffff1681525050905060048160200190600681111561230e5761230d6149e5565b5b90816006811115612322576123216149e5565b5b8152505060008160a001519050600760009054906101000a900473ffffffffffffffffffffffffffffffffffffffff1673ffffffffffffffffffffffffffffffffffffffff1663156e29f6338760018561237c91906150ae565b6040518463ffffffff1660e01b815260040161239a939291906150e2565b600060405180830381600087803b1580156123b457600080fd5b505af11580156123c8573d6000803e3d6000fd5b505050506000805b855181101561265b576123fc8682815181106123ef576123ee615119565b5b6020026020010151612de8565b61243b576040517f08c379a0000000000000000000000000000000000000000000000000000000008152600401612432906151ba565b60405180910390fd5b600d600088815260200190815260200160002086828151811061246157612460615119565b5b60200260200101519080600181540180825580915050600190039060005260206000200160009091909190916101000a81548173ffffffffffffffffffffffffffffffffffffffff021916908373ffffffffffffffffffffffffffffffffffffffff160217905550600e60008881526020019081526020016000208582815181106124ef576124ee615119565b5b60200260200101519080600181540180825580915050600190039060005260206000200160009091909190915055600f6000888152602001908152602001600020829080600181540180825580915050600190039060005260206000200160009091909190915055600760009054906101000a900473ffffffffffffffffffffffffffffffffffffffff1673ffffffffffffffffffffffffffffffffffffffff1663e51a27ce338884815181106125a9576125a8615119565b5b60200260200101518a8986815181106125c5576125c4615119565b5b6020026020010151876040518663ffffffff1660e01b81526004016125ee9594939291906151da565b600060405180830381600087803b15801561260857600080fd5b505af115801561261c573d6000803e3d6000fd5b5050505084818151811061263357612632615119565b5b6020026020010151826126469190615240565b9150808061265390615296565b9150506123d0565b5082600b60008881526020019081526020016000206000820151816000015560208201518160010160006101000a81548160ff021916908360068111156126a5576126a46149e5565b5b021790555060408201518160020155606082015181600301556080820151816004015560a0820151816005015560c08201518160060190805190602001906126ee929190614047565b5060e08201518160070160006101000a81548173ffffffffffffffffffffffffffffffffffffffff021916908373ffffffffffffffffffffffffffffffffffffffff1602179055506101008201518160080160006101000a81548173ffffffffffffffffffffffffffffffffffffffff021916908373ffffffffffffffffffffffffffffffffffffffff1602179055506101208201518160090160006101000a81548173ffffffffffffffffffffffffffffffffffffffff021916908373ffffffffffffffffffffffffffffffffffffffff1602179055509050506000600c600085610100015173ffffffffffffffffffffffffffffffffffffffff1673ffffffffffffffffffffffffffffffffffffffff168152602001908152602001600020805490509050600081111561293e5760005b8181101561293c5787600c600087610100015173ffffffffffffffffffffffffffffffffffffffff1673ffffffffffffffffffffffffffffffffffffffff16815260200190815260200160002082815481106128805761287f615119565b5b90600052602060002090600a0201600001541415612929576004600c600087610100015173ffffffffffffffffffffffffffffffffffffffff1673ffffffffffffffffffffffffffffffffffffffff16815260200190815260200160002082815481106128f0576128ef615119565b5b90600052602060002090600a020160010160006101000a81548160ff02191690836006811115612923576129226149e5565b5b02179055505b808061293490615296565b915050612821565b505b600a60008881526020019081526020016000204290806001815401808255809150506001900390600052602060002001600090919091909150557f01e7f4af78fe812a5df0e0b3c5b400eff1cd1366eca03a2261de317ae5f6727b876040516129a79190614d56565b60405180910390a150505050505050565b6129c0613d2f565b6129d4816005613dad90919063ffffffff16565b7f200c3f073f217cf07dee57ee6e42c29e5fa6937f536b65c9d1e06be1f9c83dc181604051612a039190614977565b60405180910390a150565b612a16613d2f565b612a206000613f57565b565b612a2a613d2f565b612a3e816004613b3390919063ffffffff16565b7f3afd547f7eb357741de51229846ae795cb06449e4b4032eb34a7cc0a751e25c181604051612a6d9190614977565b60405180910390a150565b8073ffffffffffffffffffffffffffffffffffffffff163373ffffffffffffffffffffffffffffffffffffffff1614612ae6576040517f08c379a0000000000000000000000000000000000000000000000000000000008152600401612add90614ff3565b60405180910390fd5b612afa816001613dad90919063ffffffff16565b7fccc03dfae55d568292686488ccd27bcdc249a89347bf1c13a2115a29062618b781604051612b299190614977565b60405180910390a150565b612b3c613d2f565b612b50816002613b3390919063ffffffff16565b7f364ee90eb63717b99192fdb951c7b1aa91a45bca11ac73ab40cfad762631fbce81604051612b7f9190614977565b60405180910390a150565b8073ffffffffffffffffffffffffffffffffffffffff163373ffffffffffffffffffffffffffffffffffffffff1614612bf8576040517f08c379a0000000000000000000000000000000000000000000000000000000008152600401612bef90614ff3565b60405180910390fd5b612c0c816003613dad90919063ffffffff16565b7f3d4e7057f9f992c8d86344002642adf5d5cd33816b302134e7ef5e0f045a6e7881604051612c3b9190614977565b60405180910390a150565b8073ffffffffffffffffffffffffffffffffffffffff163373ffffffffffffffffffffffffffffffffffffffff1614612cb4576040517f08c379a0000000000000000000000000000000000000000000000000000000008152600401612cab90614ff3565b60405180910390fd5b612cc8816002613dad90919063ffffffff16565b7f9cfe362d8a536c3b63d391e311186b7f259fdd498eecf5d32626fe9b95058a7d81604051612cf79190614977565b60405180910390a150565b6060612d0e6003613c9d565b905090565b60008060009054906101000a900473ffffffffffffffffffffffffffffffffffffffff16905090565b612d44613d2f565b612d58816006613dad90919063ffffffff16565b7f4709990004724f283154297c090b8420d74dcbf9ffcd6bc50294e7350c7cb4fc81604051612d879190614977565b60405180910390a150565b612d9a613d2f565b612dae816005613b3390919063ffffffff16565b7f0eea60f9e1851b51feed56c339be177ea715591923622a0effe46dbb8885efa681604051612ddd9190614977565b60405180910390a150565b6000612dfe826004613be690919063ffffffff16565b9050919050565b612e0e33613b16565b612e4d576040517f08c379a0000000000000000000000000000000000000000000000000000000008152600401612e449061532b565b60405180910390fd5b6000612e59600861401b565b9050600060405180610140016040528083815260200160006006811115612e8357612e826149e5565b5b8152602001868152602001858152602001848152602001600081526020016040518060200160405280600081525081526020013373ffffffffffffffffffffffffffffffffffffffff168152602001600073ffffffffffffffffffffffffffffffffffffffff168152602001600073ffffffffffffffffffffffffffffffffffffffff16815250905080600b60008481526020019081526020016000206000820151816000015560208201518160010160006101000a81548160ff02191690836006811115612f5557612f546149e5565b5b021790555060408201518160020155606082015181600301556080820151816004015560a0820151816005015560c0820151816006019080519060200190612f9e929190614047565b5060e08201518160070160006101000a81548173ffffffffffffffffffffffffffffffffffffffff021916908373ffffffffffffffffffffffffffffffffffffffff1602179055506101008201518160080160006101000a81548173ffffffffffffffffffffffffffffffffffffffff021916908373ffffffffffffffffffffffffffffffffffffffff1602179055506101208201518160090160006101000a81548173ffffffffffffffffffffffffffffffffffffffff021916908373ffffffffffffffffffffffffffffffffffffffff160217905550905050600760009054906101000a900473ffffffffffffffffffffffffffffffffffffffff1673ffffffffffffffffffffffffffffffffffffffff1663156e29f6338460016040518463ffffffff1660e01b81526004016130d99392919061534b565b600060405180830381600087803b1580156130f357600080fd5b505af1158015613107573d6000803e3d6000fd5b505050506131156008614029565b600a60008381526020019081526020016000204290806001815401808255809150506001900390600052602060002001600090919091909150557f8dba83ab26c4e67ac150487b6c119e69498289b9cc6c7dfd77fd0df2e671b48b8260405161317e9190614d56565b60405180910390a15050505050565b613195613d2f565b6131a9816006613b3390919063ffffffff16565b7f23b2415a50efd127e694ba174e400d457ad65c58752e171b6d17f3f5daa26fdb816040516131d89190614977565b60405180910390a150565b60006131f9826002613be690919063ffffffff16565b9050919050565b606061320c6001613c9d565b905090565b600b6020528060005260406000206000915090508060000154908060010160009054906101000a900460ff169080600201549080600301549080600401549080600501549080600601805461326590614da0565b80601f016020809104026020016040519081016040528092919081815260200182805461329190614da0565b80156132de5780601f106132b3576101008083540402835291602001916132de565b820191906000526020600020905b8154815290600101906020018083116132c157829003601f168201915b5050505050908060070160009054906101000a900473ffffffffffffffffffffffffffffffffffffffff16908060080160009054906101000a900473ffffffffffffffffffffffffffffffffffffffff16908060090160009054906101000a900473ffffffffffffffffffffffffffffffffffffffff1690508a565b6060600c60008373ffffffffffffffffffffffffffffffffffffffff1673ffffffffffffffffffffffffffffffffffffffff168152602001908152602001600020805480602002602001604051908101604052809291908181526020016000905b828210156135ef57838290600052602060002090600a020160405180610140016040529081600082015481526020016001820160009054906101000a900460ff16600681111561340e5761340d6149e5565b5b60068111156134205761341f6149e5565b5b81526020016002820154815260200160038201548152602001600482015481526020016005820154815260200160068201805461345c90614da0565b80601f016020809104026020016040519081016040528092919081815260200182805461348890614da0565b80156134d55780601f106134aa576101008083540402835291602001916134d5565b820191906000526020600020905b8154815290600101906020018083116134b857829003601f168201915b505050505081526020016007820160009054906101000a900473ffffffffffffffffffffffffffffffffffffffff1673ffffffffffffffffffffffffffffffffffffffff1673ffffffffffffffffffffffffffffffffffffffff1681526020016008820160009054906101000a900473ffffffffffffffffffffffffffffffffffffffff1673ffffffffffffffffffffffffffffffffffffffff1673ffffffffffffffffffffffffffffffffffffffff1681526020016009820160009054906101000a900473ffffffffffffffffffffffffffffffffffffffff1673ffffffffffffffffffffffffffffffffffffffff1673ffffffffffffffffffffffffffffffffffffffff1681525050815260200190600101906133bb565b505050509050919050565b6060600d600083815260200190815260200160002080548060200260200160405190810160405280929190818152602001828054801561368f57602002820191906000526020600020905b8160009054906101000a900473ffffffffffffffffffffffffffffffffffffffff1673ffffffffffffffffffffffffffffffffffffffff1681526020019060010190808311613645575b50505050509050919050565b6136a433612de8565b6136ad57600080fd5b60008060006136bb846135fa565b905060005b815181101561388457600073ffffffffffffffffffffffffffffffffffffffff168282815181106136f4576136f3615119565b5b602002602001015173ffffffffffffffffffffffffffffffffffffffff161415801561376557503373ffffffffffffffffffffffffffffffffffffffff1682828151811061374557613744615119565b5b602002602001015173ffffffffffffffffffffffffffffffffffffffff16145b156138715761377385613949565b818151811061378557613784615119565b5b6020026020010151935061379885611f6a565b81815181106137aa576137a9615119565b5b60200260200101519250600d600086815260200190815260200160002081815481106137d9576137d8615119565b5b9060005260206000200160006101000a81549073ffffffffffffffffffffffffffffffffffffffff0219169055600e6000868152602001908152602001600020818154811061382b5761382a615119565b5b9060005260206000200160009055600f6000868152602001908152602001600020818154811061385e5761385d615119565b5b9060005260206000200160009055613884565b808061387c90615296565b9150506136c0565b507fb9f01075be5d71ca908e0aae338e241c77af5da8fbd7d476d37de1c8634dc0e2846040516138b49190614d56565b60405180910390a150505050565b6138ca613d2f565b6138de816002613dad90919063ffffffff16565b7f9cfe362d8a536c3b63d391e311186b7f259fdd498eecf5d32626fe9b95058a7d8160405161390d9190614977565b60405180910390a150565b600a602052816000526040600020818154811061393457600080fd5b90600052602060002001600091509150505481565b6060600e60008381526020019081526020016000208054806020026020016040519081016040528092919081815260200182805480156139a857602002820191906000526020600020905b815481526020019060010190808311613994575b50505050509050919050565b8073ffffffffffffffffffffffffffffffffffffffff163373ffffffffffffffffffffffffffffffffffffffff1614613a22576040517f08c379a0000000000000000000000000000000000000000000000000000000008152600401613a1990614ff3565b60405180910390fd5b613a36816005613dad90919063ffffffff16565b7f200c3f073f217cf07dee57ee6e42c29e5fa6937f536b65c9d1e06be1f9c83dc181604051613a659190614977565b60405180910390a150565b6000613a7c600861401b565b905090565b613a89613d2f565b600073ffffffffffffffffffffffffffffffffffffffff168173ffffffffffffffffffffffffffffffffffffffff161415613af9576040517f08c379a0000000000000000000000000000000000000000000000000000000008152600401613af0906153f4565b60405180910390fd5b613b0281613f57565b50565b6060613b116005613c9d565b905090565b6000613b2c826001613be690919063ffffffff16565b9050919050565b613b3d8282613be6565b15613b7d576040517f08c379a0000000000000000000000000000000000000000000000000000000008152600401613b7490615460565b60405180910390fd5b81600001819080600181540180825580915050600190039060005260206000200160009091909190916101000a81548173ffffffffffffffffffffffffffffffffffffffff021916908373ffffffffffffffffffffffffffffffffffffffff1602179055505050565b6000808360000180549050905060005b81811015613c90578373ffffffffffffffffffffffffffffffffffffffff16856000018281548110613c2b57613c2a615119565b5b9060005260206000200160009054906101000a900473ffffffffffffffffffffffffffffffffffffffff1673ffffffffffffffffffffffffffffffffffffffff161415613c7d57600192505050613c97565b8080613c8890615296565b915050613bf6565b5060009150505b92915050565b606081600001805480602002602001604051908101604052809291908181526020018280548015613d2357602002820191906000526020600020905b8160009054906101000a900473ffffffffffffffffffffffffffffffffffffffff1673ffffffffffffffffffffffffffffffffffffffff1681526020019060010190808311613cd9575b50505050509050919050565b613d3761403f565b73ffffffffffffffffffffffffffffffffffffffff16613d55612d13565b73ffffffffffffffffffffffffffffffffffffffff1614613dab576040517f08c379a0000000000000000000000000000000000000000000000000000000008152600401613da2906154cc565b60405180910390fd5b565b600082600001805490509050600080600090505b82811015613f07578115613e7b57846000018181548110613de557613de4615119565b5b9060005260206000200160009054906101000a900473ffffffffffffffffffffffffffffffffffffffff1685600001600183613e2191906150ae565b81548110613e3257613e31615119565b5b9060005260206000200160006101000a81548173ffffffffffffffffffffffffffffffffffffffff021916908373ffffffffffffffffffffffffffffffffffffffff1602179055505b8373ffffffffffffffffffffffffffffffffffffffff16856000018281548110613ea857613ea7615119565b5b9060005260206000200160009054906101000a900473ffffffffffffffffffffffffffffffffffffffff1673ffffffffffffffffffffffffffffffffffffffff161415613ef457600191505b8080613eff90615296565b915050613dc1565b5083600001805480613f1c57613f1b6154ec565b5b6001900381819060005260206000200160006101000a81549073ffffffffffffffffffffffffffffffffffffffff0219169055905550505050565b60008060009054906101000a900473ffffffffffffffffffffffffffffffffffffffff169050816000806101000a81548173ffffffffffffffffffffffffffffffffffffffff021916908373ffffffffffffffffffffffffffffffffffffffff1602179055508173ffffffffffffffffffffffffffffffffffffffff168173ffffffffffffffffffffffffffffffffffffffff167f8be0079c531659141344cd1fd0a4f28419497f9722a3daafe3b4186f6b6457e060405160405180910390a35050565b600081600001549050919050565b6001816000016000828254019250508190555050565b600033905090565b82805461405390614da0565b90600052602060002090601f01602090048101928261407557600085556140bc565b82601f1061408e57805160ff19168380011785556140bc565b828001600101855582156140bc579182015b828111156140bb5782518255916020019190600101906140a0565b5b5090506140c991906140cd565b5090565b5b808211156140e65760008160009055506001016140ce565b5090565b6000604051905090565b600080fd5b600080fd5b600073ffffffffffffffffffffffffffffffffffffffff82169050919050565b6000614129826140fe565b9050919050565b6141398161411e565b811461414457600080fd5b50565b60008135905061415681614130565b92915050565b600060208284031215614172576141716140f4565b5b600061418084828501614147565b91505092915050565b60008115159050919050565b61419e81614189565b82525050565b60006020820190506141b96000830184614195565b92915050565b6000819050919050565b6141d2816141bf565b81146141dd57600080fd5b50565b6000813590506141ef816141c9565b92915050565b600080fd5b600080fd5b6000601f19601f8301169050919050565b7f4e487b7100000000000000000000000000000000000000000000000000000000600052604160045260246000fd5b614248826141ff565b810181811067ffffffffffffffff8211171561426757614266614210565b5b80604052505050565b600061427a6140ea565b9050614286828261423f565b919050565b600067ffffffffffffffff8211156142a6576142a5614210565b5b6142af826141ff565b9050602081019050919050565b82818337600083830152505050565b60006142de6142d98461428b565b614270565b9050828152602081018484840111156142fa576142f96141fa565b5b6143058482856142bc565b509392505050565b600082601f830112614322576143216141f5565b5b81356143328482602086016142cb565b91505092915050565b60008060008060808587031215614355576143546140f4565b5b6000614363878288016141e0565b9450506020614374878288016141e0565b935050604085013567ffffffffffffffff811115614395576143946140f9565b5b6143a18782880161430d565b925050606085013567ffffffffffffffff8111156143c2576143c16140f9565b5b6143ce8782880161430d565b91505092959194509250565b6000602082840312156143f0576143ef6140f4565b5b60006143fe848285016141e0565b91505092915050565b600081519050919050565b600082825260208201905092915050565b6000819050602082019050919050565b61443c816141bf565b82525050565b600061444e8383614433565b60208301905092915050565b6000602082019050919050565b600061447282614407565b61447c8185614412565b935061448783614423565b8060005b838110156144b857815161449f8882614442565b97506144aa8361445a565b92505060018101905061448b565b5085935050505092915050565b600060208201905081810360008301526144df8184614467565b905092915050565b600081519050919050565b600082825260208201905092915050565b6000819050602082019050919050565b61451c8161411e565b82525050565b600061452e8383614513565b60208301905092915050565b6000602082019050919050565b6000614552826144e7565b61455c81856144f2565b935061456783614503565b8060005b8381101561459857815161457f8882614522565b975061458a8361453a565b92505060018101905061456b565b5085935050505092915050565b600060208201905081810360008301526145bf8184614547565b905092915050565b600080604083850312156145de576145dd6140f4565b5b60006145ec858286016141e0565b92505060206145fd85828601614147565b9150509250929050565b6000806000606084860312156146205761461f6140f4565b5b600061462e868287016141e0565b935050602061463f868287016141e0565b925050604084013567ffffffffffffffff8111156146605761465f6140f9565b5b61466c8682870161430d565b9150509250925092565b61467f816141bf565b82525050565b600081519050919050565b600082825260208201905092915050565b60005b838110156146bf5780820151818401526020810190506146a4565b838111156146ce576000848401525b50505050565b60006146df82614685565b6146e98185614690565b93506146f98185602086016146a1565b614702816141ff565b840191505092915050565b60006060820190506147226000830186614676565b818103602083015261473481856146d4565b9050818103604083015261474881846146d4565b9050949350505050565b600067ffffffffffffffff82111561476d5761476c614210565b5b602082029050602081019050919050565b600080fd5b600061479661479184614752565b614270565b905080838252602082019050602084028301858111156147b9576147b861477e565b5b835b818110156147e257806147ce8882614147565b8452602084019350506020810190506147bb565b5050509392505050565b600082601f830112614801576148006141f5565b5b8135614811848260208601614783565b91505092915050565b600067ffffffffffffffff82111561483557614834614210565b5b602082029050602081019050919050565b60006148596148548461481a565b614270565b9050808382526020820190506020840283018581111561487c5761487b61477e565b5b835b818110156148a5578061489188826141e0565b84526020840193505060208101905061487e565b5050509392505050565b600082601f8301126148c4576148c36141f5565b5b81356148d4848260208601614846565b91505092915050565b6000806000606084860312156148f6576148f56140f4565b5b6000614904868287016141e0565b935050602084013567ffffffffffffffff811115614925576149246140f9565b5b614931868287016147ec565b925050604084013567ffffffffffffffff811115614952576149516140f9565b5b61495e868287016148af565b9150509250925092565b6149718161411e565b82525050565b600060208201905061498c6000830184614968565b92915050565b6000806000606084860312156149ab576149aa6140f4565b5b60006149b9868287016141e0565b93505060206149ca868287016141e0565b92505060406149db868287016141e0565b9150509250925092565b7f4e487b7100000000000000000000000000000000000000000000000000000000600052602160045260246000fd5b60078110614a2557614a246149e5565b5b50565b6000819050614a3682614a14565b919050565b6000614a4682614a28565b9050919050565b614a5681614a3b565b82525050565b600061014082019050614a72600083018d614676565b614a7f602083018c614a4d565b614a8c604083018b614676565b614a99606083018a614676565b614aa66080830189614676565b614ab360a0830188614676565b81810360c0830152614ac581876146d4565b9050614ad460e0830186614968565b614ae2610100830185614968565b614af0610120830184614968565b9b9a5050505050505050505050565b600081519050919050565b600082825260208201905092915050565b6000819050602082019050919050565b614b3481614a3b565b82525050565b600082825260208201905092915050565b6000614b5682614685565b614b608185614b3a565b9350614b708185602086016146a1565b614b79816141ff565b840191505092915050565b600061014083016000830151614b9d6000860182614433565b506020830151614bb06020860182614b2b565b506040830151614bc36040860182614433565b506060830151614bd66060860182614433565b506080830151614be96080860182614433565b5060a0830151614bfc60a0860182614433565b5060c083015184820360c0860152614c148282614b4b565b91505060e0830151614c2960e0860182614513565b50610100830151614c3e610100860182614513565b50610120830151614c53610120860182614513565b508091505092915050565b6000614c6a8383614b84565b905092915050565b6000602082019050919050565b6000614c8a82614aff565b614c948185614b0a565b935083602082028501614ca685614b1b565b8060005b85811015614ce25784840389528151614cc38582614c5e565b9450614cce83614c72565b925060208a01995050600181019050614caa565b50829750879550505050505092915050565b60006020820190508181036000830152614d0e8184614c7f565b905092915050565b60008060408385031215614d2d57614d2c6140f4565b5b6000614d3b858286016141e0565b9250506020614d4c858286016141e0565b9150509250929050565b6000602082019050614d6b6000830184614676565b92915050565b7f4e487b7100000000000000000000000000000000000000000000000000000000600052602260045260246000fd5b60006002820490506001821680614db857607f821691505b60208210811415614dcc57614dcb614d71565b5b50919050565b7f4e4f5420412056414c49442057415245484f555345204144445245535320212060008201527f504c4541534520434f4e544143542041444d494e000000000000000000000000602082015250565b6000614e2e603483614690565b9150614e3982614dd2565b604082019050919050565b60006020820190508181036000830152614e5d81614e21565b9050919050565b6000819050919050565b6000819050919050565b6000614e93614e8e614e8984614e64565b614e6e565b6141bf565b9050919050565b614ea381614e78565b82525050565b600082825260208201905092915050565b7f3078303000000000000000000000000000000000000000000000000000000000600082015250565b6000614ef0600483614ea9565b9150614efb82614eba565b602082019050919050565b6000819050919050565b6000614f2b614f26614f2184614f06565b614e6e565b6141bf565b9050919050565b614f3b81614f10565b82525050565b600060c082019050614f566000830188614968565b614f636020830187614968565b614f706040830186614676565b614f7d6060830185614e9a565b8181036080830152614f8e81614ee3565b9050614f9d60a0830184614f32565b9695505050505050565b7f594f555f43414e5f4e4f545f524f4d4f56455f544849535f4144445245535300600082015250565b6000614fdd601f83614690565b9150614fe882614fa7565b602082019050919050565b6000602082019050818103600083015261500c81614fd0565b9050919050565b7f556e6974732073686f756c642062652067726561746572207468617420310000600082015250565b6000615049601e83614690565b915061505482615013565b602082019050919050565b600060208201905081810360008301526150788161503c565b9050919050565b7f4e487b7100000000000000000000000000000000000000000000000000000000600052601160045260246000fd5b60006150b9826141bf565b91506150c4836141bf565b9250828210156150d7576150d661507f565b5b828203905092915050565b60006060820190506150f76000830186614968565b6151046020830185614676565b6151116040830184614676565b949350505050565b7f4e487b7100000000000000000000000000000000000000000000000000000000600052603260045260246000fd5b7f4e4f5420412056414c4944204449535452494255544f5220414444524553532060008201527f2120504c4541534520434f4e544143542041444d494e00000000000000000000602082015250565b60006151a4603683614690565b91506151af82615148565b604082019050919050565b600060208201905081810360008301526151d381615197565b9050919050565b600060c0820190506151ef6000830188614968565b6151fc6020830187614968565b6152096040830186614676565b6152166060830185614676565b818103608083015261522781614ee3565b905061523660a0830184614676565b9695505050505050565b600061524b826141bf565b9150615256836141bf565b9250827fffffffffffffffffffffffffffffffffffffffffffffffffffffffffffffffff0382111561528b5761528a61507f565b5b828201905092915050565b60006152a1826141bf565b91507fffffffffffffffffffffffffffffffffffffffffffffffffffffffffffffffff8214156152d4576152d361507f565b5b600182019050919050565b7f4e6f74206120526177204d6174657269616c20537570706c6965720000000000600082015250565b6000615315601b83614690565b9150615320826152df565b602082019050919050565b6000602082019050818103600083015261534481615308565b9050919050565b60006060820190506153606000830186614968565b61536d6020830185614676565b61537a6040830184614e9a565b949350505050565b7f4f776e61626c653a206e6577206f776e657220697320746865207a65726f206160008201527f6464726573730000000000000000000000000000000000000000000000000000602082015250565b60006153de602683614690565b91506153e982615382565b604082019050919050565b6000602082019050818103600083015261540d816153d1565b9050919050565b7f524f4c455f414c52454144595f45584953545300000000000000000000000000600082015250565b600061544a601383614690565b915061545582615414565b602082019050919050565b600060208201905081810360008301526154798161543d565b9050919050565b7f4f776e61626c653a2063616c6c6572206973206e6f7420746865206f776e6572600082015250565b60006154b6602083614690565b91506154c182615480565b602082019050919050565b600060208201905081810360008301526154e5816154a9565b9050919050565b7f4e487b7100000000000000000000000000000000000000000000000000000000600052603160045260246000fdfea2646970667358221220711508000b918c7fd80d6d2e19b1d2c23195f83687d2428246be546320c639a264736f6c63430008080033",
  "linkReferences": {},
  "deployedLinkReferences": {}
}