{
  "_format": "hh-sol-artifact-1",
  "contractName": "Supplychain",
  "sourceName": "contracts/Supplychain.sol",
  "abi": [
    {
      "inputs": [
        {
          "internalType": "address",
          "name": "_supplychainToken",
          "type": "address"
        }
      ],
      "stateMutability": "nonpayable",
      "type": "constructor"
    },
    {
      "anonymous": false,
      "inputs": [
        {
          "indexed": false,
          "internalType": "address",
          "name": "_address",
          "type": "address"
        }
      ],
      "name": "AddCustomer",
      "type": "event"
    },
    {
      "anonymous": false,
      "inputs": [
        {
          "indexed": false,
          "internalType": "address",
          "name": "_address",
          "type": "address"
        }
      ],
      "name": "AddDistributor",
      "type": "event"
    },
    {
      "anonymous": false,
      "inputs": [
        {
          "indexed": false,
          "internalType": "address",
          "name": "_address",
          "type": "address"
        }
      ],
      "name": "AddFactory",
      "type": "event"
    },
    {
      "anonymous": false,
      "inputs": [
        {
          "indexed": false,
          "internalType": "address",
          "name": "_address",
          "type": "address"
        }
      ],
      "name": "AddRawMaterialSupplier",
      "type": "event"
    },
    {
      "anonymous": false,
      "inputs": [
        {
          "indexed": false,
          "internalType": "address",
          "name": "_address",
          "type": "address"
        }
      ],
      "name": "AddRetailer",
      "type": "event"
    },
    {
      "anonymous": false,
      "inputs": [
        {
          "indexed": false,
          "internalType": "address",
          "name": "_address",
          "type": "address"
        }
      ],
      "name": "AddWarehouse",
      "type": "event"
    },
    {
      "anonymous": false,
      "inputs": [
        {
          "indexed": false,
          "internalType": "uint256",
          "name": "_supplyChainId",
          "type": "uint256"
        }
      ],
      "name": "DistributorSellToRetailer",
      "type": "event"
    },
    {
      "anonymous": false,
      "inputs": [
        {
          "indexed": false,
          "internalType": "uint256",
          "name": "_supplyChainId",
          "type": "uint256"
        }
      ],
      "name": "FactoryBuyRawMaterial",
      "type": "event"
    },
    {
      "anonymous": false,
      "inputs": [
        {
          "indexed": false,
          "internalType": "uint256",
          "name": "_supplyChainId",
          "type": "uint256"
        }
      ],
      "name": "FactorySellItemToDistributors",
      "type": "event"
    },
    {
      "anonymous": false,
      "inputs": [
        {
          "indexed": true,
          "internalType": "address",
          "name": "previousOwner",
          "type": "address"
        },
        {
          "indexed": true,
          "internalType": "address",
          "name": "newOwner",
          "type": "address"
        }
      ],
      "name": "OwnershipTransferred",
      "type": "event"
    },
    {
      "anonymous": false,
      "inputs": [
        {
          "indexed": false,
          "internalType": "uint256",
          "name": "_supplyChainId",
          "type": "uint256"
        }
      ],
      "name": "RawMaterialSupplierSuppliesRM",
      "type": "event"
    },
    {
      "anonymous": false,
      "inputs": [
        {
          "indexed": false,
          "internalType": "address",
          "name": "_address",
          "type": "address"
        }
      ],
      "name": "RemoveCustomer",
      "type": "event"
    },
    {
      "anonymous": false,
      "inputs": [
        {
          "indexed": false,
          "internalType": "address",
          "name": "_address",
          "type": "address"
        }
      ],
      "name": "RemoveDistributor",
      "type": "event"
    },
    {
      "anonymous": false,
      "inputs": [
        {
          "indexed": false,
          "internalType": "address",
          "name": "_address",
          "type": "address"
        }
      ],
      "name": "RemoveFactory",
      "type": "event"
    },
    {
      "anonymous": false,
      "inputs": [
        {
          "indexed": false,
          "internalType": "address",
          "name": "_address",
          "type": "address"
        }
      ],
      "name": "RemoveRawMaterialSupplier",
      "type": "event"
    },
    {
      "anonymous": false,
      "inputs": [
        {
          "indexed": false,
          "internalType": "address",
          "name": "_address",
          "type": "address"
        }
      ],
      "name": "RemoveRetailer",
      "type": "event"
    },
    {
      "anonymous": false,
      "inputs": [
        {
          "indexed": false,
          "internalType": "address",
          "name": "_address",
          "type": "address"
        }
      ],
      "name": "RemoveWarehouse",
      "type": "event"
    },
    {
      "anonymous": false,
      "inputs": [
        {
          "indexed": false,
          "internalType": "uint256",
          "name": "_supplyChainId",
          "type": "uint256"
        }
      ],
      "name": "RetailerSellToCustomer",
      "type": "event"
    },
    {
      "anonymous": false,
      "inputs": [
        {
          "indexed": false,
          "internalType": "uint256",
          "name": "a",
          "type": "uint256"
        },
        {
          "indexed": false,
          "internalType": "uint256",
          "name": "b",
          "type": "uint256"
        }
      ],
      "name": "valueeeeeeee",
      "type": "event"
    },
    {
      "inputs": [
        {
          "internalType": "uint256",
          "name": "",
          "type": "uint256"
        }
      ],
      "name": "YarnDetails",
      "outputs": [
        {
          "internalType": "uint256",
          "name": "YarnAmount",
          "type": "uint256"
        },
        {
          "internalType": "string",
          "name": "YarnColor",
          "type": "string"
        },
        {
          "internalType": "string",
          "name": "YarnType",
          "type": "string"
        }
      ],
      "stateMutability": "view",
      "type": "function"
    },
    {
      "inputs": [
        {
          "internalType": "address",
          "name": "_address",
          "type": "address"
        }
      ],
      "name": "addCustomer",
      "outputs": [],
      "stateMutability": "nonpayable",
      "type": "function"
    },
    {
      "inputs": [
        {
          "internalType": "address",
          "name": "_address",
          "type": "address"
        }
      ],
      "name": "addDistributor",
      "outputs": [],
      "stateMutability": "nonpayable",
      "type": "function"
    },
    {
      "inputs": [
        {
          "internalType": "address",
          "name": "_address",
          "type": "address"
        }
      ],
      "name": "addFactory",
      "outputs": [],
      "stateMutability": "nonpayable",
      "type": "function"
    },
    {
      "inputs": [
        {
          "internalType": "address",
          "name": "_address",
          "type": "address"
        }
      ],
      "name": "addRawMaterialSupplier",
      "outputs": [],
      "stateMutability": "nonpayable",
      "type": "function"
    },
    {
      "inputs": [
        {
          "internalType": "address",
          "name": "_address",
          "type": "address"
        }
      ],
      "name": "addRetailer",
      "outputs": [],
      "stateMutability": "nonpayable",
      "type": "function"
    },
    {
      "inputs": [
        {
          "internalType": "address",
          "name": "_address",
          "type": "address"
        }
      ],
      "name": "addWarehouse",
      "outputs": [],
      "stateMutability": "nonpayable",
      "type": "function"
    },
    {
      "inputs": [
        {
          "internalType": "uint256",
          "name": "_supplyChainId",
          "type": "uint256"
        }
      ],
      "name": "distributorSellToRetailer",
      "outputs": [],
      "stateMutability": "nonpayable",
      "type": "function"
    },
    {
      "inputs": [
        {
          "internalType": "uint256",
          "name": "_supplyChainId",
          "type": "uint256"
        },
        {
          "internalType": "address",
          "name": "_warehouse",
          "type": "address"
        }
      ],
      "name": "factoryBuyRawMaterial",
      "outputs": [],
      "stateMutability": "nonpayable",
      "type": "function"
    },
    {
      "inputs": [
        {
          "internalType": "uint256",
          "name": "_supplyChainId",
          "type": "uint256"
        },
        {
          "internalType": "uint256",
          "name": "_totalUnits",
          "type": "uint256"
        },
        {
          "internalType": "string",
          "name": "_description",
          "type": "string"
        }
      ],
      "name": "factoryCompleteGarmentManufacturing",
      "outputs": [],
      "stateMutability": "nonpayable",
      "type": "function"
    },
    {
      "inputs": [
        {
          "internalType": "uint256",
          "name": "_supplyChainId",
          "type": "uint256"
        },
        {
          "internalType": "uint256",
          "name": "_yarnAmount",
          "type": "uint256"
        },
        {
          "internalType": "string",
          "name": "_yarnColor",
          "type": "string"
        },
        {
          "internalType": "string",
          "name": "_yarnType",
          "type": "string"
        }
      ],
      "name": "factoryCompleteSpinningWaeving",
      "outputs": [],
      "stateMutability": "nonpayable",
      "type": "function"
    },
    {
      "inputs": [
        {
          "internalType": "uint256",
          "name": "_supplyChainId",
          "type": "uint256"
        },
        {
          "internalType": "address[]",
          "name": "distributors",
          "type": "address[]"
        },
        {
          "internalType": "uint256[]",
          "name": "quantity",
          "type": "uint256[]"
        }
      ],
      "name": "factorySellItemToDistributors",
      "outputs": [],
      "stateMutability": "nonpayable",
      "type": "function"
    },
    {
      "inputs": [],
      "name": "getCustomer",
      "outputs": [
        {
          "internalType": "address[]",
          "name": "",
          "type": "address[]"
        }
      ],
      "stateMutability": "view",
      "type": "function"
    },
    {
      "inputs": [],
      "name": "getDistributor",
      "outputs": [
        {
          "internalType": "address[]",
          "name": "",
          "type": "address[]"
        }
      ],
      "stateMutability": "view",
      "type": "function"
    },
    {
      "inputs": [
        {
          "internalType": "uint256",
          "name": "_supplychianId",
          "type": "uint256"
        }
      ],
      "name": "getDistributorCounters",
      "outputs": [
        {
          "internalType": "uint256[]",
          "name": "",
          "type": "uint256[]"
        }
      ],
      "stateMutability": "view",
      "type": "function"
    },
    {
      "inputs": [
        {
          "internalType": "uint256",
          "name": "_supplychianId",
          "type": "uint256"
        }
      ],
      "name": "getDistributorUnits",
      "outputs": [
        {
          "internalType": "uint256[]",
          "name": "",
          "type": "uint256[]"
        }
      ],
      "stateMutability": "view",
      "type": "function"
    },
    {
      "inputs": [
        {
          "internalType": "uint256",
          "name": "_supplychianId",
          "type": "uint256"
        }
      ],
      "name": "getDistributors",
      "outputs": [
        {
          "internalType": "address[]",
          "name": "",
          "type": "address[]"
        }
      ],
      "stateMutability": "view",
      "type": "function"
    },
    {
      "inputs": [],
      "name": "getFactory",
      "outputs": [
        {
          "internalType": "address[]",
          "name": "",
          "type": "address[]"
        }
      ],
      "stateMutability": "view",
      "type": "function"
    },
    {
      "inputs": [],
      "name": "getRawMaterialSupplier",
      "outputs": [
        {
          "internalType": "address[]",
          "name": "",
          "type": "address[]"
        }
      ],
      "stateMutability": "view",
      "type": "function"
    },
    {
      "inputs": [],
      "name": "getRetailer",
      "outputs": [
        {
          "internalType": "address[]",
          "name": "",
          "type": "address[]"
        }
      ],
      "stateMutability": "view",
      "type": "function"
    },
    {
      "inputs": [
        {
          "internalType": "uint256",
          "name": "_supplychianId",
          "type": "uint256"
        }
      ],
      "name": "getRetailers",
      "outputs": [
        {
          "internalType": "address[]",
          "name": "",
          "type": "address[]"
        }
      ],
      "stateMutability": "view",
      "type": "function"
    },
    {
      "inputs": [
        {
          "internalType": "uint256",
          "name": "_supplychianId",
          "type": "uint256"
        }
      ],
      "name": "getRetailersCounters",
      "outputs": [
        {
          "internalType": "uint256[]",
          "name": "",
          "type": "uint256[]"
        }
      ],
      "stateMutability": "view",
      "type": "function"
    },
    {
      "inputs": [
        {
          "internalType": "uint256",
          "name": "_supplychianId",
          "type": "uint256"
        }
      ],
      "name": "getRetailersUnits",
      "outputs": [
        {
          "internalType": "uint256[]",
          "name": "",
          "type": "uint256[]"
        }
      ],
      "stateMutability": "view",
      "type": "function"
    },
    {
      "inputs": [],
      "name": "getWarehouse",
      "outputs": [
        {
          "internalType": "address[]",
          "name": "",
          "type": "address[]"
        }
      ],
      "stateMutability": "view",
      "type": "function"
    },
    {
      "inputs": [
        {
          "internalType": "address",
          "name": "warehouse",
          "type": "address"
        }
      ],
      "name": "getWarehouseItems",
      "outputs": [
        {
          "components": [
            {
              "internalType": "uint256",
              "name": "supplyChainId",
              "type": "uint256"
            },
            {
              "internalType": "enum Supplychain.State",
              "name": "itemState",
              "type": "uint8"
            },
            {
              "internalType": "uint256",
              "name": "PolyesterAmount",
              "type": "uint256"
            },
            {
              "internalType": "uint256",
              "name": "CottonAmount",
              "type": "uint256"
            },
            {
              "internalType": "uint256",
              "name": "WoolAmount",
              "type": "uint256"
            },
            {
              "internalType": "uint256",
              "name": "totalUnits",
              "type": "uint256"
            },
            {
              "internalType": "string",
              "name": "Description",
              "type": "string"
            },
            {
              "internalType": "address",
              "name": "RawMaterialSupplierID",
              "type": "address"
            },
            {
              "internalType": "address",
              "name": "warehouseID",
              "type": "address"
            },
            {
              "internalType": "address",
              "name": "factoryID",
              "type": "address"
            }
          ],
          "internalType": "struct Supplychain.Item[]",
          "name": "",
          "type": "tuple[]"
        }
      ],
      "stateMutability": "view",
      "type": "function"
    },
    {
      "inputs": [
        {
          "internalType": "address",
          "name": "_address",
          "type": "address"
        }
      ],
      "name": "isCustomer",
      "outputs": [
        {
          "internalType": "bool",
          "name": "",
          "type": "bool"
        }
      ],
      "stateMutability": "view",
      "type": "function"
    },
    {
      "inputs": [
        {
          "internalType": "address",
          "name": "_address",
          "type": "address"
        }
      ],
      "name": "isDistributor",
      "outputs": [
        {
          "internalType": "bool",
          "name": "",
          "type": "bool"
        }
      ],
      "stateMutability": "view",
      "type": "function"
    },
    {
      "inputs": [
        {
          "internalType": "address",
          "name": "_address",
          "type": "address"
        }
      ],
      "name": "isFactory",
      "outputs": [
        {
          "internalType": "bool",
          "name": "",
          "type": "bool"
        }
      ],
      "stateMutability": "view",
      "type": "function"
    },
    {
      "inputs": [
        {
          "internalType": "address",
          "name": "_address",
          "type": "address"
        }
      ],
      "name": "isRawMaterialSupplier",
      "outputs": [
        {
          "internalType": "bool",
          "name": "",
          "type": "bool"
        }
      ],
      "stateMutability": "view",
      "type": "function"
    },
    {
      "inputs": [
        {
          "internalType": "address",
          "name": "_address",
          "type": "address"
        }
      ],
      "name": "isRetailer",
      "outputs": [
        {
          "internalType": "bool",
          "name": "",
          "type": "bool"
        }
      ],
      "stateMutability": "view",
      "type": "function"
    },
    {
      "inputs": [
        {
          "internalType": "address",
          "name": "_address",
          "type": "address"
        }
      ],
      "name": "isWarehouse",
      "outputs": [
        {
          "internalType": "bool",
          "name": "",
          "type": "bool"
        }
      ],
      "stateMutability": "view",
      "type": "function"
    },
    {
      "inputs": [
        {
          "internalType": "uint256",
          "name": "",
          "type": "uint256"
        }
      ],
      "name": "items",
      "outputs": [
        {
          "internalType": "uint256",
          "name": "supplyChainId",
          "type": "uint256"
        },
        {
          "internalType": "enum Supplychain.State",
          "name": "itemState",
          "type": "uint8"
        },
        {
          "internalType": "uint256",
          "name": "PolyesterAmount",
          "type": "uint256"
        },
        {
          "internalType": "uint256",
          "name": "CottonAmount",
          "type": "uint256"
        },
        {
          "internalType": "uint256",
          "name": "WoolAmount",
          "type": "uint256"
        },
        {
          "internalType": "uint256",
          "name": "totalUnits",
          "type": "uint256"
        },
        {
          "internalType": "string",
          "name": "Description",
          "type": "string"
        },
        {
          "internalType": "address",
          "name": "RawMaterialSupplierID",
          "type": "address"
        },
        {
          "internalType": "address",
          "name": "warehouseID",
          "type": "address"
        },
        {
          "internalType": "address",
          "name": "factoryID",
          "type": "address"
        }
      ],
      "stateMutability": "view",
      "type": "function"
    },
    {
      "inputs": [],
      "name": "owner",
      "outputs": [
        {
          "internalType": "address",
          "name": "",
          "type": "address"
        }
      ],
      "stateMutability": "view",
      "type": "function"
    },
    {
      "inputs": [
        {
          "internalType": "uint256",
          "name": "_polyesterAmount",
          "type": "uint256"
        },
        {
          "internalType": "uint256",
          "name": "_cottonAmount",
          "type": "uint256"
        },
        {
          "internalType": "uint256",
          "name": "_woolAmount",
          "type": "uint256"
        }
      ],
      "name": "rawMaterialSupplierSuppliesRM",
      "outputs": [],
      "stateMutability": "nonpayable",
      "type": "function"
    },
    {
      "inputs": [
        {
          "internalType": "address",
          "name": "_address",
          "type": "address"
        }
      ],
      "name": "removeCustomer",
      "outputs": [],
      "stateMutability": "nonpayable",
      "type": "function"
    },
    {
      "inputs": [
        {
          "internalType": "address",
          "name": "_address",
          "type": "address"
        }
      ],
      "name": "removeCustomerSelf",
      "outputs": [],
      "stateMutability": "nonpayable",
      "type": "function"
    },
    {
      "inputs": [
        {
          "internalType": "address",
          "name": "_address",
          "type": "address"
        }
      ],
      "name": "removeDistributor",
      "outputs": [],
      "stateMutability": "nonpayable",
      "type": "function"
    },
    {
      "inputs": [
        {
          "internalType": "address",
          "name": "_address",
          "type": "address"
        }
      ],
      "name": "removeDistributorSelf",
      "outputs": [],
      "stateMutability": "nonpayable",
      "type": "function"
    },
    {
      "inputs": [
        {
          "internalType": "address",
          "name": "_address",
          "type": "address"
        }
      ],
      "name": "removeFactory",
      "outputs": [],
      "stateMutability": "nonpayable",
      "type": "function"
    },
    {
      "inputs": [
        {
          "internalType": "address",
          "name": "_address",
          "type": "address"
        }
      ],
      "name": "removeFactorySelf",
      "outputs": [],
      "stateMutability": "nonpayable",
      "type": "function"
    },
    {
      "inputs": [
        {
          "internalType": "address",
          "name": "_address",
          "type": "address"
        }
      ],
      "name": "removeRawMaterialSupplier",
      "outputs": [],
      "stateMutability": "nonpayable",
      "type": "function"
    },
    {
      "inputs": [
        {
          "internalType": "address",
          "name": "_address",
          "type": "address"
        }
      ],
      "name": "removeRawMaterialSupplierSelf",
      "outputs": [],
      "stateMutability": "nonpayable",
      "type": "function"
    },
    {
      "inputs": [
        {
          "internalType": "address",
          "name": "_address",
          "type": "address"
        }
      ],
      "name": "removeRetailer",
      "outputs": [],
      "stateMutability": "nonpayable",
      "type": "function"
    },
    {
      "inputs": [
        {
          "internalType": "address",
          "name": "_address",
          "type": "address"
        }
      ],
      "name": "removeRetailerSelf",
      "outputs": [],
      "stateMutability": "nonpayable",
      "type": "function"
    },
    {
      "inputs": [
        {
          "internalType": "address",
          "name": "_address",
          "type": "address"
        }
      ],
      "name": "removeSelfWarehouse",
      "outputs": [],
      "stateMutability": "nonpayable",
      "type": "function"
    },
    {
      "inputs": [
        {
          "internalType": "address",
          "name": "_address",
          "type": "address"
        }
      ],
      "name": "removeWarehouse",
      "outputs": [],
      "stateMutability": "nonpayable",
      "type": "function"
    },
    {
      "inputs": [],
      "name": "renounceOwnership",
      "outputs": [],
      "stateMutability": "nonpayable",
      "type": "function"
    },
    {
      "inputs": [
        {
          "internalType": "uint256",
          "name": "",
          "type": "uint256"
        },
        {
          "internalType": "uint256",
          "name": "",
          "type": "uint256"
        }
      ],
      "name": "timeStamps",
      "outputs": [
        {
          "internalType": "uint256",
          "name": "",
          "type": "uint256"
        }
      ],
      "stateMutability": "view",
      "type": "function"
    },
    {
      "inputs": [],
      "name": "totalBatchs",
      "outputs": [
        {
          "internalType": "uint256",
          "name": "",
          "type": "uint256"
        }
      ],
      "stateMutability": "view",
      "type": "function"
    },
    {
      "inputs": [
        {
          "internalType": "address",
          "name": "newOwner",
          "type": "address"
        }
      ],
      "name": "transferOwnership",
      "outputs": [],
      "stateMutability": "nonpayable",
      "type": "function"
    }
  ],
  "bytecode": "0x60806040523480156200001157600080fd5b506040516200668c3803806200668c833981810160405281019062000037919062000946565b620000576200004b6200010560201b60201c565b6200010d60201b60201c565b6200006833620001d160201b60201c565b6200007933620002b760201b60201c565b6200008a336200039d60201b60201c565b6200009b336200048360201b60201c565b620000ac336200056960201b60201c565b620000bd336200064f60201b60201c565b80600760006101000a81548173ffffffffffffffffffffffffffffffffffffffff021916908373ffffffffffffffffffffffffffffffffffffffff1602179055505062000b51565b600033905090565b60008060009054906101000a900473ffffffffffffffffffffffffffffffffffffffff169050816000806101000a81548173ffffffffffffffffffffffffffffffffffffffff021916908373ffffffffffffffffffffffffffffffffffffffff1602179055508173ffffffffffffffffffffffffffffffffffffffff168173ffffffffffffffffffffffffffffffffffffffff167f8be0079c531659141344cd1fd0a4f28419497f9722a3daafe3b4186f6b6457e060405160405180910390a35050565b620001e16200010560201b60201c565b73ffffffffffffffffffffffffffffffffffffffff16620002076200073560201b60201c565b73ffffffffffffffffffffffffffffffffffffffff161462000260576040517f08c379a00000000000000000000000000000000000000000000000000000000081526004016200025790620009d9565b60405180910390fd5b6200027b8160016200075e60201b6200418b1790919060201c565b7fa3da795b47eb190084f878e63c07509e5f6df63ebc51443c0ccab2fc11c0d88381604051620002ac919062000a0c565b60405180910390a150565b620002c76200010560201b60201c565b73ffffffffffffffffffffffffffffffffffffffff16620002ed6200073560201b60201c565b73ffffffffffffffffffffffffffffffffffffffff161462000346576040517f08c379a00000000000000000000000000000000000000000000000000000000081526004016200033d90620009d9565b60405180910390fd5b620003618160026200075e60201b6200418b1790919060201c565b7f364ee90eb63717b99192fdb951c7b1aa91a45bca11ac73ab40cfad762631fbce8160405162000392919062000a0c565b60405180910390a150565b620003ad6200010560201b60201c565b73ffffffffffffffffffffffffffffffffffffffff16620003d36200073560201b60201c565b73ffffffffffffffffffffffffffffffffffffffff16146200042c576040517f08c379a00000000000000000000000000000000000000000000000000000000081526004016200042390620009d9565b60405180910390fd5b620004478160036200075e60201b6200418b1790919060201c565b7f5a8fb443d09cf1426e80f80dd509757d71d4687674ab4adad906c5e2b6e1e62c8160405162000478919062000a0c565b60405180910390a150565b620004936200010560201b60201c565b73ffffffffffffffffffffffffffffffffffffffff16620004b96200073560201b60201c565b73ffffffffffffffffffffffffffffffffffffffff161462000512576040517f08c379a00000000000000000000000000000000000000000000000000000000081526004016200050990620009d9565b60405180910390fd5b6200052d8160046200075e60201b6200418b1790919060201c565b7f3afd547f7eb357741de51229846ae795cb06449e4b4032eb34a7cc0a751e25c1816040516200055e919062000a0c565b60405180910390a150565b620005796200010560201b60201c565b73ffffffffffffffffffffffffffffffffffffffff166200059f6200073560201b60201c565b73ffffffffffffffffffffffffffffffffffffffff1614620005f8576040517f08c379a0000000000000000000000000000000000000000000000000000000008152600401620005ef90620009d9565b60405180910390fd5b620006138160056200075e60201b6200418b1790919060201c565b7f0eea60f9e1851b51feed56c339be177ea715591923622a0effe46dbb8885efa68160405162000644919062000a0c565b60405180910390a150565b6200065f6200010560201b60201c565b73ffffffffffffffffffffffffffffffffffffffff16620006856200073560201b60201c565b73ffffffffffffffffffffffffffffffffffffffff1614620006de576040517f08c379a0000000000000000000000000000000000000000000000000000000008152600401620006d590620009d9565b60405180910390fd5b620006f98160066200075e60201b6200418b1790919060201c565b7f23b2415a50efd127e694ba174e400d457ad65c58752e171b6d17f3f5daa26fdb816040516200072a919062000a0c565b60405180910390a150565b60008060009054906101000a900473ffffffffffffffffffffffffffffffffffffffff16905090565b6200077082826200081c60201b60201c565b15620007b3576040517f08c379a0000000000000000000000000000000000000000000000000000000008152600401620007aa9062000a79565b60405180910390fd5b81600001819080600181540180825580915050600190039060005260206000200160009091909190916101000a81548173ffffffffffffffffffffffffffffffffffffffff021916908373ffffffffffffffffffffffffffffffffffffffff1602179055505050565b6000808360000180549050905060005b81811015620008cf578373ffffffffffffffffffffffffffffffffffffffff1685600001828154811062000865576200086462000a9b565b5b9060005260206000200160009054906101000a900473ffffffffffffffffffffffffffffffffffffffff1673ffffffffffffffffffffffffffffffffffffffff161415620008b957600192505050620008d6565b8080620008c69062000b03565b9150506200082c565b5060009150505b92915050565b600080fd5b600073ffffffffffffffffffffffffffffffffffffffff82169050919050565b60006200090e82620008e1565b9050919050565b620009208162000901565b81146200092c57600080fd5b50565b600081519050620009408162000915565b92915050565b6000602082840312156200095f576200095e620008dc565b5b60006200096f848285016200092f565b91505092915050565b600082825260208201905092915050565b7f4f776e61626c653a2063616c6c6572206973206e6f7420746865206f776e6572600082015250565b6000620009c160208362000978565b9150620009ce8262000989565b602082019050919050565b60006020820190508181036000830152620009f481620009b2565b9050919050565b62000a068162000901565b82525050565b600060208201905062000a236000830184620009fb565b92915050565b7f524f4c455f414c52454144595f45584953545300000000000000000000000000600082015250565b600062000a6160138362000978565b915062000a6e8262000a29565b602082019050919050565b6000602082019050818103600083015262000a948162000a52565b9050919050565b7f4e487b7100000000000000000000000000000000000000000000000000000000600052603260045260246000fd5b7f4e487b7100000000000000000000000000000000000000000000000000000000600052601160045260246000fd5b6000819050919050565b600062000b108262000af9565b91507fffffffffffffffffffffffffffffffffffffffffffffffffffffffffffffffff82141562000b465762000b4562000aca565b5b600182019050919050565b615b2b8062000b616000396000f3fe608060405234801561001057600080fd5b50600436106102d65760003560e01c806380bedacf11610182578063bdacda31116100e9578063e6647c5c116100a2578063eeb341331161007c578063eeb3413314610914578063f2fde38b14610932578063f80d1ff01461094e578063faf31e081461096c576102d6565b8063e6647c5c14610898578063e70a962b146108c8578063e7d0831d146108f8576102d6565b8063bdacda31146107a9578063bfb231d2146107c7578063bfed485614610800578063dafe1ef714610830578063e102add814610860578063e3c1a5311461087c576102d6565b80638eb06ccf1161013b5780638eb06ccf146106d95780638ec4f505146106f55780638f0c86fa14610711578063a198d49614610741578063ad973d741461075d578063bca4bd5014610779576102d6565b806380bedacf1461062d578063814f696e1461064957806384480510146106655780638853ad751461068157806388cc58e41461069d5780638da5cb5b146106bb576102d6565b80634c5eee0a116102415780635bf27912116101fa578063678c12a2116101d4578063678c12a2146105cf57806370099ec8146105eb578063715018a6146106075780637250e22414610611576102d6565b80635bf27912146105655780635da09b8814610581578063650d993b146105b1576102d6565b80634c5eee0a146104915780634d2ec64c146104ad5780635166b5c8146104df57806357c1f9e2146104fb5780635884965f146105175780635a96838314610535576102d6565b806328fd5e831161029357806328fd5e83146103c157806329ce1ec5146103f15780632a7ec29f1461040d578063319af857146104295780633c0e25a4146104595780634b37c73f14610475576102d6565b80630f04ba67146102db578063201ef8f21461030b57806320519bb014610327578063209d353e146103575780632100c7c8146103875780632885b943146103a3575b600080fd5b6102f560048036038101906102f09190614736565b61099c565b604051610302919061477e565b60405180910390f35b61032560048036038101906103209190614915565b6109b9565b005b610341600480360381019061033c91906149b4565b610e3f565b60405161034e9190614a9f565b60405180910390f35b610371600480360381019061036c91906149b4565b610eaa565b60405161037e9190614b7f565b60405180910390f35b6103a1600480360381019061039c9190614ba1565b610f4b565b005b6103ab6116b1565b6040516103b89190614b7f565b60405180910390f35b6103db60048036038101906103d69190614736565b6116c2565b6040516103e8919061477e565b60405180910390f35b61040b60048036038101906104069190614736565b6116df565b005b61042760048036038101906104229190614736565b6117a9565b005b610443600480360381019061043e91906149b4565b611865565b6040516104509190614a9f565b60405180910390f35b610473600480360381019061046e9190614736565b6118d0565b005b61048f600480360381019061048a9190614736565b61199a565b005b6104ab60048036038101906104a69190614be1565b611a64565b005b6104c760048036038101906104c291906149b4565b611ecf565b6040516104d693929190614ce7565b60405180910390f35b6104f960048036038101906104f49190614736565b612009565b005b61051560048036038101906105109190614736565b6120d3565b005b61051f61219d565b60405161052c9190614b7f565b60405180910390f35b61054f600480360381019061054a91906149b4565b6121ae565b60405161055c9190614a9f565b60405180910390f35b61057f600480360381019061057a9190614736565b612219565b005b61059b60048036038101906105969190614736565b6122d5565b6040516105a8919061477e565b60405180910390f35b6105b96122f2565b6040516105c69190614b7f565b60405180910390f35b6105e960048036038101906105e49190614eb7565b612303565b005b61060560048036038101906106009190614736565b612bfc565b005b61060f612cc6565b005b61062b60048036038101906106269190614736565b612d4e565b005b61064760048036038101906106429190614736565b612e18565b005b610663600480360381019061065e9190614736565b612ed4565b005b61067f600480360381019061067a9190614736565b612f9e565b005b61069b60048036038101906106969190614736565b61305a565b005b6106a5613116565b6040516106b29190614b7f565b60405180910390f35b6106c3613127565b6040516106d09190614f51565b60405180910390f35b6106f360048036038101906106ee9190614736565b613150565b005b61070f600480360381019061070a9190614736565b61321a565b005b61072b60048036038101906107269190614736565b6132e4565b604051610738919061477e565b60405180910390f35b61075b60048036038101906107569190614f6c565b613301565b005b61077760048036038101906107729190614736565b613689565b005b610793600480360381019061078e9190614736565b613753565b6040516107a0919061477e565b60405180910390f35b6107b1613770565b6040516107be9190614b7f565b60405180910390f35b6107e160048036038101906107dc91906149b4565b613781565b6040516107f79a99989796959493929190615036565b60405180910390f35b61081a60048036038101906108159190614736565b6138ca565b60405161082791906152ce565b60405180910390f35b61084a600480360381019061084591906149b4565b613b6a565b6040516108579190614b7f565b60405180910390f35b61087a600480360381019061087591906149b4565b613c0b565b005b61089660048036038101906108919190614736565b613e32565b005b6108b260048036038101906108ad91906152f0565b613efc565b6040516108bf9190615330565b60405180910390f35b6108e260048036038101906108dd91906149b4565b613f2d565b6040516108ef9190614a9f565b60405180910390f35b610912600480360381019061090d9190614736565b613f98565b005b61091c614054565b6040516109299190615330565b60405180910390f35b61094c60048036038101906109479190614736565b614065565b005b61095661415d565b6040516109639190614b7f565b60405180910390f35b61098660048036038101906109819190614736565b61416e565b604051610993919061477e565b60405180910390f35b60006109b282600361423e90919063ffffffff16565b9050919050565b6109c23361099c565b6109cb57600080fd5b6000600b600086815260200190815260200160002060405180610140016040529081600082015481526020016001820160009054906101000a900460ff166006811115610a1b57610a1a614fbf565b5b6006811115610a2d57610a2c614fbf565b5b815260200160028201548152602001600382015481526020016004820154815260200160058201548152602001600682018054610a699061537a565b80601f0160208091040260200160405190810160405280929190818152602001828054610a959061537a565b8015610ae25780601f10610ab757610100808354040283529160200191610ae2565b820191906000526020600020905b815481529060010190602001808311610ac557829003601f168201915b505050505081526020016007820160009054906101000a900473ffffffffffffffffffffffffffffffffffffffff1673ffffffffffffffffffffffffffffffffffffffff1673ffffffffffffffffffffffffffffffffffffffff1681526020016008820160009054906101000a900473ffffffffffffffffffffffffffffffffffffffff1673ffffffffffffffffffffffffffffffffffffffff1673ffffffffffffffffffffffffffffffffffffffff1681526020016009820160009054906101000a900473ffffffffffffffffffffffffffffffffffffffff1673ffffffffffffffffffffffffffffffffffffffff1673ffffffffffffffffffffffffffffffffffffffff1681525050905083600960008781526020019081526020016000206000018190555082600960008781526020019081526020016000206001019080519060200190610c34929190614621565b5081600960008781526020019081526020016000206002019080519060200190610c5f929190614621565b50600281602001906006811115610c7957610c78614fbf565b5b90816006811115610c8d57610c8c614fbf565b5b8152505080600b60008781526020019081526020016000206000820151816000015560208201518160010160006101000a81548160ff02191690836006811115610cda57610cd9614fbf565b5b021790555060408201518160020155606082015181600301556080820151816004015560a0820151816005015560c0820151816006019080519060200190610d23929190614621565b5060e08201518160070160006101000a81548173ffffffffffffffffffffffffffffffffffffffff021916908373ffffffffffffffffffffffffffffffffffffffff1602179055506101008201518160080160006101000a81548173ffffffffffffffffffffffffffffffffffffffff021916908373ffffffffffffffffffffffffffffffffffffffff1602179055506101208201518160090160006101000a81548173ffffffffffffffffffffffffffffffffffffffff021916908373ffffffffffffffffffffffffffffffffffffffff160217905550905050600a60008681526020019081526020016000204290806001815401808255809150506001900390600052602060002001600090919091909150555050505050565b606060126000838152602001908152602001600020805480602002602001604051908101604052809291908181526020018280548015610e9e57602002820191906000526020600020905b815481526020019060010190808311610e8a575b50505050509050919050565b606060106000838152602001908152602001600020805480602002602001604051908101604052809291908181526020018280548015610f3f57602002820191906000526020600020905b8160009054906101000a900473ffffffffffffffffffffffffffffffffffffffff1673ffffffffffffffffffffffffffffffffffffffff1681526020019060010190808311610ef5575b50505050509050919050565b610f543361099c565b610f5d57600080fd5b610f6681613753565b610fa5576040517f08c379a0000000000000000000000000000000000000000000000000000000008152600401610f9c9061541e565b60405180910390fd5b6000600b600084815260200190815260200160002060405180610140016040529081600082015481526020016001820160009054906101000a900460ff166006811115610ff557610ff4614fbf565b5b600681111561100757611006614fbf565b5b8152602001600282015481526020016003820154815260200160048201548152602001600582015481526020016006820180546110439061537a565b80601f016020809104026020016040519081016040528092919081815260200182805461106f9061537a565b80156110bc5780601f10611091576101008083540402835291602001916110bc565b820191906000526020600020905b81548152906001019060200180831161109f57829003601f168201915b505050505081526020016007820160009054906101000a900473ffffffffffffffffffffffffffffffffffffffff1673ffffffffffffffffffffffffffffffffffffffff1673ffffffffffffffffffffffffffffffffffffffff1681526020016008820160009054906101000a900473ffffffffffffffffffffffffffffffffffffffff1673ffffffffffffffffffffffffffffffffffffffff1673ffffffffffffffffffffffffffffffffffffffff1681526020016009820160009054906101000a900473ffffffffffffffffffffffffffffffffffffffff1673ffffffffffffffffffffffffffffffffffffffff1673ffffffffffffffffffffffffffffffffffffffff1681525050905060008160e0015190503382610120019073ffffffffffffffffffffffffffffffffffffffff16908173ffffffffffffffffffffffffffffffffffffffff16815250508282610100019073ffffffffffffffffffffffffffffffffffffffff16908173ffffffffffffffffffffffffffffffffffffffff168152505060018260200190600681111561125d5761125c614fbf565b5b9081600681111561127157611270614fbf565b5b8152505081600b60008681526020019081526020016000206000820151816000015560208201518160010160006101000a81548160ff021916908360068111156112be576112bd614fbf565b5b021790555060408201518160020155606082015181600301556080820151816004015560a0820151816005015560c0820151816006019080519060200190611307929190614621565b5060e08201518160070160006101000a81548173ffffffffffffffffffffffffffffffffffffffff021916908373ffffffffffffffffffffffffffffffffffffffff1602179055506101008201518160080160006101000a81548173ffffffffffffffffffffffffffffffffffffffff021916908373ffffffffffffffffffffffffffffffffffffffff1602179055506101208201518160090160006101000a81548173ffffffffffffffffffffffffffffffffffffffff021916908373ffffffffffffffffffffffffffffffffffffffff160217905550905050600c60008473ffffffffffffffffffffffffffffffffffffffff1673ffffffffffffffffffffffffffffffffffffffff1681526020019081526020016000208290806001815401808255809150506001900390600052602060002090600a02016000909190919091506000820151816000015560208201518160010160006101000a81548160ff021916908360068111156114805761147f614fbf565b5b021790555060408201518160020155606082015181600301556080820151816004015560a0820151816005015560c08201518160060190805190602001906114c9929190614621565b5060e08201518160070160006101000a81548173ffffffffffffffffffffffffffffffffffffffff021916908373ffffffffffffffffffffffffffffffffffffffff1602179055506101008201518160080160006101000a81548173ffffffffffffffffffffffffffffffffffffffff021916908373ffffffffffffffffffffffffffffffffffffffff1602179055506101208201518160090160006101000a81548173ffffffffffffffffffffffffffffffffffffffff021916908373ffffffffffffffffffffffffffffffffffffffff1602179055505050600760009054906101000a900473ffffffffffffffffffffffffffffffffffffffff1673ffffffffffffffffffffffffffffffffffffffff1663e51a27ce823387600160006040518663ffffffff1660e01b815260040161160895949392919061551b565b600060405180830381600087803b15801561162257600080fd5b505af1158015611636573d6000803e3d6000fd5b50505050600a60008581526020019081526020016000204290806001815401808255809150506001900390600052602060002001600090919091909150557f84fad793fc72a4890032a0a48ea25fb57401690403f128ee2aaf047af876291c846040516116a39190615330565b60405180910390a150505050565b60606116bd60026142f5565b905090565b60006116d882600661423e90919063ffffffff16565b9050919050565b6116e7614387565b73ffffffffffffffffffffffffffffffffffffffff16611705613127565b73ffffffffffffffffffffffffffffffffffffffff161461175b576040517f08c379a0000000000000000000000000000000000000000000000000000000008152600401611752906155cd565b60405180910390fd5b61176f81600361418b90919063ffffffff16565b7f5a8fb443d09cf1426e80f80dd509757d71d4687674ab4adad906c5e2b6e1e62c8160405161179e9190614f51565b60405180910390a150565b8073ffffffffffffffffffffffffffffffffffffffff163373ffffffffffffffffffffffffffffffffffffffff1614611817576040517f08c379a000000000000000000000000000000000000000000000000000000000815260040161180e90615639565b60405180910390fd5b61182b81600661438f90919063ffffffff16565b7f4709990004724f283154297c090b8420d74dcbf9ffcd6bc50294e7350c7cb4fc8160405161185a9190614f51565b60405180910390a150565b6060601160008381526020019081526020016000208054806020026020016040519081016040528092919081815260200182805480156118c457602002820191906000526020600020905b8154815260200190600101908083116118b0575b50505050509050919050565b6118d8614387565b73ffffffffffffffffffffffffffffffffffffffff166118f6613127565b73ffffffffffffffffffffffffffffffffffffffff161461194c576040517f08c379a0000000000000000000000000000000000000000000000000000000008152600401611943906155cd565b60405180910390fd5b61196081600161418b90919063ffffffff16565b7fa3da795b47eb190084f878e63c07509e5f6df63ebc51443c0ccab2fc11c0d8838160405161198f9190614f51565b60405180910390a150565b6119a2614387565b73ffffffffffffffffffffffffffffffffffffffff166119c0613127565b73ffffffffffffffffffffffffffffffffffffffff1614611a16576040517f08c379a0000000000000000000000000000000000000000000000000000000008152600401611a0d906155cd565b60405180910390fd5b611a2a81600361438f90919063ffffffff16565b7f3d4e7057f9f992c8d86344002642adf5d5cd33816b302134e7ef5e0f045a6e7881604051611a599190614f51565b60405180910390a150565b611a6d3361099c565b611a7657600080fd5b6001821015611aba576040517f08c379a0000000000000000000000000000000000000000000000000000000008152600401611ab1906156a5565b60405180910390fd5b6000600b600085815260200190815260200160002060405180610140016040529081600082015481526020016001820160009054906101000a900460ff166006811115611b0a57611b09614fbf565b5b6006811115611b1c57611b1b614fbf565b5b815260200160028201548152602001600382015481526020016004820154815260200160058201548152602001600682018054611b589061537a565b80601f0160208091040260200160405190810160405280929190818152602001828054611b849061537a565b8015611bd15780601f10611ba657610100808354040283529160200191611bd1565b820191906000526020600020905b815481529060010190602001808311611bb457829003601f168201915b505050505081526020016007820160009054906101000a900473ffffffffffffffffffffffffffffffffffffffff1673ffffffffffffffffffffffffffffffffffffffff1673ffffffffffffffffffffffffffffffffffffffff1681526020016008820160009054906101000a900473ffffffffffffffffffffffffffffffffffffffff1673ffffffffffffffffffffffffffffffffffffffff1673ffffffffffffffffffffffffffffffffffffffff1681526020016009820160009054906101000a900473ffffffffffffffffffffffffffffffffffffffff1673ffffffffffffffffffffffffffffffffffffffff1673ffffffffffffffffffffffffffffffffffffffff16815250509050828160a0018181525050818160c00181905250600381602001906006811115611d0a57611d09614fbf565b5b90816006811115611d1e57611d1d614fbf565b5b8152505080600b60008681526020019081526020016000206000820151816000015560208201518160010160006101000a81548160ff02191690836006811115611d6b57611d6a614fbf565b5b021790555060408201518160020155606082015181600301556080820151816004015560a0820151816005015560c0820151816006019080519060200190611db4929190614621565b5060e08201518160070160006101000a81548173ffffffffffffffffffffffffffffffffffffffff021916908373ffffffffffffffffffffffffffffffffffffffff1602179055506101008201518160080160006101000a81548173ffffffffffffffffffffffffffffffffffffffff021916908373ffffffffffffffffffffffffffffffffffffffff1602179055506101208201518160090160006101000a81548173ffffffffffffffffffffffffffffffffffffffff021916908373ffffffffffffffffffffffffffffffffffffffff160217905550905050600a600085815260200190815260200160002042908060018154018082558091505060019003906000526020600020016000909190919091505550505050565b6009602052806000526040600020600091509050806000015490806001018054611ef89061537a565b80601f0160208091040260200160405190810160405280929190818152602001828054611f249061537a565b8015611f715780601f10611f4657610100808354040283529160200191611f71565b820191906000526020600020905b815481529060010190602001808311611f5457829003601f168201915b505050505090806002018054611f869061537a565b80601f0160208091040260200160405190810160405280929190818152602001828054611fb29061537a565b8015611fff5780601f10611fd457610100808354040283529160200191611fff565b820191906000526020600020905b815481529060010190602001808311611fe257829003601f168201915b5050505050905083565b612011614387565b73ffffffffffffffffffffffffffffffffffffffff1661202f613127565b73ffffffffffffffffffffffffffffffffffffffff1614612085576040517f08c379a000000000000000000000000000000000000000000000000000000000815260040161207c906155cd565b60405180910390fd5b61209981600161438f90919063ffffffff16565b7fccc03dfae55d568292686488ccd27bcdc249a89347bf1c13a2115a29062618b7816040516120c89190614f51565b60405180910390a150565b6120db614387565b73ffffffffffffffffffffffffffffffffffffffff166120f9613127565b73ffffffffffffffffffffffffffffffffffffffff161461214f576040517f08c379a0000000000000000000000000000000000000000000000000000000008152600401612146906155cd565b60405180910390fd5b61216381600461438f90919063ffffffff16565b7f43dd2f8ce4e5873e618ffabcae9856729ea5811dbc5e1c9be4365fcf7b7cf703816040516121929190614f51565b60405180910390a150565b60606121a960046142f5565b905090565b6060600f600083815260200190815260200160002080548060200260200160405190810160405280929190818152602001828054801561220d57602002820191906000526020600020905b8154815260200190600101908083116121f9575b50505050509050919050565b8073ffffffffffffffffffffffffffffffffffffffff163373ffffffffffffffffffffffffffffffffffffffff1614612287576040517f08c379a000000000000000000000000000000000000000000000000000000000815260040161227e90615639565b60405180910390fd5b61229b81600461438f90919063ffffffff16565b7f43dd2f8ce4e5873e618ffabcae9856729ea5811dbc5e1c9be4365fcf7b7cf703816040516122ca9190614f51565b60405180910390a150565b60006122eb82600561423e90919063ffffffff16565b9050919050565b60606122fe60066142f5565b905090565b61230c3361099c565b61231557600080fd5b6000600b600085815260200190815260200160002060405180610140016040529081600082015481526020016001820160009054906101000a900460ff16600681111561236557612364614fbf565b5b600681111561237757612376614fbf565b5b8152602001600282015481526020016003820154815260200160048201548152602001600582015481526020016006820180546123b39061537a565b80601f01602080910402602001604051908101604052809291908181526020018280546123df9061537a565b801561242c5780601f106124015761010080835404028352916020019161242c565b820191906000526020600020905b81548152906001019060200180831161240f57829003601f168201915b505050505081526020016007820160009054906101000a900473ffffffffffffffffffffffffffffffffffffffff1673ffffffffffffffffffffffffffffffffffffffff1673ffffffffffffffffffffffffffffffffffffffff1681526020016008820160009054906101000a900473ffffffffffffffffffffffffffffffffffffffff1673ffffffffffffffffffffffffffffffffffffffff1673ffffffffffffffffffffffffffffffffffffffff1681526020016009820160009054906101000a900473ffffffffffffffffffffffffffffffffffffffff1673ffffffffffffffffffffffffffffffffffffffff1673ffffffffffffffffffffffffffffffffffffffff1681525050905060048160200190600681111561255257612551614fbf565b5b9081600681111561256657612565614fbf565b5b8152505060008160a001519050600760009054906101000a900473ffffffffffffffffffffffffffffffffffffffff1673ffffffffffffffffffffffffffffffffffffffff1663156e29f633876001856125c091906156f4565b6040518463ffffffff1660e01b81526004016125de93929190615728565b600060405180830381600087803b1580156125f857600080fd5b505af115801561260c573d6000803e3d6000fd5b505050506000805b855181101561289f576126408682815181106126335761263261575f565b5b60200260200101516132e4565b61267f576040517f08c379a000000000000000000000000000000000000000000000000000000000815260040161267690615800565b60405180910390fd5b600d60008881526020019081526020016000208682815181106126a5576126a461575f565b5b60200260200101519080600181540180825580915050600190039060005260206000200160009091909190916101000a81548173ffffffffffffffffffffffffffffffffffffffff021916908373ffffffffffffffffffffffffffffffffffffffff160217905550600e60008881526020019081526020016000208582815181106127335761273261575f565b5b60200260200101519080600181540180825580915050600190039060005260206000200160009091909190915055600f6000888152602001908152602001600020829080600181540180825580915050600190039060005260206000200160009091909190915055600760009054906101000a900473ffffffffffffffffffffffffffffffffffffffff1673ffffffffffffffffffffffffffffffffffffffff1663e51a27ce338884815181106127ed576127ec61575f565b5b60200260200101518a8986815181106128095761280861575f565b5b6020026020010151876040518663ffffffff1660e01b8152600401612832959493929190615820565b600060405180830381600087803b15801561284c57600080fd5b505af1158015612860573d6000803e3d6000fd5b505050508481815181106128775761287661575f565b5b60200260200101518261288a9190615886565b91508080612897906158dc565b915050612614565b5082600b60008881526020019081526020016000206000820151816000015560208201518160010160006101000a81548160ff021916908360068111156128e9576128e8614fbf565b5b021790555060408201518160020155606082015181600301556080820151816004015560a0820151816005015560c0820151816006019080519060200190612932929190614621565b5060e08201518160070160006101000a81548173ffffffffffffffffffffffffffffffffffffffff021916908373ffffffffffffffffffffffffffffffffffffffff1602179055506101008201518160080160006101000a81548173ffffffffffffffffffffffffffffffffffffffff021916908373ffffffffffffffffffffffffffffffffffffffff1602179055506101208201518160090160006101000a81548173ffffffffffffffffffffffffffffffffffffffff021916908373ffffffffffffffffffffffffffffffffffffffff1602179055509050506000600c600085610100015173ffffffffffffffffffffffffffffffffffffffff1673ffffffffffffffffffffffffffffffffffffffff1681526020019081526020016000208054905090506000811115612b825760005b81811015612b805787600c600087610100015173ffffffffffffffffffffffffffffffffffffffff1673ffffffffffffffffffffffffffffffffffffffff1681526020019081526020016000208281548110612ac457612ac361575f565b5b90600052602060002090600a0201600001541415612b6d576004600c600087610100015173ffffffffffffffffffffffffffffffffffffffff1673ffffffffffffffffffffffffffffffffffffffff1681526020019081526020016000208281548110612b3457612b3361575f565b5b90600052602060002090600a020160010160006101000a81548160ff02191690836006811115612b6757612b66614fbf565b5b02179055505b8080612b78906158dc565b915050612a65565b505b600a60008881526020019081526020016000204290806001815401808255809150506001900390600052602060002001600090919091909150557f01e7f4af78fe812a5df0e0b3c5b400eff1cd1366eca03a2261de317ae5f6727b87604051612beb9190615330565b60405180910390a150505050505050565b612c04614387565b73ffffffffffffffffffffffffffffffffffffffff16612c22613127565b73ffffffffffffffffffffffffffffffffffffffff1614612c78576040517f08c379a0000000000000000000000000000000000000000000000000000000008152600401612c6f906155cd565b60405180910390fd5b612c8c81600561438f90919063ffffffff16565b7f200c3f073f217cf07dee57ee6e42c29e5fa6937f536b65c9d1e06be1f9c83dc181604051612cbb9190614f51565b60405180910390a150565b612cce614387565b73ffffffffffffffffffffffffffffffffffffffff16612cec613127565b73ffffffffffffffffffffffffffffffffffffffff1614612d42576040517f08c379a0000000000000000000000000000000000000000000000000000000008152600401612d39906155cd565b60405180910390fd5b612d4c6000614539565b565b612d56614387565b73ffffffffffffffffffffffffffffffffffffffff16612d74613127565b73ffffffffffffffffffffffffffffffffffffffff1614612dca576040517f08c379a0000000000000000000000000000000000000000000000000000000008152600401612dc1906155cd565b60405180910390fd5b612dde81600461418b90919063ffffffff16565b7f3afd547f7eb357741de51229846ae795cb06449e4b4032eb34a7cc0a751e25c181604051612e0d9190614f51565b60405180910390a150565b8073ffffffffffffffffffffffffffffffffffffffff163373ffffffffffffffffffffffffffffffffffffffff1614612e86576040517f08c379a0000000000000000000000000000000000000000000000000000000008152600401612e7d90615639565b60405180910390fd5b612e9a81600161438f90919063ffffffff16565b7fccc03dfae55d568292686488ccd27bcdc249a89347bf1c13a2115a29062618b781604051612ec99190614f51565b60405180910390a150565b612edc614387565b73ffffffffffffffffffffffffffffffffffffffff16612efa613127565b73ffffffffffffffffffffffffffffffffffffffff1614612f50576040517f08c379a0000000000000000000000000000000000000000000000000000000008152600401612f47906155cd565b60405180910390fd5b612f6481600261418b90919063ffffffff16565b7f364ee90eb63717b99192fdb951c7b1aa91a45bca11ac73ab40cfad762631fbce81604051612f939190614f51565b60405180910390a150565b8073ffffffffffffffffffffffffffffffffffffffff163373ffffffffffffffffffffffffffffffffffffffff161461300c576040517f08c379a000000000000000000000000000000000000000000000000000000000815260040161300390615639565b60405180910390fd5b61302081600361438f90919063ffffffff16565b7f3d4e7057f9f992c8d86344002642adf5d5cd33816b302134e7ef5e0f045a6e788160405161304f9190614f51565b60405180910390a150565b8073ffffffffffffffffffffffffffffffffffffffff163373ffffffffffffffffffffffffffffffffffffffff16146130c8576040517f08c379a00000000000000000000000000000000000000000000000000000000081526004016130bf90615639565b60405180910390fd5b6130dc81600261438f90919063ffffffff16565b7f9cfe362d8a536c3b63d391e311186b7f259fdd498eecf5d32626fe9b95058a7d8160405161310b9190614f51565b60405180910390a150565b606061312260036142f5565b905090565b60008060009054906101000a900473ffffffffffffffffffffffffffffffffffffffff16905090565b613158614387565b73ffffffffffffffffffffffffffffffffffffffff16613176613127565b73ffffffffffffffffffffffffffffffffffffffff16146131cc576040517f08c379a00000000000000000000000000000000000000000000000000000000081526004016131c3906155cd565b60405180910390fd5b6131e081600661438f90919063ffffffff16565b7f4709990004724f283154297c090b8420d74dcbf9ffcd6bc50294e7350c7cb4fc8160405161320f9190614f51565b60405180910390a150565b613222614387565b73ffffffffffffffffffffffffffffffffffffffff16613240613127565b73ffffffffffffffffffffffffffffffffffffffff1614613296576040517f08c379a000000000000000000000000000000000000000000000000000000000815260040161328d906155cd565b60405180910390fd5b6132aa81600561418b90919063ffffffff16565b7f0eea60f9e1851b51feed56c339be177ea715591923622a0effe46dbb8885efa6816040516132d99190614f51565b60405180910390a150565b60006132fa82600461423e90919063ffffffff16565b9050919050565b61330a3361416e565b613349576040517f08c379a000000000000000000000000000000000000000000000000000000000815260040161334090615971565b60405180910390fd5b600061335560086145fd565b905060006040518061014001604052808381526020016000600681111561337f5761337e614fbf565b5b8152602001868152602001858152602001848152602001600081526020016040518060200160405280600081525081526020013373ffffffffffffffffffffffffffffffffffffffff168152602001600073ffffffffffffffffffffffffffffffffffffffff168152602001600073ffffffffffffffffffffffffffffffffffffffff16815250905080600b60008481526020019081526020016000206000820151816000015560208201518160010160006101000a81548160ff0219169083600681111561345157613450614fbf565b5b021790555060408201518160020155606082015181600301556080820151816004015560a0820151816005015560c082015181600601908051906020019061349a929190614621565b5060e08201518160070160006101000a81548173ffffffffffffffffffffffffffffffffffffffff021916908373ffffffffffffffffffffffffffffffffffffffff1602179055506101008201518160080160006101000a81548173ffffffffffffffffffffffffffffffffffffffff021916908373ffffffffffffffffffffffffffffffffffffffff1602179055506101208201518160090160006101000a81548173ffffffffffffffffffffffffffffffffffffffff021916908373ffffffffffffffffffffffffffffffffffffffff160217905550905050600760009054906101000a900473ffffffffffffffffffffffffffffffffffffffff1673ffffffffffffffffffffffffffffffffffffffff1663156e29f6338460016040518463ffffffff1660e01b81526004016135d593929190615991565b600060405180830381600087803b1580156135ef57600080fd5b505af1158015613603573d6000803e3d6000fd5b50505050613611600861460b565b600a60008381526020019081526020016000204290806001815401808255809150506001900390600052602060002001600090919091909150557f8dba83ab26c4e67ac150487b6c119e69498289b9cc6c7dfd77fd0df2e671b48b8260405161367a9190615330565b60405180910390a15050505050565b613691614387565b73ffffffffffffffffffffffffffffffffffffffff166136af613127565b73ffffffffffffffffffffffffffffffffffffffff1614613705576040517f08c379a00000000000000000000000000000000000000000000000000000000081526004016136fc906155cd565b60405180910390fd5b61371981600661418b90919063ffffffff16565b7f23b2415a50efd127e694ba174e400d457ad65c58752e171b6d17f3f5daa26fdb816040516137489190614f51565b60405180910390a150565b600061376982600261423e90919063ffffffff16565b9050919050565b606061377c60016142f5565b905090565b600b6020528060005260406000206000915090508060000154908060010160009054906101000a900460ff16908060020154908060030154908060040154908060050154908060060180546137d59061537a565b80601f01602080910402602001604051908101604052809291908181526020018280546138019061537a565b801561384e5780601f106138235761010080835404028352916020019161384e565b820191906000526020600020905b81548152906001019060200180831161383157829003601f168201915b5050505050908060070160009054906101000a900473ffffffffffffffffffffffffffffffffffffffff16908060080160009054906101000a900473ffffffffffffffffffffffffffffffffffffffff16908060090160009054906101000a900473ffffffffffffffffffffffffffffffffffffffff1690508a565b6060600c60008373ffffffffffffffffffffffffffffffffffffffff1673ffffffffffffffffffffffffffffffffffffffff168152602001908152602001600020805480602002602001604051908101604052809291908181526020016000905b82821015613b5f57838290600052602060002090600a020160405180610140016040529081600082015481526020016001820160009054906101000a900460ff16600681111561397e5761397d614fbf565b5b60068111156139905761398f614fbf565b5b8152602001600282015481526020016003820154815260200160048201548152602001600582015481526020016006820180546139cc9061537a565b80601f01602080910402602001604051908101604052809291908181526020018280546139f89061537a565b8015613a455780601f10613a1a57610100808354040283529160200191613a45565b820191906000526020600020905b815481529060010190602001808311613a2857829003601f168201915b505050505081526020016007820160009054906101000a900473ffffffffffffffffffffffffffffffffffffffff1673ffffffffffffffffffffffffffffffffffffffff1673ffffffffffffffffffffffffffffffffffffffff1681526020016008820160009054906101000a900473ffffffffffffffffffffffffffffffffffffffff1673ffffffffffffffffffffffffffffffffffffffff1673ffffffffffffffffffffffffffffffffffffffff1681526020016009820160009054906101000a900473ffffffffffffffffffffffffffffffffffffffff1673ffffffffffffffffffffffffffffffffffffffff1673ffffffffffffffffffffffffffffffffffffffff16815250508152602001906001019061392b565b505050509050919050565b6060600d6000838152602001908152602001600020805480602002602001604051908101604052809291908181526020018280548015613bff57602002820191906000526020600020905b8160009054906101000a900473ffffffffffffffffffffffffffffffffffffffff1673ffffffffffffffffffffffffffffffffffffffff1681526020019060010190808311613bb5575b50505050509050919050565b613c14336132e4565b613c1d57600080fd5b6000806000613c2b84613b6a565b905060005b8151811015613df457600073ffffffffffffffffffffffffffffffffffffffff16828281518110613c6457613c6361575f565b5b602002602001015173ffffffffffffffffffffffffffffffffffffffff1614158015613cd557503373ffffffffffffffffffffffffffffffffffffffff16828281518110613cb557613cb461575f565b5b602002602001015173ffffffffffffffffffffffffffffffffffffffff16145b15613de157613ce385613f2d565b8181518110613cf557613cf461575f565b5b60200260200101519350613d08856121ae565b8181518110613d1a57613d1961575f565b5b60200260200101519250600d60008681526020019081526020016000208181548110613d4957613d4861575f565b5b9060005260206000200160006101000a81549073ffffffffffffffffffffffffffffffffffffffff0219169055600e60008681526020019081526020016000208181548110613d9b57613d9a61575f565b5b9060005260206000200160009055600f60008681526020019081526020016000208181548110613dce57613dcd61575f565b5b9060005260206000200160009055613df4565b8080613dec906158dc565b915050613c30565b507fb9f01075be5d71ca908e0aae338e241c77af5da8fbd7d476d37de1c8634dc0e284604051613e249190615330565b60405180910390a150505050565b613e3a614387565b73ffffffffffffffffffffffffffffffffffffffff16613e58613127565b73ffffffffffffffffffffffffffffffffffffffff1614613eae576040517f08c379a0000000000000000000000000000000000000000000000000000000008152600401613ea5906155cd565b60405180910390fd5b613ec281600261438f90919063ffffffff16565b7f9cfe362d8a536c3b63d391e311186b7f259fdd498eecf5d32626fe9b95058a7d81604051613ef19190614f51565b60405180910390a150565b600a6020528160005260406000208181548110613f1857600080fd5b90600052602060002001600091509150505481565b6060600e6000838152602001908152602001600020805480602002602001604051908101604052809291908181526020018280548015613f8c57602002820191906000526020600020905b815481526020019060010190808311613f78575b50505050509050919050565b8073ffffffffffffffffffffffffffffffffffffffff163373ffffffffffffffffffffffffffffffffffffffff1614614006576040517f08c379a0000000000000000000000000000000000000000000000000000000008152600401613ffd90615639565b60405180910390fd5b61401a81600561438f90919063ffffffff16565b7f200c3f073f217cf07dee57ee6e42c29e5fa6937f536b65c9d1e06be1f9c83dc1816040516140499190614f51565b60405180910390a150565b600061406060086145fd565b905090565b61406d614387565b73ffffffffffffffffffffffffffffffffffffffff1661408b613127565b73ffffffffffffffffffffffffffffffffffffffff16146140e1576040517f08c379a00000000000000000000000000000000000000000000000000000000081526004016140d8906155cd565b60405180910390fd5b600073ffffffffffffffffffffffffffffffffffffffff168173ffffffffffffffffffffffffffffffffffffffff161415614151576040517f08c379a000000000000000000000000000000000000000000000000000000000815260040161414890615a3a565b60405180910390fd5b61415a81614539565b50565b606061416960056142f5565b905090565b600061418482600161423e90919063ffffffff16565b9050919050565b614195828261423e565b156141d5576040517f08c379a00000000000000000000000000000000000000000000000000000000081526004016141cc90615aa6565b60405180910390fd5b81600001819080600181540180825580915050600190039060005260206000200160009091909190916101000a81548173ffffffffffffffffffffffffffffffffffffffff021916908373ffffffffffffffffffffffffffffffffffffffff1602179055505050565b6000808360000180549050905060005b818110156142e8578373ffffffffffffffffffffffffffffffffffffffff168560000182815481106142835761428261575f565b5b9060005260206000200160009054906101000a900473ffffffffffffffffffffffffffffffffffffffff1673ffffffffffffffffffffffffffffffffffffffff1614156142d5576001925050506142ef565b80806142e0906158dc565b91505061424e565b5060009150505b92915050565b60608160000180548060200260200160405190810160405280929190818152602001828054801561437b57602002820191906000526020600020905b8160009054906101000a900473ffffffffffffffffffffffffffffffffffffffff1673ffffffffffffffffffffffffffffffffffffffff1681526020019060010190808311614331575b50505050509050919050565b600033905090565b600082600001805490509050600080600090505b828110156144e957811561445d578460000181815481106143c7576143c661575f565b5b9060005260206000200160009054906101000a900473ffffffffffffffffffffffffffffffffffffffff168560000160018361440391906156f4565b815481106144145761441361575f565b5b9060005260206000200160006101000a81548173ffffffffffffffffffffffffffffffffffffffff021916908373ffffffffffffffffffffffffffffffffffffffff1602179055505b8373ffffffffffffffffffffffffffffffffffffffff1685600001828154811061448a5761448961575f565b5b9060005260206000200160009054906101000a900473ffffffffffffffffffffffffffffffffffffffff1673ffffffffffffffffffffffffffffffffffffffff1614156144d657600191505b80806144e1906158dc565b9150506143a3565b50836000018054806144fe576144fd615ac6565b5b6001900381819060005260206000200160006101000a81549073ffffffffffffffffffffffffffffffffffffffff0219169055905550505050565b60008060009054906101000a900473ffffffffffffffffffffffffffffffffffffffff169050816000806101000a81548173ffffffffffffffffffffffffffffffffffffffff021916908373ffffffffffffffffffffffffffffffffffffffff1602179055508173ffffffffffffffffffffffffffffffffffffffff168173ffffffffffffffffffffffffffffffffffffffff167f8be0079c531659141344cd1fd0a4f28419497f9722a3daafe3b4186f6b6457e060405160405180910390a35050565b600081600001549050919050565b6001816000016000828254019250508190555050565b82805461462d9061537a565b90600052602060002090601f01602090048101928261464f5760008555614696565b82601f1061466857805160ff1916838001178555614696565b82800160010185558215614696579182015b8281111561469557825182559160200191906001019061467a565b5b5090506146a391906146a7565b5090565b5b808211156146c05760008160009055506001016146a8565b5090565b6000604051905090565b600080fd5b600080fd5b600073ffffffffffffffffffffffffffffffffffffffff82169050919050565b6000614703826146d8565b9050919050565b614713816146f8565b811461471e57600080fd5b50565b6000813590506147308161470a565b92915050565b60006020828403121561474c5761474b6146ce565b5b600061475a84828501614721565b91505092915050565b60008115159050919050565b61477881614763565b82525050565b6000602082019050614793600083018461476f565b92915050565b6000819050919050565b6147ac81614799565b81146147b757600080fd5b50565b6000813590506147c9816147a3565b92915050565b600080fd5b600080fd5b6000601f19601f8301169050919050565b7f4e487b7100000000000000000000000000000000000000000000000000000000600052604160045260246000fd5b614822826147d9565b810181811067ffffffffffffffff82111715614841576148406147ea565b5b80604052505050565b60006148546146c4565b90506148608282614819565b919050565b600067ffffffffffffffff8211156148805761487f6147ea565b5b614889826147d9565b9050602081019050919050565b82818337600083830152505050565b60006148b86148b384614865565b61484a565b9050828152602081018484840111156148d4576148d36147d4565b5b6148df848285614896565b509392505050565b600082601f8301126148fc576148fb6147cf565b5b813561490c8482602086016148a5565b91505092915050565b6000806000806080858703121561492f5761492e6146ce565b5b600061493d878288016147ba565b945050602061494e878288016147ba565b935050604085013567ffffffffffffffff81111561496f5761496e6146d3565b5b61497b878288016148e7565b925050606085013567ffffffffffffffff81111561499c5761499b6146d3565b5b6149a8878288016148e7565b91505092959194509250565b6000602082840312156149ca576149c96146ce565b5b60006149d8848285016147ba565b91505092915050565b600081519050919050565b600082825260208201905092915050565b6000819050602082019050919050565b614a1681614799565b82525050565b6000614a288383614a0d565b60208301905092915050565b6000602082019050919050565b6000614a4c826149e1565b614a5681856149ec565b9350614a61836149fd565b8060005b83811015614a92578151614a798882614a1c565b9750614a8483614a34565b925050600181019050614a65565b5085935050505092915050565b60006020820190508181036000830152614ab98184614a41565b905092915050565b600081519050919050565b600082825260208201905092915050565b6000819050602082019050919050565b614af6816146f8565b82525050565b6000614b088383614aed565b60208301905092915050565b6000602082019050919050565b6000614b2c82614ac1565b614b368185614acc565b9350614b4183614add565b8060005b83811015614b72578151614b598882614afc565b9750614b6483614b14565b925050600181019050614b45565b5085935050505092915050565b60006020820190508181036000830152614b998184614b21565b905092915050565b60008060408385031215614bb857614bb76146ce565b5b6000614bc6858286016147ba565b9250506020614bd785828601614721565b9150509250929050565b600080600060608486031215614bfa57614bf96146ce565b5b6000614c08868287016147ba565b9350506020614c19868287016147ba565b925050604084013567ffffffffffffffff811115614c3a57614c396146d3565b5b614c46868287016148e7565b9150509250925092565b614c5981614799565b82525050565b600081519050919050565b600082825260208201905092915050565b60005b83811015614c99578082015181840152602081019050614c7e565b83811115614ca8576000848401525b50505050565b6000614cb982614c5f565b614cc38185614c6a565b9350614cd3818560208601614c7b565b614cdc816147d9565b840191505092915050565b6000606082019050614cfc6000830186614c50565b8181036020830152614d0e8185614cae565b90508181036040830152614d228184614cae565b9050949350505050565b600067ffffffffffffffff821115614d4757614d466147ea565b5b602082029050602081019050919050565b600080fd5b6000614d70614d6b84614d2c565b61484a565b90508083825260208201905060208402830185811115614d9357614d92614d58565b5b835b81811015614dbc5780614da88882614721565b845260208401935050602081019050614d95565b5050509392505050565b600082601f830112614ddb57614dda6147cf565b5b8135614deb848260208601614d5d565b91505092915050565b600067ffffffffffffffff821115614e0f57614e0e6147ea565b5b602082029050602081019050919050565b6000614e33614e2e84614df4565b61484a565b90508083825260208201905060208402830185811115614e5657614e55614d58565b5b835b81811015614e7f5780614e6b88826147ba565b845260208401935050602081019050614e58565b5050509392505050565b600082601f830112614e9e57614e9d6147cf565b5b8135614eae848260208601614e20565b91505092915050565b600080600060608486031215614ed057614ecf6146ce565b5b6000614ede868287016147ba565b935050602084013567ffffffffffffffff811115614eff57614efe6146d3565b5b614f0b86828701614dc6565b925050604084013567ffffffffffffffff811115614f2c57614f2b6146d3565b5b614f3886828701614e89565b9150509250925092565b614f4b816146f8565b82525050565b6000602082019050614f666000830184614f42565b92915050565b600080600060608486031215614f8557614f846146ce565b5b6000614f93868287016147ba565b9350506020614fa4868287016147ba565b9250506040614fb5868287016147ba565b9150509250925092565b7f4e487b7100000000000000000000000000000000000000000000000000000000600052602160045260246000fd5b60078110614fff57614ffe614fbf565b5b50565b600081905061501082614fee565b919050565b600061502082615002565b9050919050565b61503081615015565b82525050565b60006101408201905061504c600083018d614c50565b615059602083018c615027565b615066604083018b614c50565b615073606083018a614c50565b6150806080830189614c50565b61508d60a0830188614c50565b81810360c083015261509f8187614cae565b90506150ae60e0830186614f42565b6150bc610100830185614f42565b6150ca610120830184614f42565b9b9a5050505050505050505050565b600081519050919050565b600082825260208201905092915050565b6000819050602082019050919050565b61510e81615015565b82525050565b600082825260208201905092915050565b600061513082614c5f565b61513a8185615114565b935061514a818560208601614c7b565b615153816147d9565b840191505092915050565b6000610140830160008301516151776000860182614a0d565b50602083015161518a6020860182615105565b50604083015161519d6040860182614a0d565b5060608301516151b06060860182614a0d565b5060808301516151c36080860182614a0d565b5060a08301516151d660a0860182614a0d565b5060c083015184820360c08601526151ee8282615125565b91505060e083015161520360e0860182614aed565b50610100830151615218610100860182614aed565b5061012083015161522d610120860182614aed565b508091505092915050565b6000615244838361515e565b905092915050565b6000602082019050919050565b6000615264826150d9565b61526e81856150e4565b935083602082028501615280856150f5565b8060005b858110156152bc578484038952815161529d8582615238565b94506152a88361524c565b925060208a01995050600181019050615284565b50829750879550505050505092915050565b600060208201905081810360008301526152e88184615259565b905092915050565b60008060408385031215615307576153066146ce565b5b6000615315858286016147ba565b9250506020615326858286016147ba565b9150509250929050565b60006020820190506153456000830184614c50565b92915050565b7f4e487b7100000000000000000000000000000000000000000000000000000000600052602260045260246000fd5b6000600282049050600182168061539257607f821691505b602082108114156153a6576153a561534b565b5b50919050565b7f4e4f5420412056414c49442057415245484f555345204144445245535320212060008201527f504c4541534520434f4e544143542041444d494e000000000000000000000000602082015250565b6000615408603483614c6a565b9150615413826153ac565b604082019050919050565b60006020820190508181036000830152615437816153fb565b9050919050565b6000819050919050565b6000819050919050565b600061546d6154686154638461543e565b615448565b614799565b9050919050565b61547d81615452565b82525050565b600082825260208201905092915050565b7f3078303000000000000000000000000000000000000000000000000000000000600082015250565b60006154ca600483615483565b91506154d582615494565b602082019050919050565b6000819050919050565b60006155056155006154fb846154e0565b615448565b614799565b9050919050565b615515816154ea565b82525050565b600060c0820190506155306000830188614f42565b61553d6020830187614f42565b61554a6040830186614c50565b6155576060830185615474565b8181036080830152615568816154bd565b905061557760a083018461550c565b9695505050505050565b7f4f776e61626c653a2063616c6c6572206973206e6f7420746865206f776e6572600082015250565b60006155b7602083614c6a565b91506155c282615581565b602082019050919050565b600060208201905081810360008301526155e6816155aa565b9050919050565b7f594f555f43414e5f4e4f545f524f4d4f56455f544849535f4144445245535300600082015250565b6000615623601f83614c6a565b915061562e826155ed565b602082019050919050565b6000602082019050818103600083015261565281615616565b9050919050565b7f556e6974732073686f756c642062652067726561746572207468617420310000600082015250565b600061568f601e83614c6a565b915061569a82615659565b602082019050919050565b600060208201905081810360008301526156be81615682565b9050919050565b7f4e487b7100000000000000000000000000000000000000000000000000000000600052601160045260246000fd5b60006156ff82614799565b915061570a83614799565b92508282101561571d5761571c6156c5565b5b828203905092915050565b600060608201905061573d6000830186614f42565b61574a6020830185614c50565b6157576040830184614c50565b949350505050565b7f4e487b7100000000000000000000000000000000000000000000000000000000600052603260045260246000fd5b7f4e4f5420412056414c4944204449535452494255544f5220414444524553532060008201527f2120504c4541534520434f4e544143542041444d494e00000000000000000000602082015250565b60006157ea603683614c6a565b91506157f58261578e565b604082019050919050565b60006020820190508181036000830152615819816157dd565b9050919050565b600060c0820190506158356000830188614f42565b6158426020830187614f42565b61584f6040830186614c50565b61585c6060830185614c50565b818103608083015261586d816154bd565b905061587c60a0830184614c50565b9695505050505050565b600061589182614799565b915061589c83614799565b9250827fffffffffffffffffffffffffffffffffffffffffffffffffffffffffffffffff038211156158d1576158d06156c5565b5b828201905092915050565b60006158e782614799565b91507fffffffffffffffffffffffffffffffffffffffffffffffffffffffffffffffff82141561591a576159196156c5565b5b600182019050919050565b7f4e6f74206120526177204d6174657269616c20537570706c6965720000000000600082015250565b600061595b601b83614c6a565b915061596682615925565b602082019050919050565b6000602082019050818103600083015261598a8161594e565b9050919050565b60006060820190506159a66000830186614f42565b6159b36020830185614c50565b6159c06040830184615474565b949350505050565b7f4f776e61626c653a206e6577206f776e657220697320746865207a65726f206160008201527f6464726573730000000000000000000000000000000000000000000000000000602082015250565b6000615a24602683614c6a565b9150615a2f826159c8565b604082019050919050565b60006020820190508181036000830152615a5381615a17565b9050919050565b7f524f4c455f414c52454144595f45584953545300000000000000000000000000600082015250565b6000615a90601383614c6a565b9150615a9b82615a5a565b602082019050919050565b60006020820190508181036000830152615abf81615a83565b9050919050565b7f4e487b7100000000000000000000000000000000000000000000000000000000600052603160045260246000fdfea2646970667358221220917cb2397a36541f86d3fae2d344ed9261c02e63666e7dbabfffa89dfe62f43964736f6c63430008080033",
  "linkReferences": {},
  "deployedLinkReferences": {}
}