{
  "_format": "hh-sol-artifact-1",
  "contractName": "Supplychain",
  "sourceName": "contracts/Supplychain.sol",
  "abi": [
    {
      "inputs": [
        {
          "internalType": "address",
          "name": "_supplychainToken",
          "type": "address"
        }
      ],
      "stateMutability": "nonpayable",
      "type": "constructor"
    },
    {
      "anonymous": false,
      "inputs": [
        {
          "indexed": false,
          "internalType": "address",
          "name": "_address",
          "type": "address"
        }
      ],
      "name": "AddCustomer",
      "type": "event"
    },
    {
      "anonymous": false,
      "inputs": [
        {
          "indexed": false,
          "internalType": "address",
          "name": "_address",
          "type": "address"
        }
      ],
      "name": "AddDistributor",
      "type": "event"
    },
    {
      "anonymous": false,
      "inputs": [
        {
          "indexed": false,
          "internalType": "address",
          "name": "_address",
          "type": "address"
        }
      ],
      "name": "AddFactory",
      "type": "event"
    },
    {
      "anonymous": false,
      "inputs": [
        {
          "indexed": false,
          "internalType": "address",
          "name": "_address",
          "type": "address"
        }
      ],
      "name": "AddRawMaterialSupplier",
      "type": "event"
    },
    {
      "anonymous": false,
      "inputs": [
        {
          "indexed": false,
          "internalType": "address",
          "name": "_address",
          "type": "address"
        }
      ],
      "name": "AddRetailer",
      "type": "event"
    },
    {
      "anonymous": false,
      "inputs": [
        {
          "indexed": false,
          "internalType": "address",
          "name": "_address",
          "type": "address"
        }
      ],
      "name": "AddWarehouse",
      "type": "event"
    },
    {
      "anonymous": false,
      "inputs": [
        {
          "indexed": false,
          "internalType": "uint256",
          "name": "_supplyChainId",
          "type": "uint256"
        }
      ],
      "name": "DistributorSellToRetailer",
      "type": "event"
    },
    {
      "anonymous": false,
      "inputs": [
        {
          "indexed": false,
          "internalType": "uint256",
          "name": "_supplyChainId",
          "type": "uint256"
        }
      ],
      "name": "FactoryBuyRawMaterial",
      "type": "event"
    },
    {
      "anonymous": false,
      "inputs": [
        {
          "indexed": false,
          "internalType": "uint256",
          "name": "_supplyChainId",
          "type": "uint256"
        }
      ],
      "name": "FactorySellItemToDistributors",
      "type": "event"
    },
    {
      "anonymous": false,
      "inputs": [
        {
          "indexed": true,
          "internalType": "address",
          "name": "previousOwner",
          "type": "address"
        },
        {
          "indexed": true,
          "internalType": "address",
          "name": "newOwner",
          "type": "address"
        }
      ],
      "name": "OwnershipTransferred",
      "type": "event"
    },
    {
      "anonymous": false,
      "inputs": [
        {
          "indexed": false,
          "internalType": "uint256",
          "name": "_supplyChainId",
          "type": "uint256"
        }
      ],
      "name": "RawMaterialSupplierSuppliesRM",
      "type": "event"
    },
    {
      "anonymous": false,
      "inputs": [
        {
          "indexed": false,
          "internalType": "address",
          "name": "_address",
          "type": "address"
        }
      ],
      "name": "RemoveCustomer",
      "type": "event"
    },
    {
      "anonymous": false,
      "inputs": [
        {
          "indexed": false,
          "internalType": "address",
          "name": "_address",
          "type": "address"
        }
      ],
      "name": "RemoveDistributor",
      "type": "event"
    },
    {
      "anonymous": false,
      "inputs": [
        {
          "indexed": false,
          "internalType": "address",
          "name": "_address",
          "type": "address"
        }
      ],
      "name": "RemoveFactory",
      "type": "event"
    },
    {
      "anonymous": false,
      "inputs": [
        {
          "indexed": false,
          "internalType": "address",
          "name": "_address",
          "type": "address"
        }
      ],
      "name": "RemoveRawMaterialSupplier",
      "type": "event"
    },
    {
      "anonymous": false,
      "inputs": [
        {
          "indexed": false,
          "internalType": "address",
          "name": "_address",
          "type": "address"
        }
      ],
      "name": "RemoveRetailer",
      "type": "event"
    },
    {
      "anonymous": false,
      "inputs": [
        {
          "indexed": false,
          "internalType": "address",
          "name": "_address",
          "type": "address"
        }
      ],
      "name": "RemoveWarehouse",
      "type": "event"
    },
    {
      "anonymous": false,
      "inputs": [
        {
          "indexed": false,
          "internalType": "uint256",
          "name": "_supplyChainId",
          "type": "uint256"
        }
      ],
      "name": "RetailerSellToCustomer",
      "type": "event"
    },
    {
      "inputs": [
        {
          "internalType": "uint256",
          "name": "",
          "type": "uint256"
        }
      ],
      "name": "YarnDetails",
      "outputs": [
        {
          "internalType": "uint256",
          "name": "YarnAmount",
          "type": "uint256"
        },
        {
          "internalType": "string",
          "name": "YarnColor",
          "type": "string"
        },
        {
          "internalType": "string",
          "name": "YarnType",
          "type": "string"
        }
      ],
      "stateMutability": "view",
      "type": "function"
    },
    {
      "inputs": [
        {
          "internalType": "address",
          "name": "_address",
          "type": "address"
        }
      ],
      "name": "addCustomer",
      "outputs": [],
      "stateMutability": "nonpayable",
      "type": "function"
    },
    {
      "inputs": [
        {
          "internalType": "address",
          "name": "_address",
          "type": "address"
        }
      ],
      "name": "addDistributor",
      "outputs": [],
      "stateMutability": "nonpayable",
      "type": "function"
    },
    {
      "inputs": [
        {
          "internalType": "address",
          "name": "_address",
          "type": "address"
        }
      ],
      "name": "addFactory",
      "outputs": [],
      "stateMutability": "nonpayable",
      "type": "function"
    },
    {
      "inputs": [
        {
          "internalType": "address",
          "name": "_address",
          "type": "address"
        }
      ],
      "name": "addRawMaterialSupplier",
      "outputs": [],
      "stateMutability": "nonpayable",
      "type": "function"
    },
    {
      "inputs": [
        {
          "internalType": "address",
          "name": "_address",
          "type": "address"
        }
      ],
      "name": "addRetailer",
      "outputs": [],
      "stateMutability": "nonpayable",
      "type": "function"
    },
    {
      "inputs": [
        {
          "internalType": "address",
          "name": "_address",
          "type": "address"
        }
      ],
      "name": "addWarehouse",
      "outputs": [],
      "stateMutability": "nonpayable",
      "type": "function"
    },
    {
      "inputs": [
        {
          "internalType": "uint256",
          "name": "_supplyChainId",
          "type": "uint256"
        },
        {
          "internalType": "address[]",
          "name": "retailers",
          "type": "address[]"
        },
        {
          "internalType": "uint256[]",
          "name": "quantity",
          "type": "uint256[]"
        }
      ],
      "name": "distributorSellToRetailer",
      "outputs": [],
      "stateMutability": "nonpayable",
      "type": "function"
    },
    {
      "inputs": [
        {
          "internalType": "uint256",
          "name": "_supplyChainId",
          "type": "uint256"
        },
        {
          "internalType": "address",
          "name": "_warehouse",
          "type": "address"
        },
        {
          "internalType": "uint256",
          "name": "_polysteramount",
          "type": "uint256"
        },
        {
          "internalType": "uint256",
          "name": "_cottonamount",
          "type": "uint256"
        },
        {
          "internalType": "uint256",
          "name": "_woolamount",
          "type": "uint256"
        }
      ],
      "name": "factoryBuyRawMaterial",
      "outputs": [],
      "stateMutability": "nonpayable",
      "type": "function"
    },
    {
      "inputs": [
        {
          "internalType": "uint256",
          "name": "_supplyChainId",
          "type": "uint256"
        },
        {
          "internalType": "uint256",
          "name": "_totalUnits",
          "type": "uint256"
        },
        {
          "internalType": "string",
          "name": "_description",
          "type": "string"
        }
      ],
      "name": "factoryCompleteGarmentManufacturing",
      "outputs": [],
      "stateMutability": "nonpayable",
      "type": "function"
    },
    {
      "inputs": [
        {
          "internalType": "uint256",
          "name": "_supplyChainId",
          "type": "uint256"
        },
        {
          "internalType": "uint256",
          "name": "_yarnAmount",
          "type": "uint256"
        },
        {
          "internalType": "string",
          "name": "_yarnColor",
          "type": "string"
        },
        {
          "internalType": "string",
          "name": "_yarnType",
          "type": "string"
        }
      ],
      "name": "factoryCompleteSpinningWaeving",
      "outputs": [],
      "stateMutability": "nonpayable",
      "type": "function"
    },
    {
      "inputs": [
        {
          "internalType": "uint256",
          "name": "_supplyChainId",
          "type": "uint256"
        },
        {
          "internalType": "address[]",
          "name": "distributors",
          "type": "address[]"
        },
        {
          "internalType": "uint256[]",
          "name": "quantity",
          "type": "uint256[]"
        }
      ],
      "name": "factorySellItemToDistributors",
      "outputs": [],
      "stateMutability": "nonpayable",
      "type": "function"
    },
    {
      "inputs": [],
      "name": "getCustomer",
      "outputs": [
        {
          "internalType": "address[]",
          "name": "",
          "type": "address[]"
        }
      ],
      "stateMutability": "view",
      "type": "function"
    },
    {
      "inputs": [],
      "name": "getDistributor",
      "outputs": [
        {
          "internalType": "address[]",
          "name": "",
          "type": "address[]"
        }
      ],
      "stateMutability": "view",
      "type": "function"
    },
    {
      "inputs": [
        {
          "internalType": "uint256",
          "name": "_supplychianId",
          "type": "uint256"
        }
      ],
      "name": "getDistributorCounters",
      "outputs": [
        {
          "internalType": "uint256[]",
          "name": "",
          "type": "uint256[]"
        }
      ],
      "stateMutability": "view",
      "type": "function"
    },
    {
      "inputs": [
        {
          "internalType": "uint256",
          "name": "_supplychianId",
          "type": "uint256"
        }
      ],
      "name": "getDistributorUnits",
      "outputs": [
        {
          "internalType": "uint256[]",
          "name": "",
          "type": "uint256[]"
        }
      ],
      "stateMutability": "view",
      "type": "function"
    },
    {
      "inputs": [
        {
          "internalType": "uint256",
          "name": "_supplychianId",
          "type": "uint256"
        }
      ],
      "name": "getDistributors",
      "outputs": [
        {
          "internalType": "address[]",
          "name": "",
          "type": "address[]"
        }
      ],
      "stateMutability": "view",
      "type": "function"
    },
    {
      "inputs": [],
      "name": "getFactory",
      "outputs": [
        {
          "internalType": "address[]",
          "name": "",
          "type": "address[]"
        }
      ],
      "stateMutability": "view",
      "type": "function"
    },
    {
      "inputs": [],
      "name": "getRawMaterialSupplier",
      "outputs": [
        {
          "internalType": "address[]",
          "name": "",
          "type": "address[]"
        }
      ],
      "stateMutability": "view",
      "type": "function"
    },
    {
      "inputs": [],
      "name": "getRetailer",
      "outputs": [
        {
          "internalType": "address[]",
          "name": "",
          "type": "address[]"
        }
      ],
      "stateMutability": "view",
      "type": "function"
    },
    {
      "inputs": [
        {
          "internalType": "uint256",
          "name": "_supplychianId",
          "type": "uint256"
        }
      ],
      "name": "getRetailers",
      "outputs": [
        {
          "internalType": "address[]",
          "name": "",
          "type": "address[]"
        }
      ],
      "stateMutability": "view",
      "type": "function"
    },
    {
      "inputs": [
        {
          "internalType": "uint256",
          "name": "_supplychianId",
          "type": "uint256"
        }
      ],
      "name": "getRetailersCounters",
      "outputs": [
        {
          "internalType": "uint256[]",
          "name": "",
          "type": "uint256[]"
        }
      ],
      "stateMutability": "view",
      "type": "function"
    },
    {
      "inputs": [
        {
          "internalType": "uint256",
          "name": "_supplychianId",
          "type": "uint256"
        }
      ],
      "name": "getRetailersUnits",
      "outputs": [
        {
          "internalType": "uint256[]",
          "name": "",
          "type": "uint256[]"
        }
      ],
      "stateMutability": "view",
      "type": "function"
    },
    {
      "inputs": [],
      "name": "getWarehouse",
      "outputs": [
        {
          "internalType": "address[]",
          "name": "",
          "type": "address[]"
        }
      ],
      "stateMutability": "view",
      "type": "function"
    },
    {
      "inputs": [
        {
          "internalType": "address",
          "name": "warehouse",
          "type": "address"
        }
      ],
      "name": "getWarehouseItems",
      "outputs": [
        {
          "components": [
            {
              "internalType": "uint256",
              "name": "supplyChainId",
              "type": "uint256"
            },
            {
              "internalType": "enum Supplychain.State",
              "name": "itemState",
              "type": "uint8"
            },
            {
              "internalType": "uint256",
              "name": "PolyesterAmount",
              "type": "uint256"
            },
            {
              "internalType": "uint256",
              "name": "CottonAmount",
              "type": "uint256"
            },
            {
              "internalType": "uint256",
              "name": "WoolAmount",
              "type": "uint256"
            },
            {
              "internalType": "uint256",
              "name": "totalUnits",
              "type": "uint256"
            },
            {
              "internalType": "string",
              "name": "Description",
              "type": "string"
            },
            {
              "internalType": "address",
              "name": "RawMaterialSupplierID",
              "type": "address"
            },
            {
              "internalType": "address",
              "name": "warehouseID",
              "type": "address"
            },
            {
              "internalType": "address",
              "name": "factoryID",
              "type": "address"
            }
          ],
          "internalType": "struct Supplychain.Item[]",
          "name": "",
          "type": "tuple[]"
        }
      ],
      "stateMutability": "view",
      "type": "function"
    },
    {
      "inputs": [
        {
          "internalType": "address",
          "name": "_address",
          "type": "address"
        }
      ],
      "name": "isCustomer",
      "outputs": [
        {
          "internalType": "bool",
          "name": "",
          "type": "bool"
        }
      ],
      "stateMutability": "view",
      "type": "function"
    },
    {
      "inputs": [
        {
          "internalType": "address",
          "name": "_address",
          "type": "address"
        }
      ],
      "name": "isDistributor",
      "outputs": [
        {
          "internalType": "bool",
          "name": "",
          "type": "bool"
        }
      ],
      "stateMutability": "view",
      "type": "function"
    },
    {
      "inputs": [
        {
          "internalType": "address",
          "name": "_address",
          "type": "address"
        }
      ],
      "name": "isFactory",
      "outputs": [
        {
          "internalType": "bool",
          "name": "",
          "type": "bool"
        }
      ],
      "stateMutability": "view",
      "type": "function"
    },
    {
      "inputs": [
        {
          "internalType": "address",
          "name": "_address",
          "type": "address"
        }
      ],
      "name": "isRawMaterialSupplier",
      "outputs": [
        {
          "internalType": "bool",
          "name": "",
          "type": "bool"
        }
      ],
      "stateMutability": "view",
      "type": "function"
    },
    {
      "inputs": [
        {
          "internalType": "address",
          "name": "_address",
          "type": "address"
        }
      ],
      "name": "isRetailer",
      "outputs": [
        {
          "internalType": "bool",
          "name": "",
          "type": "bool"
        }
      ],
      "stateMutability": "view",
      "type": "function"
    },
    {
      "inputs": [
        {
          "internalType": "address",
          "name": "_address",
          "type": "address"
        }
      ],
      "name": "isWarehouse",
      "outputs": [
        {
          "internalType": "bool",
          "name": "",
          "type": "bool"
        }
      ],
      "stateMutability": "view",
      "type": "function"
    },
    {
      "inputs": [
        {
          "internalType": "uint256",
          "name": "",
          "type": "uint256"
        }
      ],
      "name": "items",
      "outputs": [
        {
          "internalType": "uint256",
          "name": "supplyChainId",
          "type": "uint256"
        },
        {
          "internalType": "enum Supplychain.State",
          "name": "itemState",
          "type": "uint8"
        },
        {
          "internalType": "uint256",
          "name": "PolyesterAmount",
          "type": "uint256"
        },
        {
          "internalType": "uint256",
          "name": "CottonAmount",
          "type": "uint256"
        },
        {
          "internalType": "uint256",
          "name": "WoolAmount",
          "type": "uint256"
        },
        {
          "internalType": "uint256",
          "name": "totalUnits",
          "type": "uint256"
        },
        {
          "internalType": "string",
          "name": "Description",
          "type": "string"
        },
        {
          "internalType": "address",
          "name": "RawMaterialSupplierID",
          "type": "address"
        },
        {
          "internalType": "address",
          "name": "warehouseID",
          "type": "address"
        },
        {
          "internalType": "address",
          "name": "factoryID",
          "type": "address"
        }
      ],
      "stateMutability": "view",
      "type": "function"
    },
    {
      "inputs": [],
      "name": "owner",
      "outputs": [
        {
          "internalType": "address",
          "name": "",
          "type": "address"
        }
      ],
      "stateMutability": "view",
      "type": "function"
    },
    {
      "inputs": [
        {
          "internalType": "uint256",
          "name": "_polyesterAmount",
          "type": "uint256"
        },
        {
          "internalType": "uint256",
          "name": "_cottonAmount",
          "type": "uint256"
        },
        {
          "internalType": "uint256",
          "name": "_woolAmount",
          "type": "uint256"
        }
      ],
      "name": "rawMaterialSupplierSuppliesRM",
      "outputs": [],
      "stateMutability": "nonpayable",
      "type": "function"
    },
    {
      "inputs": [
        {
          "internalType": "address",
          "name": "_address",
          "type": "address"
        }
      ],
      "name": "removeCustomer",
      "outputs": [],
      "stateMutability": "nonpayable",
      "type": "function"
    },
    {
      "inputs": [
        {
          "internalType": "address",
          "name": "_address",
          "type": "address"
        }
      ],
      "name": "removeCustomerSelf",
      "outputs": [],
      "stateMutability": "nonpayable",
      "type": "function"
    },
    {
      "inputs": [
        {
          "internalType": "address",
          "name": "_address",
          "type": "address"
        }
      ],
      "name": "removeDistributor",
      "outputs": [],
      "stateMutability": "nonpayable",
      "type": "function"
    },
    {
      "inputs": [
        {
          "internalType": "address",
          "name": "_address",
          "type": "address"
        }
      ],
      "name": "removeDistributorSelf",
      "outputs": [],
      "stateMutability": "nonpayable",
      "type": "function"
    },
    {
      "inputs": [
        {
          "internalType": "address",
          "name": "_address",
          "type": "address"
        }
      ],
      "name": "removeFactory",
      "outputs": [],
      "stateMutability": "nonpayable",
      "type": "function"
    },
    {
      "inputs": [
        {
          "internalType": "address",
          "name": "_address",
          "type": "address"
        }
      ],
      "name": "removeFactorySelf",
      "outputs": [],
      "stateMutability": "nonpayable",
      "type": "function"
    },
    {
      "inputs": [
        {
          "internalType": "address",
          "name": "_address",
          "type": "address"
        }
      ],
      "name": "removeRawMaterialSupplier",
      "outputs": [],
      "stateMutability": "nonpayable",
      "type": "function"
    },
    {
      "inputs": [
        {
          "internalType": "address",
          "name": "_address",
          "type": "address"
        }
      ],
      "name": "removeRawMaterialSupplierSelf",
      "outputs": [],
      "stateMutability": "nonpayable",
      "type": "function"
    },
    {
      "inputs": [
        {
          "internalType": "address",
          "name": "_address",
          "type": "address"
        }
      ],
      "name": "removeRetailer",
      "outputs": [],
      "stateMutability": "nonpayable",
      "type": "function"
    },
    {
      "inputs": [
        {
          "internalType": "address",
          "name": "_address",
          "type": "address"
        }
      ],
      "name": "removeRetailerSelf",
      "outputs": [],
      "stateMutability": "nonpayable",
      "type": "function"
    },
    {
      "inputs": [
        {
          "internalType": "address",
          "name": "_address",
          "type": "address"
        }
      ],
      "name": "removeSelfWarehouse",
      "outputs": [],
      "stateMutability": "nonpayable",
      "type": "function"
    },
    {
      "inputs": [
        {
          "internalType": "address",
          "name": "_address",
          "type": "address"
        }
      ],
      "name": "removeWarehouse",
      "outputs": [],
      "stateMutability": "nonpayable",
      "type": "function"
    },
    {
      "inputs": [],
      "name": "renounceOwnership",
      "outputs": [],
      "stateMutability": "nonpayable",
      "type": "function"
    },
    {
      "inputs": [
        {
          "internalType": "uint256",
          "name": "",
          "type": "uint256"
        },
        {
          "internalType": "address",
          "name": "",
          "type": "address"
        }
      ],
      "name": "retailerTimeStamp",
      "outputs": [
        {
          "internalType": "uint256",
          "name": "",
          "type": "uint256"
        }
      ],
      "stateMutability": "view",
      "type": "function"
    },
    {
      "inputs": [
        {
          "internalType": "uint256",
          "name": "",
          "type": "uint256"
        },
        {
          "internalType": "uint256",
          "name": "",
          "type": "uint256"
        }
      ],
      "name": "timeStamps",
      "outputs": [
        {
          "internalType": "uint256",
          "name": "",
          "type": "uint256"
        }
      ],
      "stateMutability": "view",
      "type": "function"
    },
    {
      "inputs": [],
      "name": "totalBatchs",
      "outputs": [
        {
          "internalType": "uint256",
          "name": "",
          "type": "uint256"
        }
      ],
      "stateMutability": "view",
      "type": "function"
    },
    {
      "inputs": [
        {
          "internalType": "address",
          "name": "newOwner",
          "type": "address"
        }
      ],
      "name": "transferOwnership",
      "outputs": [],
      "stateMutability": "nonpayable",
      "type": "function"
    }
  ],
  "bytecode": "0x60806040523480156200001157600080fd5b5060405162006ecb38038062006ecb833981810160405281019062000037919062000946565b620000576200004b6200010560201b60201c565b6200010d60201b60201c565b6200006833620001d160201b60201c565b6200007933620002b760201b60201c565b6200008a336200039d60201b60201c565b6200009b336200048360201b60201c565b620000ac336200056960201b60201c565b620000bd336200064f60201b60201c565b80600760006101000a81548173ffffffffffffffffffffffffffffffffffffffff021916908373ffffffffffffffffffffffffffffffffffffffff1602179055505062000b51565b600033905090565b60008060009054906101000a900473ffffffffffffffffffffffffffffffffffffffff169050816000806101000a81548173ffffffffffffffffffffffffffffffffffffffff021916908373ffffffffffffffffffffffffffffffffffffffff1602179055508173ffffffffffffffffffffffffffffffffffffffff168173ffffffffffffffffffffffffffffffffffffffff167f8be0079c531659141344cd1fd0a4f28419497f9722a3daafe3b4186f6b6457e060405160405180910390a35050565b620001e16200010560201b60201c565b73ffffffffffffffffffffffffffffffffffffffff16620002076200073560201b60201c565b73ffffffffffffffffffffffffffffffffffffffff161462000260576040517f08c379a00000000000000000000000000000000000000000000000000000000081526004016200025790620009d9565b60405180910390fd5b6200027b8160016200075e60201b620048511790919060201c565b7fa3da795b47eb190084f878e63c07509e5f6df63ebc51443c0ccab2fc11c0d88381604051620002ac919062000a0c565b60405180910390a150565b620002c76200010560201b60201c565b73ffffffffffffffffffffffffffffffffffffffff16620002ed6200073560201b60201c565b73ffffffffffffffffffffffffffffffffffffffff161462000346576040517f08c379a00000000000000000000000000000000000000000000000000000000081526004016200033d90620009d9565b60405180910390fd5b620003618160026200075e60201b620048511790919060201c565b7f364ee90eb63717b99192fdb951c7b1aa91a45bca11ac73ab40cfad762631fbce8160405162000392919062000a0c565b60405180910390a150565b620003ad6200010560201b60201c565b73ffffffffffffffffffffffffffffffffffffffff16620003d36200073560201b60201c565b73ffffffffffffffffffffffffffffffffffffffff16146200042c576040517f08c379a00000000000000000000000000000000000000000000000000000000081526004016200042390620009d9565b60405180910390fd5b620004478160036200075e60201b620048511790919060201c565b7f5a8fb443d09cf1426e80f80dd509757d71d4687674ab4adad906c5e2b6e1e62c8160405162000478919062000a0c565b60405180910390a150565b620004936200010560201b60201c565b73ffffffffffffffffffffffffffffffffffffffff16620004b96200073560201b60201c565b73ffffffffffffffffffffffffffffffffffffffff161462000512576040517f08c379a00000000000000000000000000000000000000000000000000000000081526004016200050990620009d9565b60405180910390fd5b6200052d8160046200075e60201b620048511790919060201c565b7f3afd547f7eb357741de51229846ae795cb06449e4b4032eb34a7cc0a751e25c1816040516200055e919062000a0c565b60405180910390a150565b620005796200010560201b60201c565b73ffffffffffffffffffffffffffffffffffffffff166200059f6200073560201b60201c565b73ffffffffffffffffffffffffffffffffffffffff1614620005f8576040517f08c379a0000000000000000000000000000000000000000000000000000000008152600401620005ef90620009d9565b60405180910390fd5b620006138160056200075e60201b620048511790919060201c565b7f0eea60f9e1851b51feed56c339be177ea715591923622a0effe46dbb8885efa68160405162000644919062000a0c565b60405180910390a150565b6200065f6200010560201b60201c565b73ffffffffffffffffffffffffffffffffffffffff16620006856200073560201b60201c565b73ffffffffffffffffffffffffffffffffffffffff1614620006de576040517f08c379a0000000000000000000000000000000000000000000000000000000008152600401620006d590620009d9565b60405180910390fd5b620006f98160066200075e60201b620048511790919060201c565b7f23b2415a50efd127e694ba174e400d457ad65c58752e171b6d17f3f5daa26fdb816040516200072a919062000a0c565b60405180910390a150565b60008060009054906101000a900473ffffffffffffffffffffffffffffffffffffffff16905090565b6200077082826200081c60201b60201c565b15620007b3576040517f08c379a0000000000000000000000000000000000000000000000000000000008152600401620007aa9062000a79565b60405180910390fd5b81600001819080600181540180825580915050600190039060005260206000200160009091909190916101000a81548173ffffffffffffffffffffffffffffffffffffffff021916908373ffffffffffffffffffffffffffffffffffffffff1602179055505050565b6000808360000180549050905060005b81811015620008cf578373ffffffffffffffffffffffffffffffffffffffff1685600001828154811062000865576200086462000a9b565b5b9060005260206000200160009054906101000a900473ffffffffffffffffffffffffffffffffffffffff1673ffffffffffffffffffffffffffffffffffffffff161415620008b957600192505050620008d6565b8080620008c69062000b03565b9150506200082c565b5060009150505b92915050565b600080fd5b600073ffffffffffffffffffffffffffffffffffffffff82169050919050565b60006200090e82620008e1565b9050919050565b620009208162000901565b81146200092c57600080fd5b50565b600081519050620009408162000915565b92915050565b6000602082840312156200095f576200095e620008dc565b5b60006200096f848285016200092f565b91505092915050565b600082825260208201905092915050565b7f4f776e61626c653a2063616c6c6572206973206e6f7420746865206f776e6572600082015250565b6000620009c160208362000978565b9150620009ce8262000989565b602082019050919050565b60006020820190508181036000830152620009f481620009b2565b9050919050565b62000a068162000901565b82525050565b600060208201905062000a236000830184620009fb565b92915050565b7f524f4c455f414c52454144595f45584953545300000000000000000000000000600082015250565b600062000a6160138362000978565b915062000a6e8262000a29565b602082019050919050565b6000602082019050818103600083015262000a948162000a52565b9050919050565b7f4e487b7100000000000000000000000000000000000000000000000000000000600052603260045260246000fd5b7f4e487b7100000000000000000000000000000000000000000000000000000000600052601160045260246000fd5b6000819050919050565b600062000b108262000af9565b91507fffffffffffffffffffffffffffffffffffffffffffffffffffffffffffffffff82141562000b465762000b4562000aca565b5b600182019050919050565b61636a8062000b616000396000f3fe608060405234801561001057600080fd5b50600436106102f15760003560e01c806380bedacf1161019d578063bca4bd50116100e9578063e6647c5c116100a2578063eeb341331161007c578063eeb341331461095f578063f2fde38b1461097d578063f80d1ff014610999578063faf31e08146109b7576102f1565b8063e6647c5c146108e3578063e70a962b14610913578063e7d0831d14610943576102f1565b8063bca4bd50146107e0578063bdacda3114610810578063bfb231d21461082e578063bfed485614610867578063dafe1ef714610897578063e3c1a531146108c7576102f1565b80638da5cb5b116101565780638ec4f505116101305780638ec4f5051461075c5780638f0c86fa14610778578063a198d496146107a8578063ad973d74146107c4576102f1565b80638da5cb5b146106f25780638df378ff146107105780638eb06ccf14610740576102f1565b806380bedacf14610648578063814f696e146106645780638448051014610680578063862a68e31461069c5780638853ad75146106b857806388cc58e4146106d4576102f1565b80634c5eee0a1161025c5780635bf2791211610215578063678c12a2116101ef578063678c12a2146105ea57806370099ec814610606578063715018a6146106225780637250e2241461062c576102f1565b80635bf27912146105805780635da09b881461059c578063650d993b146105cc576102f1565b80634c5eee0a146104ac5780634d2ec64c146104c85780635166b5c8146104fa57806357c1f9e2146105165780635884965f146105325780635a96838314610550576102f1565b806328fd5e83116102ae57806328fd5e83146103dc57806329ce1ec51461040c5780632a7ec29f14610428578063319af857146104445780633c0e25a4146104745780634b37c73f14610490576102f1565b80630f04ba67146102f65780631af5dcf214610326578063201ef8f21461034257806320519bb01461035e578063209d353e1461038e5780632885b943146103be575b600080fd5b610310600480360381019061030b9190614dfc565b6109e7565b60405161031d9190614e44565b60405180910390f35b610340600480360381019061033b91906150b1565b610a04565b005b61035c600480360381019061035791906151f1565b610f74565b005b61037860048036038101906103739190615290565b611570565b604051610385919061537b565b60405180910390f35b6103a860048036038101906103a39190615290565b6115db565b6040516103b5919061545b565b60405180910390f35b6103c661167c565b6040516103d3919061545b565b60405180910390f35b6103f660048036038101906103f19190614dfc565b61168d565b6040516104039190614e44565b60405180910390f35b61042660048036038101906104219190614dfc565b6116aa565b005b610442600480360381019061043d9190614dfc565b611774565b005b61045e60048036038101906104599190615290565b611830565b60405161046b919061537b565b60405180910390f35b61048e60048036038101906104899190614dfc565b61189b565b005b6104aa60048036038101906104a59190614dfc565b611965565b005b6104c660048036038101906104c1919061547d565b611a2f565b005b6104e260048036038101906104dd9190615290565b612010565b6040516104f193929190615583565b60405180910390f35b610514600480360381019061050f9190614dfc565b61214a565b005b610530600480360381019061052b9190614dfc565b612214565b005b61053a6122de565b604051610547919061545b565b60405180910390f35b61056a60048036038101906105659190615290565b6122ef565b604051610577919061537b565b60405180910390f35b61059a60048036038101906105959190614dfc565b61235a565b005b6105b660048036038101906105b19190614dfc565b612416565b6040516105c39190614e44565b60405180910390f35b6105d4612433565b6040516105e1919061545b565b60405180910390f35b61060460048036038101906105ff91906150b1565b612444565b005b610620600480360381019061061b9190614dfc565b612d3d565b005b61062a612e07565b005b61064660048036038101906106419190614dfc565b612e8f565b005b610662600480360381019061065d9190614dfc565b612f59565b005b61067e60048036038101906106799190614dfc565b613015565b005b61069a60048036038101906106959190614dfc565b6130df565b005b6106b660048036038101906106b191906155c8565b61319b565b005b6106d260048036038101906106cd9190614dfc565b613922565b005b6106dc6139de565b6040516106e9919061545b565b60405180910390f35b6106fa6139ef565b6040516107079190615652565b60405180910390f35b61072a6004803603810190610725919061566d565b613a18565b60405161073791906156ad565b60405180910390f35b61075a60048036038101906107559190614dfc565b613a3d565b005b61077660048036038101906107719190614dfc565b613b07565b005b610792600480360381019061078d9190614dfc565b613bd1565b60405161079f9190614e44565b60405180910390f35b6107c260048036038101906107bd91906156c8565b613bee565b005b6107de60048036038101906107d99190614dfc565b613f76565b005b6107fa60048036038101906107f59190614dfc565b614040565b6040516108079190614e44565b60405180910390f35b61081861405d565b604051610825919061545b565b60405180910390f35b61084860048036038101906108439190615290565b61406e565b60405161085e9a99989796959493929190615792565b60405180910390f35b610881600480360381019061087c9190614dfc565b6141b7565b60405161088e9190615a2a565b60405180910390f35b6108b160048036038101906108ac9190615290565b614457565b6040516108be919061545b565b60405180910390f35b6108e160048036038101906108dc9190614dfc565b6144f8565b005b6108fd60048036038101906108f89190615a4c565b6145c2565b60405161090a91906156ad565b60405180910390f35b61092d60048036038101906109289190615290565b6145f3565b60405161093a919061537b565b60405180910390f35b61095d60048036038101906109589190614dfc565b61465e565b005b61096761471a565b60405161097491906156ad565b60405180910390f35b61099760048036038101906109929190614dfc565b61472b565b005b6109a1614823565b6040516109ae919061545b565b60405180910390f35b6109d160048036038101906109cc9190614dfc565b614834565b6040516109de9190614e44565b60405180910390f35b60006109fd82600361490490919063ffffffff16565b9050919050565b610a0d33613bd1565b610a1657600080fd5b6000806000610a2486614457565b905060005b8151811015610bed57600073ffffffffffffffffffffffffffffffffffffffff16828281518110610a5d57610a5c615a8c565b5b602002602001015173ffffffffffffffffffffffffffffffffffffffff1614158015610ace57503373ffffffffffffffffffffffffffffffffffffffff16828281518110610aae57610aad615a8c565b5b602002602001015173ffffffffffffffffffffffffffffffffffffffff16145b15610bda57610adc876145f3565b8181518110610aee57610aed615a8c565b5b60200260200101519350610b01876122ef565b8181518110610b1357610b12615a8c565b5b60200260200101519250600d60008881526020019081526020016000208181548110610b4257610b41615a8c565b5b9060005260206000200160006101000a81549073ffffffffffffffffffffffffffffffffffffffff0219169055600e60008881526020019081526020016000208181548110610b9457610b93615a8c565b5b9060005260206000200160009055600f60008881526020019081526020016000208181548110610bc757610bc6615a8c565b5b9060005260206000200160009055610bed565b8080610be590615aea565b915050610a29565b5060008311610c31576040517f08c379a0000000000000000000000000000000000000000000000000000000008152600401610c2890615b7f565b60405180910390fd5b600082905060005b8651811015610f3357610c65878281518110610c5857610c57615a8c565b5b6020026020010151612416565b610ca4576040517f08c379a0000000000000000000000000000000000000000000000000000000008152600401610c9b90615c11565b60405180910390fd5b60106000898152602001908152602001600020878281518110610cca57610cc9615a8c565b5b60200260200101519080600181540180825580915050600190039060005260206000200160009091909190916101000a81548173ffffffffffffffffffffffffffffffffffffffff021916908373ffffffffffffffffffffffffffffffffffffffff16021790555060116000898152602001908152602001600020868281518110610d5857610d57615a8c565b5b6020026020010151908060018154018082558091505060019003906000526020600020016000909190919091505560126000898152602001908152602001600020829080600181540180825580915050600190039060005260206000200160009091909190915055600760009054906101000a900473ffffffffffffffffffffffffffffffffffffffff1673ffffffffffffffffffffffffffffffffffffffff1663e51a27ce33898481518110610e1257610e11615a8c565b5b60200260200101518b8a8681518110610e2e57610e2d615a8c565b5b6020026020010151876040518663ffffffff1660e01b8152600401610e57959493929190615c8e565b600060405180830381600087803b158015610e7157600080fd5b505af1158015610e85573d6000803e3d6000fd5b50505050858181518110610e9c57610e9b615a8c565b5b602002602001015182610eaf9190615cf4565b915042601360008a81526020019081526020016000206000898481518110610eda57610ed9615a8c565b5b602002602001015173ffffffffffffffffffffffffffffffffffffffff1673ffffffffffffffffffffffffffffffffffffffff168152602001908152602001600020819055508080610f2b90615aea565b915050610c39565b507fb9f01075be5d71ca908e0aae338e241c77af5da8fbd7d476d37de1c8634dc0e287604051610f6391906156ad565b60405180910390a150505050505050565b610f7d336109e7565b610f8657600080fd5b6000600b600086815260200190815260200160002060405180610140016040529081600082015481526020016001820160009054906101000a900460ff166006811115610fd657610fd561571b565b5b6006811115610fe857610fe761571b565b5b81526020016002820154815260200160038201548152602001600482015481526020016005820154815260200160068201805461102490615d79565b80601f016020809104026020016040519081016040528092919081815260200182805461105090615d79565b801561109d5780601f106110725761010080835404028352916020019161109d565b820191906000526020600020905b81548152906001019060200180831161108057829003601f168201915b505050505081526020016007820160009054906101000a900473ffffffffffffffffffffffffffffffffffffffff1673ffffffffffffffffffffffffffffffffffffffff1673ffffffffffffffffffffffffffffffffffffffff1681526020016008820160009054906101000a900473ffffffffffffffffffffffffffffffffffffffff1673ffffffffffffffffffffffffffffffffffffffff1673ffffffffffffffffffffffffffffffffffffffff1681526020016009820160009054906101000a900473ffffffffffffffffffffffffffffffffffffffff1673ffffffffffffffffffffffffffffffffffffffff1673ffffffffffffffffffffffffffffffffffffffff16815250509050836009600087815260200190815260200160002060000181905550826009600087815260200190815260200160002060010190805190602001906111ef929190614ce7565b508160096000878152602001908152602001600020600201908051906020019061121a929190614ce7565b506002816020019060068111156112345761123361571b565b5b908160068111156112485761124761571b565b5b8152505080600b60008781526020019081526020016000206000820151816000015560208201518160010160006101000a81548160ff021916908360068111156112955761129461571b565b5b021790555060408201518160020155606082015181600301556080820151816004015560a0820151816005015560c08201518160060190805190602001906112de929190614ce7565b5060e08201518160070160006101000a81548173ffffffffffffffffffffffffffffffffffffffff021916908373ffffffffffffffffffffffffffffffffffffffff1602179055506101008201518160080160006101000a81548173ffffffffffffffffffffffffffffffffffffffff021916908373ffffffffffffffffffffffffffffffffffffffff1602179055506101208201518160090160006101000a81548173ffffffffffffffffffffffffffffffffffffffff021916908373ffffffffffffffffffffffffffffffffffffffff1602179055509050506000600c600083610100015173ffffffffffffffffffffffffffffffffffffffff1673ffffffffffffffffffffffffffffffffffffffff168152602001908152602001600020805490509050600081111561152e5760005b8181101561152c5786600c600085610100015173ffffffffffffffffffffffffffffffffffffffff1673ffffffffffffffffffffffffffffffffffffffff16815260200190815260200160002082815481106114705761146f615a8c565b5b90600052602060002090600a0201600001541415611519576002600c600085610100015173ffffffffffffffffffffffffffffffffffffffff1673ffffffffffffffffffffffffffffffffffffffff16815260200190815260200160002082815481106114e0576114df615a8c565b5b90600052602060002090600a020160010160006101000a81548160ff021916908360068111156115135761151261571b565b5b02179055505b808061152490615aea565b915050611411565b505b600a6000878152602001908152602001600020429080600181540180825580915050600190039060005260206000200160009091909190915055505050505050565b6060601260008381526020019081526020016000208054806020026020016040519081016040528092919081815260200182805480156115cf57602002820191906000526020600020905b8154815260200190600101908083116115bb575b50505050509050919050565b60606010600083815260200190815260200160002080548060200260200160405190810160405280929190818152602001828054801561167057602002820191906000526020600020905b8160009054906101000a900473ffffffffffffffffffffffffffffffffffffffff1673ffffffffffffffffffffffffffffffffffffffff1681526020019060010190808311611626575b50505050509050919050565b606061168860026149bb565b905090565b60006116a382600661490490919063ffffffff16565b9050919050565b6116b2614a4d565b73ffffffffffffffffffffffffffffffffffffffff166116d06139ef565b73ffffffffffffffffffffffffffffffffffffffff1614611726576040517f08c379a000000000000000000000000000000000000000000000000000000000815260040161171d90615df7565b60405180910390fd5b61173a81600361485190919063ffffffff16565b7f5a8fb443d09cf1426e80f80dd509757d71d4687674ab4adad906c5e2b6e1e62c816040516117699190615652565b60405180910390a150565b8073ffffffffffffffffffffffffffffffffffffffff163373ffffffffffffffffffffffffffffffffffffffff16146117e2576040517f08c379a00000000000000000000000000000000000000000000000000000000081526004016117d990615e63565b60405180910390fd5b6117f6816006614a5590919063ffffffff16565b7f4709990004724f283154297c090b8420d74dcbf9ffcd6bc50294e7350c7cb4fc816040516118259190615652565b60405180910390a150565b60606011600083815260200190815260200160002080548060200260200160405190810160405280929190818152602001828054801561188f57602002820191906000526020600020905b81548152602001906001019080831161187b575b50505050509050919050565b6118a3614a4d565b73ffffffffffffffffffffffffffffffffffffffff166118c16139ef565b73ffffffffffffffffffffffffffffffffffffffff1614611917576040517f08c379a000000000000000000000000000000000000000000000000000000000815260040161190e90615df7565b60405180910390fd5b61192b81600161485190919063ffffffff16565b7fa3da795b47eb190084f878e63c07509e5f6df63ebc51443c0ccab2fc11c0d8838160405161195a9190615652565b60405180910390a150565b61196d614a4d565b73ffffffffffffffffffffffffffffffffffffffff1661198b6139ef565b73ffffffffffffffffffffffffffffffffffffffff16146119e1576040517f08c379a00000000000000000000000000000000000000000000000000000000081526004016119d890615df7565b60405180910390fd5b6119f5816003614a5590919063ffffffff16565b7f3d4e7057f9f992c8d86344002642adf5d5cd33816b302134e7ef5e0f045a6e7881604051611a249190615652565b60405180910390a150565b611a38336109e7565b611a4157600080fd5b6001821015611a85576040517f08c379a0000000000000000000000000000000000000000000000000000000008152600401611a7c90615ecf565b60405180910390fd5b6000600b600085815260200190815260200160002060405180610140016040529081600082015481526020016001820160009054906101000a900460ff166006811115611ad557611ad461571b565b5b6006811115611ae757611ae661571b565b5b815260200160028201548152602001600382015481526020016004820154815260200160058201548152602001600682018054611b2390615d79565b80601f0160208091040260200160405190810160405280929190818152602001828054611b4f90615d79565b8015611b9c5780601f10611b7157610100808354040283529160200191611b9c565b820191906000526020600020905b815481529060010190602001808311611b7f57829003601f168201915b505050505081526020016007820160009054906101000a900473ffffffffffffffffffffffffffffffffffffffff1673ffffffffffffffffffffffffffffffffffffffff1673ffffffffffffffffffffffffffffffffffffffff1681526020016008820160009054906101000a900473ffffffffffffffffffffffffffffffffffffffff1673ffffffffffffffffffffffffffffffffffffffff1673ffffffffffffffffffffffffffffffffffffffff1681526020016009820160009054906101000a900473ffffffffffffffffffffffffffffffffffffffff1673ffffffffffffffffffffffffffffffffffffffff1673ffffffffffffffffffffffffffffffffffffffff16815250509050828160a0018181525050818160c00181905250600381602001906006811115611cd557611cd461571b565b5b90816006811115611ce957611ce861571b565b5b8152505080600b60008681526020019081526020016000206000820151816000015560208201518160010160006101000a81548160ff02191690836006811115611d3657611d3561571b565b5b021790555060408201518160020155606082015181600301556080820151816004015560a0820151816005015560c0820151816006019080519060200190611d7f929190614ce7565b5060e08201518160070160006101000a81548173ffffffffffffffffffffffffffffffffffffffff021916908373ffffffffffffffffffffffffffffffffffffffff1602179055506101008201518160080160006101000a81548173ffffffffffffffffffffffffffffffffffffffff021916908373ffffffffffffffffffffffffffffffffffffffff1602179055506101208201518160090160006101000a81548173ffffffffffffffffffffffffffffffffffffffff021916908373ffffffffffffffffffffffffffffffffffffffff1602179055509050506000600c600083610100015173ffffffffffffffffffffffffffffffffffffffff1673ffffffffffffffffffffffffffffffffffffffff1681526020019081526020016000208054905090506000811115611fcf5760005b81811015611fcd5785600c600085610100015173ffffffffffffffffffffffffffffffffffffffff1673ffffffffffffffffffffffffffffffffffffffff1681526020019081526020016000208281548110611f1157611f10615a8c565b5b90600052602060002090600a0201600001541415611fba576003600c600085610100015173ffffffffffffffffffffffffffffffffffffffff1673ffffffffffffffffffffffffffffffffffffffff1681526020019081526020016000208281548110611f8157611f80615a8c565b5b90600052602060002090600a020160010160006101000a81548160ff02191690836006811115611fb457611fb361571b565b5b02179055505b8080611fc590615aea565b915050611eb2565b505b600a60008681526020019081526020016000204290806001815401808255809150506001900390600052602060002001600090919091909150555050505050565b600960205280600052604060002060009150905080600001549080600101805461203990615d79565b80601f016020809104026020016040519081016040528092919081815260200182805461206590615d79565b80156120b25780601f10612087576101008083540402835291602001916120b2565b820191906000526020600020905b81548152906001019060200180831161209557829003601f168201915b5050505050908060020180546120c790615d79565b80601f01602080910402602001604051908101604052809291908181526020018280546120f390615d79565b80156121405780601f1061211557610100808354040283529160200191612140565b820191906000526020600020905b81548152906001019060200180831161212357829003601f168201915b5050505050905083565b612152614a4d565b73ffffffffffffffffffffffffffffffffffffffff166121706139ef565b73ffffffffffffffffffffffffffffffffffffffff16146121c6576040517f08c379a00000000000000000000000000000000000000000000000000000000081526004016121bd90615df7565b60405180910390fd5b6121da816001614a5590919063ffffffff16565b7fccc03dfae55d568292686488ccd27bcdc249a89347bf1c13a2115a29062618b7816040516122099190615652565b60405180910390a150565b61221c614a4d565b73ffffffffffffffffffffffffffffffffffffffff1661223a6139ef565b73ffffffffffffffffffffffffffffffffffffffff1614612290576040517f08c379a000000000000000000000000000000000000000000000000000000000815260040161228790615df7565b60405180910390fd5b6122a4816004614a5590919063ffffffff16565b7f43dd2f8ce4e5873e618ffabcae9856729ea5811dbc5e1c9be4365fcf7b7cf703816040516122d39190615652565b60405180910390a150565b60606122ea60046149bb565b905090565b6060600f600083815260200190815260200160002080548060200260200160405190810160405280929190818152602001828054801561234e57602002820191906000526020600020905b81548152602001906001019080831161233a575b50505050509050919050565b8073ffffffffffffffffffffffffffffffffffffffff163373ffffffffffffffffffffffffffffffffffffffff16146123c8576040517f08c379a00000000000000000000000000000000000000000000000000000000081526004016123bf90615e63565b60405180910390fd5b6123dc816004614a5590919063ffffffff16565b7f43dd2f8ce4e5873e618ffabcae9856729ea5811dbc5e1c9be4365fcf7b7cf7038160405161240b9190615652565b60405180910390a150565b600061242c82600561490490919063ffffffff16565b9050919050565b606061243f60066149bb565b905090565b61244d336109e7565b61245657600080fd5b6000600b600085815260200190815260200160002060405180610140016040529081600082015481526020016001820160009054906101000a900460ff1660068111156124a6576124a561571b565b5b60068111156124b8576124b761571b565b5b8152602001600282015481526020016003820154815260200160048201548152602001600582015481526020016006820180546124f490615d79565b80601f016020809104026020016040519081016040528092919081815260200182805461252090615d79565b801561256d5780601f106125425761010080835404028352916020019161256d565b820191906000526020600020905b81548152906001019060200180831161255057829003601f168201915b505050505081526020016007820160009054906101000a900473ffffffffffffffffffffffffffffffffffffffff1673ffffffffffffffffffffffffffffffffffffffff1673ffffffffffffffffffffffffffffffffffffffff1681526020016008820160009054906101000a900473ffffffffffffffffffffffffffffffffffffffff1673ffffffffffffffffffffffffffffffffffffffff1673ffffffffffffffffffffffffffffffffffffffff1681526020016009820160009054906101000a900473ffffffffffffffffffffffffffffffffffffffff1673ffffffffffffffffffffffffffffffffffffffff1673ffffffffffffffffffffffffffffffffffffffff168152505090506004816020019060068111156126935761269261571b565b5b908160068111156126a7576126a661571b565b5b8152505060008160a001519050600760009054906101000a900473ffffffffffffffffffffffffffffffffffffffff1673ffffffffffffffffffffffffffffffffffffffff1663156e29f633876001856127019190615eef565b6040518463ffffffff1660e01b815260040161271f93929190615f23565b600060405180830381600087803b15801561273957600080fd5b505af115801561274d573d6000803e3d6000fd5b505050506000805b85518110156129e05761278186828151811061277457612773615a8c565b5b6020026020010151613bd1565b6127c0576040517f08c379a00000000000000000000000000000000000000000000000000000000081526004016127b790615fcc565b60405180910390fd5b600d60008881526020019081526020016000208682815181106127e6576127e5615a8c565b5b60200260200101519080600181540180825580915050600190039060005260206000200160009091909190916101000a81548173ffffffffffffffffffffffffffffffffffffffff021916908373ffffffffffffffffffffffffffffffffffffffff160217905550600e600088815260200190815260200160002085828151811061287457612873615a8c565b5b60200260200101519080600181540180825580915050600190039060005260206000200160009091909190915055600f6000888152602001908152602001600020829080600181540180825580915050600190039060005260206000200160009091909190915055600760009054906101000a900473ffffffffffffffffffffffffffffffffffffffff1673ffffffffffffffffffffffffffffffffffffffff1663e51a27ce3388848151811061292e5761292d615a8c565b5b60200260200101518a89868151811061294a57612949615a8c565b5b6020026020010151876040518663ffffffff1660e01b8152600401612973959493929190615c8e565b600060405180830381600087803b15801561298d57600080fd5b505af11580156129a1573d6000803e3d6000fd5b505050508481815181106129b8576129b7615a8c565b5b6020026020010151826129cb9190615cf4565b915080806129d890615aea565b915050612755565b5082600b60008881526020019081526020016000206000820151816000015560208201518160010160006101000a81548160ff02191690836006811115612a2a57612a2961571b565b5b021790555060408201518160020155606082015181600301556080820151816004015560a0820151816005015560c0820151816006019080519060200190612a73929190614ce7565b5060e08201518160070160006101000a81548173ffffffffffffffffffffffffffffffffffffffff021916908373ffffffffffffffffffffffffffffffffffffffff1602179055506101008201518160080160006101000a81548173ffffffffffffffffffffffffffffffffffffffff021916908373ffffffffffffffffffffffffffffffffffffffff1602179055506101208201518160090160006101000a81548173ffffffffffffffffffffffffffffffffffffffff021916908373ffffffffffffffffffffffffffffffffffffffff1602179055509050506000600c600085610100015173ffffffffffffffffffffffffffffffffffffffff1673ffffffffffffffffffffffffffffffffffffffff1681526020019081526020016000208054905090506000811115612cc35760005b81811015612cc15787600c600087610100015173ffffffffffffffffffffffffffffffffffffffff1673ffffffffffffffffffffffffffffffffffffffff1681526020019081526020016000208281548110612c0557612c04615a8c565b5b90600052602060002090600a0201600001541415612cae576004600c600087610100015173ffffffffffffffffffffffffffffffffffffffff1673ffffffffffffffffffffffffffffffffffffffff1681526020019081526020016000208281548110612c7557612c74615a8c565b5b90600052602060002090600a020160010160006101000a81548160ff02191690836006811115612ca857612ca761571b565b5b02179055505b8080612cb990615aea565b915050612ba6565b505b600a60008881526020019081526020016000204290806001815401808255809150506001900390600052602060002001600090919091909150557f01e7f4af78fe812a5df0e0b3c5b400eff1cd1366eca03a2261de317ae5f6727b87604051612d2c91906156ad565b60405180910390a150505050505050565b612d45614a4d565b73ffffffffffffffffffffffffffffffffffffffff16612d636139ef565b73ffffffffffffffffffffffffffffffffffffffff1614612db9576040517f08c379a0000000000000000000000000000000000000000000000000000000008152600401612db090615df7565b60405180910390fd5b612dcd816005614a5590919063ffffffff16565b7f200c3f073f217cf07dee57ee6e42c29e5fa6937f536b65c9d1e06be1f9c83dc181604051612dfc9190615652565b60405180910390a150565b612e0f614a4d565b73ffffffffffffffffffffffffffffffffffffffff16612e2d6139ef565b73ffffffffffffffffffffffffffffffffffffffff1614612e83576040517f08c379a0000000000000000000000000000000000000000000000000000000008152600401612e7a90615df7565b60405180910390fd5b612e8d6000614bff565b565b612e97614a4d565b73ffffffffffffffffffffffffffffffffffffffff16612eb56139ef565b73ffffffffffffffffffffffffffffffffffffffff1614612f0b576040517f08c379a0000000000000000000000000000000000000000000000000000000008152600401612f0290615df7565b60405180910390fd5b612f1f81600461485190919063ffffffff16565b7f3afd547f7eb357741de51229846ae795cb06449e4b4032eb34a7cc0a751e25c181604051612f4e9190615652565b60405180910390a150565b8073ffffffffffffffffffffffffffffffffffffffff163373ffffffffffffffffffffffffffffffffffffffff1614612fc7576040517f08c379a0000000000000000000000000000000000000000000000000000000008152600401612fbe90615e63565b60405180910390fd5b612fdb816001614a5590919063ffffffff16565b7fccc03dfae55d568292686488ccd27bcdc249a89347bf1c13a2115a29062618b78160405161300a9190615652565b60405180910390a150565b61301d614a4d565b73ffffffffffffffffffffffffffffffffffffffff1661303b6139ef565b73ffffffffffffffffffffffffffffffffffffffff1614613091576040517f08c379a000000000000000000000000000000000000000000000000000000000815260040161308890615df7565b60405180910390fd5b6130a581600261485190919063ffffffff16565b7f364ee90eb63717b99192fdb951c7b1aa91a45bca11ac73ab40cfad762631fbce816040516130d49190615652565b60405180910390a150565b8073ffffffffffffffffffffffffffffffffffffffff163373ffffffffffffffffffffffffffffffffffffffff161461314d576040517f08c379a000000000000000000000000000000000000000000000000000000000815260040161314490615e63565b60405180910390fd5b613161816003614a5590919063ffffffff16565b7f3d4e7057f9f992c8d86344002642adf5d5cd33816b302134e7ef5e0f045a6e78816040516131909190615652565b60405180910390a150565b6131a4336109e7565b6131ad57600080fd5b6131b684614040565b6131f5576040517f08c379a00000000000000000000000000000000000000000000000000000000081526004016131ec9061605e565b60405180910390fd5b6000600b600087815260200190815260200160002060405180610140016040529081600082015481526020016001820160009054906101000a900460ff1660068111156132455761324461571b565b5b60068111156132575761325661571b565b5b81526020016002820154815260200160038201548152602001600482015481526020016005820154815260200160068201805461329390615d79565b80601f01602080910402602001604051908101604052809291908181526020018280546132bf90615d79565b801561330c5780601f106132e15761010080835404028352916020019161330c565b820191906000526020600020905b8154815290600101906020018083116132ef57829003601f168201915b505050505081526020016007820160009054906101000a900473ffffffffffffffffffffffffffffffffffffffff1673ffffffffffffffffffffffffffffffffffffffff1673ffffffffffffffffffffffffffffffffffffffff1681526020016008820160009054906101000a900473ffffffffffffffffffffffffffffffffffffffff1673ffffffffffffffffffffffffffffffffffffffff1673ffffffffffffffffffffffffffffffffffffffff1681526020016009820160009054906101000a900473ffffffffffffffffffffffffffffffffffffffff1673ffffffffffffffffffffffffffffffffffffffff1673ffffffffffffffffffffffffffffffffffffffff1681525050905060008160e0015190503382610120019073ffffffffffffffffffffffffffffffffffffffff16908173ffffffffffffffffffffffffffffffffffffffff16815250508582610100019073ffffffffffffffffffffffffffffffffffffffff16908173ffffffffffffffffffffffffffffffffffffffff16815250508482604001818152505083826060018181525050828260800181815250506001826020019060068111156134cb576134ca61571b565b5b908160068111156134df576134de61571b565b5b8152505081600b60008981526020019081526020016000206000820151816000015560208201518160010160006101000a81548160ff0219169083600681111561352c5761352b61571b565b5b021790555060408201518160020155606082015181600301556080820151816004015560a0820151816005015560c0820151816006019080519060200190613575929190614ce7565b5060e08201518160070160006101000a81548173ffffffffffffffffffffffffffffffffffffffff021916908373ffffffffffffffffffffffffffffffffffffffff1602179055506101008201518160080160006101000a81548173ffffffffffffffffffffffffffffffffffffffff021916908373ffffffffffffffffffffffffffffffffffffffff1602179055506101208201518160090160006101000a81548173ffffffffffffffffffffffffffffffffffffffff021916908373ffffffffffffffffffffffffffffffffffffffff160217905550905050600c60008773ffffffffffffffffffffffffffffffffffffffff1673ffffffffffffffffffffffffffffffffffffffff1681526020019081526020016000208290806001815401808255809150506001900390600052602060002090600a02016000909190919091506000820151816000015560208201518160010160006101000a81548160ff021916908360068111156136ee576136ed61571b565b5b021790555060408201518160020155606082015181600301556080820151816004015560a0820151816005015560c0820151816006019080519060200190613737929190614ce7565b5060e08201518160070160006101000a81548173ffffffffffffffffffffffffffffffffffffffff021916908373ffffffffffffffffffffffffffffffffffffffff1602179055506101008201518160080160006101000a81548173ffffffffffffffffffffffffffffffffffffffff021916908373ffffffffffffffffffffffffffffffffffffffff1602179055506101208201518160090160006101000a81548173ffffffffffffffffffffffffffffffffffffffff021916908373ffffffffffffffffffffffffffffffffffffffff1602179055505050600760009054906101000a900473ffffffffffffffffffffffffffffffffffffffff1673ffffffffffffffffffffffffffffffffffffffff1663e51a27ce82338a600160006040518663ffffffff1660e01b81526004016138769594939291906160fe565b600060405180830381600087803b15801561389057600080fd5b505af11580156138a4573d6000803e3d6000fd5b50505050600a60008881526020019081526020016000204290806001815401808255809150506001900390600052602060002001600090919091909150557f84fad793fc72a4890032a0a48ea25fb57401690403f128ee2aaf047af876291c8760405161391191906156ad565b60405180910390a150505050505050565b8073ffffffffffffffffffffffffffffffffffffffff163373ffffffffffffffffffffffffffffffffffffffff1614613990576040517f08c379a000000000000000000000000000000000000000000000000000000000815260040161398790615e63565b60405180910390fd5b6139a4816002614a5590919063ffffffff16565b7f9cfe362d8a536c3b63d391e311186b7f259fdd498eecf5d32626fe9b95058a7d816040516139d39190615652565b60405180910390a150565b60606139ea60036149bb565b905090565b60008060009054906101000a900473ffffffffffffffffffffffffffffffffffffffff16905090565b6013602052816000526040600020602052806000526040600020600091509150505481565b613a45614a4d565b73ffffffffffffffffffffffffffffffffffffffff16613a636139ef565b73ffffffffffffffffffffffffffffffffffffffff1614613ab9576040517f08c379a0000000000000000000000000000000000000000000000000000000008152600401613ab090615df7565b60405180910390fd5b613acd816006614a5590919063ffffffff16565b7f4709990004724f283154297c090b8420d74dcbf9ffcd6bc50294e7350c7cb4fc81604051613afc9190615652565b60405180910390a150565b613b0f614a4d565b73ffffffffffffffffffffffffffffffffffffffff16613b2d6139ef565b73ffffffffffffffffffffffffffffffffffffffff1614613b83576040517f08c379a0000000000000000000000000000000000000000000000000000000008152600401613b7a90615df7565b60405180910390fd5b613b9781600561485190919063ffffffff16565b7f0eea60f9e1851b51feed56c339be177ea715591923622a0effe46dbb8885efa681604051613bc69190615652565b60405180910390a150565b6000613be782600461490490919063ffffffff16565b9050919050565b613bf733614834565b613c36576040517f08c379a0000000000000000000000000000000000000000000000000000000008152600401613c2d906161b0565b60405180910390fd5b6000613c426008614cc3565b9050600060405180610140016040528083815260200160006006811115613c6c57613c6b61571b565b5b8152602001868152602001858152602001848152602001600081526020016040518060200160405280600081525081526020013373ffffffffffffffffffffffffffffffffffffffff168152602001600073ffffffffffffffffffffffffffffffffffffffff168152602001600073ffffffffffffffffffffffffffffffffffffffff16815250905080600b60008481526020019081526020016000206000820151816000015560208201518160010160006101000a81548160ff02191690836006811115613d3e57613d3d61571b565b5b021790555060408201518160020155606082015181600301556080820151816004015560a0820151816005015560c0820151816006019080519060200190613d87929190614ce7565b5060e08201518160070160006101000a81548173ffffffffffffffffffffffffffffffffffffffff021916908373ffffffffffffffffffffffffffffffffffffffff1602179055506101008201518160080160006101000a81548173ffffffffffffffffffffffffffffffffffffffff021916908373ffffffffffffffffffffffffffffffffffffffff1602179055506101208201518160090160006101000a81548173ffffffffffffffffffffffffffffffffffffffff021916908373ffffffffffffffffffffffffffffffffffffffff160217905550905050600760009054906101000a900473ffffffffffffffffffffffffffffffffffffffff1673ffffffffffffffffffffffffffffffffffffffff1663156e29f6338460016040518463ffffffff1660e01b8152600401613ec2939291906161d0565b600060405180830381600087803b158015613edc57600080fd5b505af1158015613ef0573d6000803e3d6000fd5b50505050613efe6008614cd1565b600a60008381526020019081526020016000204290806001815401808255809150506001900390600052602060002001600090919091909150557f8dba83ab26c4e67ac150487b6c119e69498289b9cc6c7dfd77fd0df2e671b48b82604051613f6791906156ad565b60405180910390a15050505050565b613f7e614a4d565b73ffffffffffffffffffffffffffffffffffffffff16613f9c6139ef565b73ffffffffffffffffffffffffffffffffffffffff1614613ff2576040517f08c379a0000000000000000000000000000000000000000000000000000000008152600401613fe990615df7565b60405180910390fd5b61400681600661485190919063ffffffff16565b7f23b2415a50efd127e694ba174e400d457ad65c58752e171b6d17f3f5daa26fdb816040516140359190615652565b60405180910390a150565b600061405682600261490490919063ffffffff16565b9050919050565b606061406960016149bb565b905090565b600b6020528060005260406000206000915090508060000154908060010160009054906101000a900460ff16908060020154908060030154908060040154908060050154908060060180546140c290615d79565b80601f01602080910402602001604051908101604052809291908181526020018280546140ee90615d79565b801561413b5780601f106141105761010080835404028352916020019161413b565b820191906000526020600020905b81548152906001019060200180831161411e57829003601f168201915b5050505050908060070160009054906101000a900473ffffffffffffffffffffffffffffffffffffffff16908060080160009054906101000a900473ffffffffffffffffffffffffffffffffffffffff16908060090160009054906101000a900473ffffffffffffffffffffffffffffffffffffffff1690508a565b6060600c60008373ffffffffffffffffffffffffffffffffffffffff1673ffffffffffffffffffffffffffffffffffffffff168152602001908152602001600020805480602002602001604051908101604052809291908181526020016000905b8282101561444c57838290600052602060002090600a020160405180610140016040529081600082015481526020016001820160009054906101000a900460ff16600681111561426b5761426a61571b565b5b600681111561427d5761427c61571b565b5b8152602001600282015481526020016003820154815260200160048201548152602001600582015481526020016006820180546142b990615d79565b80601f01602080910402602001604051908101604052809291908181526020018280546142e590615d79565b80156143325780601f1061430757610100808354040283529160200191614332565b820191906000526020600020905b81548152906001019060200180831161431557829003601f168201915b505050505081526020016007820160009054906101000a900473ffffffffffffffffffffffffffffffffffffffff1673ffffffffffffffffffffffffffffffffffffffff1673ffffffffffffffffffffffffffffffffffffffff1681526020016008820160009054906101000a900473ffffffffffffffffffffffffffffffffffffffff1673ffffffffffffffffffffffffffffffffffffffff1673ffffffffffffffffffffffffffffffffffffffff1681526020016009820160009054906101000a900473ffffffffffffffffffffffffffffffffffffffff1673ffffffffffffffffffffffffffffffffffffffff1673ffffffffffffffffffffffffffffffffffffffff168152505081526020019060010190614218565b505050509050919050565b6060600d60008381526020019081526020016000208054806020026020016040519081016040528092919081815260200182805480156144ec57602002820191906000526020600020905b8160009054906101000a900473ffffffffffffffffffffffffffffffffffffffff1673ffffffffffffffffffffffffffffffffffffffff16815260200190600101908083116144a2575b50505050509050919050565b614500614a4d565b73ffffffffffffffffffffffffffffffffffffffff1661451e6139ef565b73ffffffffffffffffffffffffffffffffffffffff1614614574576040517f08c379a000000000000000000000000000000000000000000000000000000000815260040161456b90615df7565b60405180910390fd5b614588816002614a5590919063ffffffff16565b7f9cfe362d8a536c3b63d391e311186b7f259fdd498eecf5d32626fe9b95058a7d816040516145b79190615652565b60405180910390a150565b600a60205281600052604060002081815481106145de57600080fd5b90600052602060002001600091509150505481565b6060600e600083815260200190815260200160002080548060200260200160405190810160405280929190818152602001828054801561465257602002820191906000526020600020905b81548152602001906001019080831161463e575b50505050509050919050565b8073ffffffffffffffffffffffffffffffffffffffff163373ffffffffffffffffffffffffffffffffffffffff16146146cc576040517f08c379a00000000000000000000000000000000000000000000000000000000081526004016146c390615e63565b60405180910390fd5b6146e0816005614a5590919063ffffffff16565b7f200c3f073f217cf07dee57ee6e42c29e5fa6937f536b65c9d1e06be1f9c83dc18160405161470f9190615652565b60405180910390a150565b60006147266008614cc3565b905090565b614733614a4d565b73ffffffffffffffffffffffffffffffffffffffff166147516139ef565b73ffffffffffffffffffffffffffffffffffffffff16146147a7576040517f08c379a000000000000000000000000000000000000000000000000000000000815260040161479e90615df7565b60405180910390fd5b600073ffffffffffffffffffffffffffffffffffffffff168173ffffffffffffffffffffffffffffffffffffffff161415614817576040517f08c379a000000000000000000000000000000000000000000000000000000000815260040161480e90616279565b60405180910390fd5b61482081614bff565b50565b606061482f60056149bb565b905090565b600061484a82600161490490919063ffffffff16565b9050919050565b61485b8282614904565b1561489b576040517f08c379a0000000000000000000000000000000000000000000000000000000008152600401614892906162e5565b60405180910390fd5b81600001819080600181540180825580915050600190039060005260206000200160009091909190916101000a81548173ffffffffffffffffffffffffffffffffffffffff021916908373ffffffffffffffffffffffffffffffffffffffff1602179055505050565b6000808360000180549050905060005b818110156149ae578373ffffffffffffffffffffffffffffffffffffffff1685600001828154811061494957614948615a8c565b5b9060005260206000200160009054906101000a900473ffffffffffffffffffffffffffffffffffffffff1673ffffffffffffffffffffffffffffffffffffffff16141561499b576001925050506149b5565b80806149a690615aea565b915050614914565b5060009150505b92915050565b606081600001805480602002602001604051908101604052809291908181526020018280548015614a4157602002820191906000526020600020905b8160009054906101000a900473ffffffffffffffffffffffffffffffffffffffff1673ffffffffffffffffffffffffffffffffffffffff16815260200190600101908083116149f7575b50505050509050919050565b600033905090565b600082600001805490509050600080600090505b82811015614baf578115614b2357846000018181548110614a8d57614a8c615a8c565b5b9060005260206000200160009054906101000a900473ffffffffffffffffffffffffffffffffffffffff1685600001600183614ac99190615eef565b81548110614ada57614ad9615a8c565b5b9060005260206000200160006101000a81548173ffffffffffffffffffffffffffffffffffffffff021916908373ffffffffffffffffffffffffffffffffffffffff1602179055505b8373ffffffffffffffffffffffffffffffffffffffff16856000018281548110614b5057614b4f615a8c565b5b9060005260206000200160009054906101000a900473ffffffffffffffffffffffffffffffffffffffff1673ffffffffffffffffffffffffffffffffffffffff161415614b9c57600191505b8080614ba790615aea565b915050614a69565b5083600001805480614bc457614bc3616305565b5b6001900381819060005260206000200160006101000a81549073ffffffffffffffffffffffffffffffffffffffff0219169055905550505050565b60008060009054906101000a900473ffffffffffffffffffffffffffffffffffffffff169050816000806101000a81548173ffffffffffffffffffffffffffffffffffffffff021916908373ffffffffffffffffffffffffffffffffffffffff1602179055508173ffffffffffffffffffffffffffffffffffffffff168173ffffffffffffffffffffffffffffffffffffffff167f8be0079c531659141344cd1fd0a4f28419497f9722a3daafe3b4186f6b6457e060405160405180910390a35050565b600081600001549050919050565b6001816000016000828254019250508190555050565b828054614cf390615d79565b90600052602060002090601f016020900481019282614d155760008555614d5c565b82601f10614d2e57805160ff1916838001178555614d5c565b82800160010185558215614d5c579182015b82811115614d5b578251825591602001919060010190614d40565b5b509050614d699190614d6d565b5090565b5b80821115614d86576000816000905550600101614d6e565b5090565b6000604051905090565b600080fd5b600080fd5b600073ffffffffffffffffffffffffffffffffffffffff82169050919050565b6000614dc982614d9e565b9050919050565b614dd981614dbe565b8114614de457600080fd5b50565b600081359050614df681614dd0565b92915050565b600060208284031215614e1257614e11614d94565b5b6000614e2084828501614de7565b91505092915050565b60008115159050919050565b614e3e81614e29565b82525050565b6000602082019050614e596000830184614e35565b92915050565b6000819050919050565b614e7281614e5f565b8114614e7d57600080fd5b50565b600081359050614e8f81614e69565b92915050565b600080fd5b6000601f19601f8301169050919050565b7f4e487b7100000000000000000000000000000000000000000000000000000000600052604160045260246000fd5b614ee382614e9a565b810181811067ffffffffffffffff82111715614f0257614f01614eab565b5b80604052505050565b6000614f15614d8a565b9050614f218282614eda565b919050565b600067ffffffffffffffff821115614f4157614f40614eab565b5b602082029050602081019050919050565b600080fd5b6000614f6a614f6584614f26565b614f0b565b90508083825260208201905060208402830185811115614f8d57614f8c614f52565b5b835b81811015614fb65780614fa28882614de7565b845260208401935050602081019050614f8f565b5050509392505050565b600082601f830112614fd557614fd4614e95565b5b8135614fe5848260208601614f57565b91505092915050565b600067ffffffffffffffff82111561500957615008614eab565b5b602082029050602081019050919050565b600061502d61502884614fee565b614f0b565b905080838252602082019050602084028301858111156150505761504f614f52565b5b835b8181101561507957806150658882614e80565b845260208401935050602081019050615052565b5050509392505050565b600082601f83011261509857615097614e95565b5b81356150a884826020860161501a565b91505092915050565b6000806000606084860312156150ca576150c9614d94565b5b60006150d886828701614e80565b935050602084013567ffffffffffffffff8111156150f9576150f8614d99565b5b61510586828701614fc0565b925050604084013567ffffffffffffffff81111561512657615125614d99565b5b61513286828701615083565b9150509250925092565b600080fd5b600067ffffffffffffffff82111561515c5761515b614eab565b5b61516582614e9a565b9050602081019050919050565b82818337600083830152505050565b600061519461518f84615141565b614f0b565b9050828152602081018484840111156151b0576151af61513c565b5b6151bb848285615172565b509392505050565b600082601f8301126151d8576151d7614e95565b5b81356151e8848260208601615181565b91505092915050565b6000806000806080858703121561520b5761520a614d94565b5b600061521987828801614e80565b945050602061522a87828801614e80565b935050604085013567ffffffffffffffff81111561524b5761524a614d99565b5b615257878288016151c3565b925050606085013567ffffffffffffffff81111561527857615277614d99565b5b615284878288016151c3565b91505092959194509250565b6000602082840312156152a6576152a5614d94565b5b60006152b484828501614e80565b91505092915050565b600081519050919050565b600082825260208201905092915050565b6000819050602082019050919050565b6152f281614e5f565b82525050565b600061530483836152e9565b60208301905092915050565b6000602082019050919050565b6000615328826152bd565b61533281856152c8565b935061533d836152d9565b8060005b8381101561536e57815161535588826152f8565b975061536083615310565b925050600181019050615341565b5085935050505092915050565b60006020820190508181036000830152615395818461531d565b905092915050565b600081519050919050565b600082825260208201905092915050565b6000819050602082019050919050565b6153d281614dbe565b82525050565b60006153e483836153c9565b60208301905092915050565b6000602082019050919050565b60006154088261539d565b61541281856153a8565b935061541d836153b9565b8060005b8381101561544e57815161543588826153d8565b9750615440836153f0565b925050600181019050615421565b5085935050505092915050565b6000602082019050818103600083015261547581846153fd565b905092915050565b60008060006060848603121561549657615495614d94565b5b60006154a486828701614e80565b93505060206154b586828701614e80565b925050604084013567ffffffffffffffff8111156154d6576154d5614d99565b5b6154e2868287016151c3565b9150509250925092565b6154f581614e5f565b82525050565b600081519050919050565b600082825260208201905092915050565b60005b8381101561553557808201518184015260208101905061551a565b83811115615544576000848401525b50505050565b6000615555826154fb565b61555f8185615506565b935061556f818560208601615517565b61557881614e9a565b840191505092915050565b600060608201905061559860008301866154ec565b81810360208301526155aa818561554a565b905081810360408301526155be818461554a565b9050949350505050565b600080600080600060a086880312156155e4576155e3614d94565b5b60006155f288828901614e80565b955050602061560388828901614de7565b945050604061561488828901614e80565b935050606061562588828901614e80565b925050608061563688828901614e80565b9150509295509295909350565b61564c81614dbe565b82525050565b60006020820190506156676000830184615643565b92915050565b6000806040838503121561568457615683614d94565b5b600061569285828601614e80565b92505060206156a385828601614de7565b9150509250929050565b60006020820190506156c260008301846154ec565b92915050565b6000806000606084860312156156e1576156e0614d94565b5b60006156ef86828701614e80565b935050602061570086828701614e80565b925050604061571186828701614e80565b9150509250925092565b7f4e487b7100000000000000000000000000000000000000000000000000000000600052602160045260246000fd5b6007811061575b5761575a61571b565b5b50565b600081905061576c8261574a565b919050565b600061577c8261575e565b9050919050565b61578c81615771565b82525050565b6000610140820190506157a8600083018d6154ec565b6157b5602083018c615783565b6157c2604083018b6154ec565b6157cf606083018a6154ec565b6157dc60808301896154ec565b6157e960a08301886154ec565b81810360c08301526157fb818761554a565b905061580a60e0830186615643565b615818610100830185615643565b615826610120830184615643565b9b9a5050505050505050505050565b600081519050919050565b600082825260208201905092915050565b6000819050602082019050919050565b61586a81615771565b82525050565b600082825260208201905092915050565b600061588c826154fb565b6158968185615870565b93506158a6818560208601615517565b6158af81614e9a565b840191505092915050565b6000610140830160008301516158d360008601826152e9565b5060208301516158e66020860182615861565b5060408301516158f960408601826152e9565b50606083015161590c60608601826152e9565b50608083015161591f60808601826152e9565b5060a083015161593260a08601826152e9565b5060c083015184820360c086015261594a8282615881565b91505060e083015161595f60e08601826153c9565b506101008301516159746101008601826153c9565b506101208301516159896101208601826153c9565b508091505092915050565b60006159a083836158ba565b905092915050565b6000602082019050919050565b60006159c082615835565b6159ca8185615840565b9350836020820285016159dc85615851565b8060005b85811015615a1857848403895281516159f98582615994565b9450615a04836159a8565b925060208a019950506001810190506159e0565b50829750879550505050505092915050565b60006020820190508181036000830152615a4481846159b5565b905092915050565b60008060408385031215615a6357615a62614d94565b5b6000615a7185828601614e80565b9250506020615a8285828601614e80565b9150509250929050565b7f4e487b7100000000000000000000000000000000000000000000000000000000600052603260045260246000fd5b7f4e487b7100000000000000000000000000000000000000000000000000000000600052601160045260246000fd5b6000615af582614e5f565b91507fffffffffffffffffffffffffffffffffffffffffffffffffffffffffffffffff821415615b2857615b27615abb565b5b600182019050919050565b7f4449535452494255544f5220494e5445524e414c204552524f52000000000000600082015250565b6000615b69601a83615506565b9150615b7482615b33565b602082019050919050565b60006020820190508181036000830152615b9881615b5c565b9050919050565b7f4e4f5420412056414c49442052455441494c455220414444524553532021205060008201527f4c4541534520434f4e544143542041444d494e00000000000000000000000000602082015250565b6000615bfb603383615506565b9150615c0682615b9f565b604082019050919050565b60006020820190508181036000830152615c2a81615bee565b9050919050565b600082825260208201905092915050565b7f3078303000000000000000000000000000000000000000000000000000000000600082015250565b6000615c78600483615c31565b9150615c8382615c42565b602082019050919050565b600060c082019050615ca36000830188615643565b615cb06020830187615643565b615cbd60408301866154ec565b615cca60608301856154ec565b8181036080830152615cdb81615c6b565b9050615cea60a08301846154ec565b9695505050505050565b6000615cff82614e5f565b9150615d0a83614e5f565b9250827fffffffffffffffffffffffffffffffffffffffffffffffffffffffffffffffff03821115615d3f57615d3e615abb565b5b828201905092915050565b7f4e487b7100000000000000000000000000000000000000000000000000000000600052602260045260246000fd5b60006002820490506001821680615d9157607f821691505b60208210811415615da557615da4615d4a565b5b50919050565b7f4f776e61626c653a2063616c6c6572206973206e6f7420746865206f776e6572600082015250565b6000615de1602083615506565b9150615dec82615dab565b602082019050919050565b60006020820190508181036000830152615e1081615dd4565b9050919050565b7f594f555f43414e5f4e4f545f524f4d4f56455f544849535f4144445245535300600082015250565b6000615e4d601f83615506565b9150615e5882615e17565b602082019050919050565b60006020820190508181036000830152615e7c81615e40565b9050919050565b7f556e6974732073686f756c642062652067726561746572207468617420310000600082015250565b6000615eb9601e83615506565b9150615ec482615e83565b602082019050919050565b60006020820190508181036000830152615ee881615eac565b9050919050565b6000615efa82614e5f565b9150615f0583614e5f565b925082821015615f1857615f17615abb565b5b828203905092915050565b6000606082019050615f386000830186615643565b615f4560208301856154ec565b615f5260408301846154ec565b949350505050565b7f4e4f5420412056414c4944204449535452494255544f5220414444524553532060008201527f2120504c4541534520434f4e544143542041444d494e00000000000000000000602082015250565b6000615fb6603683615506565b9150615fc182615f5a565b604082019050919050565b60006020820190508181036000830152615fe581615fa9565b9050919050565b7f4e4f5420412056414c49442057415245484f555345204144445245535320212060008201527f504c4541534520434f4e544143542041444d494e000000000000000000000000602082015250565b6000616048603483615506565b915061605382615fec565b604082019050919050565b600060208201905081810360008301526160778161603b565b9050919050565b6000819050919050565b6000819050919050565b60006160ad6160a86160a38461607e565b616088565b614e5f565b9050919050565b6160bd81616092565b82525050565b6000819050919050565b60006160e86160e36160de846160c3565b616088565b614e5f565b9050919050565b6160f8816160cd565b82525050565b600060c0820190506161136000830188615643565b6161206020830187615643565b61612d60408301866154ec565b61613a60608301856160b4565b818103608083015261614b81615c6b565b905061615a60a08301846160ef565b9695505050505050565b7f4e6f74206120526177204d6174657269616c20537570706c6965720000000000600082015250565b600061619a601b83615506565b91506161a582616164565b602082019050919050565b600060208201905081810360008301526161c98161618d565b9050919050565b60006060820190506161e56000830186615643565b6161f260208301856154ec565b6161ff60408301846160b4565b949350505050565b7f4f776e61626c653a206e6577206f776e657220697320746865207a65726f206160008201527f6464726573730000000000000000000000000000000000000000000000000000602082015250565b6000616263602683615506565b915061626e82616207565b604082019050919050565b6000602082019050818103600083015261629281616256565b9050919050565b7f524f4c455f414c52454144595f45584953545300000000000000000000000000600082015250565b60006162cf601383615506565b91506162da82616299565b602082019050919050565b600060208201905081810360008301526162fe816162c2565b9050919050565b7f4e487b7100000000000000000000000000000000000000000000000000000000600052603160045260246000fdfea26469706673582212200898c18b983036b8ad1c5ee8da5de68a4ae05a6cd67180af55e4b3f67b2e74af64736f6c63430008080033",
  "linkReferences": {},
  "deployedLinkReferences": {}
}