{
  "_format": "hh-sol-artifact-1",
  "contractName": "Supplychain",
  "sourceName": "contracts/Supplychain.sol",
  "abi": [
    {
      "inputs": [
        {
          "internalType": "address",
          "name": "_supplychainToken",
          "type": "address"
        }
      ],
      "stateMutability": "nonpayable",
      "type": "constructor"
    },
    {
      "anonymous": false,
      "inputs": [
        {
          "indexed": false,
          "internalType": "address",
          "name": "_address",
          "type": "address"
        }
      ],
      "name": "AddCustomer",
      "type": "event"
    },
    {
      "anonymous": false,
      "inputs": [
        {
          "indexed": false,
          "internalType": "address",
          "name": "_address",
          "type": "address"
        }
      ],
      "name": "AddDistributor",
      "type": "event"
    },
    {
      "anonymous": false,
      "inputs": [
        {
          "indexed": false,
          "internalType": "address",
          "name": "_address",
          "type": "address"
        }
      ],
      "name": "AddFactory",
      "type": "event"
    },
    {
      "anonymous": false,
      "inputs": [
        {
          "indexed": false,
          "internalType": "address",
          "name": "_address",
          "type": "address"
        }
      ],
      "name": "AddRawMaterialSupplier",
      "type": "event"
    },
    {
      "anonymous": false,
      "inputs": [
        {
          "indexed": false,
          "internalType": "address",
          "name": "_address",
          "type": "address"
        }
      ],
      "name": "AddRetailer",
      "type": "event"
    },
    {
      "anonymous": false,
      "inputs": [
        {
          "indexed": false,
          "internalType": "address",
          "name": "_address",
          "type": "address"
        }
      ],
      "name": "AddWarehouse",
      "type": "event"
    },
    {
      "anonymous": false,
      "inputs": [
        {
          "indexed": false,
          "internalType": "uint256",
          "name": "_supplyChainId",
          "type": "uint256"
        }
      ],
      "name": "DistributorSellToRetailer",
      "type": "event"
    },
    {
      "anonymous": false,
      "inputs": [
        {
          "indexed": false,
          "internalType": "uint256",
          "name": "_supplyChainId",
          "type": "uint256"
        }
      ],
      "name": "FactoryBuyRawMaterial",
      "type": "event"
    },
    {
      "anonymous": false,
      "inputs": [
        {
          "indexed": false,
          "internalType": "uint256",
          "name": "_supplyChainId",
          "type": "uint256"
        }
      ],
      "name": "FactorySellItemToDistributors",
      "type": "event"
    },
    {
      "anonymous": false,
      "inputs": [
        {
          "indexed": true,
          "internalType": "address",
          "name": "previousOwner",
          "type": "address"
        },
        {
          "indexed": true,
          "internalType": "address",
          "name": "newOwner",
          "type": "address"
        }
      ],
      "name": "OwnershipTransferred",
      "type": "event"
    },
    {
      "anonymous": false,
      "inputs": [
        {
          "indexed": false,
          "internalType": "uint256",
          "name": "_supplyChainId",
          "type": "uint256"
        }
      ],
      "name": "RawMaterialSupplierSuppliesRM",
      "type": "event"
    },
    {
      "anonymous": false,
      "inputs": [
        {
          "indexed": false,
          "internalType": "address",
          "name": "_address",
          "type": "address"
        }
      ],
      "name": "RemoveCustomer",
      "type": "event"
    },
    {
      "anonymous": false,
      "inputs": [
        {
          "indexed": false,
          "internalType": "address",
          "name": "_address",
          "type": "address"
        }
      ],
      "name": "RemoveDistributor",
      "type": "event"
    },
    {
      "anonymous": false,
      "inputs": [
        {
          "indexed": false,
          "internalType": "address",
          "name": "_address",
          "type": "address"
        }
      ],
      "name": "RemoveFactory",
      "type": "event"
    },
    {
      "anonymous": false,
      "inputs": [
        {
          "indexed": false,
          "internalType": "address",
          "name": "_address",
          "type": "address"
        }
      ],
      "name": "RemoveRawMaterialSupplier",
      "type": "event"
    },
    {
      "anonymous": false,
      "inputs": [
        {
          "indexed": false,
          "internalType": "address",
          "name": "_address",
          "type": "address"
        }
      ],
      "name": "RemoveRetailer",
      "type": "event"
    },
    {
      "anonymous": false,
      "inputs": [
        {
          "indexed": false,
          "internalType": "address",
          "name": "_address",
          "type": "address"
        }
      ],
      "name": "RemoveWarehouse",
      "type": "event"
    },
    {
      "anonymous": false,
      "inputs": [
        {
          "indexed": false,
          "internalType": "uint256",
          "name": "_supplyChainId",
          "type": "uint256"
        }
      ],
      "name": "RetailerSellToCustomer",
      "type": "event"
    },
    {
      "anonymous": false,
      "inputs": [
        {
          "indexed": false,
          "internalType": "uint256",
          "name": "a",
          "type": "uint256"
        },
        {
          "indexed": false,
          "internalType": "uint256",
          "name": "b",
          "type": "uint256"
        }
      ],
      "name": "valueeeeeeee",
      "type": "event"
    },
    {
      "inputs": [
        {
          "internalType": "address",
          "name": "_address",
          "type": "address"
        }
      ],
      "name": "addCustomer",
      "outputs": [],
      "stateMutability": "nonpayable",
      "type": "function"
    },
    {
      "inputs": [
        {
          "internalType": "address",
          "name": "_address",
          "type": "address"
        }
      ],
      "name": "addDistributor",
      "outputs": [],
      "stateMutability": "nonpayable",
      "type": "function"
    },
    {
      "inputs": [
        {
          "internalType": "address",
          "name": "_address",
          "type": "address"
        }
      ],
      "name": "addFactory",
      "outputs": [],
      "stateMutability": "nonpayable",
      "type": "function"
    },
    {
      "inputs": [
        {
          "internalType": "address",
          "name": "_address",
          "type": "address"
        }
      ],
      "name": "addRawMaterialSupplier",
      "outputs": [],
      "stateMutability": "nonpayable",
      "type": "function"
    },
    {
      "inputs": [
        {
          "internalType": "address",
          "name": "_address",
          "type": "address"
        }
      ],
      "name": "addRetailer",
      "outputs": [],
      "stateMutability": "nonpayable",
      "type": "function"
    },
    {
      "inputs": [
        {
          "internalType": "address",
          "name": "_address",
          "type": "address"
        }
      ],
      "name": "addWarehouse",
      "outputs": [],
      "stateMutability": "nonpayable",
      "type": "function"
    },
    {
      "inputs": [
        {
          "internalType": "uint256",
          "name": "_supplyChainId",
          "type": "uint256"
        }
      ],
      "name": "distributorSellToRetailer",
      "outputs": [],
      "stateMutability": "nonpayable",
      "type": "function"
    },
    {
      "inputs": [
        {
          "internalType": "uint256",
          "name": "_supplyChainId",
          "type": "uint256"
        },
        {
          "internalType": "address",
          "name": "_warehouse",
          "type": "address"
        }
      ],
      "name": "factoryBuyRawMaterial",
      "outputs": [],
      "stateMutability": "nonpayable",
      "type": "function"
    },
    {
      "inputs": [
        {
          "internalType": "uint256",
          "name": "_supplyChainId",
          "type": "uint256"
        },
        {
          "internalType": "uint256",
          "name": "_units",
          "type": "uint256"
        },
        {
          "internalType": "address[]",
          "name": "distributors",
          "type": "address[]"
        },
        {
          "internalType": "uint256[]",
          "name": "quantity",
          "type": "uint256[]"
        }
      ],
      "name": "factorySellItemToDistributors",
      "outputs": [],
      "stateMutability": "nonpayable",
      "type": "function"
    },
    {
      "inputs": [],
      "name": "getCustomer",
      "outputs": [
        {
          "internalType": "address[]",
          "name": "",
          "type": "address[]"
        }
      ],
      "stateMutability": "view",
      "type": "function"
    },
    {
      "inputs": [],
      "name": "getDistributor",
      "outputs": [
        {
          "internalType": "address[]",
          "name": "",
          "type": "address[]"
        }
      ],
      "stateMutability": "view",
      "type": "function"
    },
    {
      "inputs": [
        {
          "internalType": "uint256",
          "name": "_supplychianId",
          "type": "uint256"
        }
      ],
      "name": "getDistributorCounters",
      "outputs": [
        {
          "internalType": "uint256[]",
          "name": "",
          "type": "uint256[]"
        }
      ],
      "stateMutability": "view",
      "type": "function"
    },
    {
      "inputs": [
        {
          "internalType": "uint256",
          "name": "_supplychianId",
          "type": "uint256"
        }
      ],
      "name": "getDistributorUnits",
      "outputs": [
        {
          "internalType": "uint256[]",
          "name": "",
          "type": "uint256[]"
        }
      ],
      "stateMutability": "view",
      "type": "function"
    },
    {
      "inputs": [
        {
          "internalType": "uint256",
          "name": "_supplychianId",
          "type": "uint256"
        }
      ],
      "name": "getDistributors",
      "outputs": [
        {
          "internalType": "address[]",
          "name": "",
          "type": "address[]"
        }
      ],
      "stateMutability": "view",
      "type": "function"
    },
    {
      "inputs": [],
      "name": "getFactory",
      "outputs": [
        {
          "internalType": "address[]",
          "name": "",
          "type": "address[]"
        }
      ],
      "stateMutability": "view",
      "type": "function"
    },
    {
      "inputs": [],
      "name": "getRawMaterialSupplier",
      "outputs": [
        {
          "internalType": "address[]",
          "name": "",
          "type": "address[]"
        }
      ],
      "stateMutability": "view",
      "type": "function"
    },
    {
      "inputs": [],
      "name": "getRetailer",
      "outputs": [
        {
          "internalType": "address[]",
          "name": "",
          "type": "address[]"
        }
      ],
      "stateMutability": "view",
      "type": "function"
    },
    {
      "inputs": [
        {
          "internalType": "uint256",
          "name": "_supplychianId",
          "type": "uint256"
        }
      ],
      "name": "getRetailers",
      "outputs": [
        {
          "internalType": "address[]",
          "name": "",
          "type": "address[]"
        }
      ],
      "stateMutability": "view",
      "type": "function"
    },
    {
      "inputs": [
        {
          "internalType": "uint256",
          "name": "_supplychianId",
          "type": "uint256"
        }
      ],
      "name": "getRetailersCounters",
      "outputs": [
        {
          "internalType": "uint256[]",
          "name": "",
          "type": "uint256[]"
        }
      ],
      "stateMutability": "view",
      "type": "function"
    },
    {
      "inputs": [
        {
          "internalType": "uint256",
          "name": "_supplychianId",
          "type": "uint256"
        }
      ],
      "name": "getRetailersUnits",
      "outputs": [
        {
          "internalType": "uint256[]",
          "name": "",
          "type": "uint256[]"
        }
      ],
      "stateMutability": "view",
      "type": "function"
    },
    {
      "inputs": [],
      "name": "getWarehouse",
      "outputs": [
        {
          "internalType": "address[]",
          "name": "",
          "type": "address[]"
        }
      ],
      "stateMutability": "view",
      "type": "function"
    },
    {
      "inputs": [
        {
          "internalType": "address",
          "name": "warehouse",
          "type": "address"
        }
      ],
      "name": "getWarehouseItems",
      "outputs": [
        {
          "components": [
            {
              "internalType": "uint256",
              "name": "supplyChainId",
              "type": "uint256"
            },
            {
              "internalType": "enum Supplychain.State",
              "name": "itemState",
              "type": "uint8"
            },
            {
              "internalType": "uint256",
              "name": "PolyesterAmount",
              "type": "uint256"
            },
            {
              "internalType": "uint256",
              "name": "CottonAmount",
              "type": "uint256"
            },
            {
              "internalType": "uint256",
              "name": "WoolAmount",
              "type": "uint256"
            },
            {
              "internalType": "uint256",
              "name": "totalUnits",
              "type": "uint256"
            },
            {
              "internalType": "address",
              "name": "RawMaterialSupplierID",
              "type": "address"
            },
            {
              "internalType": "address",
              "name": "warehouseID",
              "type": "address"
            },
            {
              "internalType": "address",
              "name": "factoryID",
              "type": "address"
            }
          ],
          "internalType": "struct Supplychain.Item[]",
          "name": "",
          "type": "tuple[]"
        }
      ],
      "stateMutability": "view",
      "type": "function"
    },
    {
      "inputs": [
        {
          "internalType": "address",
          "name": "_address",
          "type": "address"
        }
      ],
      "name": "isCustomer",
      "outputs": [
        {
          "internalType": "bool",
          "name": "",
          "type": "bool"
        }
      ],
      "stateMutability": "view",
      "type": "function"
    },
    {
      "inputs": [
        {
          "internalType": "address",
          "name": "_address",
          "type": "address"
        }
      ],
      "name": "isDistributor",
      "outputs": [
        {
          "internalType": "bool",
          "name": "",
          "type": "bool"
        }
      ],
      "stateMutability": "view",
      "type": "function"
    },
    {
      "inputs": [
        {
          "internalType": "address",
          "name": "_address",
          "type": "address"
        }
      ],
      "name": "isFactory",
      "outputs": [
        {
          "internalType": "bool",
          "name": "",
          "type": "bool"
        }
      ],
      "stateMutability": "view",
      "type": "function"
    },
    {
      "inputs": [
        {
          "internalType": "address",
          "name": "_address",
          "type": "address"
        }
      ],
      "name": "isRawMaterialSupplier",
      "outputs": [
        {
          "internalType": "bool",
          "name": "",
          "type": "bool"
        }
      ],
      "stateMutability": "view",
      "type": "function"
    },
    {
      "inputs": [
        {
          "internalType": "address",
          "name": "_address",
          "type": "address"
        }
      ],
      "name": "isRetailer",
      "outputs": [
        {
          "internalType": "bool",
          "name": "",
          "type": "bool"
        }
      ],
      "stateMutability": "view",
      "type": "function"
    },
    {
      "inputs": [
        {
          "internalType": "address",
          "name": "_address",
          "type": "address"
        }
      ],
      "name": "isWarehouse",
      "outputs": [
        {
          "internalType": "bool",
          "name": "",
          "type": "bool"
        }
      ],
      "stateMutability": "view",
      "type": "function"
    },
    {
      "inputs": [
        {
          "internalType": "uint256",
          "name": "",
          "type": "uint256"
        }
      ],
      "name": "items",
      "outputs": [
        {
          "internalType": "uint256",
          "name": "supplyChainId",
          "type": "uint256"
        },
        {
          "internalType": "enum Supplychain.State",
          "name": "itemState",
          "type": "uint8"
        },
        {
          "internalType": "uint256",
          "name": "PolyesterAmount",
          "type": "uint256"
        },
        {
          "internalType": "uint256",
          "name": "CottonAmount",
          "type": "uint256"
        },
        {
          "internalType": "uint256",
          "name": "WoolAmount",
          "type": "uint256"
        },
        {
          "internalType": "uint256",
          "name": "totalUnits",
          "type": "uint256"
        },
        {
          "internalType": "address",
          "name": "RawMaterialSupplierID",
          "type": "address"
        },
        {
          "internalType": "address",
          "name": "warehouseID",
          "type": "address"
        },
        {
          "internalType": "address",
          "name": "factoryID",
          "type": "address"
        }
      ],
      "stateMutability": "view",
      "type": "function"
    },
    {
      "inputs": [],
      "name": "owner",
      "outputs": [
        {
          "internalType": "address",
          "name": "",
          "type": "address"
        }
      ],
      "stateMutability": "view",
      "type": "function"
    },
    {
      "inputs": [
        {
          "internalType": "uint256",
          "name": "_polyesterAmount",
          "type": "uint256"
        },
        {
          "internalType": "uint256",
          "name": "_cottonAmount",
          "type": "uint256"
        },
        {
          "internalType": "uint256",
          "name": "_woolAmount",
          "type": "uint256"
        }
      ],
      "name": "rawMaterialSupplierSuppliesRM",
      "outputs": [],
      "stateMutability": "nonpayable",
      "type": "function"
    },
    {
      "inputs": [
        {
          "internalType": "address",
          "name": "_address",
          "type": "address"
        }
      ],
      "name": "removeCustomer",
      "outputs": [],
      "stateMutability": "nonpayable",
      "type": "function"
    },
    {
      "inputs": [
        {
          "internalType": "address",
          "name": "_address",
          "type": "address"
        }
      ],
      "name": "removeCustomerSelf",
      "outputs": [],
      "stateMutability": "nonpayable",
      "type": "function"
    },
    {
      "inputs": [
        {
          "internalType": "address",
          "name": "_address",
          "type": "address"
        }
      ],
      "name": "removeDistributor",
      "outputs": [],
      "stateMutability": "nonpayable",
      "type": "function"
    },
    {
      "inputs": [
        {
          "internalType": "address",
          "name": "_address",
          "type": "address"
        }
      ],
      "name": "removeDistributorSelf",
      "outputs": [],
      "stateMutability": "nonpayable",
      "type": "function"
    },
    {
      "inputs": [
        {
          "internalType": "address",
          "name": "_address",
          "type": "address"
        }
      ],
      "name": "removeFactory",
      "outputs": [],
      "stateMutability": "nonpayable",
      "type": "function"
    },
    {
      "inputs": [
        {
          "internalType": "address",
          "name": "_address",
          "type": "address"
        }
      ],
      "name": "removeFactorySelf",
      "outputs": [],
      "stateMutability": "nonpayable",
      "type": "function"
    },
    {
      "inputs": [
        {
          "internalType": "address",
          "name": "_address",
          "type": "address"
        }
      ],
      "name": "removeRawMaterialSupplier",
      "outputs": [],
      "stateMutability": "nonpayable",
      "type": "function"
    },
    {
      "inputs": [
        {
          "internalType": "address",
          "name": "_address",
          "type": "address"
        }
      ],
      "name": "removeRawMaterialSupplierSelf",
      "outputs": [],
      "stateMutability": "nonpayable",
      "type": "function"
    },
    {
      "inputs": [
        {
          "internalType": "address",
          "name": "_address",
          "type": "address"
        }
      ],
      "name": "removeRetailer",
      "outputs": [],
      "stateMutability": "nonpayable",
      "type": "function"
    },
    {
      "inputs": [
        {
          "internalType": "address",
          "name": "_address",
          "type": "address"
        }
      ],
      "name": "removeRetailerSelf",
      "outputs": [],
      "stateMutability": "nonpayable",
      "type": "function"
    },
    {
      "inputs": [
        {
          "internalType": "address",
          "name": "_address",
          "type": "address"
        }
      ],
      "name": "removeSelfWarehouse",
      "outputs": [],
      "stateMutability": "nonpayable",
      "type": "function"
    },
    {
      "inputs": [
        {
          "internalType": "address",
          "name": "_address",
          "type": "address"
        }
      ],
      "name": "removeWarehouse",
      "outputs": [],
      "stateMutability": "nonpayable",
      "type": "function"
    },
    {
      "inputs": [],
      "name": "renounceOwnership",
      "outputs": [],
      "stateMutability": "nonpayable",
      "type": "function"
    },
    {
      "inputs": [],
      "name": "totalBatchs",
      "outputs": [
        {
          "internalType": "uint256",
          "name": "",
          "type": "uint256"
        }
      ],
      "stateMutability": "view",
      "type": "function"
    },
    {
      "inputs": [
        {
          "internalType": "address",
          "name": "newOwner",
          "type": "address"
        }
      ],
      "name": "transferOwnership",
      "outputs": [],
      "stateMutability": "nonpayable",
      "type": "function"
    }
  ],
  "bytecode": "0x60806040523480156200001157600080fd5b5060405162004ae138038062004ae18339818101604052810190620000379190620006dd565b620000576200004b6200010560201b60201c565b6200010d60201b60201c565b6200006833620001d160201b60201c565b62000079336200023860201b60201c565b6200008a336200029f60201b60201c565b6200009b336200030660201b60201c565b620000ac336200036d60201b60201c565b620000bd33620003d460201b60201c565b80600760006101000a81548173ffffffffffffffffffffffffffffffffffffffff021916908373ffffffffffffffffffffffffffffffffffffffff16021790555050620008e8565b600033905090565b60008060009054906101000a900473ffffffffffffffffffffffffffffffffffffffff169050816000806101000a81548173ffffffffffffffffffffffffffffffffffffffff021916908373ffffffffffffffffffffffffffffffffffffffff1602179055508173ffffffffffffffffffffffffffffffffffffffff168173ffffffffffffffffffffffffffffffffffffffff167f8be0079c531659141344cd1fd0a4f28419497f9722a3daafe3b4186f6b6457e060405160405180910390a35050565b620001e16200043b60201b60201c565b620001fc816001620004cc60201b62002c7b1790919060201c565b7fa3da795b47eb190084f878e63c07509e5f6df63ebc51443c0ccab2fc11c0d883816040516200022d919062000720565b60405180910390a150565b620002486200043b60201b60201c565b62000263816002620004cc60201b62002c7b1790919060201c565b7f364ee90eb63717b99192fdb951c7b1aa91a45bca11ac73ab40cfad762631fbce8160405162000294919062000720565b60405180910390a150565b620002af6200043b60201b60201c565b620002ca816003620004cc60201b62002c7b1790919060201c565b7f5a8fb443d09cf1426e80f80dd509757d71d4687674ab4adad906c5e2b6e1e62c81604051620002fb919062000720565b60405180910390a150565b620003166200043b60201b60201c565b62000331816004620004cc60201b62002c7b1790919060201c565b7f3afd547f7eb357741de51229846ae795cb06449e4b4032eb34a7cc0a751e25c18160405162000362919062000720565b60405180910390a150565b6200037d6200043b60201b60201c565b62000398816005620004cc60201b62002c7b1790919060201c565b7f0eea60f9e1851b51feed56c339be177ea715591923622a0effe46dbb8885efa681604051620003c9919062000720565b60405180910390a150565b620003e46200043b60201b60201c565b620003ff816006620004cc60201b62002c7b1790919060201c565b7f23b2415a50efd127e694ba174e400d457ad65c58752e171b6d17f3f5daa26fdb8160405162000430919062000720565b60405180910390a150565b6200044b6200010560201b60201c565b73ffffffffffffffffffffffffffffffffffffffff16620004716200058a60201b60201c565b73ffffffffffffffffffffffffffffffffffffffff1614620004ca576040517f08c379a0000000000000000000000000000000000000000000000000000000008152600401620004c1906200079e565b60405180910390fd5b565b620004de8282620005b360201b60201c565b1562000521576040517f08c379a0000000000000000000000000000000000000000000000000000000008152600401620005189062000810565b60405180910390fd5b81600001819080600181540180825580915050600190039060005260206000200160009091909190916101000a81548173ffffffffffffffffffffffffffffffffffffffff021916908373ffffffffffffffffffffffffffffffffffffffff1602179055505050565b60008060009054906101000a900473ffffffffffffffffffffffffffffffffffffffff16905090565b6000808360000180549050905060005b8181101562000666578373ffffffffffffffffffffffffffffffffffffffff16856000018281548110620005fc57620005fb62000832565b5b9060005260206000200160009054906101000a900473ffffffffffffffffffffffffffffffffffffffff1673ffffffffffffffffffffffffffffffffffffffff16141562000650576001925050506200066d565b80806200065d906200089a565b915050620005c3565b5060009150505b92915050565b600080fd5b600073ffffffffffffffffffffffffffffffffffffffff82169050919050565b6000620006a58262000678565b9050919050565b620006b78162000698565b8114620006c357600080fd5b50565b600081519050620006d781620006ac565b92915050565b600060208284031215620006f657620006f562000673565b5b60006200070684828501620006c6565b91505092915050565b6200071a8162000698565b82525050565b60006020820190506200073760008301846200070f565b92915050565b600082825260208201905092915050565b7f4f776e61626c653a2063616c6c6572206973206e6f7420746865206f776e6572600082015250565b6000620007866020836200073d565b915062000793826200074e565b602082019050919050565b60006020820190508181036000830152620007b98162000777565b9050919050565b7f524f4c455f414c52454144595f45584953545300000000000000000000000000600082015250565b6000620007f86013836200073d565b91506200080582620007c0565b602082019050919050565b600060208201905081810360008301526200082b81620007e9565b9050919050565b7f4e487b7100000000000000000000000000000000000000000000000000000000600052603260045260246000fd5b7f4e487b7100000000000000000000000000000000000000000000000000000000600052601160045260246000fd5b6000819050919050565b6000620008a78262000890565b91507fffffffffffffffffffffffffffffffffffffffffffffffffffffffffffffffff821415620008dd57620008dc62000861565b5b600182019050919050565b6141e980620008f86000396000f3fe608060405234801561001057600080fd5b506004361061028a5760003560e01c8063844805101161015c578063be33c516116100ce578063e70a962b11610087578063e70a962b146107e1578063e7d0831d14610811578063eeb341331461082d578063f2fde38b1461084b578063f80d1ff014610867578063faf31e08146108855761028a565b8063be33c516146106f5578063bfb231d214610711578063bfed485614610749578063dafe1ef714610779578063e102add8146107a9578063e3c1a531146107c55761028a565b80638ec4f505116101205780638ec4f505146106235780638f0c86fa1461063f578063a198d4961461066f578063ad973d741461068b578063bca4bd50146106a7578063bdacda31146106d75761028a565b806384480510146105935780638853ad75146105af57806388cc58e4146105cb5780638da5cb5b146105e95780638eb06ccf146106075761028a565b80635166b5c811610200578063650d993b116101b9578063650d993b146104fb57806370099ec814610519578063715018a6146105355780637250e2241461053f57806380bedacf1461055b578063814f696e146105775761028a565b80635166b5c81461042957806357c1f9e2146104455780635884965f146104615780635a9683831461047f5780635bf27912146104af5780635da09b88146104cb5761028a565b806328fd5e831161025257806328fd5e831461035957806329ce1ec5146103895780632a7ec29f146103a5578063319af857146103c15780633c0e25a4146103f15780634b37c73f1461040d5761028a565b80630f04ba671461028f57806320519bb0146102bf578063209d353e146102ef5780632100c7c81461031f5780632885b9431461033b575b600080fd5b6102a960048036038101906102a49190613201565b6108b5565b6040516102b69190613249565b60405180910390f35b6102d960048036038101906102d4919061329a565b6108d2565b6040516102e69190613385565b60405180910390f35b6103096004803603810190610304919061329a565b61093d565b6040516103169190613465565b60405180910390f35b61033960048036038101906103349190613487565b6109de565b005b61034361103b565b6040516103509190613465565b60405180910390f35b610373600480360381019061036e9190613201565b61104c565b6040516103809190613249565b60405180910390f35b6103a3600480360381019061039e9190613201565b611069565b005b6103bf60048036038101906103ba9190613201565b6110bf565b005b6103db60048036038101906103d6919061329a565b61117b565b6040516103e89190613385565b60405180910390f35b61040b60048036038101906104069190613201565b6111e6565b005b61042760048036038101906104229190613201565b61123c565b005b610443600480360381019061043e9190613201565b611292565b005b61045f600480360381019061045a9190613201565b6112e8565b005b61046961133e565b6040516104769190613465565b60405180910390f35b6104996004803603810190610494919061329a565b61134f565b6040516104a69190613385565b60405180910390f35b6104c960048036038101906104c49190613201565b6113ba565b005b6104e560048036038101906104e09190613201565b611476565b6040516104f29190613249565b60405180910390f35b610503611493565b6040516105109190613465565b60405180910390f35b610533600480360381019061052e9190613201565b6114a4565b005b61053d6114fa565b005b61055960048036038101906105549190613201565b61150e565b005b61057560048036038101906105709190613201565b611564565b005b610591600480360381019061058c9190613201565b611620565b005b6105ad60048036038101906105a89190613201565b611676565b005b6105c960048036038101906105c49190613201565b611732565b005b6105d36117ee565b6040516105e09190613465565b60405180910390f35b6105f16117ff565b6040516105fe91906134d6565b60405180910390f35b610621600480360381019061061c9190613201565b611828565b005b61063d60048036038101906106389190613201565b61187e565b005b61065960048036038101906106549190613201565b6118d4565b6040516106669190613249565b60405180910390f35b610689600480360381019061068491906134f1565b6118f1565b005b6106a560048036038101906106a09190613201565b611c0c565b005b6106c160048036038101906106bc9190613201565b611c62565b6040516106ce9190613249565b60405180910390f35b6106df611c7f565b6040516106ec9190613465565b60405180910390f35b61070f600480360381019061070a9190613760565b611c90565b005b61072b6004803603810190610726919061329a565b6124aa565b60405161074099989796959493929190613885565b60405180910390f35b610763600480360381019061075e9190613201565b612565565b6040516107709190613a88565b60405180910390f35b610793600480360381019061078e919061329a565b612773565b6040516107a09190613465565b60405180910390f35b6107c360048036038101906107be919061329a565b612814565b005b6107df60048036038101906107da9190613201565b612a3b565b005b6107fb60048036038101906107f6919061329a565b612a91565b6040516108089190613385565b60405180910390f35b61082b60048036038101906108269190613201565b612afc565b005b610835612bb8565b6040516108429190613aaa565b60405180910390f35b61086560048036038101906108609190613201565b612bc9565b005b61086f612c4d565b60405161087c9190613465565b60405180910390f35b61089f600480360381019061089a9190613201565b612c5e565b6040516108ac9190613249565b60405180910390f35b60006108cb826003612d2e90919063ffffffff16565b9050919050565b60606010600083815260200190815260200160002080548060200260200160405190810160405280929190818152602001828054801561093157602002820191906000526020600020905b81548152602001906001019080831161091d575b50505050509050919050565b6060600e60008381526020019081526020016000208054806020026020016040519081016040528092919081815260200182805480156109d257602002820191906000526020600020905b8160009054906101000a900473ffffffffffffffffffffffffffffffffffffffff1673ffffffffffffffffffffffffffffffffffffffff1681526020019060010190808311610988575b50505050509050919050565b6109e7336108b5565b6109f057600080fd5b6109f981611c62565b610a38576040517f08c379a0000000000000000000000000000000000000000000000000000000008152600401610a2f90613b48565b60405180910390fd5b60006009600084815260200190815260200160002060405180610120016040529081600082015481526020016001820160009054906101000a900460ff166004811115610a8857610a8761380e565b5b6004811115610a9a57610a9961380e565b5b8152602001600282015481526020016003820154815260200160048201548152602001600582015481526020016006820160009054906101000a900473ffffffffffffffffffffffffffffffffffffffff1673ffffffffffffffffffffffffffffffffffffffff1673ffffffffffffffffffffffffffffffffffffffff1681526020016007820160009054906101000a900473ffffffffffffffffffffffffffffffffffffffff1673ffffffffffffffffffffffffffffffffffffffff1673ffffffffffffffffffffffffffffffffffffffff1681526020016008820160009054906101000a900473ffffffffffffffffffffffffffffffffffffffff1673ffffffffffffffffffffffffffffffffffffffff1673ffffffffffffffffffffffffffffffffffffffff1681525050905060008160c0015190503382610100019073ffffffffffffffffffffffffffffffffffffffff16908173ffffffffffffffffffffffffffffffffffffffff1681525050828260e0019073ffffffffffffffffffffffffffffffffffffffff16908173ffffffffffffffffffffffffffffffffffffffff1681525050600182602001906004811115610c5d57610c5c61380e565b5b90816004811115610c7157610c7061380e565b5b8152505081600960008681526020019081526020016000206000820151816000015560208201518160010160006101000a81548160ff02191690836004811115610cbe57610cbd61380e565b5b021790555060408201518160020155606082015181600301556080820151816004015560a0820151816005015560c08201518160060160006101000a81548173ffffffffffffffffffffffffffffffffffffffff021916908373ffffffffffffffffffffffffffffffffffffffff16021790555060e08201518160070160006101000a81548173ffffffffffffffffffffffffffffffffffffffff021916908373ffffffffffffffffffffffffffffffffffffffff1602179055506101008201518160080160006101000a81548173ffffffffffffffffffffffffffffffffffffffff021916908373ffffffffffffffffffffffffffffffffffffffff160217905550905050600a60008473ffffffffffffffffffffffffffffffffffffffff1673ffffffffffffffffffffffffffffffffffffffff1681526020019081526020016000208290806001815401808255809150506001900390600052602060002090600902016000909190919091506000820151816000015560208201518160010160006101000a81548160ff02191690836004811115610e6257610e6161380e565b5b021790555060408201518160020155606082015181600301556080820151816004015560a0820151816005015560c08201518160060160006101000a81548173ffffffffffffffffffffffffffffffffffffffff021916908373ffffffffffffffffffffffffffffffffffffffff16021790555060e08201518160070160006101000a81548173ffffffffffffffffffffffffffffffffffffffff021916908373ffffffffffffffffffffffffffffffffffffffff1602179055506101008201518160080160006101000a81548173ffffffffffffffffffffffffffffffffffffffff021916908373ffffffffffffffffffffffffffffffffffffffff1602179055505050600760009054906101000a900473ffffffffffffffffffffffffffffffffffffffff1673ffffffffffffffffffffffffffffffffffffffff1663e51a27ce823387600160006040518663ffffffff1660e01b8152600401610fcc959493929190613c45565b600060405180830381600087803b158015610fe657600080fd5b505af1158015610ffa573d6000803e3d6000fd5b505050507f84fad793fc72a4890032a0a48ea25fb57401690403f128ee2aaf047af876291c8460405161102d9190613aaa565b60405180910390a150505050565b60606110476002612de5565b905090565b6000611062826006612d2e90919063ffffffff16565b9050919050565b611071612e77565b611085816003612c7b90919063ffffffff16565b7f5a8fb443d09cf1426e80f80dd509757d71d4687674ab4adad906c5e2b6e1e62c816040516110b491906134d6565b60405180910390a150565b8073ffffffffffffffffffffffffffffffffffffffff163373ffffffffffffffffffffffffffffffffffffffff161461112d576040517f08c379a000000000000000000000000000000000000000000000000000000000815260040161112490613cf7565b60405180910390fd5b611141816006612ef590919063ffffffff16565b7f4709990004724f283154297c090b8420d74dcbf9ffcd6bc50294e7350c7cb4fc8160405161117091906134d6565b60405180910390a150565b6060600f60008381526020019081526020016000208054806020026020016040519081016040528092919081815260200182805480156111da57602002820191906000526020600020905b8154815260200190600101908083116111c6575b50505050509050919050565b6111ee612e77565b611202816001612c7b90919063ffffffff16565b7fa3da795b47eb190084f878e63c07509e5f6df63ebc51443c0ccab2fc11c0d8838160405161123191906134d6565b60405180910390a150565b611244612e77565b611258816003612ef590919063ffffffff16565b7f3d4e7057f9f992c8d86344002642adf5d5cd33816b302134e7ef5e0f045a6e788160405161128791906134d6565b60405180910390a150565b61129a612e77565b6112ae816001612ef590919063ffffffff16565b7fccc03dfae55d568292686488ccd27bcdc249a89347bf1c13a2115a29062618b7816040516112dd91906134d6565b60405180910390a150565b6112f0612e77565b611304816004612ef590919063ffffffff16565b7f43dd2f8ce4e5873e618ffabcae9856729ea5811dbc5e1c9be4365fcf7b7cf7038160405161133391906134d6565b60405180910390a150565b606061134a6004612de5565b905090565b6060600d60008381526020019081526020016000208054806020026020016040519081016040528092919081815260200182805480156113ae57602002820191906000526020600020905b81548152602001906001019080831161139a575b50505050509050919050565b8073ffffffffffffffffffffffffffffffffffffffff163373ffffffffffffffffffffffffffffffffffffffff1614611428576040517f08c379a000000000000000000000000000000000000000000000000000000000815260040161141f90613cf7565b60405180910390fd5b61143c816004612ef590919063ffffffff16565b7f43dd2f8ce4e5873e618ffabcae9856729ea5811dbc5e1c9be4365fcf7b7cf7038160405161146b91906134d6565b60405180910390a150565b600061148c826005612d2e90919063ffffffff16565b9050919050565b606061149f6006612de5565b905090565b6114ac612e77565b6114c0816005612ef590919063ffffffff16565b7f200c3f073f217cf07dee57ee6e42c29e5fa6937f536b65c9d1e06be1f9c83dc1816040516114ef91906134d6565b60405180910390a150565b611502612e77565b61150c600061309f565b565b611516612e77565b61152a816004612c7b90919063ffffffff16565b7f3afd547f7eb357741de51229846ae795cb06449e4b4032eb34a7cc0a751e25c18160405161155991906134d6565b60405180910390a150565b8073ffffffffffffffffffffffffffffffffffffffff163373ffffffffffffffffffffffffffffffffffffffff16146115d2576040517f08c379a00000000000000000000000000000000000000000000000000000000081526004016115c990613cf7565b60405180910390fd5b6115e6816001612ef590919063ffffffff16565b7fccc03dfae55d568292686488ccd27bcdc249a89347bf1c13a2115a29062618b78160405161161591906134d6565b60405180910390a150565b611628612e77565b61163c816002612c7b90919063ffffffff16565b7f364ee90eb63717b99192fdb951c7b1aa91a45bca11ac73ab40cfad762631fbce8160405161166b91906134d6565b60405180910390a150565b8073ffffffffffffffffffffffffffffffffffffffff163373ffffffffffffffffffffffffffffffffffffffff16146116e4576040517f08c379a00000000000000000000000000000000000000000000000000000000081526004016116db90613cf7565b60405180910390fd5b6116f8816003612ef590919063ffffffff16565b7f3d4e7057f9f992c8d86344002642adf5d5cd33816b302134e7ef5e0f045a6e788160405161172791906134d6565b60405180910390a150565b8073ffffffffffffffffffffffffffffffffffffffff163373ffffffffffffffffffffffffffffffffffffffff16146117a0576040517f08c379a000000000000000000000000000000000000000000000000000000000815260040161179790613cf7565b60405180910390fd5b6117b4816002612ef590919063ffffffff16565b7f9cfe362d8a536c3b63d391e311186b7f259fdd498eecf5d32626fe9b95058a7d816040516117e391906134d6565b60405180910390a150565b60606117fa6003612de5565b905090565b60008060009054906101000a900473ffffffffffffffffffffffffffffffffffffffff16905090565b611830612e77565b611844816006612ef590919063ffffffff16565b7f4709990004724f283154297c090b8420d74dcbf9ffcd6bc50294e7350c7cb4fc8160405161187391906134d6565b60405180910390a150565b611886612e77565b61189a816005612c7b90919063ffffffff16565b7f0eea60f9e1851b51feed56c339be177ea715591923622a0effe46dbb8885efa6816040516118c991906134d6565b60405180910390a150565b60006118ea826004612d2e90919063ffffffff16565b9050919050565b6118fa33612c5e565b611939576040517f08c379a000000000000000000000000000000000000000000000000000000000815260040161193090613d63565b60405180910390fd5b60006119456008613163565b905060006040518061012001604052808381526020016000600481111561196f5761196e61380e565b5b8152602001868152602001858152602001848152602001600081526020013373ffffffffffffffffffffffffffffffffffffffff168152602001600073ffffffffffffffffffffffffffffffffffffffff168152602001600073ffffffffffffffffffffffffffffffffffffffff16815250905080600960008481526020019081526020016000206000820151816000015560208201518160010160006101000a81548160ff02191690836004811115611a2c57611a2b61380e565b5b021790555060408201518160020155606082015181600301556080820151816004015560a0820151816005015560c08201518160060160006101000a81548173ffffffffffffffffffffffffffffffffffffffff021916908373ffffffffffffffffffffffffffffffffffffffff16021790555060e08201518160070160006101000a81548173ffffffffffffffffffffffffffffffffffffffff021916908373ffffffffffffffffffffffffffffffffffffffff1602179055506101008201518160080160006101000a81548173ffffffffffffffffffffffffffffffffffffffff021916908373ffffffffffffffffffffffffffffffffffffffff160217905550905050600760009054906101000a900473ffffffffffffffffffffffffffffffffffffffff1673ffffffffffffffffffffffffffffffffffffffff1663156e29f6338460016040518463ffffffff1660e01b8152600401611b9293929190613d83565b600060405180830381600087803b158015611bac57600080fd5b505af1158015611bc0573d6000803e3d6000fd5b50505050611bce6008613171565b7f8dba83ab26c4e67ac150487b6c119e69498289b9cc6c7dfd77fd0df2e671b48b82604051611bfd9190613aaa565b60405180910390a15050505050565b611c14612e77565b611c28816006612c7b90919063ffffffff16565b7f23b2415a50efd127e694ba174e400d457ad65c58752e171b6d17f3f5daa26fdb81604051611c5791906134d6565b60405180910390a150565b6000611c78826002612d2e90919063ffffffff16565b9050919050565b6060611c8b6001612de5565b905090565b611c99336108b5565b611ca257600080fd5b60018311611caf57600080fd5b60006009600086815260200190815260200160002060405180610120016040529081600082015481526020016001820160009054906101000a900460ff166004811115611cff57611cfe61380e565b5b6004811115611d1157611d1061380e565b5b8152602001600282015481526020016003820154815260200160048201548152602001600582015481526020016006820160009054906101000a900473ffffffffffffffffffffffffffffffffffffffff1673ffffffffffffffffffffffffffffffffffffffff1673ffffffffffffffffffffffffffffffffffffffff1681526020016007820160009054906101000a900473ffffffffffffffffffffffffffffffffffffffff1673ffffffffffffffffffffffffffffffffffffffff1673ffffffffffffffffffffffffffffffffffffffff1681526020016008820160009054906101000a900473ffffffffffffffffffffffffffffffffffffffff1673ffffffffffffffffffffffffffffffffffffffff1673ffffffffffffffffffffffffffffffffffffffff16815250509050600281602001906004811115611e5a57611e5961380e565b5b90816004811115611e6e57611e6d61380e565b5b81525050838160a0018181525050600760009054906101000a900473ffffffffffffffffffffffffffffffffffffffff1673ffffffffffffffffffffffffffffffffffffffff1663156e29f63387600188611ec99190613de9565b6040518463ffffffff1660e01b8152600401611ee793929190613e1d565b600060405180830381600087803b158015611f0157600080fd5b505af1158015611f15573d6000803e3d6000fd5b505050506000805b84518110156121a857611f49858281518110611f3c57611f3b613e54565b5b60200260200101516118d4565b611f88576040517f08c379a0000000000000000000000000000000000000000000000000000000008152600401611f7f90613ef5565b60405180910390fd5b600b6000888152602001908152602001600020858281518110611fae57611fad613e54565b5b60200260200101519080600181540180825580915050600190039060005260206000200160009091909190916101000a81548173ffffffffffffffffffffffffffffffffffffffff021916908373ffffffffffffffffffffffffffffffffffffffff160217905550600c600088815260200190815260200160002084828151811061203c5761203b613e54565b5b60200260200101519080600181540180825580915050600190039060005260206000200160009091909190915055600d6000888152602001908152602001600020829080600181540180825580915050600190039060005260206000200160009091909190915055600760009054906101000a900473ffffffffffffffffffffffffffffffffffffffff1673ffffffffffffffffffffffffffffffffffffffff1663e51a27ce338784815181106120f6576120f5613e54565b5b60200260200101518a88868151811061211257612111613e54565b5b6020026020010151876040518663ffffffff1660e01b815260040161213b959493929190613f15565b600060405180830381600087803b15801561215557600080fd5b505af1158015612169573d6000803e3d6000fd5b505050508381815181106121805761217f613e54565b5b6020026020010151826121939190613f7b565b915080806121a090613fd1565b915050611f1d565b5081600960008881526020019081526020016000206000820151816000015560208201518160010160006101000a81548160ff021916908360048111156121f2576121f161380e565b5b021790555060408201518160020155606082015181600301556080820151816004015560a0820151816005015560c08201518160060160006101000a81548173ffffffffffffffffffffffffffffffffffffffff021916908373ffffffffffffffffffffffffffffffffffffffff16021790555060e08201518160070160006101000a81548173ffffffffffffffffffffffffffffffffffffffff021916908373ffffffffffffffffffffffffffffffffffffffff1602179055506101008201518160080160006101000a81548173ffffffffffffffffffffffffffffffffffffffff021916908373ffffffffffffffffffffffffffffffffffffffff1602179055509050506000600a60008460e0015173ffffffffffffffffffffffffffffffffffffffff1673ffffffffffffffffffffffffffffffffffffffff168152602001908152602001600020805490509050600081111561246a5760005b818110156124685787600a60008660e0015173ffffffffffffffffffffffffffffffffffffffff1673ffffffffffffffffffffffffffffffffffffffff16815260200190815260200160002082815481106123ad576123ac613e54565b5b9060005260206000209060090201600001541415612455576002600a60008660e0015173ffffffffffffffffffffffffffffffffffffffff1673ffffffffffffffffffffffffffffffffffffffff168152602001908152602001600020828154811061241c5761241b613e54565b5b906000526020600020906009020160010160006101000a81548160ff0219169083600481111561244f5761244e61380e565b5b02179055505b808061246090613fd1565b91505061234f565b505b7f01e7f4af78fe812a5df0e0b3c5b400eff1cd1366eca03a2261de317ae5f6727b876040516124999190613aaa565b60405180910390a150505050505050565b60096020528060005260406000206000915090508060000154908060010160009054906101000a900460ff16908060020154908060030154908060040154908060050154908060060160009054906101000a900473ffffffffffffffffffffffffffffffffffffffff16908060070160009054906101000a900473ffffffffffffffffffffffffffffffffffffffff16908060080160009054906101000a900473ffffffffffffffffffffffffffffffffffffffff16905089565b6060600a60008373ffffffffffffffffffffffffffffffffffffffff1673ffffffffffffffffffffffffffffffffffffffff168152602001908152602001600020805480602002602001604051908101604052809291908181526020016000905b82821015612768578382906000526020600020906009020160405180610120016040529081600082015481526020016001820160009054906101000a900460ff1660048111156126195761261861380e565b5b600481111561262b5761262a61380e565b5b8152602001600282015481526020016003820154815260200160048201548152602001600582015481526020016006820160009054906101000a900473ffffffffffffffffffffffffffffffffffffffff1673ffffffffffffffffffffffffffffffffffffffff1673ffffffffffffffffffffffffffffffffffffffff1681526020016007820160009054906101000a900473ffffffffffffffffffffffffffffffffffffffff1673ffffffffffffffffffffffffffffffffffffffff1673ffffffffffffffffffffffffffffffffffffffff1681526020016008820160009054906101000a900473ffffffffffffffffffffffffffffffffffffffff1673ffffffffffffffffffffffffffffffffffffffff1673ffffffffffffffffffffffffffffffffffffffff1681525050815260200190600101906125c6565b505050509050919050565b6060600b600083815260200190815260200160002080548060200260200160405190810160405280929190818152602001828054801561280857602002820191906000526020600020905b8160009054906101000a900473ffffffffffffffffffffffffffffffffffffffff1673ffffffffffffffffffffffffffffffffffffffff16815260200190600101908083116127be575b50505050509050919050565b61281d336118d4565b61282657600080fd5b600080600061283484612773565b905060005b81518110156129fd57600073ffffffffffffffffffffffffffffffffffffffff1682828151811061286d5761286c613e54565b5b602002602001015173ffffffffffffffffffffffffffffffffffffffff16141580156128de57503373ffffffffffffffffffffffffffffffffffffffff168282815181106128be576128bd613e54565b5b602002602001015173ffffffffffffffffffffffffffffffffffffffff16145b156129ea576128ec85612a91565b81815181106128fe576128fd613e54565b5b602002602001015193506129118561134f565b818151811061292357612922613e54565b5b60200260200101519250600b6000868152602001908152602001600020818154811061295257612951613e54565b5b9060005260206000200160006101000a81549073ffffffffffffffffffffffffffffffffffffffff0219169055600c600086815260200190815260200160002081815481106129a4576129a3613e54565b5b9060005260206000200160009055600d600086815260200190815260200160002081815481106129d7576129d6613e54565b5b90600052602060002001600090556129fd565b80806129f590613fd1565b915050612839565b507fb9f01075be5d71ca908e0aae338e241c77af5da8fbd7d476d37de1c8634dc0e284604051612a2d9190613aaa565b60405180910390a150505050565b612a43612e77565b612a57816002612ef590919063ffffffff16565b7f9cfe362d8a536c3b63d391e311186b7f259fdd498eecf5d32626fe9b95058a7d81604051612a8691906134d6565b60405180910390a150565b6060600c6000838152602001908152602001600020805480602002602001604051908101604052809291908181526020018280548015612af057602002820191906000526020600020905b815481526020019060010190808311612adc575b50505050509050919050565b8073ffffffffffffffffffffffffffffffffffffffff163373ffffffffffffffffffffffffffffffffffffffff1614612b6a576040517f08c379a0000000000000000000000000000000000000000000000000000000008152600401612b6190613cf7565b60405180910390fd5b612b7e816005612ef590919063ffffffff16565b7f200c3f073f217cf07dee57ee6e42c29e5fa6937f536b65c9d1e06be1f9c83dc181604051612bad91906134d6565b60405180910390a150565b6000612bc46008613163565b905090565b612bd1612e77565b600073ffffffffffffffffffffffffffffffffffffffff168173ffffffffffffffffffffffffffffffffffffffff161415612c41576040517f08c379a0000000000000000000000000000000000000000000000000000000008152600401612c389061408c565b60405180910390fd5b612c4a8161309f565b50565b6060612c596005612de5565b905090565b6000612c74826001612d2e90919063ffffffff16565b9050919050565b612c858282612d2e565b15612cc5576040517f08c379a0000000000000000000000000000000000000000000000000000000008152600401612cbc906140f8565b60405180910390fd5b81600001819080600181540180825580915050600190039060005260206000200160009091909190916101000a81548173ffffffffffffffffffffffffffffffffffffffff021916908373ffffffffffffffffffffffffffffffffffffffff1602179055505050565b6000808360000180549050905060005b81811015612dd8578373ffffffffffffffffffffffffffffffffffffffff16856000018281548110612d7357612d72613e54565b5b9060005260206000200160009054906101000a900473ffffffffffffffffffffffffffffffffffffffff1673ffffffffffffffffffffffffffffffffffffffff161415612dc557600192505050612ddf565b8080612dd090613fd1565b915050612d3e565b5060009150505b92915050565b606081600001805480602002602001604051908101604052809291908181526020018280548015612e6b57602002820191906000526020600020905b8160009054906101000a900473ffffffffffffffffffffffffffffffffffffffff1673ffffffffffffffffffffffffffffffffffffffff1681526020019060010190808311612e21575b50505050509050919050565b612e7f613187565b73ffffffffffffffffffffffffffffffffffffffff16612e9d6117ff565b73ffffffffffffffffffffffffffffffffffffffff1614612ef3576040517f08c379a0000000000000000000000000000000000000000000000000000000008152600401612eea90614164565b60405180910390fd5b565b600082600001805490509050600080600090505b8281101561304f578115612fc357846000018181548110612f2d57612f2c613e54565b5b9060005260206000200160009054906101000a900473ffffffffffffffffffffffffffffffffffffffff1685600001600183612f699190613de9565b81548110612f7a57612f79613e54565b5b9060005260206000200160006101000a81548173ffffffffffffffffffffffffffffffffffffffff021916908373ffffffffffffffffffffffffffffffffffffffff1602179055505b8373ffffffffffffffffffffffffffffffffffffffff16856000018281548110612ff057612fef613e54565b5b9060005260206000200160009054906101000a900473ffffffffffffffffffffffffffffffffffffffff1673ffffffffffffffffffffffffffffffffffffffff16141561303c57600191505b808061304790613fd1565b915050612f09565b508360000180548061306457613063614184565b5b6001900381819060005260206000200160006101000a81549073ffffffffffffffffffffffffffffffffffffffff0219169055905550505050565b60008060009054906101000a900473ffffffffffffffffffffffffffffffffffffffff169050816000806101000a81548173ffffffffffffffffffffffffffffffffffffffff021916908373ffffffffffffffffffffffffffffffffffffffff1602179055508173ffffffffffffffffffffffffffffffffffffffff168173ffffffffffffffffffffffffffffffffffffffff167f8be0079c531659141344cd1fd0a4f28419497f9722a3daafe3b4186f6b6457e060405160405180910390a35050565b600081600001549050919050565b6001816000016000828254019250508190555050565b600033905090565b6000604051905090565b600080fd5b600080fd5b600073ffffffffffffffffffffffffffffffffffffffff82169050919050565b60006131ce826131a3565b9050919050565b6131de816131c3565b81146131e957600080fd5b50565b6000813590506131fb816131d5565b92915050565b60006020828403121561321757613216613199565b5b6000613225848285016131ec565b91505092915050565b60008115159050919050565b6132438161322e565b82525050565b600060208201905061325e600083018461323a565b92915050565b6000819050919050565b61327781613264565b811461328257600080fd5b50565b6000813590506132948161326e565b92915050565b6000602082840312156132b0576132af613199565b5b60006132be84828501613285565b91505092915050565b600081519050919050565b600082825260208201905092915050565b6000819050602082019050919050565b6132fc81613264565b82525050565b600061330e83836132f3565b60208301905092915050565b6000602082019050919050565b6000613332826132c7565b61333c81856132d2565b9350613347836132e3565b8060005b8381101561337857815161335f8882613302565b975061336a8361331a565b92505060018101905061334b565b5085935050505092915050565b6000602082019050818103600083015261339f8184613327565b905092915050565b600081519050919050565b600082825260208201905092915050565b6000819050602082019050919050565b6133dc816131c3565b82525050565b60006133ee83836133d3565b60208301905092915050565b6000602082019050919050565b6000613412826133a7565b61341c81856133b2565b9350613427836133c3565b8060005b8381101561345857815161343f88826133e2565b975061344a836133fa565b92505060018101905061342b565b5085935050505092915050565b6000602082019050818103600083015261347f8184613407565b905092915050565b6000806040838503121561349e5761349d613199565b5b60006134ac85828601613285565b92505060206134bd858286016131ec565b9150509250929050565b6134d0816131c3565b82525050565b60006020820190506134eb60008301846134c7565b92915050565b60008060006060848603121561350a57613509613199565b5b600061351886828701613285565b935050602061352986828701613285565b925050604061353a86828701613285565b9150509250925092565b600080fd5b6000601f19601f8301169050919050565b7f4e487b7100000000000000000000000000000000000000000000000000000000600052604160045260246000fd5b61359282613549565b810181811067ffffffffffffffff821117156135b1576135b061355a565b5b80604052505050565b60006135c461318f565b90506135d08282613589565b919050565b600067ffffffffffffffff8211156135f0576135ef61355a565b5b602082029050602081019050919050565b600080fd5b6000613619613614846135d5565b6135ba565b9050808382526020820190506020840283018581111561363c5761363b613601565b5b835b81811015613665578061365188826131ec565b84526020840193505060208101905061363e565b5050509392505050565b600082601f83011261368457613683613544565b5b8135613694848260208601613606565b91505092915050565b600067ffffffffffffffff8211156136b8576136b761355a565b5b602082029050602081019050919050565b60006136dc6136d78461369d565b6135ba565b905080838252602082019050602084028301858111156136ff576136fe613601565b5b835b8181101561372857806137148882613285565b845260208401935050602081019050613701565b5050509392505050565b600082601f83011261374757613746613544565b5b81356137578482602086016136c9565b91505092915050565b6000806000806080858703121561377a57613779613199565b5b600061378887828801613285565b945050602061379987828801613285565b935050604085013567ffffffffffffffff8111156137ba576137b961319e565b5b6137c68782880161366f565b925050606085013567ffffffffffffffff8111156137e7576137e661319e565b5b6137f387828801613732565b91505092959194509250565b61380881613264565b82525050565b7f4e487b7100000000000000000000000000000000000000000000000000000000600052602160045260246000fd5b6005811061384e5761384d61380e565b5b50565b600081905061385f8261383d565b919050565b600061386f82613851565b9050919050565b61387f81613864565b82525050565b60006101208201905061389b600083018c6137ff565b6138a8602083018b613876565b6138b5604083018a6137ff565b6138c260608301896137ff565b6138cf60808301886137ff565b6138dc60a08301876137ff565b6138e960c08301866134c7565b6138f660e08301856134c7565b6139046101008301846134c7565b9a9950505050505050505050565b600081519050919050565b600082825260208201905092915050565b6000819050602082019050919050565b61394781613864565b82525050565b6101208201600082015161396460008501826132f3565b506020820151613977602085018261393e565b50604082015161398a60408501826132f3565b50606082015161399d60608501826132f3565b5060808201516139b060808501826132f3565b5060a08201516139c360a08501826132f3565b5060c08201516139d660c08501826133d3565b5060e08201516139e960e08501826133d3565b506101008201516139fe6101008501826133d3565b50505050565b6000613a10838361394d565b6101208301905092915050565b6000602082019050919050565b6000613a3582613912565b613a3f818561391d565b9350613a4a8361392e565b8060005b83811015613a7b578151613a628882613a04565b9750613a6d83613a1d565b925050600181019050613a4e565b5085935050505092915050565b60006020820190508181036000830152613aa28184613a2a565b905092915050565b6000602082019050613abf60008301846137ff565b92915050565b600082825260208201905092915050565b7f4e4f5420412056414c49442057415245484f555345204144445245535320212060008201527f504c4541534520434f4e544143542041444d494e000000000000000000000000602082015250565b6000613b32603483613ac5565b9150613b3d82613ad6565b604082019050919050565b60006020820190508181036000830152613b6181613b25565b9050919050565b6000819050919050565b6000819050919050565b6000613b97613b92613b8d84613b68565b613b72565b613264565b9050919050565b613ba781613b7c565b82525050565b600082825260208201905092915050565b7f3078303000000000000000000000000000000000000000000000000000000000600082015250565b6000613bf4600483613bad565b9150613bff82613bbe565b602082019050919050565b6000819050919050565b6000613c2f613c2a613c2584613c0a565b613b72565b613264565b9050919050565b613c3f81613c14565b82525050565b600060c082019050613c5a60008301886134c7565b613c6760208301876134c7565b613c7460408301866137ff565b613c816060830185613b9e565b8181036080830152613c9281613be7565b9050613ca160a0830184613c36565b9695505050505050565b7f594f555f43414e5f4e4f545f524f4d4f56455f544849535f4144445245535300600082015250565b6000613ce1601f83613ac5565b9150613cec82613cab565b602082019050919050565b60006020820190508181036000830152613d1081613cd4565b9050919050565b7f4e6f74206120526177204d6174657269616c20537570706c6965720000000000600082015250565b6000613d4d601b83613ac5565b9150613d5882613d17565b602082019050919050565b60006020820190508181036000830152613d7c81613d40565b9050919050565b6000606082019050613d9860008301866134c7565b613da560208301856137ff565b613db26040830184613b9e565b949350505050565b7f4e487b7100000000000000000000000000000000000000000000000000000000600052601160045260246000fd5b6000613df482613264565b9150613dff83613264565b925082821015613e1257613e11613dba565b5b828203905092915050565b6000606082019050613e3260008301866134c7565b613e3f60208301856137ff565b613e4c60408301846137ff565b949350505050565b7f4e487b7100000000000000000000000000000000000000000000000000000000600052603260045260246000fd5b7f4e4f5420412056414c4944204449535452494255544f5220414444524553532060008201527f2120504c4541534520434f4e544143542041444d494e00000000000000000000602082015250565b6000613edf603683613ac5565b9150613eea82613e83565b604082019050919050565b60006020820190508181036000830152613f0e81613ed2565b9050919050565b600060c082019050613f2a60008301886134c7565b613f3760208301876134c7565b613f4460408301866137ff565b613f5160608301856137ff565b8181036080830152613f6281613be7565b9050613f7160a08301846137ff565b9695505050505050565b6000613f8682613264565b9150613f9183613264565b9250827fffffffffffffffffffffffffffffffffffffffffffffffffffffffffffffffff03821115613fc657613fc5613dba565b5b828201905092915050565b6000613fdc82613264565b91507fffffffffffffffffffffffffffffffffffffffffffffffffffffffffffffffff82141561400f5761400e613dba565b5b600182019050919050565b7f4f776e61626c653a206e6577206f776e657220697320746865207a65726f206160008201527f6464726573730000000000000000000000000000000000000000000000000000602082015250565b6000614076602683613ac5565b91506140818261401a565b604082019050919050565b600060208201905081810360008301526140a581614069565b9050919050565b7f524f4c455f414c52454144595f45584953545300000000000000000000000000600082015250565b60006140e2601383613ac5565b91506140ed826140ac565b602082019050919050565b60006020820190508181036000830152614111816140d5565b9050919050565b7f4f776e61626c653a2063616c6c6572206973206e6f7420746865206f776e6572600082015250565b600061414e602083613ac5565b915061415982614118565b602082019050919050565b6000602082019050818103600083015261417d81614141565b9050919050565b7f4e487b7100000000000000000000000000000000000000000000000000000000600052603160045260246000fdfea2646970667358221220f308f3f5f88ef6eebc3c2f6e6cb91a0c89aae9d4ea0575b58580d9d5e936c9f464736f6c63430008080033",
  "linkReferences": {},
  "deployedLinkReferences": {}
}