{
  "_format": "hh-sol-artifact-1",
  "contractName": "Supplychain",
  "sourceName": "contracts/Supplychain.sol",
  "abi": [
    {
      "inputs": [
        {
          "internalType": "address",
          "name": "_supplychainToken",
          "type": "address"
        }
      ],
      "stateMutability": "nonpayable",
      "type": "constructor"
    },
    {
      "anonymous": false,
      "inputs": [
        {
          "indexed": false,
          "internalType": "address",
          "name": "_address",
          "type": "address"
        }
      ],
      "name": "AddCustomer",
      "type": "event"
    },
    {
      "anonymous": false,
      "inputs": [
        {
          "indexed": false,
          "internalType": "address",
          "name": "_address",
          "type": "address"
        }
      ],
      "name": "AddDistributor",
      "type": "event"
    },
    {
      "anonymous": false,
      "inputs": [
        {
          "indexed": false,
          "internalType": "address",
          "name": "_address",
          "type": "address"
        }
      ],
      "name": "AddFactory",
      "type": "event"
    },
    {
      "anonymous": false,
      "inputs": [
        {
          "indexed": false,
          "internalType": "address",
          "name": "_address",
          "type": "address"
        }
      ],
      "name": "AddRawMaterialSupplier",
      "type": "event"
    },
    {
      "anonymous": false,
      "inputs": [
        {
          "indexed": false,
          "internalType": "address",
          "name": "_address",
          "type": "address"
        }
      ],
      "name": "AddRetailer",
      "type": "event"
    },
    {
      "anonymous": false,
      "inputs": [
        {
          "indexed": false,
          "internalType": "address",
          "name": "_address",
          "type": "address"
        }
      ],
      "name": "AddWarehouse",
      "type": "event"
    },
    {
      "anonymous": false,
      "inputs": [
        {
          "indexed": false,
          "internalType": "uint256",
          "name": "_supplyChainId",
          "type": "uint256"
        }
      ],
      "name": "DistributorSellToRetailer",
      "type": "event"
    },
    {
      "anonymous": false,
      "inputs": [
        {
          "indexed": false,
          "internalType": "uint256",
          "name": "_supplyChainId",
          "type": "uint256"
        }
      ],
      "name": "FactoryBuyRawMaterial",
      "type": "event"
    },
    {
      "anonymous": false,
      "inputs": [
        {
          "indexed": false,
          "internalType": "uint256",
          "name": "_supplyChainId",
          "type": "uint256"
        }
      ],
      "name": "FactorySellItemToDistributors",
      "type": "event"
    },
    {
      "anonymous": false,
      "inputs": [
        {
          "indexed": true,
          "internalType": "address",
          "name": "previousOwner",
          "type": "address"
        },
        {
          "indexed": true,
          "internalType": "address",
          "name": "newOwner",
          "type": "address"
        }
      ],
      "name": "OwnershipTransferred",
      "type": "event"
    },
    {
      "anonymous": false,
      "inputs": [
        {
          "indexed": false,
          "internalType": "uint256",
          "name": "_supplyChainId",
          "type": "uint256"
        }
      ],
      "name": "RawMaterialSupplierSuppliesRM",
      "type": "event"
    },
    {
      "anonymous": false,
      "inputs": [
        {
          "indexed": false,
          "internalType": "address",
          "name": "_address",
          "type": "address"
        }
      ],
      "name": "RemoveCustomer",
      "type": "event"
    },
    {
      "anonymous": false,
      "inputs": [
        {
          "indexed": false,
          "internalType": "address",
          "name": "_address",
          "type": "address"
        }
      ],
      "name": "RemoveDistributor",
      "type": "event"
    },
    {
      "anonymous": false,
      "inputs": [
        {
          "indexed": false,
          "internalType": "address",
          "name": "_address",
          "type": "address"
        }
      ],
      "name": "RemoveFactory",
      "type": "event"
    },
    {
      "anonymous": false,
      "inputs": [
        {
          "indexed": false,
          "internalType": "address",
          "name": "_address",
          "type": "address"
        }
      ],
      "name": "RemoveRawMaterialSupplier",
      "type": "event"
    },
    {
      "anonymous": false,
      "inputs": [
        {
          "indexed": false,
          "internalType": "address",
          "name": "_address",
          "type": "address"
        }
      ],
      "name": "RemoveRetailer",
      "type": "event"
    },
    {
      "anonymous": false,
      "inputs": [
        {
          "indexed": false,
          "internalType": "address",
          "name": "_address",
          "type": "address"
        }
      ],
      "name": "RemoveWarehouse",
      "type": "event"
    },
    {
      "anonymous": false,
      "inputs": [
        {
          "indexed": false,
          "internalType": "uint256",
          "name": "_supplyChainId",
          "type": "uint256"
        }
      ],
      "name": "RetailerSellToCustomer",
      "type": "event"
    },
    {
      "inputs": [
        {
          "internalType": "uint256",
          "name": "",
          "type": "uint256"
        }
      ],
      "name": "YarnDetails",
      "outputs": [
        {
          "internalType": "uint256",
          "name": "YarnAmount",
          "type": "uint256"
        },
        {
          "internalType": "string",
          "name": "YarnColor",
          "type": "string"
        },
        {
          "internalType": "string",
          "name": "YarnType",
          "type": "string"
        }
      ],
      "stateMutability": "view",
      "type": "function"
    },
    {
      "inputs": [
        {
          "internalType": "address",
          "name": "_address",
          "type": "address"
        }
      ],
      "name": "addCustomer",
      "outputs": [],
      "stateMutability": "nonpayable",
      "type": "function"
    },
    {
      "inputs": [
        {
          "internalType": "address",
          "name": "_address",
          "type": "address"
        }
      ],
      "name": "addDistributor",
      "outputs": [],
      "stateMutability": "nonpayable",
      "type": "function"
    },
    {
      "inputs": [
        {
          "internalType": "address",
          "name": "_address",
          "type": "address"
        }
      ],
      "name": "addFactory",
      "outputs": [],
      "stateMutability": "nonpayable",
      "type": "function"
    },
    {
      "inputs": [
        {
          "internalType": "address",
          "name": "_address",
          "type": "address"
        }
      ],
      "name": "addRawMaterialSupplier",
      "outputs": [],
      "stateMutability": "nonpayable",
      "type": "function"
    },
    {
      "inputs": [
        {
          "internalType": "address",
          "name": "_address",
          "type": "address"
        }
      ],
      "name": "addRetailer",
      "outputs": [],
      "stateMutability": "nonpayable",
      "type": "function"
    },
    {
      "inputs": [
        {
          "internalType": "address",
          "name": "_address",
          "type": "address"
        }
      ],
      "name": "addWarehouse",
      "outputs": [],
      "stateMutability": "nonpayable",
      "type": "function"
    },
    {
      "inputs": [
        {
          "internalType": "uint256",
          "name": "_supplyChainId",
          "type": "uint256"
        },
        {
          "internalType": "address[]",
          "name": "retailers",
          "type": "address[]"
        },
        {
          "internalType": "uint256[]",
          "name": "quantity",
          "type": "uint256[]"
        }
      ],
      "name": "distributorSellToRetailer",
      "outputs": [],
      "stateMutability": "nonpayable",
      "type": "function"
    },
    {
      "inputs": [
        {
          "internalType": "uint256",
          "name": "_supplyChainId",
          "type": "uint256"
        },
        {
          "internalType": "address",
          "name": "_warehouse",
          "type": "address"
        },
        {
          "internalType": "uint256",
          "name": "_polysteramount",
          "type": "uint256"
        },
        {
          "internalType": "uint256",
          "name": "_cottonamount",
          "type": "uint256"
        },
        {
          "internalType": "uint256",
          "name": "_woolamount",
          "type": "uint256"
        }
      ],
      "name": "factoryBuyRawMaterial",
      "outputs": [],
      "stateMutability": "nonpayable",
      "type": "function"
    },
    {
      "inputs": [
        {
          "internalType": "uint256",
          "name": "_supplyChainId",
          "type": "uint256"
        },
        {
          "internalType": "uint256",
          "name": "_totalUnits",
          "type": "uint256"
        },
        {
          "internalType": "string",
          "name": "_description",
          "type": "string"
        }
      ],
      "name": "factoryCompleteGarmentManufacturing",
      "outputs": [],
      "stateMutability": "nonpayable",
      "type": "function"
    },
    {
      "inputs": [
        {
          "internalType": "uint256",
          "name": "_supplyChainId",
          "type": "uint256"
        },
        {
          "internalType": "uint256",
          "name": "_yarnAmount",
          "type": "uint256"
        },
        {
          "internalType": "string",
          "name": "_yarnColor",
          "type": "string"
        },
        {
          "internalType": "string",
          "name": "_yarnType",
          "type": "string"
        }
      ],
      "name": "factoryCompleteSpinningWaeving",
      "outputs": [],
      "stateMutability": "nonpayable",
      "type": "function"
    },
    {
      "inputs": [
        {
          "internalType": "uint256",
          "name": "_supplyChainId",
          "type": "uint256"
        },
        {
          "internalType": "address[]",
          "name": "distributors",
          "type": "address[]"
        },
        {
          "internalType": "uint256[]",
          "name": "quantity",
          "type": "uint256[]"
        }
      ],
      "name": "factorySellItemToDistributors",
      "outputs": [],
      "stateMutability": "nonpayable",
      "type": "function"
    },
    {
      "inputs": [],
      "name": "getCustomer",
      "outputs": [
        {
          "internalType": "address[]",
          "name": "",
          "type": "address[]"
        }
      ],
      "stateMutability": "view",
      "type": "function"
    },
    {
      "inputs": [],
      "name": "getDistributor",
      "outputs": [
        {
          "internalType": "address[]",
          "name": "",
          "type": "address[]"
        }
      ],
      "stateMutability": "view",
      "type": "function"
    },
    {
      "inputs": [
        {
          "internalType": "uint256",
          "name": "_supplychianId",
          "type": "uint256"
        }
      ],
      "name": "getDistributorCounters",
      "outputs": [
        {
          "internalType": "uint256[]",
          "name": "",
          "type": "uint256[]"
        }
      ],
      "stateMutability": "view",
      "type": "function"
    },
    {
      "inputs": [
        {
          "internalType": "uint256",
          "name": "_supplychianId",
          "type": "uint256"
        }
      ],
      "name": "getDistributorUnits",
      "outputs": [
        {
          "internalType": "uint256[]",
          "name": "",
          "type": "uint256[]"
        }
      ],
      "stateMutability": "view",
      "type": "function"
    },
    {
      "inputs": [
        {
          "internalType": "uint256",
          "name": "_supplychianId",
          "type": "uint256"
        }
      ],
      "name": "getDistributors",
      "outputs": [
        {
          "internalType": "address[]",
          "name": "",
          "type": "address[]"
        }
      ],
      "stateMutability": "view",
      "type": "function"
    },
    {
      "inputs": [],
      "name": "getFactory",
      "outputs": [
        {
          "internalType": "address[]",
          "name": "",
          "type": "address[]"
        }
      ],
      "stateMutability": "view",
      "type": "function"
    },
    {
      "inputs": [],
      "name": "getRawMaterialSupplier",
      "outputs": [
        {
          "internalType": "address[]",
          "name": "",
          "type": "address[]"
        }
      ],
      "stateMutability": "view",
      "type": "function"
    },
    {
      "inputs": [],
      "name": "getRetailer",
      "outputs": [
        {
          "internalType": "address[]",
          "name": "",
          "type": "address[]"
        }
      ],
      "stateMutability": "view",
      "type": "function"
    },
    {
      "inputs": [
        {
          "internalType": "uint256",
          "name": "_supplychianId",
          "type": "uint256"
        }
      ],
      "name": "getRetailers",
      "outputs": [
        {
          "internalType": "address[]",
          "name": "",
          "type": "address[]"
        }
      ],
      "stateMutability": "view",
      "type": "function"
    },
    {
      "inputs": [
        {
          "internalType": "uint256",
          "name": "_supplychianId",
          "type": "uint256"
        }
      ],
      "name": "getRetailersCounters",
      "outputs": [
        {
          "internalType": "uint256[]",
          "name": "",
          "type": "uint256[]"
        }
      ],
      "stateMutability": "view",
      "type": "function"
    },
    {
      "inputs": [
        {
          "internalType": "uint256",
          "name": "_supplychianId",
          "type": "uint256"
        }
      ],
      "name": "getRetailersUnits",
      "outputs": [
        {
          "internalType": "uint256[]",
          "name": "",
          "type": "uint256[]"
        }
      ],
      "stateMutability": "view",
      "type": "function"
    },
    {
      "inputs": [],
      "name": "getWarehouse",
      "outputs": [
        {
          "internalType": "address[]",
          "name": "",
          "type": "address[]"
        }
      ],
      "stateMutability": "view",
      "type": "function"
    },
    {
      "inputs": [
        {
          "internalType": "address",
          "name": "warehouse",
          "type": "address"
        }
      ],
      "name": "getWarehouseItems",
      "outputs": [
        {
          "components": [
            {
              "internalType": "uint256",
              "name": "supplyChainId",
              "type": "uint256"
            },
            {
              "internalType": "enum Supplychain.State",
              "name": "itemState",
              "type": "uint8"
            },
            {
              "internalType": "uint256",
              "name": "PolyesterAmount",
              "type": "uint256"
            },
            {
              "internalType": "uint256",
              "name": "CottonAmount",
              "type": "uint256"
            },
            {
              "internalType": "uint256",
              "name": "WoolAmount",
              "type": "uint256"
            },
            {
              "internalType": "uint256",
              "name": "totalUnits",
              "type": "uint256"
            },
            {
              "internalType": "string",
              "name": "Description",
              "type": "string"
            },
            {
              "internalType": "address",
              "name": "RawMaterialSupplierID",
              "type": "address"
            },
            {
              "internalType": "address",
              "name": "warehouseID",
              "type": "address"
            },
            {
              "internalType": "address",
              "name": "factoryID",
              "type": "address"
            }
          ],
          "internalType": "struct Supplychain.Item[]",
          "name": "",
          "type": "tuple[]"
        }
      ],
      "stateMutability": "view",
      "type": "function"
    },
    {
      "inputs": [
        {
          "internalType": "address",
          "name": "_address",
          "type": "address"
        }
      ],
      "name": "isCustomer",
      "outputs": [
        {
          "internalType": "bool",
          "name": "",
          "type": "bool"
        }
      ],
      "stateMutability": "view",
      "type": "function"
    },
    {
      "inputs": [
        {
          "internalType": "address",
          "name": "_address",
          "type": "address"
        }
      ],
      "name": "isDistributor",
      "outputs": [
        {
          "internalType": "bool",
          "name": "",
          "type": "bool"
        }
      ],
      "stateMutability": "view",
      "type": "function"
    },
    {
      "inputs": [
        {
          "internalType": "address",
          "name": "_address",
          "type": "address"
        }
      ],
      "name": "isFactory",
      "outputs": [
        {
          "internalType": "bool",
          "name": "",
          "type": "bool"
        }
      ],
      "stateMutability": "view",
      "type": "function"
    },
    {
      "inputs": [
        {
          "internalType": "address",
          "name": "_address",
          "type": "address"
        }
      ],
      "name": "isRawMaterialSupplier",
      "outputs": [
        {
          "internalType": "bool",
          "name": "",
          "type": "bool"
        }
      ],
      "stateMutability": "view",
      "type": "function"
    },
    {
      "inputs": [
        {
          "internalType": "address",
          "name": "_address",
          "type": "address"
        }
      ],
      "name": "isRetailer",
      "outputs": [
        {
          "internalType": "bool",
          "name": "",
          "type": "bool"
        }
      ],
      "stateMutability": "view",
      "type": "function"
    },
    {
      "inputs": [
        {
          "internalType": "address",
          "name": "_address",
          "type": "address"
        }
      ],
      "name": "isWarehouse",
      "outputs": [
        {
          "internalType": "bool",
          "name": "",
          "type": "bool"
        }
      ],
      "stateMutability": "view",
      "type": "function"
    },
    {
      "inputs": [
        {
          "internalType": "uint256",
          "name": "",
          "type": "uint256"
        }
      ],
      "name": "items",
      "outputs": [
        {
          "internalType": "uint256",
          "name": "supplyChainId",
          "type": "uint256"
        },
        {
          "internalType": "enum Supplychain.State",
          "name": "itemState",
          "type": "uint8"
        },
        {
          "internalType": "uint256",
          "name": "PolyesterAmount",
          "type": "uint256"
        },
        {
          "internalType": "uint256",
          "name": "CottonAmount",
          "type": "uint256"
        },
        {
          "internalType": "uint256",
          "name": "WoolAmount",
          "type": "uint256"
        },
        {
          "internalType": "uint256",
          "name": "totalUnits",
          "type": "uint256"
        },
        {
          "internalType": "string",
          "name": "Description",
          "type": "string"
        },
        {
          "internalType": "address",
          "name": "RawMaterialSupplierID",
          "type": "address"
        },
        {
          "internalType": "address",
          "name": "warehouseID",
          "type": "address"
        },
        {
          "internalType": "address",
          "name": "factoryID",
          "type": "address"
        }
      ],
      "stateMutability": "view",
      "type": "function"
    },
    {
      "inputs": [],
      "name": "owner",
      "outputs": [
        {
          "internalType": "address",
          "name": "",
          "type": "address"
        }
      ],
      "stateMutability": "view",
      "type": "function"
    },
    {
      "inputs": [
        {
          "internalType": "uint256",
          "name": "_polyesterAmount",
          "type": "uint256"
        },
        {
          "internalType": "uint256",
          "name": "_cottonAmount",
          "type": "uint256"
        },
        {
          "internalType": "uint256",
          "name": "_woolAmount",
          "type": "uint256"
        }
      ],
      "name": "rawMaterialSupplierSuppliesRM",
      "outputs": [],
      "stateMutability": "nonpayable",
      "type": "function"
    },
    {
      "inputs": [
        {
          "internalType": "address",
          "name": "_address",
          "type": "address"
        }
      ],
      "name": "removeCustomer",
      "outputs": [],
      "stateMutability": "nonpayable",
      "type": "function"
    },
    {
      "inputs": [
        {
          "internalType": "address",
          "name": "_address",
          "type": "address"
        }
      ],
      "name": "removeCustomerSelf",
      "outputs": [],
      "stateMutability": "nonpayable",
      "type": "function"
    },
    {
      "inputs": [
        {
          "internalType": "address",
          "name": "_address",
          "type": "address"
        }
      ],
      "name": "removeDistributor",
      "outputs": [],
      "stateMutability": "nonpayable",
      "type": "function"
    },
    {
      "inputs": [
        {
          "internalType": "address",
          "name": "_address",
          "type": "address"
        }
      ],
      "name": "removeDistributorSelf",
      "outputs": [],
      "stateMutability": "nonpayable",
      "type": "function"
    },
    {
      "inputs": [
        {
          "internalType": "address",
          "name": "_address",
          "type": "address"
        }
      ],
      "name": "removeFactory",
      "outputs": [],
      "stateMutability": "nonpayable",
      "type": "function"
    },
    {
      "inputs": [
        {
          "internalType": "address",
          "name": "_address",
          "type": "address"
        }
      ],
      "name": "removeFactorySelf",
      "outputs": [],
      "stateMutability": "nonpayable",
      "type": "function"
    },
    {
      "inputs": [
        {
          "internalType": "address",
          "name": "_address",
          "type": "address"
        }
      ],
      "name": "removeRawMaterialSupplier",
      "outputs": [],
      "stateMutability": "nonpayable",
      "type": "function"
    },
    {
      "inputs": [
        {
          "internalType": "address",
          "name": "_address",
          "type": "address"
        }
      ],
      "name": "removeRawMaterialSupplierSelf",
      "outputs": [],
      "stateMutability": "nonpayable",
      "type": "function"
    },
    {
      "inputs": [
        {
          "internalType": "address",
          "name": "_address",
          "type": "address"
        }
      ],
      "name": "removeRetailer",
      "outputs": [],
      "stateMutability": "nonpayable",
      "type": "function"
    },
    {
      "inputs": [
        {
          "internalType": "address",
          "name": "_address",
          "type": "address"
        }
      ],
      "name": "removeRetailerSelf",
      "outputs": [],
      "stateMutability": "nonpayable",
      "type": "function"
    },
    {
      "inputs": [
        {
          "internalType": "address",
          "name": "_address",
          "type": "address"
        }
      ],
      "name": "removeSelfWarehouse",
      "outputs": [],
      "stateMutability": "nonpayable",
      "type": "function"
    },
    {
      "inputs": [
        {
          "internalType": "address",
          "name": "_address",
          "type": "address"
        }
      ],
      "name": "removeWarehouse",
      "outputs": [],
      "stateMutability": "nonpayable",
      "type": "function"
    },
    {
      "inputs": [],
      "name": "renounceOwnership",
      "outputs": [],
      "stateMutability": "nonpayable",
      "type": "function"
    },
    {
      "inputs": [
        {
          "internalType": "uint256",
          "name": "",
          "type": "uint256"
        },
        {
          "internalType": "address",
          "name": "",
          "type": "address"
        }
      ],
      "name": "retailerTimeStamp",
      "outputs": [
        {
          "internalType": "uint256",
          "name": "",
          "type": "uint256"
        }
      ],
      "stateMutability": "view",
      "type": "function"
    },
    {
      "inputs": [
        {
          "internalType": "uint256",
          "name": "",
          "type": "uint256"
        },
        {
          "internalType": "uint256",
          "name": "",
          "type": "uint256"
        }
      ],
      "name": "timeStamps",
      "outputs": [
        {
          "internalType": "uint256",
          "name": "",
          "type": "uint256"
        }
      ],
      "stateMutability": "view",
      "type": "function"
    },
    {
      "inputs": [],
      "name": "totalBatchs",
      "outputs": [
        {
          "internalType": "uint256",
          "name": "",
          "type": "uint256"
        }
      ],
      "stateMutability": "view",
      "type": "function"
    },
    {
      "inputs": [
        {
          "internalType": "address",
          "name": "newOwner",
          "type": "address"
        }
      ],
      "name": "transferOwnership",
      "outputs": [],
      "stateMutability": "nonpayable",
      "type": "function"
    }
  ],
  "bytecode": "0x60806040523480156200001157600080fd5b5060405162006a4b38038062006a4b8339818101604052810190620000379190620006dd565b620000576200004b6200010560201b60201c565b6200010d60201b60201c565b6200006833620001d160201b60201c565b62000079336200023860201b60201c565b6200008a336200029f60201b60201c565b6200009b336200030660201b60201c565b620000ac336200036d60201b60201c565b620000bd33620003d460201b60201c565b80600760006101000a81548173ffffffffffffffffffffffffffffffffffffffff021916908373ffffffffffffffffffffffffffffffffffffffff16021790555050620008e8565b600033905090565b60008060009054906101000a900473ffffffffffffffffffffffffffffffffffffffff169050816000806101000a81548173ffffffffffffffffffffffffffffffffffffffff021916908373ffffffffffffffffffffffffffffffffffffffff1602179055508173ffffffffffffffffffffffffffffffffffffffff168173ffffffffffffffffffffffffffffffffffffffff167f8be0079c531659141344cd1fd0a4f28419497f9722a3daafe3b4186f6b6457e060405160405180910390a35050565b620001e16200043b60201b60201c565b620001fc816001620004cc60201b620045bc1790919060201c565b7fa3da795b47eb190084f878e63c07509e5f6df63ebc51443c0ccab2fc11c0d883816040516200022d919062000720565b60405180910390a150565b620002486200043b60201b60201c565b62000263816002620004cc60201b620045bc1790919060201c565b7f364ee90eb63717b99192fdb951c7b1aa91a45bca11ac73ab40cfad762631fbce8160405162000294919062000720565b60405180910390a150565b620002af6200043b60201b60201c565b620002ca816003620004cc60201b620045bc1790919060201c565b7f5a8fb443d09cf1426e80f80dd509757d71d4687674ab4adad906c5e2b6e1e62c81604051620002fb919062000720565b60405180910390a150565b620003166200043b60201b60201c565b62000331816004620004cc60201b620045bc1790919060201c565b7f3afd547f7eb357741de51229846ae795cb06449e4b4032eb34a7cc0a751e25c18160405162000362919062000720565b60405180910390a150565b6200037d6200043b60201b60201c565b62000398816005620004cc60201b620045bc1790919060201c565b7f0eea60f9e1851b51feed56c339be177ea715591923622a0effe46dbb8885efa681604051620003c9919062000720565b60405180910390a150565b620003e46200043b60201b60201c565b620003ff816006620004cc60201b620045bc1790919060201c565b7f23b2415a50efd127e694ba174e400d457ad65c58752e171b6d17f3f5daa26fdb8160405162000430919062000720565b60405180910390a150565b6200044b6200010560201b60201c565b73ffffffffffffffffffffffffffffffffffffffff16620004716200058a60201b60201c565b73ffffffffffffffffffffffffffffffffffffffff1614620004ca576040517f08c379a0000000000000000000000000000000000000000000000000000000008152600401620004c1906200079e565b60405180910390fd5b565b620004de8282620005b360201b60201c565b1562000521576040517f08c379a0000000000000000000000000000000000000000000000000000000008152600401620005189062000810565b60405180910390fd5b81600001819080600181540180825580915050600190039060005260206000200160009091909190916101000a81548173ffffffffffffffffffffffffffffffffffffffff021916908373ffffffffffffffffffffffffffffffffffffffff1602179055505050565b60008060009054906101000a900473ffffffffffffffffffffffffffffffffffffffff16905090565b6000808360000180549050905060005b8181101562000666578373ffffffffffffffffffffffffffffffffffffffff16856000018281548110620005fc57620005fb62000832565b5b9060005260206000200160009054906101000a900473ffffffffffffffffffffffffffffffffffffffff1673ffffffffffffffffffffffffffffffffffffffff16141562000650576001925050506200066d565b80806200065d906200089a565b915050620005c3565b5060009150505b92915050565b600080fd5b600073ffffffffffffffffffffffffffffffffffffffff82169050919050565b6000620006a58262000678565b9050919050565b620006b78162000698565b8114620006c357600080fd5b50565b600081519050620006d781620006ac565b92915050565b600060208284031215620006f657620006f562000673565b5b60006200070684828501620006c6565b91505092915050565b6200071a8162000698565b82525050565b60006020820190506200073760008301846200070f565b92915050565b600082825260208201905092915050565b7f4f776e61626c653a2063616c6c6572206973206e6f7420746865206f776e6572600082015250565b6000620007866020836200073d565b915062000793826200074e565b602082019050919050565b60006020820190508181036000830152620007b98162000777565b9050919050565b7f524f4c455f414c52454144595f45584953545300000000000000000000000000600082015250565b6000620007f86013836200073d565b91506200080582620007c0565b602082019050919050565b600060208201905081810360008301526200082b81620007e9565b9050919050565b7f4e487b7100000000000000000000000000000000000000000000000000000000600052603260045260246000fd5b7f4e487b7100000000000000000000000000000000000000000000000000000000600052601160045260246000fd5b6000819050919050565b6000620008a78262000890565b91507fffffffffffffffffffffffffffffffffffffffffffffffffffffffffffffffff821415620008dd57620008dc62000861565b5b600182019050919050565b61615380620008f86000396000f3fe608060405234801561001057600080fd5b50600436106102f15760003560e01c806380bedacf1161019d578063bca4bd50116100e9578063e6647c5c116100a2578063eeb341331161007c578063eeb341331461095f578063f2fde38b1461097d578063f80d1ff014610999578063faf31e08146109b7576102f1565b8063e6647c5c146108e3578063e70a962b14610913578063e7d0831d14610943576102f1565b8063bca4bd50146107e0578063bdacda3114610810578063bfb231d21461082e578063bfed485614610867578063dafe1ef714610897578063e3c1a531146108c7576102f1565b80638da5cb5b116101565780638ec4f505116101305780638ec4f5051461075c5780638f0c86fa14610778578063a198d496146107a8578063ad973d74146107c4576102f1565b80638da5cb5b146106f25780638df378ff146107105780638eb06ccf14610740576102f1565b806380bedacf14610648578063814f696e146106645780638448051014610680578063862a68e31461069c5780638853ad75146106b857806388cc58e4146106d4576102f1565b80634c5eee0a1161025c5780635bf2791211610215578063678c12a2116101ef578063678c12a2146105ea57806370099ec814610606578063715018a6146106225780637250e2241461062c576102f1565b80635bf27912146105805780635da09b881461059c578063650d993b146105cc576102f1565b80634c5eee0a146104ac5780634d2ec64c146104c85780635166b5c8146104fa57806357c1f9e2146105165780635884965f146105325780635a96838314610550576102f1565b806328fd5e83116102ae57806328fd5e83146103dc57806329ce1ec51461040c5780632a7ec29f14610428578063319af857146104445780633c0e25a4146104745780634b37c73f14610490576102f1565b80630f04ba67146102f65780631af5dcf214610326578063201ef8f21461034257806320519bb01461035e578063209d353e1461038e5780632885b943146103be575b600080fd5b610310600480360381019061030b9190614be5565b6109e7565b60405161031d9190614c2d565b60405180910390f35b610340600480360381019061033b9190614e9a565b610a04565b005b61035c60048036038101906103579190614fda565b611337565b005b61037860048036038101906103739190615079565b611933565b6040516103859190615164565b60405180910390f35b6103a860048036038101906103a39190615079565b61199e565b6040516103b59190615244565b60405180910390f35b6103c6611a3f565b6040516103d39190615244565b60405180910390f35b6103f660048036038101906103f19190614be5565b611a50565b6040516104039190614c2d565b60405180910390f35b61042660048036038101906104219190614be5565b611a6d565b005b610442600480360381019061043d9190614be5565b611ac3565b005b61045e60048036038101906104599190615079565b611b7f565b60405161046b9190615164565b60405180910390f35b61048e60048036038101906104899190614be5565b611bea565b005b6104aa60048036038101906104a59190614be5565b611c40565b005b6104c660048036038101906104c19190615266565b611c96565b005b6104e260048036038101906104dd9190615079565b612277565b6040516104f19392919061536c565b60405180910390f35b610514600480360381019061050f9190614be5565b6123b1565b005b610530600480360381019061052b9190614be5565b612407565b005b61053a61245d565b6040516105479190615244565b60405180910390f35b61056a60048036038101906105659190615079565b61246e565b6040516105779190615164565b60405180910390f35b61059a60048036038101906105959190614be5565b6124d9565b005b6105b660048036038101906105b19190614be5565b612595565b6040516105c39190614c2d565b60405180910390f35b6105d46125b2565b6040516105e19190615244565b60405180910390f35b61060460048036038101906105ff9190614e9a565b6125c3565b005b610620600480360381019061061b9190614be5565b612ebc565b005b61062a612f12565b005b61064660048036038101906106419190614be5565b612f26565b005b610662600480360381019061065d9190614be5565b612f7c565b005b61067e60048036038101906106799190614be5565b613038565b005b61069a60048036038101906106959190614be5565b61308e565b005b6106b660048036038101906106b191906153b1565b61314a565b005b6106d260048036038101906106cd9190614be5565b6138d1565b005b6106dc61398d565b6040516106e99190615244565b60405180910390f35b6106fa61399e565b604051610707919061543b565b60405180910390f35b61072a60048036038101906107259190615456565b6139c7565b6040516107379190615496565b60405180910390f35b61075a60048036038101906107559190614be5565b6139ec565b005b61077660048036038101906107719190614be5565b613a42565b005b610792600480360381019061078d9190614be5565b613a98565b60405161079f9190614c2d565b60405180910390f35b6107c260048036038101906107bd91906154b1565b613ab5565b005b6107de60048036038101906107d99190614be5565b613e3d565b005b6107fa60048036038101906107f59190614be5565b613e93565b6040516108079190614c2d565b60405180910390f35b610818613eb0565b6040516108259190615244565b60405180910390f35b61084860048036038101906108439190615079565b613ec1565b60405161085e9a9998979695949392919061557b565b60405180910390f35b610881600480360381019061087c9190614be5565b61400a565b60405161088e9190615813565b60405180910390f35b6108b160048036038101906108ac9190615079565b6142aa565b6040516108be9190615244565b60405180910390f35b6108e160048036038101906108dc9190614be5565b61434b565b005b6108fd60048036038101906108f89190615835565b6143a1565b60405161090a9190615496565b60405180910390f35b61092d60048036038101906109289190615079565b6143d2565b60405161093a9190615164565b60405180910390f35b61095d60048036038101906109589190614be5565b61443d565b005b6109676144f9565b6040516109749190615496565b60405180910390f35b61099760048036038101906109929190614be5565b61450a565b005b6109a161458e565b6040516109ae9190615244565b60405180910390f35b6109d160048036038101906109cc9190614be5565b61459f565b6040516109de9190614c2d565b60405180910390f35b60006109fd82600361466f90919063ffffffff16565b9050919050565b610a0d33613a98565b610a1657600080fd5b6000806000600b600087815260200190815260200160002060405180610140016040529081600082015481526020016001820160009054906101000a900460ff166006811115610a6957610a68615504565b5b6006811115610a7b57610a7a615504565b5b815260200160028201548152602001600382015481526020016004820154815260200160058201548152602001600682018054610ab7906158a4565b80601f0160208091040260200160405190810160405280929190818152602001828054610ae3906158a4565b8015610b305780601f10610b0557610100808354040283529160200191610b30565b820191906000526020600020905b815481529060010190602001808311610b1357829003601f168201915b505050505081526020016007820160009054906101000a900473ffffffffffffffffffffffffffffffffffffffff1673ffffffffffffffffffffffffffffffffffffffff1673ffffffffffffffffffffffffffffffffffffffff1681526020016008820160009054906101000a900473ffffffffffffffffffffffffffffffffffffffff1673ffffffffffffffffffffffffffffffffffffffff1673ffffffffffffffffffffffffffffffffffffffff1681526020016009820160009054906101000a900473ffffffffffffffffffffffffffffffffffffffff1673ffffffffffffffffffffffffffffffffffffffff1673ffffffffffffffffffffffffffffffffffffffff16815250509050600581602001906006811115610c5657610c55615504565b5b90816006811115610c6a57610c69615504565b5b815250506000610c79876142aa565b905060005b8151811015610e4257600073ffffffffffffffffffffffffffffffffffffffff16828281518110610cb257610cb16158d6565b5b602002602001015173ffffffffffffffffffffffffffffffffffffffff1614158015610d2357503373ffffffffffffffffffffffffffffffffffffffff16828281518110610d0357610d026158d6565b5b602002602001015173ffffffffffffffffffffffffffffffffffffffff16145b15610e2f57610d31886143d2565b8181518110610d4357610d426158d6565b5b60200260200101519450610d568861246e565b8181518110610d6857610d676158d6565b5b60200260200101519350600d60008981526020019081526020016000208181548110610d9757610d966158d6565b5b9060005260206000200160006101000a81549073ffffffffffffffffffffffffffffffffffffffff0219169055600e60008981526020019081526020016000208181548110610de957610de86158d6565b5b9060005260206000200160009055600f60008981526020019081526020016000208181548110610e1c57610e1b6158d6565b5b9060005260206000200160009055610e42565b8080610e3a90615934565b915050610c7e565b5081600b60008981526020019081526020016000206000820151816000015560208201518160010160006101000a81548160ff02191690836006811115610e8c57610e8b615504565b5b021790555060408201518160020155606082015181600301556080820151816004015560a0820151816005015560c0820151816006019080519060200190610ed5929190614ad0565b5060e08201518160070160006101000a81548173ffffffffffffffffffffffffffffffffffffffff021916908373ffffffffffffffffffffffffffffffffffffffff1602179055506101008201518160080160006101000a81548173ffffffffffffffffffffffffffffffffffffffff021916908373ffffffffffffffffffffffffffffffffffffffff1602179055506101208201518160090160006101000a81548173ffffffffffffffffffffffffffffffffffffffff021916908373ffffffffffffffffffffffffffffffffffffffff16021790555090505060008411610ff3576040517f08c379a0000000000000000000000000000000000000000000000000000000008152600401610fea906159c9565b60405180910390fd5b600083905060005b87518110156112f55761102788828151811061101a576110196158d6565b5b6020026020010151612595565b611066576040517f08c379a000000000000000000000000000000000000000000000000000000000815260040161105d90615a5b565b60405180910390fd5b601060008a815260200190815260200160002088828151811061108c5761108b6158d6565b5b60200260200101519080600181540180825580915050600190039060005260206000200160009091909190916101000a81548173ffffffffffffffffffffffffffffffffffffffff021916908373ffffffffffffffffffffffffffffffffffffffff160217905550601160008a815260200190815260200160002087828151811061111a576111196158d6565b5b60200260200101519080600181540180825580915050600190039060005260206000200160009091909190915055601260008a8152602001908152602001600020829080600181540180825580915050600190039060005260206000200160009091909190915055600760009054906101000a900473ffffffffffffffffffffffffffffffffffffffff1673ffffffffffffffffffffffffffffffffffffffff1663e51a27ce338a84815181106111d4576111d36158d6565b5b60200260200101518c8b86815181106111f0576111ef6158d6565b5b6020026020010151876040518663ffffffff1660e01b8152600401611219959493929190615ad8565b600060405180830381600087803b15801561123357600080fd5b505af1158015611247573d6000803e3d6000fd5b5050505086818151811061125e5761125d6158d6565b5b6020026020010151826112719190615b3e565b915042601360008b815260200190815260200160002060008a848151811061129c5761129b6158d6565b5b602002602001015173ffffffffffffffffffffffffffffffffffffffff1673ffffffffffffffffffffffffffffffffffffffff1681526020019081526020016000208190555080806112ed90615934565b915050610ffb565b507fb9f01075be5d71ca908e0aae338e241c77af5da8fbd7d476d37de1c8634dc0e2886040516113259190615496565b60405180910390a15050505050505050565b611340336109e7565b61134957600080fd5b6000600b600086815260200190815260200160002060405180610140016040529081600082015481526020016001820160009054906101000a900460ff16600681111561139957611398615504565b5b60068111156113ab576113aa615504565b5b8152602001600282015481526020016003820154815260200160048201548152602001600582015481526020016006820180546113e7906158a4565b80601f0160208091040260200160405190810160405280929190818152602001828054611413906158a4565b80156114605780601f1061143557610100808354040283529160200191611460565b820191906000526020600020905b81548152906001019060200180831161144357829003601f168201915b505050505081526020016007820160009054906101000a900473ffffffffffffffffffffffffffffffffffffffff1673ffffffffffffffffffffffffffffffffffffffff1673ffffffffffffffffffffffffffffffffffffffff1681526020016008820160009054906101000a900473ffffffffffffffffffffffffffffffffffffffff1673ffffffffffffffffffffffffffffffffffffffff1673ffffffffffffffffffffffffffffffffffffffff1681526020016009820160009054906101000a900473ffffffffffffffffffffffffffffffffffffffff1673ffffffffffffffffffffffffffffffffffffffff1673ffffffffffffffffffffffffffffffffffffffff16815250509050836009600087815260200190815260200160002060000181905550826009600087815260200190815260200160002060010190805190602001906115b2929190614ad0565b50816009600087815260200190815260200160002060020190805190602001906115dd929190614ad0565b506002816020019060068111156115f7576115f6615504565b5b9081600681111561160b5761160a615504565b5b8152505080600b60008781526020019081526020016000206000820151816000015560208201518160010160006101000a81548160ff0219169083600681111561165857611657615504565b5b021790555060408201518160020155606082015181600301556080820151816004015560a0820151816005015560c08201518160060190805190602001906116a1929190614ad0565b5060e08201518160070160006101000a81548173ffffffffffffffffffffffffffffffffffffffff021916908373ffffffffffffffffffffffffffffffffffffffff1602179055506101008201518160080160006101000a81548173ffffffffffffffffffffffffffffffffffffffff021916908373ffffffffffffffffffffffffffffffffffffffff1602179055506101208201518160090160006101000a81548173ffffffffffffffffffffffffffffffffffffffff021916908373ffffffffffffffffffffffffffffffffffffffff1602179055509050506000600c600083610100015173ffffffffffffffffffffffffffffffffffffffff1673ffffffffffffffffffffffffffffffffffffffff16815260200190815260200160002080549050905060008111156118f15760005b818110156118ef5786600c600085610100015173ffffffffffffffffffffffffffffffffffffffff1673ffffffffffffffffffffffffffffffffffffffff1681526020019081526020016000208281548110611833576118326158d6565b5b90600052602060002090600a02016000015414156118dc576002600c600085610100015173ffffffffffffffffffffffffffffffffffffffff1673ffffffffffffffffffffffffffffffffffffffff16815260200190815260200160002082815481106118a3576118a26158d6565b5b90600052602060002090600a020160010160006101000a81548160ff021916908360068111156118d6576118d5615504565b5b02179055505b80806118e790615934565b9150506117d4565b505b600a6000878152602001908152602001600020429080600181540180825580915050600190039060005260206000200160009091909190915055505050505050565b60606012600083815260200190815260200160002080548060200260200160405190810160405280929190818152602001828054801561199257602002820191906000526020600020905b81548152602001906001019080831161197e575b50505050509050919050565b606060106000838152602001908152602001600020805480602002602001604051908101604052809291908181526020018280548015611a3357602002820191906000526020600020905b8160009054906101000a900473ffffffffffffffffffffffffffffffffffffffff1673ffffffffffffffffffffffffffffffffffffffff16815260200190600101908083116119e9575b50505050509050919050565b6060611a4b6002614726565b905090565b6000611a6682600661466f90919063ffffffff16565b9050919050565b611a756147b8565b611a898160036145bc90919063ffffffff16565b7f5a8fb443d09cf1426e80f80dd509757d71d4687674ab4adad906c5e2b6e1e62c81604051611ab8919061543b565b60405180910390a150565b8073ffffffffffffffffffffffffffffffffffffffff163373ffffffffffffffffffffffffffffffffffffffff1614611b31576040517f08c379a0000000000000000000000000000000000000000000000000000000008152600401611b2890615be0565b60405180910390fd5b611b4581600661483690919063ffffffff16565b7f4709990004724f283154297c090b8420d74dcbf9ffcd6bc50294e7350c7cb4fc81604051611b74919061543b565b60405180910390a150565b606060116000838152602001908152602001600020805480602002602001604051908101604052809291908181526020018280548015611bde57602002820191906000526020600020905b815481526020019060010190808311611bca575b50505050509050919050565b611bf26147b8565b611c068160016145bc90919063ffffffff16565b7fa3da795b47eb190084f878e63c07509e5f6df63ebc51443c0ccab2fc11c0d88381604051611c35919061543b565b60405180910390a150565b611c486147b8565b611c5c81600361483690919063ffffffff16565b7f3d4e7057f9f992c8d86344002642adf5d5cd33816b302134e7ef5e0f045a6e7881604051611c8b919061543b565b60405180910390a150565b611c9f336109e7565b611ca857600080fd5b6001821015611cec576040517f08c379a0000000000000000000000000000000000000000000000000000000008152600401611ce390615c4c565b60405180910390fd5b6000600b600085815260200190815260200160002060405180610140016040529081600082015481526020016001820160009054906101000a900460ff166006811115611d3c57611d3b615504565b5b6006811115611d4e57611d4d615504565b5b815260200160028201548152602001600382015481526020016004820154815260200160058201548152602001600682018054611d8a906158a4565b80601f0160208091040260200160405190810160405280929190818152602001828054611db6906158a4565b8015611e035780601f10611dd857610100808354040283529160200191611e03565b820191906000526020600020905b815481529060010190602001808311611de657829003601f168201915b505050505081526020016007820160009054906101000a900473ffffffffffffffffffffffffffffffffffffffff1673ffffffffffffffffffffffffffffffffffffffff1673ffffffffffffffffffffffffffffffffffffffff1681526020016008820160009054906101000a900473ffffffffffffffffffffffffffffffffffffffff1673ffffffffffffffffffffffffffffffffffffffff1673ffffffffffffffffffffffffffffffffffffffff1681526020016009820160009054906101000a900473ffffffffffffffffffffffffffffffffffffffff1673ffffffffffffffffffffffffffffffffffffffff1673ffffffffffffffffffffffffffffffffffffffff16815250509050828160a0018181525050818160c00181905250600381602001906006811115611f3c57611f3b615504565b5b90816006811115611f5057611f4f615504565b5b8152505080600b60008681526020019081526020016000206000820151816000015560208201518160010160006101000a81548160ff02191690836006811115611f9d57611f9c615504565b5b021790555060408201518160020155606082015181600301556080820151816004015560a0820151816005015560c0820151816006019080519060200190611fe6929190614ad0565b5060e08201518160070160006101000a81548173ffffffffffffffffffffffffffffffffffffffff021916908373ffffffffffffffffffffffffffffffffffffffff1602179055506101008201518160080160006101000a81548173ffffffffffffffffffffffffffffffffffffffff021916908373ffffffffffffffffffffffffffffffffffffffff1602179055506101208201518160090160006101000a81548173ffffffffffffffffffffffffffffffffffffffff021916908373ffffffffffffffffffffffffffffffffffffffff1602179055509050506000600c600083610100015173ffffffffffffffffffffffffffffffffffffffff1673ffffffffffffffffffffffffffffffffffffffff16815260200190815260200160002080549050905060008111156122365760005b818110156122345785600c600085610100015173ffffffffffffffffffffffffffffffffffffffff1673ffffffffffffffffffffffffffffffffffffffff1681526020019081526020016000208281548110612178576121776158d6565b5b90600052602060002090600a0201600001541415612221576003600c600085610100015173ffffffffffffffffffffffffffffffffffffffff1673ffffffffffffffffffffffffffffffffffffffff16815260200190815260200160002082815481106121e8576121e76158d6565b5b90600052602060002090600a020160010160006101000a81548160ff0219169083600681111561221b5761221a615504565b5b02179055505b808061222c90615934565b915050612119565b505b600a60008681526020019081526020016000204290806001815401808255809150506001900390600052602060002001600090919091909150555050505050565b60096020528060005260406000206000915090508060000154908060010180546122a0906158a4565b80601f01602080910402602001604051908101604052809291908181526020018280546122cc906158a4565b80156123195780601f106122ee57610100808354040283529160200191612319565b820191906000526020600020905b8154815290600101906020018083116122fc57829003601f168201915b50505050509080600201805461232e906158a4565b80601f016020809104026020016040519081016040528092919081815260200182805461235a906158a4565b80156123a75780601f1061237c576101008083540402835291602001916123a7565b820191906000526020600020905b81548152906001019060200180831161238a57829003601f168201915b5050505050905083565b6123b96147b8565b6123cd81600161483690919063ffffffff16565b7fccc03dfae55d568292686488ccd27bcdc249a89347bf1c13a2115a29062618b7816040516123fc919061543b565b60405180910390a150565b61240f6147b8565b61242381600461483690919063ffffffff16565b7f43dd2f8ce4e5873e618ffabcae9856729ea5811dbc5e1c9be4365fcf7b7cf70381604051612452919061543b565b60405180910390a150565b60606124696004614726565b905090565b6060600f60008381526020019081526020016000208054806020026020016040519081016040528092919081815260200182805480156124cd57602002820191906000526020600020905b8154815260200190600101908083116124b9575b50505050509050919050565b8073ffffffffffffffffffffffffffffffffffffffff163373ffffffffffffffffffffffffffffffffffffffff1614612547576040517f08c379a000000000000000000000000000000000000000000000000000000000815260040161253e90615be0565b60405180910390fd5b61255b81600461483690919063ffffffff16565b7f43dd2f8ce4e5873e618ffabcae9856729ea5811dbc5e1c9be4365fcf7b7cf7038160405161258a919061543b565b60405180910390a150565b60006125ab82600561466f90919063ffffffff16565b9050919050565b60606125be6006614726565b905090565b6125cc336109e7565b6125d557600080fd5b6000600b600085815260200190815260200160002060405180610140016040529081600082015481526020016001820160009054906101000a900460ff16600681111561262557612624615504565b5b600681111561263757612636615504565b5b815260200160028201548152602001600382015481526020016004820154815260200160058201548152602001600682018054612673906158a4565b80601f016020809104026020016040519081016040528092919081815260200182805461269f906158a4565b80156126ec5780601f106126c1576101008083540402835291602001916126ec565b820191906000526020600020905b8154815290600101906020018083116126cf57829003601f168201915b505050505081526020016007820160009054906101000a900473ffffffffffffffffffffffffffffffffffffffff1673ffffffffffffffffffffffffffffffffffffffff1673ffffffffffffffffffffffffffffffffffffffff1681526020016008820160009054906101000a900473ffffffffffffffffffffffffffffffffffffffff1673ffffffffffffffffffffffffffffffffffffffff1673ffffffffffffffffffffffffffffffffffffffff1681526020016009820160009054906101000a900473ffffffffffffffffffffffffffffffffffffffff1673ffffffffffffffffffffffffffffffffffffffff1673ffffffffffffffffffffffffffffffffffffffff1681525050905060048160200190600681111561281257612811615504565b5b9081600681111561282657612825615504565b5b8152505060008160a001519050600760009054906101000a900473ffffffffffffffffffffffffffffffffffffffff1673ffffffffffffffffffffffffffffffffffffffff1663156e29f633876001856128809190615c6c565b6040518463ffffffff1660e01b815260040161289e93929190615ca0565b600060405180830381600087803b1580156128b857600080fd5b505af11580156128cc573d6000803e3d6000fd5b505050506000805b8551811015612b5f576129008682815181106128f3576128f26158d6565b5b6020026020010151613a98565b61293f576040517f08c379a000000000000000000000000000000000000000000000000000000000815260040161293690615d49565b60405180910390fd5b600d6000888152602001908152602001600020868281518110612965576129646158d6565b5b60200260200101519080600181540180825580915050600190039060005260206000200160009091909190916101000a81548173ffffffffffffffffffffffffffffffffffffffff021916908373ffffffffffffffffffffffffffffffffffffffff160217905550600e60008881526020019081526020016000208582815181106129f3576129f26158d6565b5b60200260200101519080600181540180825580915050600190039060005260206000200160009091909190915055600f6000888152602001908152602001600020829080600181540180825580915050600190039060005260206000200160009091909190915055600760009054906101000a900473ffffffffffffffffffffffffffffffffffffffff1673ffffffffffffffffffffffffffffffffffffffff1663e51a27ce33888481518110612aad57612aac6158d6565b5b60200260200101518a898681518110612ac957612ac86158d6565b5b6020026020010151876040518663ffffffff1660e01b8152600401612af2959493929190615ad8565b600060405180830381600087803b158015612b0c57600080fd5b505af1158015612b20573d6000803e3d6000fd5b50505050848181518110612b3757612b366158d6565b5b602002602001015182612b4a9190615b3e565b91508080612b5790615934565b9150506128d4565b5082600b60008881526020019081526020016000206000820151816000015560208201518160010160006101000a81548160ff02191690836006811115612ba957612ba8615504565b5b021790555060408201518160020155606082015181600301556080820151816004015560a0820151816005015560c0820151816006019080519060200190612bf2929190614ad0565b5060e08201518160070160006101000a81548173ffffffffffffffffffffffffffffffffffffffff021916908373ffffffffffffffffffffffffffffffffffffffff1602179055506101008201518160080160006101000a81548173ffffffffffffffffffffffffffffffffffffffff021916908373ffffffffffffffffffffffffffffffffffffffff1602179055506101208201518160090160006101000a81548173ffffffffffffffffffffffffffffffffffffffff021916908373ffffffffffffffffffffffffffffffffffffffff1602179055509050506000600c600085610100015173ffffffffffffffffffffffffffffffffffffffff1673ffffffffffffffffffffffffffffffffffffffff1681526020019081526020016000208054905090506000811115612e425760005b81811015612e405787600c600087610100015173ffffffffffffffffffffffffffffffffffffffff1673ffffffffffffffffffffffffffffffffffffffff1681526020019081526020016000208281548110612d8457612d836158d6565b5b90600052602060002090600a0201600001541415612e2d576004600c600087610100015173ffffffffffffffffffffffffffffffffffffffff1673ffffffffffffffffffffffffffffffffffffffff1681526020019081526020016000208281548110612df457612df36158d6565b5b90600052602060002090600a020160010160006101000a81548160ff02191690836006811115612e2757612e26615504565b5b02179055505b8080612e3890615934565b915050612d25565b505b600a60008881526020019081526020016000204290806001815401808255809150506001900390600052602060002001600090919091909150557f01e7f4af78fe812a5df0e0b3c5b400eff1cd1366eca03a2261de317ae5f6727b87604051612eab9190615496565b60405180910390a150505050505050565b612ec46147b8565b612ed881600561483690919063ffffffff16565b7f200c3f073f217cf07dee57ee6e42c29e5fa6937f536b65c9d1e06be1f9c83dc181604051612f07919061543b565b60405180910390a150565b612f1a6147b8565b612f2460006149e0565b565b612f2e6147b8565b612f428160046145bc90919063ffffffff16565b7f3afd547f7eb357741de51229846ae795cb06449e4b4032eb34a7cc0a751e25c181604051612f71919061543b565b60405180910390a150565b8073ffffffffffffffffffffffffffffffffffffffff163373ffffffffffffffffffffffffffffffffffffffff1614612fea576040517f08c379a0000000000000000000000000000000000000000000000000000000008152600401612fe190615be0565b60405180910390fd5b612ffe81600161483690919063ffffffff16565b7fccc03dfae55d568292686488ccd27bcdc249a89347bf1c13a2115a29062618b78160405161302d919061543b565b60405180910390a150565b6130406147b8565b6130548160026145bc90919063ffffffff16565b7f364ee90eb63717b99192fdb951c7b1aa91a45bca11ac73ab40cfad762631fbce81604051613083919061543b565b60405180910390a150565b8073ffffffffffffffffffffffffffffffffffffffff163373ffffffffffffffffffffffffffffffffffffffff16146130fc576040517f08c379a00000000000000000000000000000000000000000000000000000000081526004016130f390615be0565b60405180910390fd5b61311081600361483690919063ffffffff16565b7f3d4e7057f9f992c8d86344002642adf5d5cd33816b302134e7ef5e0f045a6e788160405161313f919061543b565b60405180910390a150565b613153336109e7565b61315c57600080fd5b61316584613e93565b6131a4576040517f08c379a000000000000000000000000000000000000000000000000000000000815260040161319b90615ddb565b60405180910390fd5b6000600b600087815260200190815260200160002060405180610140016040529081600082015481526020016001820160009054906101000a900460ff1660068111156131f4576131f3615504565b5b600681111561320657613205615504565b5b815260200160028201548152602001600382015481526020016004820154815260200160058201548152602001600682018054613242906158a4565b80601f016020809104026020016040519081016040528092919081815260200182805461326e906158a4565b80156132bb5780601f10613290576101008083540402835291602001916132bb565b820191906000526020600020905b81548152906001019060200180831161329e57829003601f168201915b505050505081526020016007820160009054906101000a900473ffffffffffffffffffffffffffffffffffffffff1673ffffffffffffffffffffffffffffffffffffffff1673ffffffffffffffffffffffffffffffffffffffff1681526020016008820160009054906101000a900473ffffffffffffffffffffffffffffffffffffffff1673ffffffffffffffffffffffffffffffffffffffff1673ffffffffffffffffffffffffffffffffffffffff1681526020016009820160009054906101000a900473ffffffffffffffffffffffffffffffffffffffff1673ffffffffffffffffffffffffffffffffffffffff1673ffffffffffffffffffffffffffffffffffffffff1681525050905060008160e0015190503382610120019073ffffffffffffffffffffffffffffffffffffffff16908173ffffffffffffffffffffffffffffffffffffffff16815250508582610100019073ffffffffffffffffffffffffffffffffffffffff16908173ffffffffffffffffffffffffffffffffffffffff168152505084826040018181525050838260600181815250508282608001818152505060018260200190600681111561347a57613479615504565b5b9081600681111561348e5761348d615504565b5b8152505081600b60008981526020019081526020016000206000820151816000015560208201518160010160006101000a81548160ff021916908360068111156134db576134da615504565b5b021790555060408201518160020155606082015181600301556080820151816004015560a0820151816005015560c0820151816006019080519060200190613524929190614ad0565b5060e08201518160070160006101000a81548173ffffffffffffffffffffffffffffffffffffffff021916908373ffffffffffffffffffffffffffffffffffffffff1602179055506101008201518160080160006101000a81548173ffffffffffffffffffffffffffffffffffffffff021916908373ffffffffffffffffffffffffffffffffffffffff1602179055506101208201518160090160006101000a81548173ffffffffffffffffffffffffffffffffffffffff021916908373ffffffffffffffffffffffffffffffffffffffff160217905550905050600c60008773ffffffffffffffffffffffffffffffffffffffff1673ffffffffffffffffffffffffffffffffffffffff1681526020019081526020016000208290806001815401808255809150506001900390600052602060002090600a02016000909190919091506000820151816000015560208201518160010160006101000a81548160ff0219169083600681111561369d5761369c615504565b5b021790555060408201518160020155606082015181600301556080820151816004015560a0820151816005015560c08201518160060190805190602001906136e6929190614ad0565b5060e08201518160070160006101000a81548173ffffffffffffffffffffffffffffffffffffffff021916908373ffffffffffffffffffffffffffffffffffffffff1602179055506101008201518160080160006101000a81548173ffffffffffffffffffffffffffffffffffffffff021916908373ffffffffffffffffffffffffffffffffffffffff1602179055506101208201518160090160006101000a81548173ffffffffffffffffffffffffffffffffffffffff021916908373ffffffffffffffffffffffffffffffffffffffff1602179055505050600760009054906101000a900473ffffffffffffffffffffffffffffffffffffffff1673ffffffffffffffffffffffffffffffffffffffff1663e51a27ce82338a600160006040518663ffffffff1660e01b8152600401613825959493929190615e7b565b600060405180830381600087803b15801561383f57600080fd5b505af1158015613853573d6000803e3d6000fd5b50505050600a60008881526020019081526020016000204290806001815401808255809150506001900390600052602060002001600090919091909150557f84fad793fc72a4890032a0a48ea25fb57401690403f128ee2aaf047af876291c876040516138c09190615496565b60405180910390a150505050505050565b8073ffffffffffffffffffffffffffffffffffffffff163373ffffffffffffffffffffffffffffffffffffffff161461393f576040517f08c379a000000000000000000000000000000000000000000000000000000000815260040161393690615be0565b60405180910390fd5b61395381600261483690919063ffffffff16565b7f9cfe362d8a536c3b63d391e311186b7f259fdd498eecf5d32626fe9b95058a7d81604051613982919061543b565b60405180910390a150565b60606139996003614726565b905090565b60008060009054906101000a900473ffffffffffffffffffffffffffffffffffffffff16905090565b6013602052816000526040600020602052806000526040600020600091509150505481565b6139f46147b8565b613a0881600661483690919063ffffffff16565b7f4709990004724f283154297c090b8420d74dcbf9ffcd6bc50294e7350c7cb4fc81604051613a37919061543b565b60405180910390a150565b613a4a6147b8565b613a5e8160056145bc90919063ffffffff16565b7f0eea60f9e1851b51feed56c339be177ea715591923622a0effe46dbb8885efa681604051613a8d919061543b565b60405180910390a150565b6000613aae82600461466f90919063ffffffff16565b9050919050565b613abe3361459f565b613afd576040517f08c379a0000000000000000000000000000000000000000000000000000000008152600401613af490615f2d565b60405180910390fd5b6000613b096008614aa4565b9050600060405180610140016040528083815260200160006006811115613b3357613b32615504565b5b8152602001868152602001858152602001848152602001600081526020016040518060200160405280600081525081526020013373ffffffffffffffffffffffffffffffffffffffff168152602001600073ffffffffffffffffffffffffffffffffffffffff168152602001600073ffffffffffffffffffffffffffffffffffffffff16815250905080600b60008481526020019081526020016000206000820151816000015560208201518160010160006101000a81548160ff02191690836006811115613c0557613c04615504565b5b021790555060408201518160020155606082015181600301556080820151816004015560a0820151816005015560c0820151816006019080519060200190613c4e929190614ad0565b5060e08201518160070160006101000a81548173ffffffffffffffffffffffffffffffffffffffff021916908373ffffffffffffffffffffffffffffffffffffffff1602179055506101008201518160080160006101000a81548173ffffffffffffffffffffffffffffffffffffffff021916908373ffffffffffffffffffffffffffffffffffffffff1602179055506101208201518160090160006101000a81548173ffffffffffffffffffffffffffffffffffffffff021916908373ffffffffffffffffffffffffffffffffffffffff160217905550905050600760009054906101000a900473ffffffffffffffffffffffffffffffffffffffff1673ffffffffffffffffffffffffffffffffffffffff1663156e29f6338460016040518463ffffffff1660e01b8152600401613d8993929190615f4d565b600060405180830381600087803b158015613da357600080fd5b505af1158015613db7573d6000803e3d6000fd5b50505050613dc56008614ab2565b600a60008381526020019081526020016000204290806001815401808255809150506001900390600052602060002001600090919091909150557f8dba83ab26c4e67ac150487b6c119e69498289b9cc6c7dfd77fd0df2e671b48b82604051613e2e9190615496565b60405180910390a15050505050565b613e456147b8565b613e598160066145bc90919063ffffffff16565b7f23b2415a50efd127e694ba174e400d457ad65c58752e171b6d17f3f5daa26fdb81604051613e88919061543b565b60405180910390a150565b6000613ea982600261466f90919063ffffffff16565b9050919050565b6060613ebc6001614726565b905090565b600b6020528060005260406000206000915090508060000154908060010160009054906101000a900460ff1690806002015490806003015490806004015490806005015490806006018054613f15906158a4565b80601f0160208091040260200160405190810160405280929190818152602001828054613f41906158a4565b8015613f8e5780601f10613f6357610100808354040283529160200191613f8e565b820191906000526020600020905b815481529060010190602001808311613f7157829003601f168201915b5050505050908060070160009054906101000a900473ffffffffffffffffffffffffffffffffffffffff16908060080160009054906101000a900473ffffffffffffffffffffffffffffffffffffffff16908060090160009054906101000a900473ffffffffffffffffffffffffffffffffffffffff1690508a565b6060600c60008373ffffffffffffffffffffffffffffffffffffffff1673ffffffffffffffffffffffffffffffffffffffff168152602001908152602001600020805480602002602001604051908101604052809291908181526020016000905b8282101561429f57838290600052602060002090600a020160405180610140016040529081600082015481526020016001820160009054906101000a900460ff1660068111156140be576140bd615504565b5b60068111156140d0576140cf615504565b5b81526020016002820154815260200160038201548152602001600482015481526020016005820154815260200160068201805461410c906158a4565b80601f0160208091040260200160405190810160405280929190818152602001828054614138906158a4565b80156141855780601f1061415a57610100808354040283529160200191614185565b820191906000526020600020905b81548152906001019060200180831161416857829003601f168201915b505050505081526020016007820160009054906101000a900473ffffffffffffffffffffffffffffffffffffffff1673ffffffffffffffffffffffffffffffffffffffff1673ffffffffffffffffffffffffffffffffffffffff1681526020016008820160009054906101000a900473ffffffffffffffffffffffffffffffffffffffff1673ffffffffffffffffffffffffffffffffffffffff1673ffffffffffffffffffffffffffffffffffffffff1681526020016009820160009054906101000a900473ffffffffffffffffffffffffffffffffffffffff1673ffffffffffffffffffffffffffffffffffffffff1673ffffffffffffffffffffffffffffffffffffffff16815250508152602001906001019061406b565b505050509050919050565b6060600d600083815260200190815260200160002080548060200260200160405190810160405280929190818152602001828054801561433f57602002820191906000526020600020905b8160009054906101000a900473ffffffffffffffffffffffffffffffffffffffff1673ffffffffffffffffffffffffffffffffffffffff16815260200190600101908083116142f5575b50505050509050919050565b6143536147b8565b61436781600261483690919063ffffffff16565b7f9cfe362d8a536c3b63d391e311186b7f259fdd498eecf5d32626fe9b95058a7d81604051614396919061543b565b60405180910390a150565b600a60205281600052604060002081815481106143bd57600080fd5b90600052602060002001600091509150505481565b6060600e600083815260200190815260200160002080548060200260200160405190810160405280929190818152602001828054801561443157602002820191906000526020600020905b81548152602001906001019080831161441d575b50505050509050919050565b8073ffffffffffffffffffffffffffffffffffffffff163373ffffffffffffffffffffffffffffffffffffffff16146144ab576040517f08c379a00000000000000000000000000000000000000000000000000000000081526004016144a290615be0565b60405180910390fd5b6144bf81600561483690919063ffffffff16565b7f200c3f073f217cf07dee57ee6e42c29e5fa6937f536b65c9d1e06be1f9c83dc1816040516144ee919061543b565b60405180910390a150565b60006145056008614aa4565b905090565b6145126147b8565b600073ffffffffffffffffffffffffffffffffffffffff168173ffffffffffffffffffffffffffffffffffffffff161415614582576040517f08c379a000000000000000000000000000000000000000000000000000000000815260040161457990615ff6565b60405180910390fd5b61458b816149e0565b50565b606061459a6005614726565b905090565b60006145b582600161466f90919063ffffffff16565b9050919050565b6145c6828261466f565b15614606576040517f08c379a00000000000000000000000000000000000000000000000000000000081526004016145fd90616062565b60405180910390fd5b81600001819080600181540180825580915050600190039060005260206000200160009091909190916101000a81548173ffffffffffffffffffffffffffffffffffffffff021916908373ffffffffffffffffffffffffffffffffffffffff1602179055505050565b6000808360000180549050905060005b81811015614719578373ffffffffffffffffffffffffffffffffffffffff168560000182815481106146b4576146b36158d6565b5b9060005260206000200160009054906101000a900473ffffffffffffffffffffffffffffffffffffffff1673ffffffffffffffffffffffffffffffffffffffff16141561470657600192505050614720565b808061471190615934565b91505061467f565b5060009150505b92915050565b6060816000018054806020026020016040519081016040528092919081815260200182805480156147ac57602002820191906000526020600020905b8160009054906101000a900473ffffffffffffffffffffffffffffffffffffffff1673ffffffffffffffffffffffffffffffffffffffff1681526020019060010190808311614762575b50505050509050919050565b6147c0614ac8565b73ffffffffffffffffffffffffffffffffffffffff166147de61399e565b73ffffffffffffffffffffffffffffffffffffffff1614614834576040517f08c379a000000000000000000000000000000000000000000000000000000000815260040161482b906160ce565b60405180910390fd5b565b600082600001805490509050600080600090505b828110156149905781156149045784600001818154811061486e5761486d6158d6565b5b9060005260206000200160009054906101000a900473ffffffffffffffffffffffffffffffffffffffff16856000016001836148aa9190615c6c565b815481106148bb576148ba6158d6565b5b9060005260206000200160006101000a81548173ffffffffffffffffffffffffffffffffffffffff021916908373ffffffffffffffffffffffffffffffffffffffff1602179055505b8373ffffffffffffffffffffffffffffffffffffffff16856000018281548110614931576149306158d6565b5b9060005260206000200160009054906101000a900473ffffffffffffffffffffffffffffffffffffffff1673ffffffffffffffffffffffffffffffffffffffff16141561497d57600191505b808061498890615934565b91505061484a565b50836000018054806149a5576149a46160ee565b5b6001900381819060005260206000200160006101000a81549073ffffffffffffffffffffffffffffffffffffffff0219169055905550505050565b60008060009054906101000a900473ffffffffffffffffffffffffffffffffffffffff169050816000806101000a81548173ffffffffffffffffffffffffffffffffffffffff021916908373ffffffffffffffffffffffffffffffffffffffff1602179055508173ffffffffffffffffffffffffffffffffffffffff168173ffffffffffffffffffffffffffffffffffffffff167f8be0079c531659141344cd1fd0a4f28419497f9722a3daafe3b4186f6b6457e060405160405180910390a35050565b600081600001549050919050565b6001816000016000828254019250508190555050565b600033905090565b828054614adc906158a4565b90600052602060002090601f016020900481019282614afe5760008555614b45565b82601f10614b1757805160ff1916838001178555614b45565b82800160010185558215614b45579182015b82811115614b44578251825591602001919060010190614b29565b5b509050614b529190614b56565b5090565b5b80821115614b6f576000816000905550600101614b57565b5090565b6000604051905090565b600080fd5b600080fd5b600073ffffffffffffffffffffffffffffffffffffffff82169050919050565b6000614bb282614b87565b9050919050565b614bc281614ba7565b8114614bcd57600080fd5b50565b600081359050614bdf81614bb9565b92915050565b600060208284031215614bfb57614bfa614b7d565b5b6000614c0984828501614bd0565b91505092915050565b60008115159050919050565b614c2781614c12565b82525050565b6000602082019050614c426000830184614c1e565b92915050565b6000819050919050565b614c5b81614c48565b8114614c6657600080fd5b50565b600081359050614c7881614c52565b92915050565b600080fd5b6000601f19601f8301169050919050565b7f4e487b7100000000000000000000000000000000000000000000000000000000600052604160045260246000fd5b614ccc82614c83565b810181811067ffffffffffffffff82111715614ceb57614cea614c94565b5b80604052505050565b6000614cfe614b73565b9050614d0a8282614cc3565b919050565b600067ffffffffffffffff821115614d2a57614d29614c94565b5b602082029050602081019050919050565b600080fd5b6000614d53614d4e84614d0f565b614cf4565b90508083825260208201905060208402830185811115614d7657614d75614d3b565b5b835b81811015614d9f5780614d8b8882614bd0565b845260208401935050602081019050614d78565b5050509392505050565b600082601f830112614dbe57614dbd614c7e565b5b8135614dce848260208601614d40565b91505092915050565b600067ffffffffffffffff821115614df257614df1614c94565b5b602082029050602081019050919050565b6000614e16614e1184614dd7565b614cf4565b90508083825260208201905060208402830185811115614e3957614e38614d3b565b5b835b81811015614e625780614e4e8882614c69565b845260208401935050602081019050614e3b565b5050509392505050565b600082601f830112614e8157614e80614c7e565b5b8135614e91848260208601614e03565b91505092915050565b600080600060608486031215614eb357614eb2614b7d565b5b6000614ec186828701614c69565b935050602084013567ffffffffffffffff811115614ee257614ee1614b82565b5b614eee86828701614da9565b925050604084013567ffffffffffffffff811115614f0f57614f0e614b82565b5b614f1b86828701614e6c565b9150509250925092565b600080fd5b600067ffffffffffffffff821115614f4557614f44614c94565b5b614f4e82614c83565b9050602081019050919050565b82818337600083830152505050565b6000614f7d614f7884614f2a565b614cf4565b905082815260208101848484011115614f9957614f98614f25565b5b614fa4848285614f5b565b509392505050565b600082601f830112614fc157614fc0614c7e565b5b8135614fd1848260208601614f6a565b91505092915050565b60008060008060808587031215614ff457614ff3614b7d565b5b600061500287828801614c69565b945050602061501387828801614c69565b935050604085013567ffffffffffffffff81111561503457615033614b82565b5b61504087828801614fac565b925050606085013567ffffffffffffffff81111561506157615060614b82565b5b61506d87828801614fac565b91505092959194509250565b60006020828403121561508f5761508e614b7d565b5b600061509d84828501614c69565b91505092915050565b600081519050919050565b600082825260208201905092915050565b6000819050602082019050919050565b6150db81614c48565b82525050565b60006150ed83836150d2565b60208301905092915050565b6000602082019050919050565b6000615111826150a6565b61511b81856150b1565b9350615126836150c2565b8060005b8381101561515757815161513e88826150e1565b9750615149836150f9565b92505060018101905061512a565b5085935050505092915050565b6000602082019050818103600083015261517e8184615106565b905092915050565b600081519050919050565b600082825260208201905092915050565b6000819050602082019050919050565b6151bb81614ba7565b82525050565b60006151cd83836151b2565b60208301905092915050565b6000602082019050919050565b60006151f182615186565b6151fb8185615191565b9350615206836151a2565b8060005b8381101561523757815161521e88826151c1565b9750615229836151d9565b92505060018101905061520a565b5085935050505092915050565b6000602082019050818103600083015261525e81846151e6565b905092915050565b60008060006060848603121561527f5761527e614b7d565b5b600061528d86828701614c69565b935050602061529e86828701614c69565b925050604084013567ffffffffffffffff8111156152bf576152be614b82565b5b6152cb86828701614fac565b9150509250925092565b6152de81614c48565b82525050565b600081519050919050565b600082825260208201905092915050565b60005b8381101561531e578082015181840152602081019050615303565b8381111561532d576000848401525b50505050565b600061533e826152e4565b61534881856152ef565b9350615358818560208601615300565b61536181614c83565b840191505092915050565b600060608201905061538160008301866152d5565b81810360208301526153938185615333565b905081810360408301526153a78184615333565b9050949350505050565b600080600080600060a086880312156153cd576153cc614b7d565b5b60006153db88828901614c69565b95505060206153ec88828901614bd0565b94505060406153fd88828901614c69565b935050606061540e88828901614c69565b925050608061541f88828901614c69565b9150509295509295909350565b61543581614ba7565b82525050565b6000602082019050615450600083018461542c565b92915050565b6000806040838503121561546d5761546c614b7d565b5b600061547b85828601614c69565b925050602061548c85828601614bd0565b9150509250929050565b60006020820190506154ab60008301846152d5565b92915050565b6000806000606084860312156154ca576154c9614b7d565b5b60006154d886828701614c69565b93505060206154e986828701614c69565b92505060406154fa86828701614c69565b9150509250925092565b7f4e487b7100000000000000000000000000000000000000000000000000000000600052602160045260246000fd5b6007811061554457615543615504565b5b50565b600081905061555582615533565b919050565b600061556582615547565b9050919050565b6155758161555a565b82525050565b600061014082019050615591600083018d6152d5565b61559e602083018c61556c565b6155ab604083018b6152d5565b6155b8606083018a6152d5565b6155c560808301896152d5565b6155d260a08301886152d5565b81810360c08301526155e48187615333565b90506155f360e083018661542c565b61560161010083018561542c565b61560f61012083018461542c565b9b9a5050505050505050505050565b600081519050919050565b600082825260208201905092915050565b6000819050602082019050919050565b6156538161555a565b82525050565b600082825260208201905092915050565b6000615675826152e4565b61567f8185615659565b935061568f818560208601615300565b61569881614c83565b840191505092915050565b6000610140830160008301516156bc60008601826150d2565b5060208301516156cf602086018261564a565b5060408301516156e260408601826150d2565b5060608301516156f560608601826150d2565b50608083015161570860808601826150d2565b5060a083015161571b60a08601826150d2565b5060c083015184820360c0860152615733828261566a565b91505060e083015161574860e08601826151b2565b5061010083015161575d6101008601826151b2565b506101208301516157726101208601826151b2565b508091505092915050565b600061578983836156a3565b905092915050565b6000602082019050919050565b60006157a98261561e565b6157b38185615629565b9350836020820285016157c58561563a565b8060005b8581101561580157848403895281516157e2858261577d565b94506157ed83615791565b925060208a019950506001810190506157c9565b50829750879550505050505092915050565b6000602082019050818103600083015261582d818461579e565b905092915050565b6000806040838503121561584c5761584b614b7d565b5b600061585a85828601614c69565b925050602061586b85828601614c69565b9150509250929050565b7f4e487b7100000000000000000000000000000000000000000000000000000000600052602260045260246000fd5b600060028204905060018216806158bc57607f821691505b602082108114156158d0576158cf615875565b5b50919050565b7f4e487b7100000000000000000000000000000000000000000000000000000000600052603260045260246000fd5b7f4e487b7100000000000000000000000000000000000000000000000000000000600052601160045260246000fd5b600061593f82614c48565b91507fffffffffffffffffffffffffffffffffffffffffffffffffffffffffffffffff82141561597257615971615905565b5b600182019050919050565b7f4449535452494255544f5220494e5445524e414c204552524f52000000000000600082015250565b60006159b3601a836152ef565b91506159be8261597d565b602082019050919050565b600060208201905081810360008301526159e2816159a6565b9050919050565b7f4e4f5420412056414c49442052455441494c455220414444524553532021205060008201527f4c4541534520434f4e544143542041444d494e00000000000000000000000000602082015250565b6000615a456033836152ef565b9150615a50826159e9565b604082019050919050565b60006020820190508181036000830152615a7481615a38565b9050919050565b600082825260208201905092915050565b7f3078303000000000000000000000000000000000000000000000000000000000600082015250565b6000615ac2600483615a7b565b9150615acd82615a8c565b602082019050919050565b600060c082019050615aed600083018861542c565b615afa602083018761542c565b615b0760408301866152d5565b615b1460608301856152d5565b8181036080830152615b2581615ab5565b9050615b3460a08301846152d5565b9695505050505050565b6000615b4982614c48565b9150615b5483614c48565b9250827fffffffffffffffffffffffffffffffffffffffffffffffffffffffffffffffff03821115615b8957615b88615905565b5b828201905092915050565b7f594f555f43414e5f4e4f545f524f4d4f56455f544849535f4144445245535300600082015250565b6000615bca601f836152ef565b9150615bd582615b94565b602082019050919050565b60006020820190508181036000830152615bf981615bbd565b9050919050565b7f556e6974732073686f756c642062652067726561746572207468617420310000600082015250565b6000615c36601e836152ef565b9150615c4182615c00565b602082019050919050565b60006020820190508181036000830152615c6581615c29565b9050919050565b6000615c7782614c48565b9150615c8283614c48565b925082821015615c9557615c94615905565b5b828203905092915050565b6000606082019050615cb5600083018661542c565b615cc260208301856152d5565b615ccf60408301846152d5565b949350505050565b7f4e4f5420412056414c4944204449535452494255544f5220414444524553532060008201527f2120504c4541534520434f4e544143542041444d494e00000000000000000000602082015250565b6000615d336036836152ef565b9150615d3e82615cd7565b604082019050919050565b60006020820190508181036000830152615d6281615d26565b9050919050565b7f4e4f5420412056414c49442057415245484f555345204144445245535320212060008201527f504c4541534520434f4e544143542041444d494e000000000000000000000000602082015250565b6000615dc56034836152ef565b9150615dd082615d69565b604082019050919050565b60006020820190508181036000830152615df481615db8565b9050919050565b6000819050919050565b6000819050919050565b6000615e2a615e25615e2084615dfb565b615e05565b614c48565b9050919050565b615e3a81615e0f565b82525050565b6000819050919050565b6000615e65615e60615e5b84615e40565b615e05565b614c48565b9050919050565b615e7581615e4a565b82525050565b600060c082019050615e90600083018861542c565b615e9d602083018761542c565b615eaa60408301866152d5565b615eb76060830185615e31565b8181036080830152615ec881615ab5565b9050615ed760a0830184615e6c565b9695505050505050565b7f4e6f74206120526177204d6174657269616c20537570706c6965720000000000600082015250565b6000615f17601b836152ef565b9150615f2282615ee1565b602082019050919050565b60006020820190508181036000830152615f4681615f0a565b9050919050565b6000606082019050615f62600083018661542c565b615f6f60208301856152d5565b615f7c6040830184615e31565b949350505050565b7f4f776e61626c653a206e6577206f776e657220697320746865207a65726f206160008201527f6464726573730000000000000000000000000000000000000000000000000000602082015250565b6000615fe06026836152ef565b9150615feb82615f84565b604082019050919050565b6000602082019050818103600083015261600f81615fd3565b9050919050565b7f524f4c455f414c52454144595f45584953545300000000000000000000000000600082015250565b600061604c6013836152ef565b915061605782616016565b602082019050919050565b6000602082019050818103600083015261607b8161603f565b9050919050565b7f4f776e61626c653a2063616c6c6572206973206e6f7420746865206f776e6572600082015250565b60006160b86020836152ef565b91506160c382616082565b602082019050919050565b600060208201905081810360008301526160e7816160ab565b9050919050565b7f4e487b7100000000000000000000000000000000000000000000000000000000600052603160045260246000fdfea264697066735822122088e76981c9d107a341adab0dffca37bc6a6ea7ce546bfcac98311379495dc2f064736f6c63430008080033",
  "linkReferences": {},
  "deployedLinkReferences": {}
}