{
  "_format": "hh-sol-artifact-1",
  "contractName": "Supplychain",
  "sourceName": "contracts/Supplychain.sol",
  "abi": [
    {
      "inputs": [
        {
          "internalType": "address",
          "name": "_supplychainToken",
          "type": "address"
        }
      ],
      "stateMutability": "nonpayable",
      "type": "constructor"
    },
    {
      "anonymous": false,
      "inputs": [
        {
          "indexed": false,
          "internalType": "uint256",
          "name": "_supplyChainId",
          "type": "uint256"
        }
      ],
      "name": "DistributorSellToRetailer",
      "type": "event"
    },
    {
      "anonymous": false,
      "inputs": [
        {
          "indexed": false,
          "internalType": "uint256",
          "name": "_supplyChainId",
          "type": "uint256"
        }
      ],
      "name": "FactoryBuyRawMaterial",
      "type": "event"
    },
    {
      "anonymous": false,
      "inputs": [
        {
          "indexed": false,
          "internalType": "uint256",
          "name": "_supplyChainId",
          "type": "uint256"
        }
      ],
      "name": "FactorySellItemToDistributors",
      "type": "event"
    },
    {
      "anonymous": false,
      "inputs": [
        {
          "indexed": false,
          "internalType": "uint256",
          "name": "_supplyChainId",
          "type": "uint256"
        }
      ],
      "name": "RawMaterialSupplierSuppliesRM",
      "type": "event"
    },
    {
      "anonymous": false,
      "inputs": [
        {
          "indexed": false,
          "internalType": "uint256",
          "name": "_supplyChainId",
          "type": "uint256"
        }
      ],
      "name": "RetailerSellToCustomer",
      "type": "event"
    },
    {
      "inputs": [
        {
          "internalType": "uint256",
          "name": "",
          "type": "uint256"
        }
      ],
      "name": "YarnDetails",
      "outputs": [
        {
          "internalType": "uint256",
          "name": "YarnAmount",
          "type": "uint256"
        },
        {
          "internalType": "string",
          "name": "YarnColor",
          "type": "string"
        },
        {
          "internalType": "string",
          "name": "YarnType",
          "type": "string"
        }
      ],
      "stateMutability": "view",
      "type": "function"
    },
    {
      "inputs": [
        {
          "internalType": "uint256",
          "name": "_supplyChainId",
          "type": "uint256"
        },
        {
          "internalType": "address[]",
          "name": "retailers",
          "type": "address[]"
        },
        {
          "internalType": "uint256[]",
          "name": "quantity",
          "type": "uint256[]"
        }
      ],
      "name": "distributorSellToRetailer",
      "outputs": [],
      "stateMutability": "nonpayable",
      "type": "function"
    },
    {
      "inputs": [
        {
          "internalType": "uint256",
          "name": "_supplyChainId",
          "type": "uint256"
        },
        {
          "internalType": "address",
          "name": "_warehouse",
          "type": "address"
        },
        {
          "internalType": "uint256",
          "name": "_polysteramount",
          "type": "uint256"
        },
        {
          "internalType": "uint256",
          "name": "_cottonamount",
          "type": "uint256"
        },
        {
          "internalType": "uint256",
          "name": "_woolamount",
          "type": "uint256"
        }
      ],
      "name": "factoryBuyRawMaterial",
      "outputs": [],
      "stateMutability": "nonpayable",
      "type": "function"
    },
    {
      "inputs": [
        {
          "internalType": "uint256",
          "name": "_supplyChainId",
          "type": "uint256"
        },
        {
          "internalType": "uint256",
          "name": "_totalUnits",
          "type": "uint256"
        },
        {
          "internalType": "string",
          "name": "_description",
          "type": "string"
        }
      ],
      "name": "factoryCompleteGarmentManufacturing",
      "outputs": [],
      "stateMutability": "nonpayable",
      "type": "function"
    },
    {
      "inputs": [
        {
          "internalType": "uint256",
          "name": "_supplyChainId",
          "type": "uint256"
        },
        {
          "internalType": "uint256",
          "name": "_yarnAmount",
          "type": "uint256"
        },
        {
          "internalType": "string",
          "name": "_yarnColor",
          "type": "string"
        },
        {
          "internalType": "string",
          "name": "_yarnType",
          "type": "string"
        }
      ],
      "name": "factoryCompleteSpinningWaeving",
      "outputs": [],
      "stateMutability": "nonpayable",
      "type": "function"
    },
    {
      "inputs": [
        {
          "internalType": "uint256",
          "name": "_supplyChainId",
          "type": "uint256"
        },
        {
          "internalType": "address",
          "name": "distributor",
          "type": "address"
        }
      ],
      "name": "factorySellItemToDistributors",
      "outputs": [],
      "stateMutability": "nonpayable",
      "type": "function"
    },
    {
      "inputs": [
        {
          "internalType": "uint256",
          "name": "_supplychianId",
          "type": "uint256"
        }
      ],
      "name": "getRetailers",
      "outputs": [
        {
          "internalType": "address[]",
          "name": "",
          "type": "address[]"
        }
      ],
      "stateMutability": "view",
      "type": "function"
    },
    {
      "inputs": [
        {
          "internalType": "uint256",
          "name": "_supplychianId",
          "type": "uint256"
        }
      ],
      "name": "getRetailersCounters",
      "outputs": [
        {
          "internalType": "uint256[]",
          "name": "",
          "type": "uint256[]"
        }
      ],
      "stateMutability": "view",
      "type": "function"
    },
    {
      "inputs": [
        {
          "internalType": "uint256",
          "name": "_supplychianId",
          "type": "uint256"
        }
      ],
      "name": "getRetailersUnits",
      "outputs": [
        {
          "internalType": "uint256[]",
          "name": "",
          "type": "uint256[]"
        }
      ],
      "stateMutability": "view",
      "type": "function"
    },
    {
      "inputs": [
        {
          "internalType": "address",
          "name": "warehouse",
          "type": "address"
        }
      ],
      "name": "getWarehouseItems",
      "outputs": [
        {
          "components": [
            {
              "internalType": "uint256",
              "name": "supplyChainId",
              "type": "uint256"
            },
            {
              "internalType": "enum Supplychain.State",
              "name": "itemState",
              "type": "uint8"
            },
            {
              "internalType": "uint256",
              "name": "PolyesterAmount",
              "type": "uint256"
            },
            {
              "internalType": "uint256",
              "name": "CottonAmount",
              "type": "uint256"
            },
            {
              "internalType": "uint256",
              "name": "WoolAmount",
              "type": "uint256"
            },
            {
              "internalType": "uint256",
              "name": "totalUnits",
              "type": "uint256"
            },
            {
              "internalType": "string",
              "name": "Description",
              "type": "string"
            },
            {
              "internalType": "address",
              "name": "RawMaterialSupplierID",
              "type": "address"
            },
            {
              "internalType": "address",
              "name": "warehouseID",
              "type": "address"
            },
            {
              "internalType": "address",
              "name": "factoryID",
              "type": "address"
            },
            {
              "internalType": "address",
              "name": "distributorId",
              "type": "address"
            }
          ],
          "internalType": "struct Supplychain.Item[]",
          "name": "",
          "type": "tuple[]"
        }
      ],
      "stateMutability": "view",
      "type": "function"
    },
    {
      "inputs": [
        {
          "internalType": "uint256",
          "name": "",
          "type": "uint256"
        }
      ],
      "name": "items",
      "outputs": [
        {
          "internalType": "uint256",
          "name": "supplyChainId",
          "type": "uint256"
        },
        {
          "internalType": "enum Supplychain.State",
          "name": "itemState",
          "type": "uint8"
        },
        {
          "internalType": "uint256",
          "name": "PolyesterAmount",
          "type": "uint256"
        },
        {
          "internalType": "uint256",
          "name": "CottonAmount",
          "type": "uint256"
        },
        {
          "internalType": "uint256",
          "name": "WoolAmount",
          "type": "uint256"
        },
        {
          "internalType": "uint256",
          "name": "totalUnits",
          "type": "uint256"
        },
        {
          "internalType": "string",
          "name": "Description",
          "type": "string"
        },
        {
          "internalType": "address",
          "name": "RawMaterialSupplierID",
          "type": "address"
        },
        {
          "internalType": "address",
          "name": "warehouseID",
          "type": "address"
        },
        {
          "internalType": "address",
          "name": "factoryID",
          "type": "address"
        },
        {
          "internalType": "address",
          "name": "distributorId",
          "type": "address"
        }
      ],
      "stateMutability": "view",
      "type": "function"
    },
    {
      "inputs": [
        {
          "internalType": "uint256",
          "name": "_polyesterAmount",
          "type": "uint256"
        },
        {
          "internalType": "uint256",
          "name": "_cottonAmount",
          "type": "uint256"
        },
        {
          "internalType": "uint256",
          "name": "_woolAmount",
          "type": "uint256"
        }
      ],
      "name": "rawMaterialSupplierSuppliesRM",
      "outputs": [],
      "stateMutability": "nonpayable",
      "type": "function"
    },
    {
      "inputs": [
        {
          "internalType": "uint256",
          "name": "",
          "type": "uint256"
        },
        {
          "internalType": "uint256",
          "name": "",
          "type": "uint256"
        }
      ],
      "name": "timeStamps",
      "outputs": [
        {
          "internalType": "uint256",
          "name": "",
          "type": "uint256"
        }
      ],
      "stateMutability": "view",
      "type": "function"
    },
    {
      "inputs": [],
      "name": "totalBatchs",
      "outputs": [
        {
          "internalType": "uint256",
          "name": "",
          "type": "uint256"
        }
      ],
      "stateMutability": "view",
      "type": "function"
    }
  ],
  "bytecode": "0x60806040523480156200001157600080fd5b50604051620044e6380380620044e68339818101604052810190620000379190620000e8565b806000806101000a81548173ffffffffffffffffffffffffffffffffffffffff021916908373ffffffffffffffffffffffffffffffffffffffff160217905550506200011a565b600080fd5b600073ffffffffffffffffffffffffffffffffffffffff82169050919050565b6000620000b08262000083565b9050919050565b620000c281620000a3565b8114620000ce57600080fd5b50565b600081519050620000e281620000b7565b92915050565b6000602082840312156200010157620001006200007e565b5b60006200011184828501620000d1565b91505092915050565b6143bc806200012a6000396000f3fe608060405234801561001057600080fd5b50600436106100ea5760003560e01c80634d2ec64c1161008c578063bfb231d211610066578063bfb231d214610259578063bfed485614610293578063e6647c5c146102c3578063eeb34133146102f3576100ea565b80634d2ec64c146101ef578063862a68e314610221578063a198d4961461023d576100ea565b8063209d353e116100c8578063209d353e14610157578063319af8571461018757806340f72149146101b75780634c5eee0a146101d3576100ea565b80631af5dcf2146100ef578063201ef8f21461010b57806320519bb014610127575b600080fd5b61010960048036038101906101049190613560565b610311565b005b610125600480360381019061012091906136a0565b610aba565b005b610141600480360381019061013c919061373f565b611142565b60405161014e919061382a565b60405180910390f35b610171600480360381019061016c919061373f565b6111ad565b60405161017e919061390a565b60405180910390f35b6101a1600480360381019061019c919061373f565b61124e565b6040516101ae919061382a565b60405180910390f35b6101d160048036038101906101cc919061392c565b6112b9565b005b6101ed60048036038101906101e8919061396c565b6119d3565b005b6102096004803603810190610204919061373f565b612040565b60405161021893929190613a72565b60405180910390f35b61023b60048036038101906102369190613ab7565b61217a565b005b61025760048036038101906102529190613b32565b61298b565b005b610273600480360381019061026e919061373f565b612d2e565b60405161028a9b9a99989796959493929190613c0b565b60405180910390f35b6102ad60048036038101906102a89190613cbd565b612e9d565b6040516102ba9190613ef4565b60405180910390f35b6102dd60048036038101906102d89190613f16565b613193565b6040516102ea9190613f56565b60405180910390f35b6102fb6131c4565b6040516103089190613f56565b60405180910390f35b60006004600085815260200190815260200160002060405180610160016040529081600082015481526020016001820160009054906101000a900460ff16600681111561036157610360613b85565b5b600681111561037357610372613b85565b5b8152602001600282015481526020016003820154815260200160048201548152602001600582015481526020016006820180546103af90613fa0565b80601f01602080910402602001604051908101604052809291908181526020018280546103db90613fa0565b80156104285780601f106103fd57610100808354040283529160200191610428565b820191906000526020600020905b81548152906001019060200180831161040b57829003601f168201915b505050505081526020016007820160009054906101000a900473ffffffffffffffffffffffffffffffffffffffff1673ffffffffffffffffffffffffffffffffffffffff1673ffffffffffffffffffffffffffffffffffffffff1681526020016008820160009054906101000a900473ffffffffffffffffffffffffffffffffffffffff1673ffffffffffffffffffffffffffffffffffffffff1673ffffffffffffffffffffffffffffffffffffffff1681526020016009820160009054906101000a900473ffffffffffffffffffffffffffffffffffffffff1673ffffffffffffffffffffffffffffffffffffffff1673ffffffffffffffffffffffffffffffffffffffff168152602001600a820160009054906101000a900473ffffffffffffffffffffffffffffffffffffffff1673ffffffffffffffffffffffffffffffffffffffff1673ffffffffffffffffffffffffffffffffffffffff168152505090506005816020019060068111156105a4576105a3613b85565b5b908160068111156105b8576105b7613b85565b5b8152505060008160a00151905060008054906101000a900473ffffffffffffffffffffffffffffffffffffffff1673ffffffffffffffffffffffffffffffffffffffff1663156e29f633876001856106109190614001565b6040518463ffffffff1660e01b815260040161062e93929190614035565b600060405180830381600087803b15801561064857600080fd5b505af115801561065c573d6000803e3d6000fd5b5050505081600460008781526020019081526020016000206000820151816000015560208201518160010160006101000a81548160ff021916908360068111156106a9576106a8613b85565b5b021790555060408201518160020155606082015181600301556080820151816004015560a0820151816005015560c08201518160060190805190602001906106f29291906131f9565b5060e08201518160070160006101000a81548173ffffffffffffffffffffffffffffffffffffffff021916908373ffffffffffffffffffffffffffffffffffffffff1602179055506101008201518160080160006101000a81548173ffffffffffffffffffffffffffffffffffffffff021916908373ffffffffffffffffffffffffffffffffffffffff1602179055506101208201518160090160006101000a81548173ffffffffffffffffffffffffffffffffffffffff021916908373ffffffffffffffffffffffffffffffffffffffff16021790555061014082015181600a0160006101000a81548173ffffffffffffffffffffffffffffffffffffffff021916908373ffffffffffffffffffffffffffffffffffffffff1602179055509050506000805b8551811015610a4057600660008881526020019081526020016000208682815181106108485761084761406c565b5b60200260200101519080600181540180825580915050600190039060005260206000200160009091909190916101000a81548173ffffffffffffffffffffffffffffffffffffffff021916908373ffffffffffffffffffffffffffffffffffffffff160217905550600760008881526020019081526020016000208582815181106108d6576108d561406c565b5b602002602001015190806001815401808255809150506001900390600052602060002001600090919091909150556008600088815260200190815260200160002082908060018154018082558091505060019003906000526020600020016000909190919091505560008054906101000a900473ffffffffffffffffffffffffffffffffffffffff1673ffffffffffffffffffffffffffffffffffffffff1663e51a27ce3388848151811061098e5761098d61406c565b5b60200260200101518a8986815181106109aa576109a961406c565b5b6020026020010151876040518663ffffffff1660e01b81526004016109d39594939291906140f8565b600060405180830381600087803b1580156109ed57600080fd5b505af1158015610a01573d6000803e3d6000fd5b50505050848181518110610a1857610a1761406c565b5b602002602001015182610a2b919061415e565b91508080610a38906141b4565b915050610819565b50600360008781526020019081526020016000204290806001815401808255809150506001900390600052602060002001600090919091909150557fb9f01075be5d71ca908e0aae338e241c77af5da8fbd7d476d37de1c8634dc0e286604051610aaa9190613f56565b60405180910390a1505050505050565b60006004600086815260200190815260200160002060405180610160016040529081600082015481526020016001820160009054906101000a900460ff166006811115610b0a57610b09613b85565b5b6006811115610b1c57610b1b613b85565b5b815260200160028201548152602001600382015481526020016004820154815260200160058201548152602001600682018054610b5890613fa0565b80601f0160208091040260200160405190810160405280929190818152602001828054610b8490613fa0565b8015610bd15780601f10610ba657610100808354040283529160200191610bd1565b820191906000526020600020905b815481529060010190602001808311610bb457829003601f168201915b505050505081526020016007820160009054906101000a900473ffffffffffffffffffffffffffffffffffffffff1673ffffffffffffffffffffffffffffffffffffffff1673ffffffffffffffffffffffffffffffffffffffff1681526020016008820160009054906101000a900473ffffffffffffffffffffffffffffffffffffffff1673ffffffffffffffffffffffffffffffffffffffff1673ffffffffffffffffffffffffffffffffffffffff1681526020016009820160009054906101000a900473ffffffffffffffffffffffffffffffffffffffff1673ffffffffffffffffffffffffffffffffffffffff1673ffffffffffffffffffffffffffffffffffffffff168152602001600a820160009054906101000a900473ffffffffffffffffffffffffffffffffffffffff1673ffffffffffffffffffffffffffffffffffffffff1673ffffffffffffffffffffffffffffffffffffffff1681525050905083600260008781526020019081526020016000206000018190555082600260008781526020019081526020016000206001019080519060200190610d799291906131f9565b5081600260008781526020019081526020016000206002019080519060200190610da49291906131f9565b50600281602001906006811115610dbe57610dbd613b85565b5b90816006811115610dd257610dd1613b85565b5b8152505080600460008781526020019081526020016000206000820151816000015560208201518160010160006101000a81548160ff02191690836006811115610e1f57610e1e613b85565b5b021790555060408201518160020155606082015181600301556080820151816004015560a0820151816005015560c0820151816006019080519060200190610e689291906131f9565b5060e08201518160070160006101000a81548173ffffffffffffffffffffffffffffffffffffffff021916908373ffffffffffffffffffffffffffffffffffffffff1602179055506101008201518160080160006101000a81548173ffffffffffffffffffffffffffffffffffffffff021916908373ffffffffffffffffffffffffffffffffffffffff1602179055506101208201518160090160006101000a81548173ffffffffffffffffffffffffffffffffffffffff021916908373ffffffffffffffffffffffffffffffffffffffff16021790555061014082015181600a0160006101000a81548173ffffffffffffffffffffffffffffffffffffffff021916908373ffffffffffffffffffffffffffffffffffffffff16021790555090505060006005600083610100015173ffffffffffffffffffffffffffffffffffffffff1673ffffffffffffffffffffffffffffffffffffffff16815260200190815260200160002080549050905060008111156111005760005b818110156110fe57866005600085610100015173ffffffffffffffffffffffffffffffffffffffff1673ffffffffffffffffffffffffffffffffffffffff16815260200190815260200160002082815481106110425761104161406c565b5b90600052602060002090600b02016000015414156110eb5760026005600085610100015173ffffffffffffffffffffffffffffffffffffffff1673ffffffffffffffffffffffffffffffffffffffff16815260200190815260200160002082815481106110b2576110b161406c565b5b90600052602060002090600b020160010160006101000a81548160ff021916908360068111156110e5576110e4613b85565b5b02179055505b80806110f6906141b4565b915050610fe3565b505b60036000878152602001908152602001600020429080600181540180825580915050600190039060005260206000200160009091909190915055505050505050565b6060600860008381526020019081526020016000208054806020026020016040519081016040528092919081815260200182805480156111a157602002820191906000526020600020905b81548152602001906001019080831161118d575b50505050509050919050565b60606006600083815260200190815260200160002080548060200260200160405190810160405280929190818152602001828054801561124257602002820191906000526020600020905b8160009054906101000a900473ffffffffffffffffffffffffffffffffffffffff1673ffffffffffffffffffffffffffffffffffffffff16815260200190600101908083116111f8575b50505050509050919050565b6060600760008381526020019081526020016000208054806020026020016040519081016040528092919081815260200182805480156112ad57602002820191906000526020600020905b815481526020019060010190808311611299575b50505050509050919050565b60006004600084815260200190815260200160002060405180610160016040529081600082015481526020016001820160009054906101000a900460ff16600681111561130957611308613b85565b5b600681111561131b5761131a613b85565b5b81526020016002820154815260200160038201548152602001600482015481526020016005820154815260200160068201805461135790613fa0565b80601f016020809104026020016040519081016040528092919081815260200182805461138390613fa0565b80156113d05780601f106113a5576101008083540402835291602001916113d0565b820191906000526020600020905b8154815290600101906020018083116113b357829003601f168201915b505050505081526020016007820160009054906101000a900473ffffffffffffffffffffffffffffffffffffffff1673ffffffffffffffffffffffffffffffffffffffff1673ffffffffffffffffffffffffffffffffffffffff1681526020016008820160009054906101000a900473ffffffffffffffffffffffffffffffffffffffff1673ffffffffffffffffffffffffffffffffffffffff1673ffffffffffffffffffffffffffffffffffffffff1681526020016009820160009054906101000a900473ffffffffffffffffffffffffffffffffffffffff1673ffffffffffffffffffffffffffffffffffffffff1673ffffffffffffffffffffffffffffffffffffffff168152602001600a820160009054906101000a900473ffffffffffffffffffffffffffffffffffffffff1673ffffffffffffffffffffffffffffffffffffffff1673ffffffffffffffffffffffffffffffffffffffff1681525050905060048160200190600681111561154c5761154b613b85565b5b908160068111156115605761155f613b85565b5b815250508181610140019073ffffffffffffffffffffffffffffffffffffffff16908173ffffffffffffffffffffffffffffffffffffffff168152505060008054906101000a900473ffffffffffffffffffffffffffffffffffffffff1673ffffffffffffffffffffffffffffffffffffffff1663e51a27ce338486600160006040518663ffffffff1660e01b815260040161160095949392919061427d565b600060405180830381600087803b15801561161a57600080fd5b505af115801561162e573d6000803e3d6000fd5b5050505080600460008581526020019081526020016000206000820151816000015560208201518160010160006101000a81548160ff0219169083600681111561167b5761167a613b85565b5b021790555060408201518160020155606082015181600301556080820151816004015560a0820151816005015560c08201518160060190805190602001906116c49291906131f9565b5060e08201518160070160006101000a81548173ffffffffffffffffffffffffffffffffffffffff021916908373ffffffffffffffffffffffffffffffffffffffff1602179055506101008201518160080160006101000a81548173ffffffffffffffffffffffffffffffffffffffff021916908373ffffffffffffffffffffffffffffffffffffffff1602179055506101208201518160090160006101000a81548173ffffffffffffffffffffffffffffffffffffffff021916908373ffffffffffffffffffffffffffffffffffffffff16021790555061014082015181600a0160006101000a81548173ffffffffffffffffffffffffffffffffffffffff021916908373ffffffffffffffffffffffffffffffffffffffff16021790555090505060006005600083610100015173ffffffffffffffffffffffffffffffffffffffff1673ffffffffffffffffffffffffffffffffffffffff168152602001908152602001600020805490509050600081111561195c5760005b8181101561195a57846005600085610100015173ffffffffffffffffffffffffffffffffffffffff1673ffffffffffffffffffffffffffffffffffffffff168152602001908152602001600020828154811061189e5761189d61406c565b5b90600052602060002090600b02016000015414156119475760046005600085610100015173ffffffffffffffffffffffffffffffffffffffff1673ffffffffffffffffffffffffffffffffffffffff168152602001908152602001600020828154811061190e5761190d61406c565b5b90600052602060002090600b020160010160006101000a81548160ff0219169083600681111561194157611940613b85565b5b02179055505b8080611952906141b4565b91505061183f565b505b600360008581526020019081526020016000204290806001815401808255809150506001900390600052602060002001600090919091909150557f01e7f4af78fe812a5df0e0b3c5b400eff1cd1366eca03a2261de317ae5f6727b846040516119c59190613f56565b60405180910390a150505050565b6001821015611a17576040517f08c379a0000000000000000000000000000000000000000000000000000000008152600401611a0e9061432f565b60405180910390fd5b60006004600085815260200190815260200160002060405180610160016040529081600082015481526020016001820160009054906101000a900460ff166006811115611a6757611a66613b85565b5b6006811115611a7957611a78613b85565b5b815260200160028201548152602001600382015481526020016004820154815260200160058201548152602001600682018054611ab590613fa0565b80601f0160208091040260200160405190810160405280929190818152602001828054611ae190613fa0565b8015611b2e5780601f10611b0357610100808354040283529160200191611b2e565b820191906000526020600020905b815481529060010190602001808311611b1157829003601f168201915b505050505081526020016007820160009054906101000a900473ffffffffffffffffffffffffffffffffffffffff1673ffffffffffffffffffffffffffffffffffffffff1673ffffffffffffffffffffffffffffffffffffffff1681526020016008820160009054906101000a900473ffffffffffffffffffffffffffffffffffffffff1673ffffffffffffffffffffffffffffffffffffffff1673ffffffffffffffffffffffffffffffffffffffff1681526020016009820160009054906101000a900473ffffffffffffffffffffffffffffffffffffffff1673ffffffffffffffffffffffffffffffffffffffff1673ffffffffffffffffffffffffffffffffffffffff168152602001600a820160009054906101000a900473ffffffffffffffffffffffffffffffffffffffff1673ffffffffffffffffffffffffffffffffffffffff1673ffffffffffffffffffffffffffffffffffffffff16815250509050828160a0018181525050818160c00181905250600381602001906006811115611cbd57611cbc613b85565b5b90816006811115611cd157611cd0613b85565b5b8152505080600460008681526020019081526020016000206000820151816000015560208201518160010160006101000a81548160ff02191690836006811115611d1e57611d1d613b85565b5b021790555060408201518160020155606082015181600301556080820151816004015560a0820151816005015560c0820151816006019080519060200190611d679291906131f9565b5060e08201518160070160006101000a81548173ffffffffffffffffffffffffffffffffffffffff021916908373ffffffffffffffffffffffffffffffffffffffff1602179055506101008201518160080160006101000a81548173ffffffffffffffffffffffffffffffffffffffff021916908373ffffffffffffffffffffffffffffffffffffffff1602179055506101208201518160090160006101000a81548173ffffffffffffffffffffffffffffffffffffffff021916908373ffffffffffffffffffffffffffffffffffffffff16021790555061014082015181600a0160006101000a81548173ffffffffffffffffffffffffffffffffffffffff021916908373ffffffffffffffffffffffffffffffffffffffff16021790555090505060006005600083610100015173ffffffffffffffffffffffffffffffffffffffff1673ffffffffffffffffffffffffffffffffffffffff1681526020019081526020016000208054905090506000811115611fff5760005b81811015611ffd57856005600085610100015173ffffffffffffffffffffffffffffffffffffffff1673ffffffffffffffffffffffffffffffffffffffff1681526020019081526020016000208281548110611f4157611f4061406c565b5b90600052602060002090600b0201600001541415611fea5760036005600085610100015173ffffffffffffffffffffffffffffffffffffffff1673ffffffffffffffffffffffffffffffffffffffff1681526020019081526020016000208281548110611fb157611fb061406c565b5b90600052602060002090600b020160010160006101000a81548160ff02191690836006811115611fe457611fe3613b85565b5b02179055505b8080611ff5906141b4565b915050611ee2565b505b600360008681526020019081526020016000204290806001815401808255809150506001900390600052602060002001600090919091909150555050505050565b600260205280600052604060002060009150905080600001549080600101805461206990613fa0565b80601f016020809104026020016040519081016040528092919081815260200182805461209590613fa0565b80156120e25780601f106120b7576101008083540402835291602001916120e2565b820191906000526020600020905b8154815290600101906020018083116120c557829003601f168201915b5050505050908060020180546120f790613fa0565b80601f016020809104026020016040519081016040528092919081815260200182805461212390613fa0565b80156121705780601f1061214557610100808354040283529160200191612170565b820191906000526020600020905b81548152906001019060200180831161215357829003601f168201915b5050505050905083565b60006004600087815260200190815260200160002060405180610160016040529081600082015481526020016001820160009054906101000a900460ff1660068111156121ca576121c9613b85565b5b60068111156121dc576121db613b85565b5b81526020016002820154815260200160038201548152602001600482015481526020016005820154815260200160068201805461221890613fa0565b80601f016020809104026020016040519081016040528092919081815260200182805461224490613fa0565b80156122915780601f1061226657610100808354040283529160200191612291565b820191906000526020600020905b81548152906001019060200180831161227457829003601f168201915b505050505081526020016007820160009054906101000a900473ffffffffffffffffffffffffffffffffffffffff1673ffffffffffffffffffffffffffffffffffffffff1673ffffffffffffffffffffffffffffffffffffffff1681526020016008820160009054906101000a900473ffffffffffffffffffffffffffffffffffffffff1673ffffffffffffffffffffffffffffffffffffffff1673ffffffffffffffffffffffffffffffffffffffff1681526020016009820160009054906101000a900473ffffffffffffffffffffffffffffffffffffffff1673ffffffffffffffffffffffffffffffffffffffff1673ffffffffffffffffffffffffffffffffffffffff168152602001600a820160009054906101000a900473ffffffffffffffffffffffffffffffffffffffff1673ffffffffffffffffffffffffffffffffffffffff1673ffffffffffffffffffffffffffffffffffffffff1681525050905060008160e0015190503382610120019073ffffffffffffffffffffffffffffffffffffffff16908173ffffffffffffffffffffffffffffffffffffffff16815250508582610100019073ffffffffffffffffffffffffffffffffffffffff16908173ffffffffffffffffffffffffffffffffffffffff16815250508482604001818152505083826060018181525050828260800181815250506001826020019060068111156124a6576124a5613b85565b5b908160068111156124ba576124b9613b85565b5b8152505081600460008981526020019081526020016000206000820151816000015560208201518160010160006101000a81548160ff0219169083600681111561250757612506613b85565b5b021790555060408201518160020155606082015181600301556080820151816004015560a0820151816005015560c08201518160060190805190602001906125509291906131f9565b5060e08201518160070160006101000a81548173ffffffffffffffffffffffffffffffffffffffff021916908373ffffffffffffffffffffffffffffffffffffffff1602179055506101008201518160080160006101000a81548173ffffffffffffffffffffffffffffffffffffffff021916908373ffffffffffffffffffffffffffffffffffffffff1602179055506101208201518160090160006101000a81548173ffffffffffffffffffffffffffffffffffffffff021916908373ffffffffffffffffffffffffffffffffffffffff16021790555061014082015181600a0160006101000a81548173ffffffffffffffffffffffffffffffffffffffff021916908373ffffffffffffffffffffffffffffffffffffffff160217905550905050600560008773ffffffffffffffffffffffffffffffffffffffff1673ffffffffffffffffffffffffffffffffffffffff1681526020019081526020016000208290806001815401808255809150506001900390600052602060002090600b02016000909190919091506000820151816000015560208201518160010160006101000a81548160ff0219169083600681111561271157612710613b85565b5b021790555060408201518160020155606082015181600301556080820151816004015560a0820151816005015560c082015181600601908051906020019061275a9291906131f9565b5060e08201518160070160006101000a81548173ffffffffffffffffffffffffffffffffffffffff021916908373ffffffffffffffffffffffffffffffffffffffff1602179055506101008201518160080160006101000a81548173ffffffffffffffffffffffffffffffffffffffff021916908373ffffffffffffffffffffffffffffffffffffffff1602179055506101208201518160090160006101000a81548173ffffffffffffffffffffffffffffffffffffffff021916908373ffffffffffffffffffffffffffffffffffffffff16021790555061014082015181600a0160006101000a81548173ffffffffffffffffffffffffffffffffffffffff021916908373ffffffffffffffffffffffffffffffffffffffff160217905550505060008054906101000a900473ffffffffffffffffffffffffffffffffffffffff1673ffffffffffffffffffffffffffffffffffffffff1663e51a27ce82338a600160006040518663ffffffff1660e01b81526004016128df95949392919061427d565b600060405180830381600087803b1580156128f957600080fd5b505af115801561290d573d6000803e3d6000fd5b50505050600360008881526020019081526020016000204290806001815401808255809150506001900390600052602060002001600090919091909150557f84fad793fc72a4890032a0a48ea25fb57401690403f128ee2aaf047af876291c8760405161297a9190613f56565b60405180910390a150505050505050565b600061299760016131d5565b90506000604051806101600160405280838152602001600060068111156129c1576129c0613b85565b5b8152602001868152602001858152602001848152602001600081526020016040518060200160405280600081525081526020013373ffffffffffffffffffffffffffffffffffffffff168152602001600073ffffffffffffffffffffffffffffffffffffffff168152602001600073ffffffffffffffffffffffffffffffffffffffff168152602001600073ffffffffffffffffffffffffffffffffffffffff16815250905080600460008481526020019081526020016000206000820151816000015560208201518160010160006101000a81548160ff02191690836006811115612ab057612aaf613b85565b5b021790555060408201518160020155606082015181600301556080820151816004015560a0820151816005015560c0820151816006019080519060200190612af99291906131f9565b5060e08201518160070160006101000a81548173ffffffffffffffffffffffffffffffffffffffff021916908373ffffffffffffffffffffffffffffffffffffffff1602179055506101008201518160080160006101000a81548173ffffffffffffffffffffffffffffffffffffffff021916908373ffffffffffffffffffffffffffffffffffffffff1602179055506101208201518160090160006101000a81548173ffffffffffffffffffffffffffffffffffffffff021916908373ffffffffffffffffffffffffffffffffffffffff16021790555061014082015181600a0160006101000a81548173ffffffffffffffffffffffffffffffffffffffff021916908373ffffffffffffffffffffffffffffffffffffffff16021790555090505060008054906101000a900473ffffffffffffffffffffffffffffffffffffffff1673ffffffffffffffffffffffffffffffffffffffff1663156e29f6338460016040518463ffffffff1660e01b8152600401612c7a9392919061434f565b600060405180830381600087803b158015612c9457600080fd5b505af1158015612ca8573d6000803e3d6000fd5b50505050612cb660016131e3565b600360008381526020019081526020016000204290806001815401808255809150506001900390600052602060002001600090919091909150557f8dba83ab26c4e67ac150487b6c119e69498289b9cc6c7dfd77fd0df2e671b48b82604051612d1f9190613f56565b60405180910390a15050505050565b60046020528060005260406000206000915090508060000154908060010160009054906101000a900460ff1690806002015490806003015490806004015490806005015490806006018054612d8290613fa0565b80601f0160208091040260200160405190810160405280929190818152602001828054612dae90613fa0565b8015612dfb5780601f10612dd057610100808354040283529160200191612dfb565b820191906000526020600020905b815481529060010190602001808311612dde57829003601f168201915b5050505050908060070160009054906101000a900473ffffffffffffffffffffffffffffffffffffffff16908060080160009054906101000a900473ffffffffffffffffffffffffffffffffffffffff16908060090160009054906101000a900473ffffffffffffffffffffffffffffffffffffffff169080600a0160009054906101000a900473ffffffffffffffffffffffffffffffffffffffff1690508b565b6060600560008373ffffffffffffffffffffffffffffffffffffffff1673ffffffffffffffffffffffffffffffffffffffff168152602001908152602001600020805480602002602001604051908101604052809291908181526020016000905b8282101561318857838290600052602060002090600b020160405180610160016040529081600082015481526020016001820160009054906101000a900460ff166006811115612f5157612f50613b85565b5b6006811115612f6357612f62613b85565b5b815260200160028201548152602001600382015481526020016004820154815260200160058201548152602001600682018054612f9f90613fa0565b80601f0160208091040260200160405190810160405280929190818152602001828054612fcb90613fa0565b80156130185780601f10612fed57610100808354040283529160200191613018565b820191906000526020600020905b815481529060010190602001808311612ffb57829003601f168201915b505050505081526020016007820160009054906101000a900473ffffffffffffffffffffffffffffffffffffffff1673ffffffffffffffffffffffffffffffffffffffff1673ffffffffffffffffffffffffffffffffffffffff1681526020016008820160009054906101000a900473ffffffffffffffffffffffffffffffffffffffff1673ffffffffffffffffffffffffffffffffffffffff1673ffffffffffffffffffffffffffffffffffffffff1681526020016009820160009054906101000a900473ffffffffffffffffffffffffffffffffffffffff1673ffffffffffffffffffffffffffffffffffffffff1673ffffffffffffffffffffffffffffffffffffffff168152602001600a820160009054906101000a900473ffffffffffffffffffffffffffffffffffffffff1673ffffffffffffffffffffffffffffffffffffffff1673ffffffffffffffffffffffffffffffffffffffff168152505081526020019060010190612efe565b505050509050919050565b600360205281600052604060002081815481106131af57600080fd5b90600052602060002001600091509150505481565b60006131d060016131d5565b905090565b600081600001549050919050565b6001816000016000828254019250508190555050565b82805461320590613fa0565b90600052602060002090601f016020900481019282613227576000855561326e565b82601f1061324057805160ff191683800117855561326e565b8280016001018555821561326e579182015b8281111561326d578251825591602001919060010190613252565b5b50905061327b919061327f565b5090565b5b80821115613298576000816000905550600101613280565b5090565b6000604051905090565b600080fd5b600080fd5b6000819050919050565b6132c3816132b0565b81146132ce57600080fd5b50565b6000813590506132e0816132ba565b92915050565b600080fd5b6000601f19601f8301169050919050565b7f4e487b7100000000000000000000000000000000000000000000000000000000600052604160045260246000fd5b613334826132eb565b810181811067ffffffffffffffff82111715613353576133526132fc565b5b80604052505050565b600061336661329c565b9050613372828261332b565b919050565b600067ffffffffffffffff821115613392576133916132fc565b5b602082029050602081019050919050565b600080fd5b600073ffffffffffffffffffffffffffffffffffffffff82169050919050565b60006133d3826133a8565b9050919050565b6133e3816133c8565b81146133ee57600080fd5b50565b600081359050613400816133da565b92915050565b600061341961341484613377565b61335c565b9050808382526020820190506020840283018581111561343c5761343b6133a3565b5b835b81811015613465578061345188826133f1565b84526020840193505060208101905061343e565b5050509392505050565b600082601f830112613484576134836132e6565b5b8135613494848260208601613406565b91505092915050565b600067ffffffffffffffff8211156134b8576134b76132fc565b5b602082029050602081019050919050565b60006134dc6134d78461349d565b61335c565b905080838252602082019050602084028301858111156134ff576134fe6133a3565b5b835b81811015613528578061351488826132d1565b845260208401935050602081019050613501565b5050509392505050565b600082601f830112613547576135466132e6565b5b81356135578482602086016134c9565b91505092915050565b600080600060608486031215613579576135786132a6565b5b6000613587868287016132d1565b935050602084013567ffffffffffffffff8111156135a8576135a76132ab565b5b6135b48682870161346f565b925050604084013567ffffffffffffffff8111156135d5576135d46132ab565b5b6135e186828701613532565b9150509250925092565b600080fd5b600067ffffffffffffffff82111561360b5761360a6132fc565b5b613614826132eb565b9050602081019050919050565b82818337600083830152505050565b600061364361363e846135f0565b61335c565b90508281526020810184848401111561365f5761365e6135eb565b5b61366a848285613621565b509392505050565b600082601f830112613687576136866132e6565b5b8135613697848260208601613630565b91505092915050565b600080600080608085870312156136ba576136b96132a6565b5b60006136c8878288016132d1565b94505060206136d9878288016132d1565b935050604085013567ffffffffffffffff8111156136fa576136f96132ab565b5b61370687828801613672565b925050606085013567ffffffffffffffff811115613727576137266132ab565b5b61373387828801613672565b91505092959194509250565b600060208284031215613755576137546132a6565b5b6000613763848285016132d1565b91505092915050565b600081519050919050565b600082825260208201905092915050565b6000819050602082019050919050565b6137a1816132b0565b82525050565b60006137b38383613798565b60208301905092915050565b6000602082019050919050565b60006137d78261376c565b6137e18185613777565b93506137ec83613788565b8060005b8381101561381d57815161380488826137a7565b975061380f836137bf565b9250506001810190506137f0565b5085935050505092915050565b6000602082019050818103600083015261384481846137cc565b905092915050565b600081519050919050565b600082825260208201905092915050565b6000819050602082019050919050565b613881816133c8565b82525050565b60006138938383613878565b60208301905092915050565b6000602082019050919050565b60006138b78261384c565b6138c18185613857565b93506138cc83613868565b8060005b838110156138fd5781516138e48882613887565b97506138ef8361389f565b9250506001810190506138d0565b5085935050505092915050565b6000602082019050818103600083015261392481846138ac565b905092915050565b60008060408385031215613943576139426132a6565b5b6000613951858286016132d1565b9250506020613962858286016133f1565b9150509250929050565b600080600060608486031215613985576139846132a6565b5b6000613993868287016132d1565b93505060206139a4868287016132d1565b925050604084013567ffffffffffffffff8111156139c5576139c46132ab565b5b6139d186828701613672565b9150509250925092565b6139e4816132b0565b82525050565b600081519050919050565b600082825260208201905092915050565b60005b83811015613a24578082015181840152602081019050613a09565b83811115613a33576000848401525b50505050565b6000613a44826139ea565b613a4e81856139f5565b9350613a5e818560208601613a06565b613a67816132eb565b840191505092915050565b6000606082019050613a8760008301866139db565b8181036020830152613a998185613a39565b90508181036040830152613aad8184613a39565b9050949350505050565b600080600080600060a08688031215613ad357613ad26132a6565b5b6000613ae1888289016132d1565b9550506020613af2888289016133f1565b9450506040613b03888289016132d1565b9350506060613b14888289016132d1565b9250506080613b25888289016132d1565b9150509295509295909350565b600080600060608486031215613b4b57613b4a6132a6565b5b6000613b59868287016132d1565b9350506020613b6a868287016132d1565b9250506040613b7b868287016132d1565b9150509250925092565b7f4e487b7100000000000000000000000000000000000000000000000000000000600052602160045260246000fd5b60078110613bc557613bc4613b85565b5b50565b6000819050613bd682613bb4565b919050565b6000613be682613bc8565b9050919050565b613bf681613bdb565b82525050565b613c05816133c8565b82525050565b600061016082019050613c21600083018e6139db565b613c2e602083018d613bed565b613c3b604083018c6139db565b613c48606083018b6139db565b613c55608083018a6139db565b613c6260a08301896139db565b81810360c0830152613c748188613a39565b9050613c8360e0830187613bfc565b613c91610100830186613bfc565b613c9f610120830185613bfc565b613cad610140830184613bfc565b9c9b505050505050505050505050565b600060208284031215613cd357613cd26132a6565b5b6000613ce1848285016133f1565b91505092915050565b600081519050919050565b600082825260208201905092915050565b6000819050602082019050919050565b613d1f81613bdb565b82525050565b600082825260208201905092915050565b6000613d41826139ea565b613d4b8185613d25565b9350613d5b818560208601613a06565b613d64816132eb565b840191505092915050565b600061016083016000830151613d886000860182613798565b506020830151613d9b6020860182613d16565b506040830151613dae6040860182613798565b506060830151613dc16060860182613798565b506080830151613dd46080860182613798565b5060a0830151613de760a0860182613798565b5060c083015184820360c0860152613dff8282613d36565b91505060e0830151613e1460e0860182613878565b50610100830151613e29610100860182613878565b50610120830151613e3e610120860182613878565b50610140830151613e53610140860182613878565b508091505092915050565b6000613e6a8383613d6f565b905092915050565b6000602082019050919050565b6000613e8a82613cea565b613e948185613cf5565b935083602082028501613ea685613d06565b8060005b85811015613ee25784840389528151613ec38582613e5e565b9450613ece83613e72565b925060208a01995050600181019050613eaa565b50829750879550505050505092915050565b60006020820190508181036000830152613f0e8184613e7f565b905092915050565b60008060408385031215613f2d57613f2c6132a6565b5b6000613f3b858286016132d1565b9250506020613f4c858286016132d1565b9150509250929050565b6000602082019050613f6b60008301846139db565b92915050565b7f4e487b7100000000000000000000000000000000000000000000000000000000600052602260045260246000fd5b60006002820490506001821680613fb857607f821691505b60208210811415613fcc57613fcb613f71565b5b50919050565b7f4e487b7100000000000000000000000000000000000000000000000000000000600052601160045260246000fd5b600061400c826132b0565b9150614017836132b0565b92508282101561402a57614029613fd2565b5b828203905092915050565b600060608201905061404a6000830186613bfc565b61405760208301856139db565b61406460408301846139db565b949350505050565b7f4e487b7100000000000000000000000000000000000000000000000000000000600052603260045260246000fd5b600082825260208201905092915050565b7f3078303000000000000000000000000000000000000000000000000000000000600082015250565b60006140e260048361409b565b91506140ed826140ac565b602082019050919050565b600060c08201905061410d6000830188613bfc565b61411a6020830187613bfc565b61412760408301866139db565b61413460608301856139db565b8181036080830152614145816140d5565b905061415460a08301846139db565b9695505050505050565b6000614169826132b0565b9150614174836132b0565b9250827fffffffffffffffffffffffffffffffffffffffffffffffffffffffffffffffff038211156141a9576141a8613fd2565b5b828201905092915050565b60006141bf826132b0565b91507fffffffffffffffffffffffffffffffffffffffffffffffffffffffffffffffff8214156141f2576141f1613fd2565b5b600182019050919050565b6000819050919050565b6000819050919050565b600061422c614227614222846141fd565b614207565b6132b0565b9050919050565b61423c81614211565b82525050565b6000819050919050565b600061426761426261425d84614242565b614207565b6132b0565b9050919050565b6142778161424c565b82525050565b600060c0820190506142926000830188613bfc565b61429f6020830187613bfc565b6142ac60408301866139db565b6142b96060830185614233565b81810360808301526142ca816140d5565b90506142d960a083018461426e565b9695505050505050565b7f556e6974732073686f756c642062652067726561746572207468617420310000600082015250565b6000614319601e836139f5565b9150614324826142e3565b602082019050919050565b600060208201905081810360008301526143488161430c565b9050919050565b60006060820190506143646000830186613bfc565b61437160208301856139db565b61437e6040830184614233565b94935050505056fea2646970667358221220a01497eab0c41e316237436298953bfd66b81fa155e1bb6e6946c7f87fcc5d5b64736f6c63430008080033",
  "linkReferences": {},
  "deployedLinkReferences": {}
}