{
  "_format": "hh-sol-artifact-1",
  "contractName": "Supplychain",
  "sourceName": "contracts/Supplychain.sol",
  "abi": [
    {
      "inputs": [
        {
          "internalType": "address",
          "name": "_supplychainToken",
          "type": "address"
        }
      ],
      "stateMutability": "nonpayable",
      "type": "constructor"
    },
    {
      "anonymous": false,
      "inputs": [
        {
          "indexed": false,
          "internalType": "address",
          "name": "_address",
          "type": "address"
        }
      ],
      "name": "AddCustomer",
      "type": "event"
    },
    {
      "anonymous": false,
      "inputs": [
        {
          "indexed": false,
          "internalType": "address",
          "name": "_address",
          "type": "address"
        }
      ],
      "name": "AddDistributor",
      "type": "event"
    },
    {
      "anonymous": false,
      "inputs": [
        {
          "indexed": false,
          "internalType": "address",
          "name": "_address",
          "type": "address"
        }
      ],
      "name": "AddFactory",
      "type": "event"
    },
    {
      "anonymous": false,
      "inputs": [
        {
          "indexed": false,
          "internalType": "address",
          "name": "_address",
          "type": "address"
        }
      ],
      "name": "AddRawMaterialSupplier",
      "type": "event"
    },
    {
      "anonymous": false,
      "inputs": [
        {
          "indexed": false,
          "internalType": "address",
          "name": "_address",
          "type": "address"
        }
      ],
      "name": "AddRetailer",
      "type": "event"
    },
    {
      "anonymous": false,
      "inputs": [
        {
          "indexed": false,
          "internalType": "address",
          "name": "_address",
          "type": "address"
        }
      ],
      "name": "AddWarehouse",
      "type": "event"
    },
    {
      "anonymous": false,
      "inputs": [
        {
          "indexed": false,
          "internalType": "uint256",
          "name": "_supplyChainId",
          "type": "uint256"
        }
      ],
      "name": "DistributorSellToRetailer",
      "type": "event"
    },
    {
      "anonymous": false,
      "inputs": [
        {
          "indexed": false,
          "internalType": "uint256",
          "name": "_supplyChainId",
          "type": "uint256"
        }
      ],
      "name": "FactoryBuyRawMaterial",
      "type": "event"
    },
    {
      "anonymous": false,
      "inputs": [
        {
          "indexed": false,
          "internalType": "uint256",
          "name": "_supplyChainId",
          "type": "uint256"
        }
      ],
      "name": "FactorySellItemToDistributors",
      "type": "event"
    },
    {
      "anonymous": false,
      "inputs": [
        {
          "indexed": true,
          "internalType": "address",
          "name": "previousOwner",
          "type": "address"
        },
        {
          "indexed": true,
          "internalType": "address",
          "name": "newOwner",
          "type": "address"
        }
      ],
      "name": "OwnershipTransferred",
      "type": "event"
    },
    {
      "anonymous": false,
      "inputs": [
        {
          "indexed": false,
          "internalType": "uint256",
          "name": "_supplyChainId",
          "type": "uint256"
        }
      ],
      "name": "RawMaterialSupplierSuppliesRM",
      "type": "event"
    },
    {
      "anonymous": false,
      "inputs": [
        {
          "indexed": false,
          "internalType": "address",
          "name": "_address",
          "type": "address"
        }
      ],
      "name": "RemoveCustomer",
      "type": "event"
    },
    {
      "anonymous": false,
      "inputs": [
        {
          "indexed": false,
          "internalType": "address",
          "name": "_address",
          "type": "address"
        }
      ],
      "name": "RemoveDistributor",
      "type": "event"
    },
    {
      "anonymous": false,
      "inputs": [
        {
          "indexed": false,
          "internalType": "address",
          "name": "_address",
          "type": "address"
        }
      ],
      "name": "RemoveFactory",
      "type": "event"
    },
    {
      "anonymous": false,
      "inputs": [
        {
          "indexed": false,
          "internalType": "address",
          "name": "_address",
          "type": "address"
        }
      ],
      "name": "RemoveRawMaterialSupplier",
      "type": "event"
    },
    {
      "anonymous": false,
      "inputs": [
        {
          "indexed": false,
          "internalType": "address",
          "name": "_address",
          "type": "address"
        }
      ],
      "name": "RemoveRetailer",
      "type": "event"
    },
    {
      "anonymous": false,
      "inputs": [
        {
          "indexed": false,
          "internalType": "address",
          "name": "_address",
          "type": "address"
        }
      ],
      "name": "RemoveWarehouse",
      "type": "event"
    },
    {
      "anonymous": false,
      "inputs": [
        {
          "indexed": false,
          "internalType": "uint256",
          "name": "_supplyChainId",
          "type": "uint256"
        }
      ],
      "name": "RetailerSellToCustomer",
      "type": "event"
    },
    {
      "anonymous": false,
      "inputs": [
        {
          "indexed": false,
          "internalType": "uint256",
          "name": "a",
          "type": "uint256"
        },
        {
          "indexed": false,
          "internalType": "uint256",
          "name": "b",
          "type": "uint256"
        }
      ],
      "name": "valueeeeeeee",
      "type": "event"
    },
    {
      "inputs": [
        {
          "internalType": "uint256",
          "name": "",
          "type": "uint256"
        }
      ],
      "name": "YarnDetails",
      "outputs": [
        {
          "internalType": "uint256",
          "name": "YarnAmount",
          "type": "uint256"
        },
        {
          "internalType": "string",
          "name": "YarnColor",
          "type": "string"
        },
        {
          "internalType": "string",
          "name": "YarnType",
          "type": "string"
        }
      ],
      "stateMutability": "view",
      "type": "function"
    },
    {
      "inputs": [
        {
          "internalType": "address",
          "name": "_address",
          "type": "address"
        }
      ],
      "name": "addCustomer",
      "outputs": [],
      "stateMutability": "nonpayable",
      "type": "function"
    },
    {
      "inputs": [
        {
          "internalType": "address",
          "name": "_address",
          "type": "address"
        }
      ],
      "name": "addDistributor",
      "outputs": [],
      "stateMutability": "nonpayable",
      "type": "function"
    },
    {
      "inputs": [
        {
          "internalType": "address",
          "name": "_address",
          "type": "address"
        }
      ],
      "name": "addFactory",
      "outputs": [],
      "stateMutability": "nonpayable",
      "type": "function"
    },
    {
      "inputs": [
        {
          "internalType": "address",
          "name": "_address",
          "type": "address"
        }
      ],
      "name": "addRawMaterialSupplier",
      "outputs": [],
      "stateMutability": "nonpayable",
      "type": "function"
    },
    {
      "inputs": [
        {
          "internalType": "address",
          "name": "_address",
          "type": "address"
        }
      ],
      "name": "addRetailer",
      "outputs": [],
      "stateMutability": "nonpayable",
      "type": "function"
    },
    {
      "inputs": [
        {
          "internalType": "address",
          "name": "_address",
          "type": "address"
        }
      ],
      "name": "addWarehouse",
      "outputs": [],
      "stateMutability": "nonpayable",
      "type": "function"
    },
    {
      "inputs": [
        {
          "internalType": "uint256",
          "name": "_supplyChainId",
          "type": "uint256"
        }
      ],
      "name": "distributorSellToRetailer",
      "outputs": [],
      "stateMutability": "nonpayable",
      "type": "function"
    },
    {
      "inputs": [
        {
          "internalType": "uint256",
          "name": "_supplyChainId",
          "type": "uint256"
        },
        {
          "internalType": "address",
          "name": "_warehouse",
          "type": "address"
        },
        {
          "internalType": "uint256",
          "name": "_polysteramount",
          "type": "uint256"
        },
        {
          "internalType": "uint256",
          "name": "_cottonamount",
          "type": "uint256"
        },
        {
          "internalType": "uint256",
          "name": "_woolamount",
          "type": "uint256"
        }
      ],
      "name": "factoryBuyRawMaterial",
      "outputs": [],
      "stateMutability": "nonpayable",
      "type": "function"
    },
    {
      "inputs": [
        {
          "internalType": "uint256",
          "name": "_supplyChainId",
          "type": "uint256"
        },
        {
          "internalType": "uint256",
          "name": "_totalUnits",
          "type": "uint256"
        },
        {
          "internalType": "string",
          "name": "_description",
          "type": "string"
        }
      ],
      "name": "factoryCompleteGarmentManufacturing",
      "outputs": [],
      "stateMutability": "nonpayable",
      "type": "function"
    },
    {
      "inputs": [
        {
          "internalType": "uint256",
          "name": "_supplyChainId",
          "type": "uint256"
        },
        {
          "internalType": "uint256",
          "name": "_yarnAmount",
          "type": "uint256"
        },
        {
          "internalType": "string",
          "name": "_yarnColor",
          "type": "string"
        },
        {
          "internalType": "string",
          "name": "_yarnType",
          "type": "string"
        }
      ],
      "name": "factoryCompleteSpinningWaeving",
      "outputs": [],
      "stateMutability": "nonpayable",
      "type": "function"
    },
    {
      "inputs": [
        {
          "internalType": "uint256",
          "name": "_supplyChainId",
          "type": "uint256"
        },
        {
          "internalType": "address[]",
          "name": "distributors",
          "type": "address[]"
        },
        {
          "internalType": "uint256[]",
          "name": "quantity",
          "type": "uint256[]"
        }
      ],
      "name": "factorySellItemToDistributors",
      "outputs": [],
      "stateMutability": "nonpayable",
      "type": "function"
    },
    {
      "inputs": [],
      "name": "getCustomer",
      "outputs": [
        {
          "internalType": "address[]",
          "name": "",
          "type": "address[]"
        }
      ],
      "stateMutability": "view",
      "type": "function"
    },
    {
      "inputs": [],
      "name": "getDistributor",
      "outputs": [
        {
          "internalType": "address[]",
          "name": "",
          "type": "address[]"
        }
      ],
      "stateMutability": "view",
      "type": "function"
    },
    {
      "inputs": [
        {
          "internalType": "uint256",
          "name": "_supplychianId",
          "type": "uint256"
        }
      ],
      "name": "getDistributorCounters",
      "outputs": [
        {
          "internalType": "uint256[]",
          "name": "",
          "type": "uint256[]"
        }
      ],
      "stateMutability": "view",
      "type": "function"
    },
    {
      "inputs": [
        {
          "internalType": "uint256",
          "name": "_supplychianId",
          "type": "uint256"
        }
      ],
      "name": "getDistributorUnits",
      "outputs": [
        {
          "internalType": "uint256[]",
          "name": "",
          "type": "uint256[]"
        }
      ],
      "stateMutability": "view",
      "type": "function"
    },
    {
      "inputs": [
        {
          "internalType": "uint256",
          "name": "_supplychianId",
          "type": "uint256"
        }
      ],
      "name": "getDistributors",
      "outputs": [
        {
          "internalType": "address[]",
          "name": "",
          "type": "address[]"
        }
      ],
      "stateMutability": "view",
      "type": "function"
    },
    {
      "inputs": [],
      "name": "getFactory",
      "outputs": [
        {
          "internalType": "address[]",
          "name": "",
          "type": "address[]"
        }
      ],
      "stateMutability": "view",
      "type": "function"
    },
    {
      "inputs": [],
      "name": "getRawMaterialSupplier",
      "outputs": [
        {
          "internalType": "address[]",
          "name": "",
          "type": "address[]"
        }
      ],
      "stateMutability": "view",
      "type": "function"
    },
    {
      "inputs": [],
      "name": "getRetailer",
      "outputs": [
        {
          "internalType": "address[]",
          "name": "",
          "type": "address[]"
        }
      ],
      "stateMutability": "view",
      "type": "function"
    },
    {
      "inputs": [
        {
          "internalType": "uint256",
          "name": "_supplychianId",
          "type": "uint256"
        }
      ],
      "name": "getRetailers",
      "outputs": [
        {
          "internalType": "address[]",
          "name": "",
          "type": "address[]"
        }
      ],
      "stateMutability": "view",
      "type": "function"
    },
    {
      "inputs": [
        {
          "internalType": "uint256",
          "name": "_supplychianId",
          "type": "uint256"
        }
      ],
      "name": "getRetailersCounters",
      "outputs": [
        {
          "internalType": "uint256[]",
          "name": "",
          "type": "uint256[]"
        }
      ],
      "stateMutability": "view",
      "type": "function"
    },
    {
      "inputs": [
        {
          "internalType": "uint256",
          "name": "_supplychianId",
          "type": "uint256"
        }
      ],
      "name": "getRetailersUnits",
      "outputs": [
        {
          "internalType": "uint256[]",
          "name": "",
          "type": "uint256[]"
        }
      ],
      "stateMutability": "view",
      "type": "function"
    },
    {
      "inputs": [],
      "name": "getWarehouse",
      "outputs": [
        {
          "internalType": "address[]",
          "name": "",
          "type": "address[]"
        }
      ],
      "stateMutability": "view",
      "type": "function"
    },
    {
      "inputs": [
        {
          "internalType": "address",
          "name": "warehouse",
          "type": "address"
        }
      ],
      "name": "getWarehouseItems",
      "outputs": [
        {
          "components": [
            {
              "internalType": "uint256",
              "name": "supplyChainId",
              "type": "uint256"
            },
            {
              "internalType": "enum Supplychain.State",
              "name": "itemState",
              "type": "uint8"
            },
            {
              "internalType": "uint256",
              "name": "PolyesterAmount",
              "type": "uint256"
            },
            {
              "internalType": "uint256",
              "name": "CottonAmount",
              "type": "uint256"
            },
            {
              "internalType": "uint256",
              "name": "WoolAmount",
              "type": "uint256"
            },
            {
              "internalType": "uint256",
              "name": "totalUnits",
              "type": "uint256"
            },
            {
              "internalType": "string",
              "name": "Description",
              "type": "string"
            },
            {
              "internalType": "address",
              "name": "RawMaterialSupplierID",
              "type": "address"
            },
            {
              "internalType": "address",
              "name": "warehouseID",
              "type": "address"
            },
            {
              "internalType": "address",
              "name": "factoryID",
              "type": "address"
            }
          ],
          "internalType": "struct Supplychain.Item[]",
          "name": "",
          "type": "tuple[]"
        }
      ],
      "stateMutability": "view",
      "type": "function"
    },
    {
      "inputs": [
        {
          "internalType": "address",
          "name": "_address",
          "type": "address"
        }
      ],
      "name": "isCustomer",
      "outputs": [
        {
          "internalType": "bool",
          "name": "",
          "type": "bool"
        }
      ],
      "stateMutability": "view",
      "type": "function"
    },
    {
      "inputs": [
        {
          "internalType": "address",
          "name": "_address",
          "type": "address"
        }
      ],
      "name": "isDistributor",
      "outputs": [
        {
          "internalType": "bool",
          "name": "",
          "type": "bool"
        }
      ],
      "stateMutability": "view",
      "type": "function"
    },
    {
      "inputs": [
        {
          "internalType": "address",
          "name": "_address",
          "type": "address"
        }
      ],
      "name": "isFactory",
      "outputs": [
        {
          "internalType": "bool",
          "name": "",
          "type": "bool"
        }
      ],
      "stateMutability": "view",
      "type": "function"
    },
    {
      "inputs": [
        {
          "internalType": "address",
          "name": "_address",
          "type": "address"
        }
      ],
      "name": "isRawMaterialSupplier",
      "outputs": [
        {
          "internalType": "bool",
          "name": "",
          "type": "bool"
        }
      ],
      "stateMutability": "view",
      "type": "function"
    },
    {
      "inputs": [
        {
          "internalType": "address",
          "name": "_address",
          "type": "address"
        }
      ],
      "name": "isRetailer",
      "outputs": [
        {
          "internalType": "bool",
          "name": "",
          "type": "bool"
        }
      ],
      "stateMutability": "view",
      "type": "function"
    },
    {
      "inputs": [
        {
          "internalType": "address",
          "name": "_address",
          "type": "address"
        }
      ],
      "name": "isWarehouse",
      "outputs": [
        {
          "internalType": "bool",
          "name": "",
          "type": "bool"
        }
      ],
      "stateMutability": "view",
      "type": "function"
    },
    {
      "inputs": [
        {
          "internalType": "uint256",
          "name": "",
          "type": "uint256"
        }
      ],
      "name": "items",
      "outputs": [
        {
          "internalType": "uint256",
          "name": "supplyChainId",
          "type": "uint256"
        },
        {
          "internalType": "enum Supplychain.State",
          "name": "itemState",
          "type": "uint8"
        },
        {
          "internalType": "uint256",
          "name": "PolyesterAmount",
          "type": "uint256"
        },
        {
          "internalType": "uint256",
          "name": "CottonAmount",
          "type": "uint256"
        },
        {
          "internalType": "uint256",
          "name": "WoolAmount",
          "type": "uint256"
        },
        {
          "internalType": "uint256",
          "name": "totalUnits",
          "type": "uint256"
        },
        {
          "internalType": "string",
          "name": "Description",
          "type": "string"
        },
        {
          "internalType": "address",
          "name": "RawMaterialSupplierID",
          "type": "address"
        },
        {
          "internalType": "address",
          "name": "warehouseID",
          "type": "address"
        },
        {
          "internalType": "address",
          "name": "factoryID",
          "type": "address"
        }
      ],
      "stateMutability": "view",
      "type": "function"
    },
    {
      "inputs": [],
      "name": "owner",
      "outputs": [
        {
          "internalType": "address",
          "name": "",
          "type": "address"
        }
      ],
      "stateMutability": "view",
      "type": "function"
    },
    {
      "inputs": [
        {
          "internalType": "uint256",
          "name": "_polyesterAmount",
          "type": "uint256"
        },
        {
          "internalType": "uint256",
          "name": "_cottonAmount",
          "type": "uint256"
        },
        {
          "internalType": "uint256",
          "name": "_woolAmount",
          "type": "uint256"
        }
      ],
      "name": "rawMaterialSupplierSuppliesRM",
      "outputs": [],
      "stateMutability": "nonpayable",
      "type": "function"
    },
    {
      "inputs": [
        {
          "internalType": "address",
          "name": "_address",
          "type": "address"
        }
      ],
      "name": "removeCustomer",
      "outputs": [],
      "stateMutability": "nonpayable",
      "type": "function"
    },
    {
      "inputs": [
        {
          "internalType": "address",
          "name": "_address",
          "type": "address"
        }
      ],
      "name": "removeCustomerSelf",
      "outputs": [],
      "stateMutability": "nonpayable",
      "type": "function"
    },
    {
      "inputs": [
        {
          "internalType": "address",
          "name": "_address",
          "type": "address"
        }
      ],
      "name": "removeDistributor",
      "outputs": [],
      "stateMutability": "nonpayable",
      "type": "function"
    },
    {
      "inputs": [
        {
          "internalType": "address",
          "name": "_address",
          "type": "address"
        }
      ],
      "name": "removeDistributorSelf",
      "outputs": [],
      "stateMutability": "nonpayable",
      "type": "function"
    },
    {
      "inputs": [
        {
          "internalType": "address",
          "name": "_address",
          "type": "address"
        }
      ],
      "name": "removeFactory",
      "outputs": [],
      "stateMutability": "nonpayable",
      "type": "function"
    },
    {
      "inputs": [
        {
          "internalType": "address",
          "name": "_address",
          "type": "address"
        }
      ],
      "name": "removeFactorySelf",
      "outputs": [],
      "stateMutability": "nonpayable",
      "type": "function"
    },
    {
      "inputs": [
        {
          "internalType": "address",
          "name": "_address",
          "type": "address"
        }
      ],
      "name": "removeRawMaterialSupplier",
      "outputs": [],
      "stateMutability": "nonpayable",
      "type": "function"
    },
    {
      "inputs": [
        {
          "internalType": "address",
          "name": "_address",
          "type": "address"
        }
      ],
      "name": "removeRawMaterialSupplierSelf",
      "outputs": [],
      "stateMutability": "nonpayable",
      "type": "function"
    },
    {
      "inputs": [
        {
          "internalType": "address",
          "name": "_address",
          "type": "address"
        }
      ],
      "name": "removeRetailer",
      "outputs": [],
      "stateMutability": "nonpayable",
      "type": "function"
    },
    {
      "inputs": [
        {
          "internalType": "address",
          "name": "_address",
          "type": "address"
        }
      ],
      "name": "removeRetailerSelf",
      "outputs": [],
      "stateMutability": "nonpayable",
      "type": "function"
    },
    {
      "inputs": [
        {
          "internalType": "address",
          "name": "_address",
          "type": "address"
        }
      ],
      "name": "removeSelfWarehouse",
      "outputs": [],
      "stateMutability": "nonpayable",
      "type": "function"
    },
    {
      "inputs": [
        {
          "internalType": "address",
          "name": "_address",
          "type": "address"
        }
      ],
      "name": "removeWarehouse",
      "outputs": [],
      "stateMutability": "nonpayable",
      "type": "function"
    },
    {
      "inputs": [],
      "name": "renounceOwnership",
      "outputs": [],
      "stateMutability": "nonpayable",
      "type": "function"
    },
    {
      "inputs": [
        {
          "internalType": "uint256",
          "name": "",
          "type": "uint256"
        },
        {
          "internalType": "uint256",
          "name": "",
          "type": "uint256"
        }
      ],
      "name": "timeStamps",
      "outputs": [
        {
          "internalType": "uint256",
          "name": "",
          "type": "uint256"
        }
      ],
      "stateMutability": "view",
      "type": "function"
    },
    {
      "inputs": [],
      "name": "totalBatchs",
      "outputs": [
        {
          "internalType": "uint256",
          "name": "",
          "type": "uint256"
        }
      ],
      "stateMutability": "view",
      "type": "function"
    },
    {
      "inputs": [
        {
          "internalType": "address",
          "name": "newOwner",
          "type": "address"
        }
      ],
      "name": "transferOwnership",
      "outputs": [],
      "stateMutability": "nonpayable",
      "type": "function"
    }
  ],
  "bytecode": "0x60806040523480156200001157600080fd5b5060405162006191380380620061918339818101604052810190620000379190620006dd565b620000576200004b6200010560201b60201c565b6200010d60201b60201c565b6200006833620001d160201b60201c565b62000079336200023860201b60201c565b6200008a336200029f60201b60201c565b6200009b336200030660201b60201c565b620000ac336200036d60201b60201c565b620000bd33620003d460201b60201c565b80600760006101000a81548173ffffffffffffffffffffffffffffffffffffffff021916908373ffffffffffffffffffffffffffffffffffffffff16021790555050620008e8565b600033905090565b60008060009054906101000a900473ffffffffffffffffffffffffffffffffffffffff169050816000806101000a81548173ffffffffffffffffffffffffffffffffffffffff021916908373ffffffffffffffffffffffffffffffffffffffff1602179055508173ffffffffffffffffffffffffffffffffffffffff168173ffffffffffffffffffffffffffffffffffffffff167f8be0079c531659141344cd1fd0a4f28419497f9722a3daafe3b4186f6b6457e060405160405180910390a35050565b620001e16200043b60201b60201c565b620001fc816001620004cc60201b62003e401790919060201c565b7fa3da795b47eb190084f878e63c07509e5f6df63ebc51443c0ccab2fc11c0d883816040516200022d919062000720565b60405180910390a150565b620002486200043b60201b60201c565b62000263816002620004cc60201b62003e401790919060201c565b7f364ee90eb63717b99192fdb951c7b1aa91a45bca11ac73ab40cfad762631fbce8160405162000294919062000720565b60405180910390a150565b620002af6200043b60201b60201c565b620002ca816003620004cc60201b62003e401790919060201c565b7f5a8fb443d09cf1426e80f80dd509757d71d4687674ab4adad906c5e2b6e1e62c81604051620002fb919062000720565b60405180910390a150565b620003166200043b60201b60201c565b62000331816004620004cc60201b62003e401790919060201c565b7f3afd547f7eb357741de51229846ae795cb06449e4b4032eb34a7cc0a751e25c18160405162000362919062000720565b60405180910390a150565b6200037d6200043b60201b60201c565b62000398816005620004cc60201b62003e401790919060201c565b7f0eea60f9e1851b51feed56c339be177ea715591923622a0effe46dbb8885efa681604051620003c9919062000720565b60405180910390a150565b620003e46200043b60201b60201c565b620003ff816006620004cc60201b62003e401790919060201c565b7f23b2415a50efd127e694ba174e400d457ad65c58752e171b6d17f3f5daa26fdb8160405162000430919062000720565b60405180910390a150565b6200044b6200010560201b60201c565b73ffffffffffffffffffffffffffffffffffffffff16620004716200058a60201b60201c565b73ffffffffffffffffffffffffffffffffffffffff1614620004ca576040517f08c379a0000000000000000000000000000000000000000000000000000000008152600401620004c1906200079e565b60405180910390fd5b565b620004de8282620005b360201b60201c565b1562000521576040517f08c379a0000000000000000000000000000000000000000000000000000000008152600401620005189062000810565b60405180910390fd5b81600001819080600181540180825580915050600190039060005260206000200160009091909190916101000a81548173ffffffffffffffffffffffffffffffffffffffff021916908373ffffffffffffffffffffffffffffffffffffffff1602179055505050565b60008060009054906101000a900473ffffffffffffffffffffffffffffffffffffffff16905090565b6000808360000180549050905060005b8181101562000666578373ffffffffffffffffffffffffffffffffffffffff16856000018281548110620005fc57620005fb62000832565b5b9060005260206000200160009054906101000a900473ffffffffffffffffffffffffffffffffffffffff1673ffffffffffffffffffffffffffffffffffffffff16141562000650576001925050506200066d565b80806200065d906200089a565b915050620005c3565b5060009150505b92915050565b600080fd5b600073ffffffffffffffffffffffffffffffffffffffff82169050919050565b6000620006a58262000678565b9050919050565b620006b78162000698565b8114620006c357600080fd5b50565b600081519050620006d781620006ac565b92915050565b600060208284031215620006f657620006f562000673565b5b60006200070684828501620006c6565b91505092915050565b6200071a8162000698565b82525050565b60006020820190506200073760008301846200070f565b92915050565b600082825260208201905092915050565b7f4f776e61626c653a2063616c6c6572206973206e6f7420746865206f776e6572600082015250565b6000620007866020836200073d565b915062000793826200074e565b602082019050919050565b60006020820190508181036000830152620007b98162000777565b9050919050565b7f524f4c455f414c52454144595f45584953545300000000000000000000000000600082015250565b6000620007f86013836200073d565b91506200080582620007c0565b602082019050919050565b600060208201905081810360008301526200082b81620007e9565b9050919050565b7f4e487b7100000000000000000000000000000000000000000000000000000000600052603260045260246000fd5b7f4e487b7100000000000000000000000000000000000000000000000000000000600052601160045260246000fd5b6000819050919050565b6000620008a78262000890565b91507fffffffffffffffffffffffffffffffffffffffffffffffffffffffffffffffff821415620008dd57620008dc62000861565b5b600182019050919050565b61589980620008f86000396000f3fe608060405234801561001057600080fd5b50600436106102d65760003560e01c8063814f696e11610182578063bdacda31116100e9578063e6647c5c116100a2578063eeb341331161007c578063eeb3413314610914578063f2fde38b14610932578063f80d1ff01461094e578063faf31e081461096c576102d6565b8063e6647c5c14610898578063e70a962b146108c8578063e7d0831d146108f8576102d6565b8063bdacda31146107a9578063bfb231d2146107c7578063bfed485614610800578063dafe1ef714610830578063e102add814610860578063e3c1a5311461087c576102d6565b80638eb06ccf1161013b5780638eb06ccf146106d95780638ec4f505146106f55780638f0c86fa14610711578063a198d49614610741578063ad973d741461075d578063bca4bd5014610779576102d6565b8063814f696e1461062d5780638448051014610649578063862a68e3146106655780638853ad751461068157806388cc58e41461069d5780638da5cb5b146106bb576102d6565b80634d2ec64c116102415780635da09b88116101fa57806370099ec8116101d457806370099ec8146105cf578063715018a6146105eb5780637250e224146105f557806380bedacf14610611576102d6565b80635da09b8814610565578063650d993b14610595578063678c12a2146105b3576102d6565b80634d2ec64c146104915780635166b5c8146104c357806357c1f9e2146104df5780635884965f146104fb5780635a968383146105195780635bf2791214610549576102d6565b806329ce1ec51161029357806329ce1ec5146103d55780632a7ec29f146103f1578063319af8571461040d5780633c0e25a41461043d5780634b37c73f146104595780634c5eee0a14610475576102d6565b80630f04ba67146102db578063201ef8f21461030b57806320519bb014610327578063209d353e146103575780632885b9431461038757806328fd5e83146103a5575b600080fd5b6102f560048036038101906102f09190614469565b61099c565b60405161030291906144b1565b60405180910390f35b61032560048036038101906103209190614648565b6109b9565b005b610341600480360381019061033c91906146e7565b610fb5565b60405161034e91906147d2565b60405180910390f35b610371600480360381019061036c91906146e7565b611020565b60405161037e91906148b2565b60405180910390f35b61038f6110c1565b60405161039c91906148b2565b60405180910390f35b6103bf60048036038101906103ba9190614469565b6110d2565b6040516103cc91906144b1565b60405180910390f35b6103ef60048036038101906103ea9190614469565b6110ef565b005b61040b60048036038101906104069190614469565b611145565b005b610427600480360381019061042291906146e7565b611201565b60405161043491906147d2565b60405180910390f35b61045760048036038101906104529190614469565b61126c565b005b610473600480360381019061046e9190614469565b6112c2565b005b61048f600480360381019061048a91906148d4565b611318565b005b6104ab60048036038101906104a691906146e7565b6118f9565b6040516104ba939291906149da565b60405180910390f35b6104dd60048036038101906104d89190614469565b611a33565b005b6104f960048036038101906104f49190614469565b611a89565b005b610503611adf565b60405161051091906148b2565b60405180910390f35b610533600480360381019061052e91906146e7565b611af0565b60405161054091906147d2565b60405180910390f35b610563600480360381019061055e9190614469565b611b5b565b005b61057f600480360381019061057a9190614469565b611c17565b60405161058c91906144b1565b60405180910390f35b61059d611c34565b6040516105aa91906148b2565b60405180910390f35b6105cd60048036038101906105c89190614baa565b611c45565b005b6105e960048036038101906105e49190614469565b61253e565b005b6105f3612594565b005b61060f600480360381019061060a9190614469565b6125a8565b005b61062b60048036038101906106269190614469565b6125fe565b005b61064760048036038101906106429190614469565b6126ba565b005b610663600480360381019061065e9190614469565b612710565b005b61067f600480360381019061067a9190614c35565b6127cc565b005b61069b60048036038101906106969190614469565b612f53565b005b6106a561300f565b6040516106b291906148b2565b60405180910390f35b6106c3613020565b6040516106d09190614cbf565b60405180910390f35b6106f360048036038101906106ee9190614469565b613049565b005b61070f600480360381019061070a9190614469565b61309f565b005b61072b60048036038101906107269190614469565b6130f5565b60405161073891906144b1565b60405180910390f35b61075b60048036038101906107569190614cda565b613112565b005b61077760048036038101906107729190614469565b61349a565b005b610793600480360381019061078e9190614469565b6134f0565b6040516107a091906144b1565b60405180910390f35b6107b161350d565b6040516107be91906148b2565b60405180910390f35b6107e160048036038101906107dc91906146e7565b61351e565b6040516107f79a99989796959493929190614da4565b60405180910390f35b61081a60048036038101906108159190614469565b613667565b604051610827919061503c565b60405180910390f35b61084a600480360381019061084591906146e7565b613907565b60405161085791906148b2565b60405180910390f35b61087a600480360381019061087591906146e7565b6139a8565b005b61089660048036038101906108919190614469565b613bcf565b005b6108b260048036038101906108ad919061505e565b613c25565b6040516108bf919061509e565b60405180910390f35b6108e260048036038101906108dd91906146e7565b613c56565b6040516108ef91906147d2565b60405180910390f35b610912600480360381019061090d9190614469565b613cc1565b005b61091c613d7d565b604051610929919061509e565b60405180910390f35b61094c60048036038101906109479190614469565b613d8e565b005b610956613e12565b60405161096391906148b2565b60405180910390f35b61098660048036038101906109819190614469565b613e23565b60405161099391906144b1565b60405180910390f35b60006109b2826003613ef390919063ffffffff16565b9050919050565b6109c23361099c565b6109cb57600080fd5b6000600b600086815260200190815260200160002060405180610140016040529081600082015481526020016001820160009054906101000a900460ff166006811115610a1b57610a1a614d2d565b5b6006811115610a2d57610a2c614d2d565b5b815260200160028201548152602001600382015481526020016004820154815260200160058201548152602001600682018054610a69906150e8565b80601f0160208091040260200160405190810160405280929190818152602001828054610a95906150e8565b8015610ae25780601f10610ab757610100808354040283529160200191610ae2565b820191906000526020600020905b815481529060010190602001808311610ac557829003601f168201915b505050505081526020016007820160009054906101000a900473ffffffffffffffffffffffffffffffffffffffff1673ffffffffffffffffffffffffffffffffffffffff1673ffffffffffffffffffffffffffffffffffffffff1681526020016008820160009054906101000a900473ffffffffffffffffffffffffffffffffffffffff1673ffffffffffffffffffffffffffffffffffffffff1673ffffffffffffffffffffffffffffffffffffffff1681526020016009820160009054906101000a900473ffffffffffffffffffffffffffffffffffffffff1673ffffffffffffffffffffffffffffffffffffffff1673ffffffffffffffffffffffffffffffffffffffff1681525050905083600960008781526020019081526020016000206000018190555082600960008781526020019081526020016000206001019080519060200190610c34929190614354565b5081600960008781526020019081526020016000206002019080519060200190610c5f929190614354565b50600281602001906006811115610c7957610c78614d2d565b5b90816006811115610c8d57610c8c614d2d565b5b8152505080600b60008781526020019081526020016000206000820151816000015560208201518160010160006101000a81548160ff02191690836006811115610cda57610cd9614d2d565b5b021790555060408201518160020155606082015181600301556080820151816004015560a0820151816005015560c0820151816006019080519060200190610d23929190614354565b5060e08201518160070160006101000a81548173ffffffffffffffffffffffffffffffffffffffff021916908373ffffffffffffffffffffffffffffffffffffffff1602179055506101008201518160080160006101000a81548173ffffffffffffffffffffffffffffffffffffffff021916908373ffffffffffffffffffffffffffffffffffffffff1602179055506101208201518160090160006101000a81548173ffffffffffffffffffffffffffffffffffffffff021916908373ffffffffffffffffffffffffffffffffffffffff1602179055509050506000600c600083610100015173ffffffffffffffffffffffffffffffffffffffff1673ffffffffffffffffffffffffffffffffffffffff1681526020019081526020016000208054905090506000811115610f735760005b81811015610f715786600c600085610100015173ffffffffffffffffffffffffffffffffffffffff1673ffffffffffffffffffffffffffffffffffffffff1681526020019081526020016000208281548110610eb557610eb461511a565b5b90600052602060002090600a0201600001541415610f5e576002600c600085610100015173ffffffffffffffffffffffffffffffffffffffff1673ffffffffffffffffffffffffffffffffffffffff1681526020019081526020016000208281548110610f2557610f2461511a565b5b90600052602060002090600a020160010160006101000a81548160ff02191690836006811115610f5857610f57614d2d565b5b02179055505b8080610f6990615178565b915050610e56565b505b600a6000878152602001908152602001600020429080600181540180825580915050600190039060005260206000200160009091909190915055505050505050565b60606012600083815260200190815260200160002080548060200260200160405190810160405280929190818152602001828054801561101457602002820191906000526020600020905b815481526020019060010190808311611000575b50505050509050919050565b6060601060008381526020019081526020016000208054806020026020016040519081016040528092919081815260200182805480156110b557602002820191906000526020600020905b8160009054906101000a900473ffffffffffffffffffffffffffffffffffffffff1673ffffffffffffffffffffffffffffffffffffffff168152602001906001019080831161106b575b50505050509050919050565b60606110cd6002613faa565b905090565b60006110e8826006613ef390919063ffffffff16565b9050919050565b6110f761403c565b61110b816003613e4090919063ffffffff16565b7f5a8fb443d09cf1426e80f80dd509757d71d4687674ab4adad906c5e2b6e1e62c8160405161113a9190614cbf565b60405180910390a150565b8073ffffffffffffffffffffffffffffffffffffffff163373ffffffffffffffffffffffffffffffffffffffff16146111b3576040517f08c379a00000000000000000000000000000000000000000000000000000000081526004016111aa9061520d565b60405180910390fd5b6111c78160066140ba90919063ffffffff16565b7f4709990004724f283154297c090b8420d74dcbf9ffcd6bc50294e7350c7cb4fc816040516111f69190614cbf565b60405180910390a150565b60606011600083815260200190815260200160002080548060200260200160405190810160405280929190818152602001828054801561126057602002820191906000526020600020905b81548152602001906001019080831161124c575b50505050509050919050565b61127461403c565b611288816001613e4090919063ffffffff16565b7fa3da795b47eb190084f878e63c07509e5f6df63ebc51443c0ccab2fc11c0d883816040516112b79190614cbf565b60405180910390a150565b6112ca61403c565b6112de8160036140ba90919063ffffffff16565b7f3d4e7057f9f992c8d86344002642adf5d5cd33816b302134e7ef5e0f045a6e788160405161130d9190614cbf565b60405180910390a150565b6113213361099c565b61132a57600080fd5b600182101561136e576040517f08c379a000000000000000000000000000000000000000000000000000000000815260040161136590615279565b60405180910390fd5b6000600b600085815260200190815260200160002060405180610140016040529081600082015481526020016001820160009054906101000a900460ff1660068111156113be576113bd614d2d565b5b60068111156113d0576113cf614d2d565b5b81526020016002820154815260200160038201548152602001600482015481526020016005820154815260200160068201805461140c906150e8565b80601f0160208091040260200160405190810160405280929190818152602001828054611438906150e8565b80156114855780601f1061145a57610100808354040283529160200191611485565b820191906000526020600020905b81548152906001019060200180831161146857829003601f168201915b505050505081526020016007820160009054906101000a900473ffffffffffffffffffffffffffffffffffffffff1673ffffffffffffffffffffffffffffffffffffffff1673ffffffffffffffffffffffffffffffffffffffff1681526020016008820160009054906101000a900473ffffffffffffffffffffffffffffffffffffffff1673ffffffffffffffffffffffffffffffffffffffff1673ffffffffffffffffffffffffffffffffffffffff1681526020016009820160009054906101000a900473ffffffffffffffffffffffffffffffffffffffff1673ffffffffffffffffffffffffffffffffffffffff1673ffffffffffffffffffffffffffffffffffffffff16815250509050828160a0018181525050818160c001819052506003816020019060068111156115be576115bd614d2d565b5b908160068111156115d2576115d1614d2d565b5b8152505080600b60008681526020019081526020016000206000820151816000015560208201518160010160006101000a81548160ff0219169083600681111561161f5761161e614d2d565b5b021790555060408201518160020155606082015181600301556080820151816004015560a0820151816005015560c0820151816006019080519060200190611668929190614354565b5060e08201518160070160006101000a81548173ffffffffffffffffffffffffffffffffffffffff021916908373ffffffffffffffffffffffffffffffffffffffff1602179055506101008201518160080160006101000a81548173ffffffffffffffffffffffffffffffffffffffff021916908373ffffffffffffffffffffffffffffffffffffffff1602179055506101208201518160090160006101000a81548173ffffffffffffffffffffffffffffffffffffffff021916908373ffffffffffffffffffffffffffffffffffffffff1602179055509050506000600c600083610100015173ffffffffffffffffffffffffffffffffffffffff1673ffffffffffffffffffffffffffffffffffffffff16815260200190815260200160002080549050905060008111156118b85760005b818110156118b65785600c600085610100015173ffffffffffffffffffffffffffffffffffffffff1673ffffffffffffffffffffffffffffffffffffffff16815260200190815260200160002082815481106117fa576117f961511a565b5b90600052602060002090600a02016000015414156118a3576003600c600085610100015173ffffffffffffffffffffffffffffffffffffffff1673ffffffffffffffffffffffffffffffffffffffff168152602001908152602001600020828154811061186a5761186961511a565b5b90600052602060002090600a020160010160006101000a81548160ff0219169083600681111561189d5761189c614d2d565b5b02179055505b80806118ae90615178565b91505061179b565b505b600a60008681526020019081526020016000204290806001815401808255809150506001900390600052602060002001600090919091909150555050505050565b6009602052806000526040600020600091509050806000015490806001018054611922906150e8565b80601f016020809104026020016040519081016040528092919081815260200182805461194e906150e8565b801561199b5780601f106119705761010080835404028352916020019161199b565b820191906000526020600020905b81548152906001019060200180831161197e57829003601f168201915b5050505050908060020180546119b0906150e8565b80601f01602080910402602001604051908101604052809291908181526020018280546119dc906150e8565b8015611a295780601f106119fe57610100808354040283529160200191611a29565b820191906000526020600020905b815481529060010190602001808311611a0c57829003601f168201915b5050505050905083565b611a3b61403c565b611a4f8160016140ba90919063ffffffff16565b7fccc03dfae55d568292686488ccd27bcdc249a89347bf1c13a2115a29062618b781604051611a7e9190614cbf565b60405180910390a150565b611a9161403c565b611aa58160046140ba90919063ffffffff16565b7f43dd2f8ce4e5873e618ffabcae9856729ea5811dbc5e1c9be4365fcf7b7cf70381604051611ad49190614cbf565b60405180910390a150565b6060611aeb6004613faa565b905090565b6060600f6000838152602001908152602001600020805480602002602001604051908101604052809291908181526020018280548015611b4f57602002820191906000526020600020905b815481526020019060010190808311611b3b575b50505050509050919050565b8073ffffffffffffffffffffffffffffffffffffffff163373ffffffffffffffffffffffffffffffffffffffff1614611bc9576040517f08c379a0000000000000000000000000000000000000000000000000000000008152600401611bc09061520d565b60405180910390fd5b611bdd8160046140ba90919063ffffffff16565b7f43dd2f8ce4e5873e618ffabcae9856729ea5811dbc5e1c9be4365fcf7b7cf70381604051611c0c9190614cbf565b60405180910390a150565b6000611c2d826005613ef390919063ffffffff16565b9050919050565b6060611c406006613faa565b905090565b611c4e3361099c565b611c5757600080fd5b6000600b600085815260200190815260200160002060405180610140016040529081600082015481526020016001820160009054906101000a900460ff166006811115611ca757611ca6614d2d565b5b6006811115611cb957611cb8614d2d565b5b815260200160028201548152602001600382015481526020016004820154815260200160058201548152602001600682018054611cf5906150e8565b80601f0160208091040260200160405190810160405280929190818152602001828054611d21906150e8565b8015611d6e5780601f10611d4357610100808354040283529160200191611d6e565b820191906000526020600020905b815481529060010190602001808311611d5157829003601f168201915b505050505081526020016007820160009054906101000a900473ffffffffffffffffffffffffffffffffffffffff1673ffffffffffffffffffffffffffffffffffffffff1673ffffffffffffffffffffffffffffffffffffffff1681526020016008820160009054906101000a900473ffffffffffffffffffffffffffffffffffffffff1673ffffffffffffffffffffffffffffffffffffffff1673ffffffffffffffffffffffffffffffffffffffff1681526020016009820160009054906101000a900473ffffffffffffffffffffffffffffffffffffffff1673ffffffffffffffffffffffffffffffffffffffff1673ffffffffffffffffffffffffffffffffffffffff16815250509050600481602001906006811115611e9457611e93614d2d565b5b90816006811115611ea857611ea7614d2d565b5b8152505060008160a001519050600760009054906101000a900473ffffffffffffffffffffffffffffffffffffffff1673ffffffffffffffffffffffffffffffffffffffff1663156e29f63387600185611f029190615299565b6040518463ffffffff1660e01b8152600401611f20939291906152cd565b600060405180830381600087803b158015611f3a57600080fd5b505af1158015611f4e573d6000803e3d6000fd5b505050506000805b85518110156121e157611f82868281518110611f7557611f7461511a565b5b60200260200101516130f5565b611fc1576040517f08c379a0000000000000000000000000000000000000000000000000000000008152600401611fb890615376565b60405180910390fd5b600d6000888152602001908152602001600020868281518110611fe757611fe661511a565b5b60200260200101519080600181540180825580915050600190039060005260206000200160009091909190916101000a81548173ffffffffffffffffffffffffffffffffffffffff021916908373ffffffffffffffffffffffffffffffffffffffff160217905550600e60008881526020019081526020016000208582815181106120755761207461511a565b5b60200260200101519080600181540180825580915050600190039060005260206000200160009091909190915055600f6000888152602001908152602001600020829080600181540180825580915050600190039060005260206000200160009091909190915055600760009054906101000a900473ffffffffffffffffffffffffffffffffffffffff1673ffffffffffffffffffffffffffffffffffffffff1663e51a27ce3388848151811061212f5761212e61511a565b5b60200260200101518a89868151811061214b5761214a61511a565b5b6020026020010151876040518663ffffffff1660e01b81526004016121749594939291906153f3565b600060405180830381600087803b15801561218e57600080fd5b505af11580156121a2573d6000803e3d6000fd5b505050508481815181106121b9576121b861511a565b5b6020026020010151826121cc9190615459565b915080806121d990615178565b915050611f56565b5082600b60008881526020019081526020016000206000820151816000015560208201518160010160006101000a81548160ff0219169083600681111561222b5761222a614d2d565b5b021790555060408201518160020155606082015181600301556080820151816004015560a0820151816005015560c0820151816006019080519060200190612274929190614354565b5060e08201518160070160006101000a81548173ffffffffffffffffffffffffffffffffffffffff021916908373ffffffffffffffffffffffffffffffffffffffff1602179055506101008201518160080160006101000a81548173ffffffffffffffffffffffffffffffffffffffff021916908373ffffffffffffffffffffffffffffffffffffffff1602179055506101208201518160090160006101000a81548173ffffffffffffffffffffffffffffffffffffffff021916908373ffffffffffffffffffffffffffffffffffffffff1602179055509050506000600c600085610100015173ffffffffffffffffffffffffffffffffffffffff1673ffffffffffffffffffffffffffffffffffffffff16815260200190815260200160002080549050905060008111156124c45760005b818110156124c25787600c600087610100015173ffffffffffffffffffffffffffffffffffffffff1673ffffffffffffffffffffffffffffffffffffffff16815260200190815260200160002082815481106124065761240561511a565b5b90600052602060002090600a02016000015414156124af576004600c600087610100015173ffffffffffffffffffffffffffffffffffffffff1673ffffffffffffffffffffffffffffffffffffffff16815260200190815260200160002082815481106124765761247561511a565b5b90600052602060002090600a020160010160006101000a81548160ff021916908360068111156124a9576124a8614d2d565b5b02179055505b80806124ba90615178565b9150506123a7565b505b600a60008881526020019081526020016000204290806001815401808255809150506001900390600052602060002001600090919091909150557f01e7f4af78fe812a5df0e0b3c5b400eff1cd1366eca03a2261de317ae5f6727b8760405161252d919061509e565b60405180910390a150505050505050565b61254661403c565b61255a8160056140ba90919063ffffffff16565b7f200c3f073f217cf07dee57ee6e42c29e5fa6937f536b65c9d1e06be1f9c83dc1816040516125899190614cbf565b60405180910390a150565b61259c61403c565b6125a66000614264565b565b6125b061403c565b6125c4816004613e4090919063ffffffff16565b7f3afd547f7eb357741de51229846ae795cb06449e4b4032eb34a7cc0a751e25c1816040516125f39190614cbf565b60405180910390a150565b8073ffffffffffffffffffffffffffffffffffffffff163373ffffffffffffffffffffffffffffffffffffffff161461266c576040517f08c379a00000000000000000000000000000000000000000000000000000000081526004016126639061520d565b60405180910390fd5b6126808160016140ba90919063ffffffff16565b7fccc03dfae55d568292686488ccd27bcdc249a89347bf1c13a2115a29062618b7816040516126af9190614cbf565b60405180910390a150565b6126c261403c565b6126d6816002613e4090919063ffffffff16565b7f364ee90eb63717b99192fdb951c7b1aa91a45bca11ac73ab40cfad762631fbce816040516127059190614cbf565b60405180910390a150565b8073ffffffffffffffffffffffffffffffffffffffff163373ffffffffffffffffffffffffffffffffffffffff161461277e576040517f08c379a00000000000000000000000000000000000000000000000000000000081526004016127759061520d565b60405180910390fd5b6127928160036140ba90919063ffffffff16565b7f3d4e7057f9f992c8d86344002642adf5d5cd33816b302134e7ef5e0f045a6e78816040516127c19190614cbf565b60405180910390a150565b6127d53361099c565b6127de57600080fd5b6127e7846134f0565b612826576040517f08c379a000000000000000000000000000000000000000000000000000000000815260040161281d90615521565b60405180910390fd5b6000600b600087815260200190815260200160002060405180610140016040529081600082015481526020016001820160009054906101000a900460ff16600681111561287657612875614d2d565b5b600681111561288857612887614d2d565b5b8152602001600282015481526020016003820154815260200160048201548152602001600582015481526020016006820180546128c4906150e8565b80601f01602080910402602001604051908101604052809291908181526020018280546128f0906150e8565b801561293d5780601f106129125761010080835404028352916020019161293d565b820191906000526020600020905b81548152906001019060200180831161292057829003601f168201915b505050505081526020016007820160009054906101000a900473ffffffffffffffffffffffffffffffffffffffff1673ffffffffffffffffffffffffffffffffffffffff1673ffffffffffffffffffffffffffffffffffffffff1681526020016008820160009054906101000a900473ffffffffffffffffffffffffffffffffffffffff1673ffffffffffffffffffffffffffffffffffffffff1673ffffffffffffffffffffffffffffffffffffffff1681526020016009820160009054906101000a900473ffffffffffffffffffffffffffffffffffffffff1673ffffffffffffffffffffffffffffffffffffffff1673ffffffffffffffffffffffffffffffffffffffff1681525050905060008160e0015190503382610120019073ffffffffffffffffffffffffffffffffffffffff16908173ffffffffffffffffffffffffffffffffffffffff16815250508582610100019073ffffffffffffffffffffffffffffffffffffffff16908173ffffffffffffffffffffffffffffffffffffffff1681525050848260400181815250508382606001818152505082826080018181525050600182602001906006811115612afc57612afb614d2d565b5b90816006811115612b1057612b0f614d2d565b5b8152505081600b60008981526020019081526020016000206000820151816000015560208201518160010160006101000a81548160ff02191690836006811115612b5d57612b5c614d2d565b5b021790555060408201518160020155606082015181600301556080820151816004015560a0820151816005015560c0820151816006019080519060200190612ba6929190614354565b5060e08201518160070160006101000a81548173ffffffffffffffffffffffffffffffffffffffff021916908373ffffffffffffffffffffffffffffffffffffffff1602179055506101008201518160080160006101000a81548173ffffffffffffffffffffffffffffffffffffffff021916908373ffffffffffffffffffffffffffffffffffffffff1602179055506101208201518160090160006101000a81548173ffffffffffffffffffffffffffffffffffffffff021916908373ffffffffffffffffffffffffffffffffffffffff160217905550905050600c60008773ffffffffffffffffffffffffffffffffffffffff1673ffffffffffffffffffffffffffffffffffffffff1681526020019081526020016000208290806001815401808255809150506001900390600052602060002090600a02016000909190919091506000820151816000015560208201518160010160006101000a81548160ff02191690836006811115612d1f57612d1e614d2d565b5b021790555060408201518160020155606082015181600301556080820151816004015560a0820151816005015560c0820151816006019080519060200190612d68929190614354565b5060e08201518160070160006101000a81548173ffffffffffffffffffffffffffffffffffffffff021916908373ffffffffffffffffffffffffffffffffffffffff1602179055506101008201518160080160006101000a81548173ffffffffffffffffffffffffffffffffffffffff021916908373ffffffffffffffffffffffffffffffffffffffff1602179055506101208201518160090160006101000a81548173ffffffffffffffffffffffffffffffffffffffff021916908373ffffffffffffffffffffffffffffffffffffffff1602179055505050600760009054906101000a900473ffffffffffffffffffffffffffffffffffffffff1673ffffffffffffffffffffffffffffffffffffffff1663e51a27ce82338a600160006040518663ffffffff1660e01b8152600401612ea79594939291906155c1565b600060405180830381600087803b158015612ec157600080fd5b505af1158015612ed5573d6000803e3d6000fd5b50505050600a60008881526020019081526020016000204290806001815401808255809150506001900390600052602060002001600090919091909150557f84fad793fc72a4890032a0a48ea25fb57401690403f128ee2aaf047af876291c87604051612f42919061509e565b60405180910390a150505050505050565b8073ffffffffffffffffffffffffffffffffffffffff163373ffffffffffffffffffffffffffffffffffffffff1614612fc1576040517f08c379a0000000000000000000000000000000000000000000000000000000008152600401612fb89061520d565b60405180910390fd5b612fd58160026140ba90919063ffffffff16565b7f9cfe362d8a536c3b63d391e311186b7f259fdd498eecf5d32626fe9b95058a7d816040516130049190614cbf565b60405180910390a150565b606061301b6003613faa565b905090565b60008060009054906101000a900473ffffffffffffffffffffffffffffffffffffffff16905090565b61305161403c565b6130658160066140ba90919063ffffffff16565b7f4709990004724f283154297c090b8420d74dcbf9ffcd6bc50294e7350c7cb4fc816040516130949190614cbf565b60405180910390a150565b6130a761403c565b6130bb816005613e4090919063ffffffff16565b7f0eea60f9e1851b51feed56c339be177ea715591923622a0effe46dbb8885efa6816040516130ea9190614cbf565b60405180910390a150565b600061310b826004613ef390919063ffffffff16565b9050919050565b61311b33613e23565b61315a576040517f08c379a000000000000000000000000000000000000000000000000000000000815260040161315190615673565b60405180910390fd5b60006131666008614328565b90506000604051806101400160405280838152602001600060068111156131905761318f614d2d565b5b8152602001868152602001858152602001848152602001600081526020016040518060200160405280600081525081526020013373ffffffffffffffffffffffffffffffffffffffff168152602001600073ffffffffffffffffffffffffffffffffffffffff168152602001600073ffffffffffffffffffffffffffffffffffffffff16815250905080600b60008481526020019081526020016000206000820151816000015560208201518160010160006101000a81548160ff0219169083600681111561326257613261614d2d565b5b021790555060408201518160020155606082015181600301556080820151816004015560a0820151816005015560c08201518160060190805190602001906132ab929190614354565b5060e08201518160070160006101000a81548173ffffffffffffffffffffffffffffffffffffffff021916908373ffffffffffffffffffffffffffffffffffffffff1602179055506101008201518160080160006101000a81548173ffffffffffffffffffffffffffffffffffffffff021916908373ffffffffffffffffffffffffffffffffffffffff1602179055506101208201518160090160006101000a81548173ffffffffffffffffffffffffffffffffffffffff021916908373ffffffffffffffffffffffffffffffffffffffff160217905550905050600760009054906101000a900473ffffffffffffffffffffffffffffffffffffffff1673ffffffffffffffffffffffffffffffffffffffff1663156e29f6338460016040518463ffffffff1660e01b81526004016133e693929190615693565b600060405180830381600087803b15801561340057600080fd5b505af1158015613414573d6000803e3d6000fd5b505050506134226008614336565b600a60008381526020019081526020016000204290806001815401808255809150506001900390600052602060002001600090919091909150557f8dba83ab26c4e67ac150487b6c119e69498289b9cc6c7dfd77fd0df2e671b48b8260405161348b919061509e565b60405180910390a15050505050565b6134a261403c565b6134b6816006613e4090919063ffffffff16565b7f23b2415a50efd127e694ba174e400d457ad65c58752e171b6d17f3f5daa26fdb816040516134e59190614cbf565b60405180910390a150565b6000613506826002613ef390919063ffffffff16565b9050919050565b60606135196001613faa565b905090565b600b6020528060005260406000206000915090508060000154908060010160009054906101000a900460ff1690806002015490806003015490806004015490806005015490806006018054613572906150e8565b80601f016020809104026020016040519081016040528092919081815260200182805461359e906150e8565b80156135eb5780601f106135c0576101008083540402835291602001916135eb565b820191906000526020600020905b8154815290600101906020018083116135ce57829003601f168201915b5050505050908060070160009054906101000a900473ffffffffffffffffffffffffffffffffffffffff16908060080160009054906101000a900473ffffffffffffffffffffffffffffffffffffffff16908060090160009054906101000a900473ffffffffffffffffffffffffffffffffffffffff1690508a565b6060600c60008373ffffffffffffffffffffffffffffffffffffffff1673ffffffffffffffffffffffffffffffffffffffff168152602001908152602001600020805480602002602001604051908101604052809291908181526020016000905b828210156138fc57838290600052602060002090600a020160405180610140016040529081600082015481526020016001820160009054906101000a900460ff16600681111561371b5761371a614d2d565b5b600681111561372d5761372c614d2d565b5b815260200160028201548152602001600382015481526020016004820154815260200160058201548152602001600682018054613769906150e8565b80601f0160208091040260200160405190810160405280929190818152602001828054613795906150e8565b80156137e25780601f106137b7576101008083540402835291602001916137e2565b820191906000526020600020905b8154815290600101906020018083116137c557829003601f168201915b505050505081526020016007820160009054906101000a900473ffffffffffffffffffffffffffffffffffffffff1673ffffffffffffffffffffffffffffffffffffffff1673ffffffffffffffffffffffffffffffffffffffff1681526020016008820160009054906101000a900473ffffffffffffffffffffffffffffffffffffffff1673ffffffffffffffffffffffffffffffffffffffff1673ffffffffffffffffffffffffffffffffffffffff1681526020016009820160009054906101000a900473ffffffffffffffffffffffffffffffffffffffff1673ffffffffffffffffffffffffffffffffffffffff1673ffffffffffffffffffffffffffffffffffffffff1681525050815260200190600101906136c8565b505050509050919050565b6060600d600083815260200190815260200160002080548060200260200160405190810160405280929190818152602001828054801561399c57602002820191906000526020600020905b8160009054906101000a900473ffffffffffffffffffffffffffffffffffffffff1673ffffffffffffffffffffffffffffffffffffffff1681526020019060010190808311613952575b50505050509050919050565b6139b1336130f5565b6139ba57600080fd5b60008060006139c884613907565b905060005b8151811015613b9157600073ffffffffffffffffffffffffffffffffffffffff16828281518110613a0157613a0061511a565b5b602002602001015173ffffffffffffffffffffffffffffffffffffffff1614158015613a7257503373ffffffffffffffffffffffffffffffffffffffff16828281518110613a5257613a5161511a565b5b602002602001015173ffffffffffffffffffffffffffffffffffffffff16145b15613b7e57613a8085613c56565b8181518110613a9257613a9161511a565b5b60200260200101519350613aa585611af0565b8181518110613ab757613ab661511a565b5b60200260200101519250600d60008681526020019081526020016000208181548110613ae657613ae561511a565b5b9060005260206000200160006101000a81549073ffffffffffffffffffffffffffffffffffffffff0219169055600e60008681526020019081526020016000208181548110613b3857613b3761511a565b5b9060005260206000200160009055600f60008681526020019081526020016000208181548110613b6b57613b6a61511a565b5b9060005260206000200160009055613b91565b8080613b8990615178565b9150506139cd565b507fb9f01075be5d71ca908e0aae338e241c77af5da8fbd7d476d37de1c8634dc0e284604051613bc1919061509e565b60405180910390a150505050565b613bd761403c565b613beb8160026140ba90919063ffffffff16565b7f9cfe362d8a536c3b63d391e311186b7f259fdd498eecf5d32626fe9b95058a7d81604051613c1a9190614cbf565b60405180910390a150565b600a6020528160005260406000208181548110613c4157600080fd5b90600052602060002001600091509150505481565b6060600e6000838152602001908152602001600020805480602002602001604051908101604052809291908181526020018280548015613cb557602002820191906000526020600020905b815481526020019060010190808311613ca1575b50505050509050919050565b8073ffffffffffffffffffffffffffffffffffffffff163373ffffffffffffffffffffffffffffffffffffffff1614613d2f576040517f08c379a0000000000000000000000000000000000000000000000000000000008152600401613d269061520d565b60405180910390fd5b613d438160056140ba90919063ffffffff16565b7f200c3f073f217cf07dee57ee6e42c29e5fa6937f536b65c9d1e06be1f9c83dc181604051613d729190614cbf565b60405180910390a150565b6000613d896008614328565b905090565b613d9661403c565b600073ffffffffffffffffffffffffffffffffffffffff168173ffffffffffffffffffffffffffffffffffffffff161415613e06576040517f08c379a0000000000000000000000000000000000000000000000000000000008152600401613dfd9061573c565b60405180910390fd5b613e0f81614264565b50565b6060613e1e6005613faa565b905090565b6000613e39826001613ef390919063ffffffff16565b9050919050565b613e4a8282613ef3565b15613e8a576040517f08c379a0000000000000000000000000000000000000000000000000000000008152600401613e81906157a8565b60405180910390fd5b81600001819080600181540180825580915050600190039060005260206000200160009091909190916101000a81548173ffffffffffffffffffffffffffffffffffffffff021916908373ffffffffffffffffffffffffffffffffffffffff1602179055505050565b6000808360000180549050905060005b81811015613f9d578373ffffffffffffffffffffffffffffffffffffffff16856000018281548110613f3857613f3761511a565b5b9060005260206000200160009054906101000a900473ffffffffffffffffffffffffffffffffffffffff1673ffffffffffffffffffffffffffffffffffffffff161415613f8a57600192505050613fa4565b8080613f9590615178565b915050613f03565b5060009150505b92915050565b60608160000180548060200260200160405190810160405280929190818152602001828054801561403057602002820191906000526020600020905b8160009054906101000a900473ffffffffffffffffffffffffffffffffffffffff1673ffffffffffffffffffffffffffffffffffffffff1681526020019060010190808311613fe6575b50505050509050919050565b61404461434c565b73ffffffffffffffffffffffffffffffffffffffff16614062613020565b73ffffffffffffffffffffffffffffffffffffffff16146140b8576040517f08c379a00000000000000000000000000000000000000000000000000000000081526004016140af90615814565b60405180910390fd5b565b600082600001805490509050600080600090505b82811015614214578115614188578460000181815481106140f2576140f161511a565b5b9060005260206000200160009054906101000a900473ffffffffffffffffffffffffffffffffffffffff168560000160018361412e9190615299565b8154811061413f5761413e61511a565b5b9060005260206000200160006101000a81548173ffffffffffffffffffffffffffffffffffffffff021916908373ffffffffffffffffffffffffffffffffffffffff1602179055505b8373ffffffffffffffffffffffffffffffffffffffff168560000182815481106141b5576141b461511a565b5b9060005260206000200160009054906101000a900473ffffffffffffffffffffffffffffffffffffffff1673ffffffffffffffffffffffffffffffffffffffff16141561420157600191505b808061420c90615178565b9150506140ce565b508360000180548061422957614228615834565b5b6001900381819060005260206000200160006101000a81549073ffffffffffffffffffffffffffffffffffffffff0219169055905550505050565b60008060009054906101000a900473ffffffffffffffffffffffffffffffffffffffff169050816000806101000a81548173ffffffffffffffffffffffffffffffffffffffff021916908373ffffffffffffffffffffffffffffffffffffffff1602179055508173ffffffffffffffffffffffffffffffffffffffff168173ffffffffffffffffffffffffffffffffffffffff167f8be0079c531659141344cd1fd0a4f28419497f9722a3daafe3b4186f6b6457e060405160405180910390a35050565b600081600001549050919050565b6001816000016000828254019250508190555050565b600033905090565b828054614360906150e8565b90600052602060002090601f01602090048101928261438257600085556143c9565b82601f1061439b57805160ff19168380011785556143c9565b828001600101855582156143c9579182015b828111156143c85782518255916020019190600101906143ad565b5b5090506143d691906143da565b5090565b5b808211156143f35760008160009055506001016143db565b5090565b6000604051905090565b600080fd5b600080fd5b600073ffffffffffffffffffffffffffffffffffffffff82169050919050565b60006144368261440b565b9050919050565b6144468161442b565b811461445157600080fd5b50565b6000813590506144638161443d565b92915050565b60006020828403121561447f5761447e614401565b5b600061448d84828501614454565b91505092915050565b60008115159050919050565b6144ab81614496565b82525050565b60006020820190506144c660008301846144a2565b92915050565b6000819050919050565b6144df816144cc565b81146144ea57600080fd5b50565b6000813590506144fc816144d6565b92915050565b600080fd5b600080fd5b6000601f19601f8301169050919050565b7f4e487b7100000000000000000000000000000000000000000000000000000000600052604160045260246000fd5b6145558261450c565b810181811067ffffffffffffffff821117156145745761457361451d565b5b80604052505050565b60006145876143f7565b9050614593828261454c565b919050565b600067ffffffffffffffff8211156145b3576145b261451d565b5b6145bc8261450c565b9050602081019050919050565b82818337600083830152505050565b60006145eb6145e684614598565b61457d565b90508281526020810184848401111561460757614606614507565b5b6146128482856145c9565b509392505050565b600082601f83011261462f5761462e614502565b5b813561463f8482602086016145d8565b91505092915050565b6000806000806080858703121561466257614661614401565b5b6000614670878288016144ed565b9450506020614681878288016144ed565b935050604085013567ffffffffffffffff8111156146a2576146a1614406565b5b6146ae8782880161461a565b925050606085013567ffffffffffffffff8111156146cf576146ce614406565b5b6146db8782880161461a565b91505092959194509250565b6000602082840312156146fd576146fc614401565b5b600061470b848285016144ed565b91505092915050565b600081519050919050565b600082825260208201905092915050565b6000819050602082019050919050565b614749816144cc565b82525050565b600061475b8383614740565b60208301905092915050565b6000602082019050919050565b600061477f82614714565b614789818561471f565b935061479483614730565b8060005b838110156147c55781516147ac888261474f565b97506147b783614767565b925050600181019050614798565b5085935050505092915050565b600060208201905081810360008301526147ec8184614774565b905092915050565b600081519050919050565b600082825260208201905092915050565b6000819050602082019050919050565b6148298161442b565b82525050565b600061483b8383614820565b60208301905092915050565b6000602082019050919050565b600061485f826147f4565b61486981856147ff565b935061487483614810565b8060005b838110156148a557815161488c888261482f565b975061489783614847565b925050600181019050614878565b5085935050505092915050565b600060208201905081810360008301526148cc8184614854565b905092915050565b6000806000606084860312156148ed576148ec614401565b5b60006148fb868287016144ed565b935050602061490c868287016144ed565b925050604084013567ffffffffffffffff81111561492d5761492c614406565b5b6149398682870161461a565b9150509250925092565b61494c816144cc565b82525050565b600081519050919050565b600082825260208201905092915050565b60005b8381101561498c578082015181840152602081019050614971565b8381111561499b576000848401525b50505050565b60006149ac82614952565b6149b6818561495d565b93506149c681856020860161496e565b6149cf8161450c565b840191505092915050565b60006060820190506149ef6000830186614943565b8181036020830152614a0181856149a1565b90508181036040830152614a1581846149a1565b9050949350505050565b600067ffffffffffffffff821115614a3a57614a3961451d565b5b602082029050602081019050919050565b600080fd5b6000614a63614a5e84614a1f565b61457d565b90508083825260208201905060208402830185811115614a8657614a85614a4b565b5b835b81811015614aaf5780614a9b8882614454565b845260208401935050602081019050614a88565b5050509392505050565b600082601f830112614ace57614acd614502565b5b8135614ade848260208601614a50565b91505092915050565b600067ffffffffffffffff821115614b0257614b0161451d565b5b602082029050602081019050919050565b6000614b26614b2184614ae7565b61457d565b90508083825260208201905060208402830185811115614b4957614b48614a4b565b5b835b81811015614b725780614b5e88826144ed565b845260208401935050602081019050614b4b565b5050509392505050565b600082601f830112614b9157614b90614502565b5b8135614ba1848260208601614b13565b91505092915050565b600080600060608486031215614bc357614bc2614401565b5b6000614bd1868287016144ed565b935050602084013567ffffffffffffffff811115614bf257614bf1614406565b5b614bfe86828701614ab9565b925050604084013567ffffffffffffffff811115614c1f57614c1e614406565b5b614c2b86828701614b7c565b9150509250925092565b600080600080600060a08688031215614c5157614c50614401565b5b6000614c5f888289016144ed565b9550506020614c7088828901614454565b9450506040614c81888289016144ed565b9350506060614c92888289016144ed565b9250506080614ca3888289016144ed565b9150509295509295909350565b614cb98161442b565b82525050565b6000602082019050614cd46000830184614cb0565b92915050565b600080600060608486031215614cf357614cf2614401565b5b6000614d01868287016144ed565b9350506020614d12868287016144ed565b9250506040614d23868287016144ed565b9150509250925092565b7f4e487b7100000000000000000000000000000000000000000000000000000000600052602160045260246000fd5b60078110614d6d57614d6c614d2d565b5b50565b6000819050614d7e82614d5c565b919050565b6000614d8e82614d70565b9050919050565b614d9e81614d83565b82525050565b600061014082019050614dba600083018d614943565b614dc7602083018c614d95565b614dd4604083018b614943565b614de1606083018a614943565b614dee6080830189614943565b614dfb60a0830188614943565b81810360c0830152614e0d81876149a1565b9050614e1c60e0830186614cb0565b614e2a610100830185614cb0565b614e38610120830184614cb0565b9b9a5050505050505050505050565b600081519050919050565b600082825260208201905092915050565b6000819050602082019050919050565b614e7c81614d83565b82525050565b600082825260208201905092915050565b6000614e9e82614952565b614ea88185614e82565b9350614eb881856020860161496e565b614ec18161450c565b840191505092915050565b600061014083016000830151614ee56000860182614740565b506020830151614ef86020860182614e73565b506040830151614f0b6040860182614740565b506060830151614f1e6060860182614740565b506080830151614f316080860182614740565b5060a0830151614f4460a0860182614740565b5060c083015184820360c0860152614f5c8282614e93565b91505060e0830151614f7160e0860182614820565b50610100830151614f86610100860182614820565b50610120830151614f9b610120860182614820565b508091505092915050565b6000614fb28383614ecc565b905092915050565b6000602082019050919050565b6000614fd282614e47565b614fdc8185614e52565b935083602082028501614fee85614e63565b8060005b8581101561502a578484038952815161500b8582614fa6565b945061501683614fba565b925060208a01995050600181019050614ff2565b50829750879550505050505092915050565b600060208201905081810360008301526150568184614fc7565b905092915050565b6000806040838503121561507557615074614401565b5b6000615083858286016144ed565b9250506020615094858286016144ed565b9150509250929050565b60006020820190506150b36000830184614943565b92915050565b7f4e487b7100000000000000000000000000000000000000000000000000000000600052602260045260246000fd5b6000600282049050600182168061510057607f821691505b60208210811415615114576151136150b9565b5b50919050565b7f4e487b7100000000000000000000000000000000000000000000000000000000600052603260045260246000fd5b7f4e487b7100000000000000000000000000000000000000000000000000000000600052601160045260246000fd5b6000615183826144cc565b91507fffffffffffffffffffffffffffffffffffffffffffffffffffffffffffffffff8214156151b6576151b5615149565b5b600182019050919050565b7f594f555f43414e5f4e4f545f524f4d4f56455f544849535f4144445245535300600082015250565b60006151f7601f8361495d565b9150615202826151c1565b602082019050919050565b60006020820190508181036000830152615226816151ea565b9050919050565b7f556e6974732073686f756c642062652067726561746572207468617420310000600082015250565b6000615263601e8361495d565b915061526e8261522d565b602082019050919050565b6000602082019050818103600083015261529281615256565b9050919050565b60006152a4826144cc565b91506152af836144cc565b9250828210156152c2576152c1615149565b5b828203905092915050565b60006060820190506152e26000830186614cb0565b6152ef6020830185614943565b6152fc6040830184614943565b949350505050565b7f4e4f5420412056414c4944204449535452494255544f5220414444524553532060008201527f2120504c4541534520434f4e544143542041444d494e00000000000000000000602082015250565b600061536060368361495d565b915061536b82615304565b604082019050919050565b6000602082019050818103600083015261538f81615353565b9050919050565b600082825260208201905092915050565b7f3078303000000000000000000000000000000000000000000000000000000000600082015250565b60006153dd600483615396565b91506153e8826153a7565b602082019050919050565b600060c0820190506154086000830188614cb0565b6154156020830187614cb0565b6154226040830186614943565b61542f6060830185614943565b8181036080830152615440816153d0565b905061544f60a0830184614943565b9695505050505050565b6000615464826144cc565b915061546f836144cc565b9250827fffffffffffffffffffffffffffffffffffffffffffffffffffffffffffffffff038211156154a4576154a3615149565b5b828201905092915050565b7f4e4f5420412056414c49442057415245484f555345204144445245535320212060008201527f504c4541534520434f4e544143542041444d494e000000000000000000000000602082015250565b600061550b60348361495d565b9150615516826154af565b604082019050919050565b6000602082019050818103600083015261553a816154fe565b9050919050565b6000819050919050565b6000819050919050565b600061557061556b61556684615541565b61554b565b6144cc565b9050919050565b61558081615555565b82525050565b6000819050919050565b60006155ab6155a66155a184615586565b61554b565b6144cc565b9050919050565b6155bb81615590565b82525050565b600060c0820190506155d66000830188614cb0565b6155e36020830187614cb0565b6155f06040830186614943565b6155fd6060830185615577565b818103608083015261560e816153d0565b905061561d60a08301846155b2565b9695505050505050565b7f4e6f74206120526177204d6174657269616c20537570706c6965720000000000600082015250565b600061565d601b8361495d565b915061566882615627565b602082019050919050565b6000602082019050818103600083015261568c81615650565b9050919050565b60006060820190506156a86000830186614cb0565b6156b56020830185614943565b6156c26040830184615577565b949350505050565b7f4f776e61626c653a206e6577206f776e657220697320746865207a65726f206160008201527f6464726573730000000000000000000000000000000000000000000000000000602082015250565b600061572660268361495d565b9150615731826156ca565b604082019050919050565b6000602082019050818103600083015261575581615719565b9050919050565b7f524f4c455f414c52454144595f45584953545300000000000000000000000000600082015250565b600061579260138361495d565b915061579d8261575c565b602082019050919050565b600060208201905081810360008301526157c181615785565b9050919050565b7f4f776e61626c653a2063616c6c6572206973206e6f7420746865206f776e6572600082015250565b60006157fe60208361495d565b9150615809826157c8565b602082019050919050565b6000602082019050818103600083015261582d816157f1565b9050919050565b7f4e487b7100000000000000000000000000000000000000000000000000000000600052603160045260246000fdfea26469706673582212202e4131bae5d31b4e02d1ecd6d9490d547705e9c5c5b36a12a0aa52da76188f5d64736f6c63430008080033",
  "linkReferences": {},
  "deployedLinkReferences": {}
}