{
  "_format": "hh-sol-artifact-1",
  "contractName": "ISO",
  "sourceName": "contracts/Roles/ISO.sol",
  "abi": [
    {
      "inputs": [],
      "stateMutability": "nonpayable",
      "type": "constructor"
    },
    {
      "anonymous": false,
      "inputs": [
        {
          "indexed": false,
          "internalType": "address",
          "name": "_address",
          "type": "address"
        }
      ],
      "name": "AddISO",
      "type": "event"
    },
    {
      "anonymous": false,
      "inputs": [
        {
          "indexed": true,
          "internalType": "address",
          "name": "previousOwner",
          "type": "address"
        },
        {
          "indexed": true,
          "internalType": "address",
          "name": "newOwner",
          "type": "address"
        }
      ],
      "name": "OwnershipTransferred",
      "type": "event"
    },
    {
      "anonymous": false,
      "inputs": [
        {
          "indexed": false,
          "internalType": "address",
          "name": "_address",
          "type": "address"
        }
      ],
      "name": "RemoveISO",
      "type": "event"
    },
    {
      "inputs": [
        {
          "internalType": "address",
          "name": "_address",
          "type": "address"
        }
      ],
      "name": "addISO",
      "outputs": [],
      "stateMutability": "nonpayable",
      "type": "function"
    },
    {
      "inputs": [],
      "name": "getISO",
      "outputs": [
        {
          "internalType": "address[]",
          "name": "",
          "type": "address[]"
        }
      ],
      "stateMutability": "view",
      "type": "function"
    },
    {
      "inputs": [
        {
          "internalType": "address",
          "name": "_address",
          "type": "address"
        }
      ],
      "name": "isISO",
      "outputs": [
        {
          "internalType": "bool",
          "name": "",
          "type": "bool"
        }
      ],
      "stateMutability": "view",
      "type": "function"
    },
    {
      "inputs": [],
      "name": "owner",
      "outputs": [
        {
          "internalType": "address",
          "name": "",
          "type": "address"
        }
      ],
      "stateMutability": "view",
      "type": "function"
    },
    {
      "inputs": [
        {
          "internalType": "address",
          "name": "_address",
          "type": "address"
        }
      ],
      "name": "removeISO",
      "outputs": [],
      "stateMutability": "nonpayable",
      "type": "function"
    },
    {
      "inputs": [
        {
          "internalType": "address",
          "name": "_address",
          "type": "address"
        }
      ],
      "name": "removeISOSelf",
      "outputs": [],
      "stateMutability": "nonpayable",
      "type": "function"
    },
    {
      "inputs": [],
      "name": "renounceOwnership",
      "outputs": [],
      "stateMutability": "nonpayable",
      "type": "function"
    },
    {
      "inputs": [
        {
          "internalType": "address",
          "name": "newOwner",
          "type": "address"
        }
      ],
      "name": "transferOwnership",
      "outputs": [],
      "stateMutability": "nonpayable",
      "type": "function"
    }
  ],
  "bytecode": "0x60806040523480156200001157600080fd5b5062000032620000266200004960201b60201c565b6200005160201b60201c565b62000043336200011560201b60201c565b620005af565b600033905090565b60008060009054906101000a900473ffffffffffffffffffffffffffffffffffffffff169050816000806101000a81548173ffffffffffffffffffffffffffffffffffffffff021916908373ffffffffffffffffffffffffffffffffffffffff1602179055508173ffffffffffffffffffffffffffffffffffffffff168173ffffffffffffffffffffffffffffffffffffffff167f8be0079c531659141344cd1fd0a4f28419497f9722a3daafe3b4186f6b6457e060405160405180910390a35050565b620001256200004960201b60201c565b73ffffffffffffffffffffffffffffffffffffffff166200014b620001fb60201b60201c565b73ffffffffffffffffffffffffffffffffffffffff1614620001a4576040517f08c379a00000000000000000000000000000000000000000000000000000000081526004016200019b9062000403565b60405180910390fd5b620001bf8160016200022460201b6200059a1790919060201c565b7feaf4826d3cad06f851d4fdd9cdf878a0c6d82ce9a07f0c1955beac07c1e2369281604051620001f091906200046a565b60405180910390a150565b60008060009054906101000a900473ffffffffffffffffffffffffffffffffffffffff16905090565b620002368282620002e260201b60201c565b1562000279576040517f08c379a00000000000000000000000000000000000000000000000000000000081526004016200027090620004d7565b60405180910390fd5b81600001819080600181540180825580915050600190039060005260206000200160009091909190916101000a81548173ffffffffffffffffffffffffffffffffffffffff021916908373ffffffffffffffffffffffffffffffffffffffff1602179055505050565b6000808360000180549050905060005b8181101562000395578373ffffffffffffffffffffffffffffffffffffffff168560000182815481106200032b576200032a620004f9565b5b9060005260206000200160009054906101000a900473ffffffffffffffffffffffffffffffffffffffff1673ffffffffffffffffffffffffffffffffffffffff1614156200037f576001925050506200039c565b80806200038c9062000561565b915050620002f2565b5060009150505b92915050565b600082825260208201905092915050565b7f4f776e61626c653a2063616c6c6572206973206e6f7420746865206f776e6572600082015250565b6000620003eb602083620003a2565b9150620003f882620003b3565b602082019050919050565b600060208201905081810360008301526200041e81620003dc565b9050919050565b600073ffffffffffffffffffffffffffffffffffffffff82169050919050565b6000620004528262000425565b9050919050565b620004648162000445565b82525050565b600060208201905062000481600083018462000459565b92915050565b7f524f4c455f414c52454144595f45584953545300000000000000000000000000600082015250565b6000620004bf601383620003a2565b9150620004cc8262000487565b602082019050919050565b60006020820190508181036000830152620004f281620004b0565b9050919050565b7f4e487b7100000000000000000000000000000000000000000000000000000000600052603260045260246000fd5b7f4e487b7100000000000000000000000000000000000000000000000000000000600052601160045260246000fd5b6000819050919050565b60006200056e8262000557565b91507fffffffffffffffffffffffffffffffffffffffffffffffffffffffffffffffff821415620005a457620005a362000528565b5b600182019050919050565b610f0d80620005bf6000396000f3fe608060405234801561001057600080fd5b50600436106100885760003560e01c80638da5cb5b1161005b5780638da5cb5b146100ed578063b17b33041461010b578063f2fde38b1461013b578063f46d039f1461015757610088565b8063220fbbe91461008d5780635eb4626f146100a9578063715018a6146100c75780637e90b614146100d1575b600080fd5b6100a760048036038101906100a29190610a6f565b610173565b005b6100b161023d565b6040516100be9190610b5a565b60405180910390f35b6100cf61024e565b005b6100eb60048036038101906100e69190610a6f565b6102d6565b005b6100f5610392565b6040516101029190610b8b565b60405180910390f35b61012560048036038101906101209190610a6f565b6103bb565b6040516101329190610bc1565b60405180910390f35b61015560048036038101906101509190610a6f565b6103d8565b005b610171600480360381019061016c9190610a6f565b6104d0565b005b61017b61064d565b73ffffffffffffffffffffffffffffffffffffffff16610199610392565b73ffffffffffffffffffffffffffffffffffffffff16146101ef576040517f08c379a00000000000000000000000000000000000000000000000000000000081526004016101e690610c39565b60405180910390fd5b61020381600161059a90919063ffffffff16565b7feaf4826d3cad06f851d4fdd9cdf878a0c6d82ce9a07f0c1955beac07c1e23692816040516102329190610b8b565b60405180910390a150565b60606102496001610655565b905090565b61025661064d565b73ffffffffffffffffffffffffffffffffffffffff16610274610392565b73ffffffffffffffffffffffffffffffffffffffff16146102ca576040517f08c379a00000000000000000000000000000000000000000000000000000000081526004016102c190610c39565b60405180910390fd5b6102d460006106e7565b565b8073ffffffffffffffffffffffffffffffffffffffff163373ffffffffffffffffffffffffffffffffffffffff1614610344576040517f08c379a000000000000000000000000000000000000000000000000000000000815260040161033b90610ca5565b60405180910390fd5b6103588160016107ab90919063ffffffff16565b7fe81ce8e22413eff3de3a7b6cd7aecf28ae2d00e44e5e48cd32ca949c7be314f7816040516103879190610b8b565b60405180910390a150565b60008060009054906101000a900473ffffffffffffffffffffffffffffffffffffffff16905090565b60006103d182600161095590919063ffffffff16565b9050919050565b6103e061064d565b73ffffffffffffffffffffffffffffffffffffffff166103fe610392565b73ffffffffffffffffffffffffffffffffffffffff1614610454576040517f08c379a000000000000000000000000000000000000000000000000000000000815260040161044b90610c39565b60405180910390fd5b600073ffffffffffffffffffffffffffffffffffffffff168173ffffffffffffffffffffffffffffffffffffffff1614156104c4576040517f08c379a00000000000000000000000000000000000000000000000000000000081526004016104bb90610d37565b60405180910390fd5b6104cd816106e7565b50565b6104d861064d565b73ffffffffffffffffffffffffffffffffffffffff166104f6610392565b73ffffffffffffffffffffffffffffffffffffffff161461054c576040517f08c379a000000000000000000000000000000000000000000000000000000000815260040161054390610c39565b60405180910390fd5b6105608160016107ab90919063ffffffff16565b7fe81ce8e22413eff3de3a7b6cd7aecf28ae2d00e44e5e48cd32ca949c7be314f78160405161058f9190610b8b565b60405180910390a150565b6105a48282610955565b156105e4576040517f08c379a00000000000000000000000000000000000000000000000000000000081526004016105db90610da3565b60405180910390fd5b81600001819080600181540180825580915050600190039060005260206000200160009091909190916101000a81548173ffffffffffffffffffffffffffffffffffffffff021916908373ffffffffffffffffffffffffffffffffffffffff1602179055505050565b600033905090565b6060816000018054806020026020016040519081016040528092919081815260200182805480156106db57602002820191906000526020600020905b8160009054906101000a900473ffffffffffffffffffffffffffffffffffffffff1673ffffffffffffffffffffffffffffffffffffffff1681526020019060010190808311610691575b50505050509050919050565b60008060009054906101000a900473ffffffffffffffffffffffffffffffffffffffff169050816000806101000a81548173ffffffffffffffffffffffffffffffffffffffff021916908373ffffffffffffffffffffffffffffffffffffffff1602179055508173ffffffffffffffffffffffffffffffffffffffff168173ffffffffffffffffffffffffffffffffffffffff167f8be0079c531659141344cd1fd0a4f28419497f9722a3daafe3b4186f6b6457e060405160405180910390a35050565b600082600001805490509050600080600090505b82811015610905578115610879578460000181815481106107e3576107e2610dc3565b5b9060005260206000200160009054906101000a900473ffffffffffffffffffffffffffffffffffffffff168560000160018361081f9190610e2b565b815481106108305761082f610dc3565b5b9060005260206000200160006101000a81548173ffffffffffffffffffffffffffffffffffffffff021916908373ffffffffffffffffffffffffffffffffffffffff1602179055505b8373ffffffffffffffffffffffffffffffffffffffff168560000182815481106108a6576108a5610dc3565b5b9060005260206000200160009054906101000a900473ffffffffffffffffffffffffffffffffffffffff1673ffffffffffffffffffffffffffffffffffffffff1614156108f257600191505b80806108fd90610e5f565b9150506107bf565b508360000180548061091a57610919610ea8565b5b6001900381819060005260206000200160006101000a81549073ffffffffffffffffffffffffffffffffffffffff0219169055905550505050565b6000808360000180549050905060005b818110156109ff578373ffffffffffffffffffffffffffffffffffffffff1685600001828154811061099a57610999610dc3565b5b9060005260206000200160009054906101000a900473ffffffffffffffffffffffffffffffffffffffff1673ffffffffffffffffffffffffffffffffffffffff1614156109ec57600192505050610a06565b80806109f790610e5f565b915050610965565b5060009150505b92915050565b600080fd5b600073ffffffffffffffffffffffffffffffffffffffff82169050919050565b6000610a3c82610a11565b9050919050565b610a4c81610a31565b8114610a5757600080fd5b50565b600081359050610a6981610a43565b92915050565b600060208284031215610a8557610a84610a0c565b5b6000610a9384828501610a5a565b91505092915050565b600081519050919050565b600082825260208201905092915050565b6000819050602082019050919050565b610ad181610a31565b82525050565b6000610ae38383610ac8565b60208301905092915050565b6000602082019050919050565b6000610b0782610a9c565b610b118185610aa7565b9350610b1c83610ab8565b8060005b83811015610b4d578151610b348882610ad7565b9750610b3f83610aef565b925050600181019050610b20565b5085935050505092915050565b60006020820190508181036000830152610b748184610afc565b905092915050565b610b8581610a31565b82525050565b6000602082019050610ba06000830184610b7c565b92915050565b60008115159050919050565b610bbb81610ba6565b82525050565b6000602082019050610bd66000830184610bb2565b92915050565b600082825260208201905092915050565b7f4f776e61626c653a2063616c6c6572206973206e6f7420746865206f776e6572600082015250565b6000610c23602083610bdc565b9150610c2e82610bed565b602082019050919050565b60006020820190508181036000830152610c5281610c16565b9050919050565b7f594f555f43414e5f4e4f545f524f4d4f56455f544849535f4144445245535300600082015250565b6000610c8f601f83610bdc565b9150610c9a82610c59565b602082019050919050565b60006020820190508181036000830152610cbe81610c82565b9050919050565b7f4f776e61626c653a206e6577206f776e657220697320746865207a65726f206160008201527f6464726573730000000000000000000000000000000000000000000000000000602082015250565b6000610d21602683610bdc565b9150610d2c82610cc5565b604082019050919050565b60006020820190508181036000830152610d5081610d14565b9050919050565b7f524f4c455f414c52454144595f45584953545300000000000000000000000000600082015250565b6000610d8d601383610bdc565b9150610d9882610d57565b602082019050919050565b60006020820190508181036000830152610dbc81610d80565b9050919050565b7f4e487b7100000000000000000000000000000000000000000000000000000000600052603260045260246000fd5b6000819050919050565b7f4e487b7100000000000000000000000000000000000000000000000000000000600052601160045260246000fd5b6000610e3682610df2565b9150610e4183610df2565b925082821015610e5457610e53610dfc565b5b828203905092915050565b6000610e6a82610df2565b91507fffffffffffffffffffffffffffffffffffffffffffffffffffffffffffffffff821415610e9d57610e9c610dfc565b5b600182019050919050565b7f4e487b7100000000000000000000000000000000000000000000000000000000600052603160045260246000fdfea2646970667358221220e014f6d471cb18fa60384f0f68b9ada0d5b747f508b79f3e1a4d34880b38bbf364736f6c63430008080033",
  "linkReferences": {},
  "deployedLinkReferences": {}
}