{
  "contracts/Roles/Factory.sol": {
    "Factory": {
      "abi": [
        {
          "inputs": [],
          "stateMutability": "nonpayable",
          "type": "constructor"
        },
        {
          "anonymous": false,
          "inputs": [
            {
              "indexed": false,
              "internalType": "address",
              "name": "_address",
              "type": "address"
            }
          ],
          "name": "AddFactory",
          "type": "event"
        },
        {
          "anonymous": false,
          "inputs": [
            {
              "indexed": true,
              "internalType": "address",
              "name": "previousOwner",
              "type": "address"
            },
            {
              "indexed": true,
              "internalType": "address",
              "name": "newOwner",
              "type": "address"
            }
          ],
          "name": "OwnershipTransferred",
          "type": "event"
        },
        {
          "anonymous": false,
          "inputs": [
            {
              "indexed": false,
              "internalType": "address",
              "name": "_address",
              "type": "address"
            }
          ],
          "name": "RemoveFactory",
          "type": "event"
        },
        {
          "inputs": [
            {
              "internalType": "address",
              "name": "_address",
              "type": "address"
            }
          ],
          "name": "addFactory",
          "outputs": [],
          "stateMutability": "nonpayable",
          "type": "function"
        },
        {
          "inputs": [],
          "name": "getFactory",
          "outputs": [
            {
              "internalType": "address[]",
              "name": "",
              "type": "address[]"
            }
          ],
          "stateMutability": "view",
          "type": "function"
        },
        {
          "inputs": [
            {
              "internalType": "address",
              "name": "_address",
              "type": "address"
            }
          ],
          "name": "isFactory",
          "outputs": [
            {
              "internalType": "bool",
              "name": "",
              "type": "bool"
            }
          ],
          "stateMutability": "view",
          "type": "function"
        },
        {
          "inputs": [],
          "name": "owner",
          "outputs": [
            {
              "internalType": "address",
              "name": "",
              "type": "address"
            }
          ],
          "stateMutability": "view",
          "type": "function"
        },
        {
          "inputs": [
            {
              "internalType": "address",
              "name": "_address",
              "type": "address"
            }
          ],
          "name": "removeFactory",
          "outputs": [],
          "stateMutability": "nonpayable",
          "type": "function"
        },
        {
          "inputs": [
            {
              "internalType": "address",
              "name": "_address",
              "type": "address"
            }
          ],
          "name": "removeFactorySelf",
          "outputs": [],
          "stateMutability": "nonpayable",
          "type": "function"
        },
        {
          "inputs": [],
          "name": "renounceOwnership",
          "outputs": [],
          "stateMutability": "nonpayable",
          "type": "function"
        },
        {
          "inputs": [
            {
              "internalType": "address",
              "name": "newOwner",
              "type": "address"
            }
          ],
          "name": "transferOwnership",
          "outputs": [],
          "stateMutability": "nonpayable",
          "type": "function"
        }
      ],
      "evm": {
        "bytecode": {
          "linkReferences": {},
          "object": "60806040523480156200001157600080fd5b5062000032620000266200004960201b60201c565b6200005160201b60201c565b62000043336200011560201b60201c565b620005af565b600033905090565b60008060009054906101000a900473ffffffffffffffffffffffffffffffffffffffff169050816000806101000a81548173ffffffffffffffffffffffffffffffffffffffff021916908373ffffffffffffffffffffffffffffffffffffffff1602179055508173ffffffffffffffffffffffffffffffffffffffff168173ffffffffffffffffffffffffffffffffffffffff167f8be0079c531659141344cd1fd0a4f28419497f9722a3daafe3b4186f6b6457e060405160405180910390a35050565b620001256200004960201b60201c565b73ffffffffffffffffffffffffffffffffffffffff166200014b620001fb60201b60201c565b73ffffffffffffffffffffffffffffffffffffffff1614620001a4576040517f08c379a00000000000000000000000000000000000000000000000000000000081526004016200019b9062000403565b60405180910390fd5b620001bf8160016200022460201b6200059a1790919060201c565b7f5a8fb443d09cf1426e80f80dd509757d71d4687674ab4adad906c5e2b6e1e62c81604051620001f091906200046a565b60405180910390a150565b60008060009054906101000a900473ffffffffffffffffffffffffffffffffffffffff16905090565b620002368282620002e260201b60201c565b1562000279576040517f08c379a00000000000000000000000000000000000000000000000000000000081526004016200027090620004d7565b60405180910390fd5b81600001819080600181540180825580915050600190039060005260206000200160009091909190916101000a81548173ffffffffffffffffffffffffffffffffffffffff021916908373ffffffffffffffffffffffffffffffffffffffff1602179055505050565b6000808360000180549050905060005b8181101562000395578373ffffffffffffffffffffffffffffffffffffffff168560000182815481106200032b576200032a620004f9565b5b9060005260206000200160009054906101000a900473ffffffffffffffffffffffffffffffffffffffff1673ffffffffffffffffffffffffffffffffffffffff1614156200037f576001925050506200039c565b80806200038c9062000561565b915050620002f2565b5060009150505b92915050565b600082825260208201905092915050565b7f4f776e61626c653a2063616c6c6572206973206e6f7420746865206f776e6572600082015250565b6000620003eb602083620003a2565b9150620003f882620003b3565b602082019050919050565b600060208201905081810360008301526200041e81620003dc565b9050919050565b600073ffffffffffffffffffffffffffffffffffffffff82169050919050565b6000620004528262000425565b9050919050565b620004648162000445565b82525050565b600060208201905062000481600083018462000459565b92915050565b7f524f4c455f414c52454144595f45584953545300000000000000000000000000600082015250565b6000620004bf601383620003a2565b9150620004cc8262000487565b602082019050919050565b60006020820190508181036000830152620004f281620004b0565b9050919050565b7f4e487b7100000000000000000000000000000000000000000000000000000000600052603260045260246000fd5b7f4e487b7100000000000000000000000000000000000000000000000000000000600052601160045260246000fd5b6000819050919050565b60006200056e8262000557565b91507fffffffffffffffffffffffffffffffffffffffffffffffffffffffffffffffff821415620005a457620005a362000528565b5b600182019050919050565b610f0d80620005bf6000396000f3fe608060405234801561001057600080fd5b50600436106100885760003560e01c8063844805101161005b57806384480510146100ff57806388cc58e41461011b5780638da5cb5b14610139578063f2fde38b1461015757610088565b80630f04ba671461008d57806329ce1ec5146100bd5780634b37c73f146100d9578063715018a6146100f5575b600080fd5b6100a760048036038101906100a29190610a6f565b610173565b6040516100b49190610ab7565b60405180910390f35b6100d760048036038101906100d29190610a6f565b610190565b005b6100f360048036038101906100ee9190610a6f565b61025a565b005b6100fd610324565b005b61011960048036038101906101149190610a6f565b6103ac565b005b610123610468565b6040516101309190610b90565b60405180910390f35b610141610479565b60405161014e9190610bc1565b60405180910390f35b610171600480360381019061016c9190610a6f565b6104a2565b005b600061018982600161064d90919063ffffffff16565b9050919050565b610198610704565b73ffffffffffffffffffffffffffffffffffffffff166101b6610479565b73ffffffffffffffffffffffffffffffffffffffff161461020c576040517f08c379a000000000000000000000000000000000000000000000000000000000815260040161020390610c39565b60405180910390fd5b61022081600161059a90919063ffffffff16565b7f5a8fb443d09cf1426e80f80dd509757d71d4687674ab4adad906c5e2b6e1e62c8160405161024f9190610bc1565b60405180910390a150565b610262610704565b73ffffffffffffffffffffffffffffffffffffffff16610280610479565b73ffffffffffffffffffffffffffffffffffffffff16146102d6576040517f08c379a00000000000000000000000000000000000000000000000000000000081526004016102cd90610c39565b60405180910390fd5b6102ea81600161070c90919063ffffffff16565b7f3d4e7057f9f992c8d86344002642adf5d5cd33816b302134e7ef5e0f045a6e78816040516103199190610bc1565b60405180910390a150565b61032c610704565b73ffffffffffffffffffffffffffffffffffffffff1661034a610479565b73ffffffffffffffffffffffffffffffffffffffff16146103a0576040517f08c379a000000000000000000000000000000000000000000000000000000000815260040161039790610c39565b60405180910390fd5b6103aa60006108b6565b565b8073ffffffffffffffffffffffffffffffffffffffff163373ffffffffffffffffffffffffffffffffffffffff161461041a576040517f08c379a000000000000000000000000000000000000000000000000000000000815260040161041190610ca5565b60405180910390fd5b61042e81600161070c90919063ffffffff16565b7f3d4e7057f9f992c8d86344002642adf5d5cd33816b302134e7ef5e0f045a6e788160405161045d9190610bc1565b60405180910390a150565b6060610474600161097a565b905090565b60008060009054906101000a900473ffffffffffffffffffffffffffffffffffffffff16905090565b6104aa610704565b73ffffffffffffffffffffffffffffffffffffffff166104c8610479565b73ffffffffffffffffffffffffffffffffffffffff161461051e576040517f08c379a000000000000000000000000000000000000000000000000000000000815260040161051590610c39565b60405180910390fd5b600073ffffffffffffffffffffffffffffffffffffffff168173ffffffffffffffffffffffffffffffffffffffff16141561058e576040517f08c379a000000000000000000000000000000000000000000000000000000000815260040161058590610d37565b60405180910390fd5b610597816108b6565b50565b6105a4828261064d565b156105e4576040517f08c379a00000000000000000000000000000000000000000000000000000000081526004016105db90610da3565b60405180910390fd5b81600001819080600181540180825580915050600190039060005260206000200160009091909190916101000a81548173ffffffffffffffffffffffffffffffffffffffff021916908373ffffffffffffffffffffffffffffffffffffffff1602179055505050565b6000808360000180549050905060005b818110156106f7578373ffffffffffffffffffffffffffffffffffffffff1685600001828154811061069257610691610dc3565b5b9060005260206000200160009054906101000a900473ffffffffffffffffffffffffffffffffffffffff1673ffffffffffffffffffffffffffffffffffffffff1614156106e4576001925050506106fe565b80806106ef90610e2b565b91505061065d565b5060009150505b92915050565b600033905090565b600082600001805490509050600080600090505b828110156108665781156107da5784600001818154811061074457610743610dc3565b5b9060005260206000200160009054906101000a900473ffffffffffffffffffffffffffffffffffffffff16856000016001836107809190610e74565b8154811061079157610790610dc3565b5b9060005260206000200160006101000a81548173ffffffffffffffffffffffffffffffffffffffff021916908373ffffffffffffffffffffffffffffffffffffffff1602179055505b8373ffffffffffffffffffffffffffffffffffffffff1685600001828154811061080757610806610dc3565b5b9060005260206000200160009054906101000a900473ffffffffffffffffffffffffffffffffffffffff1673ffffffffffffffffffffffffffffffffffffffff16141561085357600191505b808061085e90610e2b565b915050610720565b508360000180548061087b5761087a610ea8565b5b6001900381819060005260206000200160006101000a81549073ffffffffffffffffffffffffffffffffffffffff0219169055905550505050565b60008060009054906101000a900473ffffffffffffffffffffffffffffffffffffffff169050816000806101000a81548173ffffffffffffffffffffffffffffffffffffffff021916908373ffffffffffffffffffffffffffffffffffffffff1602179055508173ffffffffffffffffffffffffffffffffffffffff168173ffffffffffffffffffffffffffffffffffffffff167f8be0079c531659141344cd1fd0a4f28419497f9722a3daafe3b4186f6b6457e060405160405180910390a35050565b606081600001805480602002602001604051908101604052809291908181526020018280548015610a0057602002820191906000526020600020905b8160009054906101000a900473ffffffffffffffffffffffffffffffffffffffff1673ffffffffffffffffffffffffffffffffffffffff16815260200190600101908083116109b6575b50505050509050919050565b600080fd5b600073ffffffffffffffffffffffffffffffffffffffff82169050919050565b6000610a3c82610a11565b9050919050565b610a4c81610a31565b8114610a5757600080fd5b50565b600081359050610a6981610a43565b92915050565b600060208284031215610a8557610a84610a0c565b5b6000610a9384828501610a5a565b91505092915050565b60008115159050919050565b610ab181610a9c565b82525050565b6000602082019050610acc6000830184610aa8565b92915050565b600081519050919050565b600082825260208201905092915050565b6000819050602082019050919050565b610b0781610a31565b82525050565b6000610b198383610afe565b60208301905092915050565b6000602082019050919050565b6000610b3d82610ad2565b610b478185610add565b9350610b5283610aee565b8060005b83811015610b83578151610b6a8882610b0d565b9750610b7583610b25565b925050600181019050610b56565b5085935050505092915050565b60006020820190508181036000830152610baa8184610b32565b905092915050565b610bbb81610a31565b82525050565b6000602082019050610bd66000830184610bb2565b92915050565b600082825260208201905092915050565b7f4f776e61626c653a2063616c6c6572206973206e6f7420746865206f776e6572600082015250565b6000610c23602083610bdc565b9150610c2e82610bed565b602082019050919050565b60006020820190508181036000830152610c5281610c16565b9050919050565b7f594f555f43414e5f4e4f545f524f4d4f56455f544849535f4144445245535300600082015250565b6000610c8f601f83610bdc565b9150610c9a82610c59565b602082019050919050565b60006020820190508181036000830152610cbe81610c82565b9050919050565b7f4f776e61626c653a206e6577206f776e657220697320746865207a65726f206160008201527f6464726573730000000000000000000000000000000000000000000000000000602082015250565b6000610d21602683610bdc565b9150610d2c82610cc5565b604082019050919050565b60006020820190508181036000830152610d5081610d14565b9050919050565b7f524f4c455f414c52454144595f45584953545300000000000000000000000000600082015250565b6000610d8d601383610bdc565b9150610d9882610d57565b602082019050919050565b60006020820190508181036000830152610dbc81610d80565b9050919050565b7f4e487b7100000000000000000000000000000000000000000000000000000000600052603260045260246000fd5b7f4e487b7100000000000000000000000000000000000000000000000000000000600052601160045260246000fd5b6000819050919050565b6000610e3682610e21565b91507fffffffffffffffffffffffffffffffffffffffffffffffffffffffffffffffff821415610e6957610e68610df2565b5b600182019050919050565b6000610e7f82610e21565b9150610e8a83610e21565b925082821015610e9d57610e9c610df2565b5b828203905092915050565b7f4e487b7100000000000000000000000000000000000000000000000000000000600052603160045260246000fdfea26469706673582212208bdceda928049f536d0ac704741dbdc3b26b4c67f2cc7a82f2da78b23b2d07d764736f6c63430008080033",
          "opcodes": "PUSH1 0x80 PUSH1 0x40 MSTORE CALLVALUE DUP1 ISZERO PUSH3 0x11 JUMPI PUSH1 0x0 DUP1 REVERT JUMPDEST POP PUSH3 0x32 PUSH3 0x26 PUSH3 0x49 PUSH1 0x20 SHL PUSH1 0x20 SHR JUMP JUMPDEST PUSH3 0x51 PUSH1 0x20 SHL PUSH1 0x20 SHR JUMP JUMPDEST PUSH3 0x43 CALLER PUSH3 0x115 PUSH1 0x20 SHL PUSH1 0x20 SHR JUMP JUMPDEST PUSH3 0x5AF JUMP JUMPDEST PUSH1 0x0 CALLER SWAP1 POP SWAP1 JUMP JUMPDEST PUSH1 0x0 DUP1 PUSH1 0x0 SWAP1 SLOAD SWAP1 PUSH2 0x100 EXP SWAP1 DIV PUSH20 0xFFFFFFFFFFFFFFFFFFFFFFFFFFFFFFFFFFFFFFFF AND SWAP1 POP DUP2 PUSH1 0x0 DUP1 PUSH2 0x100 EXP DUP2 SLOAD DUP2 PUSH20 0xFFFFFFFFFFFFFFFFFFFFFFFFFFFFFFFFFFFFFFFF MUL NOT AND SWAP1 DUP4 PUSH20 0xFFFFFFFFFFFFFFFFFFFFFFFFFFFFFFFFFFFFFFFF AND MUL OR SWAP1 SSTORE POP DUP2 PUSH20 0xFFFFFFFFFFFFFFFFFFFFFFFFFFFFFFFFFFFFFFFF AND DUP2 PUSH20 0xFFFFFFFFFFFFFFFFFFFFFFFFFFFFFFFFFFFFFFFF AND PUSH32 0x8BE0079C531659141344CD1FD0A4F28419497F9722A3DAAFE3B4186F6B6457E0 PUSH1 0x40 MLOAD PUSH1 0x40 MLOAD DUP1 SWAP2 SUB SWAP1 LOG3 POP POP JUMP JUMPDEST PUSH3 0x125 PUSH3 0x49 PUSH1 0x20 SHL PUSH1 0x20 SHR JUMP JUMPDEST PUSH20 0xFFFFFFFFFFFFFFFFFFFFFFFFFFFFFFFFFFFFFFFF AND PUSH3 0x14B PUSH3 0x1FB PUSH1 0x20 SHL PUSH1 0x20 SHR JUMP JUMPDEST PUSH20 0xFFFFFFFFFFFFFFFFFFFFFFFFFFFFFFFFFFFFFFFF AND EQ PUSH3 0x1A4 JUMPI PUSH1 0x40 MLOAD PUSH32 0x8C379A000000000000000000000000000000000000000000000000000000000 DUP2 MSTORE PUSH1 0x4 ADD PUSH3 0x19B SWAP1 PUSH3 0x403 JUMP JUMPDEST PUSH1 0x40 MLOAD DUP1 SWAP2 SUB SWAP1 REVERT JUMPDEST PUSH3 0x1BF DUP2 PUSH1 0x1 PUSH3 0x224 PUSH1 0x20 SHL PUSH3 0x59A OR SWAP1 SWAP2 SWAP1 PUSH1 0x20 SHR JUMP JUMPDEST PUSH32 0x5A8FB443D09CF1426E80F80DD509757D71D4687674AB4ADAD906C5E2B6E1E62C DUP2 PUSH1 0x40 MLOAD PUSH3 0x1F0 SWAP2 SWAP1 PUSH3 0x46A JUMP JUMPDEST PUSH1 0x40 MLOAD DUP1 SWAP2 SUB SWAP1 LOG1 POP JUMP JUMPDEST PUSH1 0x0 DUP1 PUSH1 0x0 SWAP1 SLOAD SWAP1 PUSH2 0x100 EXP SWAP1 DIV PUSH20 0xFFFFFFFFFFFFFFFFFFFFFFFFFFFFFFFFFFFFFFFF AND SWAP1 POP SWAP1 JUMP JUMPDEST PUSH3 0x236 DUP3 DUP3 PUSH3 0x2E2 PUSH1 0x20 SHL PUSH1 0x20 SHR JUMP JUMPDEST ISZERO PUSH3 0x279 JUMPI PUSH1 0x40 MLOAD PUSH32 0x8C379A000000000000000000000000000000000000000000000000000000000 DUP2 MSTORE PUSH1 0x4 ADD PUSH3 0x270 SWAP1 PUSH3 0x4D7 JUMP JUMPDEST PUSH1 0x40 MLOAD DUP1 SWAP2 SUB SWAP1 REVERT JUMPDEST DUP2 PUSH1 0x0 ADD DUP2 SWAP1 DUP1 PUSH1 0x1 DUP2 SLOAD ADD DUP1 DUP3 SSTORE DUP1 SWAP2 POP POP PUSH1 0x1 SWAP1 SUB SWAP1 PUSH1 0x0 MSTORE PUSH1 0x20 PUSH1 0x0 KECCAK256 ADD PUSH1 0x0 SWAP1 SWAP2 SWAP1 SWAP2 SWAP1 SWAP2 PUSH2 0x100 EXP DUP2 SLOAD DUP2 PUSH20 0xFFFFFFFFFFFFFFFFFFFFFFFFFFFFFFFFFFFFFFFF MUL NOT AND SWAP1 DUP4 PUSH20 0xFFFFFFFFFFFFFFFFFFFFFFFFFFFFFFFFFFFFFFFF AND MUL OR SWAP1 SSTORE POP POP POP JUMP JUMPDEST PUSH1 0x0 DUP1 DUP4 PUSH1 0x0 ADD DUP1 SLOAD SWAP1 POP SWAP1 POP PUSH1 0x0 JUMPDEST DUP2 DUP2 LT ISZERO PUSH3 0x395 JUMPI DUP4 PUSH20 0xFFFFFFFFFFFFFFFFFFFFFFFFFFFFFFFFFFFFFFFF AND DUP6 PUSH1 0x0 ADD DUP3 DUP2 SLOAD DUP2 LT PUSH3 0x32B JUMPI PUSH3 0x32A PUSH3 0x4F9 JUMP JUMPDEST JUMPDEST SWAP1 PUSH1 0x0 MSTORE PUSH1 0x20 PUSH1 0x0 KECCAK256 ADD PUSH1 0x0 SWAP1 SLOAD SWAP1 PUSH2 0x100 EXP SWAP1 DIV PUSH20 0xFFFFFFFFFFFFFFFFFFFFFFFFFFFFFFFFFFFFFFFF AND PUSH20 0xFFFFFFFFFFFFFFFFFFFFFFFFFFFFFFFFFFFFFFFF AND EQ ISZERO PUSH3 0x37F JUMPI PUSH1 0x1 SWAP3 POP POP POP PUSH3 0x39C JUMP JUMPDEST DUP1 DUP1 PUSH3 0x38C SWAP1 PUSH3 0x561 JUMP JUMPDEST SWAP2 POP POP PUSH3 0x2F2 JUMP JUMPDEST POP PUSH1 0x0 SWAP2 POP POP JUMPDEST SWAP3 SWAP2 POP POP JUMP JUMPDEST PUSH1 0x0 DUP3 DUP3 MSTORE PUSH1 0x20 DUP3 ADD SWAP1 POP SWAP3 SWAP2 POP POP JUMP JUMPDEST PUSH32 0x4F776E61626C653A2063616C6C6572206973206E6F7420746865206F776E6572 PUSH1 0x0 DUP3 ADD MSTORE POP JUMP JUMPDEST PUSH1 0x0 PUSH3 0x3EB PUSH1 0x20 DUP4 PUSH3 0x3A2 JUMP JUMPDEST SWAP2 POP PUSH3 0x3F8 DUP3 PUSH3 0x3B3 JUMP JUMPDEST PUSH1 0x20 DUP3 ADD SWAP1 POP SWAP2 SWAP1 POP JUMP JUMPDEST PUSH1 0x0 PUSH1 0x20 DUP3 ADD SWAP1 POP DUP2 DUP2 SUB PUSH1 0x0 DUP4 ADD MSTORE PUSH3 0x41E DUP2 PUSH3 0x3DC JUMP JUMPDEST SWAP1 POP SWAP2 SWAP1 POP JUMP JUMPDEST PUSH1 0x0 PUSH20 0xFFFFFFFFFFFFFFFFFFFFFFFFFFFFFFFFFFFFFFFF DUP3 AND SWAP1 POP SWAP2 SWAP1 POP JUMP JUMPDEST PUSH1 0x0 PUSH3 0x452 DUP3 PUSH3 0x425 JUMP JUMPDEST SWAP1 POP SWAP2 SWAP1 POP JUMP JUMPDEST PUSH3 0x464 DUP2 PUSH3 0x445 JUMP JUMPDEST DUP3 MSTORE POP POP JUMP JUMPDEST PUSH1 0x0 PUSH1 0x20 DUP3 ADD SWAP1 POP PUSH3 0x481 PUSH1 0x0 DUP4 ADD DUP5 PUSH3 0x459 JUMP JUMPDEST SWAP3 SWAP2 POP POP JUMP JUMPDEST PUSH32 0x524F4C455F414C52454144595F45584953545300000000000000000000000000 PUSH1 0x0 DUP3 ADD MSTORE POP JUMP JUMPDEST PUSH1 0x0 PUSH3 0x4BF PUSH1 0x13 DUP4 PUSH3 0x3A2 JUMP JUMPDEST SWAP2 POP PUSH3 0x4CC DUP3 PUSH3 0x487 JUMP JUMPDEST PUSH1 0x20 DUP3 ADD SWAP1 POP SWAP2 SWAP1 POP JUMP JUMPDEST PUSH1 0x0 PUSH1 0x20 DUP3 ADD SWAP1 POP DUP2 DUP2 SUB PUSH1 0x0 DUP4 ADD MSTORE PUSH3 0x4F2 DUP2 PUSH3 0x4B0 JUMP JUMPDEST SWAP1 POP SWAP2 SWAP1 POP JUMP JUMPDEST PUSH32 0x4E487B7100000000000000000000000000000000000000000000000000000000 PUSH1 0x0 MSTORE PUSH1 0x32 PUSH1 0x4 MSTORE PUSH1 0x24 PUSH1 0x0 REVERT JUMPDEST PUSH32 0x4E487B7100000000000000000000000000000000000000000000000000000000 PUSH1 0x0 MSTORE PUSH1 0x11 PUSH1 0x4 MSTORE PUSH1 0x24 PUSH1 0x0 REVERT JUMPDEST PUSH1 0x0 DUP2 SWAP1 POP SWAP2 SWAP1 POP JUMP JUMPDEST PUSH1 0x0 PUSH3 0x56E DUP3 PUSH3 0x557 JUMP JUMPDEST SWAP2 POP PUSH32 0xFFFFFFFFFFFFFFFFFFFFFFFFFFFFFFFFFFFFFFFFFFFFFFFFFFFFFFFFFFFFFFFF DUP3 EQ ISZERO PUSH3 0x5A4 JUMPI PUSH3 0x5A3 PUSH3 0x528 JUMP JUMPDEST JUMPDEST PUSH1 0x1 DUP3 ADD SWAP1 POP SWAP2 SWAP1 POP JUMP JUMPDEST PUSH2 0xF0D DUP1 PUSH3 0x5BF PUSH1 0x0 CODECOPY PUSH1 0x0 RETURN INVALID PUSH1 0x80 PUSH1 0x40 MSTORE CALLVALUE DUP1 ISZERO PUSH2 0x10 JUMPI PUSH1 0x0 DUP1 REVERT JUMPDEST POP PUSH1 0x4 CALLDATASIZE LT PUSH2 0x88 JUMPI PUSH1 0x0 CALLDATALOAD PUSH1 0xE0 SHR DUP1 PUSH4 0x84480510 GT PUSH2 0x5B JUMPI DUP1 PUSH4 0x84480510 EQ PUSH2 0xFF JUMPI DUP1 PUSH4 0x88CC58E4 EQ PUSH2 0x11B JUMPI DUP1 PUSH4 0x8DA5CB5B EQ PUSH2 0x139 JUMPI DUP1 PUSH4 0xF2FDE38B EQ PUSH2 0x157 JUMPI PUSH2 0x88 JUMP JUMPDEST DUP1 PUSH4 0xF04BA67 EQ PUSH2 0x8D JUMPI DUP1 PUSH4 0x29CE1EC5 EQ PUSH2 0xBD JUMPI DUP1 PUSH4 0x4B37C73F EQ PUSH2 0xD9 JUMPI DUP1 PUSH4 0x715018A6 EQ PUSH2 0xF5 JUMPI JUMPDEST PUSH1 0x0 DUP1 REVERT JUMPDEST PUSH2 0xA7 PUSH1 0x4 DUP1 CALLDATASIZE SUB DUP2 ADD SWAP1 PUSH2 0xA2 SWAP2 SWAP1 PUSH2 0xA6F JUMP JUMPDEST PUSH2 0x173 JUMP JUMPDEST PUSH1 0x40 MLOAD PUSH2 0xB4 SWAP2 SWAP1 PUSH2 0xAB7 JUMP JUMPDEST PUSH1 0x40 MLOAD DUP1 SWAP2 SUB SWAP1 RETURN JUMPDEST PUSH2 0xD7 PUSH1 0x4 DUP1 CALLDATASIZE SUB DUP2 ADD SWAP1 PUSH2 0xD2 SWAP2 SWAP1 PUSH2 0xA6F JUMP JUMPDEST PUSH2 0x190 JUMP JUMPDEST STOP JUMPDEST PUSH2 0xF3 PUSH1 0x4 DUP1 CALLDATASIZE SUB DUP2 ADD SWAP1 PUSH2 0xEE SWAP2 SWAP1 PUSH2 0xA6F JUMP JUMPDEST PUSH2 0x25A JUMP JUMPDEST STOP JUMPDEST PUSH2 0xFD PUSH2 0x324 JUMP JUMPDEST STOP JUMPDEST PUSH2 0x119 PUSH1 0x4 DUP1 CALLDATASIZE SUB DUP2 ADD SWAP1 PUSH2 0x114 SWAP2 SWAP1 PUSH2 0xA6F JUMP JUMPDEST PUSH2 0x3AC JUMP JUMPDEST STOP JUMPDEST PUSH2 0x123 PUSH2 0x468 JUMP JUMPDEST PUSH1 0x40 MLOAD PUSH2 0x130 SWAP2 SWAP1 PUSH2 0xB90 JUMP JUMPDEST PUSH1 0x40 MLOAD DUP1 SWAP2 SUB SWAP1 RETURN JUMPDEST PUSH2 0x141 PUSH2 0x479 JUMP JUMPDEST PUSH1 0x40 MLOAD PUSH2 0x14E SWAP2 SWAP1 PUSH2 0xBC1 JUMP JUMPDEST PUSH1 0x40 MLOAD DUP1 SWAP2 SUB SWAP1 RETURN JUMPDEST PUSH2 0x171 PUSH1 0x4 DUP1 CALLDATASIZE SUB DUP2 ADD SWAP1 PUSH2 0x16C SWAP2 SWAP1 PUSH2 0xA6F JUMP JUMPDEST PUSH2 0x4A2 JUMP JUMPDEST STOP JUMPDEST PUSH1 0x0 PUSH2 0x189 DUP3 PUSH1 0x1 PUSH2 0x64D SWAP1 SWAP2 SWAP1 PUSH4 0xFFFFFFFF AND JUMP JUMPDEST SWAP1 POP SWAP2 SWAP1 POP JUMP JUMPDEST PUSH2 0x198 PUSH2 0x704 JUMP JUMPDEST PUSH20 0xFFFFFFFFFFFFFFFFFFFFFFFFFFFFFFFFFFFFFFFF AND PUSH2 0x1B6 PUSH2 0x479 JUMP JUMPDEST PUSH20 0xFFFFFFFFFFFFFFFFFFFFFFFFFFFFFFFFFFFFFFFF AND EQ PUSH2 0x20C JUMPI PUSH1 0x40 MLOAD PUSH32 0x8C379A000000000000000000000000000000000000000000000000000000000 DUP2 MSTORE PUSH1 0x4 ADD PUSH2 0x203 SWAP1 PUSH2 0xC39 JUMP JUMPDEST PUSH1 0x40 MLOAD DUP1 SWAP2 SUB SWAP1 REVERT JUMPDEST PUSH2 0x220 DUP2 PUSH1 0x1 PUSH2 0x59A SWAP1 SWAP2 SWAP1 PUSH4 0xFFFFFFFF AND JUMP JUMPDEST PUSH32 0x5A8FB443D09CF1426E80F80DD509757D71D4687674AB4ADAD906C5E2B6E1E62C DUP2 PUSH1 0x40 MLOAD PUSH2 0x24F SWAP2 SWAP1 PUSH2 0xBC1 JUMP JUMPDEST PUSH1 0x40 MLOAD DUP1 SWAP2 SUB SWAP1 LOG1 POP JUMP JUMPDEST PUSH2 0x262 PUSH2 0x704 JUMP JUMPDEST PUSH20 0xFFFFFFFFFFFFFFFFFFFFFFFFFFFFFFFFFFFFFFFF AND PUSH2 0x280 PUSH2 0x479 JUMP JUMPDEST PUSH20 0xFFFFFFFFFFFFFFFFFFFFFFFFFFFFFFFFFFFFFFFF AND EQ PUSH2 0x2D6 JUMPI PUSH1 0x40 MLOAD PUSH32 0x8C379A000000000000000000000000000000000000000000000000000000000 DUP2 MSTORE PUSH1 0x4 ADD PUSH2 0x2CD SWAP1 PUSH2 0xC39 JUMP JUMPDEST PUSH1 0x40 MLOAD DUP1 SWAP2 SUB SWAP1 REVERT JUMPDEST PUSH2 0x2EA DUP2 PUSH1 0x1 PUSH2 0x70C SWAP1 SWAP2 SWAP1 PUSH4 0xFFFFFFFF AND JUMP JUMPDEST PUSH32 0x3D4E7057F9F992C8D86344002642ADF5D5CD33816B302134E7EF5E0F045A6E78 DUP2 PUSH1 0x40 MLOAD PUSH2 0x319 SWAP2 SWAP1 PUSH2 0xBC1 JUMP JUMPDEST PUSH1 0x40 MLOAD DUP1 SWAP2 SUB SWAP1 LOG1 POP JUMP JUMPDEST PUSH2 0x32C PUSH2 0x704 JUMP JUMPDEST PUSH20 0xFFFFFFFFFFFFFFFFFFFFFFFFFFFFFFFFFFFFFFFF AND PUSH2 0x34A PUSH2 0x479 JUMP JUMPDEST PUSH20 0xFFFFFFFFFFFFFFFFFFFFFFFFFFFFFFFFFFFFFFFF AND EQ PUSH2 0x3A0 JUMPI PUSH1 0x40 MLOAD PUSH32 0x8C379A000000000000000000000000000000000000000000000000000000000 DUP2 MSTORE PUSH1 0x4 ADD PUSH2 0x397 SWAP1 PUSH2 0xC39 JUMP JUMPDEST PUSH1 0x40 MLOAD DUP1 SWAP2 SUB SWAP1 REVERT JUMPDEST PUSH2 0x3AA PUSH1 0x0 PUSH2 0x8B6 JUMP JUMPDEST JUMP JUMPDEST DUP1 PUSH20 0xFFFFFFFFFFFFFFFFFFFFFFFFFFFFFFFFFFFFFFFF AND CALLER PUSH20 0xFFFFFFFFFFFFFFFFFFFFFFFFFFFFFFFFFFFFFFFF AND EQ PUSH2 0x41A JUMPI PUSH1 0x40 MLOAD PUSH32 0x8C379A000000000000000000000000000000000000000000000000000000000 DUP2 MSTORE PUSH1 0x4 ADD PUSH2 0x411 SWAP1 PUSH2 0xCA5 JUMP JUMPDEST PUSH1 0x40 MLOAD DUP1 SWAP2 SUB SWAP1 REVERT JUMPDEST PUSH2 0x42E DUP2 PUSH1 0x1 PUSH2 0x70C SWAP1 SWAP2 SWAP1 PUSH4 0xFFFFFFFF AND JUMP JUMPDEST PUSH32 0x3D4E7057F9F992C8D86344002642ADF5D5CD33816B302134E7EF5E0F045A6E78 DUP2 PUSH1 0x40 MLOAD PUSH2 0x45D SWAP2 SWAP1 PUSH2 0xBC1 JUMP JUMPDEST PUSH1 0x40 MLOAD DUP1 SWAP2 SUB SWAP1 LOG1 POP JUMP JUMPDEST PUSH1 0x60 PUSH2 0x474 PUSH1 0x1 PUSH2 0x97A JUMP JUMPDEST SWAP1 POP SWAP1 JUMP JUMPDEST PUSH1 0x0 DUP1 PUSH1 0x0 SWAP1 SLOAD SWAP1 PUSH2 0x100 EXP SWAP1 DIV PUSH20 0xFFFFFFFFFFFFFFFFFFFFFFFFFFFFFFFFFFFFFFFF AND SWAP1 POP SWAP1 JUMP JUMPDEST PUSH2 0x4AA PUSH2 0x704 JUMP JUMPDEST PUSH20 0xFFFFFFFFFFFFFFFFFFFFFFFFFFFFFFFFFFFFFFFF AND PUSH2 0x4C8 PUSH2 0x479 JUMP JUMPDEST PUSH20 0xFFFFFFFFFFFFFFFFFFFFFFFFFFFFFFFFFFFFFFFF AND EQ PUSH2 0x51E JUMPI PUSH1 0x40 MLOAD PUSH32 0x8C379A000000000000000000000000000000000000000000000000000000000 DUP2 MSTORE PUSH1 0x4 ADD PUSH2 0x515 SWAP1 PUSH2 0xC39 JUMP JUMPDEST PUSH1 0x40 MLOAD DUP1 SWAP2 SUB SWAP1 REVERT JUMPDEST PUSH1 0x0 PUSH20 0xFFFFFFFFFFFFFFFFFFFFFFFFFFFFFFFFFFFFFFFF AND DUP2 PUSH20 0xFFFFFFFFFFFFFFFFFFFFFFFFFFFFFFFFFFFFFFFF AND EQ ISZERO PUSH2 0x58E JUMPI PUSH1 0x40 MLOAD PUSH32 0x8C379A000000000000000000000000000000000000000000000000000000000 DUP2 MSTORE PUSH1 0x4 ADD PUSH2 0x585 SWAP1 PUSH2 0xD37 JUMP JUMPDEST PUSH1 0x40 MLOAD DUP1 SWAP2 SUB SWAP1 REVERT JUMPDEST PUSH2 0x597 DUP2 PUSH2 0x8B6 JUMP JUMPDEST POP JUMP JUMPDEST PUSH2 0x5A4 DUP3 DUP3 PUSH2 0x64D JUMP JUMPDEST ISZERO PUSH2 0x5E4 JUMPI PUSH1 0x40 MLOAD PUSH32 0x8C379A000000000000000000000000000000000000000000000000000000000 DUP2 MSTORE PUSH1 0x4 ADD PUSH2 0x5DB SWAP1 PUSH2 0xDA3 JUMP JUMPDEST PUSH1 0x40 MLOAD DUP1 SWAP2 SUB SWAP1 REVERT JUMPDEST DUP2 PUSH1 0x0 ADD DUP2 SWAP1 DUP1 PUSH1 0x1 DUP2 SLOAD ADD DUP1 DUP3 SSTORE DUP1 SWAP2 POP POP PUSH1 0x1 SWAP1 SUB SWAP1 PUSH1 0x0 MSTORE PUSH1 0x20 PUSH1 0x0 KECCAK256 ADD PUSH1 0x0 SWAP1 SWAP2 SWAP1 SWAP2 SWAP1 SWAP2 PUSH2 0x100 EXP DUP2 SLOAD DUP2 PUSH20 0xFFFFFFFFFFFFFFFFFFFFFFFFFFFFFFFFFFFFFFFF MUL NOT AND SWAP1 DUP4 PUSH20 0xFFFFFFFFFFFFFFFFFFFFFFFFFFFFFFFFFFFFFFFF AND MUL OR SWAP1 SSTORE POP POP POP JUMP JUMPDEST PUSH1 0x0 DUP1 DUP4 PUSH1 0x0 ADD DUP1 SLOAD SWAP1 POP SWAP1 POP PUSH1 0x0 JUMPDEST DUP2 DUP2 LT ISZERO PUSH2 0x6F7 JUMPI DUP4 PUSH20 0xFFFFFFFFFFFFFFFFFFFFFFFFFFFFFFFFFFFFFFFF AND DUP6 PUSH1 0x0 ADD DUP3 DUP2 SLOAD DUP2 LT PUSH2 0x692 JUMPI PUSH2 0x691 PUSH2 0xDC3 JUMP JUMPDEST JUMPDEST SWAP1 PUSH1 0x0 MSTORE PUSH1 0x20 PUSH1 0x0 KECCAK256 ADD PUSH1 0x0 SWAP1 SLOAD SWAP1 PUSH2 0x100 EXP SWAP1 DIV PUSH20 0xFFFFFFFFFFFFFFFFFFFFFFFFFFFFFFFFFFFFFFFF AND PUSH20 0xFFFFFFFFFFFFFFFFFFFFFFFFFFFFFFFFFFFFFFFF AND EQ ISZERO PUSH2 0x6E4 JUMPI PUSH1 0x1 SWAP3 POP POP POP PUSH2 0x6FE JUMP JUMPDEST DUP1 DUP1 PUSH2 0x6EF SWAP1 PUSH2 0xE2B JUMP JUMPDEST SWAP2 POP POP PUSH2 0x65D JUMP JUMPDEST POP PUSH1 0x0 SWAP2 POP POP JUMPDEST SWAP3 SWAP2 POP POP JUMP JUMPDEST PUSH1 0x0 CALLER SWAP1 POP SWAP1 JUMP JUMPDEST PUSH1 0x0 DUP3 PUSH1 0x0 ADD DUP1 SLOAD SWAP1 POP SWAP1 POP PUSH1 0x0 DUP1 PUSH1 0x0 SWAP1 POP JUMPDEST DUP3 DUP2 LT ISZERO PUSH2 0x866 JUMPI DUP2 ISZERO PUSH2 0x7DA JUMPI DUP5 PUSH1 0x0 ADD DUP2 DUP2 SLOAD DUP2 LT PUSH2 0x744 JUMPI PUSH2 0x743 PUSH2 0xDC3 JUMP JUMPDEST JUMPDEST SWAP1 PUSH1 0x0 MSTORE PUSH1 0x20 PUSH1 0x0 KECCAK256 ADD PUSH1 0x0 SWAP1 SLOAD SWAP1 PUSH2 0x100 EXP SWAP1 DIV PUSH20 0xFFFFFFFFFFFFFFFFFFFFFFFFFFFFFFFFFFFFFFFF AND DUP6 PUSH1 0x0 ADD PUSH1 0x1 DUP4 PUSH2 0x780 SWAP2 SWAP1 PUSH2 0xE74 JUMP JUMPDEST DUP2 SLOAD DUP2 LT PUSH2 0x791 JUMPI PUSH2 0x790 PUSH2 0xDC3 JUMP JUMPDEST JUMPDEST SWAP1 PUSH1 0x0 MSTORE PUSH1 0x20 PUSH1 0x0 KECCAK256 ADD PUSH1 0x0 PUSH2 0x100 EXP DUP2 SLOAD DUP2 PUSH20 0xFFFFFFFFFFFFFFFFFFFFFFFFFFFFFFFFFFFFFFFF MUL NOT AND SWAP1 DUP4 PUSH20 0xFFFFFFFFFFFFFFFFFFFFFFFFFFFFFFFFFFFFFFFF AND MUL OR SWAP1 SSTORE POP JUMPDEST DUP4 PUSH20 0xFFFFFFFFFFFFFFFFFFFFFFFFFFFFFFFFFFFFFFFF AND DUP6 PUSH1 0x0 ADD DUP3 DUP2 SLOAD DUP2 LT PUSH2 0x807 JUMPI PUSH2 0x806 PUSH2 0xDC3 JUMP JUMPDEST JUMPDEST SWAP1 PUSH1 0x0 MSTORE PUSH1 0x20 PUSH1 0x0 KECCAK256 ADD PUSH1 0x0 SWAP1 SLOAD SWAP1 PUSH2 0x100 EXP SWAP1 DIV PUSH20 0xFFFFFFFFFFFFFFFFFFFFFFFFFFFFFFFFFFFFFFFF AND PUSH20 0xFFFFFFFFFFFFFFFFFFFFFFFFFFFFFFFFFFFFFFFF AND EQ ISZERO PUSH2 0x853 JUMPI PUSH1 0x1 SWAP2 POP JUMPDEST DUP1 DUP1 PUSH2 0x85E SWAP1 PUSH2 0xE2B JUMP JUMPDEST SWAP2 POP POP PUSH2 0x720 JUMP JUMPDEST POP DUP4 PUSH1 0x0 ADD DUP1 SLOAD DUP1 PUSH2 0x87B JUMPI PUSH2 0x87A PUSH2 0xEA8 JUMP JUMPDEST JUMPDEST PUSH1 0x1 SWAP1 SUB DUP2 DUP2 SWAP1 PUSH1 0x0 MSTORE PUSH1 0x20 PUSH1 0x0 KECCAK256 ADD PUSH1 0x0 PUSH2 0x100 EXP DUP2 SLOAD SWAP1 PUSH20 0xFFFFFFFFFFFFFFFFFFFFFFFFFFFFFFFFFFFFFFFF MUL NOT AND SWAP1 SSTORE SWAP1 SSTORE POP POP POP POP JUMP JUMPDEST PUSH1 0x0 DUP1 PUSH1 0x0 SWAP1 SLOAD SWAP1 PUSH2 0x100 EXP SWAP1 DIV PUSH20 0xFFFFFFFFFFFFFFFFFFFFFFFFFFFFFFFFFFFFFFFF AND SWAP1 POP DUP2 PUSH1 0x0 DUP1 PUSH2 0x100 EXP DUP2 SLOAD DUP2 PUSH20 0xFFFFFFFFFFFFFFFFFFFFFFFFFFFFFFFFFFFFFFFF MUL NOT AND SWAP1 DUP4 PUSH20 0xFFFFFFFFFFFFFFFFFFFFFFFFFFFFFFFFFFFFFFFF AND MUL OR SWAP1 SSTORE POP DUP2 PUSH20 0xFFFFFFFFFFFFFFFFFFFFFFFFFFFFFFFFFFFFFFFF AND DUP2 PUSH20 0xFFFFFFFFFFFFFFFFFFFFFFFFFFFFFFFFFFFFFFFF AND PUSH32 0x8BE0079C531659141344CD1FD0A4F28419497F9722A3DAAFE3B4186F6B6457E0 PUSH1 0x40 MLOAD PUSH1 0x40 MLOAD DUP1 SWAP2 SUB SWAP1 LOG3 POP POP JUMP JUMPDEST PUSH1 0x60 DUP2 PUSH1 0x0 ADD DUP1 SLOAD DUP1 PUSH1 0x20 MUL PUSH1 0x20 ADD PUSH1 0x40 MLOAD SWAP1 DUP2 ADD PUSH1 0x40 MSTORE DUP1 SWAP3 SWAP2 SWAP1 DUP2 DUP2 MSTORE PUSH1 0x20 ADD DUP3 DUP1 SLOAD DUP1 ISZERO PUSH2 0xA00 JUMPI PUSH1 0x20 MUL DUP3 ADD SWAP2 SWAP1 PUSH1 0x0 MSTORE PUSH1 0x20 PUSH1 0x0 KECCAK256 SWAP1 JUMPDEST DUP2 PUSH1 0x0 SWAP1 SLOAD SWAP1 PUSH2 0x100 EXP SWAP1 DIV PUSH20 0xFFFFFFFFFFFFFFFFFFFFFFFFFFFFFFFFFFFFFFFF AND PUSH20 0xFFFFFFFFFFFFFFFFFFFFFFFFFFFFFFFFFFFFFFFF AND DUP2 MSTORE PUSH1 0x20 ADD SWAP1 PUSH1 0x1 ADD SWAP1 DUP1 DUP4 GT PUSH2 0x9B6 JUMPI JUMPDEST POP POP POP POP POP SWAP1 POP SWAP2 SWAP1 POP JUMP JUMPDEST PUSH1 0x0 DUP1 REVERT JUMPDEST PUSH1 0x0 PUSH20 0xFFFFFFFFFFFFFFFFFFFFFFFFFFFFFFFFFFFFFFFF DUP3 AND SWAP1 POP SWAP2 SWAP1 POP JUMP JUMPDEST PUSH1 0x0 PUSH2 0xA3C DUP3 PUSH2 0xA11 JUMP JUMPDEST SWAP1 POP SWAP2 SWAP1 POP JUMP JUMPDEST PUSH2 0xA4C DUP2 PUSH2 0xA31 JUMP JUMPDEST DUP2 EQ PUSH2 0xA57 JUMPI PUSH1 0x0 DUP1 REVERT JUMPDEST POP JUMP JUMPDEST PUSH1 0x0 DUP2 CALLDATALOAD SWAP1 POP PUSH2 0xA69 DUP2 PUSH2 0xA43 JUMP JUMPDEST SWAP3 SWAP2 POP POP JUMP JUMPDEST PUSH1 0x0 PUSH1 0x20 DUP3 DUP5 SUB SLT ISZERO PUSH2 0xA85 JUMPI PUSH2 0xA84 PUSH2 0xA0C JUMP JUMPDEST JUMPDEST PUSH1 0x0 PUSH2 0xA93 DUP5 DUP3 DUP6 ADD PUSH2 0xA5A JUMP JUMPDEST SWAP2 POP POP SWAP3 SWAP2 POP POP JUMP JUMPDEST PUSH1 0x0 DUP2 ISZERO ISZERO SWAP1 POP SWAP2 SWAP1 POP JUMP JUMPDEST PUSH2 0xAB1 DUP2 PUSH2 0xA9C JUMP JUMPDEST DUP3 MSTORE POP POP JUMP JUMPDEST PUSH1 0x0 PUSH1 0x20 DUP3 ADD SWAP1 POP PUSH2 0xACC PUSH1 0x0 DUP4 ADD DUP5 PUSH2 0xAA8 JUMP JUMPDEST SWAP3 SWAP2 POP POP JUMP JUMPDEST PUSH1 0x0 DUP2 MLOAD SWAP1 POP SWAP2 SWAP1 POP JUMP JUMPDEST PUSH1 0x0 DUP3 DUP3 MSTORE PUSH1 0x20 DUP3 ADD SWAP1 POP SWAP3 SWAP2 POP POP JUMP JUMPDEST PUSH1 0x0 DUP2 SWAP1 POP PUSH1 0x20 DUP3 ADD SWAP1 POP SWAP2 SWAP1 POP JUMP JUMPDEST PUSH2 0xB07 DUP2 PUSH2 0xA31 JUMP JUMPDEST DUP3 MSTORE POP POP JUMP JUMPDEST PUSH1 0x0 PUSH2 0xB19 DUP4 DUP4 PUSH2 0xAFE JUMP JUMPDEST PUSH1 0x20 DUP4 ADD SWAP1 POP SWAP3 SWAP2 POP POP JUMP JUMPDEST PUSH1 0x0 PUSH1 0x20 DUP3 ADD SWAP1 POP SWAP2 SWAP1 POP JUMP JUMPDEST PUSH1 0x0 PUSH2 0xB3D DUP3 PUSH2 0xAD2 JUMP JUMPDEST PUSH2 0xB47 DUP2 DUP6 PUSH2 0xADD JUMP JUMPDEST SWAP4 POP PUSH2 0xB52 DUP4 PUSH2 0xAEE JUMP JUMPDEST DUP1 PUSH1 0x0 JUMPDEST DUP4 DUP2 LT ISZERO PUSH2 0xB83 JUMPI DUP2 MLOAD PUSH2 0xB6A DUP9 DUP3 PUSH2 0xB0D JUMP JUMPDEST SWAP8 POP PUSH2 0xB75 DUP4 PUSH2 0xB25 JUMP JUMPDEST SWAP3 POP POP PUSH1 0x1 DUP2 ADD SWAP1 POP PUSH2 0xB56 JUMP JUMPDEST POP DUP6 SWAP4 POP POP POP POP SWAP3 SWAP2 POP POP JUMP JUMPDEST PUSH1 0x0 PUSH1 0x20 DUP3 ADD SWAP1 POP DUP2 DUP2 SUB PUSH1 0x0 DUP4 ADD MSTORE PUSH2 0xBAA DUP2 DUP5 PUSH2 0xB32 JUMP JUMPDEST SWAP1 POP SWAP3 SWAP2 POP POP JUMP JUMPDEST PUSH2 0xBBB DUP2 PUSH2 0xA31 JUMP JUMPDEST DUP3 MSTORE POP POP JUMP JUMPDEST PUSH1 0x0 PUSH1 0x20 DUP3 ADD SWAP1 POP PUSH2 0xBD6 PUSH1 0x0 DUP4 ADD DUP5 PUSH2 0xBB2 JUMP JUMPDEST SWAP3 SWAP2 POP POP JUMP JUMPDEST PUSH1 0x0 DUP3 DUP3 MSTORE PUSH1 0x20 DUP3 ADD SWAP1 POP SWAP3 SWAP2 POP POP JUMP JUMPDEST PUSH32 0x4F776E61626C653A2063616C6C6572206973206E6F7420746865206F776E6572 PUSH1 0x0 DUP3 ADD MSTORE POP JUMP JUMPDEST PUSH1 0x0 PUSH2 0xC23 PUSH1 0x20 DUP4 PUSH2 0xBDC JUMP JUMPDEST SWAP2 POP PUSH2 0xC2E DUP3 PUSH2 0xBED JUMP JUMPDEST PUSH1 0x20 DUP3 ADD SWAP1 POP SWAP2 SWAP1 POP JUMP JUMPDEST PUSH1 0x0 PUSH1 0x20 DUP3 ADD SWAP1 POP DUP2 DUP2 SUB PUSH1 0x0 DUP4 ADD MSTORE PUSH2 0xC52 DUP2 PUSH2 0xC16 JUMP JUMPDEST SWAP1 POP SWAP2 SWAP1 POP JUMP JUMPDEST PUSH32 0x594F555F43414E5F4E4F545F524F4D4F56455F544849535F4144445245535300 PUSH1 0x0 DUP3 ADD MSTORE POP JUMP JUMPDEST PUSH1 0x0 PUSH2 0xC8F PUSH1 0x1F DUP4 PUSH2 0xBDC JUMP JUMPDEST SWAP2 POP PUSH2 0xC9A DUP3 PUSH2 0xC59 JUMP JUMPDEST PUSH1 0x20 DUP3 ADD SWAP1 POP SWAP2 SWAP1 POP JUMP JUMPDEST PUSH1 0x0 PUSH1 0x20 DUP3 ADD SWAP1 POP DUP2 DUP2 SUB PUSH1 0x0 DUP4 ADD MSTORE PUSH2 0xCBE DUP2 PUSH2 0xC82 JUMP JUMPDEST SWAP1 POP SWAP2 SWAP1 POP JUMP JUMPDEST PUSH32 0x4F776E61626C653A206E6577206F776E657220697320746865207A65726F2061 PUSH1 0x0 DUP3 ADD MSTORE PUSH32 0x6464726573730000000000000000000000000000000000000000000000000000 PUSH1 0x20 DUP3 ADD MSTORE POP JUMP JUMPDEST PUSH1 0x0 PUSH2 0xD21 PUSH1 0x26 DUP4 PUSH2 0xBDC JUMP JUMPDEST SWAP2 POP PUSH2 0xD2C DUP3 PUSH2 0xCC5 JUMP JUMPDEST PUSH1 0x40 DUP3 ADD SWAP1 POP SWAP2 SWAP1 POP JUMP JUMPDEST PUSH1 0x0 PUSH1 0x20 DUP3 ADD SWAP1 POP DUP2 DUP2 SUB PUSH1 0x0 DUP4 ADD MSTORE PUSH2 0xD50 DUP2 PUSH2 0xD14 JUMP JUMPDEST SWAP1 POP SWAP2 SWAP1 POP JUMP JUMPDEST PUSH32 0x524F4C455F414C52454144595F45584953545300000000000000000000000000 PUSH1 0x0 DUP3 ADD MSTORE POP JUMP JUMPDEST PUSH1 0x0 PUSH2 0xD8D PUSH1 0x13 DUP4 PUSH2 0xBDC JUMP JUMPDEST SWAP2 POP PUSH2 0xD98 DUP3 PUSH2 0xD57 JUMP JUMPDEST PUSH1 0x20 DUP3 ADD SWAP1 POP SWAP2 SWAP1 POP JUMP JUMPDEST PUSH1 0x0 PUSH1 0x20 DUP3 ADD SWAP1 POP DUP2 DUP2 SUB PUSH1 0x0 DUP4 ADD MSTORE PUSH2 0xDBC DUP2 PUSH2 0xD80 JUMP JUMPDEST SWAP1 POP SWAP2 SWAP1 POP JUMP JUMPDEST PUSH32 0x4E487B7100000000000000000000000000000000000000000000000000000000 PUSH1 0x0 MSTORE PUSH1 0x32 PUSH1 0x4 MSTORE PUSH1 0x24 PUSH1 0x0 REVERT JUMPDEST PUSH32 0x4E487B7100000000000000000000000000000000000000000000000000000000 PUSH1 0x0 MSTORE PUSH1 0x11 PUSH1 0x4 MSTORE PUSH1 0x24 PUSH1 0x0 REVERT JUMPDEST PUSH1 0x0 DUP2 SWAP1 POP SWAP2 SWAP1 POP JUMP JUMPDEST PUSH1 0x0 PUSH2 0xE36 DUP3 PUSH2 0xE21 JUMP JUMPDEST SWAP2 POP PUSH32 0xFFFFFFFFFFFFFFFFFFFFFFFFFFFFFFFFFFFFFFFFFFFFFFFFFFFFFFFFFFFFFFFF DUP3 EQ ISZERO PUSH2 0xE69 JUMPI PUSH2 0xE68 PUSH2 0xDF2 JUMP JUMPDEST JUMPDEST PUSH1 0x1 DUP3 ADD SWAP1 POP SWAP2 SWAP1 POP JUMP JUMPDEST PUSH1 0x0 PUSH2 0xE7F DUP3 PUSH2 0xE21 JUMP JUMPDEST SWAP2 POP PUSH2 0xE8A DUP4 PUSH2 0xE21 JUMP JUMPDEST SWAP3 POP DUP3 DUP3 LT ISZERO PUSH2 0xE9D JUMPI PUSH2 0xE9C PUSH2 0xDF2 JUMP JUMPDEST JUMPDEST DUP3 DUP3 SUB SWAP1 POP SWAP3 SWAP2 POP POP JUMP JUMPDEST PUSH32 0x4E487B7100000000000000000000000000000000000000000000000000000000 PUSH1 0x0 MSTORE PUSH1 0x31 PUSH1 0x4 MSTORE PUSH1 0x24 PUSH1 0x0 REVERT INVALID LOG2 PUSH5 0x6970667358 0x22 SLT KECCAK256 DUP12 0xDC 0xED 0xA9 0x28 DIV SWAP16 MSTORE8 PUSH14 0xAC704741DBDC3B26B4C67F2CC7A DUP3 CALLCODE 0xDA PUSH25 0xB23B2D07D764736F6C63430008080033000000000000000000 "
        },
        "methodIdentifiers": {
          "addFactory(address)": "29ce1ec5",
          "getFactory()": "88cc58e4",
          "isFactory(address)": "0f04ba67",
          "owner()": "8da5cb5b",
          "removeFactory(address)": "4b37c73f",
          "removeFactorySelf(address)": "84480510",
          "renounceOwnership()": "715018a6",
          "transferOwnership(address)": "f2fde38b"
        }
      }
    }
  }
}