{
  "contracts/Supplychain.sol": {
    "Supplychain": {
      "abi": [
        {
          "anonymous": false,
          "inputs": [
            {
              "indexed": false,
              "internalType": "address",
              "name": "_address",
              "type": "address"
            }
          ],
          "name": "AddCustomer",
          "type": "event"
        },
        {
          "anonymous": false,
          "inputs": [
            {
              "indexed": false,
              "internalType": "address",
              "name": "_address",
              "type": "address"
            }
          ],
          "name": "AddDistributor",
          "type": "event"
        },
        {
          "anonymous": false,
          "inputs": [
            {
              "indexed": false,
              "internalType": "address",
              "name": "_address",
              "type": "address"
            }
          ],
          "name": "AddFactory",
          "type": "event"
        },
        {
          "anonymous": false,
          "inputs": [
            {
              "indexed": false,
              "internalType": "address",
              "name": "_address",
              "type": "address"
            }
          ],
          "name": "AddISO",
          "type": "event"
        },
        {
          "anonymous": false,
          "inputs": [
            {
              "indexed": false,
              "internalType": "address",
              "name": "_address",
              "type": "address"
            }
          ],
          "name": "AddRetailer",
          "type": "event"
        },
        {
          "anonymous": false,
          "inputs": [
            {
              "indexed": false,
              "internalType": "address",
              "name": "_address",
              "type": "address"
            }
          ],
          "name": "AddWarehouse",
          "type": "event"
        },
        {
          "anonymous": false,
          "inputs": [
            {
              "indexed": true,
              "internalType": "address",
              "name": "previousOwner",
              "type": "address"
            },
            {
              "indexed": true,
              "internalType": "address",
              "name": "newOwner",
              "type": "address"
            }
          ],
          "name": "OwnershipTransferred",
          "type": "event"
        },
        {
          "anonymous": false,
          "inputs": [
            {
              "indexed": false,
              "internalType": "address",
              "name": "_address",
              "type": "address"
            }
          ],
          "name": "RemoveCustomer",
          "type": "event"
        },
        {
          "anonymous": false,
          "inputs": [
            {
              "indexed": false,
              "internalType": "address",
              "name": "_address",
              "type": "address"
            }
          ],
          "name": "RemoveDistributor",
          "type": "event"
        },
        {
          "anonymous": false,
          "inputs": [
            {
              "indexed": false,
              "internalType": "address",
              "name": "_address",
              "type": "address"
            }
          ],
          "name": "RemoveFactory",
          "type": "event"
        },
        {
          "anonymous": false,
          "inputs": [
            {
              "indexed": false,
              "internalType": "address",
              "name": "_address",
              "type": "address"
            }
          ],
          "name": "RemoveISO",
          "type": "event"
        },
        {
          "anonymous": false,
          "inputs": [
            {
              "indexed": false,
              "internalType": "address",
              "name": "_address",
              "type": "address"
            }
          ],
          "name": "RemoveRetailer",
          "type": "event"
        },
        {
          "anonymous": false,
          "inputs": [
            {
              "indexed": false,
              "internalType": "address",
              "name": "_address",
              "type": "address"
            }
          ],
          "name": "RemoveWarehouse",
          "type": "event"
        },
        {
          "inputs": [
            {
              "internalType": "address",
              "name": "_address",
              "type": "address"
            }
          ],
          "name": "addCustomer",
          "outputs": [],
          "stateMutability": "nonpayable",
          "type": "function"
        },
        {
          "inputs": [
            {
              "internalType": "address",
              "name": "_address",
              "type": "address"
            }
          ],
          "name": "addDistributor",
          "outputs": [],
          "stateMutability": "nonpayable",
          "type": "function"
        },
        {
          "inputs": [
            {
              "internalType": "address",
              "name": "_address",
              "type": "address"
            }
          ],
          "name": "addFactory",
          "outputs": [],
          "stateMutability": "nonpayable",
          "type": "function"
        },
        {
          "inputs": [
            {
              "internalType": "address",
              "name": "_address",
              "type": "address"
            }
          ],
          "name": "addISO",
          "outputs": [],
          "stateMutability": "nonpayable",
          "type": "function"
        },
        {
          "inputs": [
            {
              "internalType": "address",
              "name": "_address",
              "type": "address"
            }
          ],
          "name": "addRetailer",
          "outputs": [],
          "stateMutability": "nonpayable",
          "type": "function"
        },
        {
          "inputs": [
            {
              "internalType": "address",
              "name": "_address",
              "type": "address"
            }
          ],
          "name": "addWarehouse",
          "outputs": [],
          "stateMutability": "nonpayable",
          "type": "function"
        },
        {
          "inputs": [],
          "name": "getCustomer",
          "outputs": [
            {
              "internalType": "address[]",
              "name": "",
              "type": "address[]"
            }
          ],
          "stateMutability": "view",
          "type": "function"
        },
        {
          "inputs": [],
          "name": "getDistributor",
          "outputs": [
            {
              "internalType": "address[]",
              "name": "",
              "type": "address[]"
            }
          ],
          "stateMutability": "view",
          "type": "function"
        },
        {
          "inputs": [],
          "name": "getFactory",
          "outputs": [
            {
              "internalType": "address[]",
              "name": "",
              "type": "address[]"
            }
          ],
          "stateMutability": "view",
          "type": "function"
        },
        {
          "inputs": [],
          "name": "getISO",
          "outputs": [
            {
              "internalType": "address[]",
              "name": "",
              "type": "address[]"
            }
          ],
          "stateMutability": "view",
          "type": "function"
        },
        {
          "inputs": [],
          "name": "getRetailer",
          "outputs": [
            {
              "internalType": "address[]",
              "name": "",
              "type": "address[]"
            }
          ],
          "stateMutability": "view",
          "type": "function"
        },
        {
          "inputs": [],
          "name": "getWarehouse",
          "outputs": [
            {
              "internalType": "address[]",
              "name": "",
              "type": "address[]"
            }
          ],
          "stateMutability": "view",
          "type": "function"
        },
        {
          "inputs": [
            {
              "internalType": "address",
              "name": "_address",
              "type": "address"
            }
          ],
          "name": "isCustomer",
          "outputs": [
            {
              "internalType": "bool",
              "name": "",
              "type": "bool"
            }
          ],
          "stateMutability": "view",
          "type": "function"
        },
        {
          "inputs": [
            {
              "internalType": "address",
              "name": "_address",
              "type": "address"
            }
          ],
          "name": "isDistributor",
          "outputs": [
            {
              "internalType": "bool",
              "name": "",
              "type": "bool"
            }
          ],
          "stateMutability": "view",
          "type": "function"
        },
        {
          "inputs": [
            {
              "internalType": "address",
              "name": "_address",
              "type": "address"
            }
          ],
          "name": "isFactory",
          "outputs": [
            {
              "internalType": "bool",
              "name": "",
              "type": "bool"
            }
          ],
          "stateMutability": "view",
          "type": "function"
        },
        {
          "inputs": [
            {
              "internalType": "address",
              "name": "_address",
              "type": "address"
            }
          ],
          "name": "isISO",
          "outputs": [
            {
              "internalType": "bool",
              "name": "",
              "type": "bool"
            }
          ],
          "stateMutability": "view",
          "type": "function"
        },
        {
          "inputs": [
            {
              "internalType": "address",
              "name": "_address",
              "type": "address"
            }
          ],
          "name": "isRetailer",
          "outputs": [
            {
              "internalType": "bool",
              "name": "",
              "type": "bool"
            }
          ],
          "stateMutability": "view",
          "type": "function"
        },
        {
          "inputs": [
            {
              "internalType": "address",
              "name": "_address",
              "type": "address"
            }
          ],
          "name": "isWarehouse",
          "outputs": [
            {
              "internalType": "bool",
              "name": "",
              "type": "bool"
            }
          ],
          "stateMutability": "view",
          "type": "function"
        },
        {
          "inputs": [],
          "name": "itemCounter",
          "outputs": [
            {
              "internalType": "uint256",
              "name": "_value",
              "type": "uint256"
            }
          ],
          "stateMutability": "view",
          "type": "function"
        },
        {
          "inputs": [],
          "name": "owner",
          "outputs": [
            {
              "internalType": "address",
              "name": "",
              "type": "address"
            }
          ],
          "stateMutability": "view",
          "type": "function"
        },
        {
          "inputs": [],
          "name": "productCode",
          "outputs": [
            {
              "internalType": "uint256",
              "name": "_value",
              "type": "uint256"
            }
          ],
          "stateMutability": "view",
          "type": "function"
        },
        {
          "inputs": [
            {
              "internalType": "address",
              "name": "_address",
              "type": "address"
            }
          ],
          "name": "removeCustomer",
          "outputs": [],
          "stateMutability": "nonpayable",
          "type": "function"
        },
        {
          "inputs": [
            {
              "internalType": "address",
              "name": "_address",
              "type": "address"
            }
          ],
          "name": "removeCustomerSelf",
          "outputs": [],
          "stateMutability": "nonpayable",
          "type": "function"
        },
        {
          "inputs": [
            {
              "internalType": "address",
              "name": "_address",
              "type": "address"
            }
          ],
          "name": "removeDistributor",
          "outputs": [],
          "stateMutability": "nonpayable",
          "type": "function"
        },
        {
          "inputs": [
            {
              "internalType": "address",
              "name": "_address",
              "type": "address"
            }
          ],
          "name": "removeDistributorSelf",
          "outputs": [],
          "stateMutability": "nonpayable",
          "type": "function"
        },
        {
          "inputs": [
            {
              "internalType": "address",
              "name": "_address",
              "type": "address"
            }
          ],
          "name": "removeFactory",
          "outputs": [],
          "stateMutability": "nonpayable",
          "type": "function"
        },
        {
          "inputs": [
            {
              "internalType": "address",
              "name": "_address",
              "type": "address"
            }
          ],
          "name": "removeFactorySelf",
          "outputs": [],
          "stateMutability": "nonpayable",
          "type": "function"
        },
        {
          "inputs": [
            {
              "internalType": "address",
              "name": "_address",
              "type": "address"
            }
          ],
          "name": "removeISO",
          "outputs": [],
          "stateMutability": "nonpayable",
          "type": "function"
        },
        {
          "inputs": [
            {
              "internalType": "address",
              "name": "_address",
              "type": "address"
            }
          ],
          "name": "removeISOSelf",
          "outputs": [],
          "stateMutability": "nonpayable",
          "type": "function"
        },
        {
          "inputs": [
            {
              "internalType": "address",
              "name": "_address",
              "type": "address"
            }
          ],
          "name": "removeRetailer",
          "outputs": [],
          "stateMutability": "nonpayable",
          "type": "function"
        },
        {
          "inputs": [
            {
              "internalType": "address",
              "name": "_address",
              "type": "address"
            }
          ],
          "name": "removeRetailerSelf",
          "outputs": [],
          "stateMutability": "nonpayable",
          "type": "function"
        },
        {
          "inputs": [
            {
              "internalType": "address",
              "name": "_address",
              "type": "address"
            }
          ],
          "name": "removeSelfWarehouse",
          "outputs": [],
          "stateMutability": "nonpayable",
          "type": "function"
        },
        {
          "inputs": [
            {
              "internalType": "address",
              "name": "_address",
              "type": "address"
            }
          ],
          "name": "removeWarehouse",
          "outputs": [],
          "stateMutability": "nonpayable",
          "type": "function"
        },
        {
          "inputs": [],
          "name": "renounceOwnership",
          "outputs": [],
          "stateMutability": "nonpayable",
          "type": "function"
        },
        {
          "inputs": [
            {
              "internalType": "address",
              "name": "newOwner",
              "type": "address"
            }
          ],
          "name": "transferOwnership",
          "outputs": [],
          "stateMutability": "nonpayable",
          "type": "function"
        }
      ],
      "evm": {
        "bytecode": {
          "linkReferences": {},
          "object": "60806040523480156200001157600080fd5b5062000032620000266200009e60201b60201c565b620000a660201b60201c565b62000043336200016a60201b60201c565b62000054336200025060201b60201c565b62000065336200033660201b60201c565b62000076336200041c60201b60201c565b62000087336200050260201b60201c565b6200009833620005e860201b60201c565b62000a82565b600033905090565b60008060009054906101000a900473ffffffffffffffffffffffffffffffffffffffff169050816000806101000a81548173ffffffffffffffffffffffffffffffffffffffff021916908373ffffffffffffffffffffffffffffffffffffffff1602179055508173ffffffffffffffffffffffffffffffffffffffff168173ffffffffffffffffffffffffffffffffffffffff167f8be0079c531659141344cd1fd0a4f28419497f9722a3daafe3b4186f6b6457e060405160405180910390a35050565b6200017a6200009e60201b60201c565b73ffffffffffffffffffffffffffffffffffffffff16620001a0620006ce60201b60201c565b73ffffffffffffffffffffffffffffffffffffffff1614620001f9576040517f08c379a0000000000000000000000000000000000000000000000000000000008152600401620001f090620008d6565b60405180910390fd5b62000214816001620006f760201b620017171790919060201c565b7f364ee90eb63717b99192fdb951c7b1aa91a45bca11ac73ab40cfad762631fbce816040516200024591906200093d565b60405180910390a150565b620002606200009e60201b60201c565b73ffffffffffffffffffffffffffffffffffffffff1662000286620006ce60201b60201c565b73ffffffffffffffffffffffffffffffffffffffff1614620002df576040517f08c379a0000000000000000000000000000000000000000000000000000000008152600401620002d690620008d6565b60405180910390fd5b620002fa816002620006f760201b620017171790919060201c565b7f5a8fb443d09cf1426e80f80dd509757d71d4687674ab4adad906c5e2b6e1e62c816040516200032b91906200093d565b60405180910390a150565b620003466200009e60201b60201c565b73ffffffffffffffffffffffffffffffffffffffff166200036c620006ce60201b60201c565b73ffffffffffffffffffffffffffffffffffffffff1614620003c5576040517f08c379a0000000000000000000000000000000000000000000000000000000008152600401620003bc90620008d6565b60405180910390fd5b620003e0816003620006f760201b620017171790919060201c565b7feaf4826d3cad06f851d4fdd9cdf878a0c6d82ce9a07f0c1955beac07c1e23692816040516200041191906200093d565b60405180910390a150565b6200042c6200009e60201b60201c565b73ffffffffffffffffffffffffffffffffffffffff1662000452620006ce60201b60201c565b73ffffffffffffffffffffffffffffffffffffffff1614620004ab576040517f08c379a0000000000000000000000000000000000000000000000000000000008152600401620004a290620008d6565b60405180910390fd5b620004c6816004620006f760201b620017171790919060201c565b7f3afd547f7eb357741de51229846ae795cb06449e4b4032eb34a7cc0a751e25c181604051620004f791906200093d565b60405180910390a150565b620005126200009e60201b60201c565b73ffffffffffffffffffffffffffffffffffffffff1662000538620006ce60201b60201c565b73ffffffffffffffffffffffffffffffffffffffff161462000591576040517f08c379a00000000000000000000000000000000000000000000000000000000081526004016200058890620008d6565b60405180910390fd5b620005ac816005620006f760201b620017171790919060201c565b7f0eea60f9e1851b51feed56c339be177ea715591923622a0effe46dbb8885efa681604051620005dd91906200093d565b60405180910390a150565b620005f86200009e60201b60201c565b73ffffffffffffffffffffffffffffffffffffffff166200061e620006ce60201b60201c565b73ffffffffffffffffffffffffffffffffffffffff161462000677576040517f08c379a00000000000000000000000000000000000000000000000000000000081526004016200066e90620008d6565b60405180910390fd5b62000692816006620006f760201b620017171790919060201c565b7f23b2415a50efd127e694ba174e400d457ad65c58752e171b6d17f3f5daa26fdb81604051620006c391906200093d565b60405180910390a150565b60008060009054906101000a900473ffffffffffffffffffffffffffffffffffffffff16905090565b620007098282620007b560201b60201c565b156200074c576040517f08c379a00000000000000000000000000000000000000000000000000000000081526004016200074390620009aa565b60405180910390fd5b81600001819080600181540180825580915050600190039060005260206000200160009091909190916101000a81548173ffffffffffffffffffffffffffffffffffffffff021916908373ffffffffffffffffffffffffffffffffffffffff1602179055505050565b6000808360000180549050905060005b8181101562000868578373ffffffffffffffffffffffffffffffffffffffff16856000018281548110620007fe57620007fd620009cc565b5b9060005260206000200160009054906101000a900473ffffffffffffffffffffffffffffffffffffffff1673ffffffffffffffffffffffffffffffffffffffff16141562000852576001925050506200086f565b80806200085f9062000a34565b915050620007c5565b5060009150505b92915050565b600082825260208201905092915050565b7f4f776e61626c653a2063616c6c6572206973206e6f7420746865206f776e6572600082015250565b6000620008be60208362000875565b9150620008cb8262000886565b602082019050919050565b60006020820190508181036000830152620008f181620008af565b9050919050565b600073ffffffffffffffffffffffffffffffffffffffff82169050919050565b60006200092582620008f8565b9050919050565b620009378162000918565b82525050565b60006020820190506200095460008301846200092c565b92915050565b7f524f4c455f414c52454144595f45584953545300000000000000000000000000600082015250565b60006200099260138362000875565b91506200099f826200095a565b602082019050919050565b60006020820190508181036000830152620009c58162000983565b9050919050565b7f4e487b7100000000000000000000000000000000000000000000000000000000600052603260045260246000fd5b7f4e487b7100000000000000000000000000000000000000000000000000000000600052601160045260246000fd5b6000819050919050565b600062000a418262000a2a565b91507fffffffffffffffffffffffffffffffffffffffffffffffffffffffffffffffff82141562000a775762000a76620009fb565b5b600182019050919050565b6120b48062000a926000396000f3fe608060405234801561001057600080fd5b50600436106102115760003560e01c80637e90b61411610125578063ad973d74116100ad578063e3c1a5311161007c578063e3c1a531146105d4578063e7d0831d146105f0578063f2fde38b1461060c578063f46d039f14610628578063f80d1ff01461064457610211565b8063ad973d741461053a578063b17b330414610556578063bca4bd5014610586578063c6a63611146105b657610211565b806388cc58e4116100f457806388cc58e4146104965780638da5cb5b146104b45780638eb06ccf146104d25780638ec4f505146104ee5780638f0c86fa1461050a57610211565b80637e90b61414610426578063814f696e14610442578063844805101461045e5780638853ad751461047a57610211565b80635884965f116101a8578063650d993b11610177578063650d993b146103a85780636d6d00ed146103c657806370099ec8146103e4578063715018a6146104005780637250e2241461040a57610211565b80635884965f146103205780635bf279121461033e5780635da09b881461035a5780635eb4626f1461038a57610211565b806329ce1ec5116101e457806329ce1ec5146102b05780632a7ec29f146102cc5780634b37c73f146102e857806357c1f9e21461030457610211565b80630f04ba6714610216578063220fbbe9146102465780632885b9431461026257806328fd5e8314610280575b600080fd5b610230600480360381019061022b9190611bec565b610662565b60405161023d9190611c34565b60405180910390f35b610260600480360381019061025b9190611bec565b61067f565b005b61026a610749565b6040516102779190611d0d565b60405180910390f35b61029a60048036038101906102959190611bec565b61075a565b6040516102a79190611c34565b60405180910390f35b6102ca60048036038101906102c59190611bec565b610777565b005b6102e660048036038101906102e19190611bec565b610841565b005b61030260048036038101906102fd9190611bec565b6108fd565b005b61031e60048036038101906103199190611bec565b6109c7565b005b610328610a91565b6040516103359190611d0d565b60405180910390f35b61035860048036038101906103539190611bec565b610aa2565b005b610374600480360381019061036f9190611bec565b610b5e565b6040516103819190611c34565b60405180910390f35b610392610b7b565b60405161039f9190611d0d565b60405180910390f35b6103b0610b8c565b6040516103bd9190611d0d565b60405180910390f35b6103ce610b9d565b6040516103db9190611d48565b60405180910390f35b6103fe60048036038101906103f99190611bec565b610ba9565b005b610408610c73565b005b610424600480360381019061041f9190611bec565b610cfb565b005b610440600480360381019061043b9190611bec565b610dc5565b005b61045c60048036038101906104579190611bec565b610e81565b005b61047860048036038101906104739190611bec565b610f4b565b005b610494600480360381019061048f9190611bec565b611007565b005b61049e6110c3565b6040516104ab9190611d0d565b60405180910390f35b6104bc6110d4565b6040516104c99190611d72565b60405180910390f35b6104ec60048036038101906104e79190611bec565b6110fd565b005b61050860048036038101906105039190611bec565b6111c7565b005b610524600480360381019061051f9190611bec565b611291565b6040516105319190611c34565b60405180910390f35b610554600480360381019061054f9190611bec565b6112ae565b005b610570600480360381019061056b9190611bec565b611378565b60405161057d9190611c34565b60405180910390f35b6105a0600480360381019061059b9190611bec565b611395565b6040516105ad9190611c34565b60405180910390f35b6105be6113b2565b6040516105cb9190611d48565b60405180910390f35b6105ee60048036038101906105e99190611bec565b6113be565b005b61060a60048036038101906106059190611bec565b611488565b005b61062660048036038101906106219190611bec565b611544565b005b610642600480360381019061063d9190611bec565b61163c565b005b61064c611706565b6040516106599190611d0d565b60405180910390f35b60006106788260026117ca90919063ffffffff16565b9050919050565b610687611881565b73ffffffffffffffffffffffffffffffffffffffff166106a56110d4565b73ffffffffffffffffffffffffffffffffffffffff16146106fb576040517f08c379a00000000000000000000000000000000000000000000000000000000081526004016106f290611dea565b60405180910390fd5b61070f81600361171790919063ffffffff16565b7feaf4826d3cad06f851d4fdd9cdf878a0c6d82ce9a07f0c1955beac07c1e236928160405161073e9190611d72565b60405180910390a150565b60606107556001611889565b905090565b60006107708260066117ca90919063ffffffff16565b9050919050565b61077f611881565b73ffffffffffffffffffffffffffffffffffffffff1661079d6110d4565b73ffffffffffffffffffffffffffffffffffffffff16146107f3576040517f08c379a00000000000000000000000000000000000000000000000000000000081526004016107ea90611dea565b60405180910390fd5b61080781600261171790919063ffffffff16565b7f5a8fb443d09cf1426e80f80dd509757d71d4687674ab4adad906c5e2b6e1e62c816040516108369190611d72565b60405180910390a150565b8073ffffffffffffffffffffffffffffffffffffffff163373ffffffffffffffffffffffffffffffffffffffff16146108af576040517f08c379a00000000000000000000000000000000000000000000000000000000081526004016108a690611e56565b60405180910390fd5b6108c381600661191b90919063ffffffff16565b7f4709990004724f283154297c090b8420d74dcbf9ffcd6bc50294e7350c7cb4fc816040516108f29190611d72565b60405180910390a150565b610905611881565b73ffffffffffffffffffffffffffffffffffffffff166109236110d4565b73ffffffffffffffffffffffffffffffffffffffff1614610979576040517f08c379a000000000000000000000000000000000000000000000000000000000815260040161097090611dea565b60405180910390fd5b61098d81600261191b90919063ffffffff16565b7f3d4e7057f9f992c8d86344002642adf5d5cd33816b302134e7ef5e0f045a6e78816040516109bc9190611d72565b60405180910390a150565b6109cf611881565b73ffffffffffffffffffffffffffffffffffffffff166109ed6110d4565b73ffffffffffffffffffffffffffffffffffffffff1614610a43576040517f08c379a0000000000000000000000000000000000000000000000000000000008152600401610a3a90611dea565b60405180910390fd5b610a5781600461191b90919063ffffffff16565b7f43dd2f8ce4e5873e618ffabcae9856729ea5811dbc5e1c9be4365fcf7b7cf70381604051610a869190611d72565b60405180910390a150565b6060610a9d6004611889565b905090565b8073ffffffffffffffffffffffffffffffffffffffff163373ffffffffffffffffffffffffffffffffffffffff1614610b10576040517f08c379a0000000000000000000000000000000000000000000000000000000008152600401610b0790611e56565b60405180910390fd5b610b2481600461191b90919063ffffffff16565b7f43dd2f8ce4e5873e618ffabcae9856729ea5811dbc5e1c9be4365fcf7b7cf70381604051610b539190611d72565b60405180910390a150565b6000610b748260056117ca90919063ffffffff16565b9050919050565b6060610b876003611889565b905090565b6060610b986006611889565b905090565b60078060000154905081565b610bb1611881565b73ffffffffffffffffffffffffffffffffffffffff16610bcf6110d4565b73ffffffffffffffffffffffffffffffffffffffff1614610c25576040517f08c379a0000000000000000000000000000000000000000000000000000000008152600401610c1c90611dea565b60405180910390fd5b610c3981600561191b90919063ffffffff16565b7f200c3f073f217cf07dee57ee6e42c29e5fa6937f536b65c9d1e06be1f9c83dc181604051610c689190611d72565b60405180910390a150565b610c7b611881565b73ffffffffffffffffffffffffffffffffffffffff16610c996110d4565b73ffffffffffffffffffffffffffffffffffffffff1614610cef576040517f08c379a0000000000000000000000000000000000000000000000000000000008152600401610ce690611dea565b60405180910390fd5b610cf96000611ac5565b565b610d03611881565b73ffffffffffffffffffffffffffffffffffffffff16610d216110d4565b73ffffffffffffffffffffffffffffffffffffffff1614610d77576040517f08c379a0000000000000000000000000000000000000000000000000000000008152600401610d6e90611dea565b60405180910390fd5b610d8b81600461171790919063ffffffff16565b7f3afd547f7eb357741de51229846ae795cb06449e4b4032eb34a7cc0a751e25c181604051610dba9190611d72565b60405180910390a150565b8073ffffffffffffffffffffffffffffffffffffffff163373ffffffffffffffffffffffffffffffffffffffff1614610e33576040517f08c379a0000000000000000000000000000000000000000000000000000000008152600401610e2a90611e56565b60405180910390fd5b610e4781600361191b90919063ffffffff16565b7fe81ce8e22413eff3de3a7b6cd7aecf28ae2d00e44e5e48cd32ca949c7be314f781604051610e769190611d72565b60405180910390a150565b610e89611881565b73ffffffffffffffffffffffffffffffffffffffff16610ea76110d4565b73ffffffffffffffffffffffffffffffffffffffff1614610efd576040517f08c379a0000000000000000000000000000000000000000000000000000000008152600401610ef490611dea565b60405180910390fd5b610f1181600161171790919063ffffffff16565b7f364ee90eb63717b99192fdb951c7b1aa91a45bca11ac73ab40cfad762631fbce81604051610f409190611d72565b60405180910390a150565b8073ffffffffffffffffffffffffffffffffffffffff163373ffffffffffffffffffffffffffffffffffffffff1614610fb9576040517f08c379a0000000000000000000000000000000000000000000000000000000008152600401610fb090611e56565b60405180910390fd5b610fcd81600261191b90919063ffffffff16565b7f3d4e7057f9f992c8d86344002642adf5d5cd33816b302134e7ef5e0f045a6e7881604051610ffc9190611d72565b60405180910390a150565b8073ffffffffffffffffffffffffffffffffffffffff163373ffffffffffffffffffffffffffffffffffffffff1614611075576040517f08c379a000000000000000000000000000000000000000000000000000000000815260040161106c90611e56565b60405180910390fd5b61108981600161191b90919063ffffffff16565b7f9cfe362d8a536c3b63d391e311186b7f259fdd498eecf5d32626fe9b95058a7d816040516110b89190611d72565b60405180910390a150565b60606110cf6002611889565b905090565b60008060009054906101000a900473ffffffffffffffffffffffffffffffffffffffff16905090565b611105611881565b73ffffffffffffffffffffffffffffffffffffffff166111236110d4565b73ffffffffffffffffffffffffffffffffffffffff1614611179576040517f08c379a000000000000000000000000000000000000000000000000000000000815260040161117090611dea565b60405180910390fd5b61118d81600661191b90919063ffffffff16565b7f4709990004724f283154297c090b8420d74dcbf9ffcd6bc50294e7350c7cb4fc816040516111bc9190611d72565b60405180910390a150565b6111cf611881565b73ffffffffffffffffffffffffffffffffffffffff166111ed6110d4565b73ffffffffffffffffffffffffffffffffffffffff1614611243576040517f08c379a000000000000000000000000000000000000000000000000000000000815260040161123a90611dea565b60405180910390fd5b61125781600561171790919063ffffffff16565b7f0eea60f9e1851b51feed56c339be177ea715591923622a0effe46dbb8885efa6816040516112869190611d72565b60405180910390a150565b60006112a78260046117ca90919063ffffffff16565b9050919050565b6112b6611881565b73ffffffffffffffffffffffffffffffffffffffff166112d46110d4565b73ffffffffffffffffffffffffffffffffffffffff161461132a576040517f08c379a000000000000000000000000000000000000000000000000000000000815260040161132190611dea565b60405180910390fd5b61133e81600661171790919063ffffffff16565b7f23b2415a50efd127e694ba174e400d457ad65c58752e171b6d17f3f5daa26fdb8160405161136d9190611d72565b60405180910390a150565b600061138e8260036117ca90919063ffffffff16565b9050919050565b60006113ab8260016117ca90919063ffffffff16565b9050919050565b60088060000154905081565b6113c6611881565b73ffffffffffffffffffffffffffffffffffffffff166113e46110d4565b73ffffffffffffffffffffffffffffffffffffffff161461143a576040517f08c379a000000000000000000000000000000000000000000000000000000000815260040161143190611dea565b60405180910390fd5b61144e81600161191b90919063ffffffff16565b7f9cfe362d8a536c3b63d391e311186b7f259fdd498eecf5d32626fe9b95058a7d8160405161147d9190611d72565b60405180910390a150565b8073ffffffffffffffffffffffffffffffffffffffff163373ffffffffffffffffffffffffffffffffffffffff16146114f6576040517f08c379a00000000000000000000000000000000000000000000000000000000081526004016114ed90611e56565b60405180910390fd5b61150a81600561191b90919063ffffffff16565b7f200c3f073f217cf07dee57ee6e42c29e5fa6937f536b65c9d1e06be1f9c83dc1816040516115399190611d72565b60405180910390a150565b61154c611881565b73ffffffffffffffffffffffffffffffffffffffff1661156a6110d4565b73ffffffffffffffffffffffffffffffffffffffff16146115c0576040517f08c379a00000000000000000000000000000000000000000000000000000000081526004016115b790611dea565b60405180910390fd5b600073ffffffffffffffffffffffffffffffffffffffff168173ffffffffffffffffffffffffffffffffffffffff161415611630576040517f08c379a000000000000000000000000000000000000000000000000000000000815260040161162790611ee8565b60405180910390fd5b61163981611ac5565b50565b611644611881565b73ffffffffffffffffffffffffffffffffffffffff166116626110d4565b73ffffffffffffffffffffffffffffffffffffffff16146116b8576040517f08c379a00000000000000000000000000000000000000000000000000000000081526004016116af90611dea565b60405180910390fd5b6116cc81600361191b90919063ffffffff16565b7fe81ce8e22413eff3de3a7b6cd7aecf28ae2d00e44e5e48cd32ca949c7be314f7816040516116fb9190611d72565b60405180910390a150565b60606117126005611889565b905090565b61172182826117ca565b15611761576040517f08c379a000000000000000000000000000000000000000000000000000000000815260040161175890611f54565b60405180910390fd5b81600001819080600181540180825580915050600190039060005260206000200160009091909190916101000a81548173ffffffffffffffffffffffffffffffffffffffff021916908373ffffffffffffffffffffffffffffffffffffffff1602179055505050565b6000808360000180549050905060005b81811015611874578373ffffffffffffffffffffffffffffffffffffffff1685600001828154811061180f5761180e611f74565b5b9060005260206000200160009054906101000a900473ffffffffffffffffffffffffffffffffffffffff1673ffffffffffffffffffffffffffffffffffffffff1614156118615760019250505061187b565b808061186c90611fd2565b9150506117da565b5060009150505b92915050565b600033905090565b60608160000180548060200260200160405190810160405280929190818152602001828054801561190f57602002820191906000526020600020905b8160009054906101000a900473ffffffffffffffffffffffffffffffffffffffff1673ffffffffffffffffffffffffffffffffffffffff16815260200190600101908083116118c5575b50505050509050919050565b600082600001805490509050600080600090505b82811015611a755781156119e95784600001818154811061195357611952611f74565b5b9060005260206000200160009054906101000a900473ffffffffffffffffffffffffffffffffffffffff168560000160018361198f919061201b565b815481106119a05761199f611f74565b5b9060005260206000200160006101000a81548173ffffffffffffffffffffffffffffffffffffffff021916908373ffffffffffffffffffffffffffffffffffffffff1602179055505b8373ffffffffffffffffffffffffffffffffffffffff16856000018281548110611a1657611a15611f74565b5b9060005260206000200160009054906101000a900473ffffffffffffffffffffffffffffffffffffffff1673ffffffffffffffffffffffffffffffffffffffff161415611a6257600191505b8080611a6d90611fd2565b91505061192f565b5083600001805480611a8a57611a8961204f565b5b6001900381819060005260206000200160006101000a81549073ffffffffffffffffffffffffffffffffffffffff0219169055905550505050565b60008060009054906101000a900473ffffffffffffffffffffffffffffffffffffffff169050816000806101000a81548173ffffffffffffffffffffffffffffffffffffffff021916908373ffffffffffffffffffffffffffffffffffffffff1602179055508173ffffffffffffffffffffffffffffffffffffffff168173ffffffffffffffffffffffffffffffffffffffff167f8be0079c531659141344cd1fd0a4f28419497f9722a3daafe3b4186f6b6457e060405160405180910390a35050565b600080fd5b600073ffffffffffffffffffffffffffffffffffffffff82169050919050565b6000611bb982611b8e565b9050919050565b611bc981611bae565b8114611bd457600080fd5b50565b600081359050611be681611bc0565b92915050565b600060208284031215611c0257611c01611b89565b5b6000611c1084828501611bd7565b91505092915050565b60008115159050919050565b611c2e81611c19565b82525050565b6000602082019050611c496000830184611c25565b92915050565b600081519050919050565b600082825260208201905092915050565b6000819050602082019050919050565b611c8481611bae565b82525050565b6000611c968383611c7b565b60208301905092915050565b6000602082019050919050565b6000611cba82611c4f565b611cc48185611c5a565b9350611ccf83611c6b565b8060005b83811015611d00578151611ce78882611c8a565b9750611cf283611ca2565b925050600181019050611cd3565b5085935050505092915050565b60006020820190508181036000830152611d278184611caf565b905092915050565b6000819050919050565b611d4281611d2f565b82525050565b6000602082019050611d5d6000830184611d39565b92915050565b611d6c81611bae565b82525050565b6000602082019050611d876000830184611d63565b92915050565b600082825260208201905092915050565b7f4f776e61626c653a2063616c6c6572206973206e6f7420746865206f776e6572600082015250565b6000611dd4602083611d8d565b9150611ddf82611d9e565b602082019050919050565b60006020820190508181036000830152611e0381611dc7565b9050919050565b7f594f555f43414e5f4e4f545f524f4d4f56455f544849535f4144445245535300600082015250565b6000611e40601f83611d8d565b9150611e4b82611e0a565b602082019050919050565b60006020820190508181036000830152611e6f81611e33565b9050919050565b7f4f776e61626c653a206e6577206f776e657220697320746865207a65726f206160008201527f6464726573730000000000000000000000000000000000000000000000000000602082015250565b6000611ed2602683611d8d565b9150611edd82611e76565b604082019050919050565b60006020820190508181036000830152611f0181611ec5565b9050919050565b7f524f4c455f414c52454144595f45584953545300000000000000000000000000600082015250565b6000611f3e601383611d8d565b9150611f4982611f08565b602082019050919050565b60006020820190508181036000830152611f6d81611f31565b9050919050565b7f4e487b7100000000000000000000000000000000000000000000000000000000600052603260045260246000fd5b7f4e487b7100000000000000000000000000000000000000000000000000000000600052601160045260246000fd5b6000611fdd82611d2f565b91507fffffffffffffffffffffffffffffffffffffffffffffffffffffffffffffffff8214156120105761200f611fa3565b5b600182019050919050565b600061202682611d2f565b915061203183611d2f565b92508282101561204457612043611fa3565b5b828203905092915050565b7f4e487b7100000000000000000000000000000000000000000000000000000000600052603160045260246000fdfea264697066735822122020cb3aa1c15dee4961568d740ffddc9cd466a995efc6cccdeada584033d64a2b64736f6c63430008080033",
          "opcodes": "PUSH1 0x80 PUSH1 0x40 MSTORE CALLVALUE DUP1 ISZERO PUSH3 0x11 JUMPI PUSH1 0x0 DUP1 REVERT JUMPDEST POP PUSH3 0x32 PUSH3 0x26 PUSH3 0x9E PUSH1 0x20 SHL PUSH1 0x20 SHR JUMP JUMPDEST PUSH3 0xA6 PUSH1 0x20 SHL PUSH1 0x20 SHR JUMP JUMPDEST PUSH3 0x43 CALLER PUSH3 0x16A PUSH1 0x20 SHL PUSH1 0x20 SHR JUMP JUMPDEST PUSH3 0x54 CALLER PUSH3 0x250 PUSH1 0x20 SHL PUSH1 0x20 SHR JUMP JUMPDEST PUSH3 0x65 CALLER PUSH3 0x336 PUSH1 0x20 SHL PUSH1 0x20 SHR JUMP JUMPDEST PUSH3 0x76 CALLER PUSH3 0x41C PUSH1 0x20 SHL PUSH1 0x20 SHR JUMP JUMPDEST PUSH3 0x87 CALLER PUSH3 0x502 PUSH1 0x20 SHL PUSH1 0x20 SHR JUMP JUMPDEST PUSH3 0x98 CALLER PUSH3 0x5E8 PUSH1 0x20 SHL PUSH1 0x20 SHR JUMP JUMPDEST PUSH3 0xA82 JUMP JUMPDEST PUSH1 0x0 CALLER SWAP1 POP SWAP1 JUMP JUMPDEST PUSH1 0x0 DUP1 PUSH1 0x0 SWAP1 SLOAD SWAP1 PUSH2 0x100 EXP SWAP1 DIV PUSH20 0xFFFFFFFFFFFFFFFFFFFFFFFFFFFFFFFFFFFFFFFF AND SWAP1 POP DUP2 PUSH1 0x0 DUP1 PUSH2 0x100 EXP DUP2 SLOAD DUP2 PUSH20 0xFFFFFFFFFFFFFFFFFFFFFFFFFFFFFFFFFFFFFFFF MUL NOT AND SWAP1 DUP4 PUSH20 0xFFFFFFFFFFFFFFFFFFFFFFFFFFFFFFFFFFFFFFFF AND MUL OR SWAP1 SSTORE POP DUP2 PUSH20 0xFFFFFFFFFFFFFFFFFFFFFFFFFFFFFFFFFFFFFFFF AND DUP2 PUSH20 0xFFFFFFFFFFFFFFFFFFFFFFFFFFFFFFFFFFFFFFFF AND PUSH32 0x8BE0079C531659141344CD1FD0A4F28419497F9722A3DAAFE3B4186F6B6457E0 PUSH1 0x40 MLOAD PUSH1 0x40 MLOAD DUP1 SWAP2 SUB SWAP1 LOG3 POP POP JUMP JUMPDEST PUSH3 0x17A PUSH3 0x9E PUSH1 0x20 SHL PUSH1 0x20 SHR JUMP JUMPDEST PUSH20 0xFFFFFFFFFFFFFFFFFFFFFFFFFFFFFFFFFFFFFFFF AND PUSH3 0x1A0 PUSH3 0x6CE PUSH1 0x20 SHL PUSH1 0x20 SHR JUMP JUMPDEST PUSH20 0xFFFFFFFFFFFFFFFFFFFFFFFFFFFFFFFFFFFFFFFF AND EQ PUSH3 0x1F9 JUMPI PUSH1 0x40 MLOAD PUSH32 0x8C379A000000000000000000000000000000000000000000000000000000000 DUP2 MSTORE PUSH1 0x4 ADD PUSH3 0x1F0 SWAP1 PUSH3 0x8D6 JUMP JUMPDEST PUSH1 0x40 MLOAD DUP1 SWAP2 SUB SWAP1 REVERT JUMPDEST PUSH3 0x214 DUP2 PUSH1 0x1 PUSH3 0x6F7 PUSH1 0x20 SHL PUSH3 0x1717 OR SWAP1 SWAP2 SWAP1 PUSH1 0x20 SHR JUMP JUMPDEST PUSH32 0x364EE90EB63717B99192FDB951C7B1AA91A45BCA11AC73AB40CFAD762631FBCE DUP2 PUSH1 0x40 MLOAD PUSH3 0x245 SWAP2 SWAP1 PUSH3 0x93D JUMP JUMPDEST PUSH1 0x40 MLOAD DUP1 SWAP2 SUB SWAP1 LOG1 POP JUMP JUMPDEST PUSH3 0x260 PUSH3 0x9E PUSH1 0x20 SHL PUSH1 0x20 SHR JUMP JUMPDEST PUSH20 0xFFFFFFFFFFFFFFFFFFFFFFFFFFFFFFFFFFFFFFFF AND PUSH3 0x286 PUSH3 0x6CE PUSH1 0x20 SHL PUSH1 0x20 SHR JUMP JUMPDEST PUSH20 0xFFFFFFFFFFFFFFFFFFFFFFFFFFFFFFFFFFFFFFFF AND EQ PUSH3 0x2DF JUMPI PUSH1 0x40 MLOAD PUSH32 0x8C379A000000000000000000000000000000000000000000000000000000000 DUP2 MSTORE PUSH1 0x4 ADD PUSH3 0x2D6 SWAP1 PUSH3 0x8D6 JUMP JUMPDEST PUSH1 0x40 MLOAD DUP1 SWAP2 SUB SWAP1 REVERT JUMPDEST PUSH3 0x2FA DUP2 PUSH1 0x2 PUSH3 0x6F7 PUSH1 0x20 SHL PUSH3 0x1717 OR SWAP1 SWAP2 SWAP1 PUSH1 0x20 SHR JUMP JUMPDEST PUSH32 0x5A8FB443D09CF1426E80F80DD509757D71D4687674AB4ADAD906C5E2B6E1E62C DUP2 PUSH1 0x40 MLOAD PUSH3 0x32B SWAP2 SWAP1 PUSH3 0x93D JUMP JUMPDEST PUSH1 0x40 MLOAD DUP1 SWAP2 SUB SWAP1 LOG1 POP JUMP JUMPDEST PUSH3 0x346 PUSH3 0x9E PUSH1 0x20 SHL PUSH1 0x20 SHR JUMP JUMPDEST PUSH20 0xFFFFFFFFFFFFFFFFFFFFFFFFFFFFFFFFFFFFFFFF AND PUSH3 0x36C PUSH3 0x6CE PUSH1 0x20 SHL PUSH1 0x20 SHR JUMP JUMPDEST PUSH20 0xFFFFFFFFFFFFFFFFFFFFFFFFFFFFFFFFFFFFFFFF AND EQ PUSH3 0x3C5 JUMPI PUSH1 0x40 MLOAD PUSH32 0x8C379A000000000000000000000000000000000000000000000000000000000 DUP2 MSTORE PUSH1 0x4 ADD PUSH3 0x3BC SWAP1 PUSH3 0x8D6 JUMP JUMPDEST PUSH1 0x40 MLOAD DUP1 SWAP2 SUB SWAP1 REVERT JUMPDEST PUSH3 0x3E0 DUP2 PUSH1 0x3 PUSH3 0x6F7 PUSH1 0x20 SHL PUSH3 0x1717 OR SWAP1 SWAP2 SWAP1 PUSH1 0x20 SHR JUMP JUMPDEST PUSH32 0xEAF4826D3CAD06F851D4FDD9CDF878A0C6D82CE9A07F0C1955BEAC07C1E23692 DUP2 PUSH1 0x40 MLOAD PUSH3 0x411 SWAP2 SWAP1 PUSH3 0x93D JUMP JUMPDEST PUSH1 0x40 MLOAD DUP1 SWAP2 SUB SWAP1 LOG1 POP JUMP JUMPDEST PUSH3 0x42C PUSH3 0x9E PUSH1 0x20 SHL PUSH1 0x20 SHR JUMP JUMPDEST PUSH20 0xFFFFFFFFFFFFFFFFFFFFFFFFFFFFFFFFFFFFFFFF AND PUSH3 0x452 PUSH3 0x6CE PUSH1 0x20 SHL PUSH1 0x20 SHR JUMP JUMPDEST PUSH20 0xFFFFFFFFFFFFFFFFFFFFFFFFFFFFFFFFFFFFFFFF AND EQ PUSH3 0x4AB JUMPI PUSH1 0x40 MLOAD PUSH32 0x8C379A000000000000000000000000000000000000000000000000000000000 DUP2 MSTORE PUSH1 0x4 ADD PUSH3 0x4A2 SWAP1 PUSH3 0x8D6 JUMP JUMPDEST PUSH1 0x40 MLOAD DUP1 SWAP2 SUB SWAP1 REVERT JUMPDEST PUSH3 0x4C6 DUP2 PUSH1 0x4 PUSH3 0x6F7 PUSH1 0x20 SHL PUSH3 0x1717 OR SWAP1 SWAP2 SWAP1 PUSH1 0x20 SHR JUMP JUMPDEST PUSH32 0x3AFD547F7EB357741DE51229846AE795CB06449E4B4032EB34A7CC0A751E25C1 DUP2 PUSH1 0x40 MLOAD PUSH3 0x4F7 SWAP2 SWAP1 PUSH3 0x93D JUMP JUMPDEST PUSH1 0x40 MLOAD DUP1 SWAP2 SUB SWAP1 LOG1 POP JUMP JUMPDEST PUSH3 0x512 PUSH3 0x9E PUSH1 0x20 SHL PUSH1 0x20 SHR JUMP JUMPDEST PUSH20 0xFFFFFFFFFFFFFFFFFFFFFFFFFFFFFFFFFFFFFFFF AND PUSH3 0x538 PUSH3 0x6CE PUSH1 0x20 SHL PUSH1 0x20 SHR JUMP JUMPDEST PUSH20 0xFFFFFFFFFFFFFFFFFFFFFFFFFFFFFFFFFFFFFFFF AND EQ PUSH3 0x591 JUMPI PUSH1 0x40 MLOAD PUSH32 0x8C379A000000000000000000000000000000000000000000000000000000000 DUP2 MSTORE PUSH1 0x4 ADD PUSH3 0x588 SWAP1 PUSH3 0x8D6 JUMP JUMPDEST PUSH1 0x40 MLOAD DUP1 SWAP2 SUB SWAP1 REVERT JUMPDEST PUSH3 0x5AC DUP2 PUSH1 0x5 PUSH3 0x6F7 PUSH1 0x20 SHL PUSH3 0x1717 OR SWAP1 SWAP2 SWAP1 PUSH1 0x20 SHR JUMP JUMPDEST PUSH32 0xEEA60F9E1851B51FEED56C339BE177EA715591923622A0EFFE46DBB8885EFA6 DUP2 PUSH1 0x40 MLOAD PUSH3 0x5DD SWAP2 SWAP1 PUSH3 0x93D JUMP JUMPDEST PUSH1 0x40 MLOAD DUP1 SWAP2 SUB SWAP1 LOG1 POP JUMP JUMPDEST PUSH3 0x5F8 PUSH3 0x9E PUSH1 0x20 SHL PUSH1 0x20 SHR JUMP JUMPDEST PUSH20 0xFFFFFFFFFFFFFFFFFFFFFFFFFFFFFFFFFFFFFFFF AND PUSH3 0x61E PUSH3 0x6CE PUSH1 0x20 SHL PUSH1 0x20 SHR JUMP JUMPDEST PUSH20 0xFFFFFFFFFFFFFFFFFFFFFFFFFFFFFFFFFFFFFFFF AND EQ PUSH3 0x677 JUMPI PUSH1 0x40 MLOAD PUSH32 0x8C379A000000000000000000000000000000000000000000000000000000000 DUP2 MSTORE PUSH1 0x4 ADD PUSH3 0x66E SWAP1 PUSH3 0x8D6 JUMP JUMPDEST PUSH1 0x40 MLOAD DUP1 SWAP2 SUB SWAP1 REVERT JUMPDEST PUSH3 0x692 DUP2 PUSH1 0x6 PUSH3 0x6F7 PUSH1 0x20 SHL PUSH3 0x1717 OR SWAP1 SWAP2 SWAP1 PUSH1 0x20 SHR JUMP JUMPDEST PUSH32 0x23B2415A50EFD127E694BA174E400D457AD65C58752E171B6D17F3F5DAA26FDB DUP2 PUSH1 0x40 MLOAD PUSH3 0x6C3 SWAP2 SWAP1 PUSH3 0x93D JUMP JUMPDEST PUSH1 0x40 MLOAD DUP1 SWAP2 SUB SWAP1 LOG1 POP JUMP JUMPDEST PUSH1 0x0 DUP1 PUSH1 0x0 SWAP1 SLOAD SWAP1 PUSH2 0x100 EXP SWAP1 DIV PUSH20 0xFFFFFFFFFFFFFFFFFFFFFFFFFFFFFFFFFFFFFFFF AND SWAP1 POP SWAP1 JUMP JUMPDEST PUSH3 0x709 DUP3 DUP3 PUSH3 0x7B5 PUSH1 0x20 SHL PUSH1 0x20 SHR JUMP JUMPDEST ISZERO PUSH3 0x74C JUMPI PUSH1 0x40 MLOAD PUSH32 0x8C379A000000000000000000000000000000000000000000000000000000000 DUP2 MSTORE PUSH1 0x4 ADD PUSH3 0x743 SWAP1 PUSH3 0x9AA JUMP JUMPDEST PUSH1 0x40 MLOAD DUP1 SWAP2 SUB SWAP1 REVERT JUMPDEST DUP2 PUSH1 0x0 ADD DUP2 SWAP1 DUP1 PUSH1 0x1 DUP2 SLOAD ADD DUP1 DUP3 SSTORE DUP1 SWAP2 POP POP PUSH1 0x1 SWAP1 SUB SWAP1 PUSH1 0x0 MSTORE PUSH1 0x20 PUSH1 0x0 KECCAK256 ADD PUSH1 0x0 SWAP1 SWAP2 SWAP1 SWAP2 SWAP1 SWAP2 PUSH2 0x100 EXP DUP2 SLOAD DUP2 PUSH20 0xFFFFFFFFFFFFFFFFFFFFFFFFFFFFFFFFFFFFFFFF MUL NOT AND SWAP1 DUP4 PUSH20 0xFFFFFFFFFFFFFFFFFFFFFFFFFFFFFFFFFFFFFFFF AND MUL OR SWAP1 SSTORE POP POP POP JUMP JUMPDEST PUSH1 0x0 DUP1 DUP4 PUSH1 0x0 ADD DUP1 SLOAD SWAP1 POP SWAP1 POP PUSH1 0x0 JUMPDEST DUP2 DUP2 LT ISZERO PUSH3 0x868 JUMPI DUP4 PUSH20 0xFFFFFFFFFFFFFFFFFFFFFFFFFFFFFFFFFFFFFFFF AND DUP6 PUSH1 0x0 ADD DUP3 DUP2 SLOAD DUP2 LT PUSH3 0x7FE JUMPI PUSH3 0x7FD PUSH3 0x9CC JUMP JUMPDEST JUMPDEST SWAP1 PUSH1 0x0 MSTORE PUSH1 0x20 PUSH1 0x0 KECCAK256 ADD PUSH1 0x0 SWAP1 SLOAD SWAP1 PUSH2 0x100 EXP SWAP1 DIV PUSH20 0xFFFFFFFFFFFFFFFFFFFFFFFFFFFFFFFFFFFFFFFF AND PUSH20 0xFFFFFFFFFFFFFFFFFFFFFFFFFFFFFFFFFFFFFFFF AND EQ ISZERO PUSH3 0x852 JUMPI PUSH1 0x1 SWAP3 POP POP POP PUSH3 0x86F JUMP JUMPDEST DUP1 DUP1 PUSH3 0x85F SWAP1 PUSH3 0xA34 JUMP JUMPDEST SWAP2 POP POP PUSH3 0x7C5 JUMP JUMPDEST POP PUSH1 0x0 SWAP2 POP POP JUMPDEST SWAP3 SWAP2 POP POP JUMP JUMPDEST PUSH1 0x0 DUP3 DUP3 MSTORE PUSH1 0x20 DUP3 ADD SWAP1 POP SWAP3 SWAP2 POP POP JUMP JUMPDEST PUSH32 0x4F776E61626C653A2063616C6C6572206973206E6F7420746865206F776E6572 PUSH1 0x0 DUP3 ADD MSTORE POP JUMP JUMPDEST PUSH1 0x0 PUSH3 0x8BE PUSH1 0x20 DUP4 PUSH3 0x875 JUMP JUMPDEST SWAP2 POP PUSH3 0x8CB DUP3 PUSH3 0x886 JUMP JUMPDEST PUSH1 0x20 DUP3 ADD SWAP1 POP SWAP2 SWAP1 POP JUMP JUMPDEST PUSH1 0x0 PUSH1 0x20 DUP3 ADD SWAP1 POP DUP2 DUP2 SUB PUSH1 0x0 DUP4 ADD MSTORE PUSH3 0x8F1 DUP2 PUSH3 0x8AF JUMP JUMPDEST SWAP1 POP SWAP2 SWAP1 POP JUMP JUMPDEST PUSH1 0x0 PUSH20 0xFFFFFFFFFFFFFFFFFFFFFFFFFFFFFFFFFFFFFFFF DUP3 AND SWAP1 POP SWAP2 SWAP1 POP JUMP JUMPDEST PUSH1 0x0 PUSH3 0x925 DUP3 PUSH3 0x8F8 JUMP JUMPDEST SWAP1 POP SWAP2 SWAP1 POP JUMP JUMPDEST PUSH3 0x937 DUP2 PUSH3 0x918 JUMP JUMPDEST DUP3 MSTORE POP POP JUMP JUMPDEST PUSH1 0x0 PUSH1 0x20 DUP3 ADD SWAP1 POP PUSH3 0x954 PUSH1 0x0 DUP4 ADD DUP5 PUSH3 0x92C JUMP JUMPDEST SWAP3 SWAP2 POP POP JUMP JUMPDEST PUSH32 0x524F4C455F414C52454144595F45584953545300000000000000000000000000 PUSH1 0x0 DUP3 ADD MSTORE POP JUMP JUMPDEST PUSH1 0x0 PUSH3 0x992 PUSH1 0x13 DUP4 PUSH3 0x875 JUMP JUMPDEST SWAP2 POP PUSH3 0x99F DUP3 PUSH3 0x95A JUMP JUMPDEST PUSH1 0x20 DUP3 ADD SWAP1 POP SWAP2 SWAP1 POP JUMP JUMPDEST PUSH1 0x0 PUSH1 0x20 DUP3 ADD SWAP1 POP DUP2 DUP2 SUB PUSH1 0x0 DUP4 ADD MSTORE PUSH3 0x9C5 DUP2 PUSH3 0x983 JUMP JUMPDEST SWAP1 POP SWAP2 SWAP1 POP JUMP JUMPDEST PUSH32 0x4E487B7100000000000000000000000000000000000000000000000000000000 PUSH1 0x0 MSTORE PUSH1 0x32 PUSH1 0x4 MSTORE PUSH1 0x24 PUSH1 0x0 REVERT JUMPDEST PUSH32 0x4E487B7100000000000000000000000000000000000000000000000000000000 PUSH1 0x0 MSTORE PUSH1 0x11 PUSH1 0x4 MSTORE PUSH1 0x24 PUSH1 0x0 REVERT JUMPDEST PUSH1 0x0 DUP2 SWAP1 POP SWAP2 SWAP1 POP JUMP JUMPDEST PUSH1 0x0 PUSH3 0xA41 DUP3 PUSH3 0xA2A JUMP JUMPDEST SWAP2 POP PUSH32 0xFFFFFFFFFFFFFFFFFFFFFFFFFFFFFFFFFFFFFFFFFFFFFFFFFFFFFFFFFFFFFFFF DUP3 EQ ISZERO PUSH3 0xA77 JUMPI PUSH3 0xA76 PUSH3 0x9FB JUMP JUMPDEST JUMPDEST PUSH1 0x1 DUP3 ADD SWAP1 POP SWAP2 SWAP1 POP JUMP JUMPDEST PUSH2 0x20B4 DUP1 PUSH3 0xA92 PUSH1 0x0 CODECOPY PUSH1 0x0 RETURN INVALID PUSH1 0x80 PUSH1 0x40 MSTORE CALLVALUE DUP1 ISZERO PUSH2 0x10 JUMPI PUSH1 0x0 DUP1 REVERT JUMPDEST POP PUSH1 0x4 CALLDATASIZE LT PUSH2 0x211 JUMPI PUSH1 0x0 CALLDATALOAD PUSH1 0xE0 SHR DUP1 PUSH4 0x7E90B614 GT PUSH2 0x125 JUMPI DUP1 PUSH4 0xAD973D74 GT PUSH2 0xAD JUMPI DUP1 PUSH4 0xE3C1A531 GT PUSH2 0x7C JUMPI DUP1 PUSH4 0xE3C1A531 EQ PUSH2 0x5D4 JUMPI DUP1 PUSH4 0xE7D0831D EQ PUSH2 0x5F0 JUMPI DUP1 PUSH4 0xF2FDE38B EQ PUSH2 0x60C JUMPI DUP1 PUSH4 0xF46D039F EQ PUSH2 0x628 JUMPI DUP1 PUSH4 0xF80D1FF0 EQ PUSH2 0x644 JUMPI PUSH2 0x211 JUMP JUMPDEST DUP1 PUSH4 0xAD973D74 EQ PUSH2 0x53A JUMPI DUP1 PUSH4 0xB17B3304 EQ PUSH2 0x556 JUMPI DUP1 PUSH4 0xBCA4BD50 EQ PUSH2 0x586 JUMPI DUP1 PUSH4 0xC6A63611 EQ PUSH2 0x5B6 JUMPI PUSH2 0x211 JUMP JUMPDEST DUP1 PUSH4 0x88CC58E4 GT PUSH2 0xF4 JUMPI DUP1 PUSH4 0x88CC58E4 EQ PUSH2 0x496 JUMPI DUP1 PUSH4 0x8DA5CB5B EQ PUSH2 0x4B4 JUMPI DUP1 PUSH4 0x8EB06CCF EQ PUSH2 0x4D2 JUMPI DUP1 PUSH4 0x8EC4F505 EQ PUSH2 0x4EE JUMPI DUP1 PUSH4 0x8F0C86FA EQ PUSH2 0x50A JUMPI PUSH2 0x211 JUMP JUMPDEST DUP1 PUSH4 0x7E90B614 EQ PUSH2 0x426 JUMPI DUP1 PUSH4 0x814F696E EQ PUSH2 0x442 JUMPI DUP1 PUSH4 0x84480510 EQ PUSH2 0x45E JUMPI DUP1 PUSH4 0x8853AD75 EQ PUSH2 0x47A JUMPI PUSH2 0x211 JUMP JUMPDEST DUP1 PUSH4 0x5884965F GT PUSH2 0x1A8 JUMPI DUP1 PUSH4 0x650D993B GT PUSH2 0x177 JUMPI DUP1 PUSH4 0x650D993B EQ PUSH2 0x3A8 JUMPI DUP1 PUSH4 0x6D6D00ED EQ PUSH2 0x3C6 JUMPI DUP1 PUSH4 0x70099EC8 EQ PUSH2 0x3E4 JUMPI DUP1 PUSH4 0x715018A6 EQ PUSH2 0x400 JUMPI DUP1 PUSH4 0x7250E224 EQ PUSH2 0x40A JUMPI PUSH2 0x211 JUMP JUMPDEST DUP1 PUSH4 0x5884965F EQ PUSH2 0x320 JUMPI DUP1 PUSH4 0x5BF27912 EQ PUSH2 0x33E JUMPI DUP1 PUSH4 0x5DA09B88 EQ PUSH2 0x35A JUMPI DUP1 PUSH4 0x5EB4626F EQ PUSH2 0x38A JUMPI PUSH2 0x211 JUMP JUMPDEST DUP1 PUSH4 0x29CE1EC5 GT PUSH2 0x1E4 JUMPI DUP1 PUSH4 0x29CE1EC5 EQ PUSH2 0x2B0 JUMPI DUP1 PUSH4 0x2A7EC29F EQ PUSH2 0x2CC JUMPI DUP1 PUSH4 0x4B37C73F EQ PUSH2 0x2E8 JUMPI DUP1 PUSH4 0x57C1F9E2 EQ PUSH2 0x304 JUMPI PUSH2 0x211 JUMP JUMPDEST DUP1 PUSH4 0xF04BA67 EQ PUSH2 0x216 JUMPI DUP1 PUSH4 0x220FBBE9 EQ PUSH2 0x246 JUMPI DUP1 PUSH4 0x2885B943 EQ PUSH2 0x262 JUMPI DUP1 PUSH4 0x28FD5E83 EQ PUSH2 0x280 JUMPI JUMPDEST PUSH1 0x0 DUP1 REVERT JUMPDEST PUSH2 0x230 PUSH1 0x4 DUP1 CALLDATASIZE SUB DUP2 ADD SWAP1 PUSH2 0x22B SWAP2 SWAP1 PUSH2 0x1BEC JUMP JUMPDEST PUSH2 0x662 JUMP JUMPDEST PUSH1 0x40 MLOAD PUSH2 0x23D SWAP2 SWAP1 PUSH2 0x1C34 JUMP JUMPDEST PUSH1 0x40 MLOAD DUP1 SWAP2 SUB SWAP1 RETURN JUMPDEST PUSH2 0x260 PUSH1 0x4 DUP1 CALLDATASIZE SUB DUP2 ADD SWAP1 PUSH2 0x25B SWAP2 SWAP1 PUSH2 0x1BEC JUMP JUMPDEST PUSH2 0x67F JUMP JUMPDEST STOP JUMPDEST PUSH2 0x26A PUSH2 0x749 JUMP JUMPDEST PUSH1 0x40 MLOAD PUSH2 0x277 SWAP2 SWAP1 PUSH2 0x1D0D JUMP JUMPDEST PUSH1 0x40 MLOAD DUP1 SWAP2 SUB SWAP1 RETURN JUMPDEST PUSH2 0x29A PUSH1 0x4 DUP1 CALLDATASIZE SUB DUP2 ADD SWAP1 PUSH2 0x295 SWAP2 SWAP1 PUSH2 0x1BEC JUMP JUMPDEST PUSH2 0x75A JUMP JUMPDEST PUSH1 0x40 MLOAD PUSH2 0x2A7 SWAP2 SWAP1 PUSH2 0x1C34 JUMP JUMPDEST PUSH1 0x40 MLOAD DUP1 SWAP2 SUB SWAP1 RETURN JUMPDEST PUSH2 0x2CA PUSH1 0x4 DUP1 CALLDATASIZE SUB DUP2 ADD SWAP1 PUSH2 0x2C5 SWAP2 SWAP1 PUSH2 0x1BEC JUMP JUMPDEST PUSH2 0x777 JUMP JUMPDEST STOP JUMPDEST PUSH2 0x2E6 PUSH1 0x4 DUP1 CALLDATASIZE SUB DUP2 ADD SWAP1 PUSH2 0x2E1 SWAP2 SWAP1 PUSH2 0x1BEC JUMP JUMPDEST PUSH2 0x841 JUMP JUMPDEST STOP JUMPDEST PUSH2 0x302 PUSH1 0x4 DUP1 CALLDATASIZE SUB DUP2 ADD SWAP1 PUSH2 0x2FD SWAP2 SWAP1 PUSH2 0x1BEC JUMP JUMPDEST PUSH2 0x8FD JUMP JUMPDEST STOP JUMPDEST PUSH2 0x31E PUSH1 0x4 DUP1 CALLDATASIZE SUB DUP2 ADD SWAP1 PUSH2 0x319 SWAP2 SWAP1 PUSH2 0x1BEC JUMP JUMPDEST PUSH2 0x9C7 JUMP JUMPDEST STOP JUMPDEST PUSH2 0x328 PUSH2 0xA91 JUMP JUMPDEST PUSH1 0x40 MLOAD PUSH2 0x335 SWAP2 SWAP1 PUSH2 0x1D0D JUMP JUMPDEST PUSH1 0x40 MLOAD DUP1 SWAP2 SUB SWAP1 RETURN JUMPDEST PUSH2 0x358 PUSH1 0x4 DUP1 CALLDATASIZE SUB DUP2 ADD SWAP1 PUSH2 0x353 SWAP2 SWAP1 PUSH2 0x1BEC JUMP JUMPDEST PUSH2 0xAA2 JUMP JUMPDEST STOP JUMPDEST PUSH2 0x374 PUSH1 0x4 DUP1 CALLDATASIZE SUB DUP2 ADD SWAP1 PUSH2 0x36F SWAP2 SWAP1 PUSH2 0x1BEC JUMP JUMPDEST PUSH2 0xB5E JUMP JUMPDEST PUSH1 0x40 MLOAD PUSH2 0x381 SWAP2 SWAP1 PUSH2 0x1C34 JUMP JUMPDEST PUSH1 0x40 MLOAD DUP1 SWAP2 SUB SWAP1 RETURN JUMPDEST PUSH2 0x392 PUSH2 0xB7B JUMP JUMPDEST PUSH1 0x40 MLOAD PUSH2 0x39F SWAP2 SWAP1 PUSH2 0x1D0D JUMP JUMPDEST PUSH1 0x40 MLOAD DUP1 SWAP2 SUB SWAP1 RETURN JUMPDEST PUSH2 0x3B0 PUSH2 0xB8C JUMP JUMPDEST PUSH1 0x40 MLOAD PUSH2 0x3BD SWAP2 SWAP1 PUSH2 0x1D0D JUMP JUMPDEST PUSH1 0x40 MLOAD DUP1 SWAP2 SUB SWAP1 RETURN JUMPDEST PUSH2 0x3CE PUSH2 0xB9D JUMP JUMPDEST PUSH1 0x40 MLOAD PUSH2 0x3DB SWAP2 SWAP1 PUSH2 0x1D48 JUMP JUMPDEST PUSH1 0x40 MLOAD DUP1 SWAP2 SUB SWAP1 RETURN JUMPDEST PUSH2 0x3FE PUSH1 0x4 DUP1 CALLDATASIZE SUB DUP2 ADD SWAP1 PUSH2 0x3F9 SWAP2 SWAP1 PUSH2 0x1BEC JUMP JUMPDEST PUSH2 0xBA9 JUMP JUMPDEST STOP JUMPDEST PUSH2 0x408 PUSH2 0xC73 JUMP JUMPDEST STOP JUMPDEST PUSH2 0x424 PUSH1 0x4 DUP1 CALLDATASIZE SUB DUP2 ADD SWAP1 PUSH2 0x41F SWAP2 SWAP1 PUSH2 0x1BEC JUMP JUMPDEST PUSH2 0xCFB JUMP JUMPDEST STOP JUMPDEST PUSH2 0x440 PUSH1 0x4 DUP1 CALLDATASIZE SUB DUP2 ADD SWAP1 PUSH2 0x43B SWAP2 SWAP1 PUSH2 0x1BEC JUMP JUMPDEST PUSH2 0xDC5 JUMP JUMPDEST STOP JUMPDEST PUSH2 0x45C PUSH1 0x4 DUP1 CALLDATASIZE SUB DUP2 ADD SWAP1 PUSH2 0x457 SWAP2 SWAP1 PUSH2 0x1BEC JUMP JUMPDEST PUSH2 0xE81 JUMP JUMPDEST STOP JUMPDEST PUSH2 0x478 PUSH1 0x4 DUP1 CALLDATASIZE SUB DUP2 ADD SWAP1 PUSH2 0x473 SWAP2 SWAP1 PUSH2 0x1BEC JUMP JUMPDEST PUSH2 0xF4B JUMP JUMPDEST STOP JUMPDEST PUSH2 0x494 PUSH1 0x4 DUP1 CALLDATASIZE SUB DUP2 ADD SWAP1 PUSH2 0x48F SWAP2 SWAP1 PUSH2 0x1BEC JUMP JUMPDEST PUSH2 0x1007 JUMP JUMPDEST STOP JUMPDEST PUSH2 0x49E PUSH2 0x10C3 JUMP JUMPDEST PUSH1 0x40 MLOAD PUSH2 0x4AB SWAP2 SWAP1 PUSH2 0x1D0D JUMP JUMPDEST PUSH1 0x40 MLOAD DUP1 SWAP2 SUB SWAP1 RETURN JUMPDEST PUSH2 0x4BC PUSH2 0x10D4 JUMP JUMPDEST PUSH1 0x40 MLOAD PUSH2 0x4C9 SWAP2 SWAP1 PUSH2 0x1D72 JUMP JUMPDEST PUSH1 0x40 MLOAD DUP1 SWAP2 SUB SWAP1 RETURN JUMPDEST PUSH2 0x4EC PUSH1 0x4 DUP1 CALLDATASIZE SUB DUP2 ADD SWAP1 PUSH2 0x4E7 SWAP2 SWAP1 PUSH2 0x1BEC JUMP JUMPDEST PUSH2 0x10FD JUMP JUMPDEST STOP JUMPDEST PUSH2 0x508 PUSH1 0x4 DUP1 CALLDATASIZE SUB DUP2 ADD SWAP1 PUSH2 0x503 SWAP2 SWAP1 PUSH2 0x1BEC JUMP JUMPDEST PUSH2 0x11C7 JUMP JUMPDEST STOP JUMPDEST PUSH2 0x524 PUSH1 0x4 DUP1 CALLDATASIZE SUB DUP2 ADD SWAP1 PUSH2 0x51F SWAP2 SWAP1 PUSH2 0x1BEC JUMP JUMPDEST PUSH2 0x1291 JUMP JUMPDEST PUSH1 0x40 MLOAD PUSH2 0x531 SWAP2 SWAP1 PUSH2 0x1C34 JUMP JUMPDEST PUSH1 0x40 MLOAD DUP1 SWAP2 SUB SWAP1 RETURN JUMPDEST PUSH2 0x554 PUSH1 0x4 DUP1 CALLDATASIZE SUB DUP2 ADD SWAP1 PUSH2 0x54F SWAP2 SWAP1 PUSH2 0x1BEC JUMP JUMPDEST PUSH2 0x12AE JUMP JUMPDEST STOP JUMPDEST PUSH2 0x570 PUSH1 0x4 DUP1 CALLDATASIZE SUB DUP2 ADD SWAP1 PUSH2 0x56B SWAP2 SWAP1 PUSH2 0x1BEC JUMP JUMPDEST PUSH2 0x1378 JUMP JUMPDEST PUSH1 0x40 MLOAD PUSH2 0x57D SWAP2 SWAP1 PUSH2 0x1C34 JUMP JUMPDEST PUSH1 0x40 MLOAD DUP1 SWAP2 SUB SWAP1 RETURN JUMPDEST PUSH2 0x5A0 PUSH1 0x4 DUP1 CALLDATASIZE SUB DUP2 ADD SWAP1 PUSH2 0x59B SWAP2 SWAP1 PUSH2 0x1BEC JUMP JUMPDEST PUSH2 0x1395 JUMP JUMPDEST PUSH1 0x40 MLOAD PUSH2 0x5AD SWAP2 SWAP1 PUSH2 0x1C34 JUMP JUMPDEST PUSH1 0x40 MLOAD DUP1 SWAP2 SUB SWAP1 RETURN JUMPDEST PUSH2 0x5BE PUSH2 0x13B2 JUMP JUMPDEST PUSH1 0x40 MLOAD PUSH2 0x5CB SWAP2 SWAP1 PUSH2 0x1D48 JUMP JUMPDEST PUSH1 0x40 MLOAD DUP1 SWAP2 SUB SWAP1 RETURN JUMPDEST PUSH2 0x5EE PUSH1 0x4 DUP1 CALLDATASIZE SUB DUP2 ADD SWAP1 PUSH2 0x5E9 SWAP2 SWAP1 PUSH2 0x1BEC JUMP JUMPDEST PUSH2 0x13BE JUMP JUMPDEST STOP JUMPDEST PUSH2 0x60A PUSH1 0x4 DUP1 CALLDATASIZE SUB DUP2 ADD SWAP1 PUSH2 0x605 SWAP2 SWAP1 PUSH2 0x1BEC JUMP JUMPDEST PUSH2 0x1488 JUMP JUMPDEST STOP JUMPDEST PUSH2 0x626 PUSH1 0x4 DUP1 CALLDATASIZE SUB DUP2 ADD SWAP1 PUSH2 0x621 SWAP2 SWAP1 PUSH2 0x1BEC JUMP JUMPDEST PUSH2 0x1544 JUMP JUMPDEST STOP JUMPDEST PUSH2 0x642 PUSH1 0x4 DUP1 CALLDATASIZE SUB DUP2 ADD SWAP1 PUSH2 0x63D SWAP2 SWAP1 PUSH2 0x1BEC JUMP JUMPDEST PUSH2 0x163C JUMP JUMPDEST STOP JUMPDEST PUSH2 0x64C PUSH2 0x1706 JUMP JUMPDEST PUSH1 0x40 MLOAD PUSH2 0x659 SWAP2 SWAP1 PUSH2 0x1D0D JUMP JUMPDEST PUSH1 0x40 MLOAD DUP1 SWAP2 SUB SWAP1 RETURN JUMPDEST PUSH1 0x0 PUSH2 0x678 DUP3 PUSH1 0x2 PUSH2 0x17CA SWAP1 SWAP2 SWAP1 PUSH4 0xFFFFFFFF AND JUMP JUMPDEST SWAP1 POP SWAP2 SWAP1 POP JUMP JUMPDEST PUSH2 0x687 PUSH2 0x1881 JUMP JUMPDEST PUSH20 0xFFFFFFFFFFFFFFFFFFFFFFFFFFFFFFFFFFFFFFFF AND PUSH2 0x6A5 PUSH2 0x10D4 JUMP JUMPDEST PUSH20 0xFFFFFFFFFFFFFFFFFFFFFFFFFFFFFFFFFFFFFFFF AND EQ PUSH2 0x6FB JUMPI PUSH1 0x40 MLOAD PUSH32 0x8C379A000000000000000000000000000000000000000000000000000000000 DUP2 MSTORE PUSH1 0x4 ADD PUSH2 0x6F2 SWAP1 PUSH2 0x1DEA JUMP JUMPDEST PUSH1 0x40 MLOAD DUP1 SWAP2 SUB SWAP1 REVERT JUMPDEST PUSH2 0x70F DUP2 PUSH1 0x3 PUSH2 0x1717 SWAP1 SWAP2 SWAP1 PUSH4 0xFFFFFFFF AND JUMP JUMPDEST PUSH32 0xEAF4826D3CAD06F851D4FDD9CDF878A0C6D82CE9A07F0C1955BEAC07C1E23692 DUP2 PUSH1 0x40 MLOAD PUSH2 0x73E SWAP2 SWAP1 PUSH2 0x1D72 JUMP JUMPDEST PUSH1 0x40 MLOAD DUP1 SWAP2 SUB SWAP1 LOG1 POP JUMP JUMPDEST PUSH1 0x60 PUSH2 0x755 PUSH1 0x1 PUSH2 0x1889 JUMP JUMPDEST SWAP1 POP SWAP1 JUMP JUMPDEST PUSH1 0x0 PUSH2 0x770 DUP3 PUSH1 0x6 PUSH2 0x17CA SWAP1 SWAP2 SWAP1 PUSH4 0xFFFFFFFF AND JUMP JUMPDEST SWAP1 POP SWAP2 SWAP1 POP JUMP JUMPDEST PUSH2 0x77F PUSH2 0x1881 JUMP JUMPDEST PUSH20 0xFFFFFFFFFFFFFFFFFFFFFFFFFFFFFFFFFFFFFFFF AND PUSH2 0x79D PUSH2 0x10D4 JUMP JUMPDEST PUSH20 0xFFFFFFFFFFFFFFFFFFFFFFFFFFFFFFFFFFFFFFFF AND EQ PUSH2 0x7F3 JUMPI PUSH1 0x40 MLOAD PUSH32 0x8C379A000000000000000000000000000000000000000000000000000000000 DUP2 MSTORE PUSH1 0x4 ADD PUSH2 0x7EA SWAP1 PUSH2 0x1DEA JUMP JUMPDEST PUSH1 0x40 MLOAD DUP1 SWAP2 SUB SWAP1 REVERT JUMPDEST PUSH2 0x807 DUP2 PUSH1 0x2 PUSH2 0x1717 SWAP1 SWAP2 SWAP1 PUSH4 0xFFFFFFFF AND JUMP JUMPDEST PUSH32 0x5A8FB443D09CF1426E80F80DD509757D71D4687674AB4ADAD906C5E2B6E1E62C DUP2 PUSH1 0x40 MLOAD PUSH2 0x836 SWAP2 SWAP1 PUSH2 0x1D72 JUMP JUMPDEST PUSH1 0x40 MLOAD DUP1 SWAP2 SUB SWAP1 LOG1 POP JUMP JUMPDEST DUP1 PUSH20 0xFFFFFFFFFFFFFFFFFFFFFFFFFFFFFFFFFFFFFFFF AND CALLER PUSH20 0xFFFFFFFFFFFFFFFFFFFFFFFFFFFFFFFFFFFFFFFF AND EQ PUSH2 0x8AF JUMPI PUSH1 0x40 MLOAD PUSH32 0x8C379A000000000000000000000000000000000000000000000000000000000 DUP2 MSTORE PUSH1 0x4 ADD PUSH2 0x8A6 SWAP1 PUSH2 0x1E56 JUMP JUMPDEST PUSH1 0x40 MLOAD DUP1 SWAP2 SUB SWAP1 REVERT JUMPDEST PUSH2 0x8C3 DUP2 PUSH1 0x6 PUSH2 0x191B SWAP1 SWAP2 SWAP1 PUSH4 0xFFFFFFFF AND JUMP JUMPDEST PUSH32 0x4709990004724F283154297C090B8420D74DCBF9FFCD6BC50294E7350C7CB4FC DUP2 PUSH1 0x40 MLOAD PUSH2 0x8F2 SWAP2 SWAP1 PUSH2 0x1D72 JUMP JUMPDEST PUSH1 0x40 MLOAD DUP1 SWAP2 SUB SWAP1 LOG1 POP JUMP JUMPDEST PUSH2 0x905 PUSH2 0x1881 JUMP JUMPDEST PUSH20 0xFFFFFFFFFFFFFFFFFFFFFFFFFFFFFFFFFFFFFFFF AND PUSH2 0x923 PUSH2 0x10D4 JUMP JUMPDEST PUSH20 0xFFFFFFFFFFFFFFFFFFFFFFFFFFFFFFFFFFFFFFFF AND EQ PUSH2 0x979 JUMPI PUSH1 0x40 MLOAD PUSH32 0x8C379A000000000000000000000000000000000000000000000000000000000 DUP2 MSTORE PUSH1 0x4 ADD PUSH2 0x970 SWAP1 PUSH2 0x1DEA JUMP JUMPDEST PUSH1 0x40 MLOAD DUP1 SWAP2 SUB SWAP1 REVERT JUMPDEST PUSH2 0x98D DUP2 PUSH1 0x2 PUSH2 0x191B SWAP1 SWAP2 SWAP1 PUSH4 0xFFFFFFFF AND JUMP JUMPDEST PUSH32 0x3D4E7057F9F992C8D86344002642ADF5D5CD33816B302134E7EF5E0F045A6E78 DUP2 PUSH1 0x40 MLOAD PUSH2 0x9BC SWAP2 SWAP1 PUSH2 0x1D72 JUMP JUMPDEST PUSH1 0x40 MLOAD DUP1 SWAP2 SUB SWAP1 LOG1 POP JUMP JUMPDEST PUSH2 0x9CF PUSH2 0x1881 JUMP JUMPDEST PUSH20 0xFFFFFFFFFFFFFFFFFFFFFFFFFFFFFFFFFFFFFFFF AND PUSH2 0x9ED PUSH2 0x10D4 JUMP JUMPDEST PUSH20 0xFFFFFFFFFFFFFFFFFFFFFFFFFFFFFFFFFFFFFFFF AND EQ PUSH2 0xA43 JUMPI PUSH1 0x40 MLOAD PUSH32 0x8C379A000000000000000000000000000000000000000000000000000000000 DUP2 MSTORE PUSH1 0x4 ADD PUSH2 0xA3A SWAP1 PUSH2 0x1DEA JUMP JUMPDEST PUSH1 0x40 MLOAD DUP1 SWAP2 SUB SWAP1 REVERT JUMPDEST PUSH2 0xA57 DUP2 PUSH1 0x4 PUSH2 0x191B SWAP1 SWAP2 SWAP1 PUSH4 0xFFFFFFFF AND JUMP JUMPDEST PUSH32 0x43DD2F8CE4E5873E618FFABCAE9856729EA5811DBC5E1C9BE4365FCF7B7CF703 DUP2 PUSH1 0x40 MLOAD PUSH2 0xA86 SWAP2 SWAP1 PUSH2 0x1D72 JUMP JUMPDEST PUSH1 0x40 MLOAD DUP1 SWAP2 SUB SWAP1 LOG1 POP JUMP JUMPDEST PUSH1 0x60 PUSH2 0xA9D PUSH1 0x4 PUSH2 0x1889 JUMP JUMPDEST SWAP1 POP SWAP1 JUMP JUMPDEST DUP1 PUSH20 0xFFFFFFFFFFFFFFFFFFFFFFFFFFFFFFFFFFFFFFFF AND CALLER PUSH20 0xFFFFFFFFFFFFFFFFFFFFFFFFFFFFFFFFFFFFFFFF AND EQ PUSH2 0xB10 JUMPI PUSH1 0x40 MLOAD PUSH32 0x8C379A000000000000000000000000000000000000000000000000000000000 DUP2 MSTORE PUSH1 0x4 ADD PUSH2 0xB07 SWAP1 PUSH2 0x1E56 JUMP JUMPDEST PUSH1 0x40 MLOAD DUP1 SWAP2 SUB SWAP1 REVERT JUMPDEST PUSH2 0xB24 DUP2 PUSH1 0x4 PUSH2 0x191B SWAP1 SWAP2 SWAP1 PUSH4 0xFFFFFFFF AND JUMP JUMPDEST PUSH32 0x43DD2F8CE4E5873E618FFABCAE9856729EA5811DBC5E1C9BE4365FCF7B7CF703 DUP2 PUSH1 0x40 MLOAD PUSH2 0xB53 SWAP2 SWAP1 PUSH2 0x1D72 JUMP JUMPDEST PUSH1 0x40 MLOAD DUP1 SWAP2 SUB SWAP1 LOG1 POP JUMP JUMPDEST PUSH1 0x0 PUSH2 0xB74 DUP3 PUSH1 0x5 PUSH2 0x17CA SWAP1 SWAP2 SWAP1 PUSH4 0xFFFFFFFF AND JUMP JUMPDEST SWAP1 POP SWAP2 SWAP1 POP JUMP JUMPDEST PUSH1 0x60 PUSH2 0xB87 PUSH1 0x3 PUSH2 0x1889 JUMP JUMPDEST SWAP1 POP SWAP1 JUMP JUMPDEST PUSH1 0x60 PUSH2 0xB98 PUSH1 0x6 PUSH2 0x1889 JUMP JUMPDEST SWAP1 POP SWAP1 JUMP JUMPDEST PUSH1 0x7 DUP1 PUSH1 0x0 ADD SLOAD SWAP1 POP DUP2 JUMP JUMPDEST PUSH2 0xBB1 PUSH2 0x1881 JUMP JUMPDEST PUSH20 0xFFFFFFFFFFFFFFFFFFFFFFFFFFFFFFFFFFFFFFFF AND PUSH2 0xBCF PUSH2 0x10D4 JUMP JUMPDEST PUSH20 0xFFFFFFFFFFFFFFFFFFFFFFFFFFFFFFFFFFFFFFFF AND EQ PUSH2 0xC25 JUMPI PUSH1 0x40 MLOAD PUSH32 0x8C379A000000000000000000000000000000000000000000000000000000000 DUP2 MSTORE PUSH1 0x4 ADD PUSH2 0xC1C SWAP1 PUSH2 0x1DEA JUMP JUMPDEST PUSH1 0x40 MLOAD DUP1 SWAP2 SUB SWAP1 REVERT JUMPDEST PUSH2 0xC39 DUP2 PUSH1 0x5 PUSH2 0x191B SWAP1 SWAP2 SWAP1 PUSH4 0xFFFFFFFF AND JUMP JUMPDEST PUSH32 0x200C3F073F217CF07DEE57EE6E42C29E5FA6937F536B65C9D1E06BE1F9C83DC1 DUP2 PUSH1 0x40 MLOAD PUSH2 0xC68 SWAP2 SWAP1 PUSH2 0x1D72 JUMP JUMPDEST PUSH1 0x40 MLOAD DUP1 SWAP2 SUB SWAP1 LOG1 POP JUMP JUMPDEST PUSH2 0xC7B PUSH2 0x1881 JUMP JUMPDEST PUSH20 0xFFFFFFFFFFFFFFFFFFFFFFFFFFFFFFFFFFFFFFFF AND PUSH2 0xC99 PUSH2 0x10D4 JUMP JUMPDEST PUSH20 0xFFFFFFFFFFFFFFFFFFFFFFFFFFFFFFFFFFFFFFFF AND EQ PUSH2 0xCEF JUMPI PUSH1 0x40 MLOAD PUSH32 0x8C379A000000000000000000000000000000000000000000000000000000000 DUP2 MSTORE PUSH1 0x4 ADD PUSH2 0xCE6 SWAP1 PUSH2 0x1DEA JUMP JUMPDEST PUSH1 0x40 MLOAD DUP1 SWAP2 SUB SWAP1 REVERT JUMPDEST PUSH2 0xCF9 PUSH1 0x0 PUSH2 0x1AC5 JUMP JUMPDEST JUMP JUMPDEST PUSH2 0xD03 PUSH2 0x1881 JUMP JUMPDEST PUSH20 0xFFFFFFFFFFFFFFFFFFFFFFFFFFFFFFFFFFFFFFFF AND PUSH2 0xD21 PUSH2 0x10D4 JUMP JUMPDEST PUSH20 0xFFFFFFFFFFFFFFFFFFFFFFFFFFFFFFFFFFFFFFFF AND EQ PUSH2 0xD77 JUMPI PUSH1 0x40 MLOAD PUSH32 0x8C379A000000000000000000000000000000000000000000000000000000000 DUP2 MSTORE PUSH1 0x4 ADD PUSH2 0xD6E SWAP1 PUSH2 0x1DEA JUMP JUMPDEST PUSH1 0x40 MLOAD DUP1 SWAP2 SUB SWAP1 REVERT JUMPDEST PUSH2 0xD8B DUP2 PUSH1 0x4 PUSH2 0x1717 SWAP1 SWAP2 SWAP1 PUSH4 0xFFFFFFFF AND JUMP JUMPDEST PUSH32 0x3AFD547F7EB357741DE51229846AE795CB06449E4B4032EB34A7CC0A751E25C1 DUP2 PUSH1 0x40 MLOAD PUSH2 0xDBA SWAP2 SWAP1 PUSH2 0x1D72 JUMP JUMPDEST PUSH1 0x40 MLOAD DUP1 SWAP2 SUB SWAP1 LOG1 POP JUMP JUMPDEST DUP1 PUSH20 0xFFFFFFFFFFFFFFFFFFFFFFFFFFFFFFFFFFFFFFFF AND CALLER PUSH20 0xFFFFFFFFFFFFFFFFFFFFFFFFFFFFFFFFFFFFFFFF AND EQ PUSH2 0xE33 JUMPI PUSH1 0x40 MLOAD PUSH32 0x8C379A000000000000000000000000000000000000000000000000000000000 DUP2 MSTORE PUSH1 0x4 ADD PUSH2 0xE2A SWAP1 PUSH2 0x1E56 JUMP JUMPDEST PUSH1 0x40 MLOAD DUP1 SWAP2 SUB SWAP1 REVERT JUMPDEST PUSH2 0xE47 DUP2 PUSH1 0x3 PUSH2 0x191B SWAP1 SWAP2 SWAP1 PUSH4 0xFFFFFFFF AND JUMP JUMPDEST PUSH32 0xE81CE8E22413EFF3DE3A7B6CD7AECF28AE2D00E44E5E48CD32CA949C7BE314F7 DUP2 PUSH1 0x40 MLOAD PUSH2 0xE76 SWAP2 SWAP1 PUSH2 0x1D72 JUMP JUMPDEST PUSH1 0x40 MLOAD DUP1 SWAP2 SUB SWAP1 LOG1 POP JUMP JUMPDEST PUSH2 0xE89 PUSH2 0x1881 JUMP JUMPDEST PUSH20 0xFFFFFFFFFFFFFFFFFFFFFFFFFFFFFFFFFFFFFFFF AND PUSH2 0xEA7 PUSH2 0x10D4 JUMP JUMPDEST PUSH20 0xFFFFFFFFFFFFFFFFFFFFFFFFFFFFFFFFFFFFFFFF AND EQ PUSH2 0xEFD JUMPI PUSH1 0x40 MLOAD PUSH32 0x8C379A000000000000000000000000000000000000000000000000000000000 DUP2 MSTORE PUSH1 0x4 ADD PUSH2 0xEF4 SWAP1 PUSH2 0x1DEA JUMP JUMPDEST PUSH1 0x40 MLOAD DUP1 SWAP2 SUB SWAP1 REVERT JUMPDEST PUSH2 0xF11 DUP2 PUSH1 0x1 PUSH2 0x1717 SWAP1 SWAP2 SWAP1 PUSH4 0xFFFFFFFF AND JUMP JUMPDEST PUSH32 0x364EE90EB63717B99192FDB951C7B1AA91A45BCA11AC73AB40CFAD762631FBCE DUP2 PUSH1 0x40 MLOAD PUSH2 0xF40 SWAP2 SWAP1 PUSH2 0x1D72 JUMP JUMPDEST PUSH1 0x40 MLOAD DUP1 SWAP2 SUB SWAP1 LOG1 POP JUMP JUMPDEST DUP1 PUSH20 0xFFFFFFFFFFFFFFFFFFFFFFFFFFFFFFFFFFFFFFFF AND CALLER PUSH20 0xFFFFFFFFFFFFFFFFFFFFFFFFFFFFFFFFFFFFFFFF AND EQ PUSH2 0xFB9 JUMPI PUSH1 0x40 MLOAD PUSH32 0x8C379A000000000000000000000000000000000000000000000000000000000 DUP2 MSTORE PUSH1 0x4 ADD PUSH2 0xFB0 SWAP1 PUSH2 0x1E56 JUMP JUMPDEST PUSH1 0x40 MLOAD DUP1 SWAP2 SUB SWAP1 REVERT JUMPDEST PUSH2 0xFCD DUP2 PUSH1 0x2 PUSH2 0x191B SWAP1 SWAP2 SWAP1 PUSH4 0xFFFFFFFF AND JUMP JUMPDEST PUSH32 0x3D4E7057F9F992C8D86344002642ADF5D5CD33816B302134E7EF5E0F045A6E78 DUP2 PUSH1 0x40 MLOAD PUSH2 0xFFC SWAP2 SWAP1 PUSH2 0x1D72 JUMP JUMPDEST PUSH1 0x40 MLOAD DUP1 SWAP2 SUB SWAP1 LOG1 POP JUMP JUMPDEST DUP1 PUSH20 0xFFFFFFFFFFFFFFFFFFFFFFFFFFFFFFFFFFFFFFFF AND CALLER PUSH20 0xFFFFFFFFFFFFFFFFFFFFFFFFFFFFFFFFFFFFFFFF AND EQ PUSH2 0x1075 JUMPI PUSH1 0x40 MLOAD PUSH32 0x8C379A000000000000000000000000000000000000000000000000000000000 DUP2 MSTORE PUSH1 0x4 ADD PUSH2 0x106C SWAP1 PUSH2 0x1E56 JUMP JUMPDEST PUSH1 0x40 MLOAD DUP1 SWAP2 SUB SWAP1 REVERT JUMPDEST PUSH2 0x1089 DUP2 PUSH1 0x1 PUSH2 0x191B SWAP1 SWAP2 SWAP1 PUSH4 0xFFFFFFFF AND JUMP JUMPDEST PUSH32 0x9CFE362D8A536C3B63D391E311186B7F259FDD498EECF5D32626FE9B95058A7D DUP2 PUSH1 0x40 MLOAD PUSH2 0x10B8 SWAP2 SWAP1 PUSH2 0x1D72 JUMP JUMPDEST PUSH1 0x40 MLOAD DUP1 SWAP2 SUB SWAP1 LOG1 POP JUMP JUMPDEST PUSH1 0x60 PUSH2 0x10CF PUSH1 0x2 PUSH2 0x1889 JUMP JUMPDEST SWAP1 POP SWAP1 JUMP JUMPDEST PUSH1 0x0 DUP1 PUSH1 0x0 SWAP1 SLOAD SWAP1 PUSH2 0x100 EXP SWAP1 DIV PUSH20 0xFFFFFFFFFFFFFFFFFFFFFFFFFFFFFFFFFFFFFFFF AND SWAP1 POP SWAP1 JUMP JUMPDEST PUSH2 0x1105 PUSH2 0x1881 JUMP JUMPDEST PUSH20 0xFFFFFFFFFFFFFFFFFFFFFFFFFFFFFFFFFFFFFFFF AND PUSH2 0x1123 PUSH2 0x10D4 JUMP JUMPDEST PUSH20 0xFFFFFFFFFFFFFFFFFFFFFFFFFFFFFFFFFFFFFFFF AND EQ PUSH2 0x1179 JUMPI PUSH1 0x40 MLOAD PUSH32 0x8C379A000000000000000000000000000000000000000000000000000000000 DUP2 MSTORE PUSH1 0x4 ADD PUSH2 0x1170 SWAP1 PUSH2 0x1DEA JUMP JUMPDEST PUSH1 0x40 MLOAD DUP1 SWAP2 SUB SWAP1 REVERT JUMPDEST PUSH2 0x118D DUP2 PUSH1 0x6 PUSH2 0x191B SWAP1 SWAP2 SWAP1 PUSH4 0xFFFFFFFF AND JUMP JUMPDEST PUSH32 0x4709990004724F283154297C090B8420D74DCBF9FFCD6BC50294E7350C7CB4FC DUP2 PUSH1 0x40 MLOAD PUSH2 0x11BC SWAP2 SWAP1 PUSH2 0x1D72 JUMP JUMPDEST PUSH1 0x40 MLOAD DUP1 SWAP2 SUB SWAP1 LOG1 POP JUMP JUMPDEST PUSH2 0x11CF PUSH2 0x1881 JUMP JUMPDEST PUSH20 0xFFFFFFFFFFFFFFFFFFFFFFFFFFFFFFFFFFFFFFFF AND PUSH2 0x11ED PUSH2 0x10D4 JUMP JUMPDEST PUSH20 0xFFFFFFFFFFFFFFFFFFFFFFFFFFFFFFFFFFFFFFFF AND EQ PUSH2 0x1243 JUMPI PUSH1 0x40 MLOAD PUSH32 0x8C379A000000000000000000000000000000000000000000000000000000000 DUP2 MSTORE PUSH1 0x4 ADD PUSH2 0x123A SWAP1 PUSH2 0x1DEA JUMP JUMPDEST PUSH1 0x40 MLOAD DUP1 SWAP2 SUB SWAP1 REVERT JUMPDEST PUSH2 0x1257 DUP2 PUSH1 0x5 PUSH2 0x1717 SWAP1 SWAP2 SWAP1 PUSH4 0xFFFFFFFF AND JUMP JUMPDEST PUSH32 0xEEA60F9E1851B51FEED56C339BE177EA715591923622A0EFFE46DBB8885EFA6 DUP2 PUSH1 0x40 MLOAD PUSH2 0x1286 SWAP2 SWAP1 PUSH2 0x1D72 JUMP JUMPDEST PUSH1 0x40 MLOAD DUP1 SWAP2 SUB SWAP1 LOG1 POP JUMP JUMPDEST PUSH1 0x0 PUSH2 0x12A7 DUP3 PUSH1 0x4 PUSH2 0x17CA SWAP1 SWAP2 SWAP1 PUSH4 0xFFFFFFFF AND JUMP JUMPDEST SWAP1 POP SWAP2 SWAP1 POP JUMP JUMPDEST PUSH2 0x12B6 PUSH2 0x1881 JUMP JUMPDEST PUSH20 0xFFFFFFFFFFFFFFFFFFFFFFFFFFFFFFFFFFFFFFFF AND PUSH2 0x12D4 PUSH2 0x10D4 JUMP JUMPDEST PUSH20 0xFFFFFFFFFFFFFFFFFFFFFFFFFFFFFFFFFFFFFFFF AND EQ PUSH2 0x132A JUMPI PUSH1 0x40 MLOAD PUSH32 0x8C379A000000000000000000000000000000000000000000000000000000000 DUP2 MSTORE PUSH1 0x4 ADD PUSH2 0x1321 SWAP1 PUSH2 0x1DEA JUMP JUMPDEST PUSH1 0x40 MLOAD DUP1 SWAP2 SUB SWAP1 REVERT JUMPDEST PUSH2 0x133E DUP2 PUSH1 0x6 PUSH2 0x1717 SWAP1 SWAP2 SWAP1 PUSH4 0xFFFFFFFF AND JUMP JUMPDEST PUSH32 0x23B2415A50EFD127E694BA174E400D457AD65C58752E171B6D17F3F5DAA26FDB DUP2 PUSH1 0x40 MLOAD PUSH2 0x136D SWAP2 SWAP1 PUSH2 0x1D72 JUMP JUMPDEST PUSH1 0x40 MLOAD DUP1 SWAP2 SUB SWAP1 LOG1 POP JUMP JUMPDEST PUSH1 0x0 PUSH2 0x138E DUP3 PUSH1 0x3 PUSH2 0x17CA SWAP1 SWAP2 SWAP1 PUSH4 0xFFFFFFFF AND JUMP JUMPDEST SWAP1 POP SWAP2 SWAP1 POP JUMP JUMPDEST PUSH1 0x0 PUSH2 0x13AB DUP3 PUSH1 0x1 PUSH2 0x17CA SWAP1 SWAP2 SWAP1 PUSH4 0xFFFFFFFF AND JUMP JUMPDEST SWAP1 POP SWAP2 SWAP1 POP JUMP JUMPDEST PUSH1 0x8 DUP1 PUSH1 0x0 ADD SLOAD SWAP1 POP DUP2 JUMP JUMPDEST PUSH2 0x13C6 PUSH2 0x1881 JUMP JUMPDEST PUSH20 0xFFFFFFFFFFFFFFFFFFFFFFFFFFFFFFFFFFFFFFFF AND PUSH2 0x13E4 PUSH2 0x10D4 JUMP JUMPDEST PUSH20 0xFFFFFFFFFFFFFFFFFFFFFFFFFFFFFFFFFFFFFFFF AND EQ PUSH2 0x143A JUMPI PUSH1 0x40 MLOAD PUSH32 0x8C379A000000000000000000000000000000000000000000000000000000000 DUP2 MSTORE PUSH1 0x4 ADD PUSH2 0x1431 SWAP1 PUSH2 0x1DEA JUMP JUMPDEST PUSH1 0x40 MLOAD DUP1 SWAP2 SUB SWAP1 REVERT JUMPDEST PUSH2 0x144E DUP2 PUSH1 0x1 PUSH2 0x191B SWAP1 SWAP2 SWAP1 PUSH4 0xFFFFFFFF AND JUMP JUMPDEST PUSH32 0x9CFE362D8A536C3B63D391E311186B7F259FDD498EECF5D32626FE9B95058A7D DUP2 PUSH1 0x40 MLOAD PUSH2 0x147D SWAP2 SWAP1 PUSH2 0x1D72 JUMP JUMPDEST PUSH1 0x40 MLOAD DUP1 SWAP2 SUB SWAP1 LOG1 POP JUMP JUMPDEST DUP1 PUSH20 0xFFFFFFFFFFFFFFFFFFFFFFFFFFFFFFFFFFFFFFFF AND CALLER PUSH20 0xFFFFFFFFFFFFFFFFFFFFFFFFFFFFFFFFFFFFFFFF AND EQ PUSH2 0x14F6 JUMPI PUSH1 0x40 MLOAD PUSH32 0x8C379A000000000000000000000000000000000000000000000000000000000 DUP2 MSTORE PUSH1 0x4 ADD PUSH2 0x14ED SWAP1 PUSH2 0x1E56 JUMP JUMPDEST PUSH1 0x40 MLOAD DUP1 SWAP2 SUB SWAP1 REVERT JUMPDEST PUSH2 0x150A DUP2 PUSH1 0x5 PUSH2 0x191B SWAP1 SWAP2 SWAP1 PUSH4 0xFFFFFFFF AND JUMP JUMPDEST PUSH32 0x200C3F073F217CF07DEE57EE6E42C29E5FA6937F536B65C9D1E06BE1F9C83DC1 DUP2 PUSH1 0x40 MLOAD PUSH2 0x1539 SWAP2 SWAP1 PUSH2 0x1D72 JUMP JUMPDEST PUSH1 0x40 MLOAD DUP1 SWAP2 SUB SWAP1 LOG1 POP JUMP JUMPDEST PUSH2 0x154C PUSH2 0x1881 JUMP JUMPDEST PUSH20 0xFFFFFFFFFFFFFFFFFFFFFFFFFFFFFFFFFFFFFFFF AND PUSH2 0x156A PUSH2 0x10D4 JUMP JUMPDEST PUSH20 0xFFFFFFFFFFFFFFFFFFFFFFFFFFFFFFFFFFFFFFFF AND EQ PUSH2 0x15C0 JUMPI PUSH1 0x40 MLOAD PUSH32 0x8C379A000000000000000000000000000000000000000000000000000000000 DUP2 MSTORE PUSH1 0x4 ADD PUSH2 0x15B7 SWAP1 PUSH2 0x1DEA JUMP JUMPDEST PUSH1 0x40 MLOAD DUP1 SWAP2 SUB SWAP1 REVERT JUMPDEST PUSH1 0x0 PUSH20 0xFFFFFFFFFFFFFFFFFFFFFFFFFFFFFFFFFFFFFFFF AND DUP2 PUSH20 0xFFFFFFFFFFFFFFFFFFFFFFFFFFFFFFFFFFFFFFFF AND EQ ISZERO PUSH2 0x1630 JUMPI PUSH1 0x40 MLOAD PUSH32 0x8C379A000000000000000000000000000000000000000000000000000000000 DUP2 MSTORE PUSH1 0x4 ADD PUSH2 0x1627 SWAP1 PUSH2 0x1EE8 JUMP JUMPDEST PUSH1 0x40 MLOAD DUP1 SWAP2 SUB SWAP1 REVERT JUMPDEST PUSH2 0x1639 DUP2 PUSH2 0x1AC5 JUMP JUMPDEST POP JUMP JUMPDEST PUSH2 0x1644 PUSH2 0x1881 JUMP JUMPDEST PUSH20 0xFFFFFFFFFFFFFFFFFFFFFFFFFFFFFFFFFFFFFFFF AND PUSH2 0x1662 PUSH2 0x10D4 JUMP JUMPDEST PUSH20 0xFFFFFFFFFFFFFFFFFFFFFFFFFFFFFFFFFFFFFFFF AND EQ PUSH2 0x16B8 JUMPI PUSH1 0x40 MLOAD PUSH32 0x8C379A000000000000000000000000000000000000000000000000000000000 DUP2 MSTORE PUSH1 0x4 ADD PUSH2 0x16AF SWAP1 PUSH2 0x1DEA JUMP JUMPDEST PUSH1 0x40 MLOAD DUP1 SWAP2 SUB SWAP1 REVERT JUMPDEST PUSH2 0x16CC DUP2 PUSH1 0x3 PUSH2 0x191B SWAP1 SWAP2 SWAP1 PUSH4 0xFFFFFFFF AND JUMP JUMPDEST PUSH32 0xE81CE8E22413EFF3DE3A7B6CD7AECF28AE2D00E44E5E48CD32CA949C7BE314F7 DUP2 PUSH1 0x40 MLOAD PUSH2 0x16FB SWAP2 SWAP1 PUSH2 0x1D72 JUMP JUMPDEST PUSH1 0x40 MLOAD DUP1 SWAP2 SUB SWAP1 LOG1 POP JUMP JUMPDEST PUSH1 0x60 PUSH2 0x1712 PUSH1 0x5 PUSH2 0x1889 JUMP JUMPDEST SWAP1 POP SWAP1 JUMP JUMPDEST PUSH2 0x1721 DUP3 DUP3 PUSH2 0x17CA JUMP JUMPDEST ISZERO PUSH2 0x1761 JUMPI PUSH1 0x40 MLOAD PUSH32 0x8C379A000000000000000000000000000000000000000000000000000000000 DUP2 MSTORE PUSH1 0x4 ADD PUSH2 0x1758 SWAP1 PUSH2 0x1F54 JUMP JUMPDEST PUSH1 0x40 MLOAD DUP1 SWAP2 SUB SWAP1 REVERT JUMPDEST DUP2 PUSH1 0x0 ADD DUP2 SWAP1 DUP1 PUSH1 0x1 DUP2 SLOAD ADD DUP1 DUP3 SSTORE DUP1 SWAP2 POP POP PUSH1 0x1 SWAP1 SUB SWAP1 PUSH1 0x0 MSTORE PUSH1 0x20 PUSH1 0x0 KECCAK256 ADD PUSH1 0x0 SWAP1 SWAP2 SWAP1 SWAP2 SWAP1 SWAP2 PUSH2 0x100 EXP DUP2 SLOAD DUP2 PUSH20 0xFFFFFFFFFFFFFFFFFFFFFFFFFFFFFFFFFFFFFFFF MUL NOT AND SWAP1 DUP4 PUSH20 0xFFFFFFFFFFFFFFFFFFFFFFFFFFFFFFFFFFFFFFFF AND MUL OR SWAP1 SSTORE POP POP POP JUMP JUMPDEST PUSH1 0x0 DUP1 DUP4 PUSH1 0x0 ADD DUP1 SLOAD SWAP1 POP SWAP1 POP PUSH1 0x0 JUMPDEST DUP2 DUP2 LT ISZERO PUSH2 0x1874 JUMPI DUP4 PUSH20 0xFFFFFFFFFFFFFFFFFFFFFFFFFFFFFFFFFFFFFFFF AND DUP6 PUSH1 0x0 ADD DUP3 DUP2 SLOAD DUP2 LT PUSH2 0x180F JUMPI PUSH2 0x180E PUSH2 0x1F74 JUMP JUMPDEST JUMPDEST SWAP1 PUSH1 0x0 MSTORE PUSH1 0x20 PUSH1 0x0 KECCAK256 ADD PUSH1 0x0 SWAP1 SLOAD SWAP1 PUSH2 0x100 EXP SWAP1 DIV PUSH20 0xFFFFFFFFFFFFFFFFFFFFFFFFFFFFFFFFFFFFFFFF AND PUSH20 0xFFFFFFFFFFFFFFFFFFFFFFFFFFFFFFFFFFFFFFFF AND EQ ISZERO PUSH2 0x1861 JUMPI PUSH1 0x1 SWAP3 POP POP POP PUSH2 0x187B JUMP JUMPDEST DUP1 DUP1 PUSH2 0x186C SWAP1 PUSH2 0x1FD2 JUMP JUMPDEST SWAP2 POP POP PUSH2 0x17DA JUMP JUMPDEST POP PUSH1 0x0 SWAP2 POP POP JUMPDEST SWAP3 SWAP2 POP POP JUMP JUMPDEST PUSH1 0x0 CALLER SWAP1 POP SWAP1 JUMP JUMPDEST PUSH1 0x60 DUP2 PUSH1 0x0 ADD DUP1 SLOAD DUP1 PUSH1 0x20 MUL PUSH1 0x20 ADD PUSH1 0x40 MLOAD SWAP1 DUP2 ADD PUSH1 0x40 MSTORE DUP1 SWAP3 SWAP2 SWAP1 DUP2 DUP2 MSTORE PUSH1 0x20 ADD DUP3 DUP1 SLOAD DUP1 ISZERO PUSH2 0x190F JUMPI PUSH1 0x20 MUL DUP3 ADD SWAP2 SWAP1 PUSH1 0x0 MSTORE PUSH1 0x20 PUSH1 0x0 KECCAK256 SWAP1 JUMPDEST DUP2 PUSH1 0x0 SWAP1 SLOAD SWAP1 PUSH2 0x100 EXP SWAP1 DIV PUSH20 0xFFFFFFFFFFFFFFFFFFFFFFFFFFFFFFFFFFFFFFFF AND PUSH20 0xFFFFFFFFFFFFFFFFFFFFFFFFFFFFFFFFFFFFFFFF AND DUP2 MSTORE PUSH1 0x20 ADD SWAP1 PUSH1 0x1 ADD SWAP1 DUP1 DUP4 GT PUSH2 0x18C5 JUMPI JUMPDEST POP POP POP POP POP SWAP1 POP SWAP2 SWAP1 POP JUMP JUMPDEST PUSH1 0x0 DUP3 PUSH1 0x0 ADD DUP1 SLOAD SWAP1 POP SWAP1 POP PUSH1 0x0 DUP1 PUSH1 0x0 SWAP1 POP JUMPDEST DUP3 DUP2 LT ISZERO PUSH2 0x1A75 JUMPI DUP2 ISZERO PUSH2 0x19E9 JUMPI DUP5 PUSH1 0x0 ADD DUP2 DUP2 SLOAD DUP2 LT PUSH2 0x1953 JUMPI PUSH2 0x1952 PUSH2 0x1F74 JUMP JUMPDEST JUMPDEST SWAP1 PUSH1 0x0 MSTORE PUSH1 0x20 PUSH1 0x0 KECCAK256 ADD PUSH1 0x0 SWAP1 SLOAD SWAP1 PUSH2 0x100 EXP SWAP1 DIV PUSH20 0xFFFFFFFFFFFFFFFFFFFFFFFFFFFFFFFFFFFFFFFF AND DUP6 PUSH1 0x0 ADD PUSH1 0x1 DUP4 PUSH2 0x198F SWAP2 SWAP1 PUSH2 0x201B JUMP JUMPDEST DUP2 SLOAD DUP2 LT PUSH2 0x19A0 JUMPI PUSH2 0x199F PUSH2 0x1F74 JUMP JUMPDEST JUMPDEST SWAP1 PUSH1 0x0 MSTORE PUSH1 0x20 PUSH1 0x0 KECCAK256 ADD PUSH1 0x0 PUSH2 0x100 EXP DUP2 SLOAD DUP2 PUSH20 0xFFFFFFFFFFFFFFFFFFFFFFFFFFFFFFFFFFFFFFFF MUL NOT AND SWAP1 DUP4 PUSH20 0xFFFFFFFFFFFFFFFFFFFFFFFFFFFFFFFFFFFFFFFF AND MUL OR SWAP1 SSTORE POP JUMPDEST DUP4 PUSH20 0xFFFFFFFFFFFFFFFFFFFFFFFFFFFFFFFFFFFFFFFF AND DUP6 PUSH1 0x0 ADD DUP3 DUP2 SLOAD DUP2 LT PUSH2 0x1A16 JUMPI PUSH2 0x1A15 PUSH2 0x1F74 JUMP JUMPDEST JUMPDEST SWAP1 PUSH1 0x0 MSTORE PUSH1 0x20 PUSH1 0x0 KECCAK256 ADD PUSH1 0x0 SWAP1 SLOAD SWAP1 PUSH2 0x100 EXP SWAP1 DIV PUSH20 0xFFFFFFFFFFFFFFFFFFFFFFFFFFFFFFFFFFFFFFFF AND PUSH20 0xFFFFFFFFFFFFFFFFFFFFFFFFFFFFFFFFFFFFFFFF AND EQ ISZERO PUSH2 0x1A62 JUMPI PUSH1 0x1 SWAP2 POP JUMPDEST DUP1 DUP1 PUSH2 0x1A6D SWAP1 PUSH2 0x1FD2 JUMP JUMPDEST SWAP2 POP POP PUSH2 0x192F JUMP JUMPDEST POP DUP4 PUSH1 0x0 ADD DUP1 SLOAD DUP1 PUSH2 0x1A8A JUMPI PUSH2 0x1A89 PUSH2 0x204F JUMP JUMPDEST JUMPDEST PUSH1 0x1 SWAP1 SUB DUP2 DUP2 SWAP1 PUSH1 0x0 MSTORE PUSH1 0x20 PUSH1 0x0 KECCAK256 ADD PUSH1 0x0 PUSH2 0x100 EXP DUP2 SLOAD SWAP1 PUSH20 0xFFFFFFFFFFFFFFFFFFFFFFFFFFFFFFFFFFFFFFFF MUL NOT AND SWAP1 SSTORE SWAP1 SSTORE POP POP POP POP JUMP JUMPDEST PUSH1 0x0 DUP1 PUSH1 0x0 SWAP1 SLOAD SWAP1 PUSH2 0x100 EXP SWAP1 DIV PUSH20 0xFFFFFFFFFFFFFFFFFFFFFFFFFFFFFFFFFFFFFFFF AND SWAP1 POP DUP2 PUSH1 0x0 DUP1 PUSH2 0x100 EXP DUP2 SLOAD DUP2 PUSH20 0xFFFFFFFFFFFFFFFFFFFFFFFFFFFFFFFFFFFFFFFF MUL NOT AND SWAP1 DUP4 PUSH20 0xFFFFFFFFFFFFFFFFFFFFFFFFFFFFFFFFFFFFFFFF AND MUL OR SWAP1 SSTORE POP DUP2 PUSH20 0xFFFFFFFFFFFFFFFFFFFFFFFFFFFFFFFFFFFFFFFF AND DUP2 PUSH20 0xFFFFFFFFFFFFFFFFFFFFFFFFFFFFFFFFFFFFFFFF AND PUSH32 0x8BE0079C531659141344CD1FD0A4F28419497F9722A3DAAFE3B4186F6B6457E0 PUSH1 0x40 MLOAD PUSH1 0x40 MLOAD DUP1 SWAP2 SUB SWAP1 LOG3 POP POP JUMP JUMPDEST PUSH1 0x0 DUP1 REVERT JUMPDEST PUSH1 0x0 PUSH20 0xFFFFFFFFFFFFFFFFFFFFFFFFFFFFFFFFFFFFFFFF DUP3 AND SWAP1 POP SWAP2 SWAP1 POP JUMP JUMPDEST PUSH1 0x0 PUSH2 0x1BB9 DUP3 PUSH2 0x1B8E JUMP JUMPDEST SWAP1 POP SWAP2 SWAP1 POP JUMP JUMPDEST PUSH2 0x1BC9 DUP2 PUSH2 0x1BAE JUMP JUMPDEST DUP2 EQ PUSH2 0x1BD4 JUMPI PUSH1 0x0 DUP1 REVERT JUMPDEST POP JUMP JUMPDEST PUSH1 0x0 DUP2 CALLDATALOAD SWAP1 POP PUSH2 0x1BE6 DUP2 PUSH2 0x1BC0 JUMP JUMPDEST SWAP3 SWAP2 POP POP JUMP JUMPDEST PUSH1 0x0 PUSH1 0x20 DUP3 DUP5 SUB SLT ISZERO PUSH2 0x1C02 JUMPI PUSH2 0x1C01 PUSH2 0x1B89 JUMP JUMPDEST JUMPDEST PUSH1 0x0 PUSH2 0x1C10 DUP5 DUP3 DUP6 ADD PUSH2 0x1BD7 JUMP JUMPDEST SWAP2 POP POP SWAP3 SWAP2 POP POP JUMP JUMPDEST PUSH1 0x0 DUP2 ISZERO ISZERO SWAP1 POP SWAP2 SWAP1 POP JUMP JUMPDEST PUSH2 0x1C2E DUP2 PUSH2 0x1C19 JUMP JUMPDEST DUP3 MSTORE POP POP JUMP JUMPDEST PUSH1 0x0 PUSH1 0x20 DUP3 ADD SWAP1 POP PUSH2 0x1C49 PUSH1 0x0 DUP4 ADD DUP5 PUSH2 0x1C25 JUMP JUMPDEST SWAP3 SWAP2 POP POP JUMP JUMPDEST PUSH1 0x0 DUP2 MLOAD SWAP1 POP SWAP2 SWAP1 POP JUMP JUMPDEST PUSH1 0x0 DUP3 DUP3 MSTORE PUSH1 0x20 DUP3 ADD SWAP1 POP SWAP3 SWAP2 POP POP JUMP JUMPDEST PUSH1 0x0 DUP2 SWAP1 POP PUSH1 0x20 DUP3 ADD SWAP1 POP SWAP2 SWAP1 POP JUMP JUMPDEST PUSH2 0x1C84 DUP2 PUSH2 0x1BAE JUMP JUMPDEST DUP3 MSTORE POP POP JUMP JUMPDEST PUSH1 0x0 PUSH2 0x1C96 DUP4 DUP4 PUSH2 0x1C7B JUMP JUMPDEST PUSH1 0x20 DUP4 ADD SWAP1 POP SWAP3 SWAP2 POP POP JUMP JUMPDEST PUSH1 0x0 PUSH1 0x20 DUP3 ADD SWAP1 POP SWAP2 SWAP1 POP JUMP JUMPDEST PUSH1 0x0 PUSH2 0x1CBA DUP3 PUSH2 0x1C4F JUMP JUMPDEST PUSH2 0x1CC4 DUP2 DUP6 PUSH2 0x1C5A JUMP JUMPDEST SWAP4 POP PUSH2 0x1CCF DUP4 PUSH2 0x1C6B JUMP JUMPDEST DUP1 PUSH1 0x0 JUMPDEST DUP4 DUP2 LT ISZERO PUSH2 0x1D00 JUMPI DUP2 MLOAD PUSH2 0x1CE7 DUP9 DUP3 PUSH2 0x1C8A JUMP JUMPDEST SWAP8 POP PUSH2 0x1CF2 DUP4 PUSH2 0x1CA2 JUMP JUMPDEST SWAP3 POP POP PUSH1 0x1 DUP2 ADD SWAP1 POP PUSH2 0x1CD3 JUMP JUMPDEST POP DUP6 SWAP4 POP POP POP POP SWAP3 SWAP2 POP POP JUMP JUMPDEST PUSH1 0x0 PUSH1 0x20 DUP3 ADD SWAP1 POP DUP2 DUP2 SUB PUSH1 0x0 DUP4 ADD MSTORE PUSH2 0x1D27 DUP2 DUP5 PUSH2 0x1CAF JUMP JUMPDEST SWAP1 POP SWAP3 SWAP2 POP POP JUMP JUMPDEST PUSH1 0x0 DUP2 SWAP1 POP SWAP2 SWAP1 POP JUMP JUMPDEST PUSH2 0x1D42 DUP2 PUSH2 0x1D2F JUMP JUMPDEST DUP3 MSTORE POP POP JUMP JUMPDEST PUSH1 0x0 PUSH1 0x20 DUP3 ADD SWAP1 POP PUSH2 0x1D5D PUSH1 0x0 DUP4 ADD DUP5 PUSH2 0x1D39 JUMP JUMPDEST SWAP3 SWAP2 POP POP JUMP JUMPDEST PUSH2 0x1D6C DUP2 PUSH2 0x1BAE JUMP JUMPDEST DUP3 MSTORE POP POP JUMP JUMPDEST PUSH1 0x0 PUSH1 0x20 DUP3 ADD SWAP1 POP PUSH2 0x1D87 PUSH1 0x0 DUP4 ADD DUP5 PUSH2 0x1D63 JUMP JUMPDEST SWAP3 SWAP2 POP POP JUMP JUMPDEST PUSH1 0x0 DUP3 DUP3 MSTORE PUSH1 0x20 DUP3 ADD SWAP1 POP SWAP3 SWAP2 POP POP JUMP JUMPDEST PUSH32 0x4F776E61626C653A2063616C6C6572206973206E6F7420746865206F776E6572 PUSH1 0x0 DUP3 ADD MSTORE POP JUMP JUMPDEST PUSH1 0x0 PUSH2 0x1DD4 PUSH1 0x20 DUP4 PUSH2 0x1D8D JUMP JUMPDEST SWAP2 POP PUSH2 0x1DDF DUP3 PUSH2 0x1D9E JUMP JUMPDEST PUSH1 0x20 DUP3 ADD SWAP1 POP SWAP2 SWAP1 POP JUMP JUMPDEST PUSH1 0x0 PUSH1 0x20 DUP3 ADD SWAP1 POP DUP2 DUP2 SUB PUSH1 0x0 DUP4 ADD MSTORE PUSH2 0x1E03 DUP2 PUSH2 0x1DC7 JUMP JUMPDEST SWAP1 POP SWAP2 SWAP1 POP JUMP JUMPDEST PUSH32 0x594F555F43414E5F4E4F545F524F4D4F56455F544849535F4144445245535300 PUSH1 0x0 DUP3 ADD MSTORE POP JUMP JUMPDEST PUSH1 0x0 PUSH2 0x1E40 PUSH1 0x1F DUP4 PUSH2 0x1D8D JUMP JUMPDEST SWAP2 POP PUSH2 0x1E4B DUP3 PUSH2 0x1E0A JUMP JUMPDEST PUSH1 0x20 DUP3 ADD SWAP1 POP SWAP2 SWAP1 POP JUMP JUMPDEST PUSH1 0x0 PUSH1 0x20 DUP3 ADD SWAP1 POP DUP2 DUP2 SUB PUSH1 0x0 DUP4 ADD MSTORE PUSH2 0x1E6F DUP2 PUSH2 0x1E33 JUMP JUMPDEST SWAP1 POP SWAP2 SWAP1 POP JUMP JUMPDEST PUSH32 0x4F776E61626C653A206E6577206F776E657220697320746865207A65726F2061 PUSH1 0x0 DUP3 ADD MSTORE PUSH32 0x6464726573730000000000000000000000000000000000000000000000000000 PUSH1 0x20 DUP3 ADD MSTORE POP JUMP JUMPDEST PUSH1 0x0 PUSH2 0x1ED2 PUSH1 0x26 DUP4 PUSH2 0x1D8D JUMP JUMPDEST SWAP2 POP PUSH2 0x1EDD DUP3 PUSH2 0x1E76 JUMP JUMPDEST PUSH1 0x40 DUP3 ADD SWAP1 POP SWAP2 SWAP1 POP JUMP JUMPDEST PUSH1 0x0 PUSH1 0x20 DUP3 ADD SWAP1 POP DUP2 DUP2 SUB PUSH1 0x0 DUP4 ADD MSTORE PUSH2 0x1F01 DUP2 PUSH2 0x1EC5 JUMP JUMPDEST SWAP1 POP SWAP2 SWAP1 POP JUMP JUMPDEST PUSH32 0x524F4C455F414C52454144595F45584953545300000000000000000000000000 PUSH1 0x0 DUP3 ADD MSTORE POP JUMP JUMPDEST PUSH1 0x0 PUSH2 0x1F3E PUSH1 0x13 DUP4 PUSH2 0x1D8D JUMP JUMPDEST SWAP2 POP PUSH2 0x1F49 DUP3 PUSH2 0x1F08 JUMP JUMPDEST PUSH1 0x20 DUP3 ADD SWAP1 POP SWAP2 SWAP1 POP JUMP JUMPDEST PUSH1 0x0 PUSH1 0x20 DUP3 ADD SWAP1 POP DUP2 DUP2 SUB PUSH1 0x0 DUP4 ADD MSTORE PUSH2 0x1F6D DUP2 PUSH2 0x1F31 JUMP JUMPDEST SWAP1 POP SWAP2 SWAP1 POP JUMP JUMPDEST PUSH32 0x4E487B7100000000000000000000000000000000000000000000000000000000 PUSH1 0x0 MSTORE PUSH1 0x32 PUSH1 0x4 MSTORE PUSH1 0x24 PUSH1 0x0 REVERT JUMPDEST PUSH32 0x4E487B7100000000000000000000000000000000000000000000000000000000 PUSH1 0x0 MSTORE PUSH1 0x11 PUSH1 0x4 MSTORE PUSH1 0x24 PUSH1 0x0 REVERT JUMPDEST PUSH1 0x0 PUSH2 0x1FDD DUP3 PUSH2 0x1D2F JUMP JUMPDEST SWAP2 POP PUSH32 0xFFFFFFFFFFFFFFFFFFFFFFFFFFFFFFFFFFFFFFFFFFFFFFFFFFFFFFFFFFFFFFFF DUP3 EQ ISZERO PUSH2 0x2010 JUMPI PUSH2 0x200F PUSH2 0x1FA3 JUMP JUMPDEST JUMPDEST PUSH1 0x1 DUP3 ADD SWAP1 POP SWAP2 SWAP1 POP JUMP JUMPDEST PUSH1 0x0 PUSH2 0x2026 DUP3 PUSH2 0x1D2F JUMP JUMPDEST SWAP2 POP PUSH2 0x2031 DUP4 PUSH2 0x1D2F JUMP JUMPDEST SWAP3 POP DUP3 DUP3 LT ISZERO PUSH2 0x2044 JUMPI PUSH2 0x2043 PUSH2 0x1FA3 JUMP JUMPDEST JUMPDEST DUP3 DUP3 SUB SWAP1 POP SWAP3 SWAP2 POP POP JUMP JUMPDEST PUSH32 0x4E487B7100000000000000000000000000000000000000000000000000000000 PUSH1 0x0 MSTORE PUSH1 0x31 PUSH1 0x4 MSTORE PUSH1 0x24 PUSH1 0x0 REVERT INVALID LOG2 PUSH5 0x6970667358 0x22 SLT KECCAK256 KECCAK256 0xCB GASPRICE LOG1 0xC1 0x5D 0xEE 0x49 PUSH2 0x568D PUSH21 0xFFDDC9CD466A995EFC6CCCDEADA584033D64A2B64 PUSH20 0x6F6C634300080800330000000000000000000000 "
        },
        "methodIdentifiers": {
          "addCustomer(address)": "ad973d74",
          "addDistributor(address)": "7250e224",
          "addFactory(address)": "29ce1ec5",
          "addISO(address)": "220fbbe9",
          "addRetailer(address)": "8ec4f505",
          "addWarehouse(address)": "814f696e",
          "getCustomer()": "650d993b",
          "getDistributor()": "5884965f",
          "getFactory()": "88cc58e4",
          "getISO()": "5eb4626f",
          "getRetailer()": "f80d1ff0",
          "getWarehouse()": "2885b943",
          "isCustomer(address)": "28fd5e83",
          "isDistributor(address)": "8f0c86fa",
          "isFactory(address)": "0f04ba67",
          "isISO(address)": "b17b3304",
          "isRetailer(address)": "5da09b88",
          "isWarehouse(address)": "bca4bd50",
          "itemCounter()": "6d6d00ed",
          "owner()": "8da5cb5b",
          "productCode()": "c6a63611",
          "removeCustomer(address)": "8eb06ccf",
          "removeCustomerSelf(address)": "2a7ec29f",
          "removeDistributor(address)": "57c1f9e2",
          "removeDistributorSelf(address)": "5bf27912",
          "removeFactory(address)": "4b37c73f",
          "removeFactorySelf(address)": "84480510",
          "removeISO(address)": "f46d039f",
          "removeISOSelf(address)": "7e90b614",
          "removeRetailer(address)": "70099ec8",
          "removeRetailerSelf(address)": "e7d0831d",
          "removeSelfWarehouse(address)": "8853ad75",
          "removeWarehouse(address)": "e3c1a531",
          "renounceOwnership()": "715018a6",
          "transferOwnership(address)": "f2fde38b"
        }
      }
    }
  }
}