{
  "contracts/Roles/Warehouse.sol": {
    "Warehouse": {
      "abi": [
        {
          "inputs": [],
          "stateMutability": "nonpayable",
          "type": "constructor"
        },
        {
          "anonymous": false,
          "inputs": [
            {
              "indexed": false,
              "internalType": "address",
              "name": "_address",
              "type": "address"
            }
          ],
          "name": "AddWarehouse",
          "type": "event"
        },
        {
          "anonymous": false,
          "inputs": [
            {
              "indexed": true,
              "internalType": "address",
              "name": "previousOwner",
              "type": "address"
            },
            {
              "indexed": true,
              "internalType": "address",
              "name": "newOwner",
              "type": "address"
            }
          ],
          "name": "OwnershipTransferred",
          "type": "event"
        },
        {
          "anonymous": false,
          "inputs": [
            {
              "indexed": false,
              "internalType": "address",
              "name": "_address",
              "type": "address"
            }
          ],
          "name": "RemoveWarehouse",
          "type": "event"
        },
        {
          "inputs": [
            {
              "internalType": "address",
              "name": "_address",
              "type": "address"
            }
          ],
          "name": "addWarehouse",
          "outputs": [],
          "stateMutability": "nonpayable",
          "type": "function"
        },
        {
          "inputs": [],
          "name": "getWarehouse",
          "outputs": [
            {
              "internalType": "address[]",
              "name": "",
              "type": "address[]"
            }
          ],
          "stateMutability": "view",
          "type": "function"
        },
        {
          "inputs": [
            {
              "internalType": "address",
              "name": "_address",
              "type": "address"
            }
          ],
          "name": "isWarehouse",
          "outputs": [
            {
              "internalType": "bool",
              "name": "",
              "type": "bool"
            }
          ],
          "stateMutability": "view",
          "type": "function"
        },
        {
          "inputs": [],
          "name": "owner",
          "outputs": [
            {
              "internalType": "address",
              "name": "",
              "type": "address"
            }
          ],
          "stateMutability": "view",
          "type": "function"
        },
        {
          "inputs": [
            {
              "internalType": "address",
              "name": "_address",
              "type": "address"
            }
          ],
          "name": "removeSelfWarehouse",
          "outputs": [],
          "stateMutability": "nonpayable",
          "type": "function"
        },
        {
          "inputs": [
            {
              "internalType": "address",
              "name": "_address",
              "type": "address"
            }
          ],
          "name": "removeWarehouse",
          "outputs": [],
          "stateMutability": "nonpayable",
          "type": "function"
        },
        {
          "inputs": [],
          "name": "renounceOwnership",
          "outputs": [],
          "stateMutability": "nonpayable",
          "type": "function"
        },
        {
          "inputs": [
            {
              "internalType": "address",
              "name": "newOwner",
              "type": "address"
            }
          ],
          "name": "transferOwnership",
          "outputs": [],
          "stateMutability": "nonpayable",
          "type": "function"
        }
      ],
      "evm": {
        "bytecode": {
          "linkReferences": {},
          "object": "60806040523480156200001157600080fd5b5062000032620000266200004960201b60201c565b6200005160201b60201c565b62000043336200011560201b60201c565b620005af565b600033905090565b60008060009054906101000a900473ffffffffffffffffffffffffffffffffffffffff169050816000806101000a81548173ffffffffffffffffffffffffffffffffffffffff021916908373ffffffffffffffffffffffffffffffffffffffff1602179055508173ffffffffffffffffffffffffffffffffffffffff168173ffffffffffffffffffffffffffffffffffffffff167f8be0079c531659141344cd1fd0a4f28419497f9722a3daafe3b4186f6b6457e060405160405180910390a35050565b620001256200004960201b60201c565b73ffffffffffffffffffffffffffffffffffffffff166200014b620001fb60201b60201c565b73ffffffffffffffffffffffffffffffffffffffff1614620001a4576040517f08c379a00000000000000000000000000000000000000000000000000000000081526004016200019b9062000403565b60405180910390fd5b620001bf8160016200022460201b6200059a1790919060201c565b7f364ee90eb63717b99192fdb951c7b1aa91a45bca11ac73ab40cfad762631fbce81604051620001f091906200046a565b60405180910390a150565b60008060009054906101000a900473ffffffffffffffffffffffffffffffffffffffff16905090565b620002368282620002e260201b60201c565b1562000279576040517f08c379a00000000000000000000000000000000000000000000000000000000081526004016200027090620004d7565b60405180910390fd5b81600001819080600181540180825580915050600190039060005260206000200160009091909190916101000a81548173ffffffffffffffffffffffffffffffffffffffff021916908373ffffffffffffffffffffffffffffffffffffffff1602179055505050565b6000808360000180549050905060005b8181101562000395578373ffffffffffffffffffffffffffffffffffffffff168560000182815481106200032b576200032a620004f9565b5b9060005260206000200160009054906101000a900473ffffffffffffffffffffffffffffffffffffffff1673ffffffffffffffffffffffffffffffffffffffff1614156200037f576001925050506200039c565b80806200038c9062000561565b915050620002f2565b5060009150505b92915050565b600082825260208201905092915050565b7f4f776e61626c653a2063616c6c6572206973206e6f7420746865206f776e6572600082015250565b6000620003eb602083620003a2565b9150620003f882620003b3565b602082019050919050565b600060208201905081810360008301526200041e81620003dc565b9050919050565b600073ffffffffffffffffffffffffffffffffffffffff82169050919050565b6000620004528262000425565b9050919050565b620004648162000445565b82525050565b600060208201905062000481600083018462000459565b92915050565b7f524f4c455f414c52454144595f45584953545300000000000000000000000000600082015250565b6000620004bf601383620003a2565b9150620004cc8262000487565b602082019050919050565b60006020820190508181036000830152620004f281620004b0565b9050919050565b7f4e487b7100000000000000000000000000000000000000000000000000000000600052603260045260246000fd5b7f4e487b7100000000000000000000000000000000000000000000000000000000600052601160045260246000fd5b6000819050919050565b60006200056e8262000557565b91507fffffffffffffffffffffffffffffffffffffffffffffffffffffffffffffffff821415620005a457620005a362000528565b5b600182019050919050565b610f0d80620005bf6000396000f3fe608060405234801561001057600080fd5b50600436106100885760003560e01c80638da5cb5b1161005b5780638da5cb5b146100ed578063bca4bd501461010b578063e3c1a5311461013b578063f2fde38b1461015757610088565b80632885b9431461008d578063715018a6146100ab578063814f696e146100b55780638853ad75146100d1575b600080fd5b610095610173565b6040516100a29190610afc565b60405180910390f35b6100b3610184565b005b6100cf60048036038101906100ca9190610b4f565b61020c565b005b6100eb60048036038101906100e69190610b4f565b6102d6565b005b6100f5610392565b6040516101029190610b8b565b60405180910390f35b61012560048036038101906101209190610b4f565b6103bb565b6040516101329190610bc1565b60405180910390f35b61015560048036038101906101509190610b4f565b6103d8565b005b610171600480360381019061016c9190610b4f565b6104a2565b005b606061017f600161064d565b905090565b61018c6106df565b73ffffffffffffffffffffffffffffffffffffffff166101aa610392565b73ffffffffffffffffffffffffffffffffffffffff1614610200576040517f08c379a00000000000000000000000000000000000000000000000000000000081526004016101f790610c39565b60405180910390fd5b61020a60006106e7565b565b6102146106df565b73ffffffffffffffffffffffffffffffffffffffff16610232610392565b73ffffffffffffffffffffffffffffffffffffffff1614610288576040517f08c379a000000000000000000000000000000000000000000000000000000000815260040161027f90610c39565b60405180910390fd5b61029c81600161059a90919063ffffffff16565b7f364ee90eb63717b99192fdb951c7b1aa91a45bca11ac73ab40cfad762631fbce816040516102cb9190610b8b565b60405180910390a150565b8073ffffffffffffffffffffffffffffffffffffffff163373ffffffffffffffffffffffffffffffffffffffff1614610344576040517f08c379a000000000000000000000000000000000000000000000000000000000815260040161033b90610ca5565b60405180910390fd5b6103588160016107ab90919063ffffffff16565b7f9cfe362d8a536c3b63d391e311186b7f259fdd498eecf5d32626fe9b95058a7d816040516103879190610b8b565b60405180910390a150565b60008060009054906101000a900473ffffffffffffffffffffffffffffffffffffffff16905090565b60006103d182600161095590919063ffffffff16565b9050919050565b6103e06106df565b73ffffffffffffffffffffffffffffffffffffffff166103fe610392565b73ffffffffffffffffffffffffffffffffffffffff1614610454576040517f08c379a000000000000000000000000000000000000000000000000000000000815260040161044b90610c39565b60405180910390fd5b6104688160016107ab90919063ffffffff16565b7f9cfe362d8a536c3b63d391e311186b7f259fdd498eecf5d32626fe9b95058a7d816040516104979190610b8b565b60405180910390a150565b6104aa6106df565b73ffffffffffffffffffffffffffffffffffffffff166104c8610392565b73ffffffffffffffffffffffffffffffffffffffff161461051e576040517f08c379a000000000000000000000000000000000000000000000000000000000815260040161051590610c39565b60405180910390fd5b600073ffffffffffffffffffffffffffffffffffffffff168173ffffffffffffffffffffffffffffffffffffffff16141561058e576040517f08c379a000000000000000000000000000000000000000000000000000000000815260040161058590610d37565b60405180910390fd5b610597816106e7565b50565b6105a48282610955565b156105e4576040517f08c379a00000000000000000000000000000000000000000000000000000000081526004016105db90610da3565b60405180910390fd5b81600001819080600181540180825580915050600190039060005260206000200160009091909190916101000a81548173ffffffffffffffffffffffffffffffffffffffff021916908373ffffffffffffffffffffffffffffffffffffffff1602179055505050565b6060816000018054806020026020016040519081016040528092919081815260200182805480156106d357602002820191906000526020600020905b8160009054906101000a900473ffffffffffffffffffffffffffffffffffffffff1673ffffffffffffffffffffffffffffffffffffffff1681526020019060010190808311610689575b50505050509050919050565b600033905090565b60008060009054906101000a900473ffffffffffffffffffffffffffffffffffffffff169050816000806101000a81548173ffffffffffffffffffffffffffffffffffffffff021916908373ffffffffffffffffffffffffffffffffffffffff1602179055508173ffffffffffffffffffffffffffffffffffffffff168173ffffffffffffffffffffffffffffffffffffffff167f8be0079c531659141344cd1fd0a4f28419497f9722a3daafe3b4186f6b6457e060405160405180910390a35050565b600082600001805490509050600080600090505b82811015610905578115610879578460000181815481106107e3576107e2610dc3565b5b9060005260206000200160009054906101000a900473ffffffffffffffffffffffffffffffffffffffff168560000160018361081f9190610e2b565b815481106108305761082f610dc3565b5b9060005260206000200160006101000a81548173ffffffffffffffffffffffffffffffffffffffff021916908373ffffffffffffffffffffffffffffffffffffffff1602179055505b8373ffffffffffffffffffffffffffffffffffffffff168560000182815481106108a6576108a5610dc3565b5b9060005260206000200160009054906101000a900473ffffffffffffffffffffffffffffffffffffffff1673ffffffffffffffffffffffffffffffffffffffff1614156108f257600191505b80806108fd90610e5f565b9150506107bf565b508360000180548061091a57610919610ea8565b5b6001900381819060005260206000200160006101000a81549073ffffffffffffffffffffffffffffffffffffffff0219169055905550505050565b6000808360000180549050905060005b818110156109ff578373ffffffffffffffffffffffffffffffffffffffff1685600001828154811061099a57610999610dc3565b5b9060005260206000200160009054906101000a900473ffffffffffffffffffffffffffffffffffffffff1673ffffffffffffffffffffffffffffffffffffffff1614156109ec57600192505050610a06565b80806109f790610e5f565b915050610965565b5060009150505b92915050565b600081519050919050565b600082825260208201905092915050565b6000819050602082019050919050565b600073ffffffffffffffffffffffffffffffffffffffff82169050919050565b6000610a6382610a38565b9050919050565b610a7381610a58565b82525050565b6000610a858383610a6a565b60208301905092915050565b6000602082019050919050565b6000610aa982610a0c565b610ab38185610a17565b9350610abe83610a28565b8060005b83811015610aef578151610ad68882610a79565b9750610ae183610a91565b925050600181019050610ac2565b5085935050505092915050565b60006020820190508181036000830152610b168184610a9e565b905092915050565b600080fd5b610b2c81610a58565b8114610b3757600080fd5b50565b600081359050610b4981610b23565b92915050565b600060208284031215610b6557610b64610b1e565b5b6000610b7384828501610b3a565b91505092915050565b610b8581610a58565b82525050565b6000602082019050610ba06000830184610b7c565b92915050565b60008115159050919050565b610bbb81610ba6565b82525050565b6000602082019050610bd66000830184610bb2565b92915050565b600082825260208201905092915050565b7f4f776e61626c653a2063616c6c6572206973206e6f7420746865206f776e6572600082015250565b6000610c23602083610bdc565b9150610c2e82610bed565b602082019050919050565b60006020820190508181036000830152610c5281610c16565b9050919050565b7f594f555f43414e5f4e4f545f524f4d4f56455f544849535f4144445245535300600082015250565b6000610c8f601f83610bdc565b9150610c9a82610c59565b602082019050919050565b60006020820190508181036000830152610cbe81610c82565b9050919050565b7f4f776e61626c653a206e6577206f776e657220697320746865207a65726f206160008201527f6464726573730000000000000000000000000000000000000000000000000000602082015250565b6000610d21602683610bdc565b9150610d2c82610cc5565b604082019050919050565b60006020820190508181036000830152610d5081610d14565b9050919050565b7f524f4c455f414c52454144595f45584953545300000000000000000000000000600082015250565b6000610d8d601383610bdc565b9150610d9882610d57565b602082019050919050565b60006020820190508181036000830152610dbc81610d80565b9050919050565b7f4e487b7100000000000000000000000000000000000000000000000000000000600052603260045260246000fd5b6000819050919050565b7f4e487b7100000000000000000000000000000000000000000000000000000000600052601160045260246000fd5b6000610e3682610df2565b9150610e4183610df2565b925082821015610e5457610e53610dfc565b5b828203905092915050565b6000610e6a82610df2565b91507fffffffffffffffffffffffffffffffffffffffffffffffffffffffffffffffff821415610e9d57610e9c610dfc565b5b600182019050919050565b7f4e487b7100000000000000000000000000000000000000000000000000000000600052603160045260246000fdfea2646970667358221220382a0ddb6c8e234a013d7de49860a28366fa36cad87b0173df753f6a5c8dd61d64736f6c63430008080033",
          "opcodes": "PUSH1 0x80 PUSH1 0x40 MSTORE CALLVALUE DUP1 ISZERO PUSH3 0x11 JUMPI PUSH1 0x0 DUP1 REVERT JUMPDEST POP PUSH3 0x32 PUSH3 0x26 PUSH3 0x49 PUSH1 0x20 SHL PUSH1 0x20 SHR JUMP JUMPDEST PUSH3 0x51 PUSH1 0x20 SHL PUSH1 0x20 SHR JUMP JUMPDEST PUSH3 0x43 CALLER PUSH3 0x115 PUSH1 0x20 SHL PUSH1 0x20 SHR JUMP JUMPDEST PUSH3 0x5AF JUMP JUMPDEST PUSH1 0x0 CALLER SWAP1 POP SWAP1 JUMP JUMPDEST PUSH1 0x0 DUP1 PUSH1 0x0 SWAP1 SLOAD SWAP1 PUSH2 0x100 EXP SWAP1 DIV PUSH20 0xFFFFFFFFFFFFFFFFFFFFFFFFFFFFFFFFFFFFFFFF AND SWAP1 POP DUP2 PUSH1 0x0 DUP1 PUSH2 0x100 EXP DUP2 SLOAD DUP2 PUSH20 0xFFFFFFFFFFFFFFFFFFFFFFFFFFFFFFFFFFFFFFFF MUL NOT AND SWAP1 DUP4 PUSH20 0xFFFFFFFFFFFFFFFFFFFFFFFFFFFFFFFFFFFFFFFF AND MUL OR SWAP1 SSTORE POP DUP2 PUSH20 0xFFFFFFFFFFFFFFFFFFFFFFFFFFFFFFFFFFFFFFFF AND DUP2 PUSH20 0xFFFFFFFFFFFFFFFFFFFFFFFFFFFFFFFFFFFFFFFF AND PUSH32 0x8BE0079C531659141344CD1FD0A4F28419497F9722A3DAAFE3B4186F6B6457E0 PUSH1 0x40 MLOAD PUSH1 0x40 MLOAD DUP1 SWAP2 SUB SWAP1 LOG3 POP POP JUMP JUMPDEST PUSH3 0x125 PUSH3 0x49 PUSH1 0x20 SHL PUSH1 0x20 SHR JUMP JUMPDEST PUSH20 0xFFFFFFFFFFFFFFFFFFFFFFFFFFFFFFFFFFFFFFFF AND PUSH3 0x14B PUSH3 0x1FB PUSH1 0x20 SHL PUSH1 0x20 SHR JUMP JUMPDEST PUSH20 0xFFFFFFFFFFFFFFFFFFFFFFFFFFFFFFFFFFFFFFFF AND EQ PUSH3 0x1A4 JUMPI PUSH1 0x40 MLOAD PUSH32 0x8C379A000000000000000000000000000000000000000000000000000000000 DUP2 MSTORE PUSH1 0x4 ADD PUSH3 0x19B SWAP1 PUSH3 0x403 JUMP JUMPDEST PUSH1 0x40 MLOAD DUP1 SWAP2 SUB SWAP1 REVERT JUMPDEST PUSH3 0x1BF DUP2 PUSH1 0x1 PUSH3 0x224 PUSH1 0x20 SHL PUSH3 0x59A OR SWAP1 SWAP2 SWAP1 PUSH1 0x20 SHR JUMP JUMPDEST PUSH32 0x364EE90EB63717B99192FDB951C7B1AA91A45BCA11AC73AB40CFAD762631FBCE DUP2 PUSH1 0x40 MLOAD PUSH3 0x1F0 SWAP2 SWAP1 PUSH3 0x46A JUMP JUMPDEST PUSH1 0x40 MLOAD DUP1 SWAP2 SUB SWAP1 LOG1 POP JUMP JUMPDEST PUSH1 0x0 DUP1 PUSH1 0x0 SWAP1 SLOAD SWAP1 PUSH2 0x100 EXP SWAP1 DIV PUSH20 0xFFFFFFFFFFFFFFFFFFFFFFFFFFFFFFFFFFFFFFFF AND SWAP1 POP SWAP1 JUMP JUMPDEST PUSH3 0x236 DUP3 DUP3 PUSH3 0x2E2 PUSH1 0x20 SHL PUSH1 0x20 SHR JUMP JUMPDEST ISZERO PUSH3 0x279 JUMPI PUSH1 0x40 MLOAD PUSH32 0x8C379A000000000000000000000000000000000000000000000000000000000 DUP2 MSTORE PUSH1 0x4 ADD PUSH3 0x270 SWAP1 PUSH3 0x4D7 JUMP JUMPDEST PUSH1 0x40 MLOAD DUP1 SWAP2 SUB SWAP1 REVERT JUMPDEST DUP2 PUSH1 0x0 ADD DUP2 SWAP1 DUP1 PUSH1 0x1 DUP2 SLOAD ADD DUP1 DUP3 SSTORE DUP1 SWAP2 POP POP PUSH1 0x1 SWAP1 SUB SWAP1 PUSH1 0x0 MSTORE PUSH1 0x20 PUSH1 0x0 KECCAK256 ADD PUSH1 0x0 SWAP1 SWAP2 SWAP1 SWAP2 SWAP1 SWAP2 PUSH2 0x100 EXP DUP2 SLOAD DUP2 PUSH20 0xFFFFFFFFFFFFFFFFFFFFFFFFFFFFFFFFFFFFFFFF MUL NOT AND SWAP1 DUP4 PUSH20 0xFFFFFFFFFFFFFFFFFFFFFFFFFFFFFFFFFFFFFFFF AND MUL OR SWAP1 SSTORE POP POP POP JUMP JUMPDEST PUSH1 0x0 DUP1 DUP4 PUSH1 0x0 ADD DUP1 SLOAD SWAP1 POP SWAP1 POP PUSH1 0x0 JUMPDEST DUP2 DUP2 LT ISZERO PUSH3 0x395 JUMPI DUP4 PUSH20 0xFFFFFFFFFFFFFFFFFFFFFFFFFFFFFFFFFFFFFFFF AND DUP6 PUSH1 0x0 ADD DUP3 DUP2 SLOAD DUP2 LT PUSH3 0x32B JUMPI PUSH3 0x32A PUSH3 0x4F9 JUMP JUMPDEST JUMPDEST SWAP1 PUSH1 0x0 MSTORE PUSH1 0x20 PUSH1 0x0 KECCAK256 ADD PUSH1 0x0 SWAP1 SLOAD SWAP1 PUSH2 0x100 EXP SWAP1 DIV PUSH20 0xFFFFFFFFFFFFFFFFFFFFFFFFFFFFFFFFFFFFFFFF AND PUSH20 0xFFFFFFFFFFFFFFFFFFFFFFFFFFFFFFFFFFFFFFFF AND EQ ISZERO PUSH3 0x37F JUMPI PUSH1 0x1 SWAP3 POP POP POP PUSH3 0x39C JUMP JUMPDEST DUP1 DUP1 PUSH3 0x38C SWAP1 PUSH3 0x561 JUMP JUMPDEST SWAP2 POP POP PUSH3 0x2F2 JUMP JUMPDEST POP PUSH1 0x0 SWAP2 POP POP JUMPDEST SWAP3 SWAP2 POP POP JUMP JUMPDEST PUSH1 0x0 DUP3 DUP3 MSTORE PUSH1 0x20 DUP3 ADD SWAP1 POP SWAP3 SWAP2 POP POP JUMP JUMPDEST PUSH32 0x4F776E61626C653A2063616C6C6572206973206E6F7420746865206F776E6572 PUSH1 0x0 DUP3 ADD MSTORE POP JUMP JUMPDEST PUSH1 0x0 PUSH3 0x3EB PUSH1 0x20 DUP4 PUSH3 0x3A2 JUMP JUMPDEST SWAP2 POP PUSH3 0x3F8 DUP3 PUSH3 0x3B3 JUMP JUMPDEST PUSH1 0x20 DUP3 ADD SWAP1 POP SWAP2 SWAP1 POP JUMP JUMPDEST PUSH1 0x0 PUSH1 0x20 DUP3 ADD SWAP1 POP DUP2 DUP2 SUB PUSH1 0x0 DUP4 ADD MSTORE PUSH3 0x41E DUP2 PUSH3 0x3DC JUMP JUMPDEST SWAP1 POP SWAP2 SWAP1 POP JUMP JUMPDEST PUSH1 0x0 PUSH20 0xFFFFFFFFFFFFFFFFFFFFFFFFFFFFFFFFFFFFFFFF DUP3 AND SWAP1 POP SWAP2 SWAP1 POP JUMP JUMPDEST PUSH1 0x0 PUSH3 0x452 DUP3 PUSH3 0x425 JUMP JUMPDEST SWAP1 POP SWAP2 SWAP1 POP JUMP JUMPDEST PUSH3 0x464 DUP2 PUSH3 0x445 JUMP JUMPDEST DUP3 MSTORE POP POP JUMP JUMPDEST PUSH1 0x0 PUSH1 0x20 DUP3 ADD SWAP1 POP PUSH3 0x481 PUSH1 0x0 DUP4 ADD DUP5 PUSH3 0x459 JUMP JUMPDEST SWAP3 SWAP2 POP POP JUMP JUMPDEST PUSH32 0x524F4C455F414C52454144595F45584953545300000000000000000000000000 PUSH1 0x0 DUP3 ADD MSTORE POP JUMP JUMPDEST PUSH1 0x0 PUSH3 0x4BF PUSH1 0x13 DUP4 PUSH3 0x3A2 JUMP JUMPDEST SWAP2 POP PUSH3 0x4CC DUP3 PUSH3 0x487 JUMP JUMPDEST PUSH1 0x20 DUP3 ADD SWAP1 POP SWAP2 SWAP1 POP JUMP JUMPDEST PUSH1 0x0 PUSH1 0x20 DUP3 ADD SWAP1 POP DUP2 DUP2 SUB PUSH1 0x0 DUP4 ADD MSTORE PUSH3 0x4F2 DUP2 PUSH3 0x4B0 JUMP JUMPDEST SWAP1 POP SWAP2 SWAP1 POP JUMP JUMPDEST PUSH32 0x4E487B7100000000000000000000000000000000000000000000000000000000 PUSH1 0x0 MSTORE PUSH1 0x32 PUSH1 0x4 MSTORE PUSH1 0x24 PUSH1 0x0 REVERT JUMPDEST PUSH32 0x4E487B7100000000000000000000000000000000000000000000000000000000 PUSH1 0x0 MSTORE PUSH1 0x11 PUSH1 0x4 MSTORE PUSH1 0x24 PUSH1 0x0 REVERT JUMPDEST PUSH1 0x0 DUP2 SWAP1 POP SWAP2 SWAP1 POP JUMP JUMPDEST PUSH1 0x0 PUSH3 0x56E DUP3 PUSH3 0x557 JUMP JUMPDEST SWAP2 POP PUSH32 0xFFFFFFFFFFFFFFFFFFFFFFFFFFFFFFFFFFFFFFFFFFFFFFFFFFFFFFFFFFFFFFFF DUP3 EQ ISZERO PUSH3 0x5A4 JUMPI PUSH3 0x5A3 PUSH3 0x528 JUMP JUMPDEST JUMPDEST PUSH1 0x1 DUP3 ADD SWAP1 POP SWAP2 SWAP1 POP JUMP JUMPDEST PUSH2 0xF0D DUP1 PUSH3 0x5BF PUSH1 0x0 CODECOPY PUSH1 0x0 RETURN INVALID PUSH1 0x80 PUSH1 0x40 MSTORE CALLVALUE DUP1 ISZERO PUSH2 0x10 JUMPI PUSH1 0x0 DUP1 REVERT JUMPDEST POP PUSH1 0x4 CALLDATASIZE LT PUSH2 0x88 JUMPI PUSH1 0x0 CALLDATALOAD PUSH1 0xE0 SHR DUP1 PUSH4 0x8DA5CB5B GT PUSH2 0x5B JUMPI DUP1 PUSH4 0x8DA5CB5B EQ PUSH2 0xED JUMPI DUP1 PUSH4 0xBCA4BD50 EQ PUSH2 0x10B JUMPI DUP1 PUSH4 0xE3C1A531 EQ PUSH2 0x13B JUMPI DUP1 PUSH4 0xF2FDE38B EQ PUSH2 0x157 JUMPI PUSH2 0x88 JUMP JUMPDEST DUP1 PUSH4 0x2885B943 EQ PUSH2 0x8D JUMPI DUP1 PUSH4 0x715018A6 EQ PUSH2 0xAB JUMPI DUP1 PUSH4 0x814F696E EQ PUSH2 0xB5 JUMPI DUP1 PUSH4 0x8853AD75 EQ PUSH2 0xD1 JUMPI JUMPDEST PUSH1 0x0 DUP1 REVERT JUMPDEST PUSH2 0x95 PUSH2 0x173 JUMP JUMPDEST PUSH1 0x40 MLOAD PUSH2 0xA2 SWAP2 SWAP1 PUSH2 0xAFC JUMP JUMPDEST PUSH1 0x40 MLOAD DUP1 SWAP2 SUB SWAP1 RETURN JUMPDEST PUSH2 0xB3 PUSH2 0x184 JUMP JUMPDEST STOP JUMPDEST PUSH2 0xCF PUSH1 0x4 DUP1 CALLDATASIZE SUB DUP2 ADD SWAP1 PUSH2 0xCA SWAP2 SWAP1 PUSH2 0xB4F JUMP JUMPDEST PUSH2 0x20C JUMP JUMPDEST STOP JUMPDEST PUSH2 0xEB PUSH1 0x4 DUP1 CALLDATASIZE SUB DUP2 ADD SWAP1 PUSH2 0xE6 SWAP2 SWAP1 PUSH2 0xB4F JUMP JUMPDEST PUSH2 0x2D6 JUMP JUMPDEST STOP JUMPDEST PUSH2 0xF5 PUSH2 0x392 JUMP JUMPDEST PUSH1 0x40 MLOAD PUSH2 0x102 SWAP2 SWAP1 PUSH2 0xB8B JUMP JUMPDEST PUSH1 0x40 MLOAD DUP1 SWAP2 SUB SWAP1 RETURN JUMPDEST PUSH2 0x125 PUSH1 0x4 DUP1 CALLDATASIZE SUB DUP2 ADD SWAP1 PUSH2 0x120 SWAP2 SWAP1 PUSH2 0xB4F JUMP JUMPDEST PUSH2 0x3BB JUMP JUMPDEST PUSH1 0x40 MLOAD PUSH2 0x132 SWAP2 SWAP1 PUSH2 0xBC1 JUMP JUMPDEST PUSH1 0x40 MLOAD DUP1 SWAP2 SUB SWAP1 RETURN JUMPDEST PUSH2 0x155 PUSH1 0x4 DUP1 CALLDATASIZE SUB DUP2 ADD SWAP1 PUSH2 0x150 SWAP2 SWAP1 PUSH2 0xB4F JUMP JUMPDEST PUSH2 0x3D8 JUMP JUMPDEST STOP JUMPDEST PUSH2 0x171 PUSH1 0x4 DUP1 CALLDATASIZE SUB DUP2 ADD SWAP1 PUSH2 0x16C SWAP2 SWAP1 PUSH2 0xB4F JUMP JUMPDEST PUSH2 0x4A2 JUMP JUMPDEST STOP JUMPDEST PUSH1 0x60 PUSH2 0x17F PUSH1 0x1 PUSH2 0x64D JUMP JUMPDEST SWAP1 POP SWAP1 JUMP JUMPDEST PUSH2 0x18C PUSH2 0x6DF JUMP JUMPDEST PUSH20 0xFFFFFFFFFFFFFFFFFFFFFFFFFFFFFFFFFFFFFFFF AND PUSH2 0x1AA PUSH2 0x392 JUMP JUMPDEST PUSH20 0xFFFFFFFFFFFFFFFFFFFFFFFFFFFFFFFFFFFFFFFF AND EQ PUSH2 0x200 JUMPI PUSH1 0x40 MLOAD PUSH32 0x8C379A000000000000000000000000000000000000000000000000000000000 DUP2 MSTORE PUSH1 0x4 ADD PUSH2 0x1F7 SWAP1 PUSH2 0xC39 JUMP JUMPDEST PUSH1 0x40 MLOAD DUP1 SWAP2 SUB SWAP1 REVERT JUMPDEST PUSH2 0x20A PUSH1 0x0 PUSH2 0x6E7 JUMP JUMPDEST JUMP JUMPDEST PUSH2 0x214 PUSH2 0x6DF JUMP JUMPDEST PUSH20 0xFFFFFFFFFFFFFFFFFFFFFFFFFFFFFFFFFFFFFFFF AND PUSH2 0x232 PUSH2 0x392 JUMP JUMPDEST PUSH20 0xFFFFFFFFFFFFFFFFFFFFFFFFFFFFFFFFFFFFFFFF AND EQ PUSH2 0x288 JUMPI PUSH1 0x40 MLOAD PUSH32 0x8C379A000000000000000000000000000000000000000000000000000000000 DUP2 MSTORE PUSH1 0x4 ADD PUSH2 0x27F SWAP1 PUSH2 0xC39 JUMP JUMPDEST PUSH1 0x40 MLOAD DUP1 SWAP2 SUB SWAP1 REVERT JUMPDEST PUSH2 0x29C DUP2 PUSH1 0x1 PUSH2 0x59A SWAP1 SWAP2 SWAP1 PUSH4 0xFFFFFFFF AND JUMP JUMPDEST PUSH32 0x364EE90EB63717B99192FDB951C7B1AA91A45BCA11AC73AB40CFAD762631FBCE DUP2 PUSH1 0x40 MLOAD PUSH2 0x2CB SWAP2 SWAP1 PUSH2 0xB8B JUMP JUMPDEST PUSH1 0x40 MLOAD DUP1 SWAP2 SUB SWAP1 LOG1 POP JUMP JUMPDEST DUP1 PUSH20 0xFFFFFFFFFFFFFFFFFFFFFFFFFFFFFFFFFFFFFFFF AND CALLER PUSH20 0xFFFFFFFFFFFFFFFFFFFFFFFFFFFFFFFFFFFFFFFF AND EQ PUSH2 0x344 JUMPI PUSH1 0x40 MLOAD PUSH32 0x8C379A000000000000000000000000000000000000000000000000000000000 DUP2 MSTORE PUSH1 0x4 ADD PUSH2 0x33B SWAP1 PUSH2 0xCA5 JUMP JUMPDEST PUSH1 0x40 MLOAD DUP1 SWAP2 SUB SWAP1 REVERT JUMPDEST PUSH2 0x358 DUP2 PUSH1 0x1 PUSH2 0x7AB SWAP1 SWAP2 SWAP1 PUSH4 0xFFFFFFFF AND JUMP JUMPDEST PUSH32 0x9CFE362D8A536C3B63D391E311186B7F259FDD498EECF5D32626FE9B95058A7D DUP2 PUSH1 0x40 MLOAD PUSH2 0x387 SWAP2 SWAP1 PUSH2 0xB8B JUMP JUMPDEST PUSH1 0x40 MLOAD DUP1 SWAP2 SUB SWAP1 LOG1 POP JUMP JUMPDEST PUSH1 0x0 DUP1 PUSH1 0x0 SWAP1 SLOAD SWAP1 PUSH2 0x100 EXP SWAP1 DIV PUSH20 0xFFFFFFFFFFFFFFFFFFFFFFFFFFFFFFFFFFFFFFFF AND SWAP1 POP SWAP1 JUMP JUMPDEST PUSH1 0x0 PUSH2 0x3D1 DUP3 PUSH1 0x1 PUSH2 0x955 SWAP1 SWAP2 SWAP1 PUSH4 0xFFFFFFFF AND JUMP JUMPDEST SWAP1 POP SWAP2 SWAP1 POP JUMP JUMPDEST PUSH2 0x3E0 PUSH2 0x6DF JUMP JUMPDEST PUSH20 0xFFFFFFFFFFFFFFFFFFFFFFFFFFFFFFFFFFFFFFFF AND PUSH2 0x3FE PUSH2 0x392 JUMP JUMPDEST PUSH20 0xFFFFFFFFFFFFFFFFFFFFFFFFFFFFFFFFFFFFFFFF AND EQ PUSH2 0x454 JUMPI PUSH1 0x40 MLOAD PUSH32 0x8C379A000000000000000000000000000000000000000000000000000000000 DUP2 MSTORE PUSH1 0x4 ADD PUSH2 0x44B SWAP1 PUSH2 0xC39 JUMP JUMPDEST PUSH1 0x40 MLOAD DUP1 SWAP2 SUB SWAP1 REVERT JUMPDEST PUSH2 0x468 DUP2 PUSH1 0x1 PUSH2 0x7AB SWAP1 SWAP2 SWAP1 PUSH4 0xFFFFFFFF AND JUMP JUMPDEST PUSH32 0x9CFE362D8A536C3B63D391E311186B7F259FDD498EECF5D32626FE9B95058A7D DUP2 PUSH1 0x40 MLOAD PUSH2 0x497 SWAP2 SWAP1 PUSH2 0xB8B JUMP JUMPDEST PUSH1 0x40 MLOAD DUP1 SWAP2 SUB SWAP1 LOG1 POP JUMP JUMPDEST PUSH2 0x4AA PUSH2 0x6DF JUMP JUMPDEST PUSH20 0xFFFFFFFFFFFFFFFFFFFFFFFFFFFFFFFFFFFFFFFF AND PUSH2 0x4C8 PUSH2 0x392 JUMP JUMPDEST PUSH20 0xFFFFFFFFFFFFFFFFFFFFFFFFFFFFFFFFFFFFFFFF AND EQ PUSH2 0x51E JUMPI PUSH1 0x40 MLOAD PUSH32 0x8C379A000000000000000000000000000000000000000000000000000000000 DUP2 MSTORE PUSH1 0x4 ADD PUSH2 0x515 SWAP1 PUSH2 0xC39 JUMP JUMPDEST PUSH1 0x40 MLOAD DUP1 SWAP2 SUB SWAP1 REVERT JUMPDEST PUSH1 0x0 PUSH20 0xFFFFFFFFFFFFFFFFFFFFFFFFFFFFFFFFFFFFFFFF AND DUP2 PUSH20 0xFFFFFFFFFFFFFFFFFFFFFFFFFFFFFFFFFFFFFFFF AND EQ ISZERO PUSH2 0x58E JUMPI PUSH1 0x40 MLOAD PUSH32 0x8C379A000000000000000000000000000000000000000000000000000000000 DUP2 MSTORE PUSH1 0x4 ADD PUSH2 0x585 SWAP1 PUSH2 0xD37 JUMP JUMPDEST PUSH1 0x40 MLOAD DUP1 SWAP2 SUB SWAP1 REVERT JUMPDEST PUSH2 0x597 DUP2 PUSH2 0x6E7 JUMP JUMPDEST POP JUMP JUMPDEST PUSH2 0x5A4 DUP3 DUP3 PUSH2 0x955 JUMP JUMPDEST ISZERO PUSH2 0x5E4 JUMPI PUSH1 0x40 MLOAD PUSH32 0x8C379A000000000000000000000000000000000000000000000000000000000 DUP2 MSTORE PUSH1 0x4 ADD PUSH2 0x5DB SWAP1 PUSH2 0xDA3 JUMP JUMPDEST PUSH1 0x40 MLOAD DUP1 SWAP2 SUB SWAP1 REVERT JUMPDEST DUP2 PUSH1 0x0 ADD DUP2 SWAP1 DUP1 PUSH1 0x1 DUP2 SLOAD ADD DUP1 DUP3 SSTORE DUP1 SWAP2 POP POP PUSH1 0x1 SWAP1 SUB SWAP1 PUSH1 0x0 MSTORE PUSH1 0x20 PUSH1 0x0 KECCAK256 ADD PUSH1 0x0 SWAP1 SWAP2 SWAP1 SWAP2 SWAP1 SWAP2 PUSH2 0x100 EXP DUP2 SLOAD DUP2 PUSH20 0xFFFFFFFFFFFFFFFFFFFFFFFFFFFFFFFFFFFFFFFF MUL NOT AND SWAP1 DUP4 PUSH20 0xFFFFFFFFFFFFFFFFFFFFFFFFFFFFFFFFFFFFFFFF AND MUL OR SWAP1 SSTORE POP POP POP JUMP JUMPDEST PUSH1 0x60 DUP2 PUSH1 0x0 ADD DUP1 SLOAD DUP1 PUSH1 0x20 MUL PUSH1 0x20 ADD PUSH1 0x40 MLOAD SWAP1 DUP2 ADD PUSH1 0x40 MSTORE DUP1 SWAP3 SWAP2 SWAP1 DUP2 DUP2 MSTORE PUSH1 0x20 ADD DUP3 DUP1 SLOAD DUP1 ISZERO PUSH2 0x6D3 JUMPI PUSH1 0x20 MUL DUP3 ADD SWAP2 SWAP1 PUSH1 0x0 MSTORE PUSH1 0x20 PUSH1 0x0 KECCAK256 SWAP1 JUMPDEST DUP2 PUSH1 0x0 SWAP1 SLOAD SWAP1 PUSH2 0x100 EXP SWAP1 DIV PUSH20 0xFFFFFFFFFFFFFFFFFFFFFFFFFFFFFFFFFFFFFFFF AND PUSH20 0xFFFFFFFFFFFFFFFFFFFFFFFFFFFFFFFFFFFFFFFF AND DUP2 MSTORE PUSH1 0x20 ADD SWAP1 PUSH1 0x1 ADD SWAP1 DUP1 DUP4 GT PUSH2 0x689 JUMPI JUMPDEST POP POP POP POP POP SWAP1 POP SWAP2 SWAP1 POP JUMP JUMPDEST PUSH1 0x0 CALLER SWAP1 POP SWAP1 JUMP JUMPDEST PUSH1 0x0 DUP1 PUSH1 0x0 SWAP1 SLOAD SWAP1 PUSH2 0x100 EXP SWAP1 DIV PUSH20 0xFFFFFFFFFFFFFFFFFFFFFFFFFFFFFFFFFFFFFFFF AND SWAP1 POP DUP2 PUSH1 0x0 DUP1 PUSH2 0x100 EXP DUP2 SLOAD DUP2 PUSH20 0xFFFFFFFFFFFFFFFFFFFFFFFFFFFFFFFFFFFFFFFF MUL NOT AND SWAP1 DUP4 PUSH20 0xFFFFFFFFFFFFFFFFFFFFFFFFFFFFFFFFFFFFFFFF AND MUL OR SWAP1 SSTORE POP DUP2 PUSH20 0xFFFFFFFFFFFFFFFFFFFFFFFFFFFFFFFFFFFFFFFF AND DUP2 PUSH20 0xFFFFFFFFFFFFFFFFFFFFFFFFFFFFFFFFFFFFFFFF AND PUSH32 0x8BE0079C531659141344CD1FD0A4F28419497F9722A3DAAFE3B4186F6B6457E0 PUSH1 0x40 MLOAD PUSH1 0x40 MLOAD DUP1 SWAP2 SUB SWAP1 LOG3 POP POP JUMP JUMPDEST PUSH1 0x0 DUP3 PUSH1 0x0 ADD DUP1 SLOAD SWAP1 POP SWAP1 POP PUSH1 0x0 DUP1 PUSH1 0x0 SWAP1 POP JUMPDEST DUP3 DUP2 LT ISZERO PUSH2 0x905 JUMPI DUP2 ISZERO PUSH2 0x879 JUMPI DUP5 PUSH1 0x0 ADD DUP2 DUP2 SLOAD DUP2 LT PUSH2 0x7E3 JUMPI PUSH2 0x7E2 PUSH2 0xDC3 JUMP JUMPDEST JUMPDEST SWAP1 PUSH1 0x0 MSTORE PUSH1 0x20 PUSH1 0x0 KECCAK256 ADD PUSH1 0x0 SWAP1 SLOAD SWAP1 PUSH2 0x100 EXP SWAP1 DIV PUSH20 0xFFFFFFFFFFFFFFFFFFFFFFFFFFFFFFFFFFFFFFFF AND DUP6 PUSH1 0x0 ADD PUSH1 0x1 DUP4 PUSH2 0x81F SWAP2 SWAP1 PUSH2 0xE2B JUMP JUMPDEST DUP2 SLOAD DUP2 LT PUSH2 0x830 JUMPI PUSH2 0x82F PUSH2 0xDC3 JUMP JUMPDEST JUMPDEST SWAP1 PUSH1 0x0 MSTORE PUSH1 0x20 PUSH1 0x0 KECCAK256 ADD PUSH1 0x0 PUSH2 0x100 EXP DUP2 SLOAD DUP2 PUSH20 0xFFFFFFFFFFFFFFFFFFFFFFFFFFFFFFFFFFFFFFFF MUL NOT AND SWAP1 DUP4 PUSH20 0xFFFFFFFFFFFFFFFFFFFFFFFFFFFFFFFFFFFFFFFF AND MUL OR SWAP1 SSTORE POP JUMPDEST DUP4 PUSH20 0xFFFFFFFFFFFFFFFFFFFFFFFFFFFFFFFFFFFFFFFF AND DUP6 PUSH1 0x0 ADD DUP3 DUP2 SLOAD DUP2 LT PUSH2 0x8A6 JUMPI PUSH2 0x8A5 PUSH2 0xDC3 JUMP JUMPDEST JUMPDEST SWAP1 PUSH1 0x0 MSTORE PUSH1 0x20 PUSH1 0x0 KECCAK256 ADD PUSH1 0x0 SWAP1 SLOAD SWAP1 PUSH2 0x100 EXP SWAP1 DIV PUSH20 0xFFFFFFFFFFFFFFFFFFFFFFFFFFFFFFFFFFFFFFFF AND PUSH20 0xFFFFFFFFFFFFFFFFFFFFFFFFFFFFFFFFFFFFFFFF AND EQ ISZERO PUSH2 0x8F2 JUMPI PUSH1 0x1 SWAP2 POP JUMPDEST DUP1 DUP1 PUSH2 0x8FD SWAP1 PUSH2 0xE5F JUMP JUMPDEST SWAP2 POP POP PUSH2 0x7BF JUMP JUMPDEST POP DUP4 PUSH1 0x0 ADD DUP1 SLOAD DUP1 PUSH2 0x91A JUMPI PUSH2 0x919 PUSH2 0xEA8 JUMP JUMPDEST JUMPDEST PUSH1 0x1 SWAP1 SUB DUP2 DUP2 SWAP1 PUSH1 0x0 MSTORE PUSH1 0x20 PUSH1 0x0 KECCAK256 ADD PUSH1 0x0 PUSH2 0x100 EXP DUP2 SLOAD SWAP1 PUSH20 0xFFFFFFFFFFFFFFFFFFFFFFFFFFFFFFFFFFFFFFFF MUL NOT AND SWAP1 SSTORE SWAP1 SSTORE POP POP POP POP JUMP JUMPDEST PUSH1 0x0 DUP1 DUP4 PUSH1 0x0 ADD DUP1 SLOAD SWAP1 POP SWAP1 POP PUSH1 0x0 JUMPDEST DUP2 DUP2 LT ISZERO PUSH2 0x9FF JUMPI DUP4 PUSH20 0xFFFFFFFFFFFFFFFFFFFFFFFFFFFFFFFFFFFFFFFF AND DUP6 PUSH1 0x0 ADD DUP3 DUP2 SLOAD DUP2 LT PUSH2 0x99A JUMPI PUSH2 0x999 PUSH2 0xDC3 JUMP JUMPDEST JUMPDEST SWAP1 PUSH1 0x0 MSTORE PUSH1 0x20 PUSH1 0x0 KECCAK256 ADD PUSH1 0x0 SWAP1 SLOAD SWAP1 PUSH2 0x100 EXP SWAP1 DIV PUSH20 0xFFFFFFFFFFFFFFFFFFFFFFFFFFFFFFFFFFFFFFFF AND PUSH20 0xFFFFFFFFFFFFFFFFFFFFFFFFFFFFFFFFFFFFFFFF AND EQ ISZERO PUSH2 0x9EC JUMPI PUSH1 0x1 SWAP3 POP POP POP PUSH2 0xA06 JUMP JUMPDEST DUP1 DUP1 PUSH2 0x9F7 SWAP1 PUSH2 0xE5F JUMP JUMPDEST SWAP2 POP POP PUSH2 0x965 JUMP JUMPDEST POP PUSH1 0x0 SWAP2 POP POP JUMPDEST SWAP3 SWAP2 POP POP JUMP JUMPDEST PUSH1 0x0 DUP2 MLOAD SWAP1 POP SWAP2 SWAP1 POP JUMP JUMPDEST PUSH1 0x0 DUP3 DUP3 MSTORE PUSH1 0x20 DUP3 ADD SWAP1 POP SWAP3 SWAP2 POP POP JUMP JUMPDEST PUSH1 0x0 DUP2 SWAP1 POP PUSH1 0x20 DUP3 ADD SWAP1 POP SWAP2 SWAP1 POP JUMP JUMPDEST PUSH1 0x0 PUSH20 0xFFFFFFFFFFFFFFFFFFFFFFFFFFFFFFFFFFFFFFFF DUP3 AND SWAP1 POP SWAP2 SWAP1 POP JUMP JUMPDEST PUSH1 0x0 PUSH2 0xA63 DUP3 PUSH2 0xA38 JUMP JUMPDEST SWAP1 POP SWAP2 SWAP1 POP JUMP JUMPDEST PUSH2 0xA73 DUP2 PUSH2 0xA58 JUMP JUMPDEST DUP3 MSTORE POP POP JUMP JUMPDEST PUSH1 0x0 PUSH2 0xA85 DUP4 DUP4 PUSH2 0xA6A JUMP JUMPDEST PUSH1 0x20 DUP4 ADD SWAP1 POP SWAP3 SWAP2 POP POP JUMP JUMPDEST PUSH1 0x0 PUSH1 0x20 DUP3 ADD SWAP1 POP SWAP2 SWAP1 POP JUMP JUMPDEST PUSH1 0x0 PUSH2 0xAA9 DUP3 PUSH2 0xA0C JUMP JUMPDEST PUSH2 0xAB3 DUP2 DUP6 PUSH2 0xA17 JUMP JUMPDEST SWAP4 POP PUSH2 0xABE DUP4 PUSH2 0xA28 JUMP JUMPDEST DUP1 PUSH1 0x0 JUMPDEST DUP4 DUP2 LT ISZERO PUSH2 0xAEF JUMPI DUP2 MLOAD PUSH2 0xAD6 DUP9 DUP3 PUSH2 0xA79 JUMP JUMPDEST SWAP8 POP PUSH2 0xAE1 DUP4 PUSH2 0xA91 JUMP JUMPDEST SWAP3 POP POP PUSH1 0x1 DUP2 ADD SWAP1 POP PUSH2 0xAC2 JUMP JUMPDEST POP DUP6 SWAP4 POP POP POP POP SWAP3 SWAP2 POP POP JUMP JUMPDEST PUSH1 0x0 PUSH1 0x20 DUP3 ADD SWAP1 POP DUP2 DUP2 SUB PUSH1 0x0 DUP4 ADD MSTORE PUSH2 0xB16 DUP2 DUP5 PUSH2 0xA9E JUMP JUMPDEST SWAP1 POP SWAP3 SWAP2 POP POP JUMP JUMPDEST PUSH1 0x0 DUP1 REVERT JUMPDEST PUSH2 0xB2C DUP2 PUSH2 0xA58 JUMP JUMPDEST DUP2 EQ PUSH2 0xB37 JUMPI PUSH1 0x0 DUP1 REVERT JUMPDEST POP JUMP JUMPDEST PUSH1 0x0 DUP2 CALLDATALOAD SWAP1 POP PUSH2 0xB49 DUP2 PUSH2 0xB23 JUMP JUMPDEST SWAP3 SWAP2 POP POP JUMP JUMPDEST PUSH1 0x0 PUSH1 0x20 DUP3 DUP5 SUB SLT ISZERO PUSH2 0xB65 JUMPI PUSH2 0xB64 PUSH2 0xB1E JUMP JUMPDEST JUMPDEST PUSH1 0x0 PUSH2 0xB73 DUP5 DUP3 DUP6 ADD PUSH2 0xB3A JUMP JUMPDEST SWAP2 POP POP SWAP3 SWAP2 POP POP JUMP JUMPDEST PUSH2 0xB85 DUP2 PUSH2 0xA58 JUMP JUMPDEST DUP3 MSTORE POP POP JUMP JUMPDEST PUSH1 0x0 PUSH1 0x20 DUP3 ADD SWAP1 POP PUSH2 0xBA0 PUSH1 0x0 DUP4 ADD DUP5 PUSH2 0xB7C JUMP JUMPDEST SWAP3 SWAP2 POP POP JUMP JUMPDEST PUSH1 0x0 DUP2 ISZERO ISZERO SWAP1 POP SWAP2 SWAP1 POP JUMP JUMPDEST PUSH2 0xBBB DUP2 PUSH2 0xBA6 JUMP JUMPDEST DUP3 MSTORE POP POP JUMP JUMPDEST PUSH1 0x0 PUSH1 0x20 DUP3 ADD SWAP1 POP PUSH2 0xBD6 PUSH1 0x0 DUP4 ADD DUP5 PUSH2 0xBB2 JUMP JUMPDEST SWAP3 SWAP2 POP POP JUMP JUMPDEST PUSH1 0x0 DUP3 DUP3 MSTORE PUSH1 0x20 DUP3 ADD SWAP1 POP SWAP3 SWAP2 POP POP JUMP JUMPDEST PUSH32 0x4F776E61626C653A2063616C6C6572206973206E6F7420746865206F776E6572 PUSH1 0x0 DUP3 ADD MSTORE POP JUMP JUMPDEST PUSH1 0x0 PUSH2 0xC23 PUSH1 0x20 DUP4 PUSH2 0xBDC JUMP JUMPDEST SWAP2 POP PUSH2 0xC2E DUP3 PUSH2 0xBED JUMP JUMPDEST PUSH1 0x20 DUP3 ADD SWAP1 POP SWAP2 SWAP1 POP JUMP JUMPDEST PUSH1 0x0 PUSH1 0x20 DUP3 ADD SWAP1 POP DUP2 DUP2 SUB PUSH1 0x0 DUP4 ADD MSTORE PUSH2 0xC52 DUP2 PUSH2 0xC16 JUMP JUMPDEST SWAP1 POP SWAP2 SWAP1 POP JUMP JUMPDEST PUSH32 0x594F555F43414E5F4E4F545F524F4D4F56455F544849535F4144445245535300 PUSH1 0x0 DUP3 ADD MSTORE POP JUMP JUMPDEST PUSH1 0x0 PUSH2 0xC8F PUSH1 0x1F DUP4 PUSH2 0xBDC JUMP JUMPDEST SWAP2 POP PUSH2 0xC9A DUP3 PUSH2 0xC59 JUMP JUMPDEST PUSH1 0x20 DUP3 ADD SWAP1 POP SWAP2 SWAP1 POP JUMP JUMPDEST PUSH1 0x0 PUSH1 0x20 DUP3 ADD SWAP1 POP DUP2 DUP2 SUB PUSH1 0x0 DUP4 ADD MSTORE PUSH2 0xCBE DUP2 PUSH2 0xC82 JUMP JUMPDEST SWAP1 POP SWAP2 SWAP1 POP JUMP JUMPDEST PUSH32 0x4F776E61626C653A206E6577206F776E657220697320746865207A65726F2061 PUSH1 0x0 DUP3 ADD MSTORE PUSH32 0x6464726573730000000000000000000000000000000000000000000000000000 PUSH1 0x20 DUP3 ADD MSTORE POP JUMP JUMPDEST PUSH1 0x0 PUSH2 0xD21 PUSH1 0x26 DUP4 PUSH2 0xBDC JUMP JUMPDEST SWAP2 POP PUSH2 0xD2C DUP3 PUSH2 0xCC5 JUMP JUMPDEST PUSH1 0x40 DUP3 ADD SWAP1 POP SWAP2 SWAP1 POP JUMP JUMPDEST PUSH1 0x0 PUSH1 0x20 DUP3 ADD SWAP1 POP DUP2 DUP2 SUB PUSH1 0x0 DUP4 ADD MSTORE PUSH2 0xD50 DUP2 PUSH2 0xD14 JUMP JUMPDEST SWAP1 POP SWAP2 SWAP1 POP JUMP JUMPDEST PUSH32 0x524F4C455F414C52454144595F45584953545300000000000000000000000000 PUSH1 0x0 DUP3 ADD MSTORE POP JUMP JUMPDEST PUSH1 0x0 PUSH2 0xD8D PUSH1 0x13 DUP4 PUSH2 0xBDC JUMP JUMPDEST SWAP2 POP PUSH2 0xD98 DUP3 PUSH2 0xD57 JUMP JUMPDEST PUSH1 0x20 DUP3 ADD SWAP1 POP SWAP2 SWAP1 POP JUMP JUMPDEST PUSH1 0x0 PUSH1 0x20 DUP3 ADD SWAP1 POP DUP2 DUP2 SUB PUSH1 0x0 DUP4 ADD MSTORE PUSH2 0xDBC DUP2 PUSH2 0xD80 JUMP JUMPDEST SWAP1 POP SWAP2 SWAP1 POP JUMP JUMPDEST PUSH32 0x4E487B7100000000000000000000000000000000000000000000000000000000 PUSH1 0x0 MSTORE PUSH1 0x32 PUSH1 0x4 MSTORE PUSH1 0x24 PUSH1 0x0 REVERT JUMPDEST PUSH1 0x0 DUP2 SWAP1 POP SWAP2 SWAP1 POP JUMP JUMPDEST PUSH32 0x4E487B7100000000000000000000000000000000000000000000000000000000 PUSH1 0x0 MSTORE PUSH1 0x11 PUSH1 0x4 MSTORE PUSH1 0x24 PUSH1 0x0 REVERT JUMPDEST PUSH1 0x0 PUSH2 0xE36 DUP3 PUSH2 0xDF2 JUMP JUMPDEST SWAP2 POP PUSH2 0xE41 DUP4 PUSH2 0xDF2 JUMP JUMPDEST SWAP3 POP DUP3 DUP3 LT ISZERO PUSH2 0xE54 JUMPI PUSH2 0xE53 PUSH2 0xDFC JUMP JUMPDEST JUMPDEST DUP3 DUP3 SUB SWAP1 POP SWAP3 SWAP2 POP POP JUMP JUMPDEST PUSH1 0x0 PUSH2 0xE6A DUP3 PUSH2 0xDF2 JUMP JUMPDEST SWAP2 POP PUSH32 0xFFFFFFFFFFFFFFFFFFFFFFFFFFFFFFFFFFFFFFFFFFFFFFFFFFFFFFFFFFFFFFFF DUP3 EQ ISZERO PUSH2 0xE9D JUMPI PUSH2 0xE9C PUSH2 0xDFC JUMP JUMPDEST JUMPDEST PUSH1 0x1 DUP3 ADD SWAP1 POP SWAP2 SWAP1 POP JUMP JUMPDEST PUSH32 0x4E487B7100000000000000000000000000000000000000000000000000000000 PUSH1 0x0 MSTORE PUSH1 0x31 PUSH1 0x4 MSTORE PUSH1 0x24 PUSH1 0x0 REVERT INVALID LOG2 PUSH5 0x6970667358 0x22 SLT KECCAK256 CODESIZE 0x2A 0xD 0xDB PUSH13 0x8E234A013D7DE49860A28366FA CALLDATASIZE 0xCA 0xD8 PUSH28 0x173DF753F6A5C8DD61D64736F6C6343000808003300000000000000 "
        },
        "methodIdentifiers": {
          "addWarehouse(address)": "814f696e",
          "getWarehouse()": "2885b943",
          "isWarehouse(address)": "bca4bd50",
          "owner()": "8da5cb5b",
          "removeSelfWarehouse(address)": "8853ad75",
          "removeWarehouse(address)": "e3c1a531",
          "renounceOwnership()": "715018a6",
          "transferOwnership(address)": "f2fde38b"
        }
      }
    }
  }
}