{
  "_format": "hh-sol-artifact-1",
  "contractName": "ERC1155",
  "sourceName": "contracts/SupplyChainERC1155.sol",
  "abi": [
    {
      "inputs": [],
      "stateMutability": "nonpayable",
      "type": "constructor"
    },
    {
      "inputs": [
        {
          "internalType": "address",
          "name": "account",
          "type": "address"
        },
        {
          "internalType": "uint256",
          "name": "id",
          "type": "uint256"
        }
      ],
      "name": "balanceOf",
      "outputs": [
        {
          "internalType": "uint256",
          "name": "",
          "type": "uint256"
        }
      ],
      "stateMutability": "view",
      "type": "function"
    },
    {
      "inputs": [
        {
          "internalType": "address",
          "name": "owner",
          "type": "address"
        }
      ],
      "name": "getMySupplyTokens",
      "outputs": [
        {
          "internalType": "uint256[]",
          "name": "",
          "type": "uint256[]"
        }
      ],
      "stateMutability": "view",
      "type": "function"
    },
    {
      "inputs": [
        {
          "internalType": "address",
          "name": "account",
          "type": "address"
        },
        {
          "internalType": "address",
          "name": "operator",
          "type": "address"
        }
      ],
      "name": "isApprovedForAll",
      "outputs": [
        {
          "internalType": "bool",
          "name": "",
          "type": "bool"
        }
      ],
      "stateMutability": "view",
      "type": "function"
    },
    {
      "inputs": [
        {
          "internalType": "address",
          "name": "from",
          "type": "address"
        },
        {
          "internalType": "address",
          "name": "to",
          "type": "address"
        },
        {
          "internalType": "uint256",
          "name": "id",
          "type": "uint256"
        },
        {
          "internalType": "uint256",
          "name": "amount",
          "type": "uint256"
        },
        {
          "internalType": "bytes",
          "name": "data",
          "type": "bytes"
        },
        {
          "internalType": "uint256",
          "name": "counter",
          "type": "uint256"
        }
      ],
      "name": "safeTransferFrom",
      "outputs": [],
      "stateMutability": "nonpayable",
      "type": "function"
    },
    {
      "inputs": [
        {
          "internalType": "address",
          "name": "operator",
          "type": "address"
        },
        {
          "internalType": "bool",
          "name": "approved",
          "type": "bool"
        }
      ],
      "name": "setApprovalForAll",
      "outputs": [],
      "stateMutability": "nonpayable",
      "type": "function"
    },
    {
      "inputs": [],
      "name": "totalNFT",
      "outputs": [
        {
          "internalType": "uint256",
          "name": "",
          "type": "uint256"
        }
      ],
      "stateMutability": "view",
      "type": "function"
    }
  ],
  "bytecode": "0x608060405234801561001057600080fd5b50610f95806100206000396000f3fe608060405234801561001057600080fd5b50600436106100605760003560e01c806245637914610065578062fdd58e1461008357806397dc4a0a146100b3578063a22cb465146100e3578063e51a27ce146100ff578063e985e9c51461011b575b600080fd5b61006d61014b565b60405161007a9190610718565b60405180910390f35b61009d600480360381019061009891906107d1565b610151565b6040516100aa9190610718565b60405180910390f35b6100cd60048036038101906100c89190610811565b61021a565b6040516100da91906108fc565b60405180910390f35b6100fd60048036038101906100f89190610956565b6102b1565b005b61011960048036038101906101149190610adc565b6102c7565b005b61013560048036038101906101309190610b85565b61036a565b6040516101429190610bd4565b60405180910390f35b60025481565b60008073ffffffffffffffffffffffffffffffffffffffff168373ffffffffffffffffffffffffffffffffffffffff1614156101c2576040517f08c379a00000000000000000000000000000000000000000000000000000000081526004016101b990610c72565b60405180910390fd5b60008083815260200190815260200160002060008473ffffffffffffffffffffffffffffffffffffffff1673ffffffffffffffffffffffffffffffffffffffff16815260200190815260200160002054905092915050565b6060600360008373ffffffffffffffffffffffffffffffffffffffff1673ffffffffffffffffffffffffffffffffffffffff1681526020019081526020016000208054806020026020016040519081016040528092919081815260200182805480156102a557602002820191906000526020600020905b815481526020019060010190808311610291575b50505050509050919050565b6102c36102bc6103fe565b8383610406565b5050565b6102cf6103fe565b73ffffffffffffffffffffffffffffffffffffffff168673ffffffffffffffffffffffffffffffffffffffff16148061031557506103148661030f6103fe565b61036a565b5b610354576040517f08c379a000000000000000000000000000000000000000000000000000000000815260040161034b90610d04565b60405180910390fd5b61036286868686868661050e565b505050505050565b6000600160008473ffffffffffffffffffffffffffffffffffffffff1673ffffffffffffffffffffffffffffffffffffffff16815260200190815260200160002060008373ffffffffffffffffffffffffffffffffffffffff1673ffffffffffffffffffffffffffffffffffffffff16815260200190815260200160002060009054906101000a900460ff16905092915050565b600033905090565b8173ffffffffffffffffffffffffffffffffffffffff168373ffffffffffffffffffffffffffffffffffffffff161415610475576040517f08c379a000000000000000000000000000000000000000000000000000000000815260040161046c90610d96565b60405180910390fd5b80600160008573ffffffffffffffffffffffffffffffffffffffff1673ffffffffffffffffffffffffffffffffffffffff16815260200190815260200160002060008473ffffffffffffffffffffffffffffffffffffffff1673ffffffffffffffffffffffffffffffffffffffff16815260200190815260200160002060006101000a81548160ff021916908315150217905550505050565b600073ffffffffffffffffffffffffffffffffffffffff168573ffffffffffffffffffffffffffffffffffffffff16141561057e576040517f08c379a000000000000000000000000000000000000000000000000000000000815260040161057590610e28565b60405180910390fd5b60006105886103fe565b9050610599818888888888886106f6565b600080600087815260200190815260200160002060008973ffffffffffffffffffffffffffffffffffffffff1673ffffffffffffffffffffffffffffffffffffffff16815260200190815260200160002054905084811015610630576040517f08c379a000000000000000000000000000000000000000000000000000000000815260040161062790610eba565b60405180910390fd5b84810360008088815260200190815260200160002060008a73ffffffffffffffffffffffffffffffffffffffff1673ffffffffffffffffffffffffffffffffffffffff168152602001908152602001600020819055508460008088815260200190815260200160002060008973ffffffffffffffffffffffffffffffffffffffff1673ffffffffffffffffffffffffffffffffffffffff16815260200190815260200160002060008282546106e59190610f09565b925050819055505050505050505050565b50505050505050565b6000819050919050565b610712816106ff565b82525050565b600060208201905061072d6000830184610709565b92915050565b6000604051905090565b600080fd5b600080fd5b600073ffffffffffffffffffffffffffffffffffffffff82169050919050565b600061077282610747565b9050919050565b61078281610767565b811461078d57600080fd5b50565b60008135905061079f81610779565b92915050565b6107ae816106ff565b81146107b957600080fd5b50565b6000813590506107cb816107a5565b92915050565b600080604083850312156107e8576107e761073d565b5b60006107f685828601610790565b9250506020610807858286016107bc565b9150509250929050565b6000602082840312156108275761082661073d565b5b600061083584828501610790565b91505092915050565b600081519050919050565b600082825260208201905092915050565b6000819050602082019050919050565b610873816106ff565b82525050565b6000610885838361086a565b60208301905092915050565b6000602082019050919050565b60006108a98261083e565b6108b38185610849565b93506108be8361085a565b8060005b838110156108ef5781516108d68882610879565b97506108e183610891565b9250506001810190506108c2565b5085935050505092915050565b60006020820190508181036000830152610916818461089e565b905092915050565b60008115159050919050565b6109338161091e565b811461093e57600080fd5b50565b6000813590506109508161092a565b92915050565b6000806040838503121561096d5761096c61073d565b5b600061097b85828601610790565b925050602061098c85828601610941565b9150509250929050565b600080fd5b600080fd5b6000601f19601f8301169050919050565b7f4e487b7100000000000000000000000000000000000000000000000000000000600052604160045260246000fd5b6109e9826109a0565b810181811067ffffffffffffffff82111715610a0857610a076109b1565b5b80604052505050565b6000610a1b610733565b9050610a2782826109e0565b919050565b600067ffffffffffffffff821115610a4757610a466109b1565b5b610a50826109a0565b9050602081019050919050565b82818337600083830152505050565b6000610a7f610a7a84610a2c565b610a11565b905082815260208101848484011115610a9b57610a9a61099b565b5b610aa6848285610a5d565b509392505050565b600082601f830112610ac357610ac2610996565b5b8135610ad3848260208601610a6c565b91505092915050565b60008060008060008060c08789031215610af957610af861073d565b5b6000610b0789828a01610790565b9650506020610b1889828a01610790565b9550506040610b2989828a016107bc565b9450506060610b3a89828a016107bc565b935050608087013567ffffffffffffffff811115610b5b57610b5a610742565b5b610b6789828a01610aae565b92505060a0610b7889828a016107bc565b9150509295509295509295565b60008060408385031215610b9c57610b9b61073d565b5b6000610baa85828601610790565b9250506020610bbb85828601610790565b9150509250929050565b610bce8161091e565b82525050565b6000602082019050610be96000830184610bc5565b92915050565b600082825260208201905092915050565b7f455243313135353a2062616c616e636520717565727920666f7220746865207a60008201527f65726f2061646472657373000000000000000000000000000000000000000000602082015250565b6000610c5c602b83610bef565b9150610c6782610c00565b604082019050919050565b60006020820190508181036000830152610c8b81610c4f565b9050919050565b7f455243313135353a2063616c6c6572206973206e6f74206f776e6572206e6f7260008201527f20617070726f7665640000000000000000000000000000000000000000000000602082015250565b6000610cee602983610bef565b9150610cf982610c92565b604082019050919050565b60006020820190508181036000830152610d1d81610ce1565b9050919050565b7f455243313135353a2073657474696e6720617070726f76616c2073746174757360008201527f20666f722073656c660000000000000000000000000000000000000000000000602082015250565b6000610d80602983610bef565b9150610d8b82610d24565b604082019050919050565b60006020820190508181036000830152610daf81610d73565b9050919050565b7f455243313135353a207472616e7366657220746f20746865207a65726f20616460008201527f6472657373000000000000000000000000000000000000000000000000000000602082015250565b6000610e12602583610bef565b9150610e1d82610db6565b604082019050919050565b60006020820190508181036000830152610e4181610e05565b9050919050565b7f455243313135353a20696e73756666696369656e742062616c616e636520666f60008201527f72207472616e7366657200000000000000000000000000000000000000000000602082015250565b6000610ea4602a83610bef565b9150610eaf82610e48565b604082019050919050565b60006020820190508181036000830152610ed381610e97565b9050919050565b7f4e487b7100000000000000000000000000000000000000000000000000000000600052601160045260246000fd5b6000610f14826106ff565b9150610f1f836106ff565b9250827fffffffffffffffffffffffffffffffffffffffffffffffffffffffffffffffff03821115610f5457610f53610eda565b5b82820190509291505056fea2646970667358221220e3e974005237bae498ec9d063a5e36c1a7b3fb3636556bf041208ccce904079364736f6c63430008080033",
  "linkReferences": {},
  "deployedLinkReferences": {}
}