{
  "_format": "hh-sol-artifact-1",
  "contractName": "SupplyChainToken",
  "sourceName": "contracts/SupplyChainERC1155.sol",
  "abi": [
    {
      "inputs": [],
      "stateMutability": "nonpayable",
      "type": "constructor"
    },
    {
      "anonymous": false,
      "inputs": [
        {
          "indexed": true,
          "internalType": "address",
          "name": "account",
          "type": "address"
        },
        {
          "indexed": true,
          "internalType": "address",
          "name": "operator",
          "type": "address"
        },
        {
          "indexed": false,
          "internalType": "bool",
          "name": "approved",
          "type": "bool"
        }
      ],
      "name": "ApprovalForAll",
      "type": "event"
    },
    {
      "anonymous": false,
      "inputs": [
        {
          "indexed": true,
          "internalType": "address",
          "name": "previousOwner",
          "type": "address"
        },
        {
          "indexed": true,
          "internalType": "address",
          "name": "newOwner",
          "type": "address"
        }
      ],
      "name": "OwnershipTransferred",
      "type": "event"
    },
    {
      "anonymous": false,
      "inputs": [
        {
          "indexed": true,
          "internalType": "address",
          "name": "operator",
          "type": "address"
        },
        {
          "indexed": true,
          "internalType": "address",
          "name": "from",
          "type": "address"
        },
        {
          "indexed": true,
          "internalType": "address",
          "name": "to",
          "type": "address"
        },
        {
          "indexed": false,
          "internalType": "uint256[]",
          "name": "ids",
          "type": "uint256[]"
        },
        {
          "indexed": false,
          "internalType": "uint256[]",
          "name": "values",
          "type": "uint256[]"
        }
      ],
      "name": "TransferBatch",
      "type": "event"
    },
    {
      "anonymous": false,
      "inputs": [
        {
          "indexed": true,
          "internalType": "address",
          "name": "operator",
          "type": "address"
        },
        {
          "indexed": true,
          "internalType": "address",
          "name": "from",
          "type": "address"
        },
        {
          "indexed": true,
          "internalType": "address",
          "name": "to",
          "type": "address"
        },
        {
          "indexed": false,
          "internalType": "uint256",
          "name": "id",
          "type": "uint256"
        },
        {
          "indexed": false,
          "internalType": "uint256",
          "name": "value",
          "type": "uint256"
        }
      ],
      "name": "TransferSingle",
      "type": "event"
    },
    {
      "anonymous": false,
      "inputs": [
        {
          "indexed": false,
          "internalType": "string",
          "name": "value",
          "type": "string"
        },
        {
          "indexed": true,
          "internalType": "uint256",
          "name": "id",
          "type": "uint256"
        }
      ],
      "name": "URI",
      "type": "event"
    },
    {
      "inputs": [
        {
          "internalType": "address",
          "name": "account",
          "type": "address"
        },
        {
          "internalType": "uint256",
          "name": "id",
          "type": "uint256"
        }
      ],
      "name": "balanceOf",
      "outputs": [
        {
          "internalType": "uint256",
          "name": "",
          "type": "uint256"
        }
      ],
      "stateMutability": "view",
      "type": "function"
    },
    {
      "inputs": [
        {
          "internalType": "address[]",
          "name": "accounts",
          "type": "address[]"
        },
        {
          "internalType": "uint256[]",
          "name": "ids",
          "type": "uint256[]"
        }
      ],
      "name": "balanceOfBatch",
      "outputs": [
        {
          "internalType": "uint256[]",
          "name": "",
          "type": "uint256[]"
        }
      ],
      "stateMutability": "view",
      "type": "function"
    },
    {
      "inputs": [
        {
          "internalType": "uint256",
          "name": "",
          "type": "uint256"
        },
        {
          "internalType": "uint256",
          "name": "",
          "type": "uint256"
        }
      ],
      "name": "entityMap",
      "outputs": [
        {
          "internalType": "address",
          "name": "bearer",
          "type": "address"
        },
        {
          "internalType": "uint256",
          "name": "timestamp",
          "type": "uint256"
        },
        {
          "internalType": "uint256",
          "name": "blocknumber",
          "type": "uint256"
        }
      ],
      "stateMutability": "view",
      "type": "function"
    },
    {
      "inputs": [
        {
          "internalType": "uint256",
          "name": "id",
          "type": "uint256"
        }
      ],
      "name": "exists",
      "outputs": [
        {
          "internalType": "bool",
          "name": "",
          "type": "bool"
        }
      ],
      "stateMutability": "view",
      "type": "function"
    },
    {
      "inputs": [
        {
          "internalType": "address",
          "name": "account",
          "type": "address"
        },
        {
          "internalType": "address",
          "name": "operator",
          "type": "address"
        }
      ],
      "name": "isApprovedForAll",
      "outputs": [
        {
          "internalType": "bool",
          "name": "",
          "type": "bool"
        }
      ],
      "stateMutability": "view",
      "type": "function"
    },
    {
      "inputs": [
        {
          "internalType": "address",
          "name": "_account",
          "type": "address"
        },
        {
          "internalType": "uint256",
          "name": "id",
          "type": "uint256"
        },
        {
          "internalType": "uint256",
          "name": "_amount",
          "type": "uint256"
        }
      ],
      "name": "mint",
      "outputs": [],
      "stateMutability": "nonpayable",
      "type": "function"
    },
    {
      "inputs": [],
      "name": "owner",
      "outputs": [
        {
          "internalType": "address",
          "name": "",
          "type": "address"
        }
      ],
      "stateMutability": "view",
      "type": "function"
    },
    {
      "inputs": [],
      "name": "renounceOwnership",
      "outputs": [],
      "stateMutability": "nonpayable",
      "type": "function"
    },
    {
      "inputs": [
        {
          "internalType": "address",
          "name": "from",
          "type": "address"
        },
        {
          "internalType": "address",
          "name": "to",
          "type": "address"
        },
        {
          "internalType": "uint256[]",
          "name": "ids",
          "type": "uint256[]"
        },
        {
          "internalType": "uint256[]",
          "name": "amounts",
          "type": "uint256[]"
        },
        {
          "internalType": "bytes",
          "name": "data",
          "type": "bytes"
        }
      ],
      "name": "safeBatchTransferFrom",
      "outputs": [],
      "stateMutability": "nonpayable",
      "type": "function"
    },
    {
      "inputs": [
        {
          "internalType": "address",
          "name": "from",
          "type": "address"
        },
        {
          "internalType": "address",
          "name": "to",
          "type": "address"
        },
        {
          "internalType": "uint256",
          "name": "id",
          "type": "uint256"
        },
        {
          "internalType": "uint256",
          "name": "amount",
          "type": "uint256"
        },
        {
          "internalType": "bytes",
          "name": "data",
          "type": "bytes"
        }
      ],
      "name": "safeTransferFrom",
      "outputs": [],
      "stateMutability": "nonpayable",
      "type": "function"
    },
    {
      "inputs": [
        {
          "internalType": "address",
          "name": "operator",
          "type": "address"
        },
        {
          "internalType": "bool",
          "name": "approved",
          "type": "bool"
        }
      ],
      "name": "setApprovalForAll",
      "outputs": [],
      "stateMutability": "nonpayable",
      "type": "function"
    },
    {
      "inputs": [
        {
          "internalType": "string",
          "name": "newuri",
          "type": "string"
        }
      ],
      "name": "setURI",
      "outputs": [],
      "stateMutability": "nonpayable",
      "type": "function"
    },
    {
      "inputs": [
        {
          "internalType": "bytes4",
          "name": "interfaceId",
          "type": "bytes4"
        }
      ],
      "name": "supportsInterface",
      "outputs": [
        {
          "internalType": "bool",
          "name": "",
          "type": "bool"
        }
      ],
      "stateMutability": "view",
      "type": "function"
    },
    {
      "inputs": [
        {
          "internalType": "uint256",
          "name": "id",
          "type": "uint256"
        }
      ],
      "name": "totalSupply",
      "outputs": [
        {
          "internalType": "uint256",
          "name": "",
          "type": "uint256"
        }
      ],
      "stateMutability": "view",
      "type": "function"
    },
    {
      "inputs": [
        {
          "internalType": "address",
          "name": "newOwner",
          "type": "address"
        }
      ],
      "name": "transferOwnership",
      "outputs": [],
      "stateMutability": "nonpayable",
      "type": "function"
    },
    {
      "inputs": [
        {
          "internalType": "uint256",
          "name": "",
          "type": "uint256"
        }
      ],
      "name": "uri",
      "outputs": [
        {
          "internalType": "string",
          "name": "",
          "type": "string"
        }
      ],
      "stateMutability": "view",
      "type": "function"
    }
  ],
  "bytecode": "0x60806040523480156200001157600080fd5b506040518060200160405280600081525062000033816200005a60201b60201c565b5062000054620000486200007660201b60201c565b6200007e60201b60201c565b62000259565b80600290805190602001906200007292919062000144565b5050565b600033905090565b6000600360009054906101000a900473ffffffffffffffffffffffffffffffffffffffff16905081600360006101000a81548173ffffffffffffffffffffffffffffffffffffffff021916908373ffffffffffffffffffffffffffffffffffffffff1602179055508173ffffffffffffffffffffffffffffffffffffffff168173ffffffffffffffffffffffffffffffffffffffff167f8be0079c531659141344cd1fd0a4f28419497f9722a3daafe3b4186f6b6457e060405160405180910390a35050565b828054620001529062000223565b90600052602060002090601f016020900481019282620001765760008555620001c2565b82601f106200019157805160ff1916838001178555620001c2565b82800160010185558215620001c2579182015b82811115620001c1578251825591602001919060010190620001a4565b5b509050620001d19190620001d5565b5090565b5b80821115620001f0576000816000905550600101620001d6565b5090565b7f4e487b7100000000000000000000000000000000000000000000000000000000600052602260045260246000fd5b600060028204905060018216806200023c57607f821691505b60208210811415620002535762000252620001f4565b5b50919050565b61357b80620002696000396000f3fe608060405234801561001057600080fd5b50600436106100ff5760003560e01c80634f558e7911610097578063bd85b03911610066578063bd85b039146102be578063e985e9c5146102ee578063f242432a1461031e578063f2fde38b1461033a576100ff565b80634f558e791461024a578063715018a61461027a5780638da5cb5b14610284578063a22cb465146102a2576100ff565b8063156e29f6116100d3578063156e29f6146101b05780632664b602146101cc5780632eb2c2d6146101fe5780634e1273f41461021a576100ff565b8062fdd58e1461010457806301ffc9a71461013457806302fe5305146101645780630e89341c14610180575b600080fd5b61011e60048036038101906101199190611ee5565b610356565b60405161012b9190611f34565b60405180910390f35b61014e60048036038101906101499190611fa7565b61041f565b60405161015b9190611fef565b60405180910390f35b61017e60048036038101906101799190612150565b610501565b005b61019a60048036038101906101959190612199565b610589565b6040516101a7919061224e565b60405180910390f35b6101ca60048036038101906101c59190612270565b61061d565b005b6101e660048036038101906101e191906122c3565b6106d8565b6040516101f593929190612312565b60405180910390f35b610218600480360381019061021391906124b2565b61073f565b005b610234600480360381019061022f9190612644565b6107e0565b604051610241919061277a565b60405180910390f35b610264600480360381019061025f9190612199565b6108f9565b6040516102719190611fef565b60405180910390f35b61028261090d565b005b61028c610995565b604051610299919061279c565b60405180910390f35b6102bc60048036038101906102b791906127e3565b6109bf565b005b6102d860048036038101906102d39190612199565b6109d5565b6040516102e59190611f34565b60405180910390f35b61030860048036038101906103039190612823565b6109f2565b6040516103159190611fef565b60405180910390f35b61033860048036038101906103339190612863565b610a86565b005b610354600480360381019061034f91906128fa565b610b27565b005b60008073ffffffffffffffffffffffffffffffffffffffff168373ffffffffffffffffffffffffffffffffffffffff1614156103c7576040517f08c379a00000000000000000000000000000000000000000000000000000000081526004016103be90612999565b60405180910390fd5b60008083815260200190815260200160002060008473ffffffffffffffffffffffffffffffffffffffff1673ffffffffffffffffffffffffffffffffffffffff16815260200190815260200160002054905092915050565b60007fd9b67a26000000000000000000000000000000000000000000000000000000007bffffffffffffffffffffffffffffffffffffffffffffffffffffffff1916827bffffffffffffffffffffffffffffffffffffffffffffffffffffffff191614806104ea57507f0e89341c000000000000000000000000000000000000000000000000000000007bffffffffffffffffffffffffffffffffffffffffffffffffffffffff1916827bffffffffffffffffffffffffffffffffffffffffffffffffffffffff1916145b806104fa57506104f982610c1f565b5b9050919050565b610509610c89565b73ffffffffffffffffffffffffffffffffffffffff16610527610995565b73ffffffffffffffffffffffffffffffffffffffff161461057d576040517f08c379a000000000000000000000000000000000000000000000000000000000815260040161057490612a05565b60405180910390fd5b61058681610c91565b50565b60606002805461059890612a54565b80601f01602080910402602001604051908101604052809291908181526020018280546105c490612a54565b80156106115780601f106105e657610100808354040283529160200191610611565b820191906000526020600020905b8154815290600101906020018083116105f457829003601f168201915b50505050509050919050565b610625610995565b73ffffffffffffffffffffffffffffffffffffffff163373ffffffffffffffffffffffffffffffffffffffff1614610692576040517f08c379a000000000000000000000000000000000000000000000000000000000815260040161068990612ad2565b60405180910390fd5b6106d38383836040518060400160405280600481526020017f3078303000000000000000000000000000000000000000000000000000000000815250610cab565b505050565b600660205281600052604060002081815481106106f457600080fd5b9060005260206000209060030201600091509150508060000160009054906101000a900473ffffffffffffffffffffffffffffffffffffffff16908060010154908060020154905083565b610747610c89565b73ffffffffffffffffffffffffffffffffffffffff168573ffffffffffffffffffffffffffffffffffffffff16148061078d575061078c85610787610c89565b6109f2565b5b6107cc576040517f08c379a00000000000000000000000000000000000000000000000000000000081526004016107c390612b64565b60405180910390fd5b6107d98585858585610e5c565b5050505050565b60608151835114610826576040517f08c379a000000000000000000000000000000000000000000000000000000000815260040161081d90612bf6565b60405180910390fd5b6000835167ffffffffffffffff81111561084357610842612025565b5b6040519080825280602002602001820160405280156108715781602001602082028036833780820191505090505b50905060005b84518110156108ee576108be85828151811061089657610895612c16565b5b60200260200101518583815181106108b1576108b0612c16565b5b6020026020010151610356565b8282815181106108d1576108d0612c16565b5b602002602001018181525050806108e790612c74565b9050610877565b508091505092915050565b600080610905836109d5565b119050919050565b610915610c89565b73ffffffffffffffffffffffffffffffffffffffff16610933610995565b73ffffffffffffffffffffffffffffffffffffffff1614610989576040517f08c379a000000000000000000000000000000000000000000000000000000000815260040161098090612a05565b60405180910390fd5b610993600061117e565b565b6000600360009054906101000a900473ffffffffffffffffffffffffffffffffffffffff16905090565b6109d16109ca610c89565b8383611244565b5050565b600060046000838152602001908152602001600020549050919050565b6000600160008473ffffffffffffffffffffffffffffffffffffffff1673ffffffffffffffffffffffffffffffffffffffff16815260200190815260200160002060008373ffffffffffffffffffffffffffffffffffffffff1673ffffffffffffffffffffffffffffffffffffffff16815260200190815260200160002060009054906101000a900460ff16905092915050565b610a8e610c89565b73ffffffffffffffffffffffffffffffffffffffff168573ffffffffffffffffffffffffffffffffffffffff161480610ad45750610ad385610ace610c89565b6109f2565b5b610b13576040517f08c379a0000000000000000000000000000000000000000000000000000000008152600401610b0a90612d2f565b60405180910390fd5b610b2085858585856113b1565b5050505050565b610b2f610c89565b73ffffffffffffffffffffffffffffffffffffffff16610b4d610995565b73ffffffffffffffffffffffffffffffffffffffff1614610ba3576040517f08c379a0000000000000000000000000000000000000000000000000000000008152600401610b9a90612a05565b60405180910390fd5b600073ffffffffffffffffffffffffffffffffffffffff168173ffffffffffffffffffffffffffffffffffffffff161415610c13576040517f08c379a0000000000000000000000000000000000000000000000000000000008152600401610c0a90612dc1565b60405180910390fd5b610c1c8161117e565b50565b60007f01ffc9a7000000000000000000000000000000000000000000000000000000007bffffffffffffffffffffffffffffffffffffffffffffffffffffffff1916827bffffffffffffffffffffffffffffffffffffffffffffffffffffffff1916149050919050565b600033905090565b8060029080519060200190610ca7929190611d9a565b5050565b600073ffffffffffffffffffffffffffffffffffffffff168473ffffffffffffffffffffffffffffffffffffffff161415610d1b576040517f08c379a0000000000000000000000000000000000000000000000000000000008152600401610d1290612e53565b60405180910390fd5b6000610d25610c89565b90506000610d328561164d565b90506000610d3f8561164d565b9050610d50836000898585896116c7565b8460008088815260200190815260200160002060008973ffffffffffffffffffffffffffffffffffffffff1673ffffffffffffffffffffffffffffffffffffffff1681526020019081526020016000206000828254610daf9190612e73565b925050819055508673ffffffffffffffffffffffffffffffffffffffff16600073ffffffffffffffffffffffffffffffffffffffff168473ffffffffffffffffffffffffffffffffffffffff167fc3d58168c5ae7397731d063d5bbf3d657854427343f4c083240f7aacaa2d0f628989604051610e2d929190612ec9565b60405180910390a4610e44836000898585896117fd565b610e5383600089898989611805565b50505050505050565b8151835114610ea0576040517f08c379a0000000000000000000000000000000000000000000000000000000008152600401610e9790612f64565b60405180910390fd5b600073ffffffffffffffffffffffffffffffffffffffff168473ffffffffffffffffffffffffffffffffffffffff161415610f10576040517f08c379a0000000000000000000000000000000000000000000000000000000008152600401610f0790612ff6565b60405180910390fd5b6000610f1a610c89565b9050610f2a8187878787876116c7565b60005b84518110156110db576000858281518110610f4b57610f4a612c16565b5b602002602001015190506000858381518110610f6a57610f69612c16565b5b60200260200101519050600080600084815260200190815260200160002060008b73ffffffffffffffffffffffffffffffffffffffff1673ffffffffffffffffffffffffffffffffffffffff1681526020019081526020016000205490508181101561100b576040517f08c379a000000000000000000000000000000000000000000000000000000000815260040161100290613088565b60405180910390fd5b81810360008085815260200190815260200160002060008c73ffffffffffffffffffffffffffffffffffffffff1673ffffffffffffffffffffffffffffffffffffffff168152602001908152602001600020819055508160008085815260200190815260200160002060008b73ffffffffffffffffffffffffffffffffffffffff1673ffffffffffffffffffffffffffffffffffffffff16815260200190815260200160002060008282546110c09190612e73565b92505081905550505050806110d490612c74565b9050610f2d565b508473ffffffffffffffffffffffffffffffffffffffff168673ffffffffffffffffffffffffffffffffffffffff168273ffffffffffffffffffffffffffffffffffffffff167f4a39dc06d4c0dbc64b70af90fd698a233a518aa5d07e595d983b8c0526c8f7fb87876040516111529291906130a8565b60405180910390a46111688187878787876117fd565b6111768187878787876119ec565b505050505050565b6000600360009054906101000a900473ffffffffffffffffffffffffffffffffffffffff16905081600360006101000a81548173ffffffffffffffffffffffffffffffffffffffff021916908373ffffffffffffffffffffffffffffffffffffffff1602179055508173ffffffffffffffffffffffffffffffffffffffff168173ffffffffffffffffffffffffffffffffffffffff167f8be0079c531659141344cd1fd0a4f28419497f9722a3daafe3b4186f6b6457e060405160405180910390a35050565b8173ffffffffffffffffffffffffffffffffffffffff168373ffffffffffffffffffffffffffffffffffffffff1614156112b3576040517f08c379a00000000000000000000000000000000000000000000000000000000081526004016112aa90613151565b60405180910390fd5b80600160008573ffffffffffffffffffffffffffffffffffffffff1673ffffffffffffffffffffffffffffffffffffffff16815260200190815260200160002060008473ffffffffffffffffffffffffffffffffffffffff1673ffffffffffffffffffffffffffffffffffffffff16815260200190815260200160002060006101000a81548160ff0219169083151502179055508173ffffffffffffffffffffffffffffffffffffffff168373ffffffffffffffffffffffffffffffffffffffff167f17307eab39ab6107e8899845ad3d59bd9653f200f220920489ca2b5937696c31836040516113a49190611fef565b60405180910390a3505050565b600073ffffffffffffffffffffffffffffffffffffffff168473ffffffffffffffffffffffffffffffffffffffff161415611421576040517f08c379a000000000000000000000000000000000000000000000000000000000815260040161141890612ff6565b60405180910390fd5b600061142b610c89565b905060006114388561164d565b905060006114458561164d565b90506114558389898585896116c7565b600080600088815260200190815260200160002060008a73ffffffffffffffffffffffffffffffffffffffff1673ffffffffffffffffffffffffffffffffffffffff168152602001908152602001600020549050858110156114ec576040517f08c379a00000000000000000000000000000000000000000000000000000000081526004016114e390613088565b60405180910390fd5b85810360008089815260200190815260200160002060008b73ffffffffffffffffffffffffffffffffffffffff1673ffffffffffffffffffffffffffffffffffffffff168152602001908152602001600020819055508560008089815260200190815260200160002060008a73ffffffffffffffffffffffffffffffffffffffff1673ffffffffffffffffffffffffffffffffffffffff16815260200190815260200160002060008282546115a19190612e73565b925050819055508773ffffffffffffffffffffffffffffffffffffffff168973ffffffffffffffffffffffffffffffffffffffff168573ffffffffffffffffffffffffffffffffffffffff167fc3d58168c5ae7397731d063d5bbf3d657854427343f4c083240f7aacaa2d0f628a8a60405161161e929190612ec9565b60405180910390a4611634848a8a86868a6117fd565b611642848a8a8a8a8a611805565b505050505050505050565b60606000600167ffffffffffffffff81111561166c5761166b612025565b5b60405190808252806020026020018201604052801561169a5781602001602082028036833780820191505090505b50905082816000815181106116b2576116b1612c16565b5b60200260200101818152505080915050919050565b600073ffffffffffffffffffffffffffffffffffffffff168573ffffffffffffffffffffffffffffffffffffffff16146117e757600060405180606001604052808873ffffffffffffffffffffffffffffffffffffffff168152602001428152602001438152509050600660008560008151811061174857611747612c16565b5b6020026020010151815260200190815260200160002081908060018154018082558091505060019003906000526020600020906003020160009091909190915060008201518160000160006101000a81548173ffffffffffffffffffffffffffffffffffffffff021916908373ffffffffffffffffffffffffffffffffffffffff16021790555060208201518160010155604082015181600201555050505b6117f5868686868686611bd3565b505050505050565b505050505050565b6118248473ffffffffffffffffffffffffffffffffffffffff16611d6f565b156119e4578373ffffffffffffffffffffffffffffffffffffffff1663f23a6e6187878686866040518663ffffffff1660e01b815260040161186a9594939291906131c6565b602060405180830381600087803b15801561188457600080fd5b505af19250505080156118b557506040513d601f19601f820116820180604052508101906118b29190613235565b60015b61195b576118c161326f565b806308c379a0141561191e57506118d6613291565b806118e15750611920565b806040517f08c379a0000000000000000000000000000000000000000000000000000000008152600401611915919061224e565b60405180910390fd5b505b6040517f08c379a000000000000000000000000000000000000000000000000000000000815260040161195290613399565b60405180910390fd5b63f23a6e6160e01b7bffffffffffffffffffffffffffffffffffffffffffffffffffffffff1916817bffffffffffffffffffffffffffffffffffffffffffffffffffffffff1916146119e2576040517f08c379a00000000000000000000000000000000000000000000000000000000081526004016119d99061342b565b60405180910390fd5b505b505050505050565b611a0b8473ffffffffffffffffffffffffffffffffffffffff16611d6f565b15611bcb578373ffffffffffffffffffffffffffffffffffffffff1663bc197c8187878686866040518663ffffffff1660e01b8152600401611a5195949392919061344b565b602060405180830381600087803b158015611a6b57600080fd5b505af1925050508015611a9c57506040513d601f19601f82011682018060405250810190611a999190613235565b60015b611b4257611aa861326f565b806308c379a01415611b055750611abd613291565b80611ac85750611b07565b806040517f08c379a0000000000000000000000000000000000000000000000000000000008152600401611afc919061224e565b60405180910390fd5b505b6040517f08c379a0000000000000000000000000000000000000000000000000000000008152600401611b3990613399565b60405180910390fd5b63bc197c8160e01b7bffffffffffffffffffffffffffffffffffffffffffffffffffffffff1916817bffffffffffffffffffffffffffffffffffffffffffffffffffffffff191614611bc9576040517f08c379a0000000000000000000000000000000000000000000000000000000008152600401611bc09061342b565b60405180910390fd5b505b505050505050565b611be1868686868686611d92565b60005b8351811015611c5c57828181518110611c0057611bff612c16565b5b602002602001015160046000868481518110611c1f57611c1e612c16565b5b602002602001015181526020019081526020016000206000828254611c449190612e73565b9250508190555080611c5590612c74565b9050611be4565b50600073ffffffffffffffffffffffffffffffffffffffff168473ffffffffffffffffffffffffffffffffffffffff161415611d675760005b8351811015611d65576000848281518110611cb357611cb2612c16565b5b602002602001015190506000848381518110611cd257611cd1612c16565b5b6020026020010151905060006004600084815260200190815260200160002054905081811015611d37576040517f08c379a0000000000000000000000000000000000000000000000000000000008152600401611d2e90613525565b60405180910390fd5b818103600460008581526020019081526020016000208190555050505080611d5e90612c74565b9050611c95565b505b505050505050565b6000808273ffffffffffffffffffffffffffffffffffffffff163b119050919050565b505050505050565b828054611da690612a54565b90600052602060002090601f016020900481019282611dc85760008555611e0f565b82601f10611de157805160ff1916838001178555611e0f565b82800160010185558215611e0f579182015b82811115611e0e578251825591602001919060010190611df3565b5b509050611e1c9190611e20565b5090565b5b80821115611e39576000816000905550600101611e21565b5090565b6000604051905090565b600080fd5b600080fd5b600073ffffffffffffffffffffffffffffffffffffffff82169050919050565b6000611e7c82611e51565b9050919050565b611e8c81611e71565b8114611e9757600080fd5b50565b600081359050611ea981611e83565b92915050565b6000819050919050565b611ec281611eaf565b8114611ecd57600080fd5b50565b600081359050611edf81611eb9565b92915050565b60008060408385031215611efc57611efb611e47565b5b6000611f0a85828601611e9a565b9250506020611f1b85828601611ed0565b9150509250929050565b611f2e81611eaf565b82525050565b6000602082019050611f496000830184611f25565b92915050565b60007fffffffff0000000000000000000000000000000000000000000000000000000082169050919050565b611f8481611f4f565b8114611f8f57600080fd5b50565b600081359050611fa181611f7b565b92915050565b600060208284031215611fbd57611fbc611e47565b5b6000611fcb84828501611f92565b91505092915050565b60008115159050919050565b611fe981611fd4565b82525050565b60006020820190506120046000830184611fe0565b92915050565b600080fd5b600080fd5b6000601f19601f8301169050919050565b7f4e487b7100000000000000000000000000000000000000000000000000000000600052604160045260246000fd5b61205d82612014565b810181811067ffffffffffffffff8211171561207c5761207b612025565b5b80604052505050565b600061208f611e3d565b905061209b8282612054565b919050565b600067ffffffffffffffff8211156120bb576120ba612025565b5b6120c482612014565b9050602081019050919050565b82818337600083830152505050565b60006120f36120ee846120a0565b612085565b90508281526020810184848401111561210f5761210e61200f565b5b61211a8482856120d1565b509392505050565b600082601f8301126121375761213661200a565b5b81356121478482602086016120e0565b91505092915050565b60006020828403121561216657612165611e47565b5b600082013567ffffffffffffffff81111561218457612183611e4c565b5b61219084828501612122565b91505092915050565b6000602082840312156121af576121ae611e47565b5b60006121bd84828501611ed0565b91505092915050565b600081519050919050565b600082825260208201905092915050565b60005b838110156122005780820151818401526020810190506121e5565b8381111561220f576000848401525b50505050565b6000612220826121c6565b61222a81856121d1565b935061223a8185602086016121e2565b61224381612014565b840191505092915050565b600060208201905081810360008301526122688184612215565b905092915050565b60008060006060848603121561228957612288611e47565b5b600061229786828701611e9a565b93505060206122a886828701611ed0565b92505060406122b986828701611ed0565b9150509250925092565b600080604083850312156122da576122d9611e47565b5b60006122e885828601611ed0565b92505060206122f985828601611ed0565b9150509250929050565b61230c81611e71565b82525050565b60006060820190506123276000830186612303565b6123346020830185611f25565b6123416040830184611f25565b949350505050565b600067ffffffffffffffff82111561236457612363612025565b5b602082029050602081019050919050565b600080fd5b600061238d61238884612349565b612085565b905080838252602082019050602084028301858111156123b0576123af612375565b5b835b818110156123d957806123c58882611ed0565b8452602084019350506020810190506123b2565b5050509392505050565b600082601f8301126123f8576123f761200a565b5b813561240884826020860161237a565b91505092915050565b600067ffffffffffffffff82111561242c5761242b612025565b5b61243582612014565b9050602081019050919050565b600061245561245084612411565b612085565b9050828152602081018484840111156124715761247061200f565b5b61247c8482856120d1565b509392505050565b600082601f8301126124995761249861200a565b5b81356124a9848260208601612442565b91505092915050565b600080600080600060a086880312156124ce576124cd611e47565b5b60006124dc88828901611e9a565b95505060206124ed88828901611e9a565b945050604086013567ffffffffffffffff81111561250e5761250d611e4c565b5b61251a888289016123e3565b935050606086013567ffffffffffffffff81111561253b5761253a611e4c565b5b612547888289016123e3565b925050608086013567ffffffffffffffff81111561256857612567611e4c565b5b61257488828901612484565b9150509295509295909350565b600067ffffffffffffffff82111561259c5761259b612025565b5b602082029050602081019050919050565b60006125c06125bb84612581565b612085565b905080838252602082019050602084028301858111156125e3576125e2612375565b5b835b8181101561260c57806125f88882611e9a565b8452602084019350506020810190506125e5565b5050509392505050565b600082601f83011261262b5761262a61200a565b5b813561263b8482602086016125ad565b91505092915050565b6000806040838503121561265b5761265a611e47565b5b600083013567ffffffffffffffff81111561267957612678611e4c565b5b61268585828601612616565b925050602083013567ffffffffffffffff8111156126a6576126a5611e4c565b5b6126b2858286016123e3565b9150509250929050565b600081519050919050565b600082825260208201905092915050565b6000819050602082019050919050565b6126f181611eaf565b82525050565b600061270383836126e8565b60208301905092915050565b6000602082019050919050565b6000612727826126bc565b61273181856126c7565b935061273c836126d8565b8060005b8381101561276d57815161275488826126f7565b975061275f8361270f565b925050600181019050612740565b5085935050505092915050565b60006020820190508181036000830152612794818461271c565b905092915050565b60006020820190506127b16000830184612303565b92915050565b6127c081611fd4565b81146127cb57600080fd5b50565b6000813590506127dd816127b7565b92915050565b600080604083850312156127fa576127f9611e47565b5b600061280885828601611e9a565b9250506020612819858286016127ce565b9150509250929050565b6000806040838503121561283a57612839611e47565b5b600061284885828601611e9a565b925050602061285985828601611e9a565b9150509250929050565b600080600080600060a0868803121561287f5761287e611e47565b5b600061288d88828901611e9a565b955050602061289e88828901611e9a565b94505060406128af88828901611ed0565b93505060606128c088828901611ed0565b925050608086013567ffffffffffffffff8111156128e1576128e0611e4c565b5b6128ed88828901612484565b9150509295509295909350565b6000602082840312156129105761290f611e47565b5b600061291e84828501611e9a565b91505092915050565b7f455243313135353a2062616c616e636520717565727920666f7220746865207a60008201527f65726f2061646472657373000000000000000000000000000000000000000000602082015250565b6000612983602b836121d1565b915061298e82612927565b604082019050919050565b600060208201905081810360008301526129b281612976565b9050919050565b7f4f776e61626c653a2063616c6c6572206973206e6f7420746865206f776e6572600082015250565b60006129ef6020836121d1565b91506129fa826129b9565b602082019050919050565b60006020820190508181036000830152612a1e816129e2565b9050919050565b7f4e487b7100000000000000000000000000000000000000000000000000000000600052602260045260246000fd5b60006002820490506001821680612a6c57607f821691505b60208210811415612a8057612a7f612a25565b5b50919050565b7f4f4e4c59204f574e45522043414e204d494e5400000000000000000000000000600082015250565b6000612abc6013836121d1565b9150612ac782612a86565b602082019050919050565b60006020820190508181036000830152612aeb81612aaf565b9050919050565b7f455243313135353a207472616e736665722063616c6c6572206973206e6f742060008201527f6f776e6572206e6f7220617070726f7665640000000000000000000000000000602082015250565b6000612b4e6032836121d1565b9150612b5982612af2565b604082019050919050565b60006020820190508181036000830152612b7d81612b41565b9050919050565b7f455243313135353a206163636f756e747320616e6420696473206c656e67746860008201527f206d69736d617463680000000000000000000000000000000000000000000000602082015250565b6000612be06029836121d1565b9150612beb82612b84565b604082019050919050565b60006020820190508181036000830152612c0f81612bd3565b9050919050565b7f4e487b7100000000000000000000000000000000000000000000000000000000600052603260045260246000fd5b7f4e487b7100000000000000000000000000000000000000000000000000000000600052601160045260246000fd5b6000612c7f82611eaf565b91507fffffffffffffffffffffffffffffffffffffffffffffffffffffffffffffffff821415612cb257612cb1612c45565b5b600182019050919050565b7f455243313135353a2063616c6c6572206973206e6f74206f776e6572206e6f7260008201527f20617070726f7665640000000000000000000000000000000000000000000000602082015250565b6000612d196029836121d1565b9150612d2482612cbd565b604082019050919050565b60006020820190508181036000830152612d4881612d0c565b9050919050565b7f4f776e61626c653a206e6577206f776e657220697320746865207a65726f206160008201527f6464726573730000000000000000000000000000000000000000000000000000602082015250565b6000612dab6026836121d1565b9150612db682612d4f565b604082019050919050565b60006020820190508181036000830152612dda81612d9e565b9050919050565b7f455243313135353a206d696e7420746f20746865207a65726f2061646472657360008201527f7300000000000000000000000000000000000000000000000000000000000000602082015250565b6000612e3d6021836121d1565b9150612e4882612de1565b604082019050919050565b60006020820190508181036000830152612e6c81612e30565b9050919050565b6000612e7e82611eaf565b9150612e8983611eaf565b9250827fffffffffffffffffffffffffffffffffffffffffffffffffffffffffffffffff03821115612ebe57612ebd612c45565b5b828201905092915050565b6000604082019050612ede6000830185611f25565b612eeb6020830184611f25565b9392505050565b7f455243313135353a2069647320616e6420616d6f756e7473206c656e6774682060008201527f6d69736d61746368000000000000000000000000000000000000000000000000602082015250565b6000612f4e6028836121d1565b9150612f5982612ef2565b604082019050919050565b60006020820190508181036000830152612f7d81612f41565b9050919050565b7f455243313135353a207472616e7366657220746f20746865207a65726f20616460008201527f6472657373000000000000000000000000000000000000000000000000000000602082015250565b6000612fe06025836121d1565b9150612feb82612f84565b604082019050919050565b6000602082019050818103600083015261300f81612fd3565b9050919050565b7f455243313135353a20696e73756666696369656e742062616c616e636520666f60008201527f72207472616e7366657200000000000000000000000000000000000000000000602082015250565b6000613072602a836121d1565b915061307d82613016565b604082019050919050565b600060208201905081810360008301526130a181613065565b9050919050565b600060408201905081810360008301526130c2818561271c565b905081810360208301526130d6818461271c565b90509392505050565b7f455243313135353a2073657474696e6720617070726f76616c2073746174757360008201527f20666f722073656c660000000000000000000000000000000000000000000000602082015250565b600061313b6029836121d1565b9150613146826130df565b604082019050919050565b6000602082019050818103600083015261316a8161312e565b9050919050565b600081519050919050565b600082825260208201905092915050565b600061319882613171565b6131a2818561317c565b93506131b28185602086016121e2565b6131bb81612014565b840191505092915050565b600060a0820190506131db6000830188612303565b6131e86020830187612303565b6131f56040830186611f25565b6132026060830185611f25565b8181036080830152613214818461318d565b90509695505050505050565b60008151905061322f81611f7b565b92915050565b60006020828403121561324b5761324a611e47565b5b600061325984828501613220565b91505092915050565b60008160e01c9050919050565b600060033d111561328e5760046000803e61328b600051613262565b90505b90565b600060443d10156132a157613324565b6132a9611e3d565b60043d036004823e80513d602482011167ffffffffffffffff821117156132d1575050613324565b808201805167ffffffffffffffff8111156132ef5750505050613324565b80602083010160043d03850181111561330c575050505050613324565b61331b82602001850186612054565b82955050505050505b90565b7f455243313135353a207472616e7366657220746f206e6f6e204552433131353560008201527f526563656976657220696d706c656d656e746572000000000000000000000000602082015250565b60006133836034836121d1565b915061338e82613327565b604082019050919050565b600060208201905081810360008301526133b281613376565b9050919050565b7f455243313135353a204552433131353552656365697665722072656a6563746560008201527f6420746f6b656e73000000000000000000000000000000000000000000000000602082015250565b60006134156028836121d1565b9150613420826133b9565b604082019050919050565b6000602082019050818103600083015261344481613408565b9050919050565b600060a0820190506134606000830188612303565b61346d6020830187612303565b818103604083015261347f818661271c565b90508181036060830152613493818561271c565b905081810360808301526134a7818461318d565b90509695505050505050565b7f455243313135353a206275726e20616d6f756e74206578636565647320746f7460008201527f616c537570706c79000000000000000000000000000000000000000000000000602082015250565b600061350f6028836121d1565b915061351a826134b3565b604082019050919050565b6000602082019050818103600083015261353e81613502565b905091905056fea2646970667358221220752e6e87431aa76c3e49cdedb75f3aaa88d296e02adea33eb4bbd5e1677b2fe664736f6c63430008080033",
  "linkReferences": {},
  "deployedLinkReferences": {}
}