{
  "_format": "hh-sol-artifact-1",
  "contractName": "SupplyChainToken",
  "sourceName": "contracts/SupplyChainERC1155.sol",
  "abi": [
    {
      "inputs": [],
      "stateMutability": "nonpayable",
      "type": "constructor"
    },
    {
      "anonymous": false,
      "inputs": [
        {
          "indexed": true,
          "internalType": "address",
          "name": "previousOwner",
          "type": "address"
        },
        {
          "indexed": true,
          "internalType": "address",
          "name": "newOwner",
          "type": "address"
        }
      ],
      "name": "OwnershipTransferred",
      "type": "event"
    },
    {
      "inputs": [
        {
          "internalType": "address",
          "name": "account",
          "type": "address"
        },
        {
          "internalType": "uint256",
          "name": "id",
          "type": "uint256"
        }
      ],
      "name": "balanceOf",
      "outputs": [
        {
          "internalType": "uint256",
          "name": "",
          "type": "uint256"
        }
      ],
      "stateMutability": "view",
      "type": "function"
    },
    {
      "inputs": [
        {
          "internalType": "uint256",
          "name": "",
          "type": "uint256"
        },
        {
          "internalType": "uint256",
          "name": "",
          "type": "uint256"
        },
        {
          "internalType": "uint256",
          "name": "",
          "type": "uint256"
        }
      ],
      "name": "entityMap",
      "outputs": [
        {
          "internalType": "address",
          "name": "bearer",
          "type": "address"
        },
        {
          "internalType": "uint256",
          "name": "timestamp",
          "type": "uint256"
        },
        {
          "internalType": "uint256",
          "name": "blocknumber",
          "type": "uint256"
        }
      ],
      "stateMutability": "view",
      "type": "function"
    },
    {
      "inputs": [
        {
          "internalType": "uint256",
          "name": "id",
          "type": "uint256"
        }
      ],
      "name": "exists",
      "outputs": [
        {
          "internalType": "bool",
          "name": "",
          "type": "bool"
        }
      ],
      "stateMutability": "view",
      "type": "function"
    },
    {
      "inputs": [
        {
          "internalType": "address",
          "name": "owner",
          "type": "address"
        }
      ],
      "name": "getMySupplyTokens",
      "outputs": [
        {
          "internalType": "uint256[]",
          "name": "",
          "type": "uint256[]"
        }
      ],
      "stateMutability": "view",
      "type": "function"
    },
    {
      "inputs": [
        {
          "internalType": "address",
          "name": "account",
          "type": "address"
        },
        {
          "internalType": "address",
          "name": "operator",
          "type": "address"
        }
      ],
      "name": "isApprovedForAll",
      "outputs": [
        {
          "internalType": "bool",
          "name": "",
          "type": "bool"
        }
      ],
      "stateMutability": "view",
      "type": "function"
    },
    {
      "inputs": [
        {
          "internalType": "address",
          "name": "_account",
          "type": "address"
        },
        {
          "internalType": "uint256",
          "name": "id",
          "type": "uint256"
        },
        {
          "internalType": "uint256",
          "name": "_amount",
          "type": "uint256"
        }
      ],
      "name": "mint",
      "outputs": [],
      "stateMutability": "nonpayable",
      "type": "function"
    },
    {
      "inputs": [],
      "name": "owner",
      "outputs": [
        {
          "internalType": "address",
          "name": "",
          "type": "address"
        }
      ],
      "stateMutability": "view",
      "type": "function"
    },
    {
      "inputs": [],
      "name": "renounceOwnership",
      "outputs": [],
      "stateMutability": "nonpayable",
      "type": "function"
    },
    {
      "inputs": [
        {
          "internalType": "address",
          "name": "from",
          "type": "address"
        },
        {
          "internalType": "address",
          "name": "to",
          "type": "address"
        },
        {
          "internalType": "uint256",
          "name": "id",
          "type": "uint256"
        },
        {
          "internalType": "uint256",
          "name": "amount",
          "type": "uint256"
        },
        {
          "internalType": "bytes",
          "name": "data",
          "type": "bytes"
        },
        {
          "internalType": "uint256",
          "name": "counter",
          "type": "uint256"
        }
      ],
      "name": "safeTransferFrom",
      "outputs": [],
      "stateMutability": "nonpayable",
      "type": "function"
    },
    {
      "inputs": [
        {
          "internalType": "address",
          "name": "operator",
          "type": "address"
        },
        {
          "internalType": "bool",
          "name": "approved",
          "type": "bool"
        }
      ],
      "name": "setApprovalForAll",
      "outputs": [],
      "stateMutability": "nonpayable",
      "type": "function"
    },
    {
      "inputs": [],
      "name": "totalNFT",
      "outputs": [
        {
          "internalType": "uint256",
          "name": "",
          "type": "uint256"
        }
      ],
      "stateMutability": "view",
      "type": "function"
    },
    {
      "inputs": [
        {
          "internalType": "uint256",
          "name": "id",
          "type": "uint256"
        }
      ],
      "name": "totalSupply",
      "outputs": [
        {
          "internalType": "uint256",
          "name": "",
          "type": "uint256"
        }
      ],
      "stateMutability": "view",
      "type": "function"
    },
    {
      "inputs": [
        {
          "internalType": "address",
          "name": "newOwner",
          "type": "address"
        }
      ],
      "name": "transferOwnership",
      "outputs": [],
      "stateMutability": "nonpayable",
      "type": "function"
    }
  ],
  "bytecode": "0x608060405234801561001057600080fd5b5061002d61002261003260201b60201c565b61003a60201b60201c565b610100565b600033905090565b6000600460009054906101000a900473ffffffffffffffffffffffffffffffffffffffff16905081600460006101000a81548173ffffffffffffffffffffffffffffffffffffffff021916908373ffffffffffffffffffffffffffffffffffffffff1602179055508173ffffffffffffffffffffffffffffffffffffffff168173ffffffffffffffffffffffffffffffffffffffff167f8be0079c531659141344cd1fd0a4f28419497f9722a3daafe3b4186f6b6457e060405160405180910390a35050565b611f1f8061010f6000396000f3fe608060405234801561001057600080fd5b50600436106100cd5760003560e01c80638da5cb5b1161008c578063bd85b03911610066578063bd85b03914610212578063e51a27ce14610242578063e985e9c51461025e578063f2fde38b1461028e576100cd565b80638da5cb5b146101a857806397dc4a0a146101c6578063a22cb465146101f6576100cd565b8062456379146100d2578062fdd58e146100f0578063156e29f6146101205780631c8d509c1461013c5780634f558e791461016e578063715018a61461019e575b600080fd5b6100da6102aa565b6040516100e791906112d0565b60405180910390f35b61010a60048036038101906101059190611389565b6102b0565b60405161011791906112d0565b60405180910390f35b61013a600480360381019061013591906113c9565b610379565b005b6101566004803603810190610151919061141c565b610434565b6040516101659392919061147e565b60405180910390f35b610188600480360381019061018391906114b5565b6104a8565b60405161019591906114fd565b60405180910390f35b6101a66104bc565b005b6101b0610544565b6040516101bd9190611518565b60405180910390f35b6101e060048036038101906101db9190611533565b61056e565b6040516101ed919061161e565b60405180910390f35b610210600480360381019061020b919061166c565b610605565b005b61022c600480360381019061022791906114b5565b61061b565b60405161023991906112d0565b60405180910390f35b61025c600480360381019061025791906117f2565b610638565b005b6102786004803603810190610273919061189b565b6106db565b60405161028591906114fd565b60405180910390f35b6102a860048036038101906102a39190611533565b61076f565b005b60025481565b60008073ffffffffffffffffffffffffffffffffffffffff168373ffffffffffffffffffffffffffffffffffffffff161415610321576040517f08c379a00000000000000000000000000000000000000000000000000000000081526004016103189061195e565b60405180910390fd5b60008083815260200190815260200160002060008473ffffffffffffffffffffffffffffffffffffffff1673ffffffffffffffffffffffffffffffffffffffff16815260200190815260200160002054905092915050565b610381610544565b73ffffffffffffffffffffffffffffffffffffffff163373ffffffffffffffffffffffffffffffffffffffff16146103ee576040517f08c379a00000000000000000000000000000000000000000000000000000000081526004016103e5906119ca565b60405180910390fd5b61042f8383836040518060400160405280600481526020017f3078303000000000000000000000000000000000000000000000000000000000815250610867565b505050565b6007602052826000526040600020602052816000526040600020818154811061045c57600080fd5b906000526020600020906003020160009250925050508060000160009054906101000a900473ffffffffffffffffffffffffffffffffffffffff16908060010154908060020154905083565b6000806104b48361061b565b119050919050565b6104c4610961565b73ffffffffffffffffffffffffffffffffffffffff166104e2610544565b73ffffffffffffffffffffffffffffffffffffffff1614610538576040517f08c379a000000000000000000000000000000000000000000000000000000000815260040161052f90611a36565b60405180910390fd5b6105426000610969565b565b6000600460009054906101000a900473ffffffffffffffffffffffffffffffffffffffff16905090565b6060600360008373ffffffffffffffffffffffffffffffffffffffff1673ffffffffffffffffffffffffffffffffffffffff1681526020019081526020016000208054806020026020016040519081016040528092919081815260200182805480156105f957602002820191906000526020600020905b8154815260200190600101908083116105e5575b50505050509050919050565b610617610610610961565b8383610a2f565b5050565b600060056000838152602001908152602001600020549050919050565b610640610961565b73ffffffffffffffffffffffffffffffffffffffff168673ffffffffffffffffffffffffffffffffffffffff161480610686575061068586610680610961565b6106db565b5b6106c5576040517f08c379a00000000000000000000000000000000000000000000000000000000081526004016106bc90611ac8565b60405180910390fd5b6106d3868686868686610b37565b505050505050565b6000600160008473ffffffffffffffffffffffffffffffffffffffff1673ffffffffffffffffffffffffffffffffffffffff16815260200190815260200160002060008373ffffffffffffffffffffffffffffffffffffffff1673ffffffffffffffffffffffffffffffffffffffff16815260200190815260200160002060009054906101000a900460ff16905092915050565b610777610961565b73ffffffffffffffffffffffffffffffffffffffff16610795610544565b73ffffffffffffffffffffffffffffffffffffffff16146107eb576040517f08c379a00000000000000000000000000000000000000000000000000000000081526004016107e290611a36565b60405180910390fd5b600073ffffffffffffffffffffffffffffffffffffffff168173ffffffffffffffffffffffffffffffffffffffff16141561085b576040517f08c379a000000000000000000000000000000000000000000000000000000000815260040161085290611b5a565b60405180910390fd5b61086481610969565b50565b600073ffffffffffffffffffffffffffffffffffffffff168473ffffffffffffffffffffffffffffffffffffffff1614156108d7576040517f08c379a00000000000000000000000000000000000000000000000000000000081526004016108ce90611bec565b60405180910390fd5b60006108e1610961565b90506108f4816000878787876000610d1f565b8260008086815260200190815260200160002060008773ffffffffffffffffffffffffffffffffffffffff1673ffffffffffffffffffffffffffffffffffffffff16815260200190815260200160002060008282546109539190611c3b565b925050819055505050505050565b600033905090565b6000600460009054906101000a900473ffffffffffffffffffffffffffffffffffffffff16905081600460006101000a81548173ffffffffffffffffffffffffffffffffffffffff021916908373ffffffffffffffffffffffffffffffffffffffff1602179055508173ffffffffffffffffffffffffffffffffffffffff168173ffffffffffffffffffffffffffffffffffffffff167f8be0079c531659141344cd1fd0a4f28419497f9722a3daafe3b4186f6b6457e060405160405180910390a35050565b8173ffffffffffffffffffffffffffffffffffffffff168373ffffffffffffffffffffffffffffffffffffffff161415610a9e576040517f08c379a0000000000000000000000000000000000000000000000000000000008152600401610a9590611d03565b60405180910390fd5b80600160008573ffffffffffffffffffffffffffffffffffffffff1673ffffffffffffffffffffffffffffffffffffffff16815260200190815260200160002060008473ffffffffffffffffffffffffffffffffffffffff1673ffffffffffffffffffffffffffffffffffffffff16815260200190815260200160002060006101000a81548160ff021916908315150217905550505050565b600073ffffffffffffffffffffffffffffffffffffffff168573ffffffffffffffffffffffffffffffffffffffff161415610ba7576040517f08c379a0000000000000000000000000000000000000000000000000000000008152600401610b9e90611d95565b60405180910390fd5b6000610bb1610961565b9050610bc281888888888888610d1f565b600080600087815260200190815260200160002060008973ffffffffffffffffffffffffffffffffffffffff1673ffffffffffffffffffffffffffffffffffffffff16815260200190815260200160002054905084811015610c59576040517f08c379a0000000000000000000000000000000000000000000000000000000008152600401610c5090611e27565b60405180910390fd5b84810360008088815260200190815260200160002060008a73ffffffffffffffffffffffffffffffffffffffff1673ffffffffffffffffffffffffffffffffffffffff168152602001908152602001600020819055508460008088815260200190815260200160002060008973ffffffffffffffffffffffffffffffffffffffff1673ffffffffffffffffffffffffffffffffffffffff1681526020019081526020016000206000828254610d0e9190611c3b565b925050819055505050505050505050565b600073ffffffffffffffffffffffffffffffffffffffff168673ffffffffffffffffffffffffffffffffffffffff161415611042576000610d6086866102b0565b1415610e4c57600060405180606001604052808773ffffffffffffffffffffffffffffffffffffffff16815260200142815260200143815250905060076000868152602001908152602001600020600080815260200190815260200160002081908060018154018082558091505060019003906000526020600020906003020160009091909190915060008201518160000160006101000a81548173ffffffffffffffffffffffffffffffffffffffff021916908373ffffffffffffffffffffffffffffffffffffffff160217905550602082015181600101556040820151816002015550505061103d565b6000600760008681526020019081526020016000206000808152602001908152602001600020805480602002602001604051908101604052809291908181526020016000905b82821015610f2e57838290600052602060002090600302016040518060600160405290816000820160009054906101000a900473ffffffffffffffffffffffffffffffffffffffff1673ffffffffffffffffffffffffffffffffffffffff1673ffffffffffffffffffffffffffffffffffffffff1681526020016001820154815260200160028201548152505081526020019060010190610e92565b5050505090506000600190505b84811161103a5760005b825181101561102657600760008881526020019081526020016000206000838152602001908152602001600020838281518110610f8557610f84611e47565b5b6020026020010151908060018154018082558091505060019003906000526020600020906003020160009091909190915060008201518160000160006101000a81548173ffffffffffffffffffffffffffffffffffffffff021916908373ffffffffffffffffffffffffffffffffffffffff16021790555060208201518160010155604082015181600201555050808061101e90611e76565b915050610f45565b50808061103290611e76565b915050610f3b565b50505b611155565b60008190505b600084111561115357600060405180606001604052808873ffffffffffffffffffffffffffffffffffffffff16815260200142815260200143815250905060076000878152602001908152602001600020600083815260200190815260200160002081908060018154018082558091505060019003906000526020600020906003020160009091909190915060008201518160000160006101000a81548173ffffffffffffffffffffffffffffffffffffffff021916908373ffffffffffffffffffffffffffffffffffffffff16021790555060208201518160010155604082015181600201555050848061113c90611ebf565b955050818061114a90611e76565b92505050611048565b505b6111648787878787878761116d565b50505050505050565b61117c878787878787876112ae565b600073ffffffffffffffffffffffffffffffffffffffff168673ffffffffffffffffffffffffffffffffffffffff1614156111dc57826005600086815260200190815260200160002060008282546111d49190611c3b565b925050819055505b600073ffffffffffffffffffffffffffffffffffffffff168673ffffffffffffffffffffffffffffffffffffffff161480156112215750600061121f86866102b0565b145b156112a5576002600081548092919061123990611e76565b9190505550600360008673ffffffffffffffffffffffffffffffffffffffff1673ffffffffffffffffffffffffffffffffffffffff1681526020019081526020016000208490806001815401808255809150506001900390600052602060002001600090919091909150555b50505050505050565b50505050505050565b6000819050919050565b6112ca816112b7565b82525050565b60006020820190506112e560008301846112c1565b92915050565b6000604051905090565b600080fd5b600080fd5b600073ffffffffffffffffffffffffffffffffffffffff82169050919050565b600061132a826112ff565b9050919050565b61133a8161131f565b811461134557600080fd5b50565b60008135905061135781611331565b92915050565b611366816112b7565b811461137157600080fd5b50565b6000813590506113838161135d565b92915050565b600080604083850312156113a05761139f6112f5565b5b60006113ae85828601611348565b92505060206113bf85828601611374565b9150509250929050565b6000806000606084860312156113e2576113e16112f5565b5b60006113f086828701611348565b935050602061140186828701611374565b925050604061141286828701611374565b9150509250925092565b600080600060608486031215611435576114346112f5565b5b600061144386828701611374565b935050602061145486828701611374565b925050604061146586828701611374565b9150509250925092565b6114788161131f565b82525050565b6000606082019050611493600083018661146f565b6114a060208301856112c1565b6114ad60408301846112c1565b949350505050565b6000602082840312156114cb576114ca6112f5565b5b60006114d984828501611374565b91505092915050565b60008115159050919050565b6114f7816114e2565b82525050565b600060208201905061151260008301846114ee565b92915050565b600060208201905061152d600083018461146f565b92915050565b600060208284031215611549576115486112f5565b5b600061155784828501611348565b91505092915050565b600081519050919050565b600082825260208201905092915050565b6000819050602082019050919050565b611595816112b7565b82525050565b60006115a7838361158c565b60208301905092915050565b6000602082019050919050565b60006115cb82611560565b6115d5818561156b565b93506115e08361157c565b8060005b838110156116115781516115f8888261159b565b9750611603836115b3565b9250506001810190506115e4565b5085935050505092915050565b6000602082019050818103600083015261163881846115c0565b905092915050565b611649816114e2565b811461165457600080fd5b50565b60008135905061166681611640565b92915050565b60008060408385031215611683576116826112f5565b5b600061169185828601611348565b92505060206116a285828601611657565b9150509250929050565b600080fd5b600080fd5b6000601f19601f8301169050919050565b7f4e487b7100000000000000000000000000000000000000000000000000000000600052604160045260246000fd5b6116ff826116b6565b810181811067ffffffffffffffff8211171561171e5761171d6116c7565b5b80604052505050565b60006117316112eb565b905061173d82826116f6565b919050565b600067ffffffffffffffff82111561175d5761175c6116c7565b5b611766826116b6565b9050602081019050919050565b82818337600083830152505050565b600061179561179084611742565b611727565b9050828152602081018484840111156117b1576117b06116b1565b5b6117bc848285611773565b509392505050565b600082601f8301126117d9576117d86116ac565b5b81356117e9848260208601611782565b91505092915050565b60008060008060008060c0878903121561180f5761180e6112f5565b5b600061181d89828a01611348565b965050602061182e89828a01611348565b955050604061183f89828a01611374565b945050606061185089828a01611374565b935050608087013567ffffffffffffffff811115611871576118706112fa565b5b61187d89828a016117c4565b92505060a061188e89828a01611374565b9150509295509295509295565b600080604083850312156118b2576118b16112f5565b5b60006118c085828601611348565b92505060206118d185828601611348565b9150509250929050565b600082825260208201905092915050565b7f455243313135353a2062616c616e636520717565727920666f7220746865207a60008201527f65726f2061646472657373000000000000000000000000000000000000000000602082015250565b6000611948602b836118db565b9150611953826118ec565b604082019050919050565b600060208201905081810360008301526119778161193b565b9050919050565b7f4f4e4c59204f574e45522043414e204d494e5400000000000000000000000000600082015250565b60006119b46013836118db565b91506119bf8261197e565b602082019050919050565b600060208201905081810360008301526119e3816119a7565b9050919050565b7f4f776e61626c653a2063616c6c6572206973206e6f7420746865206f776e6572600082015250565b6000611a206020836118db565b9150611a2b826119ea565b602082019050919050565b60006020820190508181036000830152611a4f81611a13565b9050919050565b7f455243313135353a2063616c6c6572206973206e6f74206f776e6572206e6f7260008201527f20617070726f7665640000000000000000000000000000000000000000000000602082015250565b6000611ab26029836118db565b9150611abd82611a56565b604082019050919050565b60006020820190508181036000830152611ae181611aa5565b9050919050565b7f4f776e61626c653a206e6577206f776e657220697320746865207a65726f206160008201527f6464726573730000000000000000000000000000000000000000000000000000602082015250565b6000611b446026836118db565b9150611b4f82611ae8565b604082019050919050565b60006020820190508181036000830152611b7381611b37565b9050919050565b7f455243313135353a206d696e7420746f20746865207a65726f2061646472657360008201527f7300000000000000000000000000000000000000000000000000000000000000602082015250565b6000611bd66021836118db565b9150611be182611b7a565b604082019050919050565b60006020820190508181036000830152611c0581611bc9565b9050919050565b7f4e487b7100000000000000000000000000000000000000000000000000000000600052601160045260246000fd5b6000611c46826112b7565b9150611c51836112b7565b9250827fffffffffffffffffffffffffffffffffffffffffffffffffffffffffffffffff03821115611c8657611c85611c0c565b5b828201905092915050565b7f455243313135353a2073657474696e6720617070726f76616c2073746174757360008201527f20666f722073656c660000000000000000000000000000000000000000000000602082015250565b6000611ced6029836118db565b9150611cf882611c91565b604082019050919050565b60006020820190508181036000830152611d1c81611ce0565b9050919050565b7f455243313135353a207472616e7366657220746f20746865207a65726f20616460008201527f6472657373000000000000000000000000000000000000000000000000000000602082015250565b6000611d7f6025836118db565b9150611d8a82611d23565b604082019050919050565b60006020820190508181036000830152611dae81611d72565b9050919050565b7f455243313135353a20696e73756666696369656e742062616c616e636520666f60008201527f72207472616e7366657200000000000000000000000000000000000000000000602082015250565b6000611e11602a836118db565b9150611e1c82611db5565b604082019050919050565b60006020820190508181036000830152611e4081611e04565b9050919050565b7f4e487b7100000000000000000000000000000000000000000000000000000000600052603260045260246000fd5b6000611e81826112b7565b91507fffffffffffffffffffffffffffffffffffffffffffffffffffffffffffffffff821415611eb457611eb3611c0c565b5b600182019050919050565b6000611eca826112b7565b91506000821415611ede57611edd611c0c565b5b60018203905091905056fea264697066735822122098d62f7e3cdb8831e956377168801aedf30371ba9c7b9421643964cd49ebdea064736f6c63430008080033",
  "linkReferences": {},
  "deployedLinkReferences": {}
}