{
  "_format": "hh-sol-artifact-1",
  "contractName": "SupplyChainToken",
  "sourceName": "contracts/SupplyChainERC1155.sol",
  "abi": [
    {
      "inputs": [],
      "stateMutability": "nonpayable",
      "type": "constructor"
    },
    {
      "anonymous": false,
      "inputs": [
        {
          "indexed": true,
          "internalType": "address",
          "name": "previousOwner",
          "type": "address"
        },
        {
          "indexed": true,
          "internalType": "address",
          "name": "newOwner",
          "type": "address"
        }
      ],
      "name": "OwnershipTransferred",
      "type": "event"
    },
    {
      "inputs": [
        {
          "internalType": "address",
          "name": "account",
          "type": "address"
        },
        {
          "internalType": "uint256",
          "name": "id",
          "type": "uint256"
        }
      ],
      "name": "balanceOf",
      "outputs": [
        {
          "internalType": "uint256",
          "name": "",
          "type": "uint256"
        }
      ],
      "stateMutability": "view",
      "type": "function"
    },
    {
      "inputs": [
        {
          "internalType": "uint256",
          "name": "",
          "type": "uint256"
        },
        {
          "internalType": "uint256",
          "name": "",
          "type": "uint256"
        },
        {
          "internalType": "uint256",
          "name": "",
          "type": "uint256"
        }
      ],
      "name": "entityMap",
      "outputs": [
        {
          "internalType": "address",
          "name": "bearer",
          "type": "address"
        },
        {
          "internalType": "uint256",
          "name": "timestamp",
          "type": "uint256"
        },
        {
          "internalType": "uint256",
          "name": "blocknumber",
          "type": "uint256"
        }
      ],
      "stateMutability": "view",
      "type": "function"
    },
    {
      "inputs": [
        {
          "internalType": "uint256",
          "name": "id",
          "type": "uint256"
        }
      ],
      "name": "exists",
      "outputs": [
        {
          "internalType": "bool",
          "name": "",
          "type": "bool"
        }
      ],
      "stateMutability": "view",
      "type": "function"
    },
    {
      "inputs": [
        {
          "internalType": "address",
          "name": "owner",
          "type": "address"
        }
      ],
      "name": "getMySupplyTokens",
      "outputs": [
        {
          "internalType": "uint256[]",
          "name": "",
          "type": "uint256[]"
        }
      ],
      "stateMutability": "view",
      "type": "function"
    },
    {
      "inputs": [
        {
          "internalType": "address",
          "name": "account",
          "type": "address"
        },
        {
          "internalType": "address",
          "name": "operator",
          "type": "address"
        }
      ],
      "name": "isApprovedForAll",
      "outputs": [
        {
          "internalType": "bool",
          "name": "",
          "type": "bool"
        }
      ],
      "stateMutability": "view",
      "type": "function"
    },
    {
      "inputs": [
        {
          "internalType": "address",
          "name": "_account",
          "type": "address"
        },
        {
          "internalType": "uint256",
          "name": "id",
          "type": "uint256"
        },
        {
          "internalType": "uint256",
          "name": "_amount",
          "type": "uint256"
        }
      ],
      "name": "mint",
      "outputs": [],
      "stateMutability": "nonpayable",
      "type": "function"
    },
    {
      "inputs": [],
      "name": "owner",
      "outputs": [
        {
          "internalType": "address",
          "name": "",
          "type": "address"
        }
      ],
      "stateMutability": "view",
      "type": "function"
    },
    {
      "inputs": [],
      "name": "renounceOwnership",
      "outputs": [],
      "stateMutability": "nonpayable",
      "type": "function"
    },
    {
      "inputs": [
        {
          "internalType": "address",
          "name": "from",
          "type": "address"
        },
        {
          "internalType": "address",
          "name": "to",
          "type": "address"
        },
        {
          "internalType": "uint256",
          "name": "id",
          "type": "uint256"
        },
        {
          "internalType": "uint256",
          "name": "amount",
          "type": "uint256"
        },
        {
          "internalType": "bytes",
          "name": "data",
          "type": "bytes"
        },
        {
          "internalType": "uint256",
          "name": "counter",
          "type": "uint256"
        }
      ],
      "name": "safeTransferFrom",
      "outputs": [],
      "stateMutability": "nonpayable",
      "type": "function"
    },
    {
      "inputs": [
        {
          "internalType": "address",
          "name": "operator",
          "type": "address"
        },
        {
          "internalType": "bool",
          "name": "approved",
          "type": "bool"
        }
      ],
      "name": "setApprovalForAll",
      "outputs": [],
      "stateMutability": "nonpayable",
      "type": "function"
    },
    {
      "inputs": [],
      "name": "totalNFT",
      "outputs": [
        {
          "internalType": "uint256",
          "name": "",
          "type": "uint256"
        }
      ],
      "stateMutability": "view",
      "type": "function"
    },
    {
      "inputs": [
        {
          "internalType": "uint256",
          "name": "id",
          "type": "uint256"
        }
      ],
      "name": "totalSupply",
      "outputs": [
        {
          "internalType": "uint256",
          "name": "",
          "type": "uint256"
        }
      ],
      "stateMutability": "view",
      "type": "function"
    },
    {
      "inputs": [
        {
          "internalType": "address",
          "name": "newOwner",
          "type": "address"
        }
      ],
      "name": "transferOwnership",
      "outputs": [],
      "stateMutability": "nonpayable",
      "type": "function"
    }
  ],
  "bytecode": "0x608060405234801561001057600080fd5b5061002d61002261003260201b60201c565b61003a60201b60201c565b610100565b600033905090565b6000600460009054906101000a900473ffffffffffffffffffffffffffffffffffffffff16905081600460006101000a81548173ffffffffffffffffffffffffffffffffffffffff021916908373ffffffffffffffffffffffffffffffffffffffff1602179055508173ffffffffffffffffffffffffffffffffffffffff168173ffffffffffffffffffffffffffffffffffffffff167f8be0079c531659141344cd1fd0a4f28419497f9722a3daafe3b4186f6b6457e060405160405180910390a35050565b611eb58061010f6000396000f3fe608060405234801561001057600080fd5b50600436106100cd5760003560e01c80638da5cb5b1161008c578063bd85b03911610066578063bd85b03914610212578063e51a27ce14610242578063e985e9c51461025e578063f2fde38b1461028e576100cd565b80638da5cb5b146101a857806397dc4a0a146101c6578063a22cb465146101f6576100cd565b8062456379146100d2578062fdd58e146100f0578063156e29f6146101205780631c8d509c1461013c5780634f558e791461016e578063715018a61461019e575b600080fd5b6100da6102aa565b6040516100e79190611266565b60405180910390f35b61010a6004803603810190610105919061131f565b6102b0565b6040516101179190611266565b60405180910390f35b61013a6004803603810190610135919061135f565b610379565b005b610156600480360381019061015191906113b2565b610434565b60405161016593929190611414565b60405180910390f35b6101886004803603810190610183919061144b565b6104a8565b6040516101959190611493565b60405180910390f35b6101a66104bc565b005b6101b06104d0565b6040516101bd91906114ae565b60405180910390f35b6101e060048036038101906101db91906114c9565b6104fa565b6040516101ed91906115b4565b60405180910390f35b610210600480360381019061020b9190611602565b610591565b005b61022c6004803603810190610227919061144b565b6105a7565b6040516102399190611266565b60405180910390f35b61025c60048036038101906102579190611788565b6105c4565b005b61027860048036038101906102739190611831565b610667565b6040516102859190611493565b60405180910390f35b6102a860048036038101906102a391906114c9565b6106fb565b005b60025481565b60008073ffffffffffffffffffffffffffffffffffffffff168373ffffffffffffffffffffffffffffffffffffffff161415610321576040517f08c379a0000000000000000000000000000000000000000000000000000000008152600401610318906118f4565b60405180910390fd5b60008083815260200190815260200160002060008473ffffffffffffffffffffffffffffffffffffffff1673ffffffffffffffffffffffffffffffffffffffff16815260200190815260200160002054905092915050565b6103816104d0565b73ffffffffffffffffffffffffffffffffffffffff163373ffffffffffffffffffffffffffffffffffffffff16146103ee576040517f08c379a00000000000000000000000000000000000000000000000000000000081526004016103e590611960565b60405180910390fd5b61042f8383836040518060400160405280600481526020017f307830300000000000000000000000000000000000000000000000000000000081525061077f565b505050565b6007602052826000526040600020602052816000526040600020818154811061045c57600080fd5b906000526020600020906003020160009250925050508060000160009054906101000a900473ffffffffffffffffffffffffffffffffffffffff16908060010154908060020154905083565b6000806104b4836105a7565b119050919050565b6104c4610879565b6104ce60006108f7565b565b6000600460009054906101000a900473ffffffffffffffffffffffffffffffffffffffff16905090565b6060600360008373ffffffffffffffffffffffffffffffffffffffff1673ffffffffffffffffffffffffffffffffffffffff16815260200190815260200160002080548060200260200160405190810160405280929190818152602001828054801561058557602002820191906000526020600020905b815481526020019060010190808311610571575b50505050509050919050565b6105a361059c6109bd565b83836109c5565b5050565b600060056000838152602001908152602001600020549050919050565b6105cc6109bd565b73ffffffffffffffffffffffffffffffffffffffff168673ffffffffffffffffffffffffffffffffffffffff16148061061257506106118661060c6109bd565b610667565b5b610651576040517f08c379a0000000000000000000000000000000000000000000000000000000008152600401610648906119f2565b60405180910390fd5b61065f868686868686610acd565b505050505050565b6000600160008473ffffffffffffffffffffffffffffffffffffffff1673ffffffffffffffffffffffffffffffffffffffff16815260200190815260200160002060008373ffffffffffffffffffffffffffffffffffffffff1673ffffffffffffffffffffffffffffffffffffffff16815260200190815260200160002060009054906101000a900460ff16905092915050565b610703610879565b600073ffffffffffffffffffffffffffffffffffffffff168173ffffffffffffffffffffffffffffffffffffffff161415610773576040517f08c379a000000000000000000000000000000000000000000000000000000000815260040161076a90611a84565b60405180910390fd5b61077c816108f7565b50565b600073ffffffffffffffffffffffffffffffffffffffff168473ffffffffffffffffffffffffffffffffffffffff1614156107ef576040517f08c379a00000000000000000000000000000000000000000000000000000000081526004016107e690611b16565b60405180910390fd5b60006107f96109bd565b905061080c816000878787876000610cb5565b8260008086815260200190815260200160002060008773ffffffffffffffffffffffffffffffffffffffff1673ffffffffffffffffffffffffffffffffffffffff168152602001908152602001600020600082825461086b9190611b65565b925050819055505050505050565b6108816109bd565b73ffffffffffffffffffffffffffffffffffffffff1661089f6104d0565b73ffffffffffffffffffffffffffffffffffffffff16146108f5576040517f08c379a00000000000000000000000000000000000000000000000000000000081526004016108ec90611c07565b60405180910390fd5b565b6000600460009054906101000a900473ffffffffffffffffffffffffffffffffffffffff16905081600460006101000a81548173ffffffffffffffffffffffffffffffffffffffff021916908373ffffffffffffffffffffffffffffffffffffffff1602179055508173ffffffffffffffffffffffffffffffffffffffff168173ffffffffffffffffffffffffffffffffffffffff167f8be0079c531659141344cd1fd0a4f28419497f9722a3daafe3b4186f6b6457e060405160405180910390a35050565b600033905090565b8173ffffffffffffffffffffffffffffffffffffffff168373ffffffffffffffffffffffffffffffffffffffff161415610a34576040517f08c379a0000000000000000000000000000000000000000000000000000000008152600401610a2b90611c99565b60405180910390fd5b80600160008573ffffffffffffffffffffffffffffffffffffffff1673ffffffffffffffffffffffffffffffffffffffff16815260200190815260200160002060008473ffffffffffffffffffffffffffffffffffffffff1673ffffffffffffffffffffffffffffffffffffffff16815260200190815260200160002060006101000a81548160ff021916908315150217905550505050565b600073ffffffffffffffffffffffffffffffffffffffff168573ffffffffffffffffffffffffffffffffffffffff161415610b3d576040517f08c379a0000000000000000000000000000000000000000000000000000000008152600401610b3490611d2b565b60405180910390fd5b6000610b476109bd565b9050610b5881888888888888610cb5565b600080600087815260200190815260200160002060008973ffffffffffffffffffffffffffffffffffffffff1673ffffffffffffffffffffffffffffffffffffffff16815260200190815260200160002054905084811015610bef576040517f08c379a0000000000000000000000000000000000000000000000000000000008152600401610be690611dbd565b60405180910390fd5b84810360008088815260200190815260200160002060008a73ffffffffffffffffffffffffffffffffffffffff1673ffffffffffffffffffffffffffffffffffffffff168152602001908152602001600020819055508460008088815260200190815260200160002060008973ffffffffffffffffffffffffffffffffffffffff1673ffffffffffffffffffffffffffffffffffffffff1681526020019081526020016000206000828254610ca49190611b65565b925050819055505050505050505050565b600073ffffffffffffffffffffffffffffffffffffffff168673ffffffffffffffffffffffffffffffffffffffff161415610fd8576000610cf686866102b0565b1415610de257600060405180606001604052808773ffffffffffffffffffffffffffffffffffffffff16815260200142815260200143815250905060076000868152602001908152602001600020600080815260200190815260200160002081908060018154018082558091505060019003906000526020600020906003020160009091909190915060008201518160000160006101000a81548173ffffffffffffffffffffffffffffffffffffffff021916908373ffffffffffffffffffffffffffffffffffffffff1602179055506020820151816001015560408201518160020155505050610fd3565b6000600760008681526020019081526020016000206000808152602001908152602001600020805480602002602001604051908101604052809291908181526020016000905b82821015610ec457838290600052602060002090600302016040518060600160405290816000820160009054906101000a900473ffffffffffffffffffffffffffffffffffffffff1673ffffffffffffffffffffffffffffffffffffffff1673ffffffffffffffffffffffffffffffffffffffff1681526020016001820154815260200160028201548152505081526020019060010190610e28565b5050505090506000600190505b848111610fd05760005b8251811015610fbc57600760008881526020019081526020016000206000838152602001908152602001600020838281518110610f1b57610f1a611ddd565b5b6020026020010151908060018154018082558091505060019003906000526020600020906003020160009091909190915060008201518160000160006101000a81548173ffffffffffffffffffffffffffffffffffffffff021916908373ffffffffffffffffffffffffffffffffffffffff160217905550602082015181600101556040820151816002015550508080610fb490611e0c565b915050610edb565b508080610fc890611e0c565b915050610ed1565b50505b6110eb565b60008190505b60008411156110e957600060405180606001604052808873ffffffffffffffffffffffffffffffffffffffff16815260200142815260200143815250905060076000878152602001908152602001600020600083815260200190815260200160002081908060018154018082558091505060019003906000526020600020906003020160009091909190915060008201518160000160006101000a81548173ffffffffffffffffffffffffffffffffffffffff021916908373ffffffffffffffffffffffffffffffffffffffff1602179055506020820151816001015560408201518160020155505084806110d290611e55565b95505081806110e090611e0c565b92505050610fde565b505b6110fa87878787878787611103565b50505050505050565b61111287878787878787611244565b600073ffffffffffffffffffffffffffffffffffffffff168673ffffffffffffffffffffffffffffffffffffffff161415611172578260056000868152602001908152602001600020600082825461116a9190611b65565b925050819055505b600073ffffffffffffffffffffffffffffffffffffffff168673ffffffffffffffffffffffffffffffffffffffff161480156111b7575060006111b586866102b0565b145b1561123b57600260008154809291906111cf90611e0c565b9190505550600360008673ffffffffffffffffffffffffffffffffffffffff1673ffffffffffffffffffffffffffffffffffffffff1681526020019081526020016000208490806001815401808255809150506001900390600052602060002001600090919091909150555b50505050505050565b50505050505050565b6000819050919050565b6112608161124d565b82525050565b600060208201905061127b6000830184611257565b92915050565b6000604051905090565b600080fd5b600080fd5b600073ffffffffffffffffffffffffffffffffffffffff82169050919050565b60006112c082611295565b9050919050565b6112d0816112b5565b81146112db57600080fd5b50565b6000813590506112ed816112c7565b92915050565b6112fc8161124d565b811461130757600080fd5b50565b600081359050611319816112f3565b92915050565b600080604083850312156113365761133561128b565b5b6000611344858286016112de565b92505060206113558582860161130a565b9150509250929050565b6000806000606084860312156113785761137761128b565b5b6000611386868287016112de565b93505060206113978682870161130a565b92505060406113a88682870161130a565b9150509250925092565b6000806000606084860312156113cb576113ca61128b565b5b60006113d98682870161130a565b93505060206113ea8682870161130a565b92505060406113fb8682870161130a565b9150509250925092565b61140e816112b5565b82525050565b60006060820190506114296000830186611405565b6114366020830185611257565b6114436040830184611257565b949350505050565b6000602082840312156114615761146061128b565b5b600061146f8482850161130a565b91505092915050565b60008115159050919050565b61148d81611478565b82525050565b60006020820190506114a86000830184611484565b92915050565b60006020820190506114c36000830184611405565b92915050565b6000602082840312156114df576114de61128b565b5b60006114ed848285016112de565b91505092915050565b600081519050919050565b600082825260208201905092915050565b6000819050602082019050919050565b61152b8161124d565b82525050565b600061153d8383611522565b60208301905092915050565b6000602082019050919050565b6000611561826114f6565b61156b8185611501565b935061157683611512565b8060005b838110156115a757815161158e8882611531565b975061159983611549565b92505060018101905061157a565b5085935050505092915050565b600060208201905081810360008301526115ce8184611556565b905092915050565b6115df81611478565b81146115ea57600080fd5b50565b6000813590506115fc816115d6565b92915050565b600080604083850312156116195761161861128b565b5b6000611627858286016112de565b9250506020611638858286016115ed565b9150509250929050565b600080fd5b600080fd5b6000601f19601f8301169050919050565b7f4e487b7100000000000000000000000000000000000000000000000000000000600052604160045260246000fd5b6116958261164c565b810181811067ffffffffffffffff821117156116b4576116b361165d565b5b80604052505050565b60006116c7611281565b90506116d3828261168c565b919050565b600067ffffffffffffffff8211156116f3576116f261165d565b5b6116fc8261164c565b9050602081019050919050565b82818337600083830152505050565b600061172b611726846116d8565b6116bd565b90508281526020810184848401111561174757611746611647565b5b611752848285611709565b509392505050565b600082601f83011261176f5761176e611642565b5b813561177f848260208601611718565b91505092915050565b60008060008060008060c087890312156117a5576117a461128b565b5b60006117b389828a016112de565b96505060206117c489828a016112de565b95505060406117d589828a0161130a565b94505060606117e689828a0161130a565b935050608087013567ffffffffffffffff81111561180757611806611290565b5b61181389828a0161175a565b92505060a061182489828a0161130a565b9150509295509295509295565b600080604083850312156118485761184761128b565b5b6000611856858286016112de565b9250506020611867858286016112de565b9150509250929050565b600082825260208201905092915050565b7f455243313135353a2062616c616e636520717565727920666f7220746865207a60008201527f65726f2061646472657373000000000000000000000000000000000000000000602082015250565b60006118de602b83611871565b91506118e982611882565b604082019050919050565b6000602082019050818103600083015261190d816118d1565b9050919050565b7f4f4e4c59204f574e45522043414e204d494e5400000000000000000000000000600082015250565b600061194a601383611871565b915061195582611914565b602082019050919050565b600060208201905081810360008301526119798161193d565b9050919050565b7f455243313135353a2063616c6c6572206973206e6f74206f776e6572206e6f7260008201527f20617070726f7665640000000000000000000000000000000000000000000000602082015250565b60006119dc602983611871565b91506119e782611980565b604082019050919050565b60006020820190508181036000830152611a0b816119cf565b9050919050565b7f4f776e61626c653a206e6577206f776e657220697320746865207a65726f206160008201527f6464726573730000000000000000000000000000000000000000000000000000602082015250565b6000611a6e602683611871565b9150611a7982611a12565b604082019050919050565b60006020820190508181036000830152611a9d81611a61565b9050919050565b7f455243313135353a206d696e7420746f20746865207a65726f2061646472657360008201527f7300000000000000000000000000000000000000000000000000000000000000602082015250565b6000611b00602183611871565b9150611b0b82611aa4565b604082019050919050565b60006020820190508181036000830152611b2f81611af3565b9050919050565b7f4e487b7100000000000000000000000000000000000000000000000000000000600052601160045260246000fd5b6000611b708261124d565b9150611b7b8361124d565b9250827fffffffffffffffffffffffffffffffffffffffffffffffffffffffffffffffff03821115611bb057611baf611b36565b5b828201905092915050565b7f4f776e61626c653a2063616c6c6572206973206e6f7420746865206f776e6572600082015250565b6000611bf1602083611871565b9150611bfc82611bbb565b602082019050919050565b60006020820190508181036000830152611c2081611be4565b9050919050565b7f455243313135353a2073657474696e6720617070726f76616c2073746174757360008201527f20666f722073656c660000000000000000000000000000000000000000000000602082015250565b6000611c83602983611871565b9150611c8e82611c27565b604082019050919050565b60006020820190508181036000830152611cb281611c76565b9050919050565b7f455243313135353a207472616e7366657220746f20746865207a65726f20616460008201527f6472657373000000000000000000000000000000000000000000000000000000602082015250565b6000611d15602583611871565b9150611d2082611cb9565b604082019050919050565b60006020820190508181036000830152611d4481611d08565b9050919050565b7f455243313135353a20696e73756666696369656e742062616c616e636520666f60008201527f72207472616e7366657200000000000000000000000000000000000000000000602082015250565b6000611da7602a83611871565b9150611db282611d4b565b604082019050919050565b60006020820190508181036000830152611dd681611d9a565b9050919050565b7f4e487b7100000000000000000000000000000000000000000000000000000000600052603260045260246000fd5b6000611e178261124d565b91507fffffffffffffffffffffffffffffffffffffffffffffffffffffffffffffffff821415611e4a57611e49611b36565b5b600182019050919050565b6000611e608261124d565b91506000821415611e7457611e73611b36565b5b60018203905091905056fea264697066735822122009058d840d29177abab060e3b374fafee802ec69bb9089d4f549e836ddc9a34b64736f6c63430008080033",
  "linkReferences": {},
  "deployedLinkReferences": {}
}