{
  "_format": "hh-sol-artifact-1",
  "contractName": "Factory",
  "sourceName": "contracts/Roles/Factory.sol",
  "abi": [
    {
      "inputs": [],
      "stateMutability": "nonpayable",
      "type": "constructor"
    },
    {
      "anonymous": false,
      "inputs": [
        {
          "indexed": false,
          "internalType": "address",
          "name": "_address",
          "type": "address"
        }
      ],
      "name": "AddFactory",
      "type": "event"
    },
    {
      "anonymous": false,
      "inputs": [
        {
          "indexed": true,
          "internalType": "address",
          "name": "previousOwner",
          "type": "address"
        },
        {
          "indexed": true,
          "internalType": "address",
          "name": "newOwner",
          "type": "address"
        }
      ],
      "name": "OwnershipTransferred",
      "type": "event"
    },
    {
      "anonymous": false,
      "inputs": [
        {
          "indexed": false,
          "internalType": "address",
          "name": "_address",
          "type": "address"
        }
      ],
      "name": "RemoveFactory",
      "type": "event"
    },
    {
      "inputs": [
        {
          "internalType": "address",
          "name": "_address",
          "type": "address"
        }
      ],
      "name": "addFactory",
      "outputs": [],
      "stateMutability": "nonpayable",
      "type": "function"
    },
    {
      "inputs": [],
      "name": "getFactory",
      "outputs": [
        {
          "internalType": "address[]",
          "name": "",
          "type": "address[]"
        }
      ],
      "stateMutability": "view",
      "type": "function"
    },
    {
      "inputs": [
        {
          "internalType": "address",
          "name": "_address",
          "type": "address"
        }
      ],
      "name": "isFactory",
      "outputs": [
        {
          "internalType": "bool",
          "name": "",
          "type": "bool"
        }
      ],
      "stateMutability": "view",
      "type": "function"
    },
    {
      "inputs": [],
      "name": "owner",
      "outputs": [
        {
          "internalType": "address",
          "name": "",
          "type": "address"
        }
      ],
      "stateMutability": "view",
      "type": "function"
    },
    {
      "inputs": [
        {
          "internalType": "address",
          "name": "_address",
          "type": "address"
        }
      ],
      "name": "removeFactory",
      "outputs": [],
      "stateMutability": "nonpayable",
      "type": "function"
    },
    {
      "inputs": [
        {
          "internalType": "address",
          "name": "_address",
          "type": "address"
        }
      ],
      "name": "removeFactorySelf",
      "outputs": [],
      "stateMutability": "nonpayable",
      "type": "function"
    },
    {
      "inputs": [],
      "name": "renounceOwnership",
      "outputs": [],
      "stateMutability": "nonpayable",
      "type": "function"
    },
    {
      "inputs": [
        {
          "internalType": "address",
          "name": "newOwner",
          "type": "address"
        }
      ],
      "name": "transferOwnership",
      "outputs": [],
      "stateMutability": "nonpayable",
      "type": "function"
    }
  ],
  "bytecode": "0x60806040523480156200001157600080fd5b5062000032620000266200004960201b60201c565b6200005160201b60201c565b62000043336200011560201b60201c565b620005af565b600033905090565b60008060009054906101000a900473ffffffffffffffffffffffffffffffffffffffff169050816000806101000a81548173ffffffffffffffffffffffffffffffffffffffff021916908373ffffffffffffffffffffffffffffffffffffffff1602179055508173ffffffffffffffffffffffffffffffffffffffff168173ffffffffffffffffffffffffffffffffffffffff167f8be0079c531659141344cd1fd0a4f28419497f9722a3daafe3b4186f6b6457e060405160405180910390a35050565b620001256200004960201b60201c565b73ffffffffffffffffffffffffffffffffffffffff166200014b620001fb60201b60201c565b73ffffffffffffffffffffffffffffffffffffffff1614620001a4576040517f08c379a00000000000000000000000000000000000000000000000000000000081526004016200019b9062000403565b60405180910390fd5b620001bf8160016200022460201b6200059a1790919060201c565b7f5a8fb443d09cf1426e80f80dd509757d71d4687674ab4adad906c5e2b6e1e62c81604051620001f091906200046a565b60405180910390a150565b60008060009054906101000a900473ffffffffffffffffffffffffffffffffffffffff16905090565b620002368282620002e260201b60201c565b1562000279576040517f08c379a00000000000000000000000000000000000000000000000000000000081526004016200027090620004d7565b60405180910390fd5b81600001819080600181540180825580915050600190039060005260206000200160009091909190916101000a81548173ffffffffffffffffffffffffffffffffffffffff021916908373ffffffffffffffffffffffffffffffffffffffff1602179055505050565b6000808360000180549050905060005b8181101562000395578373ffffffffffffffffffffffffffffffffffffffff168560000182815481106200032b576200032a620004f9565b5b9060005260206000200160009054906101000a900473ffffffffffffffffffffffffffffffffffffffff1673ffffffffffffffffffffffffffffffffffffffff1614156200037f576001925050506200039c565b80806200038c9062000561565b915050620002f2565b5060009150505b92915050565b600082825260208201905092915050565b7f4f776e61626c653a2063616c6c6572206973206e6f7420746865206f776e6572600082015250565b6000620003eb602083620003a2565b9150620003f882620003b3565b602082019050919050565b600060208201905081810360008301526200041e81620003dc565b9050919050565b600073ffffffffffffffffffffffffffffffffffffffff82169050919050565b6000620004528262000425565b9050919050565b620004648162000445565b82525050565b600060208201905062000481600083018462000459565b92915050565b7f524f4c455f414c52454144595f45584953545300000000000000000000000000600082015250565b6000620004bf601383620003a2565b9150620004cc8262000487565b602082019050919050565b60006020820190508181036000830152620004f281620004b0565b9050919050565b7f4e487b7100000000000000000000000000000000000000000000000000000000600052603260045260246000fd5b7f4e487b7100000000000000000000000000000000000000000000000000000000600052601160045260246000fd5b6000819050919050565b60006200056e8262000557565b91507fffffffffffffffffffffffffffffffffffffffffffffffffffffffffffffffff821415620005a457620005a362000528565b5b600182019050919050565b610f0d80620005bf6000396000f3fe608060405234801561001057600080fd5b50600436106100885760003560e01c8063844805101161005b57806384480510146100ff57806388cc58e41461011b5780638da5cb5b14610139578063f2fde38b1461015757610088565b80630f04ba671461008d57806329ce1ec5146100bd5780634b37c73f146100d9578063715018a6146100f5575b600080fd5b6100a760048036038101906100a29190610a6f565b610173565b6040516100b49190610ab7565b60405180910390f35b6100d760048036038101906100d29190610a6f565b610190565b005b6100f360048036038101906100ee9190610a6f565b61025a565b005b6100fd610324565b005b61011960048036038101906101149190610a6f565b6103ac565b005b610123610468565b6040516101309190610b90565b60405180910390f35b610141610479565b60405161014e9190610bc1565b60405180910390f35b610171600480360381019061016c9190610a6f565b6104a2565b005b600061018982600161064d90919063ffffffff16565b9050919050565b610198610704565b73ffffffffffffffffffffffffffffffffffffffff166101b6610479565b73ffffffffffffffffffffffffffffffffffffffff161461020c576040517f08c379a000000000000000000000000000000000000000000000000000000000815260040161020390610c39565b60405180910390fd5b61022081600161059a90919063ffffffff16565b7f5a8fb443d09cf1426e80f80dd509757d71d4687674ab4adad906c5e2b6e1e62c8160405161024f9190610bc1565b60405180910390a150565b610262610704565b73ffffffffffffffffffffffffffffffffffffffff16610280610479565b73ffffffffffffffffffffffffffffffffffffffff16146102d6576040517f08c379a00000000000000000000000000000000000000000000000000000000081526004016102cd90610c39565b60405180910390fd5b6102ea81600161070c90919063ffffffff16565b7f3d4e7057f9f992c8d86344002642adf5d5cd33816b302134e7ef5e0f045a6e78816040516103199190610bc1565b60405180910390a150565b61032c610704565b73ffffffffffffffffffffffffffffffffffffffff1661034a610479565b73ffffffffffffffffffffffffffffffffffffffff16146103a0576040517f08c379a000000000000000000000000000000000000000000000000000000000815260040161039790610c39565b60405180910390fd5b6103aa60006108b6565b565b8073ffffffffffffffffffffffffffffffffffffffff163373ffffffffffffffffffffffffffffffffffffffff161461041a576040517f08c379a000000000000000000000000000000000000000000000000000000000815260040161041190610ca5565b60405180910390fd5b61042e81600161070c90919063ffffffff16565b7f3d4e7057f9f992c8d86344002642adf5d5cd33816b302134e7ef5e0f045a6e788160405161045d9190610bc1565b60405180910390a150565b6060610474600161097a565b905090565b60008060009054906101000a900473ffffffffffffffffffffffffffffffffffffffff16905090565b6104aa610704565b73ffffffffffffffffffffffffffffffffffffffff166104c8610479565b73ffffffffffffffffffffffffffffffffffffffff161461051e576040517f08c379a000000000000000000000000000000000000000000000000000000000815260040161051590610c39565b60405180910390fd5b600073ffffffffffffffffffffffffffffffffffffffff168173ffffffffffffffffffffffffffffffffffffffff16141561058e576040517f08c379a000000000000000000000000000000000000000000000000000000000815260040161058590610d37565b60405180910390fd5b610597816108b6565b50565b6105a4828261064d565b156105e4576040517f08c379a00000000000000000000000000000000000000000000000000000000081526004016105db90610da3565b60405180910390fd5b81600001819080600181540180825580915050600190039060005260206000200160009091909190916101000a81548173ffffffffffffffffffffffffffffffffffffffff021916908373ffffffffffffffffffffffffffffffffffffffff1602179055505050565b6000808360000180549050905060005b818110156106f7578373ffffffffffffffffffffffffffffffffffffffff1685600001828154811061069257610691610dc3565b5b9060005260206000200160009054906101000a900473ffffffffffffffffffffffffffffffffffffffff1673ffffffffffffffffffffffffffffffffffffffff1614156106e4576001925050506106fe565b80806106ef90610e2b565b91505061065d565b5060009150505b92915050565b600033905090565b600082600001805490509050600080600090505b828110156108665781156107da5784600001818154811061074457610743610dc3565b5b9060005260206000200160009054906101000a900473ffffffffffffffffffffffffffffffffffffffff16856000016001836107809190610e74565b8154811061079157610790610dc3565b5b9060005260206000200160006101000a81548173ffffffffffffffffffffffffffffffffffffffff021916908373ffffffffffffffffffffffffffffffffffffffff1602179055505b8373ffffffffffffffffffffffffffffffffffffffff1685600001828154811061080757610806610dc3565b5b9060005260206000200160009054906101000a900473ffffffffffffffffffffffffffffffffffffffff1673ffffffffffffffffffffffffffffffffffffffff16141561085357600191505b808061085e90610e2b565b915050610720565b508360000180548061087b5761087a610ea8565b5b6001900381819060005260206000200160006101000a81549073ffffffffffffffffffffffffffffffffffffffff0219169055905550505050565b60008060009054906101000a900473ffffffffffffffffffffffffffffffffffffffff169050816000806101000a81548173ffffffffffffffffffffffffffffffffffffffff021916908373ffffffffffffffffffffffffffffffffffffffff1602179055508173ffffffffffffffffffffffffffffffffffffffff168173ffffffffffffffffffffffffffffffffffffffff167f8be0079c531659141344cd1fd0a4f28419497f9722a3daafe3b4186f6b6457e060405160405180910390a35050565b606081600001805480602002602001604051908101604052809291908181526020018280548015610a0057602002820191906000526020600020905b8160009054906101000a900473ffffffffffffffffffffffffffffffffffffffff1673ffffffffffffffffffffffffffffffffffffffff16815260200190600101908083116109b6575b50505050509050919050565b600080fd5b600073ffffffffffffffffffffffffffffffffffffffff82169050919050565b6000610a3c82610a11565b9050919050565b610a4c81610a31565b8114610a5757600080fd5b50565b600081359050610a6981610a43565b92915050565b600060208284031215610a8557610a84610a0c565b5b6000610a9384828501610a5a565b91505092915050565b60008115159050919050565b610ab181610a9c565b82525050565b6000602082019050610acc6000830184610aa8565b92915050565b600081519050919050565b600082825260208201905092915050565b6000819050602082019050919050565b610b0781610a31565b82525050565b6000610b198383610afe565b60208301905092915050565b6000602082019050919050565b6000610b3d82610ad2565b610b478185610add565b9350610b5283610aee565b8060005b83811015610b83578151610b6a8882610b0d565b9750610b7583610b25565b925050600181019050610b56565b5085935050505092915050565b60006020820190508181036000830152610baa8184610b32565b905092915050565b610bbb81610a31565b82525050565b6000602082019050610bd66000830184610bb2565b92915050565b600082825260208201905092915050565b7f4f776e61626c653a2063616c6c6572206973206e6f7420746865206f776e6572600082015250565b6000610c23602083610bdc565b9150610c2e82610bed565b602082019050919050565b60006020820190508181036000830152610c5281610c16565b9050919050565b7f594f555f43414e5f4e4f545f524f4d4f56455f544849535f4144445245535300600082015250565b6000610c8f601f83610bdc565b9150610c9a82610c59565b602082019050919050565b60006020820190508181036000830152610cbe81610c82565b9050919050565b7f4f776e61626c653a206e6577206f776e657220697320746865207a65726f206160008201527f6464726573730000000000000000000000000000000000000000000000000000602082015250565b6000610d21602683610bdc565b9150610d2c82610cc5565b604082019050919050565b60006020820190508181036000830152610d5081610d14565b9050919050565b7f524f4c455f414c52454144595f45584953545300000000000000000000000000600082015250565b6000610d8d601383610bdc565b9150610d9882610d57565b602082019050919050565b60006020820190508181036000830152610dbc81610d80565b9050919050565b7f4e487b7100000000000000000000000000000000000000000000000000000000600052603260045260246000fd5b7f4e487b7100000000000000000000000000000000000000000000000000000000600052601160045260246000fd5b6000819050919050565b6000610e3682610e21565b91507fffffffffffffffffffffffffffffffffffffffffffffffffffffffffffffffff821415610e6957610e68610df2565b5b600182019050919050565b6000610e7f82610e21565b9150610e8a83610e21565b925082821015610e9d57610e9c610df2565b5b828203905092915050565b7f4e487b7100000000000000000000000000000000000000000000000000000000600052603160045260246000fdfea26469706673582212208bdceda928049f536d0ac704741dbdc3b26b4c67f2cc7a82f2da78b23b2d07d764736f6c63430008080033",
  "linkReferences": {},
  "deployedLinkReferences": {}
}