{
  "_format": "hh-sol-artifact-1",
  "contractName": "SimpleStorage",
  "sourceName": "contracts/SimpleStorage.sol",
  "abi": [
    {
      "anonymous": false,
      "inputs": [
        {
          "indexed": false,
          "internalType": "string",
          "name": "eventOutput",
          "type": "string"
        }
      ],
      "name": "myEventTest",
      "type": "event"
    },
    {
      "inputs": [],
      "name": "get",
      "outputs": [
        {
          "internalType": "string",
          "name": "",
          "type": "string"
        }
      ],
      "stateMutability": "view",
      "type": "function"
    },
    {
      "inputs": [
        {
          "internalType": "string",
          "name": "myText",
          "type": "string"
        }
      ],
      "name": "set",
      "outputs": [],
      "stateMutability": "nonpayable",
      "type": "function"
    },
    {
      "inputs": [],
      "name": "storedData",
      "outputs": [
        {
          "internalType": "string",
          "name": "",
          "type": "string"
        }
      ],
      "stateMutability": "view",
      "type": "function"
    }
  ],
  "bytecode": "0x608060405234801561001057600080fd5b50610596806100206000396000f3fe608060405234801561001057600080fd5b50600436106100415760003560e01c80632a1afcd9146100465780634ed3885e146100645780636d4ce63c14610080575b600080fd5b61004e61009e565b60405161005b919061034b565b60405180910390f35b61007e600480360381019061007991906104b6565b61012c565b005b61008861017d565b604051610095919061034b565b60405180910390f35b600080546100ab9061052e565b80601f01602080910402602001604051908101604052809291908181526020018280546100d79061052e565b80156101245780601f106100f957610100808354040283529160200191610124565b820191906000526020600020905b81548152906001019060200180831161010757829003601f168201915b505050505081565b806000908051906020019061014292919061020f565b507f319b9e64f64b033d6b8102f9688735cefac53d266b6e85d21cf85e9856fc7b9981604051610172919061034b565b60405180910390a150565b60606000805461018c9061052e565b80601f01602080910402602001604051908101604052809291908181526020018280546101b89061052e565b80156102055780601f106101da57610100808354040283529160200191610205565b820191906000526020600020905b8154815290600101906020018083116101e857829003601f168201915b5050505050905090565b82805461021b9061052e565b90600052602060002090601f01602090048101928261023d5760008555610284565b82601f1061025657805160ff1916838001178555610284565b82800160010185558215610284579182015b82811115610283578251825591602001919060010190610268565b5b5090506102919190610295565b5090565b5b808211156102ae576000816000905550600101610296565b5090565b600081519050919050565b600082825260208201905092915050565b60005b838110156102ec5780820151818401526020810190506102d1565b838111156102fb576000848401525b50505050565b6000601f19601f8301169050919050565b600061031d826102b2565b61032781856102bd565b93506103378185602086016102ce565b61034081610301565b840191505092915050565b600060208201905081810360008301526103658184610312565b905092915050565b6000604051905090565b600080fd5b600080fd5b600080fd5b600080fd5b7f4e487b7100000000000000000000000000000000000000000000000000000000600052604160045260246000fd5b6103c382610301565b810181811067ffffffffffffffff821117156103e2576103e161038b565b5b80604052505050565b60006103f561036d565b905061040182826103ba565b919050565b600067ffffffffffffffff8211156104215761042061038b565b5b61042a82610301565b9050602081019050919050565b82818337600083830152505050565b600061045961045484610406565b6103eb565b90508281526020810184848401111561047557610474610386565b5b610480848285610437565b509392505050565b600082601f83011261049d5761049c610381565b5b81356104ad848260208601610446565b91505092915050565b6000602082840312156104cc576104cb610377565b5b600082013567ffffffffffffffff8111156104ea576104e961037c565b5b6104f684828501610488565b91505092915050565b7f4e487b7100000000000000000000000000000000000000000000000000000000600052602260045260246000fd5b6000600282049050600182168061054657607f821691505b6020821081141561055a576105596104ff565b5b5091905056fea2646970667358221220ed6e4ae9ce6231d248fc341ff48dff8c37c38fc0d489dec3907be2ddea89c5b364736f6c63430008080033",
  "linkReferences": {},
  "deployedLinkReferences": {}
}