{
  "_format": "hh-sol-artifact-1",
  "contractName": "Customer",
  "sourceName": "contracts/Roles/Customer.sol",
  "abi": [
    {
      "inputs": [],
      "stateMutability": "nonpayable",
      "type": "constructor"
    },
    {
      "anonymous": false,
      "inputs": [
        {
          "indexed": false,
          "internalType": "address",
          "name": "_address",
          "type": "address"
        }
      ],
      "name": "AddCustomer",
      "type": "event"
    },
    {
      "anonymous": false,
      "inputs": [
        {
          "indexed": true,
          "internalType": "address",
          "name": "previousOwner",
          "type": "address"
        },
        {
          "indexed": true,
          "internalType": "address",
          "name": "newOwner",
          "type": "address"
        }
      ],
      "name": "OwnershipTransferred",
      "type": "event"
    },
    {
      "anonymous": false,
      "inputs": [
        {
          "indexed": false,
          "internalType": "address",
          "name": "_address",
          "type": "address"
        }
      ],
      "name": "RemoveCustomer",
      "type": "event"
    },
    {
      "inputs": [
        {
          "internalType": "address",
          "name": "_address",
          "type": "address"
        }
      ],
      "name": "addCustomer",
      "outputs": [],
      "stateMutability": "nonpayable",
      "type": "function"
    },
    {
      "inputs": [],
      "name": "getCustomer",
      "outputs": [
        {
          "internalType": "address[]",
          "name": "",
          "type": "address[]"
        }
      ],
      "stateMutability": "view",
      "type": "function"
    },
    {
      "inputs": [
        {
          "internalType": "address",
          "name": "_address",
          "type": "address"
        }
      ],
      "name": "isCustomer",
      "outputs": [
        {
          "internalType": "bool",
          "name": "",
          "type": "bool"
        }
      ],
      "stateMutability": "view",
      "type": "function"
    },
    {
      "inputs": [],
      "name": "owner",
      "outputs": [
        {
          "internalType": "address",
          "name": "",
          "type": "address"
        }
      ],
      "stateMutability": "view",
      "type": "function"
    },
    {
      "inputs": [
        {
          "internalType": "address",
          "name": "_address",
          "type": "address"
        }
      ],
      "name": "removeCustomer",
      "outputs": [],
      "stateMutability": "nonpayable",
      "type": "function"
    },
    {
      "inputs": [
        {
          "internalType": "address",
          "name": "_address",
          "type": "address"
        }
      ],
      "name": "removeCustomerSelf",
      "outputs": [],
      "stateMutability": "nonpayable",
      "type": "function"
    },
    {
      "inputs": [],
      "name": "renounceOwnership",
      "outputs": [],
      "stateMutability": "nonpayable",
      "type": "function"
    },
    {
      "inputs": [
        {
          "internalType": "address",
          "name": "newOwner",
          "type": "address"
        }
      ],
      "name": "transferOwnership",
      "outputs": [],
      "stateMutability": "nonpayable",
      "type": "function"
    }
  ],
  "bytecode": "0x60806040523480156200001157600080fd5b5062000032620000266200004960201b60201c565b6200005160201b60201c565b62000043336200011560201b60201c565b620005c1565b600033905090565b60008060009054906101000a900473ffffffffffffffffffffffffffffffffffffffff169050816000806101000a81548173ffffffffffffffffffffffffffffffffffffffff021916908373ffffffffffffffffffffffffffffffffffffffff1602179055508173ffffffffffffffffffffffffffffffffffffffff168173ffffffffffffffffffffffffffffffffffffffff167f8be0079c531659141344cd1fd0a4f28419497f9722a3daafe3b4186f6b6457e060405160405180910390a35050565b620001256200017c60201b60201c565b620001408160016200020d60201b620003ca1790919060201c565b7f23b2415a50efd127e694ba174e400d457ad65c58752e171b6d17f3f5daa26fdb81604051620001719190620003f9565b60405180910390a150565b6200018c6200004960201b60201c565b73ffffffffffffffffffffffffffffffffffffffff16620001b2620002cb60201b60201c565b73ffffffffffffffffffffffffffffffffffffffff16146200020b576040517f08c379a0000000000000000000000000000000000000000000000000000000008152600401620002029062000477565b60405180910390fd5b565b6200021f8282620002f460201b60201c565b1562000262576040517f08c379a00000000000000000000000000000000000000000000000000000000081526004016200025990620004e9565b60405180910390fd5b81600001819080600181540180825580915050600190039060005260206000200160009091909190916101000a81548173ffffffffffffffffffffffffffffffffffffffff021916908373ffffffffffffffffffffffffffffffffffffffff1602179055505050565b60008060009054906101000a900473ffffffffffffffffffffffffffffffffffffffff16905090565b6000808360000180549050905060005b81811015620003a7578373ffffffffffffffffffffffffffffffffffffffff168560000182815481106200033d576200033c6200050b565b5b9060005260206000200160009054906101000a900473ffffffffffffffffffffffffffffffffffffffff1673ffffffffffffffffffffffffffffffffffffffff1614156200039157600192505050620003ae565b80806200039e9062000573565b91505062000304565b5060009150505b92915050565b600073ffffffffffffffffffffffffffffffffffffffff82169050919050565b6000620003e182620003b4565b9050919050565b620003f381620003d4565b82525050565b6000602082019050620004106000830184620003e8565b92915050565b600082825260208201905092915050565b7f4f776e61626c653a2063616c6c6572206973206e6f7420746865206f776e6572600082015250565b60006200045f60208362000416565b91506200046c8262000427565b602082019050919050565b60006020820190508181036000830152620004928162000450565b9050919050565b7f524f4c455f414c52454144595f45584953545300000000000000000000000000600082015250565b6000620004d160138362000416565b9150620004de8262000499565b602082019050919050565b600060208201905081810360008301526200050481620004c2565b9050919050565b7f4e487b7100000000000000000000000000000000000000000000000000000000600052603260045260246000fd5b7f4e487b7100000000000000000000000000000000000000000000000000000000600052601160045260246000fd5b6000819050919050565b6000620005808262000569565b91507fffffffffffffffffffffffffffffffffffffffffffffffffffffffffffffffff821415620005b657620005b56200053a565b5b600182019050919050565b610dbb80620005d16000396000f3fe608060405234801561001057600080fd5b50600436106100885760003560e01c80638da5cb5b1161005b5780638da5cb5b146101015780638eb06ccf1461011f578063ad973d741461013b578063f2fde38b1461015757610088565b806328fd5e831461008d5780632a7ec29f146100bd578063650d993b146100d9578063715018a6146100f7575b600080fd5b6100a760048036038101906100a2919061091d565b610173565b6040516100b49190610965565b60405180910390f35b6100d760048036038101906100d2919061091d565b610190565b005b6100e161024c565b6040516100ee9190610a3e565b60405180910390f35b6100ff61025d565b005b610109610271565b6040516101169190610a6f565b60405180910390f35b6101396004803603810190610134919061091d565b61029a565b005b6101556004803603810190610150919061091d565b6102f0565b005b610171600480360381019061016c919061091d565b610346565b005b600061018982600161047d90919063ffffffff16565b9050919050565b8073ffffffffffffffffffffffffffffffffffffffff163373ffffffffffffffffffffffffffffffffffffffff16146101fe576040517f08c379a00000000000000000000000000000000000000000000000000000000081526004016101f590610ae7565b60405180910390fd5b61021281600161053490919063ffffffff16565b7f4709990004724f283154297c090b8420d74dcbf9ffcd6bc50294e7350c7cb4fc816040516102419190610a6f565b60405180910390a150565b606061025860016106de565b905090565b610265610770565b61026f60006107ee565b565b60008060009054906101000a900473ffffffffffffffffffffffffffffffffffffffff16905090565b6102a2610770565b6102b681600161053490919063ffffffff16565b7f4709990004724f283154297c090b8420d74dcbf9ffcd6bc50294e7350c7cb4fc816040516102e59190610a6f565b60405180910390a150565b6102f8610770565b61030c8160016103ca90919063ffffffff16565b7f23b2415a50efd127e694ba174e400d457ad65c58752e171b6d17f3f5daa26fdb8160405161033b9190610a6f565b60405180910390a150565b61034e610770565b600073ffffffffffffffffffffffffffffffffffffffff168173ffffffffffffffffffffffffffffffffffffffff1614156103be576040517f08c379a00000000000000000000000000000000000000000000000000000000081526004016103b590610b79565b60405180910390fd5b6103c7816107ee565b50565b6103d4828261047d565b15610414576040517f08c379a000000000000000000000000000000000000000000000000000000000815260040161040b90610be5565b60405180910390fd5b81600001819080600181540180825580915050600190039060005260206000200160009091909190916101000a81548173ffffffffffffffffffffffffffffffffffffffff021916908373ffffffffffffffffffffffffffffffffffffffff1602179055505050565b6000808360000180549050905060005b81811015610527578373ffffffffffffffffffffffffffffffffffffffff168560000182815481106104c2576104c1610c05565b5b9060005260206000200160009054906101000a900473ffffffffffffffffffffffffffffffffffffffff1673ffffffffffffffffffffffffffffffffffffffff1614156105145760019250505061052e565b808061051f90610c6d565b91505061048d565b5060009150505b92915050565b600082600001805490509050600080600090505b8281101561068e5781156106025784600001818154811061056c5761056b610c05565b5b9060005260206000200160009054906101000a900473ffffffffffffffffffffffffffffffffffffffff16856000016001836105a89190610cb6565b815481106105b9576105b8610c05565b5b9060005260206000200160006101000a81548173ffffffffffffffffffffffffffffffffffffffff021916908373ffffffffffffffffffffffffffffffffffffffff1602179055505b8373ffffffffffffffffffffffffffffffffffffffff1685600001828154811061062f5761062e610c05565b5b9060005260206000200160009054906101000a900473ffffffffffffffffffffffffffffffffffffffff1673ffffffffffffffffffffffffffffffffffffffff16141561067b57600191505b808061068690610c6d565b915050610548565b50836000018054806106a3576106a2610cea565b5b6001900381819060005260206000200160006101000a81549073ffffffffffffffffffffffffffffffffffffffff0219169055905550505050565b60608160000180548060200260200160405190810160405280929190818152602001828054801561076457602002820191906000526020600020905b8160009054906101000a900473ffffffffffffffffffffffffffffffffffffffff1673ffffffffffffffffffffffffffffffffffffffff168152602001906001019080831161071a575b50505050509050919050565b6107786108b2565b73ffffffffffffffffffffffffffffffffffffffff16610796610271565b73ffffffffffffffffffffffffffffffffffffffff16146107ec576040517f08c379a00000000000000000000000000000000000000000000000000000000081526004016107e390610d65565b60405180910390fd5b565b60008060009054906101000a900473ffffffffffffffffffffffffffffffffffffffff169050816000806101000a81548173ffffffffffffffffffffffffffffffffffffffff021916908373ffffffffffffffffffffffffffffffffffffffff1602179055508173ffffffffffffffffffffffffffffffffffffffff168173ffffffffffffffffffffffffffffffffffffffff167f8be0079c531659141344cd1fd0a4f28419497f9722a3daafe3b4186f6b6457e060405160405180910390a35050565b600033905090565b600080fd5b600073ffffffffffffffffffffffffffffffffffffffff82169050919050565b60006108ea826108bf565b9050919050565b6108fa816108df565b811461090557600080fd5b50565b600081359050610917816108f1565b92915050565b600060208284031215610933576109326108ba565b5b600061094184828501610908565b91505092915050565b60008115159050919050565b61095f8161094a565b82525050565b600060208201905061097a6000830184610956565b92915050565b600081519050919050565b600082825260208201905092915050565b6000819050602082019050919050565b6109b5816108df565b82525050565b60006109c783836109ac565b60208301905092915050565b6000602082019050919050565b60006109eb82610980565b6109f5818561098b565b9350610a008361099c565b8060005b83811015610a31578151610a1888826109bb565b9750610a23836109d3565b925050600181019050610a04565b5085935050505092915050565b60006020820190508181036000830152610a5881846109e0565b905092915050565b610a69816108df565b82525050565b6000602082019050610a846000830184610a60565b92915050565b600082825260208201905092915050565b7f594f555f43414e5f4e4f545f524f4d4f56455f544849535f4144445245535300600082015250565b6000610ad1601f83610a8a565b9150610adc82610a9b565b602082019050919050565b60006020820190508181036000830152610b0081610ac4565b9050919050565b7f4f776e61626c653a206e6577206f776e657220697320746865207a65726f206160008201527f6464726573730000000000000000000000000000000000000000000000000000602082015250565b6000610b63602683610a8a565b9150610b6e82610b07565b604082019050919050565b60006020820190508181036000830152610b9281610b56565b9050919050565b7f524f4c455f414c52454144595f45584953545300000000000000000000000000600082015250565b6000610bcf601383610a8a565b9150610bda82610b99565b602082019050919050565b60006020820190508181036000830152610bfe81610bc2565b9050919050565b7f4e487b7100000000000000000000000000000000000000000000000000000000600052603260045260246000fd5b7f4e487b7100000000000000000000000000000000000000000000000000000000600052601160045260246000fd5b6000819050919050565b6000610c7882610c63565b91507fffffffffffffffffffffffffffffffffffffffffffffffffffffffffffffffff821415610cab57610caa610c34565b5b600182019050919050565b6000610cc182610c63565b9150610ccc83610c63565b925082821015610cdf57610cde610c34565b5b828203905092915050565b7f4e487b7100000000000000000000000000000000000000000000000000000000600052603160045260246000fd5b7f4f776e61626c653a2063616c6c6572206973206e6f7420746865206f776e6572600082015250565b6000610d4f602083610a8a565b9150610d5a82610d19565b602082019050919050565b60006020820190508181036000830152610d7e81610d42565b905091905056fea26469706673582212204a277b5c85195522e846610967545a8a881e2f454ef6c361f95850ea4ab2eeb464736f6c63430008080033",
  "linkReferences": {},
  "deployedLinkReferences": {}
}