{
  "_format": "hh-sol-artifact-1",
  "contractName": "Retailer",
  "sourceName": "contracts/Roles/Retailer.sol",
  "abi": [
    {
      "inputs": [],
      "stateMutability": "nonpayable",
      "type": "constructor"
    },
    {
      "anonymous": false,
      "inputs": [
        {
          "indexed": false,
          "internalType": "address",
          "name": "_address",
          "type": "address"
        }
      ],
      "name": "AddRetailer",
      "type": "event"
    },
    {
      "anonymous": false,
      "inputs": [
        {
          "indexed": true,
          "internalType": "address",
          "name": "previousOwner",
          "type": "address"
        },
        {
          "indexed": true,
          "internalType": "address",
          "name": "newOwner",
          "type": "address"
        }
      ],
      "name": "OwnershipTransferred",
      "type": "event"
    },
    {
      "anonymous": false,
      "inputs": [
        {
          "indexed": false,
          "internalType": "address",
          "name": "_address",
          "type": "address"
        }
      ],
      "name": "RemoveRetailer",
      "type": "event"
    },
    {
      "inputs": [
        {
          "internalType": "address",
          "name": "_address",
          "type": "address"
        }
      ],
      "name": "addRetailer",
      "outputs": [],
      "stateMutability": "nonpayable",
      "type": "function"
    },
    {
      "inputs": [],
      "name": "getRetailer",
      "outputs": [
        {
          "internalType": "address[]",
          "name": "",
          "type": "address[]"
        }
      ],
      "stateMutability": "view",
      "type": "function"
    },
    {
      "inputs": [
        {
          "internalType": "address",
          "name": "_address",
          "type": "address"
        }
      ],
      "name": "isRetailer",
      "outputs": [
        {
          "internalType": "bool",
          "name": "",
          "type": "bool"
        }
      ],
      "stateMutability": "view",
      "type": "function"
    },
    {
      "inputs": [],
      "name": "owner",
      "outputs": [
        {
          "internalType": "address",
          "name": "",
          "type": "address"
        }
      ],
      "stateMutability": "view",
      "type": "function"
    },
    {
      "inputs": [
        {
          "internalType": "address",
          "name": "_address",
          "type": "address"
        }
      ],
      "name": "removeRetailer",
      "outputs": [],
      "stateMutability": "nonpayable",
      "type": "function"
    },
    {
      "inputs": [
        {
          "internalType": "address",
          "name": "_address",
          "type": "address"
        }
      ],
      "name": "removeRetailerSelf",
      "outputs": [],
      "stateMutability": "nonpayable",
      "type": "function"
    },
    {
      "inputs": [],
      "name": "renounceOwnership",
      "outputs": [],
      "stateMutability": "nonpayable",
      "type": "function"
    },
    {
      "inputs": [
        {
          "internalType": "address",
          "name": "newOwner",
          "type": "address"
        }
      ],
      "name": "transferOwnership",
      "outputs": [],
      "stateMutability": "nonpayable",
      "type": "function"
    }
  ],
  "bytecode": "0x60806040523480156200001157600080fd5b5062000032620000266200004960201b60201c565b6200005160201b60201c565b62000043336200011560201b60201c565b620005c1565b600033905090565b60008060009054906101000a900473ffffffffffffffffffffffffffffffffffffffff169050816000806101000a81548173ffffffffffffffffffffffffffffffffffffffff021916908373ffffffffffffffffffffffffffffffffffffffff1602179055508173ffffffffffffffffffffffffffffffffffffffff168173ffffffffffffffffffffffffffffffffffffffff167f8be0079c531659141344cd1fd0a4f28419497f9722a3daafe3b4186f6b6457e060405160405180910390a35050565b620001256200017c60201b60201c565b620001408160016200020d60201b620003ca1790919060201c565b7f0eea60f9e1851b51feed56c339be177ea715591923622a0effe46dbb8885efa681604051620001719190620003f9565b60405180910390a150565b6200018c6200004960201b60201c565b73ffffffffffffffffffffffffffffffffffffffff16620001b2620002cb60201b60201c565b73ffffffffffffffffffffffffffffffffffffffff16146200020b576040517f08c379a0000000000000000000000000000000000000000000000000000000008152600401620002029062000477565b60405180910390fd5b565b6200021f8282620002f460201b60201c565b1562000262576040517f08c379a00000000000000000000000000000000000000000000000000000000081526004016200025990620004e9565b60405180910390fd5b81600001819080600181540180825580915050600190039060005260206000200160009091909190916101000a81548173ffffffffffffffffffffffffffffffffffffffff021916908373ffffffffffffffffffffffffffffffffffffffff1602179055505050565b60008060009054906101000a900473ffffffffffffffffffffffffffffffffffffffff16905090565b6000808360000180549050905060005b81811015620003a7578373ffffffffffffffffffffffffffffffffffffffff168560000182815481106200033d576200033c6200050b565b5b9060005260206000200160009054906101000a900473ffffffffffffffffffffffffffffffffffffffff1673ffffffffffffffffffffffffffffffffffffffff1614156200039157600192505050620003ae565b80806200039e9062000573565b91505062000304565b5060009150505b92915050565b600073ffffffffffffffffffffffffffffffffffffffff82169050919050565b6000620003e182620003b4565b9050919050565b620003f381620003d4565b82525050565b6000602082019050620004106000830184620003e8565b92915050565b600082825260208201905092915050565b7f4f776e61626c653a2063616c6c6572206973206e6f7420746865206f776e6572600082015250565b60006200045f60208362000416565b91506200046c8262000427565b602082019050919050565b60006020820190508181036000830152620004928162000450565b9050919050565b7f524f4c455f414c52454144595f45584953545300000000000000000000000000600082015250565b6000620004d160138362000416565b9150620004de8262000499565b602082019050919050565b600060208201905081810360008301526200050481620004c2565b9050919050565b7f4e487b7100000000000000000000000000000000000000000000000000000000600052603260045260246000fd5b7f4e487b7100000000000000000000000000000000000000000000000000000000600052601160045260246000fd5b6000819050919050565b6000620005808262000569565b91507fffffffffffffffffffffffffffffffffffffffffffffffffffffffffffffffff821415620005b657620005b56200053a565b5b600182019050919050565b610dbb80620005d16000396000f3fe608060405234801561001057600080fd5b50600436106100885760003560e01c80638ec4f5051161005b5780638ec4f50514610101578063e7d0831d1461011d578063f2fde38b14610139578063f80d1ff01461015557610088565b80635da09b881461008d57806370099ec8146100bd578063715018a6146100d95780638da5cb5b146100e3575b600080fd5b6100a760048036038101906100a2919061091d565b610173565b6040516100b49190610965565b60405180910390f35b6100d760048036038101906100d2919061091d565b610190565b005b6100e16101e6565b005b6100eb6101fa565b6040516100f8919061098f565b60405180910390f35b61011b6004803603810190610116919061091d565b610223565b005b6101376004803603810190610132919061091d565b610279565b005b610153600480360381019061014e919061091d565b610335565b005b61015d6103b9565b60405161016a9190610a68565b60405180910390f35b600061018982600161047d90919063ffffffff16565b9050919050565b610198610534565b6101ac8160016105b290919063ffffffff16565b7f200c3f073f217cf07dee57ee6e42c29e5fa6937f536b65c9d1e06be1f9c83dc1816040516101db919061098f565b60405180910390a150565b6101ee610534565b6101f8600061075c565b565b60008060009054906101000a900473ffffffffffffffffffffffffffffffffffffffff16905090565b61022b610534565b61023f8160016103ca90919063ffffffff16565b7f0eea60f9e1851b51feed56c339be177ea715591923622a0effe46dbb8885efa68160405161026e919061098f565b60405180910390a150565b8073ffffffffffffffffffffffffffffffffffffffff163373ffffffffffffffffffffffffffffffffffffffff16146102e7576040517f08c379a00000000000000000000000000000000000000000000000000000000081526004016102de90610ae7565b60405180910390fd5b6102fb8160016105b290919063ffffffff16565b7f200c3f073f217cf07dee57ee6e42c29e5fa6937f536b65c9d1e06be1f9c83dc18160405161032a919061098f565b60405180910390a150565b61033d610534565b600073ffffffffffffffffffffffffffffffffffffffff168173ffffffffffffffffffffffffffffffffffffffff1614156103ad576040517f08c379a00000000000000000000000000000000000000000000000000000000081526004016103a490610b79565b60405180910390fd5b6103b68161075c565b50565b60606103c56001610820565b905090565b6103d4828261047d565b15610414576040517f08c379a000000000000000000000000000000000000000000000000000000000815260040161040b90610be5565b60405180910390fd5b81600001819080600181540180825580915050600190039060005260206000200160009091909190916101000a81548173ffffffffffffffffffffffffffffffffffffffff021916908373ffffffffffffffffffffffffffffffffffffffff1602179055505050565b6000808360000180549050905060005b81811015610527578373ffffffffffffffffffffffffffffffffffffffff168560000182815481106104c2576104c1610c05565b5b9060005260206000200160009054906101000a900473ffffffffffffffffffffffffffffffffffffffff1673ffffffffffffffffffffffffffffffffffffffff1614156105145760019250505061052e565b808061051f90610c6d565b91505061048d565b5060009150505b92915050565b61053c6108b2565b73ffffffffffffffffffffffffffffffffffffffff1661055a6101fa565b73ffffffffffffffffffffffffffffffffffffffff16146105b0576040517f08c379a00000000000000000000000000000000000000000000000000000000081526004016105a790610d02565b60405180910390fd5b565b600082600001805490509050600080600090505b8281101561070c578115610680578460000181815481106105ea576105e9610c05565b5b9060005260206000200160009054906101000a900473ffffffffffffffffffffffffffffffffffffffff16856000016001836106269190610d22565b8154811061063757610636610c05565b5b9060005260206000200160006101000a81548173ffffffffffffffffffffffffffffffffffffffff021916908373ffffffffffffffffffffffffffffffffffffffff1602179055505b8373ffffffffffffffffffffffffffffffffffffffff168560000182815481106106ad576106ac610c05565b5b9060005260206000200160009054906101000a900473ffffffffffffffffffffffffffffffffffffffff1673ffffffffffffffffffffffffffffffffffffffff1614156106f957600191505b808061070490610c6d565b9150506105c6565b508360000180548061072157610720610d56565b5b6001900381819060005260206000200160006101000a81549073ffffffffffffffffffffffffffffffffffffffff0219169055905550505050565b60008060009054906101000a900473ffffffffffffffffffffffffffffffffffffffff169050816000806101000a81548173ffffffffffffffffffffffffffffffffffffffff021916908373ffffffffffffffffffffffffffffffffffffffff1602179055508173ffffffffffffffffffffffffffffffffffffffff168173ffffffffffffffffffffffffffffffffffffffff167f8be0079c531659141344cd1fd0a4f28419497f9722a3daafe3b4186f6b6457e060405160405180910390a35050565b6060816000018054806020026020016040519081016040528092919081815260200182805480156108a657602002820191906000526020600020905b8160009054906101000a900473ffffffffffffffffffffffffffffffffffffffff1673ffffffffffffffffffffffffffffffffffffffff168152602001906001019080831161085c575b50505050509050919050565b600033905090565b600080fd5b600073ffffffffffffffffffffffffffffffffffffffff82169050919050565b60006108ea826108bf565b9050919050565b6108fa816108df565b811461090557600080fd5b50565b600081359050610917816108f1565b92915050565b600060208284031215610933576109326108ba565b5b600061094184828501610908565b91505092915050565b60008115159050919050565b61095f8161094a565b82525050565b600060208201905061097a6000830184610956565b92915050565b610989816108df565b82525050565b60006020820190506109a46000830184610980565b92915050565b600081519050919050565b600082825260208201905092915050565b6000819050602082019050919050565b6109df816108df565b82525050565b60006109f183836109d6565b60208301905092915050565b6000602082019050919050565b6000610a15826109aa565b610a1f81856109b5565b9350610a2a836109c6565b8060005b83811015610a5b578151610a4288826109e5565b9750610a4d836109fd565b925050600181019050610a2e565b5085935050505092915050565b60006020820190508181036000830152610a828184610a0a565b905092915050565b600082825260208201905092915050565b7f594f555f43414e5f4e4f545f524f4d4f56455f544849535f4144445245535300600082015250565b6000610ad1601f83610a8a565b9150610adc82610a9b565b602082019050919050565b60006020820190508181036000830152610b0081610ac4565b9050919050565b7f4f776e61626c653a206e6577206f776e657220697320746865207a65726f206160008201527f6464726573730000000000000000000000000000000000000000000000000000602082015250565b6000610b63602683610a8a565b9150610b6e82610b07565b604082019050919050565b60006020820190508181036000830152610b9281610b56565b9050919050565b7f524f4c455f414c52454144595f45584953545300000000000000000000000000600082015250565b6000610bcf601383610a8a565b9150610bda82610b99565b602082019050919050565b60006020820190508181036000830152610bfe81610bc2565b9050919050565b7f4e487b7100000000000000000000000000000000000000000000000000000000600052603260045260246000fd5b7f4e487b7100000000000000000000000000000000000000000000000000000000600052601160045260246000fd5b6000819050919050565b6000610c7882610c63565b91507fffffffffffffffffffffffffffffffffffffffffffffffffffffffffffffffff821415610cab57610caa610c34565b5b600182019050919050565b7f4f776e61626c653a2063616c6c6572206973206e6f7420746865206f776e6572600082015250565b6000610cec602083610a8a565b9150610cf782610cb6565b602082019050919050565b60006020820190508181036000830152610d1b81610cdf565b9050919050565b6000610d2d82610c63565b9150610d3883610c63565b925082821015610d4b57610d4a610c34565b5b828203905092915050565b7f4e487b7100000000000000000000000000000000000000000000000000000000600052603160045260246000fdfea264697066735822122078f2feaa39e34bd5518027b5cb6121cffcf30a42f2a0bcf599a01ecba5abf89964736f6c63430008080033",
  "linkReferences": {},
  "deployedLinkReferences": {}
}